{
	"contracts/Tp_Final_Mod02/AuctETH.sol": {
		"AuctETH": {
			"abi": [
				{
					"inputs": [
						{
							"internalType": "uint256",
							"name": "_initValue",
							"type": "uint256"
						},
						{
							"internalType": "uint256",
							"name": "_bidIncrement",
							"type": "uint256"
						},
						{
							"internalType": "uint256",
							"name": "_duration",
							"type": "uint256"
						}
					],
					"stateMutability": "nonpayable",
					"type": "constructor"
				},
				{
					"anonymous": false,
					"inputs": [
						{
							"indexed": true,
							"internalType": "address",
							"name": "bidder",
							"type": "address"
						},
						{
							"indexed": false,
							"internalType": "uint256",
							"name": "bidValue",
							"type": "uint256"
						}
					],
					"name": "NewBid",
					"type": "event"
				},
				{
					"anonymous": false,
					"inputs": [
						{
							"indexed": true,
							"internalType": "address",
							"name": "winner",
							"type": "address"
						},
						{
							"indexed": false,
							"internalType": "uint256",
							"name": "highestBid",
							"type": "uint256"
						}
					],
					"name": "Winner",
					"type": "event"
				},
				{
					"inputs": [],
					"name": "bidIncrement",
					"outputs": [
						{
							"internalType": "uint256",
							"name": "",
							"type": "uint256"
						}
					],
					"stateMutability": "view",
					"type": "function"
				},
				{
					"inputs": [
						{
							"internalType": "uint256",
							"name": "",
							"type": "uint256"
						}
					],
					"name": "bidderAddresses",
					"outputs": [
						{
							"internalType": "address",
							"name": "",
							"type": "address"
						}
					],
					"stateMutability": "view",
					"type": "function"
				},
				{
					"inputs": [
						{
							"internalType": "address",
							"name": "",
							"type": "address"
						}
					],
					"name": "bidders",
					"outputs": [
						{
							"internalType": "address",
							"name": "addrs",
							"type": "address"
						},
						{
							"internalType": "uint256",
							"name": "lastBid",
							"type": "uint256"
						},
						{
							"internalType": "uint256",
							"name": "balance",
							"type": "uint256"
						}
					],
					"stateMutability": "view",
					"type": "function"
				},
				{
					"inputs": [],
					"name": "duration",
					"outputs": [
						{
							"internalType": "uint256",
							"name": "",
							"type": "uint256"
						}
					],
					"stateMutability": "view",
					"type": "function"
				},
				{
					"inputs": [],
					"name": "finishTimestamp",
					"outputs": [
						{
							"internalType": "uint256",
							"name": "",
							"type": "uint256"
						}
					],
					"stateMutability": "view",
					"type": "function"
				},
				{
					"inputs": [],
					"name": "getWinner",
					"outputs": [
						{
							"internalType": "address",
							"name": "winnerAddress",
							"type": "address"
						},
						{
							"internalType": "uint256",
							"name": "winningBid",
							"type": "uint256"
						}
					],
					"stateMutability": "view",
					"type": "function"
				},
				{
					"inputs": [],
					"name": "highestBid",
					"outputs": [
						{
							"internalType": "uint256",
							"name": "",
							"type": "uint256"
						}
					],
					"stateMutability": "view",
					"type": "function"
				},
				{
					"inputs": [],
					"name": "incrementalPercentage",
					"outputs": [
						{
							"internalType": "uint256",
							"name": "",
							"type": "uint256"
						}
					],
					"stateMutability": "view",
					"type": "function"
				},
				{
					"inputs": [],
					"name": "initValue",
					"outputs": [
						{
							"internalType": "uint256",
							"name": "",
							"type": "uint256"
						}
					],
					"stateMutability": "view",
					"type": "function"
				},
				{
					"inputs": [],
					"name": "makeBid",
					"outputs": [],
					"stateMutability": "payable",
					"type": "function"
				},
				{
					"inputs": [],
					"name": "owner",
					"outputs": [
						{
							"internalType": "address",
							"name": "",
							"type": "address"
						}
					],
					"stateMutability": "view",
					"type": "function"
				},
				{
					"inputs": [],
					"name": "returnsBids",
					"outputs": [],
					"stateMutability": "payable",
					"type": "function"
				},
				{
					"inputs": [],
					"name": "showBids",
					"outputs": [
						{
							"components": [
								{
									"internalType": "address",
									"name": "bidder",
									"type": "address"
								},
								{
									"internalType": "uint256",
									"name": "amount",
									"type": "uint256"
								}
							],
							"internalType": "struct AuctETH.Bid[]",
							"name": "",
							"type": "tuple[]"
						}
					],
					"stateMutability": "view",
					"type": "function"
				},
				{
					"inputs": [],
					"name": "showhighestBid",
					"outputs": [
						{
							"internalType": "uint256",
							"name": "",
							"type": "uint256"
						}
					],
					"stateMutability": "view",
					"type": "function"
				},
				{
					"inputs": [],
					"name": "winner",
					"outputs": [
						{
							"internalType": "address",
							"name": "",
							"type": "address"
						}
					],
					"stateMutability": "view",
					"type": "function"
				},
				{
					"inputs": [],
					"name": "withDraw",
					"outputs": [],
					"stateMutability": "payable",
					"type": "function"
				}
			],
			"devdoc": {
				"author": "Ivan Carneiro",
				"details": "Implements features like bid increments, automatic extensions, and refunds with commission",
				"kind": "dev",
				"methods": {
					"constructor": {
						"params": {
							"_bidIncrement": "The minimum bid increment (in percentage).",
							"_duration": "The duration of the auction (in seconds).",
							"_initValue": "The initial value of the auction item."
						}
					},
					"getWinner()": {
						"details": "This function can be called after the auction has ended.",
						"returns": {
							"winnerAddress": "The winner's Ethereum address.",
							"winningBid": "The winning bid amount."
						}
					},
					"incrementalPercentage()": {
						"returns": {
							"_0": "uint256."
						}
					},
					"makeBid()": {
						"details": "Requires bid value to exceed current bid by minimum increment."
					},
					"returnsBids()": {
						"details": "Only the auction owner can call this function."
					},
					"showBids()": {
						"returns": {
							"_0": "array."
						}
					},
					"showhighestBid()": {
						"returns": {
							"_0": "uint256."
						}
					},
					"withDraw()": {
						"details": "Only the balance owner can call this function."
					}
				},
				"title": "AuctETH - A smart contract for Ethereum-based auctions",
				"version": 1
			},
			"evm": {
				"assembly": "    /* \"contracts/Tp_Final_Mod02/AuctETH.sol\":338:7821  contract AuctETH {... */\n  mstore(0x40, 0x80)\n    /* \"contracts/Tp_Final_Mod02/AuctETH.sol\":1054:1438  constructor(uint256 _initValue, uint256 _bidIncrement, uint256 _duration) {... */\n  callvalue\n  dup1\n  iszero\n  tag_1\n  jumpi\n  0x00\n  dup1\n  revert\ntag_1:\n  pop\n  mload(0x40)\n  sub(codesize, bytecodeSize)\n  dup1\n  bytecodeSize\n  dup4\n  codecopy\n  dup2\n  dup2\n  add\n  0x40\n  mstore\n  dup2\n  add\n  swap1\n  tag_2\n  swap2\n  swap1\n  tag_3\n  jump\t// in\ntag_2:\n    /* \"contracts/Tp_Final_Mod02/AuctETH.sol\":1159:1160  0 */\n  0x00\n    /* \"contracts/Tp_Final_Mod02/AuctETH.sol\":1146:1156  _initValue */\n  dup4\n    /* \"contracts/Tp_Final_Mod02/AuctETH.sol\":1146:1160  _initValue > 0 */\n  gt\n    /* \"contracts/Tp_Final_Mod02/AuctETH.sol\":1138:1216  require(_initValue > 0, \"The initial value must be greater than zero for gas\") */\n  tag_6\n  jumpi\n  mload(0x40)\n  0x08c379a000000000000000000000000000000000000000000000000000000000\n  dup2\n  mstore\n  0x04\n  add\n  tag_7\n  swap1\n  tag_8\n  jump\t// in\ntag_7:\n  mload(0x40)\n  dup1\n  swap2\n  sub\n  swap1\n  revert\ntag_6:\n    /* \"contracts/Tp_Final_Mod02/AuctETH.sol\":1234:1244  msg.sender */\n  caller\n    /* \"contracts/Tp_Final_Mod02/AuctETH.sol\":1226:1231  owner */\n  0x00\n  dup1\n    /* \"contracts/Tp_Final_Mod02/AuctETH.sol\":1226:1244  owner = msg.sender */\n  0x0100\n  exp\n  dup2\n  sload\n  dup2\n  0xffffffffffffffffffffffffffffffffffffffff\n  mul\n  not\n  and\n  swap1\n  dup4\n  0xffffffffffffffffffffffffffffffffffffffff\n  and\n  mul\n  or\n  swap1\n  sstore\n  pop\n    /* \"contracts/Tp_Final_Mod02/AuctETH.sol\":1266:1276  _initValue */\n  dup3\n    /* \"contracts/Tp_Final_Mod02/AuctETH.sol\":1254:1263  initValue */\n  0x02\n    /* \"contracts/Tp_Final_Mod02/AuctETH.sol\":1254:1276  initValue = _initValue */\n  dup2\n  swap1\n  sstore\n  pop\n    /* \"contracts/Tp_Final_Mod02/AuctETH.sol\":1299:1309  _initValue */\n  dup3\n    /* \"contracts/Tp_Final_Mod02/AuctETH.sol\":1286:1296  highestBid */\n  0x03\n    /* \"contracts/Tp_Final_Mod02/AuctETH.sol\":1286:1309  highestBid = _initValue */\n  dup2\n  swap1\n  sstore\n  pop\n    /* \"contracts/Tp_Final_Mod02/AuctETH.sol\":1334:1347  _bidIncrement */\n  dup2\n    /* \"contracts/Tp_Final_Mod02/AuctETH.sol\":1319:1331  bidIncrement */\n  0x04\n    /* \"contracts/Tp_Final_Mod02/AuctETH.sol\":1319:1347  bidIncrement = _bidIncrement */\n  dup2\n  swap1\n  sstore\n  pop\n    /* \"contracts/Tp_Final_Mod02/AuctETH.sol\":1368:1377  _duration */\n  dup1\n    /* \"contracts/Tp_Final_Mod02/AuctETH.sol\":1357:1365  duration */\n  0x05\n    /* \"contracts/Tp_Final_Mod02/AuctETH.sol\":1357:1377  duration = _duration */\n  dup2\n  swap1\n  sstore\n  pop\n    /* \"contracts/Tp_Final_Mod02/AuctETH.sol\":1423:1431  duration */\n  sload(0x05)\n    /* \"contracts/Tp_Final_Mod02/AuctETH.sol\":1405:1420  block.timestamp */\n  timestamp\n    /* \"contracts/Tp_Final_Mod02/AuctETH.sol\":1405:1431  block.timestamp + duration */\n  tag_9\n  swap2\n  swap1\n  tag_10\n  jump\t// in\ntag_9:\n    /* \"contracts/Tp_Final_Mod02/AuctETH.sol\":1387:1402  finishTimestamp */\n  0x06\n    /* \"contracts/Tp_Final_Mod02/AuctETH.sol\":1387:1431  finishTimestamp = block.timestamp + duration */\n  dup2\n  swap1\n  sstore\n  pop\n    /* \"contracts/Tp_Final_Mod02/AuctETH.sol\":1054:1438  constructor(uint256 _initValue, uint256 _bidIncrement, uint256 _duration) {... */\n  pop\n  pop\n  pop\n    /* \"contracts/Tp_Final_Mod02/AuctETH.sol\":338:7821  contract AuctETH {... */\n  jump(tag_11)\n    /* \"#utility.yul\":88:205   */\ntag_13:\n    /* \"#utility.yul\":197:198   */\n  0x00\n    /* \"#utility.yul\":194:195   */\n  dup1\n    /* \"#utility.yul\":187:199   */\n  revert\n    /* \"#utility.yul\":334:411   */\ntag_15:\n    /* \"#utility.yul\":371:378   */\n  0x00\n    /* \"#utility.yul\":400:405   */\n  dup2\n    /* \"#utility.yul\":389:405   */\n  swap1\n  pop\n    /* \"#utility.yul\":334:411   */\n  swap2\n  swap1\n  pop\n  jump\t// out\n    /* \"#utility.yul\":417:539   */\ntag_16:\n    /* \"#utility.yul\":490:514   */\n  tag_28\n    /* \"#utility.yul\":508:513   */\n  dup2\n    /* \"#utility.yul\":490:514   */\n  tag_15\n  jump\t// in\ntag_28:\n    /* \"#utility.yul\":483:488   */\n  dup2\n    /* \"#utility.yul\":480:515   */\n  eq\n    /* \"#utility.yul\":470:533   */\n  tag_29\n  jumpi\n    /* \"#utility.yul\":529:530   */\n  0x00\n    /* \"#utility.yul\":526:527   */\n  dup1\n    /* \"#utility.yul\":519:531   */\n  revert\n    /* \"#utility.yul\":470:533   */\ntag_29:\n    /* \"#utility.yul\":417:539   */\n  pop\n  jump\t// out\n    /* \"#utility.yul\":545:688   */\ntag_17:\n    /* \"#utility.yul\":602:607   */\n  0x00\n    /* \"#utility.yul\":633:639   */\n  dup2\n    /* \"#utility.yul\":627:640   */\n  mload\n    /* \"#utility.yul\":618:640   */\n  swap1\n  pop\n    /* \"#utility.yul\":649:682   */\n  tag_31\n    /* \"#utility.yul\":676:681   */\n  dup2\n    /* \"#utility.yul\":649:682   */\n  tag_16\n  jump\t// in\ntag_31:\n    /* \"#utility.yul\":545:688   */\n  swap3\n  swap2\n  pop\n  pop\n  jump\t// out\n    /* \"#utility.yul\":694:1357   */\ntag_3:\n    /* \"#utility.yul\":782:788   */\n  0x00\n    /* \"#utility.yul\":790:796   */\n  dup1\n    /* \"#utility.yul\":798:804   */\n  0x00\n    /* \"#utility.yul\":847:849   */\n  0x60\n    /* \"#utility.yul\":835:844   */\n  dup5\n    /* \"#utility.yul\":826:833   */\n  dup7\n    /* \"#utility.yul\":822:845   */\n  sub\n    /* \"#utility.yul\":818:850   */\n  slt\n    /* \"#utility.yul\":815:934   */\n  iszero\n  tag_33\n  jumpi\n    /* \"#utility.yul\":853:932   */\n  tag_34\n  tag_13\n  jump\t// in\ntag_34:\n    /* \"#utility.yul\":815:934   */\ntag_33:\n    /* \"#utility.yul\":973:974   */\n  0x00\n    /* \"#utility.yul\":998:1062   */\n  tag_35\n    /* \"#utility.yul\":1054:1061   */\n  dup7\n    /* \"#utility.yul\":1045:1051   */\n  dup3\n    /* \"#utility.yul\":1034:1043   */\n  dup8\n    /* \"#utility.yul\":1030:1052   */\n  add\n    /* \"#utility.yul\":998:1062   */\n  tag_17\n  jump\t// in\ntag_35:\n    /* \"#utility.yul\":988:1062   */\n  swap4\n  pop\n    /* \"#utility.yul\":944:1072   */\n  pop\n    /* \"#utility.yul\":1111:1113   */\n  0x20\n    /* \"#utility.yul\":1137:1201   */\n  tag_36\n    /* \"#utility.yul\":1193:1200   */\n  dup7\n    /* \"#utility.yul\":1184:1190   */\n  dup3\n    /* \"#utility.yul\":1173:1182   */\n  dup8\n    /* \"#utility.yul\":1169:1191   */\n  add\n    /* \"#utility.yul\":1137:1201   */\n  tag_17\n  jump\t// in\ntag_36:\n    /* \"#utility.yul\":1127:1201   */\n  swap3\n  pop\n    /* \"#utility.yul\":1082:1211   */\n  pop\n    /* \"#utility.yul\":1250:1252   */\n  0x40\n    /* \"#utility.yul\":1276:1340   */\n  tag_37\n    /* \"#utility.yul\":1332:1339   */\n  dup7\n    /* \"#utility.yul\":1323:1329   */\n  dup3\n    /* \"#utility.yul\":1312:1321   */\n  dup8\n    /* \"#utility.yul\":1308:1330   */\n  add\n    /* \"#utility.yul\":1276:1340   */\n  tag_17\n  jump\t// in\ntag_37:\n    /* \"#utility.yul\":1266:1340   */\n  swap2\n  pop\n    /* \"#utility.yul\":1221:1350   */\n  pop\n    /* \"#utility.yul\":694:1357   */\n  swap3\n  pop\n  swap3\n  pop\n  swap3\n  jump\t// out\n    /* \"#utility.yul\":1363:1532   */\ntag_18:\n    /* \"#utility.yul\":1447:1458   */\n  0x00\n    /* \"#utility.yul\":1481:1487   */\n  dup3\n    /* \"#utility.yul\":1476:1479   */\n  dup3\n    /* \"#utility.yul\":1469:1488   */\n  mstore\n    /* \"#utility.yul\":1521:1525   */\n  0x20\n    /* \"#utility.yul\":1516:1519   */\n  dup3\n    /* \"#utility.yul\":1512:1526   */\n  add\n    /* \"#utility.yul\":1497:1526   */\n  swap1\n  pop\n    /* \"#utility.yul\":1363:1532   */\n  swap3\n  swap2\n  pop\n  pop\n  jump\t// out\n    /* \"#utility.yul\":1538:1776   */\ntag_19:\n    /* \"#utility.yul\":1678:1712   */\n  0x54686520696e697469616c2076616c7565206d75737420626520677265617465\n    /* \"#utility.yul\":1674:1675   */\n  0x00\n    /* \"#utility.yul\":1666:1672   */\n  dup3\n    /* \"#utility.yul\":1662:1676   */\n  add\n    /* \"#utility.yul\":1655:1713   */\n  mstore\n    /* \"#utility.yul\":1747:1768   */\n  0x72207468616e207a65726f20666f722067617300000000000000000000000000\n    /* \"#utility.yul\":1742:1744   */\n  0x20\n    /* \"#utility.yul\":1734:1740   */\n  dup3\n    /* \"#utility.yul\":1730:1745   */\n  add\n    /* \"#utility.yul\":1723:1769   */\n  mstore\n    /* \"#utility.yul\":1538:1776   */\n  pop\n  jump\t// out\n    /* \"#utility.yul\":1782:2148   */\ntag_20:\n    /* \"#utility.yul\":1924:1927   */\n  0x00\n    /* \"#utility.yul\":1945:2012   */\n  tag_41\n    /* \"#utility.yul\":2009:2011   */\n  0x33\n    /* \"#utility.yul\":2004:2007   */\n  dup4\n    /* \"#utility.yul\":1945:2012   */\n  tag_18\n  jump\t// in\ntag_41:\n    /* \"#utility.yul\":1938:2012   */\n  swap2\n  pop\n    /* \"#utility.yul\":2021:2114   */\n  tag_42\n    /* \"#utility.yul\":2110:2113   */\n  dup3\n    /* \"#utility.yul\":2021:2114   */\n  tag_19\n  jump\t// in\ntag_42:\n    /* \"#utility.yul\":2139:2141   */\n  0x40\n    /* \"#utility.yul\":2134:2137   */\n  dup3\n    /* \"#utility.yul\":2130:2142   */\n  add\n    /* \"#utility.yul\":2123:2142   */\n  swap1\n  pop\n    /* \"#utility.yul\":1782:2148   */\n  swap2\n  swap1\n  pop\n  jump\t// out\n    /* \"#utility.yul\":2154:2573   */\ntag_8:\n    /* \"#utility.yul\":2320:2324   */\n  0x00\n    /* \"#utility.yul\":2358:2360   */\n  0x20\n    /* \"#utility.yul\":2347:2356   */\n  dup3\n    /* \"#utility.yul\":2343:2361   */\n  add\n    /* \"#utility.yul\":2335:2361   */\n  swap1\n  pop\n    /* \"#utility.yul\":2407:2416   */\n  dup2\n    /* \"#utility.yul\":2401:2405   */\n  dup2\n    /* \"#utility.yul\":2397:2417   */\n  sub\n    /* \"#utility.yul\":2393:2394   */\n  0x00\n    /* \"#utility.yul\":2382:2391   */\n  dup4\n    /* \"#utility.yul\":2378:2395   */\n  add\n    /* \"#utility.yul\":2371:2418   */\n  mstore\n    /* \"#utility.yul\":2435:2566   */\n  tag_44\n    /* \"#utility.yul\":2561:2565   */\n  dup2\n    /* \"#utility.yul\":2435:2566   */\n  tag_20\n  jump\t// in\ntag_44:\n    /* \"#utility.yul\":2427:2566   */\n  swap1\n  pop\n    /* \"#utility.yul\":2154:2573   */\n  swap2\n  swap1\n  pop\n  jump\t// out\n    /* \"#utility.yul\":2579:2759   */\ntag_21:\n    /* \"#utility.yul\":2627:2704   */\n  0x4e487b7100000000000000000000000000000000000000000000000000000000\n    /* \"#utility.yul\":2624:2625   */\n  0x00\n    /* \"#utility.yul\":2617:2705   */\n  mstore\n    /* \"#utility.yul\":2724:2728   */\n  0x11\n    /* \"#utility.yul\":2721:2722   */\n  0x04\n    /* \"#utility.yul\":2714:2729   */\n  mstore\n    /* \"#utility.yul\":2748:2752   */\n  0x24\n    /* \"#utility.yul\":2745:2746   */\n  0x00\n    /* \"#utility.yul\":2738:2753   */\n  revert\n    /* \"#utility.yul\":2765:2956   */\ntag_10:\n    /* \"#utility.yul\":2805:2808   */\n  0x00\n    /* \"#utility.yul\":2824:2844   */\n  tag_47\n    /* \"#utility.yul\":2842:2843   */\n  dup3\n    /* \"#utility.yul\":2824:2844   */\n  tag_15\n  jump\t// in\ntag_47:\n    /* \"#utility.yul\":2819:2844   */\n  swap2\n  pop\n    /* \"#utility.yul\":2858:2878   */\n  tag_48\n    /* \"#utility.yul\":2876:2877   */\n  dup4\n    /* \"#utility.yul\":2858:2878   */\n  tag_15\n  jump\t// in\ntag_48:\n    /* \"#utility.yul\":2853:2878   */\n  swap3\n  pop\n    /* \"#utility.yul\":2901:2902   */\n  dup3\n    /* \"#utility.yul\":2898:2899   */\n  dup3\n    /* \"#utility.yul\":2894:2903   */\n  add\n    /* \"#utility.yul\":2887:2903   */\n  swap1\n  pop\n    /* \"#utility.yul\":2922:2925   */\n  dup1\n    /* \"#utility.yul\":2919:2920   */\n  dup3\n    /* \"#utility.yul\":2916:2926   */\n  gt\n    /* \"#utility.yul\":2913:2949   */\n  iszero\n  tag_49\n  jumpi\n    /* \"#utility.yul\":2929:2947   */\n  tag_50\n  tag_21\n  jump\t// in\ntag_50:\n    /* \"#utility.yul\":2913:2949   */\ntag_49:\n    /* \"#utility.yul\":2765:2956   */\n  swap3\n  swap2\n  pop\n  pop\n  jump\t// out\n    /* \"contracts/Tp_Final_Mod02/AuctETH.sol\":338:7821  contract AuctETH {... */\ntag_11:\n  dataSize(sub_0)\n  dup1\n  dataOffset(sub_0)\n  0x00\n  codecopy\n  0x00\n  return\nstop\n\nsub_0: assembly {\n        /* \"contracts/Tp_Final_Mod02/AuctETH.sol\":338:7821  contract AuctETH {... */\n      mstore(0x40, 0x80)\n      jumpi(tag_1, lt(calldatasize, 0x04))\n      shr(0xe0, calldataload(0x00))\n      dup1\n      0x8da5cb5b\n      gt\n      tag_18\n      jumpi\n      dup1\n      0xd57bde79\n      gt\n      tag_19\n      jumpi\n      dup1\n      0xd57bde79\n      eq\n      tag_14\n      jumpi\n      dup1\n      0xdfbf53ae\n      eq\n      tag_15\n      jumpi\n      dup1\n      0xf30e3658\n      eq\n      tag_16\n      jumpi\n      dup1\n      0xfcc8f793\n      eq\n      tag_17\n      jumpi\n      jump(tag_1)\n    tag_19:\n      dup1\n      0x8da5cb5b\n      eq\n      tag_10\n      jumpi\n      dup1\n      0x8e7ea5b2\n      eq\n      tag_11\n      jumpi\n      dup1\n      0xac1adfd5\n      eq\n      tag_12\n      jumpi\n      dup1\n      0xb3cc167a\n      eq\n      tag_13\n      jumpi\n      jump(tag_1)\n    tag_18:\n      dup1\n      0x2fc36f11\n      gt\n      tag_20\n      jumpi\n      dup1\n      0x2fc36f11\n      eq\n      tag_6\n      jumpi\n      dup1\n      0x38ed8c3f\n      eq\n      tag_7\n      jumpi\n      dup1\n      0x43d7d321\n      eq\n      tag_8\n      jumpi\n      dup1\n      0x702640a9\n      eq\n      tag_9\n      jumpi\n      jump(tag_1)\n    tag_20:\n      dup1\n      0x0fb5a6b4\n      eq\n      tag_2\n      jumpi\n      dup1\n      0x0fdb1c10\n      eq\n      tag_3\n      jumpi\n      dup1\n      0x14d2687c\n      eq\n      tag_4\n      jumpi\n      dup1\n      0x2fb3c48f\n      eq\n      tag_5\n      jumpi\n    tag_1:\n      0x00\n      dup1\n      revert\n        /* \"contracts/Tp_Final_Mod02/AuctETH.sol\":674:697  uint256 public duration */\n    tag_2:\n      callvalue\n      dup1\n      iszero\n      tag_21\n      jumpi\n      0x00\n      dup1\n      revert\n    tag_21:\n      pop\n      tag_22\n      tag_23\n      jump\t// in\n    tag_22:\n      mload(0x40)\n      tag_24\n      swap2\n      swap1\n      tag_25\n      jump\t// in\n    tag_24:\n      mload(0x40)\n      dup1\n      swap2\n      sub\n      swap1\n      return\n        /* \"contracts/Tp_Final_Mod02/AuctETH.sol\":4377:5408  function withDraw() external payable {... */\n    tag_3:\n      tag_26\n      tag_27\n      jump\t// in\n    tag_26:\n      stop\n        /* \"contracts/Tp_Final_Mod02/AuctETH.sol\":3939:4244  function showBids() public view returns (Bid[] memory) {... */\n    tag_4:\n      callvalue\n      dup1\n      iszero\n      tag_28\n      jumpi\n      0x00\n      dup1\n      revert\n    tag_28:\n      pop\n      tag_29\n      tag_30\n      jump\t// in\n    tag_29:\n      mload(0x40)\n      tag_31\n      swap2\n      swap1\n      tag_32\n      jump\t// in\n    tag_31:\n      mload(0x40)\n      dup1\n      swap2\n      sub\n      swap1\n      return\n        /* \"contracts/Tp_Final_Mod02/AuctETH.sol\":1864:1896  address[] public bidderAddresses */\n    tag_5:\n      callvalue\n      dup1\n      iszero\n      tag_33\n      jumpi\n      0x00\n      dup1\n      revert\n    tag_33:\n      pop\n      tag_34\n      0x04\n      dup1\n      calldatasize\n      sub\n      dup2\n      add\n      swap1\n      tag_35\n      swap2\n      swap1\n      tag_36\n      jump\t// in\n    tag_35:\n      tag_37\n      jump\t// in\n    tag_34:\n      mload(0x40)\n      tag_38\n      swap2\n      swap1\n      tag_39\n      jump\t// in\n    tag_38:\n      mload(0x40)\n      dup1\n      swap2\n      sub\n      swap1\n      return\n        /* \"contracts/Tp_Final_Mod02/AuctETH.sol\":496:520  uint256 public initValue */\n    tag_6:\n      callvalue\n      dup1\n      iszero\n      tag_40\n      jumpi\n      0x00\n      dup1\n      revert\n    tag_40:\n      pop\n      tag_41\n      tag_42\n      jump\t// in\n    tag_41:\n      mload(0x40)\n      tag_43\n      swap2\n      swap1\n      tag_25\n      jump\t// in\n    tag_43:\n      mload(0x40)\n      dup1\n      swap2\n      sub\n      swap1\n      return\n        /* \"contracts/Tp_Final_Mod02/AuctETH.sol\":2778:2879  function incrementalPercentage() external view returns (uint256) {... */\n    tag_7:\n      callvalue\n      dup1\n      iszero\n      tag_44\n      jumpi\n      0x00\n      dup1\n      revert\n    tag_44:\n      pop\n      tag_45\n      tag_46\n      jump\t// in\n    tag_45:\n      mload(0x40)\n      tag_47\n      swap2\n      swap1\n      tag_25\n      jump\t// in\n    tag_47:\n      mload(0x40)\n      dup1\n      swap2\n      sub\n      swap1\n      return\n        /* \"contracts/Tp_Final_Mod02/AuctETH.sol\":733:763  uint256 public finishTimestamp */\n    tag_8:\n      callvalue\n      dup1\n      iszero\n      tag_48\n      jumpi\n      0x00\n      dup1\n      revert\n    tag_48:\n      pop\n      tag_49\n      tag_50\n      jump\t// in\n    tag_49:\n      mload(0x40)\n      tag_51\n      swap2\n      swap1\n      tag_25\n      jump\t// in\n    tag_51:\n      mload(0x40)\n      dup1\n      swap2\n      sub\n      swap1\n      return\n        /* \"contracts/Tp_Final_Mod02/AuctETH.sol\":2593:2685  function showhighestBid() external view returns (uint256) {... */\n    tag_9:\n      callvalue\n      dup1\n      iszero\n      tag_52\n      jumpi\n      0x00\n      dup1\n      revert\n    tag_52:\n      pop\n      tag_53\n      tag_54\n      jump\t// in\n    tag_53:\n      mload(0x40)\n      tag_55\n      swap2\n      swap1\n      tag_25\n      jump\t// in\n    tag_55:\n      mload(0x40)\n      dup1\n      swap2\n      sub\n      swap1\n      return\n        /* \"contracts/Tp_Final_Mod02/AuctETH.sol\":387:407  address public owner */\n    tag_10:\n      callvalue\n      dup1\n      iszero\n      tag_56\n      jumpi\n      0x00\n      dup1\n      revert\n    tag_56:\n      pop\n      tag_57\n      tag_58\n      jump\t// in\n    tag_57:\n      mload(0x40)\n      tag_59\n      swap2\n      swap1\n      tag_39\n      jump\t// in\n    tag_59:\n      mload(0x40)\n      dup1\n      swap2\n      sub\n      swap1\n      return\n        /* \"contracts/Tp_Final_Mod02/AuctETH.sol\":7617:7819  function getWinner() external view auctionFinished returns (address winnerAddress, uint256 winningBid) {... */\n    tag_11:\n      callvalue\n      dup1\n      iszero\n      tag_60\n      jumpi\n      0x00\n      dup1\n      revert\n    tag_60:\n      pop\n      tag_61\n      tag_62\n      jump\t// in\n    tag_61:\n      mload(0x40)\n      tag_63\n      swap3\n      swap2\n      swap1\n      tag_64\n      jump\t// in\n    tag_63:\n      mload(0x40)\n      dup1\n      swap2\n      sub\n      swap1\n      return\n        /* \"contracts/Tp_Final_Mod02/AuctETH.sol\":5589:7367  function returnsBids() public payable onlyOwner {... */\n    tag_12:\n      tag_65\n      tag_66\n      jump\t// in\n    tag_65:\n      stop\n        /* \"contracts/Tp_Final_Mod02/AuctETH.sol\":603:630  uint256 public bidIncrement */\n    tag_13:\n      callvalue\n      dup1\n      iszero\n      tag_67\n      jumpi\n      0x00\n      dup1\n      revert\n    tag_67:\n      pop\n      tag_68\n      tag_69\n      jump\t// in\n    tag_68:\n      mload(0x40)\n      tag_70\n      swap2\n      swap1\n      tag_25\n      jump\t// in\n    tag_70:\n      mload(0x40)\n      dup1\n      swap2\n      sub\n      swap1\n      return\n        /* \"contracts/Tp_Final_Mod02/AuctETH.sol\":551:576  uint256 public highestBid */\n    tag_14:\n      callvalue\n      dup1\n      iszero\n      tag_71\n      jumpi\n      0x00\n      dup1\n      revert\n    tag_71:\n      pop\n      tag_72\n      tag_73\n      jump\t// in\n    tag_72:\n      mload(0x40)\n      tag_74\n      swap2\n      swap1\n      tag_25\n      jump\t// in\n    tag_74:\n      mload(0x40)\n      dup1\n      swap2\n      sub\n      swap1\n      return\n        /* \"contracts/Tp_Final_Mod02/AuctETH.sol\":441:462  address public winner */\n    tag_15:\n      callvalue\n      dup1\n      iszero\n      tag_75\n      jumpi\n      0x00\n      dup1\n      revert\n    tag_75:\n      pop\n      tag_76\n      tag_77\n      jump\t// in\n    tag_76:\n      mload(0x40)\n      tag_78\n      swap2\n      swap1\n      tag_39\n      jump\t// in\n    tag_78:\n      mload(0x40)\n      dup1\n      swap2\n      sub\n      swap1\n      return\n        /* \"contracts/Tp_Final_Mod02/AuctETH.sol\":2995:3864  function makeBid() external payable auctionOpened {... */\n    tag_16:\n      tag_79\n      tag_80\n      jump\t// in\n    tag_79:\n      stop\n        /* \"contracts/Tp_Final_Mod02/AuctETH.sol\":1784:1825  mapping(address => Bidder) public bidders */\n    tag_17:\n      callvalue\n      dup1\n      iszero\n      tag_81\n      jumpi\n      0x00\n      dup1\n      revert\n    tag_81:\n      pop\n      tag_82\n      0x04\n      dup1\n      calldatasize\n      sub\n      dup2\n      add\n      swap1\n      tag_83\n      swap2\n      swap1\n      tag_84\n      jump\t// in\n    tag_83:\n      tag_85\n      jump\t// in\n    tag_82:\n      mload(0x40)\n      tag_86\n      swap4\n      swap3\n      swap2\n      swap1\n      tag_87\n      jump\t// in\n    tag_86:\n      mload(0x40)\n      dup1\n      swap2\n      sub\n      swap1\n      return\n        /* \"contracts/Tp_Final_Mod02/AuctETH.sol\":674:697  uint256 public duration */\n    tag_23:\n      sload(0x05)\n      dup2\n      jump\t// out\n        /* \"contracts/Tp_Final_Mod02/AuctETH.sol\":4377:5408  function withDraw() external payable {... */\n    tag_27:\n        /* \"contracts/Tp_Final_Mod02/AuctETH.sol\":4510:4517  bidders */\n      0x07\n        /* \"contracts/Tp_Final_Mod02/AuctETH.sol\":4510:4529  bidders[msg.sender] */\n      0x00\n        /* \"contracts/Tp_Final_Mod02/AuctETH.sol\":4518:4528  msg.sender */\n      caller\n        /* \"contracts/Tp_Final_Mod02/AuctETH.sol\":4510:4529  bidders[msg.sender] */\n      0xffffffffffffffffffffffffffffffffffffffff\n      and\n      0xffffffffffffffffffffffffffffffffffffffff\n      and\n      dup2\n      mstore\n      0x20\n      add\n      swap1\n      dup2\n      mstore\n      0x20\n      add\n      0x00\n      keccak256\n        /* \"contracts/Tp_Final_Mod02/AuctETH.sol\":4510:4535  bidders[msg.sender].addrs */\n      0x00\n      add\n      0x00\n      swap1\n      sload\n      swap1\n      0x0100\n      exp\n      swap1\n      div\n      0xffffffffffffffffffffffffffffffffffffffff\n      and\n        /* \"contracts/Tp_Final_Mod02/AuctETH.sol\":4496:4535  msg.sender == bidders[msg.sender].addrs */\n      0xffffffffffffffffffffffffffffffffffffffff\n      and\n        /* \"contracts/Tp_Final_Mod02/AuctETH.sol\":4496:4506  msg.sender */\n      caller\n        /* \"contracts/Tp_Final_Mod02/AuctETH.sol\":4496:4535  msg.sender == bidders[msg.sender].addrs */\n      0xffffffffffffffffffffffffffffffffffffffff\n      and\n      eq\n        /* \"contracts/Tp_Final_Mod02/AuctETH.sol\":4488:4586  require(msg.sender == bidders[msg.sender].addrs, \"Only the balance owner can initiate the refund\") */\n      tag_89\n      jumpi\n      mload(0x40)\n      0x08c379a000000000000000000000000000000000000000000000000000000000\n      dup2\n      mstore\n      0x04\n      add\n      tag_90\n      swap1\n      tag_91\n      jump\t// in\n    tag_90:\n      mload(0x40)\n      dup1\n      swap2\n      sub\n      swap1\n      revert\n    tag_89:\n        /* \"contracts/Tp_Final_Mod02/AuctETH.sol\":4696:4703  bidders */\n      0x07\n        /* \"contracts/Tp_Final_Mod02/AuctETH.sol\":4696:4715  bidders[msg.sender] */\n      0x00\n        /* \"contracts/Tp_Final_Mod02/AuctETH.sol\":4704:4714  msg.sender */\n      caller\n        /* \"contracts/Tp_Final_Mod02/AuctETH.sol\":4696:4715  bidders[msg.sender] */\n      0xffffffffffffffffffffffffffffffffffffffff\n      and\n      0xffffffffffffffffffffffffffffffffffffffff\n      and\n      dup2\n      mstore\n      0x20\n      add\n      swap1\n      dup2\n      mstore\n      0x20\n      add\n      0x00\n      keccak256\n        /* \"contracts/Tp_Final_Mod02/AuctETH.sol\":4696:4723  bidders[msg.sender].lastBid */\n      0x01\n      add\n      sload\n        /* \"contracts/Tp_Final_Mod02/AuctETH.sol\":4666:4673  bidders */\n      0x07\n        /* \"contracts/Tp_Final_Mod02/AuctETH.sol\":4666:4685  bidders[msg.sender] */\n      0x00\n        /* \"contracts/Tp_Final_Mod02/AuctETH.sol\":4674:4684  msg.sender */\n      caller\n        /* \"contracts/Tp_Final_Mod02/AuctETH.sol\":4666:4685  bidders[msg.sender] */\n      0xffffffffffffffffffffffffffffffffffffffff\n      and\n      0xffffffffffffffffffffffffffffffffffffffff\n      and\n      dup2\n      mstore\n      0x20\n      add\n      swap1\n      dup2\n      mstore\n      0x20\n      add\n      0x00\n      keccak256\n        /* \"contracts/Tp_Final_Mod02/AuctETH.sol\":4666:4693  bidders[msg.sender].balance */\n      0x02\n      add\n      sload\n        /* \"contracts/Tp_Final_Mod02/AuctETH.sol\":4666:4723  bidders[msg.sender].balance > bidders[msg.sender].lastBid */\n      gt\n        /* \"contracts/Tp_Final_Mod02/AuctETH.sol\":4658:4803  require(bidders[msg.sender].balance > bidders[msg.sender].lastBid, \"No refund will be allowed if you have not placed a bid after the last offer\") */\n      tag_92\n      jumpi\n      mload(0x40)\n      0x08c379a000000000000000000000000000000000000000000000000000000000\n      dup2\n      mstore\n      0x04\n      add\n      tag_93\n      swap1\n      tag_94\n      jump\t// in\n    tag_93:\n      mload(0x40)\n      dup1\n      swap2\n      sub\n      swap1\n      revert\n    tag_92:\n        /* \"contracts/Tp_Final_Mod02/AuctETH.sol\":4863:4883  uint256 refundAmount */\n      0x00\n        /* \"contracts/Tp_Final_Mod02/AuctETH.sol\":4916:4923  bidders */\n      0x07\n        /* \"contracts/Tp_Final_Mod02/AuctETH.sol\":4916:4935  bidders[msg.sender] */\n      0x00\n        /* \"contracts/Tp_Final_Mod02/AuctETH.sol\":4924:4934  msg.sender */\n      caller\n        /* \"contracts/Tp_Final_Mod02/AuctETH.sol\":4916:4935  bidders[msg.sender] */\n      0xffffffffffffffffffffffffffffffffffffffff\n      and\n      0xffffffffffffffffffffffffffffffffffffffff\n      and\n      dup2\n      mstore\n      0x20\n      add\n      swap1\n      dup2\n      mstore\n      0x20\n      add\n      0x00\n      keccak256\n        /* \"contracts/Tp_Final_Mod02/AuctETH.sol\":4916:4943  bidders[msg.sender].lastBid */\n      0x01\n      add\n      sload\n        /* \"contracts/Tp_Final_Mod02/AuctETH.sol\":4886:4893  bidders */\n      0x07\n        /* \"contracts/Tp_Final_Mod02/AuctETH.sol\":4886:4905  bidders[msg.sender] */\n      0x00\n        /* \"contracts/Tp_Final_Mod02/AuctETH.sol\":4894:4904  msg.sender */\n      caller\n        /* \"contracts/Tp_Final_Mod02/AuctETH.sol\":4886:4905  bidders[msg.sender] */\n      0xffffffffffffffffffffffffffffffffffffffff\n      and\n      0xffffffffffffffffffffffffffffffffffffffff\n      and\n      dup2\n      mstore\n      0x20\n      add\n      swap1\n      dup2\n      mstore\n      0x20\n      add\n      0x00\n      keccak256\n        /* \"contracts/Tp_Final_Mod02/AuctETH.sol\":4886:4913  bidders[msg.sender].balance */\n      0x02\n      add\n      sload\n        /* \"contracts/Tp_Final_Mod02/AuctETH.sol\":4886:4943  bidders[msg.sender].balance - bidders[msg.sender].lastBid */\n      tag_95\n      swap2\n      swap1\n      tag_96\n      jump\t// in\n    tag_95:\n        /* \"contracts/Tp_Final_Mod02/AuctETH.sol\":4863:4943  uint256 refundAmount = bidders[msg.sender].balance - bidders[msg.sender].lastBid */\n      swap1\n      pop\n        /* \"contracts/Tp_Final_Mod02/AuctETH.sol\":5037:5038  0 */\n      0x00\n        /* \"contracts/Tp_Final_Mod02/AuctETH.sol\":5022:5034  refundAmount */\n      dup2\n        /* \"contracts/Tp_Final_Mod02/AuctETH.sol\":5022:5038  refundAmount > 0 */\n      gt\n        /* \"contracts/Tp_Final_Mod02/AuctETH.sol\":5014:5074  require(refundAmount > 0, \"No balance available for refund\") */\n      tag_97\n      jumpi\n      mload(0x40)\n      0x08c379a000000000000000000000000000000000000000000000000000000000\n      dup2\n      mstore\n      0x04\n      add\n      tag_98\n      swap1\n      tag_99\n      jump\t// in\n    tag_98:\n      mload(0x40)\n      dup1\n      swap2\n      sub\n      swap1\n      revert\n    tag_97:\n        /* \"contracts/Tp_Final_Mod02/AuctETH.sol\":5155:5167  refundAmount */\n      dup1\n        /* \"contracts/Tp_Final_Mod02/AuctETH.sol\":5124:5131  bidders */\n      0x07\n        /* \"contracts/Tp_Final_Mod02/AuctETH.sol\":5124:5143  bidders[msg.sender] */\n      0x00\n        /* \"contracts/Tp_Final_Mod02/AuctETH.sol\":5132:5142  msg.sender */\n      caller\n        /* \"contracts/Tp_Final_Mod02/AuctETH.sol\":5124:5143  bidders[msg.sender] */\n      0xffffffffffffffffffffffffffffffffffffffff\n      and\n      0xffffffffffffffffffffffffffffffffffffffff\n      and\n      dup2\n      mstore\n      0x20\n      add\n      swap1\n      dup2\n      mstore\n      0x20\n      add\n      0x00\n      keccak256\n        /* \"contracts/Tp_Final_Mod02/AuctETH.sol\":5124:5151  bidders[msg.sender].balance */\n      0x02\n      add\n      0x00\n        /* \"contracts/Tp_Final_Mod02/AuctETH.sol\":5124:5167  bidders[msg.sender].balance -= refundAmount */\n      dup3\n      dup3\n      sload\n      tag_100\n      swap2\n      swap1\n      tag_96\n      jump\t// in\n    tag_100:\n      swap3\n      pop\n      pop\n      dup2\n      swap1\n      sstore\n      pop\n        /* \"contracts/Tp_Final_Mod02/AuctETH.sol\":5231:5243  bool success */\n      0x00\n        /* \"contracts/Tp_Final_Mod02/AuctETH.sol\":5257:5267  msg.sender */\n      caller\n        /* \"contracts/Tp_Final_Mod02/AuctETH.sol\":5249:5273  payable(msg.sender).call */\n      0xffffffffffffffffffffffffffffffffffffffff\n      and\n        /* \"contracts/Tp_Final_Mod02/AuctETH.sol\":5281:5293  refundAmount */\n      dup3\n        /* \"contracts/Tp_Final_Mod02/AuctETH.sol\":5249:5298  payable(msg.sender).call{value: refundAmount}(\"\") */\n      mload(0x40)\n      tag_101\n      swap1\n      tag_102\n      jump\t// in\n    tag_101:\n      0x00\n      mload(0x40)\n      dup1\n      dup4\n      sub\n      dup2\n      dup6\n      dup8\n      gas\n      call\n      swap3\n      pop\n      pop\n      pop\n      returndatasize\n      dup1\n      0x00\n      dup2\n      eq\n      tag_105\n      jumpi\n      mload(0x40)\n      swap2\n      pop\n      and(add(returndatasize, 0x3f), not(0x1f))\n      dup3\n      add\n      0x40\n      mstore\n      returndatasize\n      dup3\n      mstore\n      returndatasize\n      0x00\n      0x20\n      dup5\n      add\n      returndatacopy\n      jump(tag_104)\n    tag_105:\n      0x60\n      swap2\n      pop\n    tag_104:\n      pop\n        /* \"contracts/Tp_Final_Mod02/AuctETH.sol\":5230:5298  (bool success, ) = payable(msg.sender).call{value: refundAmount}(\"\") */\n      pop\n      swap1\n      pop\n        /* \"contracts/Tp_Final_Mod02/AuctETH.sol\":5362:5369  success */\n      dup1\n        /* \"contracts/Tp_Final_Mod02/AuctETH.sol\":5354:5401  require(success, \"Error processing the refund\") */\n      tag_106\n      jumpi\n      mload(0x40)\n      0x08c379a000000000000000000000000000000000000000000000000000000000\n      dup2\n      mstore\n      0x04\n      add\n      tag_107\n      swap1\n      tag_108\n      jump\t// in\n    tag_107:\n      mload(0x40)\n      dup1\n      swap2\n      sub\n      swap1\n      revert\n    tag_106:\n        /* \"contracts/Tp_Final_Mod02/AuctETH.sol\":4414:5408  {... */\n      pop\n      pop\n        /* \"contracts/Tp_Final_Mod02/AuctETH.sol\":4377:5408  function withDraw() external payable {... */\n      jump\t// out\n        /* \"contracts/Tp_Final_Mod02/AuctETH.sol\":3939:4244  function showBids() public view returns (Bid[] memory) {... */\n    tag_30:\n        /* \"contracts/Tp_Final_Mod02/AuctETH.sol\":3980:3992  Bid[] memory */\n      0x60\n        /* \"contracts/Tp_Final_Mod02/AuctETH.sol\":4004:4021  Bid[] memory bids */\n      0x00\n        /* \"contracts/Tp_Final_Mod02/AuctETH.sol\":4034:4049  bidderAddresses */\n      0x08\n        /* \"contracts/Tp_Final_Mod02/AuctETH.sol\":4034:4056  bidderAddresses.length */\n      dup1\n      sload\n      swap1\n      pop\n        /* \"contracts/Tp_Final_Mod02/AuctETH.sol\":4024:4057  new Bid[](bidderAddresses.length) */\n      0xffffffffffffffff\n      dup2\n      gt\n      iszero\n      tag_110\n      jumpi\n      tag_111\n      tag_112\n      jump\t// in\n    tag_111:\n    tag_110:\n      mload(0x40)\n      swap1\n      dup1\n      dup3\n      mstore\n      dup1\n      0x20\n      mul\n      0x20\n      add\n      dup3\n      add\n      0x40\n      mstore\n      dup1\n      iszero\n      tag_113\n      jumpi\n      dup2\n      0x20\n      add\n    tag_114:\n      tag_115\n      tag_116\n      jump\t// in\n    tag_115:\n      dup2\n      mstore\n      0x20\n      add\n      swap1\n      0x01\n      swap1\n      sub\n      swap1\n      dup2\n      tag_114\n      jumpi\n      swap1\n      pop\n    tag_113:\n      pop\n        /* \"contracts/Tp_Final_Mod02/AuctETH.sol\":4004:4057  Bid[] memory bids = new Bid[](bidderAddresses.length) */\n      swap1\n      pop\n        /* \"contracts/Tp_Final_Mod02/AuctETH.sol\":4073:4082  uint256 i */\n      0x00\n        /* \"contracts/Tp_Final_Mod02/AuctETH.sol\":4068:4216  for (uint256 i = 0; i < bidderAddresses.length; i++) {... */\n    tag_117:\n        /* \"contracts/Tp_Final_Mod02/AuctETH.sol\":4092:4107  bidderAddresses */\n      0x08\n        /* \"contracts/Tp_Final_Mod02/AuctETH.sol\":4092:4114  bidderAddresses.length */\n      dup1\n      sload\n      swap1\n      pop\n        /* \"contracts/Tp_Final_Mod02/AuctETH.sol\":4088:4089  i */\n      dup2\n        /* \"contracts/Tp_Final_Mod02/AuctETH.sol\":4088:4114  i < bidderAddresses.length */\n      lt\n        /* \"contracts/Tp_Final_Mod02/AuctETH.sol\":4068:4216  for (uint256 i = 0; i < bidderAddresses.length; i++) {... */\n      iszero\n      tag_118\n      jumpi\n        /* \"contracts/Tp_Final_Mod02/AuctETH.sol\":4145:4205  Bid(bidderAddresses[i], bidders[bidderAddresses[i]].lastBid) */\n      mload(0x40)\n      dup1\n      0x40\n      add\n      0x40\n      mstore\n      dup1\n        /* \"contracts/Tp_Final_Mod02/AuctETH.sol\":4149:4164  bidderAddresses */\n      0x08\n        /* \"contracts/Tp_Final_Mod02/AuctETH.sol\":4165:4166  i */\n      dup4\n        /* \"contracts/Tp_Final_Mod02/AuctETH.sol\":4149:4167  bidderAddresses[i] */\n      dup2\n      sload\n      dup2\n      lt\n      tag_120\n      jumpi\n      tag_121\n      tag_122\n      jump\t// in\n    tag_121:\n    tag_120:\n      swap1\n      0x00\n      mstore\n      keccak256(0x00, 0x20)\n      add\n      0x00\n      swap1\n      sload\n      swap1\n      0x0100\n      exp\n      swap1\n      div\n      0xffffffffffffffffffffffffffffffffffffffff\n      and\n        /* \"contracts/Tp_Final_Mod02/AuctETH.sol\":4145:4205  Bid(bidderAddresses[i], bidders[bidderAddresses[i]].lastBid) */\n      0xffffffffffffffffffffffffffffffffffffffff\n      and\n      dup2\n      mstore\n      0x20\n      add\n        /* \"contracts/Tp_Final_Mod02/AuctETH.sol\":4169:4176  bidders */\n      0x07\n        /* \"contracts/Tp_Final_Mod02/AuctETH.sol\":4169:4196  bidders[bidderAddresses[i]] */\n      0x00\n        /* \"contracts/Tp_Final_Mod02/AuctETH.sol\":4177:4192  bidderAddresses */\n      0x08\n        /* \"contracts/Tp_Final_Mod02/AuctETH.sol\":4193:4194  i */\n      dup6\n        /* \"contracts/Tp_Final_Mod02/AuctETH.sol\":4177:4195  bidderAddresses[i] */\n      dup2\n      sload\n      dup2\n      lt\n      tag_124\n      jumpi\n      tag_125\n      tag_122\n      jump\t// in\n    tag_125:\n    tag_124:\n      swap1\n      0x00\n      mstore\n      keccak256(0x00, 0x20)\n      add\n      0x00\n      swap1\n      sload\n      swap1\n      0x0100\n      exp\n      swap1\n      div\n      0xffffffffffffffffffffffffffffffffffffffff\n      and\n        /* \"contracts/Tp_Final_Mod02/AuctETH.sol\":4169:4196  bidders[bidderAddresses[i]] */\n      0xffffffffffffffffffffffffffffffffffffffff\n      and\n      0xffffffffffffffffffffffffffffffffffffffff\n      and\n      dup2\n      mstore\n      0x20\n      add\n      swap1\n      dup2\n      mstore\n      0x20\n      add\n      0x00\n      keccak256\n        /* \"contracts/Tp_Final_Mod02/AuctETH.sol\":4169:4204  bidders[bidderAddresses[i]].lastBid */\n      0x01\n      add\n      sload\n        /* \"contracts/Tp_Final_Mod02/AuctETH.sol\":4145:4205  Bid(bidderAddresses[i], bidders[bidderAddresses[i]].lastBid) */\n      dup2\n      mstore\n      pop\n        /* \"contracts/Tp_Final_Mod02/AuctETH.sol\":4135:4139  bids */\n      dup3\n        /* \"contracts/Tp_Final_Mod02/AuctETH.sol\":4140:4141  i */\n      dup3\n        /* \"contracts/Tp_Final_Mod02/AuctETH.sol\":4135:4142  bids[i] */\n      dup2\n      mload\n      dup2\n      lt\n      tag_127\n      jumpi\n      tag_128\n      tag_122\n      jump\t// in\n    tag_128:\n    tag_127:\n      0x20\n      mul\n      0x20\n      add\n      add\n        /* \"contracts/Tp_Final_Mod02/AuctETH.sol\":4135:4205  bids[i] = Bid(bidderAddresses[i], bidders[bidderAddresses[i]].lastBid) */\n      dup2\n      swap1\n      mstore\n      pop\n        /* \"contracts/Tp_Final_Mod02/AuctETH.sol\":4116:4119  i++ */\n      dup1\n      dup1\n      0x01\n      add\n      swap2\n      pop\n      pop\n        /* \"contracts/Tp_Final_Mod02/AuctETH.sol\":4068:4216  for (uint256 i = 0; i < bidderAddresses.length; i++) {... */\n      jump(tag_117)\n    tag_118:\n      pop\n        /* \"contracts/Tp_Final_Mod02/AuctETH.sol\":4233:4237  bids */\n      dup1\n        /* \"contracts/Tp_Final_Mod02/AuctETH.sol\":4226:4237  return bids */\n      swap2\n      pop\n      pop\n        /* \"contracts/Tp_Final_Mod02/AuctETH.sol\":3939:4244  function showBids() public view returns (Bid[] memory) {... */\n      swap1\n      jump\t// out\n        /* \"contracts/Tp_Final_Mod02/AuctETH.sol\":1864:1896  address[] public bidderAddresses */\n    tag_37:\n      0x08\n      dup2\n      dup2\n      sload\n      dup2\n      lt\n      tag_129\n      jumpi\n      0x00\n      dup1\n      revert\n    tag_129:\n      swap1\n      0x00\n      mstore\n      keccak256(0x00, 0x20)\n      add\n      0x00\n      swap2\n      pop\n      sload\n      swap1\n      0x0100\n      exp\n      swap1\n      div\n      0xffffffffffffffffffffffffffffffffffffffff\n      and\n      dup2\n      jump\t// out\n        /* \"contracts/Tp_Final_Mod02/AuctETH.sol\":496:520  uint256 public initValue */\n    tag_42:\n      sload(0x02)\n      dup2\n      jump\t// out\n        /* \"contracts/Tp_Final_Mod02/AuctETH.sol\":2778:2879  function incrementalPercentage() external view returns (uint256) {... */\n    tag_46:\n        /* \"contracts/Tp_Final_Mod02/AuctETH.sol\":2834:2841  uint256 */\n      0x00\n        /* \"contracts/Tp_Final_Mod02/AuctETH.sol\":2860:2872  bidIncrement */\n      sload(0x04)\n        /* \"contracts/Tp_Final_Mod02/AuctETH.sol\":2853:2872  return bidIncrement */\n      swap1\n      pop\n        /* \"contracts/Tp_Final_Mod02/AuctETH.sol\":2778:2879  function incrementalPercentage() external view returns (uint256) {... */\n      swap1\n      jump\t// out\n        /* \"contracts/Tp_Final_Mod02/AuctETH.sol\":733:763  uint256 public finishTimestamp */\n    tag_50:\n      sload(0x06)\n      dup2\n      jump\t// out\n        /* \"contracts/Tp_Final_Mod02/AuctETH.sol\":2593:2685  function showhighestBid() external view returns (uint256) {... */\n    tag_54:\n        /* \"contracts/Tp_Final_Mod02/AuctETH.sol\":2642:2649  uint256 */\n      0x00\n        /* \"contracts/Tp_Final_Mod02/AuctETH.sol\":2668:2678  highestBid */\n      sload(0x03)\n        /* \"contracts/Tp_Final_Mod02/AuctETH.sol\":2661:2678  return highestBid */\n      swap1\n      pop\n        /* \"contracts/Tp_Final_Mod02/AuctETH.sol\":2593:2685  function showhighestBid() external view returns (uint256) {... */\n      swap1\n      jump\t// out\n        /* \"contracts/Tp_Final_Mod02/AuctETH.sol\":387:407  address public owner */\n    tag_58:\n      0x00\n      dup1\n      sload\n      swap1\n      0x0100\n      exp\n      swap1\n      div\n      0xffffffffffffffffffffffffffffffffffffffff\n      and\n      dup2\n      jump\t// out\n        /* \"contracts/Tp_Final_Mod02/AuctETH.sol\":7617:7819  function getWinner() external view auctionFinished returns (address winnerAddress, uint256 winningBid) {... */\n    tag_62:\n        /* \"contracts/Tp_Final_Mod02/AuctETH.sol\":7677:7698  address winnerAddress */\n      0x00\n        /* \"contracts/Tp_Final_Mod02/AuctETH.sol\":7700:7718  uint256 winningBid */\n      dup1\n        /* \"contracts/Tp_Final_Mod02/AuctETH.sol\":2448:2463  finishTimestamp */\n      sload(0x06)\n        /* \"contracts/Tp_Final_Mod02/AuctETH.sol\":2429:2444  block.timestamp */\n      timestamp\n        /* \"contracts/Tp_Final_Mod02/AuctETH.sol\":2429:2463  block.timestamp >= finishTimestamp */\n      lt\n      iszero\n        /* \"contracts/Tp_Final_Mod02/AuctETH.sol\":2421:2497  require(block.timestamp >= finishTimestamp, \"The auction has not yet ended\") */\n      tag_134\n      jumpi\n      mload(0x40)\n      0x08c379a000000000000000000000000000000000000000000000000000000000\n      dup2\n      mstore\n      0x04\n      add\n      tag_135\n      swap1\n      tag_136\n      jump\t// in\n    tag_135:\n      mload(0x40)\n      dup1\n      swap2\n      sub\n      swap1\n      revert\n    tag_134:\n        /* \"contracts/Tp_Final_Mod02/AuctETH.sol\":7793:7799  winner */\n      0x01\n      0x00\n      swap1\n      sload\n      swap1\n      0x0100\n      exp\n      swap1\n      div\n      0xffffffffffffffffffffffffffffffffffffffff\n      and\n        /* \"contracts/Tp_Final_Mod02/AuctETH.sol\":7801:7811  highestBid */\n      sload(0x03)\n        /* \"contracts/Tp_Final_Mod02/AuctETH.sol\":7785:7812  return (winner, highestBid) */\n      swap2\n      pop\n      swap2\n      pop\n        /* \"contracts/Tp_Final_Mod02/AuctETH.sol\":7617:7819  function getWinner() external view auctionFinished returns (address winnerAddress, uint256 winningBid) {... */\n      swap1\n      swap2\n      jump\t// out\n        /* \"contracts/Tp_Final_Mod02/AuctETH.sol\":5589:7367  function returnsBids() public payable onlyOwner {... */\n    tag_66:\n        /* \"contracts/Tp_Final_Mod02/AuctETH.sol\":2176:2181  owner */\n      0x00\n      dup1\n      sload\n      swap1\n      0x0100\n      exp\n      swap1\n      div\n      0xffffffffffffffffffffffffffffffffffffffff\n      and\n        /* \"contracts/Tp_Final_Mod02/AuctETH.sol\":2162:2181  msg.sender == owner */\n      0xffffffffffffffffffffffffffffffffffffffff\n      and\n        /* \"contracts/Tp_Final_Mod02/AuctETH.sol\":2162:2172  msg.sender */\n      caller\n        /* \"contracts/Tp_Final_Mod02/AuctETH.sol\":2162:2181  msg.sender == owner */\n      0xffffffffffffffffffffffffffffffffffffffff\n      and\n      eq\n        /* \"contracts/Tp_Final_Mod02/AuctETH.sol\":2154:2234  require(msg.sender == owner, \"Only the auction owner can execute this function\") */\n      tag_139\n      jumpi\n      mload(0x40)\n      0x08c379a000000000000000000000000000000000000000000000000000000000\n      dup2\n      mstore\n      0x04\n      add\n      tag_140\n      swap1\n      tag_141\n      jump\t// in\n    tag_140:\n      mload(0x40)\n      dup1\n      swap2\n      sub\n      swap1\n      revert\n    tag_139:\n        /* \"contracts/Tp_Final_Mod02/AuctETH.sol\":5719:5734  finishTimestamp */\n      sload(0x06)\n        /* \"contracts/Tp_Final_Mod02/AuctETH.sol\":5700:5715  block.timestamp */\n      timestamp\n        /* \"contracts/Tp_Final_Mod02/AuctETH.sol\":5700:5734  block.timestamp >= finishTimestamp */\n      lt\n      iszero\n        /* \"contracts/Tp_Final_Mod02/AuctETH.sol\":5692:5759  require(block.timestamp >= finishTimestamp, \"The auction must end\") */\n      tag_143\n      jumpi\n      mload(0x40)\n      0x08c379a000000000000000000000000000000000000000000000000000000000\n      dup2\n      mstore\n      0x04\n      add\n      tag_144\n      swap1\n      tag_145\n      jump\t// in\n    tag_144:\n      mload(0x40)\n      dup1\n      swap2\n      sub\n      swap1\n      revert\n    tag_143:\n        /* \"contracts/Tp_Final_Mod02/AuctETH.sol\":5816:5827  uint256 len */\n      0x00\n        /* \"contracts/Tp_Final_Mod02/AuctETH.sol\":5830:5845  bidderAddresses */\n      0x08\n        /* \"contracts/Tp_Final_Mod02/AuctETH.sol\":5830:5852  bidderAddresses.length */\n      dup1\n      sload\n      swap1\n      pop\n        /* \"contracts/Tp_Final_Mod02/AuctETH.sol\":5816:5852  uint256 len = bidderAddresses.length */\n      swap1\n      pop\n        /* \"contracts/Tp_Final_Mod02/AuctETH.sol\":5915:5924  uint256 i */\n      0x00\n        /* \"contracts/Tp_Final_Mod02/AuctETH.sol\":5910:7244  for (uint256 i = 0; i < len; i++) {... */\n    tag_146:\n        /* \"contracts/Tp_Final_Mod02/AuctETH.sol\":5934:5937  len */\n      dup2\n        /* \"contracts/Tp_Final_Mod02/AuctETH.sol\":5930:5931  i */\n      dup2\n        /* \"contracts/Tp_Final_Mod02/AuctETH.sol\":5930:5937  i < len */\n      lt\n        /* \"contracts/Tp_Final_Mod02/AuctETH.sol\":5910:7244  for (uint256 i = 0; i < len; i++) {... */\n      iszero\n      tag_147\n      jumpi\n        /* \"contracts/Tp_Final_Mod02/AuctETH.sol\":6052:6058  winner */\n      0x01\n      0x00\n      swap1\n      sload\n      swap1\n      0x0100\n      exp\n      swap1\n      div\n      0xffffffffffffffffffffffffffffffffffffffff\n      and\n        /* \"contracts/Tp_Final_Mod02/AuctETH.sol\":6015:6058  bidders[bidderAddresses[i]].addrs != winner */\n      0xffffffffffffffffffffffffffffffffffffffff\n      and\n        /* \"contracts/Tp_Final_Mod02/AuctETH.sol\":6015:6022  bidders */\n      0x07\n        /* \"contracts/Tp_Final_Mod02/AuctETH.sol\":6015:6042  bidders[bidderAddresses[i]] */\n      0x00\n        /* \"contracts/Tp_Final_Mod02/AuctETH.sol\":6023:6038  bidderAddresses */\n      0x08\n        /* \"contracts/Tp_Final_Mod02/AuctETH.sol\":6039:6040  i */\n      dup5\n        /* \"contracts/Tp_Final_Mod02/AuctETH.sol\":6023:6041  bidderAddresses[i] */\n      dup2\n      sload\n      dup2\n      lt\n      tag_149\n      jumpi\n      tag_150\n      tag_122\n      jump\t// in\n    tag_150:\n    tag_149:\n      swap1\n      0x00\n      mstore\n      keccak256(0x00, 0x20)\n      add\n      0x00\n      swap1\n      sload\n      swap1\n      0x0100\n      exp\n      swap1\n      div\n      0xffffffffffffffffffffffffffffffffffffffff\n      and\n        /* \"contracts/Tp_Final_Mod02/AuctETH.sol\":6015:6042  bidders[bidderAddresses[i]] */\n      0xffffffffffffffffffffffffffffffffffffffff\n      and\n      0xffffffffffffffffffffffffffffffffffffffff\n      and\n      dup2\n      mstore\n      0x20\n      add\n      swap1\n      dup2\n      mstore\n      0x20\n      add\n      0x00\n      keccak256\n        /* \"contracts/Tp_Final_Mod02/AuctETH.sol\":6015:6048  bidders[bidderAddresses[i]].addrs */\n      0x00\n      add\n      0x00\n      swap1\n      sload\n      swap1\n      0x0100\n      exp\n      swap1\n      div\n      0xffffffffffffffffffffffffffffffffffffffff\n      and\n        /* \"contracts/Tp_Final_Mod02/AuctETH.sol\":6015:6058  bidders[bidderAddresses[i]].addrs != winner */\n      0xffffffffffffffffffffffffffffffffffffffff\n      and\n      eq\n        /* \"contracts/Tp_Final_Mod02/AuctETH.sol\":6011:7234  if (bidders[bidderAddresses[i]].addrs != winner) {... */\n      tag_152\n      jumpi\n        /* \"contracts/Tp_Final_Mod02/AuctETH.sol\":6159:6180  uint256 depositAmount */\n      0x00\n        /* \"contracts/Tp_Final_Mod02/AuctETH.sol\":6234:6237  100 */\n      0x64\n        /* \"contracts/Tp_Final_Mod02/AuctETH.sol\":6223:6230  100 - 2 */\n      0x62\n        /* \"contracts/Tp_Final_Mod02/AuctETH.sol\":6184:6191  bidders */\n      0x07\n        /* \"contracts/Tp_Final_Mod02/AuctETH.sol\":6184:6211  bidders[bidderAddresses[i]] */\n      0x00\n        /* \"contracts/Tp_Final_Mod02/AuctETH.sol\":6192:6207  bidderAddresses */\n      0x08\n        /* \"contracts/Tp_Final_Mod02/AuctETH.sol\":6208:6209  i */\n      dup7\n        /* \"contracts/Tp_Final_Mod02/AuctETH.sol\":6192:6210  bidderAddresses[i] */\n      dup2\n      sload\n      dup2\n      lt\n      tag_153\n      jumpi\n      tag_154\n      tag_122\n      jump\t// in\n    tag_154:\n    tag_153:\n      swap1\n      0x00\n      mstore\n      keccak256(0x00, 0x20)\n      add\n      0x00\n      swap1\n      sload\n      swap1\n      0x0100\n      exp\n      swap1\n      div\n      0xffffffffffffffffffffffffffffffffffffffff\n      and\n        /* \"contracts/Tp_Final_Mod02/AuctETH.sol\":6184:6211  bidders[bidderAddresses[i]] */\n      0xffffffffffffffffffffffffffffffffffffffff\n      and\n      0xffffffffffffffffffffffffffffffffffffffff\n      and\n      dup2\n      mstore\n      0x20\n      add\n      swap1\n      dup2\n      mstore\n      0x20\n      add\n      0x00\n      keccak256\n        /* \"contracts/Tp_Final_Mod02/AuctETH.sol\":6184:6219  bidders[bidderAddresses[i]].lastBid */\n      0x01\n      add\n      sload\n        /* \"contracts/Tp_Final_Mod02/AuctETH.sol\":6184:6231  bidders[bidderAddresses[i]].lastBid * (100 - 2) */\n      tag_156\n      swap2\n      swap1\n      tag_157\n      jump\t// in\n    tag_156:\n        /* \"contracts/Tp_Final_Mod02/AuctETH.sol\":6184:6237  bidders[bidderAddresses[i]].lastBid * (100 - 2) / 100 */\n      tag_158\n      swap2\n      swap1\n      tag_159\n      jump\t// in\n    tag_158:\n        /* \"contracts/Tp_Final_Mod02/AuctETH.sol\":6159:6238  uint256 depositAmount = (bidders[bidderAddresses[i]].lastBid * (100 - 2) / 100) */\n      swap1\n      pop\n        /* \"contracts/Tp_Final_Mod02/AuctETH.sol\":6319:6331  bool success */\n      0x00\n        /* \"contracts/Tp_Final_Mod02/AuctETH.sol\":6345:6360  bidderAddresses */\n      0x08\n        /* \"contracts/Tp_Final_Mod02/AuctETH.sol\":6361:6362  i */\n      dup4\n        /* \"contracts/Tp_Final_Mod02/AuctETH.sol\":6345:6363  bidderAddresses[i] */\n      dup2\n      sload\n      dup2\n      lt\n      tag_160\n      jumpi\n      tag_161\n      tag_122\n      jump\t// in\n    tag_161:\n    tag_160:\n      swap1\n      0x00\n      mstore\n      keccak256(0x00, 0x20)\n      add\n      0x00\n      swap1\n      sload\n      swap1\n      0x0100\n      exp\n      swap1\n      div\n      0xffffffffffffffffffffffffffffffffffffffff\n      and\n        /* \"contracts/Tp_Final_Mod02/AuctETH.sol\":6337:6369  payable(bidderAddresses[i]).call */\n      0xffffffffffffffffffffffffffffffffffffffff\n      and\n        /* \"contracts/Tp_Final_Mod02/AuctETH.sol\":6377:6390  depositAmount */\n      dup3\n        /* \"contracts/Tp_Final_Mod02/AuctETH.sol\":6337:6395  payable(bidderAddresses[i]).call{value: depositAmount}(\"\") */\n      mload(0x40)\n      tag_163\n      swap1\n      tag_102\n      jump\t// in\n    tag_163:\n      0x00\n      mload(0x40)\n      dup1\n      dup4\n      sub\n      dup2\n      dup6\n      dup8\n      gas\n      call\n      swap3\n      pop\n      pop\n      pop\n      returndatasize\n      dup1\n      0x00\n      dup2\n      eq\n      tag_166\n      jumpi\n      mload(0x40)\n      swap2\n      pop\n      and(add(returndatasize, 0x3f), not(0x1f))\n      dup3\n      add\n      0x40\n      mstore\n      returndatasize\n      dup3\n      mstore\n      returndatasize\n      0x00\n      0x20\n      dup5\n      add\n      returndatacopy\n      jump(tag_165)\n    tag_166:\n      0x60\n      swap2\n      pop\n    tag_165:\n      pop\n        /* \"contracts/Tp_Final_Mod02/AuctETH.sol\":6318:6395  (bool success, ) = payable(bidderAddresses[i]).call{value: depositAmount}(\"\") */\n      pop\n      swap1\n      pop\n        /* \"contracts/Tp_Final_Mod02/AuctETH.sol\":6491:6498  success */\n      dup1\n        /* \"contracts/Tp_Final_Mod02/AuctETH.sol\":6483:6538  require(success, \"Error processing the deposit refund\") */\n      tag_167\n      jumpi\n      mload(0x40)\n      0x08c379a000000000000000000000000000000000000000000000000000000000\n      dup2\n      mstore\n      0x04\n      add\n      tag_168\n      swap1\n      tag_169\n      jump\t// in\n    tag_168:\n      mload(0x40)\n      dup1\n      swap2\n      sub\n      swap1\n      revert\n    tag_167:\n        /* \"contracts/Tp_Final_Mod02/AuctETH.sol\":6678:6679  0 */\n      0x00\n        /* \"contracts/Tp_Final_Mod02/AuctETH.sol\":6640:6647  bidders */\n      0x07\n        /* \"contracts/Tp_Final_Mod02/AuctETH.sol\":6640:6667  bidders[bidderAddresses[i]] */\n      0x00\n        /* \"contracts/Tp_Final_Mod02/AuctETH.sol\":6648:6663  bidderAddresses */\n      0x08\n        /* \"contracts/Tp_Final_Mod02/AuctETH.sol\":6664:6665  i */\n      dup7\n        /* \"contracts/Tp_Final_Mod02/AuctETH.sol\":6648:6666  bidderAddresses[i] */\n      dup2\n      sload\n      dup2\n      lt\n      tag_170\n      jumpi\n      tag_171\n      tag_122\n      jump\t// in\n    tag_171:\n    tag_170:\n      swap1\n      0x00\n      mstore\n      keccak256(0x00, 0x20)\n      add\n      0x00\n      swap1\n      sload\n      swap1\n      0x0100\n      exp\n      swap1\n      div\n      0xffffffffffffffffffffffffffffffffffffffff\n      and\n        /* \"contracts/Tp_Final_Mod02/AuctETH.sol\":6640:6667  bidders[bidderAddresses[i]] */\n      0xffffffffffffffffffffffffffffffffffffffff\n      and\n      0xffffffffffffffffffffffffffffffffffffffff\n      and\n      dup2\n      mstore\n      0x20\n      add\n      swap1\n      dup2\n      mstore\n      0x20\n      add\n      0x00\n      keccak256\n        /* \"contracts/Tp_Final_Mod02/AuctETH.sol\":6640:6675  bidders[bidderAddresses[i]].lastBid */\n      0x01\n      add\n        /* \"contracts/Tp_Final_Mod02/AuctETH.sol\":6640:6679  bidders[bidderAddresses[i]].lastBid = 0 */\n      dup2\n      swap1\n      sstore\n      pop\n        /* \"contracts/Tp_Final_Mod02/AuctETH.sol\":6735:6736  0 */\n      0x00\n        /* \"contracts/Tp_Final_Mod02/AuctETH.sol\":6697:6704  bidders */\n      0x07\n        /* \"contracts/Tp_Final_Mod02/AuctETH.sol\":6697:6724  bidders[bidderAddresses[i]] */\n      0x00\n        /* \"contracts/Tp_Final_Mod02/AuctETH.sol\":6705:6720  bidderAddresses */\n      0x08\n        /* \"contracts/Tp_Final_Mod02/AuctETH.sol\":6721:6722  i */\n      dup7\n        /* \"contracts/Tp_Final_Mod02/AuctETH.sol\":6705:6723  bidderAddresses[i] */\n      dup2\n      sload\n      dup2\n      lt\n      tag_173\n      jumpi\n      tag_174\n      tag_122\n      jump\t// in\n    tag_174:\n    tag_173:\n      swap1\n      0x00\n      mstore\n      keccak256(0x00, 0x20)\n      add\n      0x00\n      swap1\n      sload\n      swap1\n      0x0100\n      exp\n      swap1\n      div\n      0xffffffffffffffffffffffffffffffffffffffff\n      and\n        /* \"contracts/Tp_Final_Mod02/AuctETH.sol\":6697:6724  bidders[bidderAddresses[i]] */\n      0xffffffffffffffffffffffffffffffffffffffff\n      and\n      0xffffffffffffffffffffffffffffffffffffffff\n      and\n      dup2\n      mstore\n      0x20\n      add\n      swap1\n      dup2\n      mstore\n      0x20\n      add\n      0x00\n      keccak256\n        /* \"contracts/Tp_Final_Mod02/AuctETH.sol\":6697:6732  bidders[bidderAddresses[i]].balance */\n      0x02\n      add\n        /* \"contracts/Tp_Final_Mod02/AuctETH.sol\":6697:6736  bidders[bidderAddresses[i]].balance = 0 */\n      dup2\n      swap1\n      sstore\n      pop\n        /* \"contracts/Tp_Final_Mod02/AuctETH.sol\":6060:6752  {... */\n      pop\n      pop\n        /* \"contracts/Tp_Final_Mod02/AuctETH.sol\":6011:7234  if (bidders[bidderAddresses[i]].addrs != winner) {... */\n      jump(tag_176)\n    tag_152:\n        /* \"contracts/Tp_Final_Mod02/AuctETH.sol\":6842:6854  bool success */\n      0x00\n        /* \"contracts/Tp_Final_Mod02/AuctETH.sol\":6868:6874  winner */\n      0x01\n      0x00\n      swap1\n      sload\n      swap1\n      0x0100\n      exp\n      swap1\n      div\n      0xffffffffffffffffffffffffffffffffffffffff\n      and\n        /* \"contracts/Tp_Final_Mod02/AuctETH.sol\":6860:6880  payable(winner).call */\n      0xffffffffffffffffffffffffffffffffffffffff\n      and\n        /* \"contracts/Tp_Final_Mod02/AuctETH.sol\":6888:6898  highestBid */\n      sload(0x03)\n        /* \"contracts/Tp_Final_Mod02/AuctETH.sol\":6860:6903  payable(winner).call{value: highestBid}(\"\") */\n      mload(0x40)\n      tag_177\n      swap1\n      tag_102\n      jump\t// in\n    tag_177:\n      0x00\n      mload(0x40)\n      dup1\n      dup4\n      sub\n      dup2\n      dup6\n      dup8\n      gas\n      call\n      swap3\n      pop\n      pop\n      pop\n      returndatasize\n      dup1\n      0x00\n      dup2\n      eq\n      tag_180\n      jumpi\n      mload(0x40)\n      swap2\n      pop\n      and(add(returndatasize, 0x3f), not(0x1f))\n      dup3\n      add\n      0x40\n      mstore\n      returndatasize\n      dup3\n      mstore\n      returndatasize\n      0x00\n      0x20\n      dup5\n      add\n      returndatacopy\n      jump(tag_179)\n    tag_180:\n      0x60\n      swap2\n      pop\n    tag_179:\n      pop\n        /* \"contracts/Tp_Final_Mod02/AuctETH.sol\":6841:6903  (bool success, ) = payable(winner).call{value: highestBid}(\"\") */\n      pop\n      swap1\n      pop\n        /* \"contracts/Tp_Final_Mod02/AuctETH.sol\":6999:7006  success */\n      dup1\n        /* \"contracts/Tp_Final_Mod02/AuctETH.sol\":6991:7045  require(success, \"Failed to transfer prize to winner\") */\n      tag_181\n      jumpi\n      mload(0x40)\n      0x08c379a000000000000000000000000000000000000000000000000000000000\n      dup2\n      mstore\n      0x04\n      add\n      tag_182\n      swap1\n      tag_183\n      jump\t// in\n    tag_182:\n      mload(0x40)\n      dup1\n      swap2\n      sub\n      swap1\n      revert\n    tag_181:\n        /* \"contracts/Tp_Final_Mod02/AuctETH.sol\":7173:7174  0 */\n      0x00\n        /* \"contracts/Tp_Final_Mod02/AuctETH.sol\":7147:7154  bidders */\n      0x07\n        /* \"contracts/Tp_Final_Mod02/AuctETH.sol\":7147:7162  bidders[winner] */\n      0x00\n        /* \"contracts/Tp_Final_Mod02/AuctETH.sol\":7155:7161  winner */\n      0x01\n      0x00\n      swap1\n      sload\n      swap1\n      0x0100\n      exp\n      swap1\n      div\n      0xffffffffffffffffffffffffffffffffffffffff\n      and\n        /* \"contracts/Tp_Final_Mod02/AuctETH.sol\":7147:7162  bidders[winner] */\n      0xffffffffffffffffffffffffffffffffffffffff\n      and\n      0xffffffffffffffffffffffffffffffffffffffff\n      and\n      dup2\n      mstore\n      0x20\n      add\n      swap1\n      dup2\n      mstore\n      0x20\n      add\n      0x00\n      keccak256\n        /* \"contracts/Tp_Final_Mod02/AuctETH.sol\":7147:7170  bidders[winner].lastBid */\n      0x01\n      add\n        /* \"contracts/Tp_Final_Mod02/AuctETH.sol\":7147:7174  bidders[winner].lastBid = 0 */\n      dup2\n      swap1\n      sstore\n      pop\n        /* \"contracts/Tp_Final_Mod02/AuctETH.sol\":7218:7219  0 */\n      0x00\n        /* \"contracts/Tp_Final_Mod02/AuctETH.sol\":7192:7199  bidders */\n      0x07\n        /* \"contracts/Tp_Final_Mod02/AuctETH.sol\":7192:7207  bidders[winner] */\n      0x00\n        /* \"contracts/Tp_Final_Mod02/AuctETH.sol\":7200:7206  winner */\n      0x01\n      0x00\n      swap1\n      sload\n      swap1\n      0x0100\n      exp\n      swap1\n      div\n      0xffffffffffffffffffffffffffffffffffffffff\n      and\n        /* \"contracts/Tp_Final_Mod02/AuctETH.sol\":7192:7207  bidders[winner] */\n      0xffffffffffffffffffffffffffffffffffffffff\n      and\n      0xffffffffffffffffffffffffffffffffffffffff\n      and\n      dup2\n      mstore\n      0x20\n      add\n      swap1\n      dup2\n      mstore\n      0x20\n      add\n      0x00\n      keccak256\n        /* \"contracts/Tp_Final_Mod02/AuctETH.sol\":7192:7215  bidders[winner].balance */\n      0x02\n      add\n        /* \"contracts/Tp_Final_Mod02/AuctETH.sol\":7192:7219  bidders[winner].balance = 0 */\n      dup2\n      swap1\n      sstore\n      pop\n        /* \"contracts/Tp_Final_Mod02/AuctETH.sol\":6758:7234  {... */\n      pop\n        /* \"contracts/Tp_Final_Mod02/AuctETH.sol\":6011:7234  if (bidders[bidderAddresses[i]].addrs != winner) {... */\n    tag_176:\n        /* \"contracts/Tp_Final_Mod02/AuctETH.sol\":5939:5942  i++ */\n      dup1\n      dup1\n      0x01\n      add\n      swap2\n      pop\n      pop\n        /* \"contracts/Tp_Final_Mod02/AuctETH.sol\":5910:7244  for (uint256 i = 0; i < len; i++) {... */\n      jump(tag_146)\n    tag_147:\n      pop\n        /* \"contracts/Tp_Final_Mod02/AuctETH.sol\":7341:7347  winner */\n      0x01\n      0x00\n      swap1\n      sload\n      swap1\n      0x0100\n      exp\n      swap1\n      div\n      0xffffffffffffffffffffffffffffffffffffffff\n      and\n        /* \"contracts/Tp_Final_Mod02/AuctETH.sol\":7334:7360  Winner(winner, highestBid) */\n      0xffffffffffffffffffffffffffffffffffffffff\n      and\n      0x9c2270628a9b29d30ae96b6c4c14ed646ee134febdce38a5b77f2bde9cea2e20\n        /* \"contracts/Tp_Final_Mod02/AuctETH.sol\":7349:7359  highestBid */\n      sload(0x03)\n        /* \"contracts/Tp_Final_Mod02/AuctETH.sol\":7334:7360  Winner(winner, highestBid) */\n      mload(0x40)\n      tag_184\n      swap2\n      swap1\n      tag_25\n      jump\t// in\n    tag_184:\n      mload(0x40)\n      dup1\n      swap2\n      sub\n      swap1\n      log2\n        /* \"contracts/Tp_Final_Mod02/AuctETH.sol\":5637:7367  {... */\n      pop\n        /* \"contracts/Tp_Final_Mod02/AuctETH.sol\":5589:7367  function returnsBids() public payable onlyOwner {... */\n      jump\t// out\n        /* \"contracts/Tp_Final_Mod02/AuctETH.sol\":603:630  uint256 public bidIncrement */\n    tag_69:\n      sload(0x04)\n      dup2\n      jump\t// out\n        /* \"contracts/Tp_Final_Mod02/AuctETH.sol\":551:576  uint256 public highestBid */\n    tag_73:\n      sload(0x03)\n      dup2\n      jump\t// out\n        /* \"contracts/Tp_Final_Mod02/AuctETH.sol\":441:462  address public winner */\n    tag_77:\n      0x01\n      0x00\n      swap1\n      sload\n      swap1\n      0x0100\n      exp\n      swap1\n      div\n      0xffffffffffffffffffffffffffffffffffffffff\n      and\n      dup2\n      jump\t// out\n        /* \"contracts/Tp_Final_Mod02/AuctETH.sol\":2995:3864  function makeBid() external payable auctionOpened {... */\n    tag_80:\n        /* \"contracts/Tp_Final_Mod02/AuctETH.sol\":2319:2334  finishTimestamp */\n      sload(0x06)\n        /* \"contracts/Tp_Final_Mod02/AuctETH.sol\":2301:2316  block.timestamp */\n      timestamp\n        /* \"contracts/Tp_Final_Mod02/AuctETH.sol\":2301:2334  block.timestamp < finishTimestamp */\n      lt\n        /* \"contracts/Tp_Final_Mod02/AuctETH.sol\":2293:2360  require(block.timestamp < finishTimestamp, \"The auction has ended\") */\n      tag_186\n      jumpi\n      mload(0x40)\n      0x08c379a000000000000000000000000000000000000000000000000000000000\n      dup2\n      mstore\n      0x04\n      add\n      tag_187\n      swap1\n      tag_188\n      jump\t// in\n    tag_187:\n      mload(0x40)\n      dup1\n      swap2\n      sub\n      swap1\n      revert\n    tag_186:\n        /* \"contracts/Tp_Final_Mod02/AuctETH.sol\":3055:3069  address bidder */\n      0x00\n        /* \"contracts/Tp_Final_Mod02/AuctETH.sol\":3072:3082  msg.sender */\n      caller\n        /* \"contracts/Tp_Final_Mod02/AuctETH.sol\":3055:3082  address bidder = msg.sender */\n      swap1\n      pop\n        /* \"contracts/Tp_Final_Mod02/AuctETH.sol\":3092:3108  uint256 bidValue */\n      0x00\n        /* \"contracts/Tp_Final_Mod02/AuctETH.sol\":3111:3120  msg.value */\n      callvalue\n        /* \"contracts/Tp_Final_Mod02/AuctETH.sol\":3092:3120  uint256 bidValue = msg.value */\n      swap1\n      pop\n        /* \"contracts/Tp_Final_Mod02/AuctETH.sol\":3187:3190  100 */\n      0x64\n        /* \"contracts/Tp_Final_Mod02/AuctETH.sol\":3180:3183  100 */\n      dup1\n        /* \"contracts/Tp_Final_Mod02/AuctETH.sol\":3165:3177  bidIncrement */\n      sload(0x04)\n        /* \"contracts/Tp_Final_Mod02/AuctETH.sol\":3165:3183  bidIncrement + 100 */\n      tag_190\n      swap2\n      swap1\n      tag_191\n      jump\t// in\n    tag_190:\n        /* \"contracts/Tp_Final_Mod02/AuctETH.sol\":3151:3161  highestBid */\n      sload(0x03)\n        /* \"contracts/Tp_Final_Mod02/AuctETH.sol\":3151:3184  highestBid * (bidIncrement + 100) */\n      tag_192\n      swap2\n      swap1\n      tag_157\n      jump\t// in\n    tag_192:\n        /* \"contracts/Tp_Final_Mod02/AuctETH.sol\":3151:3190  highestBid * (bidIncrement + 100) / 100 */\n      tag_193\n      swap2\n      swap1\n      tag_159\n      jump\t// in\n    tag_193:\n        /* \"contracts/Tp_Final_Mod02/AuctETH.sol\":3139:3147  bidValue */\n      dup2\n        /* \"contracts/Tp_Final_Mod02/AuctETH.sol\":3139:3191  bidValue > (highestBid * (bidIncrement + 100) / 100) */\n      gt\n        /* \"contracts/Tp_Final_Mod02/AuctETH.sol\":3131:3273  require(bidValue > (highestBid * (bidIncrement + 100) / 100), \"The bid must outbid the best bid, considering the minimum increase percentage\") */\n      tag_194\n      jumpi\n      mload(0x40)\n      0x08c379a000000000000000000000000000000000000000000000000000000000\n      dup2\n      mstore\n      0x04\n      add\n      tag_195\n      swap1\n      tag_196\n      jump\t// in\n    tag_195:\n      mload(0x40)\n      dup1\n      swap2\n      sub\n      swap1\n      revert\n    tag_194:\n        /* \"contracts/Tp_Final_Mod02/AuctETH.sol\":3386:3389  600 */\n      0x0258\n        /* \"contracts/Tp_Final_Mod02/AuctETH.sol\":3368:3383  finishTimestamp */\n      sload(0x06)\n        /* \"contracts/Tp_Final_Mod02/AuctETH.sol\":3368:3389  finishTimestamp - 600 */\n      tag_197\n      swap2\n      swap1\n      tag_96\n      jump\t// in\n    tag_197:\n        /* \"contracts/Tp_Final_Mod02/AuctETH.sol\":3349:3364  block.timestamp */\n      timestamp\n        /* \"contracts/Tp_Final_Mod02/AuctETH.sol\":3349:3389  block.timestamp >= finishTimestamp - 600 */\n      lt\n        /* \"contracts/Tp_Final_Mod02/AuctETH.sol\":3345:3438  if (block.timestamp >= finishTimestamp - 600) {... */\n      tag_198\n      jumpi\n        /* \"contracts/Tp_Final_Mod02/AuctETH.sol\":3424:3427  600 */\n      0x0258\n        /* \"contracts/Tp_Final_Mod02/AuctETH.sol\":3405:3420  finishTimestamp */\n      0x06\n      0x00\n        /* \"contracts/Tp_Final_Mod02/AuctETH.sol\":3405:3427  finishTimestamp += 600 */\n      dup3\n      dup3\n      sload\n      tag_199\n      swap2\n      swap1\n      tag_191\n      jump\t// in\n    tag_199:\n      swap3\n      pop\n      pop\n      dup2\n      swap1\n      sstore\n      pop\n        /* \"contracts/Tp_Final_Mod02/AuctETH.sol\":3345:3438  if (block.timestamp >= finishTimestamp - 600) {... */\n    tag_198:\n        /* \"contracts/Tp_Final_Mod02/AuctETH.sol\":3524:3525  0 */\n      0x00\n        /* \"contracts/Tp_Final_Mod02/AuctETH.sol\":3491:3526  bidders[bidder].addrs != address(0) */\n      0xffffffffffffffffffffffffffffffffffffffff\n      and\n        /* \"contracts/Tp_Final_Mod02/AuctETH.sol\":3491:3498  bidders */\n      0x07\n        /* \"contracts/Tp_Final_Mod02/AuctETH.sol\":3491:3506  bidders[bidder] */\n      0x00\n        /* \"contracts/Tp_Final_Mod02/AuctETH.sol\":3499:3505  bidder */\n      dup5\n        /* \"contracts/Tp_Final_Mod02/AuctETH.sol\":3491:3506  bidders[bidder] */\n      0xffffffffffffffffffffffffffffffffffffffff\n      and\n      0xffffffffffffffffffffffffffffffffffffffff\n      and\n      dup2\n      mstore\n      0x20\n      add\n      swap1\n      dup2\n      mstore\n      0x20\n      add\n      0x00\n      keccak256\n        /* \"contracts/Tp_Final_Mod02/AuctETH.sol\":3491:3512  bidders[bidder].addrs */\n      0x00\n      add\n      0x00\n      swap1\n      sload\n      swap1\n      0x0100\n      exp\n      swap1\n      div\n      0xffffffffffffffffffffffffffffffffffffffff\n      and\n        /* \"contracts/Tp_Final_Mod02/AuctETH.sol\":3491:3526  bidders[bidder].addrs != address(0) */\n      0xffffffffffffffffffffffffffffffffffffffff\n      and\n      eq\n        /* \"contracts/Tp_Final_Mod02/AuctETH.sol\":3487:3761  if (bidders[bidder].addrs != address(0)) {... */\n      tag_200\n      jumpi\n        /* \"contracts/Tp_Final_Mod02/AuctETH.sol\":3568:3576  bidValue */\n      dup1\n        /* \"contracts/Tp_Final_Mod02/AuctETH.sol\":3542:3549  bidders */\n      0x07\n        /* \"contracts/Tp_Final_Mod02/AuctETH.sol\":3542:3557  bidders[bidder] */\n      0x00\n        /* \"contracts/Tp_Final_Mod02/AuctETH.sol\":3550:3556  bidder */\n      dup5\n        /* \"contracts/Tp_Final_Mod02/AuctETH.sol\":3542:3557  bidders[bidder] */\n      0xffffffffffffffffffffffffffffffffffffffff\n      and\n      0xffffffffffffffffffffffffffffffffffffffff\n      and\n      dup2\n      mstore\n      0x20\n      add\n      swap1\n      dup2\n      mstore\n      0x20\n      add\n      0x00\n      keccak256\n        /* \"contracts/Tp_Final_Mod02/AuctETH.sol\":3542:3565  bidders[bidder].lastBid */\n      0x01\n      add\n        /* \"contracts/Tp_Final_Mod02/AuctETH.sol\":3542:3576  bidders[bidder].lastBid = bidValue */\n      dup2\n      swap1\n      sstore\n      pop\n        /* \"contracts/Tp_Final_Mod02/AuctETH.sol\":3617:3625  bidValue */\n      dup1\n        /* \"contracts/Tp_Final_Mod02/AuctETH.sol\":3590:3597  bidders */\n      0x07\n        /* \"contracts/Tp_Final_Mod02/AuctETH.sol\":3590:3605  bidders[bidder] */\n      0x00\n        /* \"contracts/Tp_Final_Mod02/AuctETH.sol\":3598:3604  bidder */\n      dup5\n        /* \"contracts/Tp_Final_Mod02/AuctETH.sol\":3590:3605  bidders[bidder] */\n      0xffffffffffffffffffffffffffffffffffffffff\n      and\n      0xffffffffffffffffffffffffffffffffffffffff\n      and\n      dup2\n      mstore\n      0x20\n      add\n      swap1\n      dup2\n      mstore\n      0x20\n      add\n      0x00\n      keccak256\n        /* \"contracts/Tp_Final_Mod02/AuctETH.sol\":3590:3613  bidders[bidder].balance */\n      0x02\n      add\n      0x00\n        /* \"contracts/Tp_Final_Mod02/AuctETH.sol\":3590:3625  bidders[bidder].balance += bidValue */\n      dup3\n      dup3\n      sload\n      tag_201\n      swap2\n      swap1\n      tag_191\n      jump\t// in\n    tag_201:\n      swap3\n      pop\n      pop\n      dup2\n      swap1\n      sstore\n      pop\n        /* \"contracts/Tp_Final_Mod02/AuctETH.sol\":3487:3761  if (bidders[bidder].addrs != address(0)) {... */\n      jump(tag_202)\n    tag_200:\n        /* \"contracts/Tp_Final_Mod02/AuctETH.sol\":3656:3671  bidderAddresses */\n      0x08\n        /* \"contracts/Tp_Final_Mod02/AuctETH.sol\":3677:3683  bidder */\n      dup3\n        /* \"contracts/Tp_Final_Mod02/AuctETH.sol\":3656:3684  bidderAddresses.push(bidder) */\n      swap1\n      dup1\n      0x01\n      dup2\n      sload\n      add\n      dup1\n      dup3\n      sstore\n      dup1\n      swap2\n      pop\n      pop\n      0x01\n      swap1\n      sub\n      swap1\n      0x00\n      mstore\n      keccak256(0x00, 0x20)\n      add\n      0x00\n      swap1\n      swap2\n      swap1\n      swap2\n      swap1\n      swap2\n      0x0100\n      exp\n      dup2\n      sload\n      dup2\n      0xffffffffffffffffffffffffffffffffffffffff\n      mul\n      not\n      and\n      swap1\n      dup4\n      0xffffffffffffffffffffffffffffffffffffffff\n      and\n      mul\n      or\n      swap1\n      sstore\n      pop\n        /* \"contracts/Tp_Final_Mod02/AuctETH.sol\":3716:3750  Bidder(bidder, bidValue, bidValue) */\n      mload(0x40)\n      dup1\n      0x60\n      add\n      0x40\n      mstore\n      dup1\n        /* \"contracts/Tp_Final_Mod02/AuctETH.sol\":3723:3729  bidder */\n      dup4\n        /* \"contracts/Tp_Final_Mod02/AuctETH.sol\":3716:3750  Bidder(bidder, bidValue, bidValue) */\n      0xffffffffffffffffffffffffffffffffffffffff\n      and\n      dup2\n      mstore\n      0x20\n      add\n        /* \"contracts/Tp_Final_Mod02/AuctETH.sol\":3731:3739  bidValue */\n      dup3\n        /* \"contracts/Tp_Final_Mod02/AuctETH.sol\":3716:3750  Bidder(bidder, bidValue, bidValue) */\n      dup2\n      mstore\n      0x20\n      add\n        /* \"contracts/Tp_Final_Mod02/AuctETH.sol\":3741:3749  bidValue */\n      dup3\n        /* \"contracts/Tp_Final_Mod02/AuctETH.sol\":3716:3750  Bidder(bidder, bidValue, bidValue) */\n      dup2\n      mstore\n      pop\n        /* \"contracts/Tp_Final_Mod02/AuctETH.sol\":3698:3705  bidders */\n      0x07\n        /* \"contracts/Tp_Final_Mod02/AuctETH.sol\":3698:3713  bidders[bidder] */\n      0x00\n        /* \"contracts/Tp_Final_Mod02/AuctETH.sol\":3706:3712  bidder */\n      dup5\n        /* \"contracts/Tp_Final_Mod02/AuctETH.sol\":3698:3713  bidders[bidder] */\n      0xffffffffffffffffffffffffffffffffffffffff\n      and\n      0xffffffffffffffffffffffffffffffffffffffff\n      and\n      dup2\n      mstore\n      0x20\n      add\n      swap1\n      dup2\n      mstore\n      0x20\n      add\n      0x00\n      keccak256\n        /* \"contracts/Tp_Final_Mod02/AuctETH.sol\":3698:3750  bidders[bidder] = Bidder(bidder, bidValue, bidValue) */\n      0x00\n      dup3\n      add\n      mload\n      dup2\n      0x00\n      add\n      exp(0x0100, 0x00)\n      dup2\n      sload\n      dup2\n      0xffffffffffffffffffffffffffffffffffffffff\n      mul\n      not\n      and\n      swap1\n      dup4\n      0xffffffffffffffffffffffffffffffffffffffff\n      and\n      mul\n      or\n      swap1\n      sstore\n      pop\n      0x20\n      dup3\n      add\n      mload\n      dup2\n      0x01\n      add\n      sstore\n      0x40\n      dup3\n      add\n      mload\n      dup2\n      0x02\n      add\n      sstore\n      swap1\n      pop\n      pop\n        /* \"contracts/Tp_Final_Mod02/AuctETH.sol\":3487:3761  if (bidders[bidder].addrs != address(0)) {... */\n    tag_202:\n        /* \"contracts/Tp_Final_Mod02/AuctETH.sol\":3780:3786  bidder */\n      dup2\n        /* \"contracts/Tp_Final_Mod02/AuctETH.sol\":3771:3777  winner */\n      0x01\n      0x00\n        /* \"contracts/Tp_Final_Mod02/AuctETH.sol\":3771:3786  winner = bidder */\n      0x0100\n      exp\n      dup2\n      sload\n      dup2\n      0xffffffffffffffffffffffffffffffffffffffff\n      mul\n      not\n      and\n      swap1\n      dup4\n      0xffffffffffffffffffffffffffffffffffffffff\n      and\n      mul\n      or\n      swap1\n      sstore\n      pop\n        /* \"contracts/Tp_Final_Mod02/AuctETH.sol\":3809:3817  bidValue */\n      dup1\n        /* \"contracts/Tp_Final_Mod02/AuctETH.sol\":3796:3806  highestBid */\n      0x03\n        /* \"contracts/Tp_Final_Mod02/AuctETH.sol\":3796:3817  highestBid = bidValue */\n      dup2\n      swap1\n      sstore\n      pop\n        /* \"contracts/Tp_Final_Mod02/AuctETH.sol\":3840:3846  bidder */\n      dup2\n        /* \"contracts/Tp_Final_Mod02/AuctETH.sol\":3833:3857  NewBid(bidder, bidValue) */\n      0xffffffffffffffffffffffffffffffffffffffff\n      and\n      0xdd0b6c6a77960e2066c96171b4d7ac9e8b4c184011f38544afa36a5bb63ec59f\n        /* \"contracts/Tp_Final_Mod02/AuctETH.sol\":3848:3856  bidValue */\n      dup3\n        /* \"contracts/Tp_Final_Mod02/AuctETH.sol\":3833:3857  NewBid(bidder, bidValue) */\n      mload(0x40)\n      tag_204\n      swap2\n      swap1\n      tag_25\n      jump\t// in\n    tag_204:\n      mload(0x40)\n      dup1\n      swap2\n      sub\n      swap1\n      log2\n        /* \"contracts/Tp_Final_Mod02/AuctETH.sol\":3045:3864  {... */\n      pop\n      pop\n        /* \"contracts/Tp_Final_Mod02/AuctETH.sol\":2995:3864  function makeBid() external payable auctionOpened {... */\n      jump\t// out\n        /* \"contracts/Tp_Final_Mod02/AuctETH.sol\":1784:1825  mapping(address => Bidder) public bidders */\n    tag_85:\n      mstore(0x20, 0x07)\n      dup1\n      0x00\n      mstore\n      keccak256(0x00, 0x40)\n      0x00\n      swap2\n      pop\n      swap1\n      pop\n      dup1\n      0x00\n      add\n      0x00\n      swap1\n      sload\n      swap1\n      0x0100\n      exp\n      swap1\n      div\n      0xffffffffffffffffffffffffffffffffffffffff\n      and\n      swap1\n      dup1\n      0x01\n      add\n      sload\n      swap1\n      dup1\n      0x02\n      add\n      sload\n      swap1\n      pop\n      dup4\n      jump\t// out\n    tag_116:\n      mload(0x40)\n      dup1\n      0x40\n      add\n      0x40\n      mstore\n      dup1\n      and(0xffffffffffffffffffffffffffffffffffffffff, 0x00)\n      dup2\n      mstore\n      0x20\n      add\n      0x00\n      dup2\n      mstore\n      pop\n      swap1\n      jump\t// out\n        /* \"#utility.yul\":7:84   */\n    tag_205:\n        /* \"#utility.yul\":44:51   */\n      0x00\n        /* \"#utility.yul\":73:78   */\n      dup2\n        /* \"#utility.yul\":62:78   */\n      swap1\n      pop\n        /* \"#utility.yul\":7:84   */\n      swap2\n      swap1\n      pop\n      jump\t// out\n        /* \"#utility.yul\":90:208   */\n    tag_206:\n        /* \"#utility.yul\":177:201   */\n      tag_257\n        /* \"#utility.yul\":195:200   */\n      dup2\n        /* \"#utility.yul\":177:201   */\n      tag_205\n      jump\t// in\n    tag_257:\n        /* \"#utility.yul\":172:175   */\n      dup3\n        /* \"#utility.yul\":165:202   */\n      mstore\n        /* \"#utility.yul\":90:208   */\n      pop\n      pop\n      jump\t// out\n        /* \"#utility.yul\":214:436   */\n    tag_25:\n        /* \"#utility.yul\":307:311   */\n      0x00\n        /* \"#utility.yul\":345:347   */\n      0x20\n        /* \"#utility.yul\":334:343   */\n      dup3\n        /* \"#utility.yul\":330:348   */\n      add\n        /* \"#utility.yul\":322:348   */\n      swap1\n      pop\n        /* \"#utility.yul\":358:429   */\n      tag_259\n        /* \"#utility.yul\":426:427   */\n      0x00\n        /* \"#utility.yul\":415:424   */\n      dup4\n        /* \"#utility.yul\":411:428   */\n      add\n        /* \"#utility.yul\":402:408   */\n      dup5\n        /* \"#utility.yul\":358:429   */\n      tag_206\n      jump\t// in\n    tag_259:\n        /* \"#utility.yul\":214:436   */\n      swap3\n      swap2\n      pop\n      pop\n      jump\t// out\n        /* \"#utility.yul\":442:575   */\n    tag_207:\n        /* \"#utility.yul\":528:534   */\n      0x00\n        /* \"#utility.yul\":562:567   */\n      dup2\n        /* \"#utility.yul\":556:568   */\n      mload\n        /* \"#utility.yul\":546:568   */\n      swap1\n      pop\n        /* \"#utility.yul\":442:575   */\n      swap2\n      swap1\n      pop\n      jump\t// out\n        /* \"#utility.yul\":581:784   */\n    tag_208:\n        /* \"#utility.yul\":699:710   */\n      0x00\n        /* \"#utility.yul\":733:739   */\n      dup3\n        /* \"#utility.yul\":728:731   */\n      dup3\n        /* \"#utility.yul\":721:740   */\n      mstore\n        /* \"#utility.yul\":773:777   */\n      0x20\n        /* \"#utility.yul\":768:771   */\n      dup3\n        /* \"#utility.yul\":764:778   */\n      add\n        /* \"#utility.yul\":749:778   */\n      swap1\n      pop\n        /* \"#utility.yul\":581:784   */\n      swap3\n      swap2\n      pop\n      pop\n      jump\t// out\n        /* \"#utility.yul\":790:941   */\n    tag_209:\n        /* \"#utility.yul\":876:880   */\n      0x00\n        /* \"#utility.yul\":899:902   */\n      dup2\n        /* \"#utility.yul\":891:902   */\n      swap1\n      pop\n        /* \"#utility.yul\":929:933   */\n      0x20\n        /* \"#utility.yul\":924:927   */\n      dup3\n        /* \"#utility.yul\":920:934   */\n      add\n        /* \"#utility.yul\":912:934   */\n      swap1\n      pop\n        /* \"#utility.yul\":790:941   */\n      swap2\n      swap1\n      pop\n      jump\t// out\n        /* \"#utility.yul\":947:1073   */\n    tag_210:\n        /* \"#utility.yul\":984:991   */\n      0x00\n        /* \"#utility.yul\":1024:1066   */\n      0xffffffffffffffffffffffffffffffffffffffff\n        /* \"#utility.yul\":1017:1022   */\n      dup3\n        /* \"#utility.yul\":1013:1067   */\n      and\n        /* \"#utility.yul\":1002:1067   */\n      swap1\n      pop\n        /* \"#utility.yul\":947:1073   */\n      swap2\n      swap1\n      pop\n      jump\t// out\n        /* \"#utility.yul\":1079:1175   */\n    tag_211:\n        /* \"#utility.yul\":1116:1123   */\n      0x00\n        /* \"#utility.yul\":1145:1169   */\n      tag_265\n        /* \"#utility.yul\":1163:1168   */\n      dup3\n        /* \"#utility.yul\":1145:1169   */\n      tag_210\n      jump\t// in\n    tag_265:\n        /* \"#utility.yul\":1134:1169   */\n      swap1\n      pop\n        /* \"#utility.yul\":1079:1175   */\n      swap2\n      swap1\n      pop\n      jump\t// out\n        /* \"#utility.yul\":1181:1289   */\n    tag_212:\n        /* \"#utility.yul\":1258:1282   */\n      tag_267\n        /* \"#utility.yul\":1276:1281   */\n      dup2\n        /* \"#utility.yul\":1258:1282   */\n      tag_211\n      jump\t// in\n    tag_267:\n        /* \"#utility.yul\":1253:1256   */\n      dup3\n        /* \"#utility.yul\":1246:1283   */\n      mstore\n        /* \"#utility.yul\":1181:1289   */\n      pop\n      pop\n      jump\t// out\n        /* \"#utility.yul\":1295:1403   */\n    tag_213:\n        /* \"#utility.yul\":1372:1396   */\n      tag_269\n        /* \"#utility.yul\":1390:1395   */\n      dup2\n        /* \"#utility.yul\":1372:1396   */\n      tag_205\n      jump\t// in\n    tag_269:\n        /* \"#utility.yul\":1367:1370   */\n      dup3\n        /* \"#utility.yul\":1360:1397   */\n      mstore\n        /* \"#utility.yul\":1295:1403   */\n      pop\n      pop\n      jump\t// out\n        /* \"#utility.yul\":1457:1946   */\n    tag_214:\n        /* \"#utility.yul\":1582:1586   */\n      0x40\n        /* \"#utility.yul\":1577:1580   */\n      dup3\n        /* \"#utility.yul\":1573:1587   */\n      add\n        /* \"#utility.yul\":1671:1675   */\n      0x00\n        /* \"#utility.yul\":1664:1669   */\n      dup3\n        /* \"#utility.yul\":1660:1676   */\n      add\n        /* \"#utility.yul\":1654:1677   */\n      mload\n        /* \"#utility.yul\":1690:1753   */\n      tag_271\n        /* \"#utility.yul\":1747:1751   */\n      0x00\n        /* \"#utility.yul\":1742:1745   */\n      dup6\n        /* \"#utility.yul\":1738:1752   */\n      add\n        /* \"#utility.yul\":1724:1736   */\n      dup3\n        /* \"#utility.yul\":1690:1753   */\n      tag_212\n      jump\t// in\n    tag_271:\n        /* \"#utility.yul\":1597:1763   */\n      pop\n        /* \"#utility.yul\":1847:1851   */\n      0x20\n        /* \"#utility.yul\":1840:1845   */\n      dup3\n        /* \"#utility.yul\":1836:1852   */\n      add\n        /* \"#utility.yul\":1830:1853   */\n      mload\n        /* \"#utility.yul\":1866:1929   */\n      tag_272\n        /* \"#utility.yul\":1923:1927   */\n      0x20\n        /* \"#utility.yul\":1918:1921   */\n      dup6\n        /* \"#utility.yul\":1914:1928   */\n      add\n        /* \"#utility.yul\":1900:1912   */\n      dup3\n        /* \"#utility.yul\":1866:1929   */\n      tag_213\n      jump\t// in\n    tag_272:\n        /* \"#utility.yul\":1773:1939   */\n      pop\n        /* \"#utility.yul\":1551:1946   */\n      pop\n        /* \"#utility.yul\":1457:1946   */\n      pop\n      pop\n      jump\t// out\n        /* \"#utility.yul\":1952:2207   */\n    tag_215:\n        /* \"#utility.yul\":2059:2069   */\n      0x00\n        /* \"#utility.yul\":2080:2164   */\n      tag_274\n        /* \"#utility.yul\":2160:2163   */\n      dup4\n        /* \"#utility.yul\":2152:2158   */\n      dup4\n        /* \"#utility.yul\":2080:2164   */\n      tag_214\n      jump\t// in\n    tag_274:\n        /* \"#utility.yul\":2196:2200   */\n      0x40\n        /* \"#utility.yul\":2191:2194   */\n      dup4\n        /* \"#utility.yul\":2187:2201   */\n      add\n        /* \"#utility.yul\":2173:2201   */\n      swap1\n      pop\n        /* \"#utility.yul\":1952:2207   */\n      swap3\n      swap2\n      pop\n      pop\n      jump\t// out\n        /* \"#utility.yul\":2213:2345   */\n    tag_216:\n        /* \"#utility.yul\":2302:2306   */\n      0x00\n        /* \"#utility.yul\":2334:2338   */\n      0x20\n        /* \"#utility.yul\":2329:2332   */\n      dup3\n        /* \"#utility.yul\":2325:2339   */\n      add\n        /* \"#utility.yul\":2317:2339   */\n      swap1\n      pop\n        /* \"#utility.yul\":2213:2345   */\n      swap2\n      swap1\n      pop\n      jump\t// out\n        /* \"#utility.yul\":2403:3287   */\n    tag_217:\n        /* \"#utility.yul\":2560:2563   */\n      0x00\n        /* \"#utility.yul\":2589:2662   */\n      tag_277\n        /* \"#utility.yul\":2656:2661   */\n      dup3\n        /* \"#utility.yul\":2589:2662   */\n      tag_207\n      jump\t// in\n    tag_277:\n        /* \"#utility.yul\":2678:2783   */\n      tag_278\n        /* \"#utility.yul\":2776:2782   */\n      dup2\n        /* \"#utility.yul\":2771:2774   */\n      dup6\n        /* \"#utility.yul\":2678:2783   */\n      tag_208\n      jump\t// in\n    tag_278:\n        /* \"#utility.yul\":2671:2783   */\n      swap4\n      pop\n        /* \"#utility.yul\":2807:2882   */\n      tag_279\n        /* \"#utility.yul\":2876:2881   */\n      dup4\n        /* \"#utility.yul\":2807:2882   */\n      tag_209\n      jump\t// in\n    tag_279:\n        /* \"#utility.yul\":2905:2912   */\n      dup1\n        /* \"#utility.yul\":2936:2937   */\n      0x00\n        /* \"#utility.yul\":2921:3262   */\n    tag_280:\n        /* \"#utility.yul\":2946:2952   */\n      dup4\n        /* \"#utility.yul\":2943:2944   */\n      dup2\n        /* \"#utility.yul\":2940:2953   */\n      lt\n        /* \"#utility.yul\":2921:3262   */\n      iszero\n      tag_282\n      jumpi\n        /* \"#utility.yul\":3022:3028   */\n      dup2\n        /* \"#utility.yul\":3016:3029   */\n      mload\n        /* \"#utility.yul\":3049:3150   */\n      tag_283\n        /* \"#utility.yul\":3146:3149   */\n      dup9\n        /* \"#utility.yul\":3131:3144   */\n      dup3\n        /* \"#utility.yul\":3049:3150   */\n      tag_215\n      jump\t// in\n    tag_283:\n        /* \"#utility.yul\":3042:3150   */\n      swap8\n      pop\n        /* \"#utility.yul\":3173:3252   */\n      tag_284\n        /* \"#utility.yul\":3245:3251   */\n      dup4\n        /* \"#utility.yul\":3173:3252   */\n      tag_216\n      jump\t// in\n    tag_284:\n        /* \"#utility.yul\":3163:3252   */\n      swap3\n      pop\n        /* \"#utility.yul\":2981:3262   */\n      pop\n        /* \"#utility.yul\":2968:2969   */\n      0x01\n        /* \"#utility.yul\":2965:2966   */\n      dup2\n        /* \"#utility.yul\":2961:2970   */\n      add\n        /* \"#utility.yul\":2956:2970   */\n      swap1\n      pop\n        /* \"#utility.yul\":2921:3262   */\n      jump(tag_280)\n    tag_282:\n        /* \"#utility.yul\":2925:2939   */\n      pop\n        /* \"#utility.yul\":3278:3281   */\n      dup6\n        /* \"#utility.yul\":3271:3281   */\n      swap4\n      pop\n        /* \"#utility.yul\":2565:3287   */\n      pop\n      pop\n      pop\n        /* \"#utility.yul\":2403:3287   */\n      swap3\n      swap2\n      pop\n      pop\n      jump\t// out\n        /* \"#utility.yul\":3293:3742   */\n    tag_32:\n        /* \"#utility.yul\":3474:3478   */\n      0x00\n        /* \"#utility.yul\":3512:3514   */\n      0x20\n        /* \"#utility.yul\":3501:3510   */\n      dup3\n        /* \"#utility.yul\":3497:3515   */\n      add\n        /* \"#utility.yul\":3489:3515   */\n      swap1\n      pop\n        /* \"#utility.yul\":3561:3570   */\n      dup2\n        /* \"#utility.yul\":3555:3559   */\n      dup2\n        /* \"#utility.yul\":3551:3571   */\n      sub\n        /* \"#utility.yul\":3547:3548   */\n      0x00\n        /* \"#utility.yul\":3536:3545   */\n      dup4\n        /* \"#utility.yul\":3532:3549   */\n      add\n        /* \"#utility.yul\":3525:3572   */\n      mstore\n        /* \"#utility.yul\":3589:3735   */\n      tag_286\n        /* \"#utility.yul\":3730:3734   */\n      dup2\n        /* \"#utility.yul\":3721:3727   */\n      dup5\n        /* \"#utility.yul\":3589:3735   */\n      tag_217\n      jump\t// in\n    tag_286:\n        /* \"#utility.yul\":3581:3735   */\n      swap1\n      pop\n        /* \"#utility.yul\":3293:3742   */\n      swap3\n      swap2\n      pop\n      pop\n      jump\t// out\n        /* \"#utility.yul\":3829:3946   */\n    tag_219:\n        /* \"#utility.yul\":3938:3939   */\n      0x00\n        /* \"#utility.yul\":3935:3936   */\n      dup1\n        /* \"#utility.yul\":3928:3940   */\n      revert\n        /* \"#utility.yul\":4075:4197   */\n    tag_221:\n        /* \"#utility.yul\":4148:4172   */\n      tag_291\n        /* \"#utility.yul\":4166:4171   */\n      dup2\n        /* \"#utility.yul\":4148:4172   */\n      tag_205\n      jump\t// in\n    tag_291:\n        /* \"#utility.yul\":4141:4146   */\n      dup2\n        /* \"#utility.yul\":4138:4173   */\n      eq\n        /* \"#utility.yul\":4128:4191   */\n      tag_292\n      jumpi\n        /* \"#utility.yul\":4187:4188   */\n      0x00\n        /* \"#utility.yul\":4184:4185   */\n      dup1\n        /* \"#utility.yul\":4177:4189   */\n      revert\n        /* \"#utility.yul\":4128:4191   */\n    tag_292:\n        /* \"#utility.yul\":4075:4197   */\n      pop\n      jump\t// out\n        /* \"#utility.yul\":4203:4342   */\n    tag_222:\n        /* \"#utility.yul\":4249:4254   */\n      0x00\n        /* \"#utility.yul\":4287:4293   */\n      dup2\n        /* \"#utility.yul\":4274:4294   */\n      calldataload\n        /* \"#utility.yul\":4265:4294   */\n      swap1\n      pop\n        /* \"#utility.yul\":4303:4336   */\n      tag_294\n        /* \"#utility.yul\":4330:4335   */\n      dup2\n        /* \"#utility.yul\":4303:4336   */\n      tag_221\n      jump\t// in\n    tag_294:\n        /* \"#utility.yul\":4203:4342   */\n      swap3\n      swap2\n      pop\n      pop\n      jump\t// out\n        /* \"#utility.yul\":4348:4677   */\n    tag_36:\n        /* \"#utility.yul\":4407:4413   */\n      0x00\n        /* \"#utility.yul\":4456:4458   */\n      0x20\n        /* \"#utility.yul\":4444:4453   */\n      dup3\n        /* \"#utility.yul\":4435:4442   */\n      dup5\n        /* \"#utility.yul\":4431:4454   */\n      sub\n        /* \"#utility.yul\":4427:4459   */\n      slt\n        /* \"#utility.yul\":4424:4543   */\n      iszero\n      tag_296\n      jumpi\n        /* \"#utility.yul\":4462:4541   */\n      tag_297\n      tag_219\n      jump\t// in\n    tag_297:\n        /* \"#utility.yul\":4424:4543   */\n    tag_296:\n        /* \"#utility.yul\":4582:4583   */\n      0x00\n        /* \"#utility.yul\":4607:4660   */\n      tag_298\n        /* \"#utility.yul\":4652:4659   */\n      dup5\n        /* \"#utility.yul\":4643:4649   */\n      dup3\n        /* \"#utility.yul\":4632:4641   */\n      dup6\n        /* \"#utility.yul\":4628:4650   */\n      add\n        /* \"#utility.yul\":4607:4660   */\n      tag_222\n      jump\t// in\n    tag_298:\n        /* \"#utility.yul\":4597:4660   */\n      swap2\n      pop\n        /* \"#utility.yul\":4553:4670   */\n      pop\n        /* \"#utility.yul\":4348:4677   */\n      swap3\n      swap2\n      pop\n      pop\n      jump\t// out\n        /* \"#utility.yul\":4683:4801   */\n    tag_223:\n        /* \"#utility.yul\":4770:4794   */\n      tag_300\n        /* \"#utility.yul\":4788:4793   */\n      dup2\n        /* \"#utility.yul\":4770:4794   */\n      tag_211\n      jump\t// in\n    tag_300:\n        /* \"#utility.yul\":4765:4768   */\n      dup3\n        /* \"#utility.yul\":4758:4795   */\n      mstore\n        /* \"#utility.yul\":4683:4801   */\n      pop\n      pop\n      jump\t// out\n        /* \"#utility.yul\":4807:5029   */\n    tag_39:\n        /* \"#utility.yul\":4900:4904   */\n      0x00\n        /* \"#utility.yul\":4938:4940   */\n      0x20\n        /* \"#utility.yul\":4927:4936   */\n      dup3\n        /* \"#utility.yul\":4923:4941   */\n      add\n        /* \"#utility.yul\":4915:4941   */\n      swap1\n      pop\n        /* \"#utility.yul\":4951:5022   */\n      tag_302\n        /* \"#utility.yul\":5019:5020   */\n      0x00\n        /* \"#utility.yul\":5008:5017   */\n      dup4\n        /* \"#utility.yul\":5004:5021   */\n      add\n        /* \"#utility.yul\":4995:5001   */\n      dup5\n        /* \"#utility.yul\":4951:5022   */\n      tag_223\n      jump\t// in\n    tag_302:\n        /* \"#utility.yul\":4807:5029   */\n      swap3\n      swap2\n      pop\n      pop\n      jump\t// out\n        /* \"#utility.yul\":5035:5367   */\n    tag_64:\n        /* \"#utility.yul\":5156:5160   */\n      0x00\n        /* \"#utility.yul\":5194:5196   */\n      0x40\n        /* \"#utility.yul\":5183:5192   */\n      dup3\n        /* \"#utility.yul\":5179:5197   */\n      add\n        /* \"#utility.yul\":5171:5197   */\n      swap1\n      pop\n        /* \"#utility.yul\":5207:5278   */\n      tag_304\n        /* \"#utility.yul\":5275:5276   */\n      0x00\n        /* \"#utility.yul\":5264:5273   */\n      dup4\n        /* \"#utility.yul\":5260:5277   */\n      add\n        /* \"#utility.yul\":5251:5257   */\n      dup6\n        /* \"#utility.yul\":5207:5278   */\n      tag_223\n      jump\t// in\n    tag_304:\n        /* \"#utility.yul\":5288:5360   */\n      tag_305\n        /* \"#utility.yul\":5356:5358   */\n      0x20\n        /* \"#utility.yul\":5345:5354   */\n      dup4\n        /* \"#utility.yul\":5341:5359   */\n      add\n        /* \"#utility.yul\":5332:5338   */\n      dup5\n        /* \"#utility.yul\":5288:5360   */\n      tag_206\n      jump\t// in\n    tag_305:\n        /* \"#utility.yul\":5035:5367   */\n      swap4\n      swap3\n      pop\n      pop\n      pop\n      jump\t// out\n        /* \"#utility.yul\":5373:5495   */\n    tag_224:\n        /* \"#utility.yul\":5446:5470   */\n      tag_307\n        /* \"#utility.yul\":5464:5469   */\n      dup2\n        /* \"#utility.yul\":5446:5470   */\n      tag_211\n      jump\t// in\n    tag_307:\n        /* \"#utility.yul\":5439:5444   */\n      dup2\n        /* \"#utility.yul\":5436:5471   */\n      eq\n        /* \"#utility.yul\":5426:5489   */\n      tag_308\n      jumpi\n        /* \"#utility.yul\":5485:5486   */\n      0x00\n        /* \"#utility.yul\":5482:5483   */\n      dup1\n        /* \"#utility.yul\":5475:5487   */\n      revert\n        /* \"#utility.yul\":5426:5489   */\n    tag_308:\n        /* \"#utility.yul\":5373:5495   */\n      pop\n      jump\t// out\n        /* \"#utility.yul\":5501:5640   */\n    tag_225:\n        /* \"#utility.yul\":5547:5552   */\n      0x00\n        /* \"#utility.yul\":5585:5591   */\n      dup2\n        /* \"#utility.yul\":5572:5592   */\n      calldataload\n        /* \"#utility.yul\":5563:5592   */\n      swap1\n      pop\n        /* \"#utility.yul\":5601:5634   */\n      tag_310\n        /* \"#utility.yul\":5628:5633   */\n      dup2\n        /* \"#utility.yul\":5601:5634   */\n      tag_224\n      jump\t// in\n    tag_310:\n        /* \"#utility.yul\":5501:5640   */\n      swap3\n      swap2\n      pop\n      pop\n      jump\t// out\n        /* \"#utility.yul\":5646:5975   */\n    tag_84:\n        /* \"#utility.yul\":5705:5711   */\n      0x00\n        /* \"#utility.yul\":5754:5756   */\n      0x20\n        /* \"#utility.yul\":5742:5751   */\n      dup3\n        /* \"#utility.yul\":5733:5740   */\n      dup5\n        /* \"#utility.yul\":5729:5752   */\n      sub\n        /* \"#utility.yul\":5725:5757   */\n      slt\n        /* \"#utility.yul\":5722:5841   */\n      iszero\n      tag_312\n      jumpi\n        /* \"#utility.yul\":5760:5839   */\n      tag_313\n      tag_219\n      jump\t// in\n    tag_313:\n        /* \"#utility.yul\":5722:5841   */\n    tag_312:\n        /* \"#utility.yul\":5880:5881   */\n      0x00\n        /* \"#utility.yul\":5905:5958   */\n      tag_314\n        /* \"#utility.yul\":5950:5957   */\n      dup5\n        /* \"#utility.yul\":5941:5947   */\n      dup3\n        /* \"#utility.yul\":5930:5939   */\n      dup6\n        /* \"#utility.yul\":5926:5948   */\n      add\n        /* \"#utility.yul\":5905:5958   */\n      tag_225\n      jump\t// in\n    tag_314:\n        /* \"#utility.yul\":5895:5958   */\n      swap2\n      pop\n        /* \"#utility.yul\":5851:5968   */\n      pop\n        /* \"#utility.yul\":5646:5975   */\n      swap3\n      swap2\n      pop\n      pop\n      jump\t// out\n        /* \"#utility.yul\":5981:6423   */\n    tag_87:\n        /* \"#utility.yul\":6130:6134   */\n      0x00\n        /* \"#utility.yul\":6168:6170   */\n      0x60\n        /* \"#utility.yul\":6157:6166   */\n      dup3\n        /* \"#utility.yul\":6153:6171   */\n      add\n        /* \"#utility.yul\":6145:6171   */\n      swap1\n      pop\n        /* \"#utility.yul\":6181:6252   */\n      tag_316\n        /* \"#utility.yul\":6249:6250   */\n      0x00\n        /* \"#utility.yul\":6238:6247   */\n      dup4\n        /* \"#utility.yul\":6234:6251   */\n      add\n        /* \"#utility.yul\":6225:6231   */\n      dup7\n        /* \"#utility.yul\":6181:6252   */\n      tag_223\n      jump\t// in\n    tag_316:\n        /* \"#utility.yul\":6262:6334   */\n      tag_317\n        /* \"#utility.yul\":6330:6332   */\n      0x20\n        /* \"#utility.yul\":6319:6328   */\n      dup4\n        /* \"#utility.yul\":6315:6333   */\n      add\n        /* \"#utility.yul\":6306:6312   */\n      dup6\n        /* \"#utility.yul\":6262:6334   */\n      tag_206\n      jump\t// in\n    tag_317:\n        /* \"#utility.yul\":6344:6416   */\n      tag_318\n        /* \"#utility.yul\":6412:6414   */\n      0x40\n        /* \"#utility.yul\":6401:6410   */\n      dup4\n        /* \"#utility.yul\":6397:6415   */\n      add\n        /* \"#utility.yul\":6388:6394   */\n      dup5\n        /* \"#utility.yul\":6344:6416   */\n      tag_206\n      jump\t// in\n    tag_318:\n        /* \"#utility.yul\":5981:6423   */\n      swap5\n      swap4\n      pop\n      pop\n      pop\n      pop\n      jump\t// out\n        /* \"#utility.yul\":6429:6598   */\n    tag_226:\n        /* \"#utility.yul\":6513:6524   */\n      0x00\n        /* \"#utility.yul\":6547:6553   */\n      dup3\n        /* \"#utility.yul\":6542:6545   */\n      dup3\n        /* \"#utility.yul\":6535:6554   */\n      mstore\n        /* \"#utility.yul\":6587:6591   */\n      0x20\n        /* \"#utility.yul\":6582:6585   */\n      dup3\n        /* \"#utility.yul\":6578:6592   */\n      add\n        /* \"#utility.yul\":6563:6592   */\n      swap1\n      pop\n        /* \"#utility.yul\":6429:6598   */\n      swap3\n      swap2\n      pop\n      pop\n      jump\t// out\n        /* \"#utility.yul\":6604:6837   */\n    tag_227:\n        /* \"#utility.yul\":6744:6778   */\n      0x4f6e6c79207468652062616c616e6365206f776e65722063616e20696e697469\n        /* \"#utility.yul\":6740:6741   */\n      0x00\n        /* \"#utility.yul\":6732:6738   */\n      dup3\n        /* \"#utility.yul\":6728:6742   */\n      add\n        /* \"#utility.yul\":6721:6779   */\n      mstore\n        /* \"#utility.yul\":6813:6829   */\n      0x6174652074686520726566756e64000000000000000000000000000000000000\n        /* \"#utility.yul\":6808:6810   */\n      0x20\n        /* \"#utility.yul\":6800:6806   */\n      dup3\n        /* \"#utility.yul\":6796:6811   */\n      add\n        /* \"#utility.yul\":6789:6830   */\n      mstore\n        /* \"#utility.yul\":6604:6837   */\n      pop\n      jump\t// out\n        /* \"#utility.yul\":6843:7209   */\n    tag_228:\n        /* \"#utility.yul\":6985:6988   */\n      0x00\n        /* \"#utility.yul\":7006:7073   */\n      tag_322\n        /* \"#utility.yul\":7070:7072   */\n      0x2e\n        /* \"#utility.yul\":7065:7068   */\n      dup4\n        /* \"#utility.yul\":7006:7073   */\n      tag_226\n      jump\t// in\n    tag_322:\n        /* \"#utility.yul\":6999:7073   */\n      swap2\n      pop\n        /* \"#utility.yul\":7082:7175   */\n      tag_323\n        /* \"#utility.yul\":7171:7174   */\n      dup3\n        /* \"#utility.yul\":7082:7175   */\n      tag_227\n      jump\t// in\n    tag_323:\n        /* \"#utility.yul\":7200:7202   */\n      0x40\n        /* \"#utility.yul\":7195:7198   */\n      dup3\n        /* \"#utility.yul\":7191:7203   */\n      add\n        /* \"#utility.yul\":7184:7203   */\n      swap1\n      pop\n        /* \"#utility.yul\":6843:7209   */\n      swap2\n      swap1\n      pop\n      jump\t// out\n        /* \"#utility.yul\":7215:7634   */\n    tag_91:\n        /* \"#utility.yul\":7381:7385   */\n      0x00\n        /* \"#utility.yul\":7419:7421   */\n      0x20\n        /* \"#utility.yul\":7408:7417   */\n      dup3\n        /* \"#utility.yul\":7404:7422   */\n      add\n        /* \"#utility.yul\":7396:7422   */\n      swap1\n      pop\n        /* \"#utility.yul\":7468:7477   */\n      dup2\n        /* \"#utility.yul\":7462:7466   */\n      dup2\n        /* \"#utility.yul\":7458:7478   */\n      sub\n        /* \"#utility.yul\":7454:7455   */\n      0x00\n        /* \"#utility.yul\":7443:7452   */\n      dup4\n        /* \"#utility.yul\":7439:7456   */\n      add\n        /* \"#utility.yul\":7432:7479   */\n      mstore\n        /* \"#utility.yul\":7496:7627   */\n      tag_325\n        /* \"#utility.yul\":7622:7626   */\n      dup2\n        /* \"#utility.yul\":7496:7627   */\n      tag_228\n      jump\t// in\n    tag_325:\n        /* \"#utility.yul\":7488:7627   */\n      swap1\n      pop\n        /* \"#utility.yul\":7215:7634   */\n      swap2\n      swap1\n      pop\n      jump\t// out\n        /* \"#utility.yul\":7640:7939   */\n    tag_229:\n        /* \"#utility.yul\":7780:7814   */\n      0x4e6f20726566756e642077696c6c20626520616c6c6f77656420696620796f75\n        /* \"#utility.yul\":7776:7777   */\n      0x00\n        /* \"#utility.yul\":7768:7774   */\n      dup3\n        /* \"#utility.yul\":7764:7778   */\n      add\n        /* \"#utility.yul\":7757:7815   */\n      mstore\n        /* \"#utility.yul\":7849:7883   */\n      0x2068617665206e6f7420706c6163656420612062696420616674657220746865\n        /* \"#utility.yul\":7844:7846   */\n      0x20\n        /* \"#utility.yul\":7836:7842   */\n      dup3\n        /* \"#utility.yul\":7832:7847   */\n      add\n        /* \"#utility.yul\":7825:7884   */\n      mstore\n        /* \"#utility.yul\":7918:7931   */\n      0x206c617374206f66666572000000000000000000000000000000000000000000\n        /* \"#utility.yul\":7913:7915   */\n      0x40\n        /* \"#utility.yul\":7905:7911   */\n      dup3\n        /* \"#utility.yul\":7901:7916   */\n      add\n        /* \"#utility.yul\":7894:7932   */\n      mstore\n        /* \"#utility.yul\":7640:7939   */\n      pop\n      jump\t// out\n        /* \"#utility.yul\":7945:8311   */\n    tag_230:\n        /* \"#utility.yul\":8087:8090   */\n      0x00\n        /* \"#utility.yul\":8108:8175   */\n      tag_328\n        /* \"#utility.yul\":8172:8174   */\n      0x4b\n        /* \"#utility.yul\":8167:8170   */\n      dup4\n        /* \"#utility.yul\":8108:8175   */\n      tag_226\n      jump\t// in\n    tag_328:\n        /* \"#utility.yul\":8101:8175   */\n      swap2\n      pop\n        /* \"#utility.yul\":8184:8277   */\n      tag_329\n        /* \"#utility.yul\":8273:8276   */\n      dup3\n        /* \"#utility.yul\":8184:8277   */\n      tag_229\n      jump\t// in\n    tag_329:\n        /* \"#utility.yul\":8302:8304   */\n      0x60\n        /* \"#utility.yul\":8297:8300   */\n      dup3\n        /* \"#utility.yul\":8293:8305   */\n      add\n        /* \"#utility.yul\":8286:8305   */\n      swap1\n      pop\n        /* \"#utility.yul\":7945:8311   */\n      swap2\n      swap1\n      pop\n      jump\t// out\n        /* \"#utility.yul\":8317:8736   */\n    tag_94:\n        /* \"#utility.yul\":8483:8487   */\n      0x00\n        /* \"#utility.yul\":8521:8523   */\n      0x20\n        /* \"#utility.yul\":8510:8519   */\n      dup3\n        /* \"#utility.yul\":8506:8524   */\n      add\n        /* \"#utility.yul\":8498:8524   */\n      swap1\n      pop\n        /* \"#utility.yul\":8570:8579   */\n      dup2\n        /* \"#utility.yul\":8564:8568   */\n      dup2\n        /* \"#utility.yul\":8560:8580   */\n      sub\n        /* \"#utility.yul\":8556:8557   */\n      0x00\n        /* \"#utility.yul\":8545:8554   */\n      dup4\n        /* \"#utility.yul\":8541:8558   */\n      add\n        /* \"#utility.yul\":8534:8581   */\n      mstore\n        /* \"#utility.yul\":8598:8729   */\n      tag_331\n        /* \"#utility.yul\":8724:8728   */\n      dup2\n        /* \"#utility.yul\":8598:8729   */\n      tag_230\n      jump\t// in\n    tag_331:\n        /* \"#utility.yul\":8590:8729   */\n      swap1\n      pop\n        /* \"#utility.yul\":8317:8736   */\n      swap2\n      swap1\n      pop\n      jump\t// out\n        /* \"#utility.yul\":8742:8922   */\n    tag_231:\n        /* \"#utility.yul\":8790:8867   */\n      0x4e487b7100000000000000000000000000000000000000000000000000000000\n        /* \"#utility.yul\":8787:8788   */\n      0x00\n        /* \"#utility.yul\":8780:8868   */\n      mstore\n        /* \"#utility.yul\":8887:8891   */\n      0x11\n        /* \"#utility.yul\":8884:8885   */\n      0x04\n        /* \"#utility.yul\":8877:8892   */\n      mstore\n        /* \"#utility.yul\":8911:8915   */\n      0x24\n        /* \"#utility.yul\":8908:8909   */\n      0x00\n        /* \"#utility.yul\":8901:8916   */\n      revert\n        /* \"#utility.yul\":8928:9122   */\n    tag_96:\n        /* \"#utility.yul\":8968:8972   */\n      0x00\n        /* \"#utility.yul\":8988:9008   */\n      tag_334\n        /* \"#utility.yul\":9006:9007   */\n      dup3\n        /* \"#utility.yul\":8988:9008   */\n      tag_205\n      jump\t// in\n    tag_334:\n        /* \"#utility.yul\":8983:9008   */\n      swap2\n      pop\n        /* \"#utility.yul\":9022:9042   */\n      tag_335\n        /* \"#utility.yul\":9040:9041   */\n      dup4\n        /* \"#utility.yul\":9022:9042   */\n      tag_205\n      jump\t// in\n    tag_335:\n        /* \"#utility.yul\":9017:9042   */\n      swap3\n      pop\n        /* \"#utility.yul\":9066:9067   */\n      dup3\n        /* \"#utility.yul\":9063:9064   */\n      dup3\n        /* \"#utility.yul\":9059:9068   */\n      sub\n        /* \"#utility.yul\":9051:9068   */\n      swap1\n      pop\n        /* \"#utility.yul\":9090:9091   */\n      dup2\n        /* \"#utility.yul\":9084:9088   */\n      dup2\n        /* \"#utility.yul\":9081:9092   */\n      gt\n        /* \"#utility.yul\":9078:9115   */\n      iszero\n      tag_336\n      jumpi\n        /* \"#utility.yul\":9095:9113   */\n      tag_337\n      tag_231\n      jump\t// in\n    tag_337:\n        /* \"#utility.yul\":9078:9115   */\n    tag_336:\n        /* \"#utility.yul\":8928:9122   */\n      swap3\n      swap2\n      pop\n      pop\n      jump\t// out\n        /* \"#utility.yul\":9128:9309   */\n    tag_232:\n        /* \"#utility.yul\":9268:9301   */\n      0x4e6f2062616c616e636520617661696c61626c6520666f7220726566756e6400\n        /* \"#utility.yul\":9264:9265   */\n      0x00\n        /* \"#utility.yul\":9256:9262   */\n      dup3\n        /* \"#utility.yul\":9252:9266   */\n      add\n        /* \"#utility.yul\":9245:9302   */\n      mstore\n        /* \"#utility.yul\":9128:9309   */\n      pop\n      jump\t// out\n        /* \"#utility.yul\":9315:9681   */\n    tag_233:\n        /* \"#utility.yul\":9457:9460   */\n      0x00\n        /* \"#utility.yul\":9478:9545   */\n      tag_340\n        /* \"#utility.yul\":9542:9544   */\n      0x1f\n        /* \"#utility.yul\":9537:9540   */\n      dup4\n        /* \"#utility.yul\":9478:9545   */\n      tag_226\n      jump\t// in\n    tag_340:\n        /* \"#utility.yul\":9471:9545   */\n      swap2\n      pop\n        /* \"#utility.yul\":9554:9647   */\n      tag_341\n        /* \"#utility.yul\":9643:9646   */\n      dup3\n        /* \"#utility.yul\":9554:9647   */\n      tag_232\n      jump\t// in\n    tag_341:\n        /* \"#utility.yul\":9672:9674   */\n      0x20\n        /* \"#utility.yul\":9667:9670   */\n      dup3\n        /* \"#utility.yul\":9663:9675   */\n      add\n        /* \"#utility.yul\":9656:9675   */\n      swap1\n      pop\n        /* \"#utility.yul\":9315:9681   */\n      swap2\n      swap1\n      pop\n      jump\t// out\n        /* \"#utility.yul\":9687:10106   */\n    tag_99:\n        /* \"#utility.yul\":9853:9857   */\n      0x00\n        /* \"#utility.yul\":9891:9893   */\n      0x20\n        /* \"#utility.yul\":9880:9889   */\n      dup3\n        /* \"#utility.yul\":9876:9894   */\n      add\n        /* \"#utility.yul\":9868:9894   */\n      swap1\n      pop\n        /* \"#utility.yul\":9940:9949   */\n      dup2\n        /* \"#utility.yul\":9934:9938   */\n      dup2\n        /* \"#utility.yul\":9930:9950   */\n      sub\n        /* \"#utility.yul\":9926:9927   */\n      0x00\n        /* \"#utility.yul\":9915:9924   */\n      dup4\n        /* \"#utility.yul\":9911:9928   */\n      add\n        /* \"#utility.yul\":9904:9951   */\n      mstore\n        /* \"#utility.yul\":9968:10099   */\n      tag_343\n        /* \"#utility.yul\":10094:10098   */\n      dup2\n        /* \"#utility.yul\":9968:10099   */\n      tag_233\n      jump\t// in\n    tag_343:\n        /* \"#utility.yul\":9960:10099   */\n      swap1\n      pop\n        /* \"#utility.yul\":9687:10106   */\n      swap2\n      swap1\n      pop\n      jump\t// out\n        /* \"#utility.yul\":10112:10259   */\n    tag_234:\n        /* \"#utility.yul\":10213:10224   */\n      0x00\n        /* \"#utility.yul\":10250:10253   */\n      dup2\n        /* \"#utility.yul\":10235:10253   */\n      swap1\n      pop\n        /* \"#utility.yul\":10112:10259   */\n      swap3\n      swap2\n      pop\n      pop\n      jump\t// out\n        /* \"#utility.yul\":10265:10379   */\n    tag_235:\n      pop\n      jump\t// out\n        /* \"#utility.yul\":10385:10783   */\n    tag_236:\n        /* \"#utility.yul\":10544:10547   */\n      0x00\n        /* \"#utility.yul\":10565:10648   */\n      tag_347\n        /* \"#utility.yul\":10646:10647   */\n      0x00\n        /* \"#utility.yul\":10641:10644   */\n      dup4\n        /* \"#utility.yul\":10565:10648   */\n      tag_234\n      jump\t// in\n    tag_347:\n        /* \"#utility.yul\":10558:10648   */\n      swap2\n      pop\n        /* \"#utility.yul\":10657:10750   */\n      tag_348\n        /* \"#utility.yul\":10746:10749   */\n      dup3\n        /* \"#utility.yul\":10657:10750   */\n      tag_235\n      jump\t// in\n    tag_348:\n        /* \"#utility.yul\":10775:10776   */\n      0x00\n        /* \"#utility.yul\":10770:10773   */\n      dup3\n        /* \"#utility.yul\":10766:10777   */\n      add\n        /* \"#utility.yul\":10759:10777   */\n      swap1\n      pop\n        /* \"#utility.yul\":10385:10783   */\n      swap2\n      swap1\n      pop\n      jump\t// out\n        /* \"#utility.yul\":10789:11168   */\n    tag_102:\n        /* \"#utility.yul\":10973:10976   */\n      0x00\n        /* \"#utility.yul\":10995:11142   */\n      tag_350\n        /* \"#utility.yul\":11138:11141   */\n      dup3\n        /* \"#utility.yul\":10995:11142   */\n      tag_236\n      jump\t// in\n    tag_350:\n        /* \"#utility.yul\":10988:11142   */\n      swap2\n      pop\n        /* \"#utility.yul\":11159:11162   */\n      dup2\n        /* \"#utility.yul\":11152:11162   */\n      swap1\n      pop\n        /* \"#utility.yul\":10789:11168   */\n      swap2\n      swap1\n      pop\n      jump\t// out\n        /* \"#utility.yul\":11174:11351   */\n    tag_237:\n        /* \"#utility.yul\":11314:11343   */\n      0x4572726f722070726f63657373696e672074686520726566756e640000000000\n        /* \"#utility.yul\":11310:11311   */\n      0x00\n        /* \"#utility.yul\":11302:11308   */\n      dup3\n        /* \"#utility.yul\":11298:11312   */\n      add\n        /* \"#utility.yul\":11291:11344   */\n      mstore\n        /* \"#utility.yul\":11174:11351   */\n      pop\n      jump\t// out\n        /* \"#utility.yul\":11357:11723   */\n    tag_238:\n        /* \"#utility.yul\":11499:11502   */\n      0x00\n        /* \"#utility.yul\":11520:11587   */\n      tag_353\n        /* \"#utility.yul\":11584:11586   */\n      0x1b\n        /* \"#utility.yul\":11579:11582   */\n      dup4\n        /* \"#utility.yul\":11520:11587   */\n      tag_226\n      jump\t// in\n    tag_353:\n        /* \"#utility.yul\":11513:11587   */\n      swap2\n      pop\n        /* \"#utility.yul\":11596:11689   */\n      tag_354\n        /* \"#utility.yul\":11685:11688   */\n      dup3\n        /* \"#utility.yul\":11596:11689   */\n      tag_237\n      jump\t// in\n    tag_354:\n        /* \"#utility.yul\":11714:11716   */\n      0x20\n        /* \"#utility.yul\":11709:11712   */\n      dup3\n        /* \"#utility.yul\":11705:11717   */\n      add\n        /* \"#utility.yul\":11698:11717   */\n      swap1\n      pop\n        /* \"#utility.yul\":11357:11723   */\n      swap2\n      swap1\n      pop\n      jump\t// out\n        /* \"#utility.yul\":11729:12148   */\n    tag_108:\n        /* \"#utility.yul\":11895:11899   */\n      0x00\n        /* \"#utility.yul\":11933:11935   */\n      0x20\n        /* \"#utility.yul\":11922:11931   */\n      dup3\n        /* \"#utility.yul\":11918:11936   */\n      add\n        /* \"#utility.yul\":11910:11936   */\n      swap1\n      pop\n        /* \"#utility.yul\":11982:11991   */\n      dup2\n        /* \"#utility.yul\":11976:11980   */\n      dup2\n        /* \"#utility.yul\":11972:11992   */\n      sub\n        /* \"#utility.yul\":11968:11969   */\n      0x00\n        /* \"#utility.yul\":11957:11966   */\n      dup4\n        /* \"#utility.yul\":11953:11970   */\n      add\n        /* \"#utility.yul\":11946:11993   */\n      mstore\n        /* \"#utility.yul\":12010:12141   */\n      tag_356\n        /* \"#utility.yul\":12136:12140   */\n      dup2\n        /* \"#utility.yul\":12010:12141   */\n      tag_238\n      jump\t// in\n    tag_356:\n        /* \"#utility.yul\":12002:12141   */\n      swap1\n      pop\n        /* \"#utility.yul\":11729:12148   */\n      swap2\n      swap1\n      pop\n      jump\t// out\n        /* \"#utility.yul\":12154:12334   */\n    tag_112:\n        /* \"#utility.yul\":12202:12279   */\n      0x4e487b7100000000000000000000000000000000000000000000000000000000\n        /* \"#utility.yul\":12199:12200   */\n      0x00\n        /* \"#utility.yul\":12192:12280   */\n      mstore\n        /* \"#utility.yul\":12299:12303   */\n      0x41\n        /* \"#utility.yul\":12296:12297   */\n      0x04\n        /* \"#utility.yul\":12289:12304   */\n      mstore\n        /* \"#utility.yul\":12323:12327   */\n      0x24\n        /* \"#utility.yul\":12320:12321   */\n      0x00\n        /* \"#utility.yul\":12313:12328   */\n      revert\n        /* \"#utility.yul\":12340:12520   */\n    tag_122:\n        /* \"#utility.yul\":12388:12465   */\n      0x4e487b7100000000000000000000000000000000000000000000000000000000\n        /* \"#utility.yul\":12385:12386   */\n      0x00\n        /* \"#utility.yul\":12378:12466   */\n      mstore\n        /* \"#utility.yul\":12485:12489   */\n      0x32\n        /* \"#utility.yul\":12482:12483   */\n      0x04\n        /* \"#utility.yul\":12475:12490   */\n      mstore\n        /* \"#utility.yul\":12509:12513   */\n      0x24\n        /* \"#utility.yul\":12506:12507   */\n      0x00\n        /* \"#utility.yul\":12499:12514   */\n      revert\n        /* \"#utility.yul\":12526:12705   */\n    tag_239:\n        /* \"#utility.yul\":12666:12697   */\n      0x5468652061756374696f6e20686173206e6f742079657420656e646564000000\n        /* \"#utility.yul\":12662:12663   */\n      0x00\n        /* \"#utility.yul\":12654:12660   */\n      dup3\n        /* \"#utility.yul\":12650:12664   */\n      add\n        /* \"#utility.yul\":12643:12698   */\n      mstore\n        /* \"#utility.yul\":12526:12705   */\n      pop\n      jump\t// out\n        /* \"#utility.yul\":12711:13077   */\n    tag_240:\n        /* \"#utility.yul\":12853:12856   */\n      0x00\n        /* \"#utility.yul\":12874:12941   */\n      tag_361\n        /* \"#utility.yul\":12938:12940   */\n      0x1d\n        /* \"#utility.yul\":12933:12936   */\n      dup4\n        /* \"#utility.yul\":12874:12941   */\n      tag_226\n      jump\t// in\n    tag_361:\n        /* \"#utility.yul\":12867:12941   */\n      swap2\n      pop\n        /* \"#utility.yul\":12950:13043   */\n      tag_362\n        /* \"#utility.yul\":13039:13042   */\n      dup3\n        /* \"#utility.yul\":12950:13043   */\n      tag_239\n      jump\t// in\n    tag_362:\n        /* \"#utility.yul\":13068:13070   */\n      0x20\n        /* \"#utility.yul\":13063:13066   */\n      dup3\n        /* \"#utility.yul\":13059:13071   */\n      add\n        /* \"#utility.yul\":13052:13071   */\n      swap1\n      pop\n        /* \"#utility.yul\":12711:13077   */\n      swap2\n      swap1\n      pop\n      jump\t// out\n        /* \"#utility.yul\":13083:13502   */\n    tag_136:\n        /* \"#utility.yul\":13249:13253   */\n      0x00\n        /* \"#utility.yul\":13287:13289   */\n      0x20\n        /* \"#utility.yul\":13276:13285   */\n      dup3\n        /* \"#utility.yul\":13272:13290   */\n      add\n        /* \"#utility.yul\":13264:13290   */\n      swap1\n      pop\n        /* \"#utility.yul\":13336:13345   */\n      dup2\n        /* \"#utility.yul\":13330:13334   */\n      dup2\n        /* \"#utility.yul\":13326:13346   */\n      sub\n        /* \"#utility.yul\":13322:13323   */\n      0x00\n        /* \"#utility.yul\":13311:13320   */\n      dup4\n        /* \"#utility.yul\":13307:13324   */\n      add\n        /* \"#utility.yul\":13300:13347   */\n      mstore\n        /* \"#utility.yul\":13364:13495   */\n      tag_364\n        /* \"#utility.yul\":13490:13494   */\n      dup2\n        /* \"#utility.yul\":13364:13495   */\n      tag_240\n      jump\t// in\n    tag_364:\n        /* \"#utility.yul\":13356:13495   */\n      swap1\n      pop\n        /* \"#utility.yul\":13083:13502   */\n      swap2\n      swap1\n      pop\n      jump\t// out\n        /* \"#utility.yul\":13508:13743   */\n    tag_241:\n        /* \"#utility.yul\":13648:13682   */\n      0x4f6e6c79207468652061756374696f6e206f776e65722063616e206578656375\n        /* \"#utility.yul\":13644:13645   */\n      0x00\n        /* \"#utility.yul\":13636:13642   */\n      dup3\n        /* \"#utility.yul\":13632:13646   */\n      add\n        /* \"#utility.yul\":13625:13683   */\n      mstore\n        /* \"#utility.yul\":13717:13735   */\n      0x746520746869732066756e6374696f6e00000000000000000000000000000000\n        /* \"#utility.yul\":13712:13714   */\n      0x20\n        /* \"#utility.yul\":13704:13710   */\n      dup3\n        /* \"#utility.yul\":13700:13715   */\n      add\n        /* \"#utility.yul\":13693:13736   */\n      mstore\n        /* \"#utility.yul\":13508:13743   */\n      pop\n      jump\t// out\n        /* \"#utility.yul\":13749:14115   */\n    tag_242:\n        /* \"#utility.yul\":13891:13894   */\n      0x00\n        /* \"#utility.yul\":13912:13979   */\n      tag_367\n        /* \"#utility.yul\":13976:13978   */\n      0x30\n        /* \"#utility.yul\":13971:13974   */\n      dup4\n        /* \"#utility.yul\":13912:13979   */\n      tag_226\n      jump\t// in\n    tag_367:\n        /* \"#utility.yul\":13905:13979   */\n      swap2\n      pop\n        /* \"#utility.yul\":13988:14081   */\n      tag_368\n        /* \"#utility.yul\":14077:14080   */\n      dup3\n        /* \"#utility.yul\":13988:14081   */\n      tag_241\n      jump\t// in\n    tag_368:\n        /* \"#utility.yul\":14106:14108   */\n      0x40\n        /* \"#utility.yul\":14101:14104   */\n      dup3\n        /* \"#utility.yul\":14097:14109   */\n      add\n        /* \"#utility.yul\":14090:14109   */\n      swap1\n      pop\n        /* \"#utility.yul\":13749:14115   */\n      swap2\n      swap1\n      pop\n      jump\t// out\n        /* \"#utility.yul\":14121:14540   */\n    tag_141:\n        /* \"#utility.yul\":14287:14291   */\n      0x00\n        /* \"#utility.yul\":14325:14327   */\n      0x20\n        /* \"#utility.yul\":14314:14323   */\n      dup3\n        /* \"#utility.yul\":14310:14328   */\n      add\n        /* \"#utility.yul\":14302:14328   */\n      swap1\n      pop\n        /* \"#utility.yul\":14374:14383   */\n      dup2\n        /* \"#utility.yul\":14368:14372   */\n      dup2\n        /* \"#utility.yul\":14364:14384   */\n      sub\n        /* \"#utility.yul\":14360:14361   */\n      0x00\n        /* \"#utility.yul\":14349:14358   */\n      dup4\n        /* \"#utility.yul\":14345:14362   */\n      add\n        /* \"#utility.yul\":14338:14385   */\n      mstore\n        /* \"#utility.yul\":14402:14533   */\n      tag_370\n        /* \"#utility.yul\":14528:14532   */\n      dup2\n        /* \"#utility.yul\":14402:14533   */\n      tag_242\n      jump\t// in\n    tag_370:\n        /* \"#utility.yul\":14394:14533   */\n      swap1\n      pop\n        /* \"#utility.yul\":14121:14540   */\n      swap2\n      swap1\n      pop\n      jump\t// out\n        /* \"#utility.yul\":14546:14716   */\n    tag_243:\n        /* \"#utility.yul\":14686:14708   */\n      0x5468652061756374696f6e206d75737420656e64000000000000000000000000\n        /* \"#utility.yul\":14682:14683   */\n      0x00\n        /* \"#utility.yul\":14674:14680   */\n      dup3\n        /* \"#utility.yul\":14670:14684   */\n      add\n        /* \"#utility.yul\":14663:14709   */\n      mstore\n        /* \"#utility.yul\":14546:14716   */\n      pop\n      jump\t// out\n        /* \"#utility.yul\":14722:15088   */\n    tag_244:\n        /* \"#utility.yul\":14864:14867   */\n      0x00\n        /* \"#utility.yul\":14885:14952   */\n      tag_373\n        /* \"#utility.yul\":14949:14951   */\n      0x14\n        /* \"#utility.yul\":14944:14947   */\n      dup4\n        /* \"#utility.yul\":14885:14952   */\n      tag_226\n      jump\t// in\n    tag_373:\n        /* \"#utility.yul\":14878:14952   */\n      swap2\n      pop\n        /* \"#utility.yul\":14961:15054   */\n      tag_374\n        /* \"#utility.yul\":15050:15053   */\n      dup3\n        /* \"#utility.yul\":14961:15054   */\n      tag_243\n      jump\t// in\n    tag_374:\n        /* \"#utility.yul\":15079:15081   */\n      0x20\n        /* \"#utility.yul\":15074:15077   */\n      dup3\n        /* \"#utility.yul\":15070:15082   */\n      add\n        /* \"#utility.yul\":15063:15082   */\n      swap1\n      pop\n        /* \"#utility.yul\":14722:15088   */\n      swap2\n      swap1\n      pop\n      jump\t// out\n        /* \"#utility.yul\":15094:15513   */\n    tag_145:\n        /* \"#utility.yul\":15260:15264   */\n      0x00\n        /* \"#utility.yul\":15298:15300   */\n      0x20\n        /* \"#utility.yul\":15287:15296   */\n      dup3\n        /* \"#utility.yul\":15283:15301   */\n      add\n        /* \"#utility.yul\":15275:15301   */\n      swap1\n      pop\n        /* \"#utility.yul\":15347:15356   */\n      dup2\n        /* \"#utility.yul\":15341:15345   */\n      dup2\n        /* \"#utility.yul\":15337:15357   */\n      sub\n        /* \"#utility.yul\":15333:15334   */\n      0x00\n        /* \"#utility.yul\":15322:15331   */\n      dup4\n        /* \"#utility.yul\":15318:15335   */\n      add\n        /* \"#utility.yul\":15311:15358   */\n      mstore\n        /* \"#utility.yul\":15375:15506   */\n      tag_376\n        /* \"#utility.yul\":15501:15505   */\n      dup2\n        /* \"#utility.yul\":15375:15506   */\n      tag_244\n      jump\t// in\n    tag_376:\n        /* \"#utility.yul\":15367:15506   */\n      swap1\n      pop\n        /* \"#utility.yul\":15094:15513   */\n      swap2\n      swap1\n      pop\n      jump\t// out\n        /* \"#utility.yul\":15519:15929   */\n    tag_157:\n        /* \"#utility.yul\":15559:15566   */\n      0x00\n        /* \"#utility.yul\":15582:15602   */\n      tag_378\n        /* \"#utility.yul\":15600:15601   */\n      dup3\n        /* \"#utility.yul\":15582:15602   */\n      tag_205\n      jump\t// in\n    tag_378:\n        /* \"#utility.yul\":15577:15602   */\n      swap2\n      pop\n        /* \"#utility.yul\":15616:15636   */\n      tag_379\n        /* \"#utility.yul\":15634:15635   */\n      dup4\n        /* \"#utility.yul\":15616:15636   */\n      tag_205\n      jump\t// in\n    tag_379:\n        /* \"#utility.yul\":15611:15636   */\n      swap3\n      pop\n        /* \"#utility.yul\":15671:15672   */\n      dup3\n        /* \"#utility.yul\":15668:15669   */\n      dup3\n        /* \"#utility.yul\":15664:15673   */\n      mul\n        /* \"#utility.yul\":15693:15723   */\n      tag_380\n        /* \"#utility.yul\":15711:15722   */\n      dup2\n        /* \"#utility.yul\":15693:15723   */\n      tag_205\n      jump\t// in\n    tag_380:\n        /* \"#utility.yul\":15682:15723   */\n      swap2\n      pop\n        /* \"#utility.yul\":15872:15873   */\n      dup3\n        /* \"#utility.yul\":15863:15870   */\n      dup3\n        /* \"#utility.yul\":15859:15874   */\n      div\n        /* \"#utility.yul\":15856:15857   */\n      dup5\n        /* \"#utility.yul\":15853:15875   */\n      eq\n        /* \"#utility.yul\":15833:15834   */\n      dup4\n        /* \"#utility.yul\":15826:15835   */\n      iszero\n        /* \"#utility.yul\":15806:15889   */\n      or\n        /* \"#utility.yul\":15783:15922   */\n      tag_381\n      jumpi\n        /* \"#utility.yul\":15902:15920   */\n      tag_382\n      tag_231\n      jump\t// in\n    tag_382:\n        /* \"#utility.yul\":15783:15922   */\n    tag_381:\n        /* \"#utility.yul\":15567:15929   */\n      pop\n        /* \"#utility.yul\":15519:15929   */\n      swap3\n      swap2\n      pop\n      pop\n      jump\t// out\n        /* \"#utility.yul\":15935:16115   */\n    tag_245:\n        /* \"#utility.yul\":15983:16060   */\n      0x4e487b7100000000000000000000000000000000000000000000000000000000\n        /* \"#utility.yul\":15980:15981   */\n      0x00\n        /* \"#utility.yul\":15973:16061   */\n      mstore\n        /* \"#utility.yul\":16080:16084   */\n      0x12\n        /* \"#utility.yul\":16077:16078   */\n      0x04\n        /* \"#utility.yul\":16070:16085   */\n      mstore\n        /* \"#utility.yul\":16104:16108   */\n      0x24\n        /* \"#utility.yul\":16101:16102   */\n      0x00\n        /* \"#utility.yul\":16094:16109   */\n      revert\n        /* \"#utility.yul\":16121:16306   */\n    tag_159:\n        /* \"#utility.yul\":16161:16162   */\n      0x00\n        /* \"#utility.yul\":16178:16198   */\n      tag_385\n        /* \"#utility.yul\":16196:16197   */\n      dup3\n        /* \"#utility.yul\":16178:16198   */\n      tag_205\n      jump\t// in\n    tag_385:\n        /* \"#utility.yul\":16173:16198   */\n      swap2\n      pop\n        /* \"#utility.yul\":16212:16232   */\n      tag_386\n        /* \"#utility.yul\":16230:16231   */\n      dup4\n        /* \"#utility.yul\":16212:16232   */\n      tag_205\n      jump\t// in\n    tag_386:\n        /* \"#utility.yul\":16207:16232   */\n      swap3\n      pop\n        /* \"#utility.yul\":16251:16252   */\n      dup3\n        /* \"#utility.yul\":16241:16276   */\n      tag_387\n      jumpi\n        /* \"#utility.yul\":16256:16274   */\n      tag_388\n      tag_245\n      jump\t// in\n    tag_388:\n        /* \"#utility.yul\":16241:16276   */\n    tag_387:\n        /* \"#utility.yul\":16298:16299   */\n      dup3\n        /* \"#utility.yul\":16295:16296   */\n      dup3\n        /* \"#utility.yul\":16291:16300   */\n      div\n        /* \"#utility.yul\":16286:16300   */\n      swap1\n      pop\n        /* \"#utility.yul\":16121:16306   */\n      swap3\n      swap2\n      pop\n      pop\n      jump\t// out\n        /* \"#utility.yul\":16312:16534   */\n    tag_246:\n        /* \"#utility.yul\":16452:16486   */\n      0x4572726f722070726f63657373696e6720746865206465706f73697420726566\n        /* \"#utility.yul\":16448:16449   */\n      0x00\n        /* \"#utility.yul\":16440:16446   */\n      dup3\n        /* \"#utility.yul\":16436:16450   */\n      add\n        /* \"#utility.yul\":16429:16487   */\n      mstore\n        /* \"#utility.yul\":16521:16526   */\n      0x756e640000000000000000000000000000000000000000000000000000000000\n        /* \"#utility.yul\":16516:16518   */\n      0x20\n        /* \"#utility.yul\":16508:16514   */\n      dup3\n        /* \"#utility.yul\":16504:16519   */\n      add\n        /* \"#utility.yul\":16497:16527   */\n      mstore\n        /* \"#utility.yul\":16312:16534   */\n      pop\n      jump\t// out\n        /* \"#utility.yul\":16540:16906   */\n    tag_247:\n        /* \"#utility.yul\":16682:16685   */\n      0x00\n        /* \"#utility.yul\":16703:16770   */\n      tag_391\n        /* \"#utility.yul\":16767:16769   */\n      0x23\n        /* \"#utility.yul\":16762:16765   */\n      dup4\n        /* \"#utility.yul\":16703:16770   */\n      tag_226\n      jump\t// in\n    tag_391:\n        /* \"#utility.yul\":16696:16770   */\n      swap2\n      pop\n        /* \"#utility.yul\":16779:16872   */\n      tag_392\n        /* \"#utility.yul\":16868:16871   */\n      dup3\n        /* \"#utility.yul\":16779:16872   */\n      tag_246\n      jump\t// in\n    tag_392:\n        /* \"#utility.yul\":16897:16899   */\n      0x40\n        /* \"#utility.yul\":16892:16895   */\n      dup3\n        /* \"#utility.yul\":16888:16900   */\n      add\n        /* \"#utility.yul\":16881:16900   */\n      swap1\n      pop\n        /* \"#utility.yul\":16540:16906   */\n      swap2\n      swap1\n      pop\n      jump\t// out\n        /* \"#utility.yul\":16912:17331   */\n    tag_169:\n        /* \"#utility.yul\":17078:17082   */\n      0x00\n        /* \"#utility.yul\":17116:17118   */\n      0x20\n        /* \"#utility.yul\":17105:17114   */\n      dup3\n        /* \"#utility.yul\":17101:17119   */\n      add\n        /* \"#utility.yul\":17093:17119   */\n      swap1\n      pop\n        /* \"#utility.yul\":17165:17174   */\n      dup2\n        /* \"#utility.yul\":17159:17163   */\n      dup2\n        /* \"#utility.yul\":17155:17175   */\n      sub\n        /* \"#utility.yul\":17151:17152   */\n      0x00\n        /* \"#utility.yul\":17140:17149   */\n      dup4\n        /* \"#utility.yul\":17136:17153   */\n      add\n        /* \"#utility.yul\":17129:17176   */\n      mstore\n        /* \"#utility.yul\":17193:17324   */\n      tag_394\n        /* \"#utility.yul\":17319:17323   */\n      dup2\n        /* \"#utility.yul\":17193:17324   */\n      tag_247\n      jump\t// in\n    tag_394:\n        /* \"#utility.yul\":17185:17324   */\n      swap1\n      pop\n        /* \"#utility.yul\":16912:17331   */\n      swap2\n      swap1\n      pop\n      jump\t// out\n        /* \"#utility.yul\":17337:17558   */\n    tag_248:\n        /* \"#utility.yul\":17477:17511   */\n      0x4661696c656420746f207472616e73666572207072697a6520746f2077696e6e\n        /* \"#utility.yul\":17473:17474   */\n      0x00\n        /* \"#utility.yul\":17465:17471   */\n      dup3\n        /* \"#utility.yul\":17461:17475   */\n      add\n        /* \"#utility.yul\":17454:17512   */\n      mstore\n        /* \"#utility.yul\":17546:17550   */\n      0x6572000000000000000000000000000000000000000000000000000000000000\n        /* \"#utility.yul\":17541:17543   */\n      0x20\n        /* \"#utility.yul\":17533:17539   */\n      dup3\n        /* \"#utility.yul\":17529:17544   */\n      add\n        /* \"#utility.yul\":17522:17551   */\n      mstore\n        /* \"#utility.yul\":17337:17558   */\n      pop\n      jump\t// out\n        /* \"#utility.yul\":17564:17930   */\n    tag_249:\n        /* \"#utility.yul\":17706:17709   */\n      0x00\n        /* \"#utility.yul\":17727:17794   */\n      tag_397\n        /* \"#utility.yul\":17791:17793   */\n      0x22\n        /* \"#utility.yul\":17786:17789   */\n      dup4\n        /* \"#utility.yul\":17727:17794   */\n      tag_226\n      jump\t// in\n    tag_397:\n        /* \"#utility.yul\":17720:17794   */\n      swap2\n      pop\n        /* \"#utility.yul\":17803:17896   */\n      tag_398\n        /* \"#utility.yul\":17892:17895   */\n      dup3\n        /* \"#utility.yul\":17803:17896   */\n      tag_248\n      jump\t// in\n    tag_398:\n        /* \"#utility.yul\":17921:17923   */\n      0x40\n        /* \"#utility.yul\":17916:17919   */\n      dup3\n        /* \"#utility.yul\":17912:17924   */\n      add\n        /* \"#utility.yul\":17905:17924   */\n      swap1\n      pop\n        /* \"#utility.yul\":17564:17930   */\n      swap2\n      swap1\n      pop\n      jump\t// out\n        /* \"#utility.yul\":17936:18355   */\n    tag_183:\n        /* \"#utility.yul\":18102:18106   */\n      0x00\n        /* \"#utility.yul\":18140:18142   */\n      0x20\n        /* \"#utility.yul\":18129:18138   */\n      dup3\n        /* \"#utility.yul\":18125:18143   */\n      add\n        /* \"#utility.yul\":18117:18143   */\n      swap1\n      pop\n        /* \"#utility.yul\":18189:18198   */\n      dup2\n        /* \"#utility.yul\":18183:18187   */\n      dup2\n        /* \"#utility.yul\":18179:18199   */\n      sub\n        /* \"#utility.yul\":18175:18176   */\n      0x00\n        /* \"#utility.yul\":18164:18173   */\n      dup4\n        /* \"#utility.yul\":18160:18177   */\n      add\n        /* \"#utility.yul\":18153:18200   */\n      mstore\n        /* \"#utility.yul\":18217:18348   */\n      tag_400\n        /* \"#utility.yul\":18343:18347   */\n      dup2\n        /* \"#utility.yul\":18217:18348   */\n      tag_249\n      jump\t// in\n    tag_400:\n        /* \"#utility.yul\":18209:18348   */\n      swap1\n      pop\n        /* \"#utility.yul\":17936:18355   */\n      swap2\n      swap1\n      pop\n      jump\t// out\n        /* \"#utility.yul\":18361:18532   */\n    tag_250:\n        /* \"#utility.yul\":18501:18524   */\n      0x5468652061756374696f6e2068617320656e6465640000000000000000000000\n        /* \"#utility.yul\":18497:18498   */\n      0x00\n        /* \"#utility.yul\":18489:18495   */\n      dup3\n        /* \"#utility.yul\":18485:18499   */\n      add\n        /* \"#utility.yul\":18478:18525   */\n      mstore\n        /* \"#utility.yul\":18361:18532   */\n      pop\n      jump\t// out\n        /* \"#utility.yul\":18538:18904   */\n    tag_251:\n        /* \"#utility.yul\":18680:18683   */\n      0x00\n        /* \"#utility.yul\":18701:18768   */\n      tag_403\n        /* \"#utility.yul\":18765:18767   */\n      0x15\n        /* \"#utility.yul\":18760:18763   */\n      dup4\n        /* \"#utility.yul\":18701:18768   */\n      tag_226\n      jump\t// in\n    tag_403:\n        /* \"#utility.yul\":18694:18768   */\n      swap2\n      pop\n        /* \"#utility.yul\":18777:18870   */\n      tag_404\n        /* \"#utility.yul\":18866:18869   */\n      dup3\n        /* \"#utility.yul\":18777:18870   */\n      tag_250\n      jump\t// in\n    tag_404:\n        /* \"#utility.yul\":18895:18897   */\n      0x20\n        /* \"#utility.yul\":18890:18893   */\n      dup3\n        /* \"#utility.yul\":18886:18898   */\n      add\n        /* \"#utility.yul\":18879:18898   */\n      swap1\n      pop\n        /* \"#utility.yul\":18538:18904   */\n      swap2\n      swap1\n      pop\n      jump\t// out\n        /* \"#utility.yul\":18910:19329   */\n    tag_188:\n        /* \"#utility.yul\":19076:19080   */\n      0x00\n        /* \"#utility.yul\":19114:19116   */\n      0x20\n        /* \"#utility.yul\":19103:19112   */\n      dup3\n        /* \"#utility.yul\":19099:19117   */\n      add\n        /* \"#utility.yul\":19091:19117   */\n      swap1\n      pop\n        /* \"#utility.yul\":19163:19172   */\n      dup2\n        /* \"#utility.yul\":19157:19161   */\n      dup2\n        /* \"#utility.yul\":19153:19173   */\n      sub\n        /* \"#utility.yul\":19149:19150   */\n      0x00\n        /* \"#utility.yul\":19138:19147   */\n      dup4\n        /* \"#utility.yul\":19134:19151   */\n      add\n        /* \"#utility.yul\":19127:19174   */\n      mstore\n        /* \"#utility.yul\":19191:19322   */\n      tag_406\n        /* \"#utility.yul\":19317:19321   */\n      dup2\n        /* \"#utility.yul\":19191:19322   */\n      tag_251\n      jump\t// in\n    tag_406:\n        /* \"#utility.yul\":19183:19322   */\n      swap1\n      pop\n        /* \"#utility.yul\":18910:19329   */\n      swap2\n      swap1\n      pop\n      jump\t// out\n        /* \"#utility.yul\":19335:19526   */\n    tag_191:\n        /* \"#utility.yul\":19375:19378   */\n      0x00\n        /* \"#utility.yul\":19394:19414   */\n      tag_408\n        /* \"#utility.yul\":19412:19413   */\n      dup3\n        /* \"#utility.yul\":19394:19414   */\n      tag_205\n      jump\t// in\n    tag_408:\n        /* \"#utility.yul\":19389:19414   */\n      swap2\n      pop\n        /* \"#utility.yul\":19428:19448   */\n      tag_409\n        /* \"#utility.yul\":19446:19447   */\n      dup4\n        /* \"#utility.yul\":19428:19448   */\n      tag_205\n      jump\t// in\n    tag_409:\n        /* \"#utility.yul\":19423:19448   */\n      swap3\n      pop\n        /* \"#utility.yul\":19471:19472   */\n      dup3\n        /* \"#utility.yul\":19468:19469   */\n      dup3\n        /* \"#utility.yul\":19464:19473   */\n      add\n        /* \"#utility.yul\":19457:19473   */\n      swap1\n      pop\n        /* \"#utility.yul\":19492:19495   */\n      dup1\n        /* \"#utility.yul\":19489:19490   */\n      dup3\n        /* \"#utility.yul\":19486:19496   */\n      gt\n        /* \"#utility.yul\":19483:19519   */\n      iszero\n      tag_410\n      jumpi\n        /* \"#utility.yul\":19499:19517   */\n      tag_411\n      tag_231\n      jump\t// in\n    tag_411:\n        /* \"#utility.yul\":19483:19519   */\n    tag_410:\n        /* \"#utility.yul\":19335:19526   */\n      swap3\n      swap2\n      pop\n      pop\n      jump\t// out\n        /* \"#utility.yul\":19532:19833   */\n    tag_252:\n        /* \"#utility.yul\":19672:19706   */\n      0x54686520626964206d757374206f757462696420746865206265737420626964\n        /* \"#utility.yul\":19668:19669   */\n      0x00\n        /* \"#utility.yul\":19660:19666   */\n      dup3\n        /* \"#utility.yul\":19656:19670   */\n      add\n        /* \"#utility.yul\":19649:19707   */\n      mstore\n        /* \"#utility.yul\":19741:19775   */\n      0x2c20636f6e7369646572696e6720746865206d696e696d756d20696e63726561\n        /* \"#utility.yul\":19736:19738   */\n      0x20\n        /* \"#utility.yul\":19728:19734   */\n      dup3\n        /* \"#utility.yul\":19724:19739   */\n      add\n        /* \"#utility.yul\":19717:19776   */\n      mstore\n        /* \"#utility.yul\":19810:19825   */\n      0x73652070657263656e7461676500000000000000000000000000000000000000\n        /* \"#utility.yul\":19805:19807   */\n      0x40\n        /* \"#utility.yul\":19797:19803   */\n      dup3\n        /* \"#utility.yul\":19793:19808   */\n      add\n        /* \"#utility.yul\":19786:19826   */\n      mstore\n        /* \"#utility.yul\":19532:19833   */\n      pop\n      jump\t// out\n        /* \"#utility.yul\":19839:20205   */\n    tag_253:\n        /* \"#utility.yul\":19981:19984   */\n      0x00\n        /* \"#utility.yul\":20002:20069   */\n      tag_414\n        /* \"#utility.yul\":20066:20068   */\n      0x4d\n        /* \"#utility.yul\":20061:20064   */\n      dup4\n        /* \"#utility.yul\":20002:20069   */\n      tag_226\n      jump\t// in\n    tag_414:\n        /* \"#utility.yul\":19995:20069   */\n      swap2\n      pop\n        /* \"#utility.yul\":20078:20171   */\n      tag_415\n        /* \"#utility.yul\":20167:20170   */\n      dup3\n        /* \"#utility.yul\":20078:20171   */\n      tag_252\n      jump\t// in\n    tag_415:\n        /* \"#utility.yul\":20196:20198   */\n      0x60\n        /* \"#utility.yul\":20191:20194   */\n      dup3\n        /* \"#utility.yul\":20187:20199   */\n      add\n        /* \"#utility.yul\":20180:20199   */\n      swap1\n      pop\n        /* \"#utility.yul\":19839:20205   */\n      swap2\n      swap1\n      pop\n      jump\t// out\n        /* \"#utility.yul\":20211:20630   */\n    tag_196:\n        /* \"#utility.yul\":20377:20381   */\n      0x00\n        /* \"#utility.yul\":20415:20417   */\n      0x20\n        /* \"#utility.yul\":20404:20413   */\n      dup3\n        /* \"#utility.yul\":20400:20418   */\n      add\n        /* \"#utility.yul\":20392:20418   */\n      swap1\n      pop\n        /* \"#utility.yul\":20464:20473   */\n      dup2\n        /* \"#utility.yul\":20458:20462   */\n      dup2\n        /* \"#utility.yul\":20454:20474   */\n      sub\n        /* \"#utility.yul\":20450:20451   */\n      0x00\n        /* \"#utility.yul\":20439:20448   */\n      dup4\n        /* \"#utility.yul\":20435:20452   */\n      add\n        /* \"#utility.yul\":20428:20475   */\n      mstore\n        /* \"#utility.yul\":20492:20623   */\n      tag_417\n        /* \"#utility.yul\":20618:20622   */\n      dup2\n        /* \"#utility.yul\":20492:20623   */\n      tag_253\n      jump\t// in\n    tag_417:\n        /* \"#utility.yul\":20484:20623   */\n      swap1\n      pop\n        /* \"#utility.yul\":20211:20630   */\n      swap2\n      swap1\n      pop\n      jump\t// out\n\n    auxdata: 0xa2646970667358221220b181024c728590951aaccda6401ff6fec66f68ad3a962c10834587b0a62e145b64736f6c634300081a0033\n}\n",
				"bytecode": {
					"linkReferences": {},
					"object": "608060405234801561000f575f80fd5b506040516120fc3803806120fc83398181016040528101906100319190610121565b5f8311610073576040517f08c379a000000000000000000000000000000000000000000000000000000000815260040161006a906101f1565b60405180910390fd5b335f806101000a81548173ffffffffffffffffffffffffffffffffffffffff021916908373ffffffffffffffffffffffffffffffffffffffff16021790555082600281905550826003819055508160048190555080600581905550600554426100dc919061023c565b60068190555050505061026f565b5f80fd5b5f819050919050565b610100816100ee565b811461010a575f80fd5b50565b5f8151905061011b816100f7565b92915050565b5f805f60608486031215610138576101376100ea565b5b5f6101458682870161010d565b93505060206101568682870161010d565b92505060406101678682870161010d565b9150509250925092565b5f82825260208201905092915050565b7f54686520696e697469616c2076616c7565206d757374206265206772656174655f8201527f72207468616e207a65726f20666f722067617300000000000000000000000000602082015250565b5f6101db603383610171565b91506101e682610181565b604082019050919050565b5f6020820190508181035f830152610208816101cf565b9050919050565b7f4e487b71000000000000000000000000000000000000000000000000000000005f52601160045260245ffd5b5f610246826100ee565b9150610251836100ee565b92508282019050808211156102695761026861020f565b5b92915050565b611e808061027c5f395ff3fe6080604052600436106100f2575f3560e01c80638da5cb5b11610089578063d57bde7911610058578063d57bde79146102c1578063dfbf53ae146102eb578063f30e365814610315578063fcc8f7931461031f576100f2565b80638da5cb5b146102385780638e7ea5b214610262578063ac1adfd51461028d578063b3cc167a14610297576100f2565b80632fc36f11116100c55780632fc36f111461019057806338ed8c3f146101ba57806343d7d321146101e4578063702640a91461020e576100f2565b80630fb5a6b4146100f65780630fdb1c101461012057806314d2687c1461012a5780632fb3c48f14610154575b5f80fd5b348015610101575f80fd5b5061010a61035d565b6040516101179190611438565b60405180910390f35b610128610363565b005b348015610135575f80fd5b5061013e6106c4565b60405161014b9190611574565b60405180910390f35b34801561015f575f80fd5b5061017a600480360381019061017591906115c2565b610845565b60405161018791906115fc565b60405180910390f35b34801561019b575f80fd5b506101a4610880565b6040516101b19190611438565b60405180910390f35b3480156101c5575f80fd5b506101ce610886565b6040516101db9190611438565b60405180910390f35b3480156101ef575f80fd5b506101f861088f565b6040516102059190611438565b60405180910390f35b348015610219575f80fd5b50610222610895565b60405161022f9190611438565b60405180910390f35b348015610243575f80fd5b5061024c61089e565b60405161025991906115fc565b60405180910390f35b34801561026d575f80fd5b506102766108c1565b604051610284929190611615565b60405180910390f35b610295610935565b005b3480156102a2575f80fd5b506102ab610fa3565b6040516102b89190611438565b60405180910390f35b3480156102cc575f80fd5b506102d5610fa9565b6040516102e29190611438565b60405180910390f35b3480156102f6575f80fd5b506102ff610faf565b60405161030c91906115fc565b60405180910390f35b61031d610fd4565b005b34801561032a575f80fd5b5061034560048036038101906103409190611666565b6113ad565b60405161035493929190611691565b60405180910390f35b60055481565b60075f3373ffffffffffffffffffffffffffffffffffffffff1673ffffffffffffffffffffffffffffffffffffffff1681526020019081526020015f205f015f9054906101000a900473ffffffffffffffffffffffffffffffffffffffff1673ffffffffffffffffffffffffffffffffffffffff163373ffffffffffffffffffffffffffffffffffffffff161461042f576040517f08c379a000000000000000000000000000000000000000000000000000000000815260040161042690611746565b60405180910390fd5b60075f3373ffffffffffffffffffffffffffffffffffffffff1673ffffffffffffffffffffffffffffffffffffffff1681526020019081526020015f206001015460075f3373ffffffffffffffffffffffffffffffffffffffff1673ffffffffffffffffffffffffffffffffffffffff1681526020019081526020015f2060020154116104f1576040517f08c379a00000000000000000000000000000000000000000000000000000000081526004016104e8906117fa565b60405180910390fd5b5f60075f3373ffffffffffffffffffffffffffffffffffffffff1673ffffffffffffffffffffffffffffffffffffffff1681526020019081526020015f206001015460075f3373ffffffffffffffffffffffffffffffffffffffff1673ffffffffffffffffffffffffffffffffffffffff1681526020019081526020015f206002015461057e9190611845565b90505f81116105c2576040517f08c379a00000000000000000000000000000000000000000000000000000000081526004016105b9906118c2565b60405180910390fd5b8060075f3373ffffffffffffffffffffffffffffffffffffffff1673ffffffffffffffffffffffffffffffffffffffff1681526020019081526020015f206002015f8282546106119190611845565b925050819055505f3373ffffffffffffffffffffffffffffffffffffffff168260405161063d9061190d565b5f6040518083038185875af1925050503d805f8114610677576040519150601f19603f3d011682016040523d82523d5f602084013e61067c565b606091505b50509050806106c0576040517f08c379a00000000000000000000000000000000000000000000000000000000081526004016106b79061196b565b60405180910390fd5b5050565b60605f60088054905067ffffffffffffffff8111156106e6576106e5611989565b5b60405190808252806020026020018201604052801561071f57816020015b61070c6113f2565b8152602001906001900390816107045790505b5090505f5b60088054905081101561083d576040518060400160405280600883815481106107505761074f6119b6565b5b905f5260205f20015f9054906101000a900473ffffffffffffffffffffffffffffffffffffffff1673ffffffffffffffffffffffffffffffffffffffff16815260200160075f600885815481106107aa576107a96119b6565b5b905f5260205f20015f9054906101000a900473ffffffffffffffffffffffffffffffffffffffff1673ffffffffffffffffffffffffffffffffffffffff1673ffffffffffffffffffffffffffffffffffffffff1681526020019081526020015f2060010154815250828281518110610825576108246119b6565b5b60200260200101819052508080600101915050610724565b508091505090565b60088181548110610854575f80fd5b905f5260205f20015f915054906101000a900473ffffffffffffffffffffffffffffffffffffffff1681565b60025481565b5f600454905090565b60065481565b5f600354905090565b5f8054906101000a900473ffffffffffffffffffffffffffffffffffffffff1681565b5f80600654421015610908576040517f08c379a00000000000000000000000000000000000000000000000000000000081526004016108ff90611a2d565b60405180910390fd5b60015f9054906101000a900473ffffffffffffffffffffffffffffffffffffffff16600354915091509091565b5f8054906101000a900473ffffffffffffffffffffffffffffffffffffffff1673ffffffffffffffffffffffffffffffffffffffff163373ffffffffffffffffffffffffffffffffffffffff16146109c2576040517f08c379a00000000000000000000000000000000000000000000000000000000081526004016109b990611abb565b60405180910390fd5b600654421015610a07576040517f08c379a00000000000000000000000000000000000000000000000000000000081526004016109fe90611b23565b60405180910390fd5b5f60088054905090505f5b81811015610f2e5760015f9054906101000a900473ffffffffffffffffffffffffffffffffffffffff1673ffffffffffffffffffffffffffffffffffffffff1660075f60088481548110610a6957610a686119b6565b5b905f5260205f20015f9054906101000a900473ffffffffffffffffffffffffffffffffffffffff1673ffffffffffffffffffffffffffffffffffffffff1673ffffffffffffffffffffffffffffffffffffffff1681526020019081526020015f205f015f9054906101000a900473ffffffffffffffffffffffffffffffffffffffff1673ffffffffffffffffffffffffffffffffffffffff1614610d88575f6064606260075f60088681548110610b2357610b226119b6565b5b905f5260205f20015f9054906101000a900473ffffffffffffffffffffffffffffffffffffffff1673ffffffffffffffffffffffffffffffffffffffff1673ffffffffffffffffffffffffffffffffffffffff1681526020019081526020015f2060010154610b929190611b41565b610b9c9190611baf565b90505f60088381548110610bb357610bb26119b6565b5b905f5260205f20015f9054906101000a900473ffffffffffffffffffffffffffffffffffffffff1673ffffffffffffffffffffffffffffffffffffffff1682604051610bfe9061190d565b5f6040518083038185875af1925050503d805f8114610c38576040519150601f19603f3d011682016040523d82523d5f602084013e610c3d565b606091505b5050905080610c81576040517f08c379a0000000000000000000000000000000000000000000000000000000008152600401610c7890611c4f565b60405180910390fd5b5f60075f60088681548110610c9957610c986119b6565b5b905f5260205f20015f9054906101000a900473ffffffffffffffffffffffffffffffffffffffff1673ffffffffffffffffffffffffffffffffffffffff1673ffffffffffffffffffffffffffffffffffffffff1681526020019081526020015f20600101819055505f60075f60088681548110610d1957610d186119b6565b5b905f5260205f20015f9054906101000a900473ffffffffffffffffffffffffffffffffffffffff1673ffffffffffffffffffffffffffffffffffffffff1673ffffffffffffffffffffffffffffffffffffffff1681526020019081526020015f20600201819055505050610f21565b5f60015f9054906101000a900473ffffffffffffffffffffffffffffffffffffffff1673ffffffffffffffffffffffffffffffffffffffff16600354604051610dd09061190d565b5f6040518083038185875af1925050503d805f8114610e0a576040519150601f19603f3d011682016040523d82523d5f602084013e610e0f565b606091505b5050905080610e53576040517f08c379a0000000000000000000000000000000000000000000000000000000008152600401610e4a90611cdd565b60405180910390fd5b5f60075f60015f9054906101000a900473ffffffffffffffffffffffffffffffffffffffff1673ffffffffffffffffffffffffffffffffffffffff1673ffffffffffffffffffffffffffffffffffffffff1681526020019081526020015f20600101819055505f60075f60015f9054906101000a900473ffffffffffffffffffffffffffffffffffffffff1673ffffffffffffffffffffffffffffffffffffffff1673ffffffffffffffffffffffffffffffffffffffff1681526020019081526020015f2060020181905550505b8080600101915050610a12565b5060015f9054906101000a900473ffffffffffffffffffffffffffffffffffffffff1673ffffffffffffffffffffffffffffffffffffffff167f9c2270628a9b29d30ae96b6c4c14ed646ee134febdce38a5b77f2bde9cea2e20600354604051610f989190611438565b60405180910390a250565b60045481565b60035481565b60015f9054906101000a900473ffffffffffffffffffffffffffffffffffffffff1681565b6006544210611018576040517f08c379a000000000000000000000000000000000000000000000000000000000815260040161100f90611d45565b60405180910390fd5b5f3390505f3490506064806004546110309190611d63565b60035461103d9190611b41565b6110479190611baf565b8111611088576040517f08c379a000000000000000000000000000000000000000000000000000000000815260040161107f90611e2c565b60405180910390fd5b6102586006546110989190611845565b42106110b95761025860065f8282546110b19190611d63565b925050819055505b5f73ffffffffffffffffffffffffffffffffffffffff1660075f8473ffffffffffffffffffffffffffffffffffffffff1673ffffffffffffffffffffffffffffffffffffffff1681526020019081526020015f205f015f9054906101000a900473ffffffffffffffffffffffffffffffffffffffff1673ffffffffffffffffffffffffffffffffffffffff16146111ea578060075f8473ffffffffffffffffffffffffffffffffffffffff1673ffffffffffffffffffffffffffffffffffffffff1681526020019081526020015f20600101819055508060075f8473ffffffffffffffffffffffffffffffffffffffff1673ffffffffffffffffffffffffffffffffffffffff1681526020019081526020015f206002015f8282546111de9190611d63565b92505081905550611314565b600882908060018154018082558091505060019003905f5260205f20015f9091909190916101000a81548173ffffffffffffffffffffffffffffffffffffffff021916908373ffffffffffffffffffffffffffffffffffffffff16021790555060405180606001604052808373ffffffffffffffffffffffffffffffffffffffff1681526020018281526020018281525060075f8473ffffffffffffffffffffffffffffffffffffffff1673ffffffffffffffffffffffffffffffffffffffff1681526020019081526020015f205f820151815f015f6101000a81548173ffffffffffffffffffffffffffffffffffffffff021916908373ffffffffffffffffffffffffffffffffffffffff16021790555060208201518160010155604082015181600201559050505b8160015f6101000a81548173ffffffffffffffffffffffffffffffffffffffff021916908373ffffffffffffffffffffffffffffffffffffffff160217905550806003819055508173ffffffffffffffffffffffffffffffffffffffff167fdd0b6c6a77960e2066c96171b4d7ac9e8b4c184011f38544afa36a5bb63ec59f826040516113a19190611438565b60405180910390a25050565b6007602052805f5260405f205f91509050805f015f9054906101000a900473ffffffffffffffffffffffffffffffffffffffff16908060010154908060020154905083565b60405180604001604052805f73ffffffffffffffffffffffffffffffffffffffff1681526020015f81525090565b5f819050919050565b61143281611420565b82525050565b5f60208201905061144b5f830184611429565b92915050565b5f81519050919050565b5f82825260208201905092915050565b5f819050602082019050919050565b5f73ffffffffffffffffffffffffffffffffffffffff82169050919050565b5f6114a38261147a565b9050919050565b6114b381611499565b82525050565b6114c281611420565b82525050565b604082015f8201516114dc5f8501826114aa565b5060208201516114ef60208501826114b9565b50505050565b5f61150083836114c8565b60408301905092915050565b5f602082019050919050565b5f61152282611451565b61152c818561145b565b93506115378361146b565b805f5b8381101561156757815161154e88826114f5565b97506115598361150c565b92505060018101905061153a565b5085935050505092915050565b5f6020820190508181035f83015261158c8184611518565b905092915050565b5f80fd5b6115a181611420565b81146115ab575f80fd5b50565b5f813590506115bc81611598565b92915050565b5f602082840312156115d7576115d6611594565b5b5f6115e4848285016115ae565b91505092915050565b6115f681611499565b82525050565b5f60208201905061160f5f8301846115ed565b92915050565b5f6040820190506116285f8301856115ed565b6116356020830184611429565b9392505050565b61164581611499565b811461164f575f80fd5b50565b5f813590506116608161163c565b92915050565b5f6020828403121561167b5761167a611594565b5b5f61168884828501611652565b91505092915050565b5f6060820190506116a45f8301866115ed565b6116b16020830185611429565b6116be6040830184611429565b949350505050565b5f82825260208201905092915050565b7f4f6e6c79207468652062616c616e6365206f776e65722063616e20696e6974695f8201527f6174652074686520726566756e64000000000000000000000000000000000000602082015250565b5f611730602e836116c6565b915061173b826116d6565b604082019050919050565b5f6020820190508181035f83015261175d81611724565b9050919050565b7f4e6f20726566756e642077696c6c20626520616c6c6f77656420696620796f755f8201527f2068617665206e6f7420706c616365642061206269642061667465722074686560208201527f206c617374206f66666572000000000000000000000000000000000000000000604082015250565b5f6117e4604b836116c6565b91506117ef82611764565b606082019050919050565b5f6020820190508181035f830152611811816117d8565b9050919050565b7f4e487b71000000000000000000000000000000000000000000000000000000005f52601160045260245ffd5b5f61184f82611420565b915061185a83611420565b925082820390508181111561187257611871611818565b5b92915050565b7f4e6f2062616c616e636520617661696c61626c6520666f7220726566756e64005f82015250565b5f6118ac601f836116c6565b91506118b782611878565b602082019050919050565b5f6020820190508181035f8301526118d9816118a0565b9050919050565b5f81905092915050565b50565b5f6118f85f836118e0565b9150611903826118ea565b5f82019050919050565b5f611917826118ed565b9150819050919050565b7f4572726f722070726f63657373696e672074686520726566756e6400000000005f82015250565b5f611955601b836116c6565b915061196082611921565b602082019050919050565b5f6020820190508181035f83015261198281611949565b9050919050565b7f4e487b71000000000000000000000000000000000000000000000000000000005f52604160045260245ffd5b7f4e487b71000000000000000000000000000000000000000000000000000000005f52603260045260245ffd5b7f5468652061756374696f6e20686173206e6f742079657420656e6465640000005f82015250565b5f611a17601d836116c6565b9150611a22826119e3565b602082019050919050565b5f6020820190508181035f830152611a4481611a0b565b9050919050565b7f4f6e6c79207468652061756374696f6e206f776e65722063616e2065786563755f8201527f746520746869732066756e6374696f6e00000000000000000000000000000000602082015250565b5f611aa56030836116c6565b9150611ab082611a4b565b604082019050919050565b5f6020820190508181035f830152611ad281611a99565b9050919050565b7f5468652061756374696f6e206d75737420656e640000000000000000000000005f82015250565b5f611b0d6014836116c6565b9150611b1882611ad9565b602082019050919050565b5f6020820190508181035f830152611b3a81611b01565b9050919050565b5f611b4b82611420565b9150611b5683611420565b9250828202611b6481611420565b91508282048414831517611b7b57611b7a611818565b5b5092915050565b7f4e487b71000000000000000000000000000000000000000000000000000000005f52601260045260245ffd5b5f611bb982611420565b9150611bc483611420565b925082611bd457611bd3611b82565b5b828204905092915050565b7f4572726f722070726f63657373696e6720746865206465706f736974207265665f8201527f756e640000000000000000000000000000000000000000000000000000000000602082015250565b5f611c396023836116c6565b9150611c4482611bdf565b604082019050919050565b5f6020820190508181035f830152611c6681611c2d565b9050919050565b7f4661696c656420746f207472616e73666572207072697a6520746f2077696e6e5f8201527f6572000000000000000000000000000000000000000000000000000000000000602082015250565b5f611cc76022836116c6565b9150611cd282611c6d565b604082019050919050565b5f6020820190508181035f830152611cf481611cbb565b9050919050565b7f5468652061756374696f6e2068617320656e64656400000000000000000000005f82015250565b5f611d2f6015836116c6565b9150611d3a82611cfb565b602082019050919050565b5f6020820190508181035f830152611d5c81611d23565b9050919050565b5f611d6d82611420565b9150611d7883611420565b9250828201905080821115611d9057611d8f611818565b5b92915050565b7f54686520626964206d757374206f7574626964207468652062657374206269645f8201527f2c20636f6e7369646572696e6720746865206d696e696d756d20696e6372656160208201527f73652070657263656e7461676500000000000000000000000000000000000000604082015250565b5f611e16604d836116c6565b9150611e2182611d96565b606082019050919050565b5f6020820190508181035f830152611e4381611e0a565b905091905056fea2646970667358221220b181024c728590951aaccda6401ff6fec66f68ad3a962c10834587b0a62e145b64736f6c634300081a0033",
					"opcodes": "PUSH1 0x80 PUSH1 0x40 MSTORE CALLVALUE DUP1 ISZERO PUSH2 0xF JUMPI PUSH0 DUP1 REVERT JUMPDEST POP PUSH1 0x40 MLOAD PUSH2 0x20FC CODESIZE SUB DUP1 PUSH2 0x20FC DUP4 CODECOPY DUP2 DUP2 ADD PUSH1 0x40 MSTORE DUP2 ADD SWAP1 PUSH2 0x31 SWAP2 SWAP1 PUSH2 0x121 JUMP JUMPDEST PUSH0 DUP4 GT PUSH2 0x73 JUMPI PUSH1 0x40 MLOAD PUSH32 0x8C379A000000000000000000000000000000000000000000000000000000000 DUP2 MSTORE PUSH1 0x4 ADD PUSH2 0x6A SWAP1 PUSH2 0x1F1 JUMP JUMPDEST PUSH1 0x40 MLOAD DUP1 SWAP2 SUB SWAP1 REVERT JUMPDEST CALLER PUSH0 DUP1 PUSH2 0x100 EXP DUP2 SLOAD DUP2 PUSH20 0xFFFFFFFFFFFFFFFFFFFFFFFFFFFFFFFFFFFFFFFF MUL NOT AND SWAP1 DUP4 PUSH20 0xFFFFFFFFFFFFFFFFFFFFFFFFFFFFFFFFFFFFFFFF AND MUL OR SWAP1 SSTORE POP DUP3 PUSH1 0x2 DUP2 SWAP1 SSTORE POP DUP3 PUSH1 0x3 DUP2 SWAP1 SSTORE POP DUP2 PUSH1 0x4 DUP2 SWAP1 SSTORE POP DUP1 PUSH1 0x5 DUP2 SWAP1 SSTORE POP PUSH1 0x5 SLOAD TIMESTAMP PUSH2 0xDC SWAP2 SWAP1 PUSH2 0x23C JUMP JUMPDEST PUSH1 0x6 DUP2 SWAP1 SSTORE POP POP POP POP PUSH2 0x26F JUMP JUMPDEST PUSH0 DUP1 REVERT JUMPDEST PUSH0 DUP2 SWAP1 POP SWAP2 SWAP1 POP JUMP JUMPDEST PUSH2 0x100 DUP2 PUSH2 0xEE JUMP JUMPDEST DUP2 EQ PUSH2 0x10A JUMPI PUSH0 DUP1 REVERT JUMPDEST POP JUMP JUMPDEST PUSH0 DUP2 MLOAD SWAP1 POP PUSH2 0x11B DUP2 PUSH2 0xF7 JUMP JUMPDEST SWAP3 SWAP2 POP POP JUMP JUMPDEST PUSH0 DUP1 PUSH0 PUSH1 0x60 DUP5 DUP7 SUB SLT ISZERO PUSH2 0x138 JUMPI PUSH2 0x137 PUSH2 0xEA JUMP JUMPDEST JUMPDEST PUSH0 PUSH2 0x145 DUP7 DUP3 DUP8 ADD PUSH2 0x10D JUMP JUMPDEST SWAP4 POP POP PUSH1 0x20 PUSH2 0x156 DUP7 DUP3 DUP8 ADD PUSH2 0x10D JUMP JUMPDEST SWAP3 POP POP PUSH1 0x40 PUSH2 0x167 DUP7 DUP3 DUP8 ADD PUSH2 0x10D JUMP JUMPDEST SWAP2 POP POP SWAP3 POP SWAP3 POP SWAP3 JUMP JUMPDEST PUSH0 DUP3 DUP3 MSTORE PUSH1 0x20 DUP3 ADD SWAP1 POP SWAP3 SWAP2 POP POP JUMP JUMPDEST PUSH32 0x54686520696E697469616C2076616C7565206D75737420626520677265617465 PUSH0 DUP3 ADD MSTORE PUSH32 0x72207468616E207A65726F20666F722067617300000000000000000000000000 PUSH1 0x20 DUP3 ADD MSTORE POP JUMP JUMPDEST PUSH0 PUSH2 0x1DB PUSH1 0x33 DUP4 PUSH2 0x171 JUMP JUMPDEST SWAP2 POP PUSH2 0x1E6 DUP3 PUSH2 0x181 JUMP JUMPDEST PUSH1 0x40 DUP3 ADD SWAP1 POP SWAP2 SWAP1 POP JUMP JUMPDEST PUSH0 PUSH1 0x20 DUP3 ADD SWAP1 POP DUP2 DUP2 SUB PUSH0 DUP4 ADD MSTORE PUSH2 0x208 DUP2 PUSH2 0x1CF JUMP JUMPDEST SWAP1 POP SWAP2 SWAP1 POP JUMP JUMPDEST PUSH32 0x4E487B7100000000000000000000000000000000000000000000000000000000 PUSH0 MSTORE PUSH1 0x11 PUSH1 0x4 MSTORE PUSH1 0x24 PUSH0 REVERT JUMPDEST PUSH0 PUSH2 0x246 DUP3 PUSH2 0xEE JUMP JUMPDEST SWAP2 POP PUSH2 0x251 DUP4 PUSH2 0xEE JUMP JUMPDEST SWAP3 POP DUP3 DUP3 ADD SWAP1 POP DUP1 DUP3 GT ISZERO PUSH2 0x269 JUMPI PUSH2 0x268 PUSH2 0x20F JUMP JUMPDEST JUMPDEST SWAP3 SWAP2 POP POP JUMP JUMPDEST PUSH2 0x1E80 DUP1 PUSH2 0x27C PUSH0 CODECOPY PUSH0 RETURN INVALID PUSH1 0x80 PUSH1 0x40 MSTORE PUSH1 0x4 CALLDATASIZE LT PUSH2 0xF2 JUMPI PUSH0 CALLDATALOAD PUSH1 0xE0 SHR DUP1 PUSH4 0x8DA5CB5B GT PUSH2 0x89 JUMPI DUP1 PUSH4 0xD57BDE79 GT PUSH2 0x58 JUMPI DUP1 PUSH4 0xD57BDE79 EQ PUSH2 0x2C1 JUMPI DUP1 PUSH4 0xDFBF53AE EQ PUSH2 0x2EB JUMPI DUP1 PUSH4 0xF30E3658 EQ PUSH2 0x315 JUMPI DUP1 PUSH4 0xFCC8F793 EQ PUSH2 0x31F JUMPI PUSH2 0xF2 JUMP JUMPDEST DUP1 PUSH4 0x8DA5CB5B EQ PUSH2 0x238 JUMPI DUP1 PUSH4 0x8E7EA5B2 EQ PUSH2 0x262 JUMPI DUP1 PUSH4 0xAC1ADFD5 EQ PUSH2 0x28D JUMPI DUP1 PUSH4 0xB3CC167A EQ PUSH2 0x297 JUMPI PUSH2 0xF2 JUMP JUMPDEST DUP1 PUSH4 0x2FC36F11 GT PUSH2 0xC5 JUMPI DUP1 PUSH4 0x2FC36F11 EQ PUSH2 0x190 JUMPI DUP1 PUSH4 0x38ED8C3F EQ PUSH2 0x1BA JUMPI DUP1 PUSH4 0x43D7D321 EQ PUSH2 0x1E4 JUMPI DUP1 PUSH4 0x702640A9 EQ PUSH2 0x20E JUMPI PUSH2 0xF2 JUMP JUMPDEST DUP1 PUSH4 0xFB5A6B4 EQ PUSH2 0xF6 JUMPI DUP1 PUSH4 0xFDB1C10 EQ PUSH2 0x120 JUMPI DUP1 PUSH4 0x14D2687C EQ PUSH2 0x12A JUMPI DUP1 PUSH4 0x2FB3C48F EQ PUSH2 0x154 JUMPI JUMPDEST PUSH0 DUP1 REVERT JUMPDEST CALLVALUE DUP1 ISZERO PUSH2 0x101 JUMPI PUSH0 DUP1 REVERT JUMPDEST POP PUSH2 0x10A PUSH2 0x35D JUMP JUMPDEST PUSH1 0x40 MLOAD PUSH2 0x117 SWAP2 SWAP1 PUSH2 0x1438 JUMP JUMPDEST PUSH1 0x40 MLOAD DUP1 SWAP2 SUB SWAP1 RETURN JUMPDEST PUSH2 0x128 PUSH2 0x363 JUMP JUMPDEST STOP JUMPDEST CALLVALUE DUP1 ISZERO PUSH2 0x135 JUMPI PUSH0 DUP1 REVERT JUMPDEST POP PUSH2 0x13E PUSH2 0x6C4 JUMP JUMPDEST PUSH1 0x40 MLOAD PUSH2 0x14B SWAP2 SWAP1 PUSH2 0x1574 JUMP JUMPDEST PUSH1 0x40 MLOAD DUP1 SWAP2 SUB SWAP1 RETURN JUMPDEST CALLVALUE DUP1 ISZERO PUSH2 0x15F JUMPI PUSH0 DUP1 REVERT JUMPDEST POP PUSH2 0x17A PUSH1 0x4 DUP1 CALLDATASIZE SUB DUP2 ADD SWAP1 PUSH2 0x175 SWAP2 SWAP1 PUSH2 0x15C2 JUMP JUMPDEST PUSH2 0x845 JUMP JUMPDEST PUSH1 0x40 MLOAD PUSH2 0x187 SWAP2 SWAP1 PUSH2 0x15FC JUMP JUMPDEST PUSH1 0x40 MLOAD DUP1 SWAP2 SUB SWAP1 RETURN JUMPDEST CALLVALUE DUP1 ISZERO PUSH2 0x19B JUMPI PUSH0 DUP1 REVERT JUMPDEST POP PUSH2 0x1A4 PUSH2 0x880 JUMP JUMPDEST PUSH1 0x40 MLOAD PUSH2 0x1B1 SWAP2 SWAP1 PUSH2 0x1438 JUMP JUMPDEST PUSH1 0x40 MLOAD DUP1 SWAP2 SUB SWAP1 RETURN JUMPDEST CALLVALUE DUP1 ISZERO PUSH2 0x1C5 JUMPI PUSH0 DUP1 REVERT JUMPDEST POP PUSH2 0x1CE PUSH2 0x886 JUMP JUMPDEST PUSH1 0x40 MLOAD PUSH2 0x1DB SWAP2 SWAP1 PUSH2 0x1438 JUMP JUMPDEST PUSH1 0x40 MLOAD DUP1 SWAP2 SUB SWAP1 RETURN JUMPDEST CALLVALUE DUP1 ISZERO PUSH2 0x1EF JUMPI PUSH0 DUP1 REVERT JUMPDEST POP PUSH2 0x1F8 PUSH2 0x88F JUMP JUMPDEST PUSH1 0x40 MLOAD PUSH2 0x205 SWAP2 SWAP1 PUSH2 0x1438 JUMP JUMPDEST PUSH1 0x40 MLOAD DUP1 SWAP2 SUB SWAP1 RETURN JUMPDEST CALLVALUE DUP1 ISZERO PUSH2 0x219 JUMPI PUSH0 DUP1 REVERT JUMPDEST POP PUSH2 0x222 PUSH2 0x895 JUMP JUMPDEST PUSH1 0x40 MLOAD PUSH2 0x22F SWAP2 SWAP1 PUSH2 0x1438 JUMP JUMPDEST PUSH1 0x40 MLOAD DUP1 SWAP2 SUB SWAP1 RETURN JUMPDEST CALLVALUE DUP1 ISZERO PUSH2 0x243 JUMPI PUSH0 DUP1 REVERT JUMPDEST POP PUSH2 0x24C PUSH2 0x89E JUMP JUMPDEST PUSH1 0x40 MLOAD PUSH2 0x259 SWAP2 SWAP1 PUSH2 0x15FC JUMP JUMPDEST PUSH1 0x40 MLOAD DUP1 SWAP2 SUB SWAP1 RETURN JUMPDEST CALLVALUE DUP1 ISZERO PUSH2 0x26D JUMPI PUSH0 DUP1 REVERT JUMPDEST POP PUSH2 0x276 PUSH2 0x8C1 JUMP JUMPDEST PUSH1 0x40 MLOAD PUSH2 0x284 SWAP3 SWAP2 SWAP1 PUSH2 0x1615 JUMP JUMPDEST PUSH1 0x40 MLOAD DUP1 SWAP2 SUB SWAP1 RETURN JUMPDEST PUSH2 0x295 PUSH2 0x935 JUMP JUMPDEST STOP JUMPDEST CALLVALUE DUP1 ISZERO PUSH2 0x2A2 JUMPI PUSH0 DUP1 REVERT JUMPDEST POP PUSH2 0x2AB PUSH2 0xFA3 JUMP JUMPDEST PUSH1 0x40 MLOAD PUSH2 0x2B8 SWAP2 SWAP1 PUSH2 0x1438 JUMP JUMPDEST PUSH1 0x40 MLOAD DUP1 SWAP2 SUB SWAP1 RETURN JUMPDEST CALLVALUE DUP1 ISZERO PUSH2 0x2CC JUMPI PUSH0 DUP1 REVERT JUMPDEST POP PUSH2 0x2D5 PUSH2 0xFA9 JUMP JUMPDEST PUSH1 0x40 MLOAD PUSH2 0x2E2 SWAP2 SWAP1 PUSH2 0x1438 JUMP JUMPDEST PUSH1 0x40 MLOAD DUP1 SWAP2 SUB SWAP1 RETURN JUMPDEST CALLVALUE DUP1 ISZERO PUSH2 0x2F6 JUMPI PUSH0 DUP1 REVERT JUMPDEST POP PUSH2 0x2FF PUSH2 0xFAF JUMP JUMPDEST PUSH1 0x40 MLOAD PUSH2 0x30C SWAP2 SWAP1 PUSH2 0x15FC JUMP JUMPDEST PUSH1 0x40 MLOAD DUP1 SWAP2 SUB SWAP1 RETURN JUMPDEST PUSH2 0x31D PUSH2 0xFD4 JUMP JUMPDEST STOP JUMPDEST CALLVALUE DUP1 ISZERO PUSH2 0x32A JUMPI PUSH0 DUP1 REVERT JUMPDEST POP PUSH2 0x345 PUSH1 0x4 DUP1 CALLDATASIZE SUB DUP2 ADD SWAP1 PUSH2 0x340 SWAP2 SWAP1 PUSH2 0x1666 JUMP JUMPDEST PUSH2 0x13AD JUMP JUMPDEST PUSH1 0x40 MLOAD PUSH2 0x354 SWAP4 SWAP3 SWAP2 SWAP1 PUSH2 0x1691 JUMP JUMPDEST PUSH1 0x40 MLOAD DUP1 SWAP2 SUB SWAP1 RETURN JUMPDEST PUSH1 0x5 SLOAD DUP2 JUMP JUMPDEST PUSH1 0x7 PUSH0 CALLER PUSH20 0xFFFFFFFFFFFFFFFFFFFFFFFFFFFFFFFFFFFFFFFF AND PUSH20 0xFFFFFFFFFFFFFFFFFFFFFFFFFFFFFFFFFFFFFFFF AND DUP2 MSTORE PUSH1 0x20 ADD SWAP1 DUP2 MSTORE PUSH1 0x20 ADD PUSH0 KECCAK256 PUSH0 ADD PUSH0 SWAP1 SLOAD SWAP1 PUSH2 0x100 EXP SWAP1 DIV PUSH20 0xFFFFFFFFFFFFFFFFFFFFFFFFFFFFFFFFFFFFFFFF AND PUSH20 0xFFFFFFFFFFFFFFFFFFFFFFFFFFFFFFFFFFFFFFFF AND CALLER PUSH20 0xFFFFFFFFFFFFFFFFFFFFFFFFFFFFFFFFFFFFFFFF AND EQ PUSH2 0x42F JUMPI PUSH1 0x40 MLOAD PUSH32 0x8C379A000000000000000000000000000000000000000000000000000000000 DUP2 MSTORE PUSH1 0x4 ADD PUSH2 0x426 SWAP1 PUSH2 0x1746 JUMP JUMPDEST PUSH1 0x40 MLOAD DUP1 SWAP2 SUB SWAP1 REVERT JUMPDEST PUSH1 0x7 PUSH0 CALLER PUSH20 0xFFFFFFFFFFFFFFFFFFFFFFFFFFFFFFFFFFFFFFFF AND PUSH20 0xFFFFFFFFFFFFFFFFFFFFFFFFFFFFFFFFFFFFFFFF AND DUP2 MSTORE PUSH1 0x20 ADD SWAP1 DUP2 MSTORE PUSH1 0x20 ADD PUSH0 KECCAK256 PUSH1 0x1 ADD SLOAD PUSH1 0x7 PUSH0 CALLER PUSH20 0xFFFFFFFFFFFFFFFFFFFFFFFFFFFFFFFFFFFFFFFF AND PUSH20 0xFFFFFFFFFFFFFFFFFFFFFFFFFFFFFFFFFFFFFFFF AND DUP2 MSTORE PUSH1 0x20 ADD SWAP1 DUP2 MSTORE PUSH1 0x20 ADD PUSH0 KECCAK256 PUSH1 0x2 ADD SLOAD GT PUSH2 0x4F1 JUMPI PUSH1 0x40 MLOAD PUSH32 0x8C379A000000000000000000000000000000000000000000000000000000000 DUP2 MSTORE PUSH1 0x4 ADD PUSH2 0x4E8 SWAP1 PUSH2 0x17FA JUMP JUMPDEST PUSH1 0x40 MLOAD DUP1 SWAP2 SUB SWAP1 REVERT JUMPDEST PUSH0 PUSH1 0x7 PUSH0 CALLER PUSH20 0xFFFFFFFFFFFFFFFFFFFFFFFFFFFFFFFFFFFFFFFF AND PUSH20 0xFFFFFFFFFFFFFFFFFFFFFFFFFFFFFFFFFFFFFFFF AND DUP2 MSTORE PUSH1 0x20 ADD SWAP1 DUP2 MSTORE PUSH1 0x20 ADD PUSH0 KECCAK256 PUSH1 0x1 ADD SLOAD PUSH1 0x7 PUSH0 CALLER PUSH20 0xFFFFFFFFFFFFFFFFFFFFFFFFFFFFFFFFFFFFFFFF AND PUSH20 0xFFFFFFFFFFFFFFFFFFFFFFFFFFFFFFFFFFFFFFFF AND DUP2 MSTORE PUSH1 0x20 ADD SWAP1 DUP2 MSTORE PUSH1 0x20 ADD PUSH0 KECCAK256 PUSH1 0x2 ADD SLOAD PUSH2 0x57E SWAP2 SWAP1 PUSH2 0x1845 JUMP JUMPDEST SWAP1 POP PUSH0 DUP2 GT PUSH2 0x5C2 JUMPI PUSH1 0x40 MLOAD PUSH32 0x8C379A000000000000000000000000000000000000000000000000000000000 DUP2 MSTORE PUSH1 0x4 ADD PUSH2 0x5B9 SWAP1 PUSH2 0x18C2 JUMP JUMPDEST PUSH1 0x40 MLOAD DUP1 SWAP2 SUB SWAP1 REVERT JUMPDEST DUP1 PUSH1 0x7 PUSH0 CALLER PUSH20 0xFFFFFFFFFFFFFFFFFFFFFFFFFFFFFFFFFFFFFFFF AND PUSH20 0xFFFFFFFFFFFFFFFFFFFFFFFFFFFFFFFFFFFFFFFF AND DUP2 MSTORE PUSH1 0x20 ADD SWAP1 DUP2 MSTORE PUSH1 0x20 ADD PUSH0 KECCAK256 PUSH1 0x2 ADD PUSH0 DUP3 DUP3 SLOAD PUSH2 0x611 SWAP2 SWAP1 PUSH2 0x1845 JUMP JUMPDEST SWAP3 POP POP DUP2 SWAP1 SSTORE POP PUSH0 CALLER PUSH20 0xFFFFFFFFFFFFFFFFFFFFFFFFFFFFFFFFFFFFFFFF AND DUP3 PUSH1 0x40 MLOAD PUSH2 0x63D SWAP1 PUSH2 0x190D JUMP JUMPDEST PUSH0 PUSH1 0x40 MLOAD DUP1 DUP4 SUB DUP2 DUP6 DUP8 GAS CALL SWAP3 POP POP POP RETURNDATASIZE DUP1 PUSH0 DUP2 EQ PUSH2 0x677 JUMPI PUSH1 0x40 MLOAD SWAP2 POP PUSH1 0x1F NOT PUSH1 0x3F RETURNDATASIZE ADD AND DUP3 ADD PUSH1 0x40 MSTORE RETURNDATASIZE DUP3 MSTORE RETURNDATASIZE PUSH0 PUSH1 0x20 DUP5 ADD RETURNDATACOPY PUSH2 0x67C JUMP JUMPDEST PUSH1 0x60 SWAP2 POP JUMPDEST POP POP SWAP1 POP DUP1 PUSH2 0x6C0 JUMPI PUSH1 0x40 MLOAD PUSH32 0x8C379A000000000000000000000000000000000000000000000000000000000 DUP2 MSTORE PUSH1 0x4 ADD PUSH2 0x6B7 SWAP1 PUSH2 0x196B JUMP JUMPDEST PUSH1 0x40 MLOAD DUP1 SWAP2 SUB SWAP1 REVERT JUMPDEST POP POP JUMP JUMPDEST PUSH1 0x60 PUSH0 PUSH1 0x8 DUP1 SLOAD SWAP1 POP PUSH8 0xFFFFFFFFFFFFFFFF DUP2 GT ISZERO PUSH2 0x6E6 JUMPI PUSH2 0x6E5 PUSH2 0x1989 JUMP JUMPDEST JUMPDEST PUSH1 0x40 MLOAD SWAP1 DUP1 DUP3 MSTORE DUP1 PUSH1 0x20 MUL PUSH1 0x20 ADD DUP3 ADD PUSH1 0x40 MSTORE DUP1 ISZERO PUSH2 0x71F JUMPI DUP2 PUSH1 0x20 ADD JUMPDEST PUSH2 0x70C PUSH2 0x13F2 JUMP JUMPDEST DUP2 MSTORE PUSH1 0x20 ADD SWAP1 PUSH1 0x1 SWAP1 SUB SWAP1 DUP2 PUSH2 0x704 JUMPI SWAP1 POP JUMPDEST POP SWAP1 POP PUSH0 JUMPDEST PUSH1 0x8 DUP1 SLOAD SWAP1 POP DUP2 LT ISZERO PUSH2 0x83D JUMPI PUSH1 0x40 MLOAD DUP1 PUSH1 0x40 ADD PUSH1 0x40 MSTORE DUP1 PUSH1 0x8 DUP4 DUP2 SLOAD DUP2 LT PUSH2 0x750 JUMPI PUSH2 0x74F PUSH2 0x19B6 JUMP JUMPDEST JUMPDEST SWAP1 PUSH0 MSTORE PUSH1 0x20 PUSH0 KECCAK256 ADD PUSH0 SWAP1 SLOAD SWAP1 PUSH2 0x100 EXP SWAP1 DIV PUSH20 0xFFFFFFFFFFFFFFFFFFFFFFFFFFFFFFFFFFFFFFFF AND PUSH20 0xFFFFFFFFFFFFFFFFFFFFFFFFFFFFFFFFFFFFFFFF AND DUP2 MSTORE PUSH1 0x20 ADD PUSH1 0x7 PUSH0 PUSH1 0x8 DUP6 DUP2 SLOAD DUP2 LT PUSH2 0x7AA JUMPI PUSH2 0x7A9 PUSH2 0x19B6 JUMP JUMPDEST JUMPDEST SWAP1 PUSH0 MSTORE PUSH1 0x20 PUSH0 KECCAK256 ADD PUSH0 SWAP1 SLOAD SWAP1 PUSH2 0x100 EXP SWAP1 DIV PUSH20 0xFFFFFFFFFFFFFFFFFFFFFFFFFFFFFFFFFFFFFFFF AND PUSH20 0xFFFFFFFFFFFFFFFFFFFFFFFFFFFFFFFFFFFFFFFF AND PUSH20 0xFFFFFFFFFFFFFFFFFFFFFFFFFFFFFFFFFFFFFFFF AND DUP2 MSTORE PUSH1 0x20 ADD SWAP1 DUP2 MSTORE PUSH1 0x20 ADD PUSH0 KECCAK256 PUSH1 0x1 ADD SLOAD DUP2 MSTORE POP DUP3 DUP3 DUP2 MLOAD DUP2 LT PUSH2 0x825 JUMPI PUSH2 0x824 PUSH2 0x19B6 JUMP JUMPDEST JUMPDEST PUSH1 0x20 MUL PUSH1 0x20 ADD ADD DUP2 SWAP1 MSTORE POP DUP1 DUP1 PUSH1 0x1 ADD SWAP2 POP POP PUSH2 0x724 JUMP JUMPDEST POP DUP1 SWAP2 POP POP SWAP1 JUMP JUMPDEST PUSH1 0x8 DUP2 DUP2 SLOAD DUP2 LT PUSH2 0x854 JUMPI PUSH0 DUP1 REVERT JUMPDEST SWAP1 PUSH0 MSTORE PUSH1 0x20 PUSH0 KECCAK256 ADD PUSH0 SWAP2 POP SLOAD SWAP1 PUSH2 0x100 EXP SWAP1 DIV PUSH20 0xFFFFFFFFFFFFFFFFFFFFFFFFFFFFFFFFFFFFFFFF AND DUP2 JUMP JUMPDEST PUSH1 0x2 SLOAD DUP2 JUMP JUMPDEST PUSH0 PUSH1 0x4 SLOAD SWAP1 POP SWAP1 JUMP JUMPDEST PUSH1 0x6 SLOAD DUP2 JUMP JUMPDEST PUSH0 PUSH1 0x3 SLOAD SWAP1 POP SWAP1 JUMP JUMPDEST PUSH0 DUP1 SLOAD SWAP1 PUSH2 0x100 EXP SWAP1 DIV PUSH20 0xFFFFFFFFFFFFFFFFFFFFFFFFFFFFFFFFFFFFFFFF AND DUP2 JUMP JUMPDEST PUSH0 DUP1 PUSH1 0x6 SLOAD TIMESTAMP LT ISZERO PUSH2 0x908 JUMPI PUSH1 0x40 MLOAD PUSH32 0x8C379A000000000000000000000000000000000000000000000000000000000 DUP2 MSTORE PUSH1 0x4 ADD PUSH2 0x8FF SWAP1 PUSH2 0x1A2D JUMP JUMPDEST PUSH1 0x40 MLOAD DUP1 SWAP2 SUB SWAP1 REVERT JUMPDEST PUSH1 0x1 PUSH0 SWAP1 SLOAD SWAP1 PUSH2 0x100 EXP SWAP1 DIV PUSH20 0xFFFFFFFFFFFFFFFFFFFFFFFFFFFFFFFFFFFFFFFF AND PUSH1 0x3 SLOAD SWAP2 POP SWAP2 POP SWAP1 SWAP2 JUMP JUMPDEST PUSH0 DUP1 SLOAD SWAP1 PUSH2 0x100 EXP SWAP1 DIV PUSH20 0xFFFFFFFFFFFFFFFFFFFFFFFFFFFFFFFFFFFFFFFF AND PUSH20 0xFFFFFFFFFFFFFFFFFFFFFFFFFFFFFFFFFFFFFFFF AND CALLER PUSH20 0xFFFFFFFFFFFFFFFFFFFFFFFFFFFFFFFFFFFFFFFF AND EQ PUSH2 0x9C2 JUMPI PUSH1 0x40 MLOAD PUSH32 0x8C379A000000000000000000000000000000000000000000000000000000000 DUP2 MSTORE PUSH1 0x4 ADD PUSH2 0x9B9 SWAP1 PUSH2 0x1ABB JUMP JUMPDEST PUSH1 0x40 MLOAD DUP1 SWAP2 SUB SWAP1 REVERT JUMPDEST PUSH1 0x6 SLOAD TIMESTAMP LT ISZERO PUSH2 0xA07 JUMPI PUSH1 0x40 MLOAD PUSH32 0x8C379A000000000000000000000000000000000000000000000000000000000 DUP2 MSTORE PUSH1 0x4 ADD PUSH2 0x9FE SWAP1 PUSH2 0x1B23 JUMP JUMPDEST PUSH1 0x40 MLOAD DUP1 SWAP2 SUB SWAP1 REVERT JUMPDEST PUSH0 PUSH1 0x8 DUP1 SLOAD SWAP1 POP SWAP1 POP PUSH0 JUMPDEST DUP2 DUP2 LT ISZERO PUSH2 0xF2E JUMPI PUSH1 0x1 PUSH0 SWAP1 SLOAD SWAP1 PUSH2 0x100 EXP SWAP1 DIV PUSH20 0xFFFFFFFFFFFFFFFFFFFFFFFFFFFFFFFFFFFFFFFF AND PUSH20 0xFFFFFFFFFFFFFFFFFFFFFFFFFFFFFFFFFFFFFFFF AND PUSH1 0x7 PUSH0 PUSH1 0x8 DUP5 DUP2 SLOAD DUP2 LT PUSH2 0xA69 JUMPI PUSH2 0xA68 PUSH2 0x19B6 JUMP JUMPDEST JUMPDEST SWAP1 PUSH0 MSTORE PUSH1 0x20 PUSH0 KECCAK256 ADD PUSH0 SWAP1 SLOAD SWAP1 PUSH2 0x100 EXP SWAP1 DIV PUSH20 0xFFFFFFFFFFFFFFFFFFFFFFFFFFFFFFFFFFFFFFFF AND PUSH20 0xFFFFFFFFFFFFFFFFFFFFFFFFFFFFFFFFFFFFFFFF AND PUSH20 0xFFFFFFFFFFFFFFFFFFFFFFFFFFFFFFFFFFFFFFFF AND DUP2 MSTORE PUSH1 0x20 ADD SWAP1 DUP2 MSTORE PUSH1 0x20 ADD PUSH0 KECCAK256 PUSH0 ADD PUSH0 SWAP1 SLOAD SWAP1 PUSH2 0x100 EXP SWAP1 DIV PUSH20 0xFFFFFFFFFFFFFFFFFFFFFFFFFFFFFFFFFFFFFFFF AND PUSH20 0xFFFFFFFFFFFFFFFFFFFFFFFFFFFFFFFFFFFFFFFF AND EQ PUSH2 0xD88 JUMPI PUSH0 PUSH1 0x64 PUSH1 0x62 PUSH1 0x7 PUSH0 PUSH1 0x8 DUP7 DUP2 SLOAD DUP2 LT PUSH2 0xB23 JUMPI PUSH2 0xB22 PUSH2 0x19B6 JUMP JUMPDEST JUMPDEST SWAP1 PUSH0 MSTORE PUSH1 0x20 PUSH0 KECCAK256 ADD PUSH0 SWAP1 SLOAD SWAP1 PUSH2 0x100 EXP SWAP1 DIV PUSH20 0xFFFFFFFFFFFFFFFFFFFFFFFFFFFFFFFFFFFFFFFF AND PUSH20 0xFFFFFFFFFFFFFFFFFFFFFFFFFFFFFFFFFFFFFFFF AND PUSH20 0xFFFFFFFFFFFFFFFFFFFFFFFFFFFFFFFFFFFFFFFF AND DUP2 MSTORE PUSH1 0x20 ADD SWAP1 DUP2 MSTORE PUSH1 0x20 ADD PUSH0 KECCAK256 PUSH1 0x1 ADD SLOAD PUSH2 0xB92 SWAP2 SWAP1 PUSH2 0x1B41 JUMP JUMPDEST PUSH2 0xB9C SWAP2 SWAP1 PUSH2 0x1BAF JUMP JUMPDEST SWAP1 POP PUSH0 PUSH1 0x8 DUP4 DUP2 SLOAD DUP2 LT PUSH2 0xBB3 JUMPI PUSH2 0xBB2 PUSH2 0x19B6 JUMP JUMPDEST JUMPDEST SWAP1 PUSH0 MSTORE PUSH1 0x20 PUSH0 KECCAK256 ADD PUSH0 SWAP1 SLOAD SWAP1 PUSH2 0x100 EXP SWAP1 DIV PUSH20 0xFFFFFFFFFFFFFFFFFFFFFFFFFFFFFFFFFFFFFFFF AND PUSH20 0xFFFFFFFFFFFFFFFFFFFFFFFFFFFFFFFFFFFFFFFF AND DUP3 PUSH1 0x40 MLOAD PUSH2 0xBFE SWAP1 PUSH2 0x190D JUMP JUMPDEST PUSH0 PUSH1 0x40 MLOAD DUP1 DUP4 SUB DUP2 DUP6 DUP8 GAS CALL SWAP3 POP POP POP RETURNDATASIZE DUP1 PUSH0 DUP2 EQ PUSH2 0xC38 JUMPI PUSH1 0x40 MLOAD SWAP2 POP PUSH1 0x1F NOT PUSH1 0x3F RETURNDATASIZE ADD AND DUP3 ADD PUSH1 0x40 MSTORE RETURNDATASIZE DUP3 MSTORE RETURNDATASIZE PUSH0 PUSH1 0x20 DUP5 ADD RETURNDATACOPY PUSH2 0xC3D JUMP JUMPDEST PUSH1 0x60 SWAP2 POP JUMPDEST POP POP SWAP1 POP DUP1 PUSH2 0xC81 JUMPI PUSH1 0x40 MLOAD PUSH32 0x8C379A000000000000000000000000000000000000000000000000000000000 DUP2 MSTORE PUSH1 0x4 ADD PUSH2 0xC78 SWAP1 PUSH2 0x1C4F JUMP JUMPDEST PUSH1 0x40 MLOAD DUP1 SWAP2 SUB SWAP1 REVERT JUMPDEST PUSH0 PUSH1 0x7 PUSH0 PUSH1 0x8 DUP7 DUP2 SLOAD DUP2 LT PUSH2 0xC99 JUMPI PUSH2 0xC98 PUSH2 0x19B6 JUMP JUMPDEST JUMPDEST SWAP1 PUSH0 MSTORE PUSH1 0x20 PUSH0 KECCAK256 ADD PUSH0 SWAP1 SLOAD SWAP1 PUSH2 0x100 EXP SWAP1 DIV PUSH20 0xFFFFFFFFFFFFFFFFFFFFFFFFFFFFFFFFFFFFFFFF AND PUSH20 0xFFFFFFFFFFFFFFFFFFFFFFFFFFFFFFFFFFFFFFFF AND PUSH20 0xFFFFFFFFFFFFFFFFFFFFFFFFFFFFFFFFFFFFFFFF AND DUP2 MSTORE PUSH1 0x20 ADD SWAP1 DUP2 MSTORE PUSH1 0x20 ADD PUSH0 KECCAK256 PUSH1 0x1 ADD DUP2 SWAP1 SSTORE POP PUSH0 PUSH1 0x7 PUSH0 PUSH1 0x8 DUP7 DUP2 SLOAD DUP2 LT PUSH2 0xD19 JUMPI PUSH2 0xD18 PUSH2 0x19B6 JUMP JUMPDEST JUMPDEST SWAP1 PUSH0 MSTORE PUSH1 0x20 PUSH0 KECCAK256 ADD PUSH0 SWAP1 SLOAD SWAP1 PUSH2 0x100 EXP SWAP1 DIV PUSH20 0xFFFFFFFFFFFFFFFFFFFFFFFFFFFFFFFFFFFFFFFF AND PUSH20 0xFFFFFFFFFFFFFFFFFFFFFFFFFFFFFFFFFFFFFFFF AND PUSH20 0xFFFFFFFFFFFFFFFFFFFFFFFFFFFFFFFFFFFFFFFF AND DUP2 MSTORE PUSH1 0x20 ADD SWAP1 DUP2 MSTORE PUSH1 0x20 ADD PUSH0 KECCAK256 PUSH1 0x2 ADD DUP2 SWAP1 SSTORE POP POP POP PUSH2 0xF21 JUMP JUMPDEST PUSH0 PUSH1 0x1 PUSH0 SWAP1 SLOAD SWAP1 PUSH2 0x100 EXP SWAP1 DIV PUSH20 0xFFFFFFFFFFFFFFFFFFFFFFFFFFFFFFFFFFFFFFFF AND PUSH20 0xFFFFFFFFFFFFFFFFFFFFFFFFFFFFFFFFFFFFFFFF AND PUSH1 0x3 SLOAD PUSH1 0x40 MLOAD PUSH2 0xDD0 SWAP1 PUSH2 0x190D JUMP JUMPDEST PUSH0 PUSH1 0x40 MLOAD DUP1 DUP4 SUB DUP2 DUP6 DUP8 GAS CALL SWAP3 POP POP POP RETURNDATASIZE DUP1 PUSH0 DUP2 EQ PUSH2 0xE0A JUMPI PUSH1 0x40 MLOAD SWAP2 POP PUSH1 0x1F NOT PUSH1 0x3F RETURNDATASIZE ADD AND DUP3 ADD PUSH1 0x40 MSTORE RETURNDATASIZE DUP3 MSTORE RETURNDATASIZE PUSH0 PUSH1 0x20 DUP5 ADD RETURNDATACOPY PUSH2 0xE0F JUMP JUMPDEST PUSH1 0x60 SWAP2 POP JUMPDEST POP POP SWAP1 POP DUP1 PUSH2 0xE53 JUMPI PUSH1 0x40 MLOAD PUSH32 0x8C379A000000000000000000000000000000000000000000000000000000000 DUP2 MSTORE PUSH1 0x4 ADD PUSH2 0xE4A SWAP1 PUSH2 0x1CDD JUMP JUMPDEST PUSH1 0x40 MLOAD DUP1 SWAP2 SUB SWAP1 REVERT JUMPDEST PUSH0 PUSH1 0x7 PUSH0 PUSH1 0x1 PUSH0 SWAP1 SLOAD SWAP1 PUSH2 0x100 EXP SWAP1 DIV PUSH20 0xFFFFFFFFFFFFFFFFFFFFFFFFFFFFFFFFFFFFFFFF AND PUSH20 0xFFFFFFFFFFFFFFFFFFFFFFFFFFFFFFFFFFFFFFFF AND PUSH20 0xFFFFFFFFFFFFFFFFFFFFFFFFFFFFFFFFFFFFFFFF AND DUP2 MSTORE PUSH1 0x20 ADD SWAP1 DUP2 MSTORE PUSH1 0x20 ADD PUSH0 KECCAK256 PUSH1 0x1 ADD DUP2 SWAP1 SSTORE POP PUSH0 PUSH1 0x7 PUSH0 PUSH1 0x1 PUSH0 SWAP1 SLOAD SWAP1 PUSH2 0x100 EXP SWAP1 DIV PUSH20 0xFFFFFFFFFFFFFFFFFFFFFFFFFFFFFFFFFFFFFFFF AND PUSH20 0xFFFFFFFFFFFFFFFFFFFFFFFFFFFFFFFFFFFFFFFF AND PUSH20 0xFFFFFFFFFFFFFFFFFFFFFFFFFFFFFFFFFFFFFFFF AND DUP2 MSTORE PUSH1 0x20 ADD SWAP1 DUP2 MSTORE PUSH1 0x20 ADD PUSH0 KECCAK256 PUSH1 0x2 ADD DUP2 SWAP1 SSTORE POP POP JUMPDEST DUP1 DUP1 PUSH1 0x1 ADD SWAP2 POP POP PUSH2 0xA12 JUMP JUMPDEST POP PUSH1 0x1 PUSH0 SWAP1 SLOAD SWAP1 PUSH2 0x100 EXP SWAP1 DIV PUSH20 0xFFFFFFFFFFFFFFFFFFFFFFFFFFFFFFFFFFFFFFFF AND PUSH20 0xFFFFFFFFFFFFFFFFFFFFFFFFFFFFFFFFFFFFFFFF AND PUSH32 0x9C2270628A9B29D30AE96B6C4C14ED646EE134FEBDCE38A5B77F2BDE9CEA2E20 PUSH1 0x3 SLOAD PUSH1 0x40 MLOAD PUSH2 0xF98 SWAP2 SWAP1 PUSH2 0x1438 JUMP JUMPDEST PUSH1 0x40 MLOAD DUP1 SWAP2 SUB SWAP1 LOG2 POP JUMP JUMPDEST PUSH1 0x4 SLOAD DUP2 JUMP JUMPDEST PUSH1 0x3 SLOAD DUP2 JUMP JUMPDEST PUSH1 0x1 PUSH0 SWAP1 SLOAD SWAP1 PUSH2 0x100 EXP SWAP1 DIV PUSH20 0xFFFFFFFFFFFFFFFFFFFFFFFFFFFFFFFFFFFFFFFF AND DUP2 JUMP JUMPDEST PUSH1 0x6 SLOAD TIMESTAMP LT PUSH2 0x1018 JUMPI PUSH1 0x40 MLOAD PUSH32 0x8C379A000000000000000000000000000000000000000000000000000000000 DUP2 MSTORE PUSH1 0x4 ADD PUSH2 0x100F SWAP1 PUSH2 0x1D45 JUMP JUMPDEST PUSH1 0x40 MLOAD DUP1 SWAP2 SUB SWAP1 REVERT JUMPDEST PUSH0 CALLER SWAP1 POP PUSH0 CALLVALUE SWAP1 POP PUSH1 0x64 DUP1 PUSH1 0x4 SLOAD PUSH2 0x1030 SWAP2 SWAP1 PUSH2 0x1D63 JUMP JUMPDEST PUSH1 0x3 SLOAD PUSH2 0x103D SWAP2 SWAP1 PUSH2 0x1B41 JUMP JUMPDEST PUSH2 0x1047 SWAP2 SWAP1 PUSH2 0x1BAF JUMP JUMPDEST DUP2 GT PUSH2 0x1088 JUMPI PUSH1 0x40 MLOAD PUSH32 0x8C379A000000000000000000000000000000000000000000000000000000000 DUP2 MSTORE PUSH1 0x4 ADD PUSH2 0x107F SWAP1 PUSH2 0x1E2C JUMP JUMPDEST PUSH1 0x40 MLOAD DUP1 SWAP2 SUB SWAP1 REVERT JUMPDEST PUSH2 0x258 PUSH1 0x6 SLOAD PUSH2 0x1098 SWAP2 SWAP1 PUSH2 0x1845 JUMP JUMPDEST TIMESTAMP LT PUSH2 0x10B9 JUMPI PUSH2 0x258 PUSH1 0x6 PUSH0 DUP3 DUP3 SLOAD PUSH2 0x10B1 SWAP2 SWAP1 PUSH2 0x1D63 JUMP JUMPDEST SWAP3 POP POP DUP2 SWAP1 SSTORE POP JUMPDEST PUSH0 PUSH20 0xFFFFFFFFFFFFFFFFFFFFFFFFFFFFFFFFFFFFFFFF AND PUSH1 0x7 PUSH0 DUP5 PUSH20 0xFFFFFFFFFFFFFFFFFFFFFFFFFFFFFFFFFFFFFFFF AND PUSH20 0xFFFFFFFFFFFFFFFFFFFFFFFFFFFFFFFFFFFFFFFF AND DUP2 MSTORE PUSH1 0x20 ADD SWAP1 DUP2 MSTORE PUSH1 0x20 ADD PUSH0 KECCAK256 PUSH0 ADD PUSH0 SWAP1 SLOAD SWAP1 PUSH2 0x100 EXP SWAP1 DIV PUSH20 0xFFFFFFFFFFFFFFFFFFFFFFFFFFFFFFFFFFFFFFFF AND PUSH20 0xFFFFFFFFFFFFFFFFFFFFFFFFFFFFFFFFFFFFFFFF AND EQ PUSH2 0x11EA JUMPI DUP1 PUSH1 0x7 PUSH0 DUP5 PUSH20 0xFFFFFFFFFFFFFFFFFFFFFFFFFFFFFFFFFFFFFFFF AND PUSH20 0xFFFFFFFFFFFFFFFFFFFFFFFFFFFFFFFFFFFFFFFF AND DUP2 MSTORE PUSH1 0x20 ADD SWAP1 DUP2 MSTORE PUSH1 0x20 ADD PUSH0 KECCAK256 PUSH1 0x1 ADD DUP2 SWAP1 SSTORE POP DUP1 PUSH1 0x7 PUSH0 DUP5 PUSH20 0xFFFFFFFFFFFFFFFFFFFFFFFFFFFFFFFFFFFFFFFF AND PUSH20 0xFFFFFFFFFFFFFFFFFFFFFFFFFFFFFFFFFFFFFFFF AND DUP2 MSTORE PUSH1 0x20 ADD SWAP1 DUP2 MSTORE PUSH1 0x20 ADD PUSH0 KECCAK256 PUSH1 0x2 ADD PUSH0 DUP3 DUP3 SLOAD PUSH2 0x11DE SWAP2 SWAP1 PUSH2 0x1D63 JUMP JUMPDEST SWAP3 POP POP DUP2 SWAP1 SSTORE POP PUSH2 0x1314 JUMP JUMPDEST PUSH1 0x8 DUP3 SWAP1 DUP1 PUSH1 0x1 DUP2 SLOAD ADD DUP1 DUP3 SSTORE DUP1 SWAP2 POP POP PUSH1 0x1 SWAP1 SUB SWAP1 PUSH0 MSTORE PUSH1 0x20 PUSH0 KECCAK256 ADD PUSH0 SWAP1 SWAP2 SWAP1 SWAP2 SWAP1 SWAP2 PUSH2 0x100 EXP DUP2 SLOAD DUP2 PUSH20 0xFFFFFFFFFFFFFFFFFFFFFFFFFFFFFFFFFFFFFFFF MUL NOT AND SWAP1 DUP4 PUSH20 0xFFFFFFFFFFFFFFFFFFFFFFFFFFFFFFFFFFFFFFFF AND MUL OR SWAP1 SSTORE POP PUSH1 0x40 MLOAD DUP1 PUSH1 0x60 ADD PUSH1 0x40 MSTORE DUP1 DUP4 PUSH20 0xFFFFFFFFFFFFFFFFFFFFFFFFFFFFFFFFFFFFFFFF AND DUP2 MSTORE PUSH1 0x20 ADD DUP3 DUP2 MSTORE PUSH1 0x20 ADD DUP3 DUP2 MSTORE POP PUSH1 0x7 PUSH0 DUP5 PUSH20 0xFFFFFFFFFFFFFFFFFFFFFFFFFFFFFFFFFFFFFFFF AND PUSH20 0xFFFFFFFFFFFFFFFFFFFFFFFFFFFFFFFFFFFFFFFF AND DUP2 MSTORE PUSH1 0x20 ADD SWAP1 DUP2 MSTORE PUSH1 0x20 ADD PUSH0 KECCAK256 PUSH0 DUP3 ADD MLOAD DUP2 PUSH0 ADD PUSH0 PUSH2 0x100 EXP DUP2 SLOAD DUP2 PUSH20 0xFFFFFFFFFFFFFFFFFFFFFFFFFFFFFFFFFFFFFFFF MUL NOT AND SWAP1 DUP4 PUSH20 0xFFFFFFFFFFFFFFFFFFFFFFFFFFFFFFFFFFFFFFFF AND MUL OR SWAP1 SSTORE POP PUSH1 0x20 DUP3 ADD MLOAD DUP2 PUSH1 0x1 ADD SSTORE PUSH1 0x40 DUP3 ADD MLOAD DUP2 PUSH1 0x2 ADD SSTORE SWAP1 POP POP JUMPDEST DUP2 PUSH1 0x1 PUSH0 PUSH2 0x100 EXP DUP2 SLOAD DUP2 PUSH20 0xFFFFFFFFFFFFFFFFFFFFFFFFFFFFFFFFFFFFFFFF MUL NOT AND SWAP1 DUP4 PUSH20 0xFFFFFFFFFFFFFFFFFFFFFFFFFFFFFFFFFFFFFFFF AND MUL OR SWAP1 SSTORE POP DUP1 PUSH1 0x3 DUP2 SWAP1 SSTORE POP DUP2 PUSH20 0xFFFFFFFFFFFFFFFFFFFFFFFFFFFFFFFFFFFFFFFF AND PUSH32 0xDD0B6C6A77960E2066C96171B4D7AC9E8B4C184011F38544AFA36A5BB63EC59F DUP3 PUSH1 0x40 MLOAD PUSH2 0x13A1 SWAP2 SWAP1 PUSH2 0x1438 JUMP JUMPDEST PUSH1 0x40 MLOAD DUP1 SWAP2 SUB SWAP1 LOG2 POP POP JUMP JUMPDEST PUSH1 0x7 PUSH1 0x20 MSTORE DUP1 PUSH0 MSTORE PUSH1 0x40 PUSH0 KECCAK256 PUSH0 SWAP2 POP SWAP1 POP DUP1 PUSH0 ADD PUSH0 SWAP1 SLOAD SWAP1 PUSH2 0x100 EXP SWAP1 DIV PUSH20 0xFFFFFFFFFFFFFFFFFFFFFFFFFFFFFFFFFFFFFFFF AND SWAP1 DUP1 PUSH1 0x1 ADD SLOAD SWAP1 DUP1 PUSH1 0x2 ADD SLOAD SWAP1 POP DUP4 JUMP JUMPDEST PUSH1 0x40 MLOAD DUP1 PUSH1 0x40 ADD PUSH1 0x40 MSTORE DUP1 PUSH0 PUSH20 0xFFFFFFFFFFFFFFFFFFFFFFFFFFFFFFFFFFFFFFFF AND DUP2 MSTORE PUSH1 0x20 ADD PUSH0 DUP2 MSTORE POP SWAP1 JUMP JUMPDEST PUSH0 DUP2 SWAP1 POP SWAP2 SWAP1 POP JUMP JUMPDEST PUSH2 0x1432 DUP2 PUSH2 0x1420 JUMP JUMPDEST DUP3 MSTORE POP POP JUMP JUMPDEST PUSH0 PUSH1 0x20 DUP3 ADD SWAP1 POP PUSH2 0x144B PUSH0 DUP4 ADD DUP5 PUSH2 0x1429 JUMP JUMPDEST SWAP3 SWAP2 POP POP JUMP JUMPDEST PUSH0 DUP2 MLOAD SWAP1 POP SWAP2 SWAP1 POP JUMP JUMPDEST PUSH0 DUP3 DUP3 MSTORE PUSH1 0x20 DUP3 ADD SWAP1 POP SWAP3 SWAP2 POP POP JUMP JUMPDEST PUSH0 DUP2 SWAP1 POP PUSH1 0x20 DUP3 ADD SWAP1 POP SWAP2 SWAP1 POP JUMP JUMPDEST PUSH0 PUSH20 0xFFFFFFFFFFFFFFFFFFFFFFFFFFFFFFFFFFFFFFFF DUP3 AND SWAP1 POP SWAP2 SWAP1 POP JUMP JUMPDEST PUSH0 PUSH2 0x14A3 DUP3 PUSH2 0x147A JUMP JUMPDEST SWAP1 POP SWAP2 SWAP1 POP JUMP JUMPDEST PUSH2 0x14B3 DUP2 PUSH2 0x1499 JUMP JUMPDEST DUP3 MSTORE POP POP JUMP JUMPDEST PUSH2 0x14C2 DUP2 PUSH2 0x1420 JUMP JUMPDEST DUP3 MSTORE POP POP JUMP JUMPDEST PUSH1 0x40 DUP3 ADD PUSH0 DUP3 ADD MLOAD PUSH2 0x14DC PUSH0 DUP6 ADD DUP3 PUSH2 0x14AA JUMP JUMPDEST POP PUSH1 0x20 DUP3 ADD MLOAD PUSH2 0x14EF PUSH1 0x20 DUP6 ADD DUP3 PUSH2 0x14B9 JUMP JUMPDEST POP POP POP POP JUMP JUMPDEST PUSH0 PUSH2 0x1500 DUP4 DUP4 PUSH2 0x14C8 JUMP JUMPDEST PUSH1 0x40 DUP4 ADD SWAP1 POP SWAP3 SWAP2 POP POP JUMP JUMPDEST PUSH0 PUSH1 0x20 DUP3 ADD SWAP1 POP SWAP2 SWAP1 POP JUMP JUMPDEST PUSH0 PUSH2 0x1522 DUP3 PUSH2 0x1451 JUMP JUMPDEST PUSH2 0x152C DUP2 DUP6 PUSH2 0x145B JUMP JUMPDEST SWAP4 POP PUSH2 0x1537 DUP4 PUSH2 0x146B JUMP JUMPDEST DUP1 PUSH0 JUMPDEST DUP4 DUP2 LT ISZERO PUSH2 0x1567 JUMPI DUP2 MLOAD PUSH2 0x154E DUP9 DUP3 PUSH2 0x14F5 JUMP JUMPDEST SWAP8 POP PUSH2 0x1559 DUP4 PUSH2 0x150C JUMP JUMPDEST SWAP3 POP POP PUSH1 0x1 DUP2 ADD SWAP1 POP PUSH2 0x153A JUMP JUMPDEST POP DUP6 SWAP4 POP POP POP POP SWAP3 SWAP2 POP POP JUMP JUMPDEST PUSH0 PUSH1 0x20 DUP3 ADD SWAP1 POP DUP2 DUP2 SUB PUSH0 DUP4 ADD MSTORE PUSH2 0x158C DUP2 DUP5 PUSH2 0x1518 JUMP JUMPDEST SWAP1 POP SWAP3 SWAP2 POP POP JUMP JUMPDEST PUSH0 DUP1 REVERT JUMPDEST PUSH2 0x15A1 DUP2 PUSH2 0x1420 JUMP JUMPDEST DUP2 EQ PUSH2 0x15AB JUMPI PUSH0 DUP1 REVERT JUMPDEST POP JUMP JUMPDEST PUSH0 DUP2 CALLDATALOAD SWAP1 POP PUSH2 0x15BC DUP2 PUSH2 0x1598 JUMP JUMPDEST SWAP3 SWAP2 POP POP JUMP JUMPDEST PUSH0 PUSH1 0x20 DUP3 DUP5 SUB SLT ISZERO PUSH2 0x15D7 JUMPI PUSH2 0x15D6 PUSH2 0x1594 JUMP JUMPDEST JUMPDEST PUSH0 PUSH2 0x15E4 DUP5 DUP3 DUP6 ADD PUSH2 0x15AE JUMP JUMPDEST SWAP2 POP POP SWAP3 SWAP2 POP POP JUMP JUMPDEST PUSH2 0x15F6 DUP2 PUSH2 0x1499 JUMP JUMPDEST DUP3 MSTORE POP POP JUMP JUMPDEST PUSH0 PUSH1 0x20 DUP3 ADD SWAP1 POP PUSH2 0x160F PUSH0 DUP4 ADD DUP5 PUSH2 0x15ED JUMP JUMPDEST SWAP3 SWAP2 POP POP JUMP JUMPDEST PUSH0 PUSH1 0x40 DUP3 ADD SWAP1 POP PUSH2 0x1628 PUSH0 DUP4 ADD DUP6 PUSH2 0x15ED JUMP JUMPDEST PUSH2 0x1635 PUSH1 0x20 DUP4 ADD DUP5 PUSH2 0x1429 JUMP JUMPDEST SWAP4 SWAP3 POP POP POP JUMP JUMPDEST PUSH2 0x1645 DUP2 PUSH2 0x1499 JUMP JUMPDEST DUP2 EQ PUSH2 0x164F JUMPI PUSH0 DUP1 REVERT JUMPDEST POP JUMP JUMPDEST PUSH0 DUP2 CALLDATALOAD SWAP1 POP PUSH2 0x1660 DUP2 PUSH2 0x163C JUMP JUMPDEST SWAP3 SWAP2 POP POP JUMP JUMPDEST PUSH0 PUSH1 0x20 DUP3 DUP5 SUB SLT ISZERO PUSH2 0x167B JUMPI PUSH2 0x167A PUSH2 0x1594 JUMP JUMPDEST JUMPDEST PUSH0 PUSH2 0x1688 DUP5 DUP3 DUP6 ADD PUSH2 0x1652 JUMP JUMPDEST SWAP2 POP POP SWAP3 SWAP2 POP POP JUMP JUMPDEST PUSH0 PUSH1 0x60 DUP3 ADD SWAP1 POP PUSH2 0x16A4 PUSH0 DUP4 ADD DUP7 PUSH2 0x15ED JUMP JUMPDEST PUSH2 0x16B1 PUSH1 0x20 DUP4 ADD DUP6 PUSH2 0x1429 JUMP JUMPDEST PUSH2 0x16BE PUSH1 0x40 DUP4 ADD DUP5 PUSH2 0x1429 JUMP JUMPDEST SWAP5 SWAP4 POP POP POP POP JUMP JUMPDEST PUSH0 DUP3 DUP3 MSTORE PUSH1 0x20 DUP3 ADD SWAP1 POP SWAP3 SWAP2 POP POP JUMP JUMPDEST PUSH32 0x4F6E6C79207468652062616C616E6365206F776E65722063616E20696E697469 PUSH0 DUP3 ADD MSTORE PUSH32 0x6174652074686520726566756E64000000000000000000000000000000000000 PUSH1 0x20 DUP3 ADD MSTORE POP JUMP JUMPDEST PUSH0 PUSH2 0x1730 PUSH1 0x2E DUP4 PUSH2 0x16C6 JUMP JUMPDEST SWAP2 POP PUSH2 0x173B DUP3 PUSH2 0x16D6 JUMP JUMPDEST PUSH1 0x40 DUP3 ADD SWAP1 POP SWAP2 SWAP1 POP JUMP JUMPDEST PUSH0 PUSH1 0x20 DUP3 ADD SWAP1 POP DUP2 DUP2 SUB PUSH0 DUP4 ADD MSTORE PUSH2 0x175D DUP2 PUSH2 0x1724 JUMP JUMPDEST SWAP1 POP SWAP2 SWAP1 POP JUMP JUMPDEST PUSH32 0x4E6F20726566756E642077696C6C20626520616C6C6F77656420696620796F75 PUSH0 DUP3 ADD MSTORE PUSH32 0x2068617665206E6F7420706C6163656420612062696420616674657220746865 PUSH1 0x20 DUP3 ADD MSTORE PUSH32 0x206C617374206F66666572000000000000000000000000000000000000000000 PUSH1 0x40 DUP3 ADD MSTORE POP JUMP JUMPDEST PUSH0 PUSH2 0x17E4 PUSH1 0x4B DUP4 PUSH2 0x16C6 JUMP JUMPDEST SWAP2 POP PUSH2 0x17EF DUP3 PUSH2 0x1764 JUMP JUMPDEST PUSH1 0x60 DUP3 ADD SWAP1 POP SWAP2 SWAP1 POP JUMP JUMPDEST PUSH0 PUSH1 0x20 DUP3 ADD SWAP1 POP DUP2 DUP2 SUB PUSH0 DUP4 ADD MSTORE PUSH2 0x1811 DUP2 PUSH2 0x17D8 JUMP JUMPDEST SWAP1 POP SWAP2 SWAP1 POP JUMP JUMPDEST PUSH32 0x4E487B7100000000000000000000000000000000000000000000000000000000 PUSH0 MSTORE PUSH1 0x11 PUSH1 0x4 MSTORE PUSH1 0x24 PUSH0 REVERT JUMPDEST PUSH0 PUSH2 0x184F DUP3 PUSH2 0x1420 JUMP JUMPDEST SWAP2 POP PUSH2 0x185A DUP4 PUSH2 0x1420 JUMP JUMPDEST SWAP3 POP DUP3 DUP3 SUB SWAP1 POP DUP2 DUP2 GT ISZERO PUSH2 0x1872 JUMPI PUSH2 0x1871 PUSH2 0x1818 JUMP JUMPDEST JUMPDEST SWAP3 SWAP2 POP POP JUMP JUMPDEST PUSH32 0x4E6F2062616C616E636520617661696C61626C6520666F7220726566756E6400 PUSH0 DUP3 ADD MSTORE POP JUMP JUMPDEST PUSH0 PUSH2 0x18AC PUSH1 0x1F DUP4 PUSH2 0x16C6 JUMP JUMPDEST SWAP2 POP PUSH2 0x18B7 DUP3 PUSH2 0x1878 JUMP JUMPDEST PUSH1 0x20 DUP3 ADD SWAP1 POP SWAP2 SWAP1 POP JUMP JUMPDEST PUSH0 PUSH1 0x20 DUP3 ADD SWAP1 POP DUP2 DUP2 SUB PUSH0 DUP4 ADD MSTORE PUSH2 0x18D9 DUP2 PUSH2 0x18A0 JUMP JUMPDEST SWAP1 POP SWAP2 SWAP1 POP JUMP JUMPDEST PUSH0 DUP2 SWAP1 POP SWAP3 SWAP2 POP POP JUMP JUMPDEST POP JUMP JUMPDEST PUSH0 PUSH2 0x18F8 PUSH0 DUP4 PUSH2 0x18E0 JUMP JUMPDEST SWAP2 POP PUSH2 0x1903 DUP3 PUSH2 0x18EA JUMP JUMPDEST PUSH0 DUP3 ADD SWAP1 POP SWAP2 SWAP1 POP JUMP JUMPDEST PUSH0 PUSH2 0x1917 DUP3 PUSH2 0x18ED JUMP JUMPDEST SWAP2 POP DUP2 SWAP1 POP SWAP2 SWAP1 POP JUMP JUMPDEST PUSH32 0x4572726F722070726F63657373696E672074686520726566756E640000000000 PUSH0 DUP3 ADD MSTORE POP JUMP JUMPDEST PUSH0 PUSH2 0x1955 PUSH1 0x1B DUP4 PUSH2 0x16C6 JUMP JUMPDEST SWAP2 POP PUSH2 0x1960 DUP3 PUSH2 0x1921 JUMP JUMPDEST PUSH1 0x20 DUP3 ADD SWAP1 POP SWAP2 SWAP1 POP JUMP JUMPDEST PUSH0 PUSH1 0x20 DUP3 ADD SWAP1 POP DUP2 DUP2 SUB PUSH0 DUP4 ADD MSTORE PUSH2 0x1982 DUP2 PUSH2 0x1949 JUMP JUMPDEST SWAP1 POP SWAP2 SWAP1 POP JUMP JUMPDEST PUSH32 0x4E487B7100000000000000000000000000000000000000000000000000000000 PUSH0 MSTORE PUSH1 0x41 PUSH1 0x4 MSTORE PUSH1 0x24 PUSH0 REVERT JUMPDEST PUSH32 0x4E487B7100000000000000000000000000000000000000000000000000000000 PUSH0 MSTORE PUSH1 0x32 PUSH1 0x4 MSTORE PUSH1 0x24 PUSH0 REVERT JUMPDEST PUSH32 0x5468652061756374696F6E20686173206E6F742079657420656E646564000000 PUSH0 DUP3 ADD MSTORE POP JUMP JUMPDEST PUSH0 PUSH2 0x1A17 PUSH1 0x1D DUP4 PUSH2 0x16C6 JUMP JUMPDEST SWAP2 POP PUSH2 0x1A22 DUP3 PUSH2 0x19E3 JUMP JUMPDEST PUSH1 0x20 DUP3 ADD SWAP1 POP SWAP2 SWAP1 POP JUMP JUMPDEST PUSH0 PUSH1 0x20 DUP3 ADD SWAP1 POP DUP2 DUP2 SUB PUSH0 DUP4 ADD MSTORE PUSH2 0x1A44 DUP2 PUSH2 0x1A0B JUMP JUMPDEST SWAP1 POP SWAP2 SWAP1 POP JUMP JUMPDEST PUSH32 0x4F6E6C79207468652061756374696F6E206F776E65722063616E206578656375 PUSH0 DUP3 ADD MSTORE PUSH32 0x746520746869732066756E6374696F6E00000000000000000000000000000000 PUSH1 0x20 DUP3 ADD MSTORE POP JUMP JUMPDEST PUSH0 PUSH2 0x1AA5 PUSH1 0x30 DUP4 PUSH2 0x16C6 JUMP JUMPDEST SWAP2 POP PUSH2 0x1AB0 DUP3 PUSH2 0x1A4B JUMP JUMPDEST PUSH1 0x40 DUP3 ADD SWAP1 POP SWAP2 SWAP1 POP JUMP JUMPDEST PUSH0 PUSH1 0x20 DUP3 ADD SWAP1 POP DUP2 DUP2 SUB PUSH0 DUP4 ADD MSTORE PUSH2 0x1AD2 DUP2 PUSH2 0x1A99 JUMP JUMPDEST SWAP1 POP SWAP2 SWAP1 POP JUMP JUMPDEST PUSH32 0x5468652061756374696F6E206D75737420656E64000000000000000000000000 PUSH0 DUP3 ADD MSTORE POP JUMP JUMPDEST PUSH0 PUSH2 0x1B0D PUSH1 0x14 DUP4 PUSH2 0x16C6 JUMP JUMPDEST SWAP2 POP PUSH2 0x1B18 DUP3 PUSH2 0x1AD9 JUMP JUMPDEST PUSH1 0x20 DUP3 ADD SWAP1 POP SWAP2 SWAP1 POP JUMP JUMPDEST PUSH0 PUSH1 0x20 DUP3 ADD SWAP1 POP DUP2 DUP2 SUB PUSH0 DUP4 ADD MSTORE PUSH2 0x1B3A DUP2 PUSH2 0x1B01 JUMP JUMPDEST SWAP1 POP SWAP2 SWAP1 POP JUMP JUMPDEST PUSH0 PUSH2 0x1B4B DUP3 PUSH2 0x1420 JUMP JUMPDEST SWAP2 POP PUSH2 0x1B56 DUP4 PUSH2 0x1420 JUMP JUMPDEST SWAP3 POP DUP3 DUP3 MUL PUSH2 0x1B64 DUP2 PUSH2 0x1420 JUMP JUMPDEST SWAP2 POP DUP3 DUP3 DIV DUP5 EQ DUP4 ISZERO OR PUSH2 0x1B7B JUMPI PUSH2 0x1B7A PUSH2 0x1818 JUMP JUMPDEST JUMPDEST POP SWAP3 SWAP2 POP POP JUMP JUMPDEST PUSH32 0x4E487B7100000000000000000000000000000000000000000000000000000000 PUSH0 MSTORE PUSH1 0x12 PUSH1 0x4 MSTORE PUSH1 0x24 PUSH0 REVERT JUMPDEST PUSH0 PUSH2 0x1BB9 DUP3 PUSH2 0x1420 JUMP JUMPDEST SWAP2 POP PUSH2 0x1BC4 DUP4 PUSH2 0x1420 JUMP JUMPDEST SWAP3 POP DUP3 PUSH2 0x1BD4 JUMPI PUSH2 0x1BD3 PUSH2 0x1B82 JUMP JUMPDEST JUMPDEST DUP3 DUP3 DIV SWAP1 POP SWAP3 SWAP2 POP POP JUMP JUMPDEST PUSH32 0x4572726F722070726F63657373696E6720746865206465706F73697420726566 PUSH0 DUP3 ADD MSTORE PUSH32 0x756E640000000000000000000000000000000000000000000000000000000000 PUSH1 0x20 DUP3 ADD MSTORE POP JUMP JUMPDEST PUSH0 PUSH2 0x1C39 PUSH1 0x23 DUP4 PUSH2 0x16C6 JUMP JUMPDEST SWAP2 POP PUSH2 0x1C44 DUP3 PUSH2 0x1BDF JUMP JUMPDEST PUSH1 0x40 DUP3 ADD SWAP1 POP SWAP2 SWAP1 POP JUMP JUMPDEST PUSH0 PUSH1 0x20 DUP3 ADD SWAP1 POP DUP2 DUP2 SUB PUSH0 DUP4 ADD MSTORE PUSH2 0x1C66 DUP2 PUSH2 0x1C2D JUMP JUMPDEST SWAP1 POP SWAP2 SWAP1 POP JUMP JUMPDEST PUSH32 0x4661696C656420746F207472616E73666572207072697A6520746F2077696E6E PUSH0 DUP3 ADD MSTORE PUSH32 0x6572000000000000000000000000000000000000000000000000000000000000 PUSH1 0x20 DUP3 ADD MSTORE POP JUMP JUMPDEST PUSH0 PUSH2 0x1CC7 PUSH1 0x22 DUP4 PUSH2 0x16C6 JUMP JUMPDEST SWAP2 POP PUSH2 0x1CD2 DUP3 PUSH2 0x1C6D JUMP JUMPDEST PUSH1 0x40 DUP3 ADD SWAP1 POP SWAP2 SWAP1 POP JUMP JUMPDEST PUSH0 PUSH1 0x20 DUP3 ADD SWAP1 POP DUP2 DUP2 SUB PUSH0 DUP4 ADD MSTORE PUSH2 0x1CF4 DUP2 PUSH2 0x1CBB JUMP JUMPDEST SWAP1 POP SWAP2 SWAP1 POP JUMP JUMPDEST PUSH32 0x5468652061756374696F6E2068617320656E6465640000000000000000000000 PUSH0 DUP3 ADD MSTORE POP JUMP JUMPDEST PUSH0 PUSH2 0x1D2F PUSH1 0x15 DUP4 PUSH2 0x16C6 JUMP JUMPDEST SWAP2 POP PUSH2 0x1D3A DUP3 PUSH2 0x1CFB JUMP JUMPDEST PUSH1 0x20 DUP3 ADD SWAP1 POP SWAP2 SWAP1 POP JUMP JUMPDEST PUSH0 PUSH1 0x20 DUP3 ADD SWAP1 POP DUP2 DUP2 SUB PUSH0 DUP4 ADD MSTORE PUSH2 0x1D5C DUP2 PUSH2 0x1D23 JUMP JUMPDEST SWAP1 POP SWAP2 SWAP1 POP JUMP JUMPDEST PUSH0 PUSH2 0x1D6D DUP3 PUSH2 0x1420 JUMP JUMPDEST SWAP2 POP PUSH2 0x1D78 DUP4 PUSH2 0x1420 JUMP JUMPDEST SWAP3 POP DUP3 DUP3 ADD SWAP1 POP DUP1 DUP3 GT ISZERO PUSH2 0x1D90 JUMPI PUSH2 0x1D8F PUSH2 0x1818 JUMP JUMPDEST JUMPDEST SWAP3 SWAP2 POP POP JUMP JUMPDEST PUSH32 0x54686520626964206D757374206F757462696420746865206265737420626964 PUSH0 DUP3 ADD MSTORE PUSH32 0x2C20636F6E7369646572696E6720746865206D696E696D756D20696E63726561 PUSH1 0x20 DUP3 ADD MSTORE PUSH32 0x73652070657263656E7461676500000000000000000000000000000000000000 PUSH1 0x40 DUP3 ADD MSTORE POP JUMP JUMPDEST PUSH0 PUSH2 0x1E16 PUSH1 0x4D DUP4 PUSH2 0x16C6 JUMP JUMPDEST SWAP2 POP PUSH2 0x1E21 DUP3 PUSH2 0x1D96 JUMP JUMPDEST PUSH1 0x60 DUP3 ADD SWAP1 POP SWAP2 SWAP1 POP JUMP JUMPDEST PUSH0 PUSH1 0x20 DUP3 ADD SWAP1 POP DUP2 DUP2 SUB PUSH0 DUP4 ADD MSTORE PUSH2 0x1E43 DUP2 PUSH2 0x1E0A JUMP JUMPDEST SWAP1 POP SWAP2 SWAP1 POP JUMP INVALID LOG2 PUSH5 0x6970667358 0x22 SLT KECCAK256 0xB1 DUP2 MUL 0x4C PUSH19 0x8590951AACCDA6401FF6FEC66F68AD3A962C10 DUP4 GASLIMIT DUP8 0xB0 0xA6 0x2E EQ JUMPDEST PUSH5 0x736F6C6343 STOP ADDMOD BYTE STOP CALLER "
				},
				"gasEstimates": {
					"creation": {
						"codeDepositCost": "1561600",
						"executionCost": "infinite",
						"totalCost": "infinite"
					},
					"external": {
						"bidIncrement()": "2514",
						"bidderAddresses(uint256)": "5034",
						"bidders(address)": "infinite",
						"duration()": "2449",
						"finishTimestamp()": "2492",
						"getWinner()": "6898",
						"highestBid()": "2447",
						"incrementalPercentage()": "2477",
						"initValue()": "2448",
						"makeBid()": "infinite",
						"owner()": "2528",
						"returnsBids()": "infinite",
						"showBids()": "infinite",
						"showhighestBid()": "2521",
						"winner()": "2552",
						"withDraw()": "infinite"
					}
				},
				"methodIdentifiers": {
					"bidIncrement()": "b3cc167a",
					"bidderAddresses(uint256)": "2fb3c48f",
					"bidders(address)": "fcc8f793",
					"duration()": "0fb5a6b4",
					"finishTimestamp()": "43d7d321",
					"getWinner()": "8e7ea5b2",
					"highestBid()": "d57bde79",
					"incrementalPercentage()": "38ed8c3f",
					"initValue()": "2fc36f11",
					"makeBid()": "f30e3658",
					"owner()": "8da5cb5b",
					"returnsBids()": "ac1adfd5",
					"showBids()": "14d2687c",
					"showhighestBid()": "702640a9",
					"winner()": "dfbf53ae",
					"withDraw()": "0fdb1c10"
				}
			},
			"storageLayout": {
				"storage": [
					{
						"astId": 4,
						"contract": "contracts/Tp_Final_Mod02/AuctETH.sol:AuctETH",
						"label": "owner",
						"offset": 0,
						"slot": "0",
						"type": "t_address"
					},
					{
						"astId": 6,
						"contract": "contracts/Tp_Final_Mod02/AuctETH.sol:AuctETH",
						"label": "winner",
						"offset": 0,
						"slot": "1",
						"type": "t_address"
					},
					{
						"astId": 8,
						"contract": "contracts/Tp_Final_Mod02/AuctETH.sol:AuctETH",
						"label": "initValue",
						"offset": 0,
						"slot": "2",
						"type": "t_uint256"
					},
					{
						"astId": 10,
						"contract": "contracts/Tp_Final_Mod02/AuctETH.sol:AuctETH",
						"label": "highestBid",
						"offset": 0,
						"slot": "3",
						"type": "t_uint256"
					},
					{
						"astId": 12,
						"contract": "contracts/Tp_Final_Mod02/AuctETH.sol:AuctETH",
						"label": "bidIncrement",
						"offset": 0,
						"slot": "4",
						"type": "t_uint256"
					},
					{
						"astId": 14,
						"contract": "contracts/Tp_Final_Mod02/AuctETH.sol:AuctETH",
						"label": "duration",
						"offset": 0,
						"slot": "5",
						"type": "t_uint256"
					},
					{
						"astId": 16,
						"contract": "contracts/Tp_Final_Mod02/AuctETH.sol:AuctETH",
						"label": "finishTimestamp",
						"offset": 0,
						"slot": "6",
						"type": "t_uint256"
					},
					{
						"astId": 79,
						"contract": "contracts/Tp_Final_Mod02/AuctETH.sol:AuctETH",
						"label": "bidders",
						"offset": 0,
						"slot": "7",
						"type": "t_mapping(t_address,t_struct(Bidder)69_storage)"
					},
					{
						"astId": 82,
						"contract": "contracts/Tp_Final_Mod02/AuctETH.sol:AuctETH",
						"label": "bidderAddresses",
						"offset": 0,
						"slot": "8",
						"type": "t_array(t_address)dyn_storage"
					}
				],
				"types": {
					"t_address": {
						"encoding": "inplace",
						"label": "address",
						"numberOfBytes": "20"
					},
					"t_array(t_address)dyn_storage": {
						"base": "t_address",
						"encoding": "dynamic_array",
						"label": "address[]",
						"numberOfBytes": "32"
					},
					"t_mapping(t_address,t_struct(Bidder)69_storage)": {
						"encoding": "mapping",
						"key": "t_address",
						"label": "mapping(address => struct AuctETH.Bidder)",
						"numberOfBytes": "32",
						"value": "t_struct(Bidder)69_storage"
					},
					"t_struct(Bidder)69_storage": {
						"encoding": "inplace",
						"label": "struct AuctETH.Bidder",
						"members": [
							{
								"astId": 64,
								"contract": "contracts/Tp_Final_Mod02/AuctETH.sol:AuctETH",
								"label": "addrs",
								"offset": 0,
								"slot": "0",
								"type": "t_address"
							},
							{
								"astId": 66,
								"contract": "contracts/Tp_Final_Mod02/AuctETH.sol:AuctETH",
								"label": "lastBid",
								"offset": 0,
								"slot": "1",
								"type": "t_uint256"
							},
							{
								"astId": 68,
								"contract": "contracts/Tp_Final_Mod02/AuctETH.sol:AuctETH",
								"label": "balance",
								"offset": 0,
								"slot": "2",
								"type": "t_uint256"
							}
						],
						"numberOfBytes": "96"
					},
					"t_uint256": {
						"encoding": "inplace",
						"label": "uint256",
						"numberOfBytes": "32"
					}
				}
			},
			"userdoc": {
				"kind": "user",
				"methods": {
					"constructor": {
						"notice": "Constructor to initialize the auction."
					},
					"getWinner()": {
						"notice": "Returns the winner's address and winning bid."
					},
					"incrementalPercentage()": {
						"notice": "Returns the minimum bid increment percentage."
					},
					"makeBid()": {
						"notice": "Places a new bid."
					},
					"returnsBids()": {
						"notice": "Returns bids and refunds deposits to non-winning bidders, transfers the winning bid to the winner."
					},
					"showBids()": {
						"notice": "Returns an array of all bids."
					},
					"showhighestBid()": {
						"notice": "Returns the highest bid value."
					},
					"withDraw()": {
						"notice": "Allows a bidder to partially refund their balance."
					}
				},
				"notice": "This contract allows users to participate in a timed auction",
				"version": 1
			}
		}
	}
}