{
	"contracts/Tp_Final_Mod02/AuctETH.sol": {
		"AuctETH": {
			"abi": [
				{
					"inputs": [
						{
							"internalType": "uint256",
							"name": "_initValue",
							"type": "uint256"
						},
						{
							"internalType": "uint256",
							"name": "_bidIncrement",
							"type": "uint256"
						},
						{
							"internalType": "uint256",
							"name": "_duration",
							"type": "uint256"
						}
					],
					"stateMutability": "nonpayable",
					"type": "constructor"
				},
				{
					"inputs": [
						{
							"internalType": "uint256",
							"name": "value",
							"type": "uint256"
						},
						{
							"internalType": "uint256",
							"name": "length",
							"type": "uint256"
						}
					],
					"name": "StringsInsufficientHexLength",
					"type": "error"
				},
				{
					"anonymous": false,
					"inputs": [
						{
							"indexed": true,
							"internalType": "address",
							"name": "bidder",
							"type": "address"
						},
						{
							"indexed": false,
							"internalType": "uint256",
							"name": "bidValue",
							"type": "uint256"
						}
					],
					"name": "NewBid",
					"type": "event"
				},
				{
					"inputs": [],
					"name": "bidIncrement",
					"outputs": [
						{
							"internalType": "uint256",
							"name": "",
							"type": "uint256"
						}
					],
					"stateMutability": "view",
					"type": "function"
				},
				{
					"inputs": [
						{
							"internalType": "uint256",
							"name": "",
							"type": "uint256"
						}
					],
					"name": "bidderAddresses",
					"outputs": [
						{
							"internalType": "address",
							"name": "",
							"type": "address"
						}
					],
					"stateMutability": "view",
					"type": "function"
				},
				{
					"inputs": [
						{
							"internalType": "address",
							"name": "",
							"type": "address"
						}
					],
					"name": "bidders",
					"outputs": [
						{
							"internalType": "address",
							"name": "addrs",
							"type": "address"
						},
						{
							"internalType": "uint256",
							"name": "lastBid",
							"type": "uint256"
						},
						{
							"internalType": "uint256",
							"name": "balance",
							"type": "uint256"
						}
					],
					"stateMutability": "view",
					"type": "function"
				},
				{
					"inputs": [],
					"name": "currentBid",
					"outputs": [
						{
							"internalType": "uint256",
							"name": "",
							"type": "uint256"
						}
					],
					"stateMutability": "view",
					"type": "function"
				},
				{
					"inputs": [],
					"name": "duration",
					"outputs": [
						{
							"internalType": "uint256",
							"name": "",
							"type": "uint256"
						}
					],
					"stateMutability": "view",
					"type": "function"
				},
				{
					"inputs": [],
					"name": "finishTimestamp",
					"outputs": [
						{
							"internalType": "uint256",
							"name": "",
							"type": "uint256"
						}
					],
					"stateMutability": "view",
					"type": "function"
				},
				{
					"inputs": [],
					"name": "getBids",
					"outputs": [
						{
							"internalType": "string",
							"name": "",
							"type": "string"
						}
					],
					"stateMutability": "view",
					"type": "function"
				},
				{
					"inputs": [],
					"name": "incrementalPercentage",
					"outputs": [
						{
							"internalType": "uint256",
							"name": "",
							"type": "uint256"
						}
					],
					"stateMutability": "view",
					"type": "function"
				},
				{
					"inputs": [],
					"name": "initValue",
					"outputs": [
						{
							"internalType": "uint256",
							"name": "",
							"type": "uint256"
						}
					],
					"stateMutability": "view",
					"type": "function"
				},
				{
					"inputs": [],
					"name": "makeBid",
					"outputs": [],
					"stateMutability": "payable",
					"type": "function"
				},
				{
					"inputs": [],
					"name": "owner",
					"outputs": [
						{
							"internalType": "address",
							"name": "",
							"type": "address"
						}
					],
					"stateMutability": "view",
					"type": "function"
				},
				{
					"inputs": [],
					"name": "showBids",
					"outputs": [
						{
							"components": [
								{
									"internalType": "address",
									"name": "bidder",
									"type": "address"
								},
								{
									"internalType": "uint256",
									"name": "amount",
									"type": "uint256"
								}
							],
							"internalType": "struct AuctETH.Bid[]",
							"name": "",
							"type": "tuple[]"
						}
					],
					"stateMutability": "view",
					"type": "function"
				},
				{
					"inputs": [],
					"name": "showCurrentBid",
					"outputs": [
						{
							"internalType": "uint256",
							"name": "",
							"type": "uint256"
						}
					],
					"stateMutability": "view",
					"type": "function"
				},
				{
					"inputs": [],
					"name": "winner",
					"outputs": [
						{
							"internalType": "address",
							"name": "",
							"type": "address"
						}
					],
					"stateMutability": "view",
					"type": "function"
				}
			],
			"devdoc": {
				"author": "Ivan Carneiro",
				"details": "Implements features like bid increments, automatic extensions, and refunds with commission",
				"errors": {
					"StringsInsufficientHexLength(uint256,uint256)": [
						{
							"details": "The `value` string doesn't fit in the specified `length`."
						}
					]
				},
				"kind": "dev",
				"methods": {
					"constructor": {
						"params": {
							"_bidIncrement": "The minimum bid increment (in percentage).",
							"_duration": "The duration of the auction (in seconds).",
							"_initValue": "The initial value of the auction item."
						}
					},
					"getBids()": {
						"returns": {
							"_0": "A JSON string."
						}
					},
					"incrementalPercentage()": {
						"returns": {
							"_0": "The minimum bid increment percentage."
						}
					},
					"makeBid()": {
						"details": "Requires bid value to exceed current bid by minimum increment."
					},
					"showBids()": {
						"returns": {
							"_0": "An array of Bid structs."
						}
					},
					"showCurrentBid()": {
						"returns": {
							"_0": "The current bid value."
						}
					}
				},
				"title": "AuctETH - A smart contract for Ethereum-based auctions",
				"version": 1
			},
			"evm": {
				"assembly": "    /* \"contracts/Tp_Final_Mod02/AuctETH.sol\":431:5345  contract AuctETH {... */\n  mstore(0x40, 0x80)\n    /* \"contracts/Tp_Final_Mod02/AuctETH.sol\":1147:1531  constructor(uint256 _initValue, uint256 _bidIncrement, uint256 _duration) {... */\n  callvalue\n  dup1\n  iszero\n  tag_1\n  jumpi\n  revert(0x00, 0x00)\ntag_1:\n  pop\n  mload(0x40)\n  sub(codesize, bytecodeSize)\n  dup1\n  bytecodeSize\n  dup4\n  codecopy\n  dup2\n  dup2\n  add\n  0x40\n  mstore\n  dup2\n  add\n  swap1\n  tag_2\n  swap2\n  swap1\n  tag_3\n  jump\t// in\ntag_2:\n    /* \"contracts/Tp_Final_Mod02/AuctETH.sol\":1252:1253  0 */\n  0x00\n    /* \"contracts/Tp_Final_Mod02/AuctETH.sol\":1239:1249  _initValue */\n  dup4\n    /* \"contracts/Tp_Final_Mod02/AuctETH.sol\":1239:1253  _initValue > 0 */\n  gt\n    /* \"contracts/Tp_Final_Mod02/AuctETH.sol\":1231:1309  require(_initValue > 0, \"The initial value must be greater than zero for gas\") */\n  tag_6\n  jumpi\n  mload(0x40)\n  0x08c379a000000000000000000000000000000000000000000000000000000000\n  dup2\n  mstore\n  0x04\n  add\n  tag_7\n  swap1\n  tag_8\n  jump\t// in\ntag_7:\n  mload(0x40)\n  dup1\n  swap2\n  sub\n  swap1\n  revert\ntag_6:\n    /* \"contracts/Tp_Final_Mod02/AuctETH.sol\":1327:1337  msg.sender */\n  caller\n    /* \"contracts/Tp_Final_Mod02/AuctETH.sol\":1319:1324  owner */\n  0x00\n  0x00\n    /* \"contracts/Tp_Final_Mod02/AuctETH.sol\":1319:1337  owner = msg.sender */\n  0x0100\n  exp\n  dup2\n  sload\n  dup2\n  0xffffffffffffffffffffffffffffffffffffffff\n  mul\n  not\n  and\n  swap1\n  dup4\n  0xffffffffffffffffffffffffffffffffffffffff\n  and\n  mul\n  or\n  swap1\n  sstore\n  pop\n    /* \"contracts/Tp_Final_Mod02/AuctETH.sol\":1359:1369  _initValue */\n  dup3\n    /* \"contracts/Tp_Final_Mod02/AuctETH.sol\":1347:1356  initValue */\n  0x02\n    /* \"contracts/Tp_Final_Mod02/AuctETH.sol\":1347:1369  initValue = _initValue */\n  dup2\n  swap1\n  sstore\n  pop\n    /* \"contracts/Tp_Final_Mod02/AuctETH.sol\":1392:1402  _initValue */\n  dup3\n    /* \"contracts/Tp_Final_Mod02/AuctETH.sol\":1379:1389  currentBid */\n  0x03\n    /* \"contracts/Tp_Final_Mod02/AuctETH.sol\":1379:1402  currentBid = _initValue */\n  dup2\n  swap1\n  sstore\n  pop\n    /* \"contracts/Tp_Final_Mod02/AuctETH.sol\":1427:1440  _bidIncrement */\n  dup2\n    /* \"contracts/Tp_Final_Mod02/AuctETH.sol\":1412:1424  bidIncrement */\n  0x04\n    /* \"contracts/Tp_Final_Mod02/AuctETH.sol\":1412:1440  bidIncrement = _bidIncrement */\n  dup2\n  swap1\n  sstore\n  pop\n    /* \"contracts/Tp_Final_Mod02/AuctETH.sol\":1461:1470  _duration */\n  dup1\n    /* \"contracts/Tp_Final_Mod02/AuctETH.sol\":1450:1458  duration */\n  0x05\n    /* \"contracts/Tp_Final_Mod02/AuctETH.sol\":1450:1470  duration = _duration */\n  dup2\n  swap1\n  sstore\n  pop\n    /* \"contracts/Tp_Final_Mod02/AuctETH.sol\":1516:1524  duration */\n  sload(0x05)\n    /* \"contracts/Tp_Final_Mod02/AuctETH.sol\":1498:1513  block.timestamp */\n  timestamp\n    /* \"contracts/Tp_Final_Mod02/AuctETH.sol\":1498:1524  block.timestamp + duration */\n  tag_9\n  swap2\n  swap1\n  tag_10\n  jump\t// in\ntag_9:\n    /* \"contracts/Tp_Final_Mod02/AuctETH.sol\":1480:1495  finishTimestamp */\n  0x06\n    /* \"contracts/Tp_Final_Mod02/AuctETH.sol\":1480:1524  finishTimestamp = block.timestamp + duration */\n  dup2\n  swap1\n  sstore\n  pop\n    /* \"contracts/Tp_Final_Mod02/AuctETH.sol\":1147:1531  constructor(uint256 _initValue, uint256 _bidIncrement, uint256 _duration) {... */\n  pop\n  pop\n  pop\n    /* \"contracts/Tp_Final_Mod02/AuctETH.sol\":431:5345  contract AuctETH {... */\n  jump(tag_11)\n    /* \"#utility.yul\":88:205   */\ntag_13:\n    /* \"#utility.yul\":197:198   */\n  0x00\n    /* \"#utility.yul\":194:195   */\n  0x00\n    /* \"#utility.yul\":187:199   */\n  revert\n    /* \"#utility.yul\":334:411   */\ntag_15:\n    /* \"#utility.yul\":371:378   */\n  0x00\n    /* \"#utility.yul\":400:405   */\n  dup2\n    /* \"#utility.yul\":389:405   */\n  swap1\n  pop\n    /* \"#utility.yul\":334:411   */\n  swap2\n  swap1\n  pop\n  jump\t// out\n    /* \"#utility.yul\":417:539   */\ntag_16:\n    /* \"#utility.yul\":490:514   */\n  tag_28\n    /* \"#utility.yul\":508:513   */\n  dup2\n    /* \"#utility.yul\":490:514   */\n  tag_15\n  jump\t// in\ntag_28:\n    /* \"#utility.yul\":483:488   */\n  dup2\n    /* \"#utility.yul\":480:515   */\n  eq\n    /* \"#utility.yul\":470:533   */\n  tag_29\n  jumpi\n    /* \"#utility.yul\":529:530   */\n  0x00\n    /* \"#utility.yul\":526:527   */\n  0x00\n    /* \"#utility.yul\":519:531   */\n  revert\n    /* \"#utility.yul\":470:533   */\ntag_29:\n    /* \"#utility.yul\":417:539   */\n  pop\n  jump\t// out\n    /* \"#utility.yul\":545:688   */\ntag_17:\n    /* \"#utility.yul\":602:607   */\n  0x00\n    /* \"#utility.yul\":633:639   */\n  dup2\n    /* \"#utility.yul\":627:640   */\n  mload\n    /* \"#utility.yul\":618:640   */\n  swap1\n  pop\n    /* \"#utility.yul\":649:682   */\n  tag_31\n    /* \"#utility.yul\":676:681   */\n  dup2\n    /* \"#utility.yul\":649:682   */\n  tag_16\n  jump\t// in\ntag_31:\n    /* \"#utility.yul\":545:688   */\n  swap3\n  swap2\n  pop\n  pop\n  jump\t// out\n    /* \"#utility.yul\":694:1357   */\ntag_3:\n    /* \"#utility.yul\":782:788   */\n  0x00\n    /* \"#utility.yul\":790:796   */\n  0x00\n    /* \"#utility.yul\":798:804   */\n  0x00\n    /* \"#utility.yul\":847:849   */\n  0x60\n    /* \"#utility.yul\":835:844   */\n  dup5\n    /* \"#utility.yul\":826:833   */\n  dup7\n    /* \"#utility.yul\":822:845   */\n  sub\n    /* \"#utility.yul\":818:850   */\n  slt\n    /* \"#utility.yul\":815:934   */\n  iszero\n  tag_33\n  jumpi\n    /* \"#utility.yul\":853:932   */\n  tag_34\n  tag_13\n  jump\t// in\ntag_34:\n    /* \"#utility.yul\":815:934   */\ntag_33:\n    /* \"#utility.yul\":973:974   */\n  0x00\n    /* \"#utility.yul\":998:1062   */\n  tag_35\n    /* \"#utility.yul\":1054:1061   */\n  dup7\n    /* \"#utility.yul\":1045:1051   */\n  dup3\n    /* \"#utility.yul\":1034:1043   */\n  dup8\n    /* \"#utility.yul\":1030:1052   */\n  add\n    /* \"#utility.yul\":998:1062   */\n  tag_17\n  jump\t// in\ntag_35:\n    /* \"#utility.yul\":988:1062   */\n  swap4\n  pop\n    /* \"#utility.yul\":944:1072   */\n  pop\n    /* \"#utility.yul\":1111:1113   */\n  0x20\n    /* \"#utility.yul\":1137:1201   */\n  tag_36\n    /* \"#utility.yul\":1193:1200   */\n  dup7\n    /* \"#utility.yul\":1184:1190   */\n  dup3\n    /* \"#utility.yul\":1173:1182   */\n  dup8\n    /* \"#utility.yul\":1169:1191   */\n  add\n    /* \"#utility.yul\":1137:1201   */\n  tag_17\n  jump\t// in\ntag_36:\n    /* \"#utility.yul\":1127:1201   */\n  swap3\n  pop\n    /* \"#utility.yul\":1082:1211   */\n  pop\n    /* \"#utility.yul\":1250:1252   */\n  0x40\n    /* \"#utility.yul\":1276:1340   */\n  tag_37\n    /* \"#utility.yul\":1332:1339   */\n  dup7\n    /* \"#utility.yul\":1323:1329   */\n  dup3\n    /* \"#utility.yul\":1312:1321   */\n  dup8\n    /* \"#utility.yul\":1308:1330   */\n  add\n    /* \"#utility.yul\":1276:1340   */\n  tag_17\n  jump\t// in\ntag_37:\n    /* \"#utility.yul\":1266:1340   */\n  swap2\n  pop\n    /* \"#utility.yul\":1221:1350   */\n  pop\n    /* \"#utility.yul\":694:1357   */\n  swap3\n  pop\n  swap3\n  pop\n  swap3\n  jump\t// out\n    /* \"#utility.yul\":1363:1532   */\ntag_18:\n    /* \"#utility.yul\":1447:1458   */\n  0x00\n    /* \"#utility.yul\":1481:1487   */\n  dup3\n    /* \"#utility.yul\":1476:1479   */\n  dup3\n    /* \"#utility.yul\":1469:1488   */\n  mstore\n    /* \"#utility.yul\":1521:1525   */\n  0x20\n    /* \"#utility.yul\":1516:1519   */\n  dup3\n    /* \"#utility.yul\":1512:1526   */\n  add\n    /* \"#utility.yul\":1497:1526   */\n  swap1\n  pop\n    /* \"#utility.yul\":1363:1532   */\n  swap3\n  swap2\n  pop\n  pop\n  jump\t// out\n    /* \"#utility.yul\":1538:1776   */\ntag_19:\n    /* \"#utility.yul\":1678:1712   */\n  0x54686520696e697469616c2076616c7565206d75737420626520677265617465\n    /* \"#utility.yul\":1674:1675   */\n  0x00\n    /* \"#utility.yul\":1666:1672   */\n  dup3\n    /* \"#utility.yul\":1662:1676   */\n  add\n    /* \"#utility.yul\":1655:1713   */\n  mstore\n    /* \"#utility.yul\":1747:1768   */\n  0x72207468616e207a65726f20666f722067617300000000000000000000000000\n    /* \"#utility.yul\":1742:1744   */\n  0x20\n    /* \"#utility.yul\":1734:1740   */\n  dup3\n    /* \"#utility.yul\":1730:1745   */\n  add\n    /* \"#utility.yul\":1723:1769   */\n  mstore\n    /* \"#utility.yul\":1538:1776   */\n  pop\n  jump\t// out\n    /* \"#utility.yul\":1782:2148   */\ntag_20:\n    /* \"#utility.yul\":1924:1927   */\n  0x00\n    /* \"#utility.yul\":1945:2012   */\n  tag_41\n    /* \"#utility.yul\":2009:2011   */\n  0x33\n    /* \"#utility.yul\":2004:2007   */\n  dup4\n    /* \"#utility.yul\":1945:2012   */\n  tag_18\n  jump\t// in\ntag_41:\n    /* \"#utility.yul\":1938:2012   */\n  swap2\n  pop\n    /* \"#utility.yul\":2021:2114   */\n  tag_42\n    /* \"#utility.yul\":2110:2113   */\n  dup3\n    /* \"#utility.yul\":2021:2114   */\n  tag_19\n  jump\t// in\ntag_42:\n    /* \"#utility.yul\":2139:2141   */\n  0x40\n    /* \"#utility.yul\":2134:2137   */\n  dup3\n    /* \"#utility.yul\":2130:2142   */\n  add\n    /* \"#utility.yul\":2123:2142   */\n  swap1\n  pop\n    /* \"#utility.yul\":1782:2148   */\n  swap2\n  swap1\n  pop\n  jump\t// out\n    /* \"#utility.yul\":2154:2573   */\ntag_8:\n    /* \"#utility.yul\":2320:2324   */\n  0x00\n    /* \"#utility.yul\":2358:2360   */\n  0x20\n    /* \"#utility.yul\":2347:2356   */\n  dup3\n    /* \"#utility.yul\":2343:2361   */\n  add\n    /* \"#utility.yul\":2335:2361   */\n  swap1\n  pop\n    /* \"#utility.yul\":2407:2416   */\n  dup2\n    /* \"#utility.yul\":2401:2405   */\n  dup2\n    /* \"#utility.yul\":2397:2417   */\n  sub\n    /* \"#utility.yul\":2393:2394   */\n  0x00\n    /* \"#utility.yul\":2382:2391   */\n  dup4\n    /* \"#utility.yul\":2378:2395   */\n  add\n    /* \"#utility.yul\":2371:2418   */\n  mstore\n    /* \"#utility.yul\":2435:2566   */\n  tag_44\n    /* \"#utility.yul\":2561:2565   */\n  dup2\n    /* \"#utility.yul\":2435:2566   */\n  tag_20\n  jump\t// in\ntag_44:\n    /* \"#utility.yul\":2427:2566   */\n  swap1\n  pop\n    /* \"#utility.yul\":2154:2573   */\n  swap2\n  swap1\n  pop\n  jump\t// out\n    /* \"#utility.yul\":2579:2759   */\ntag_21:\n    /* \"#utility.yul\":2627:2704   */\n  0x4e487b7100000000000000000000000000000000000000000000000000000000\n    /* \"#utility.yul\":2624:2625   */\n  0x00\n    /* \"#utility.yul\":2617:2705   */\n  mstore\n    /* \"#utility.yul\":2724:2728   */\n  0x11\n    /* \"#utility.yul\":2721:2722   */\n  0x04\n    /* \"#utility.yul\":2714:2729   */\n  mstore\n    /* \"#utility.yul\":2748:2752   */\n  0x24\n    /* \"#utility.yul\":2745:2746   */\n  0x00\n    /* \"#utility.yul\":2738:2753   */\n  revert\n    /* \"#utility.yul\":2765:2956   */\ntag_10:\n    /* \"#utility.yul\":2805:2808   */\n  0x00\n    /* \"#utility.yul\":2824:2844   */\n  tag_47\n    /* \"#utility.yul\":2842:2843   */\n  dup3\n    /* \"#utility.yul\":2824:2844   */\n  tag_15\n  jump\t// in\ntag_47:\n    /* \"#utility.yul\":2819:2844   */\n  swap2\n  pop\n    /* \"#utility.yul\":2858:2878   */\n  tag_48\n    /* \"#utility.yul\":2876:2877   */\n  dup4\n    /* \"#utility.yul\":2858:2878   */\n  tag_15\n  jump\t// in\ntag_48:\n    /* \"#utility.yul\":2853:2878   */\n  swap3\n  pop\n    /* \"#utility.yul\":2901:2902   */\n  dup3\n    /* \"#utility.yul\":2898:2899   */\n  dup3\n    /* \"#utility.yul\":2894:2903   */\n  add\n    /* \"#utility.yul\":2887:2903   */\n  swap1\n  pop\n    /* \"#utility.yul\":2922:2925   */\n  dup1\n    /* \"#utility.yul\":2919:2920   */\n  dup3\n    /* \"#utility.yul\":2916:2926   */\n  gt\n    /* \"#utility.yul\":2913:2949   */\n  iszero\n  tag_49\n  jumpi\n    /* \"#utility.yul\":2929:2947   */\n  tag_50\n  tag_21\n  jump\t// in\ntag_50:\n    /* \"#utility.yul\":2913:2949   */\ntag_49:\n    /* \"#utility.yul\":2765:2956   */\n  swap3\n  swap2\n  pop\n  pop\n  jump\t// out\n    /* \"contracts/Tp_Final_Mod02/AuctETH.sol\":431:5345  contract AuctETH {... */\ntag_11:\n  dataSize(sub_0)\n  dup1\n  dataOffset(sub_0)\n  0x00\n  codecopy\n  0x00\n  return\nstop\n\nsub_0: assembly {\n        /* \"contracts/Tp_Final_Mod02/AuctETH.sol\":431:5345  contract AuctETH {... */\n      mstore(0x40, 0x80)\n      jumpi(tag_1, lt(calldatasize, 0x04))\n      shr(0xe0, calldataload(0x00))\n      dup1\n      0x8da5cb5b\n      gt\n      tag_16\n      jumpi\n      dup1\n      0xdef18101\n      gt\n      tag_17\n      jumpi\n      dup1\n      0xdef18101\n      eq\n      tag_12\n      jumpi\n      dup1\n      0xdfbf53ae\n      eq\n      tag_13\n      jumpi\n      dup1\n      0xf30e3658\n      eq\n      tag_14\n      jumpi\n      dup1\n      0xfcc8f793\n      eq\n      tag_15\n      jumpi\n      jump(tag_1)\n    tag_17:\n      dup1\n      0x8da5cb5b\n      eq\n      tag_9\n      jumpi\n      dup1\n      0xb3cc167a\n      eq\n      tag_10\n      jumpi\n      dup1\n      0xb81c78ec\n      eq\n      tag_11\n      jumpi\n      jump(tag_1)\n    tag_16:\n      dup1\n      0x2fc36f11\n      gt\n      tag_18\n      jumpi\n      dup1\n      0x2fc36f11\n      eq\n      tag_5\n      jumpi\n      dup1\n      0x383e77cb\n      eq\n      tag_6\n      jumpi\n      dup1\n      0x38ed8c3f\n      eq\n      tag_7\n      jumpi\n      dup1\n      0x43d7d321\n      eq\n      tag_8\n      jumpi\n      jump(tag_1)\n    tag_18:\n      dup1\n      0x0fb5a6b4\n      eq\n      tag_2\n      jumpi\n      dup1\n      0x14d2687c\n      eq\n      tag_3\n      jumpi\n      dup1\n      0x2fb3c48f\n      eq\n      tag_4\n      jumpi\n    tag_1:\n      revert(0x00, 0x00)\n        /* \"contracts/Tp_Final_Mod02/AuctETH.sol\":767:790  uint256 public duration */\n    tag_2:\n      callvalue\n      dup1\n      iszero\n      tag_19\n      jumpi\n      revert(0x00, 0x00)\n    tag_19:\n      pop\n      tag_20\n      tag_21\n      jump\t// in\n    tag_20:\n      mload(0x40)\n      tag_22\n      swap2\n      swap1\n      tag_23\n      jump\t// in\n    tag_22:\n      mload(0x40)\n      dup1\n      swap2\n      sub\n      swap1\n      return\n        /* \"contracts/Tp_Final_Mod02/AuctETH.sol\":4030:4335  function showBids() public view returns (Bid[] memory) {... */\n    tag_3:\n      callvalue\n      dup1\n      iszero\n      tag_24\n      jumpi\n      revert(0x00, 0x00)\n    tag_24:\n      pop\n      tag_25\n      tag_26\n      jump\t// in\n    tag_25:\n      mload(0x40)\n      tag_27\n      swap2\n      swap1\n      tag_28\n      jump\t// in\n    tag_27:\n      mload(0x40)\n      dup1\n      swap2\n      sub\n      swap1\n      return\n        /* \"contracts/Tp_Final_Mod02/AuctETH.sol\":1957:1989  address[] public bidderAddresses */\n    tag_4:\n      callvalue\n      dup1\n      iszero\n      tag_29\n      jumpi\n      revert(0x00, 0x00)\n    tag_29:\n      pop\n      tag_30\n      0x04\n      dup1\n      calldatasize\n      sub\n      dup2\n      add\n      swap1\n      tag_31\n      swap2\n      swap1\n      tag_32\n      jump\t// in\n    tag_31:\n      tag_33\n      jump\t// in\n    tag_30:\n      mload(0x40)\n      tag_34\n      swap2\n      swap1\n      tag_35\n      jump\t// in\n    tag_34:\n      mload(0x40)\n      dup1\n      swap2\n      sub\n      swap1\n      return\n        /* \"contracts/Tp_Final_Mod02/AuctETH.sol\":589:613  uint256 public initValue */\n    tag_5:\n      callvalue\n      dup1\n      iszero\n      tag_36\n      jumpi\n      revert(0x00, 0x00)\n    tag_36:\n      pop\n      tag_37\n      tag_38\n      jump\t// in\n    tag_37:\n      mload(0x40)\n      tag_39\n      swap2\n      swap1\n      tag_23\n      jump\t// in\n    tag_39:\n      mload(0x40)\n      dup1\n      swap2\n      sub\n      swap1\n      return\n        /* \"contracts/Tp_Final_Mod02/AuctETH.sol\":2637:2729  function showCurrentBid() external view returns (uint256) {... */\n    tag_6:\n      callvalue\n      dup1\n      iszero\n      tag_40\n      jumpi\n      revert(0x00, 0x00)\n    tag_40:\n      pop\n      tag_41\n      tag_42\n      jump\t// in\n    tag_41:\n      mload(0x40)\n      tag_43\n      swap2\n      swap1\n      tag_23\n      jump\t// in\n    tag_43:\n      mload(0x40)\n      dup1\n      swap2\n      sub\n      swap1\n      return\n        /* \"contracts/Tp_Final_Mod02/AuctETH.sol\":2851:2952  function incrementalPercentage() external view returns (uint256) {... */\n    tag_7:\n      callvalue\n      dup1\n      iszero\n      tag_44\n      jumpi\n      revert(0x00, 0x00)\n    tag_44:\n      pop\n      tag_45\n      tag_46\n      jump\t// in\n    tag_45:\n      mload(0x40)\n      tag_47\n      swap2\n      swap1\n      tag_23\n      jump\t// in\n    tag_47:\n      mload(0x40)\n      dup1\n      swap2\n      sub\n      swap1\n      return\n        /* \"contracts/Tp_Final_Mod02/AuctETH.sol\":826:856  uint256 public finishTimestamp */\n    tag_8:\n      callvalue\n      dup1\n      iszero\n      tag_48\n      jumpi\n      revert(0x00, 0x00)\n    tag_48:\n      pop\n      tag_49\n      tag_50\n      jump\t// in\n    tag_49:\n      mload(0x40)\n      tag_51\n      swap2\n      swap1\n      tag_23\n      jump\t// in\n    tag_51:\n      mload(0x40)\n      dup1\n      swap2\n      sub\n      swap1\n      return\n        /* \"contracts/Tp_Final_Mod02/AuctETH.sol\":480:500  address public owner */\n    tag_9:\n      callvalue\n      dup1\n      iszero\n      tag_52\n      jumpi\n      revert(0x00, 0x00)\n    tag_52:\n      pop\n      tag_53\n      tag_54\n      jump\t// in\n    tag_53:\n      mload(0x40)\n      tag_55\n      swap2\n      swap1\n      tag_35\n      jump\t// in\n    tag_55:\n      mload(0x40)\n      dup1\n      swap2\n      sub\n      swap1\n      return\n        /* \"contracts/Tp_Final_Mod02/AuctETH.sol\":696:723  uint256 public bidIncrement */\n    tag_10:\n      callvalue\n      dup1\n      iszero\n      tag_56\n      jumpi\n      revert(0x00, 0x00)\n    tag_56:\n      pop\n      tag_57\n      tag_58\n      jump\t// in\n    tag_57:\n      mload(0x40)\n      tag_59\n      swap2\n      swap1\n      tag_23\n      jump\t// in\n    tag_59:\n      mload(0x40)\n      dup1\n      swap2\n      sub\n      swap1\n      return\n        /* \"contracts/Tp_Final_Mod02/AuctETH.sol\":4499:5342  function getBids() public view returns (string memory) {... */\n    tag_11:\n      callvalue\n      dup1\n      iszero\n      tag_60\n      jumpi\n      revert(0x00, 0x00)\n    tag_60:\n      pop\n      tag_61\n      tag_62\n      jump\t// in\n    tag_61:\n      mload(0x40)\n      tag_63\n      swap2\n      swap1\n      tag_64\n      jump\t// in\n    tag_63:\n      mload(0x40)\n      dup1\n      swap2\n      sub\n      swap1\n      return\n        /* \"contracts/Tp_Final_Mod02/AuctETH.sol\":644:669  uint256 public currentBid */\n    tag_12:\n      callvalue\n      dup1\n      iszero\n      tag_65\n      jumpi\n      revert(0x00, 0x00)\n    tag_65:\n      pop\n      tag_66\n      tag_67\n      jump\t// in\n    tag_66:\n      mload(0x40)\n      tag_68\n      swap2\n      swap1\n      tag_23\n      jump\t// in\n    tag_68:\n      mload(0x40)\n      dup1\n      swap2\n      sub\n      swap1\n      return\n        /* \"contracts/Tp_Final_Mod02/AuctETH.sol\":534:555  address public winner */\n    tag_13:\n      callvalue\n      dup1\n      iszero\n      tag_69\n      jumpi\n      revert(0x00, 0x00)\n    tag_69:\n      pop\n      tag_70\n      tag_71\n      jump\t// in\n    tag_70:\n      mload(0x40)\n      tag_72\n      swap2\n      swap1\n      tag_35\n      jump\t// in\n    tag_72:\n      mload(0x40)\n      dup1\n      swap2\n      sub\n      swap1\n      return\n        /* \"contracts/Tp_Final_Mod02/AuctETH.sol\":3068:3937  function makeBid() external payable auctionOpened {... */\n    tag_14:\n      tag_73\n      tag_74\n      jump\t// in\n    tag_73:\n      stop\n        /* \"contracts/Tp_Final_Mod02/AuctETH.sol\":1877:1918  mapping(address => Bidder) public bidders */\n    tag_15:\n      callvalue\n      dup1\n      iszero\n      tag_75\n      jumpi\n      revert(0x00, 0x00)\n    tag_75:\n      pop\n      tag_76\n      0x04\n      dup1\n      calldatasize\n      sub\n      dup2\n      add\n      swap1\n      tag_77\n      swap2\n      swap1\n      tag_78\n      jump\t// in\n    tag_77:\n      tag_79\n      jump\t// in\n    tag_76:\n      mload(0x40)\n      tag_80\n      swap4\n      swap3\n      swap2\n      swap1\n      tag_81\n      jump\t// in\n    tag_80:\n      mload(0x40)\n      dup1\n      swap2\n      sub\n      swap1\n      return\n        /* \"contracts/Tp_Final_Mod02/AuctETH.sol\":767:790  uint256 public duration */\n    tag_21:\n      sload(0x05)\n      dup2\n      jump\t// out\n        /* \"contracts/Tp_Final_Mod02/AuctETH.sol\":4030:4335  function showBids() public view returns (Bid[] memory) {... */\n    tag_26:\n        /* \"contracts/Tp_Final_Mod02/AuctETH.sol\":4071:4083  Bid[] memory */\n      0x60\n        /* \"contracts/Tp_Final_Mod02/AuctETH.sol\":4095:4112  Bid[] memory bids */\n      0x00\n        /* \"contracts/Tp_Final_Mod02/AuctETH.sol\":4125:4140  bidderAddresses */\n      0x08\n        /* \"contracts/Tp_Final_Mod02/AuctETH.sol\":4125:4147  bidderAddresses.length */\n      dup1\n      sload\n      swap1\n      pop\n        /* \"contracts/Tp_Final_Mod02/AuctETH.sol\":4115:4148  new Bid[](bidderAddresses.length) */\n      0xffffffffffffffff\n      dup2\n      gt\n      iszero\n      tag_83\n      jumpi\n      tag_84\n      tag_85\n      jump\t// in\n    tag_84:\n    tag_83:\n      mload(0x40)\n      swap1\n      dup1\n      dup3\n      mstore\n      dup1\n      0x20\n      mul\n      0x20\n      add\n      dup3\n      add\n      0x40\n      mstore\n      dup1\n      iszero\n      tag_86\n      jumpi\n      dup2\n      0x20\n      add\n    tag_87:\n      tag_88\n      tag_89\n      jump\t// in\n    tag_88:\n      dup2\n      mstore\n      0x20\n      add\n      swap1\n      0x01\n      swap1\n      sub\n      swap1\n      dup2\n      tag_87\n      jumpi\n      swap1\n      pop\n    tag_86:\n      pop\n        /* \"contracts/Tp_Final_Mod02/AuctETH.sol\":4095:4148  Bid[] memory bids = new Bid[](bidderAddresses.length) */\n      swap1\n      pop\n        /* \"contracts/Tp_Final_Mod02/AuctETH.sol\":4164:4173  uint256 i */\n      0x00\n        /* \"contracts/Tp_Final_Mod02/AuctETH.sol\":4176:4177  0 */\n      0x00\n        /* \"contracts/Tp_Final_Mod02/AuctETH.sol\":4164:4177  uint256 i = 0 */\n      swap1\n      pop\n        /* \"contracts/Tp_Final_Mod02/AuctETH.sol\":4159:4307  for (uint256 i = 0; i < bidderAddresses.length; i++) {... */\n    tag_90:\n        /* \"contracts/Tp_Final_Mod02/AuctETH.sol\":4183:4198  bidderAddresses */\n      0x08\n        /* \"contracts/Tp_Final_Mod02/AuctETH.sol\":4183:4205  bidderAddresses.length */\n      dup1\n      sload\n      swap1\n      pop\n        /* \"contracts/Tp_Final_Mod02/AuctETH.sol\":4179:4180  i */\n      dup2\n        /* \"contracts/Tp_Final_Mod02/AuctETH.sol\":4179:4205  i < bidderAddresses.length */\n      lt\n        /* \"contracts/Tp_Final_Mod02/AuctETH.sol\":4159:4307  for (uint256 i = 0; i < bidderAddresses.length; i++) {... */\n      iszero\n      tag_91\n      jumpi\n        /* \"contracts/Tp_Final_Mod02/AuctETH.sol\":4236:4296  Bid(bidderAddresses[i], bidders[bidderAddresses[i]].lastBid) */\n      mload(0x40)\n      dup1\n      0x40\n      add\n      0x40\n      mstore\n      dup1\n        /* \"contracts/Tp_Final_Mod02/AuctETH.sol\":4240:4255  bidderAddresses */\n      0x08\n        /* \"contracts/Tp_Final_Mod02/AuctETH.sol\":4256:4257  i */\n      dup4\n        /* \"contracts/Tp_Final_Mod02/AuctETH.sol\":4240:4258  bidderAddresses[i] */\n      dup2\n      sload\n      dup2\n      lt\n      tag_93\n      jumpi\n      tag_94\n      tag_95\n      jump\t// in\n    tag_94:\n    tag_93:\n      swap1\n      0x00\n      mstore\n      keccak256(0x00, 0x20)\n      add\n      0x00\n      swap1\n      sload\n      swap1\n      0x0100\n      exp\n      swap1\n      div\n      0xffffffffffffffffffffffffffffffffffffffff\n      and\n        /* \"contracts/Tp_Final_Mod02/AuctETH.sol\":4236:4296  Bid(bidderAddresses[i], bidders[bidderAddresses[i]].lastBid) */\n      0xffffffffffffffffffffffffffffffffffffffff\n      and\n      dup2\n      mstore\n      0x20\n      add\n        /* \"contracts/Tp_Final_Mod02/AuctETH.sol\":4260:4267  bidders */\n      0x07\n        /* \"contracts/Tp_Final_Mod02/AuctETH.sol\":4260:4287  bidders[bidderAddresses[i]] */\n      0x00\n        /* \"contracts/Tp_Final_Mod02/AuctETH.sol\":4268:4283  bidderAddresses */\n      0x08\n        /* \"contracts/Tp_Final_Mod02/AuctETH.sol\":4284:4285  i */\n      dup6\n        /* \"contracts/Tp_Final_Mod02/AuctETH.sol\":4268:4286  bidderAddresses[i] */\n      dup2\n      sload\n      dup2\n      lt\n      tag_97\n      jumpi\n      tag_98\n      tag_95\n      jump\t// in\n    tag_98:\n    tag_97:\n      swap1\n      0x00\n      mstore\n      keccak256(0x00, 0x20)\n      add\n      0x00\n      swap1\n      sload\n      swap1\n      0x0100\n      exp\n      swap1\n      div\n      0xffffffffffffffffffffffffffffffffffffffff\n      and\n        /* \"contracts/Tp_Final_Mod02/AuctETH.sol\":4260:4287  bidders[bidderAddresses[i]] */\n      0xffffffffffffffffffffffffffffffffffffffff\n      and\n      0xffffffffffffffffffffffffffffffffffffffff\n      and\n      dup2\n      mstore\n      0x20\n      add\n      swap1\n      dup2\n      mstore\n      0x20\n      add\n      0x00\n      keccak256\n        /* \"contracts/Tp_Final_Mod02/AuctETH.sol\":4260:4295  bidders[bidderAddresses[i]].lastBid */\n      0x01\n      add\n      sload\n        /* \"contracts/Tp_Final_Mod02/AuctETH.sol\":4236:4296  Bid(bidderAddresses[i], bidders[bidderAddresses[i]].lastBid) */\n      dup2\n      mstore\n      pop\n        /* \"contracts/Tp_Final_Mod02/AuctETH.sol\":4226:4230  bids */\n      dup3\n        /* \"contracts/Tp_Final_Mod02/AuctETH.sol\":4231:4232  i */\n      dup3\n        /* \"contracts/Tp_Final_Mod02/AuctETH.sol\":4226:4233  bids[i] */\n      dup2\n      mload\n      dup2\n      lt\n      tag_100\n      jumpi\n      tag_101\n      tag_95\n      jump\t// in\n    tag_101:\n    tag_100:\n      0x20\n      mul\n      0x20\n      add\n      add\n        /* \"contracts/Tp_Final_Mod02/AuctETH.sol\":4226:4296  bids[i] = Bid(bidderAddresses[i], bidders[bidderAddresses[i]].lastBid) */\n      dup2\n      swap1\n      mstore\n      pop\n        /* \"contracts/Tp_Final_Mod02/AuctETH.sol\":4207:4210  i++ */\n      dup1\n      dup1\n      0x01\n      add\n      swap2\n      pop\n      pop\n        /* \"contracts/Tp_Final_Mod02/AuctETH.sol\":4159:4307  for (uint256 i = 0; i < bidderAddresses.length; i++) {... */\n      jump(tag_90)\n    tag_91:\n      pop\n        /* \"contracts/Tp_Final_Mod02/AuctETH.sol\":4324:4328  bids */\n      dup1\n        /* \"contracts/Tp_Final_Mod02/AuctETH.sol\":4317:4328  return bids */\n      swap2\n      pop\n      pop\n        /* \"contracts/Tp_Final_Mod02/AuctETH.sol\":4030:4335  function showBids() public view returns (Bid[] memory) {... */\n      swap1\n      jump\t// out\n        /* \"contracts/Tp_Final_Mod02/AuctETH.sol\":1957:1989  address[] public bidderAddresses */\n    tag_33:\n      0x08\n      dup2\n      dup2\n      sload\n      dup2\n      lt\n      tag_102\n      jumpi\n      0x00\n      dup1\n      revert\n    tag_102:\n      swap1\n      0x00\n      mstore\n      keccak256(0x00, 0x20)\n      add\n      0x00\n      swap2\n      pop\n      sload\n      swap1\n      0x0100\n      exp\n      swap1\n      div\n      0xffffffffffffffffffffffffffffffffffffffff\n      and\n      dup2\n      jump\t// out\n        /* \"contracts/Tp_Final_Mod02/AuctETH.sol\":589:613  uint256 public initValue */\n    tag_38:\n      sload(0x02)\n      dup2\n      jump\t// out\n        /* \"contracts/Tp_Final_Mod02/AuctETH.sol\":2637:2729  function showCurrentBid() external view returns (uint256) {... */\n    tag_42:\n        /* \"contracts/Tp_Final_Mod02/AuctETH.sol\":2686:2693  uint256 */\n      0x00\n        /* \"contracts/Tp_Final_Mod02/AuctETH.sol\":2712:2722  currentBid */\n      sload(0x03)\n        /* \"contracts/Tp_Final_Mod02/AuctETH.sol\":2705:2722  return currentBid */\n      swap1\n      pop\n        /* \"contracts/Tp_Final_Mod02/AuctETH.sol\":2637:2729  function showCurrentBid() external view returns (uint256) {... */\n      swap1\n      jump\t// out\n        /* \"contracts/Tp_Final_Mod02/AuctETH.sol\":2851:2952  function incrementalPercentage() external view returns (uint256) {... */\n    tag_46:\n        /* \"contracts/Tp_Final_Mod02/AuctETH.sol\":2907:2914  uint256 */\n      0x00\n        /* \"contracts/Tp_Final_Mod02/AuctETH.sol\":2933:2945  bidIncrement */\n      sload(0x04)\n        /* \"contracts/Tp_Final_Mod02/AuctETH.sol\":2926:2945  return bidIncrement */\n      swap1\n      pop\n        /* \"contracts/Tp_Final_Mod02/AuctETH.sol\":2851:2952  function incrementalPercentage() external view returns (uint256) {... */\n      swap1\n      jump\t// out\n        /* \"contracts/Tp_Final_Mod02/AuctETH.sol\":826:856  uint256 public finishTimestamp */\n    tag_50:\n      sload(0x06)\n      dup2\n      jump\t// out\n        /* \"contracts/Tp_Final_Mod02/AuctETH.sol\":480:500  address public owner */\n    tag_54:\n      0x00\n      0x00\n      swap1\n      sload\n      swap1\n      0x0100\n      exp\n      swap1\n      div\n      0xffffffffffffffffffffffffffffffffffffffff\n      and\n      dup2\n      jump\t// out\n        /* \"contracts/Tp_Final_Mod02/AuctETH.sol\":696:723  uint256 public bidIncrement */\n    tag_58:\n      sload(0x04)\n      dup2\n      jump\t// out\n        /* \"contracts/Tp_Final_Mod02/AuctETH.sol\":4499:5342  function getBids() public view returns (string memory) {... */\n    tag_62:\n        /* \"contracts/Tp_Final_Mod02/AuctETH.sol\":4539:4552  string memory */\n      0x60\n        /* \"contracts/Tp_Final_Mod02/AuctETH.sol\":4605:4625  string memory result */\n      0x00\n        /* \"contracts/Tp_Final_Mod02/AuctETH.sol\":4605:4631  string memory result = \"[\" */\n      mload(0x40)\n      dup1\n      0x40\n      add\n      0x40\n      mstore\n      dup1\n      0x01\n      dup2\n      mstore\n      0x20\n      add\n      0x5b00000000000000000000000000000000000000000000000000000000000000\n      dup2\n      mstore\n      pop\n      swap1\n      pop\n        /* \"contracts/Tp_Final_Mod02/AuctETH.sol\":4690:4699  uint256 i */\n      0x00\n        /* \"contracts/Tp_Final_Mod02/AuctETH.sol\":4702:4703  0 */\n      0x00\n        /* \"contracts/Tp_Final_Mod02/AuctETH.sol\":4690:4703  uint256 i = 0 */\n      swap1\n      pop\n        /* \"contracts/Tp_Final_Mod02/AuctETH.sol\":4685:5182  for (uint256 i = 0; i < bidderAddresses.length; i++) {... */\n    tag_107:\n        /* \"contracts/Tp_Final_Mod02/AuctETH.sol\":4709:4724  bidderAddresses */\n      0x08\n        /* \"contracts/Tp_Final_Mod02/AuctETH.sol\":4709:4731  bidderAddresses.length */\n      dup1\n      sload\n      swap1\n      pop\n        /* \"contracts/Tp_Final_Mod02/AuctETH.sol\":4705:4706  i */\n      dup2\n        /* \"contracts/Tp_Final_Mod02/AuctETH.sol\":4705:4731  i < bidderAddresses.length */\n      lt\n        /* \"contracts/Tp_Final_Mod02/AuctETH.sol\":4685:5182  for (uint256 i = 0; i < bidderAddresses.length; i++) {... */\n      iszero\n      tag_108\n      jumpi\n        /* \"contracts/Tp_Final_Mod02/AuctETH.sol\":4840:4846  result */\n      dup2\n        /* \"contracts/Tp_Final_Mod02/AuctETH.sol\":4866:4905  Strings.toHexString(bidderAddresses[i]) */\n      tag_110\n        /* \"contracts/Tp_Final_Mod02/AuctETH.sol\":4886:4901  bidderAddresses */\n      0x08\n        /* \"contracts/Tp_Final_Mod02/AuctETH.sol\":4902:4903  i */\n      dup4\n        /* \"contracts/Tp_Final_Mod02/AuctETH.sol\":4886:4904  bidderAddresses[i] */\n      dup2\n      sload\n      dup2\n      lt\n      tag_111\n      jumpi\n      tag_112\n      tag_95\n      jump\t// in\n    tag_112:\n    tag_111:\n      swap1\n      0x00\n      mstore\n      keccak256(0x00, 0x20)\n      add\n      0x00\n      swap1\n      sload\n      swap1\n      0x0100\n      exp\n      swap1\n      div\n      0xffffffffffffffffffffffffffffffffffffffff\n      and\n        /* \"contracts/Tp_Final_Mod02/AuctETH.sol\":4866:4885  Strings.toHexString */\n      tag_114\n        /* \"contracts/Tp_Final_Mod02/AuctETH.sol\":4866:4905  Strings.toHexString(bidderAddresses[i]) */\n      jump\t// in\n    tag_110:\n        /* \"contracts/Tp_Final_Mod02/AuctETH.sol\":4927:4980  Strings.toString(bidders[bidderAddresses[i]].lastBid) */\n      tag_115\n        /* \"contracts/Tp_Final_Mod02/AuctETH.sol\":4944:4951  bidders */\n      0x07\n        /* \"contracts/Tp_Final_Mod02/AuctETH.sol\":4944:4971  bidders[bidderAddresses[i]] */\n      0x00\n        /* \"contracts/Tp_Final_Mod02/AuctETH.sol\":4952:4967  bidderAddresses */\n      0x08\n        /* \"contracts/Tp_Final_Mod02/AuctETH.sol\":4968:4969  i */\n      dup7\n        /* \"contracts/Tp_Final_Mod02/AuctETH.sol\":4952:4970  bidderAddresses[i] */\n      dup2\n      sload\n      dup2\n      lt\n      tag_116\n      jumpi\n      tag_117\n      tag_95\n      jump\t// in\n    tag_117:\n    tag_116:\n      swap1\n      0x00\n      mstore\n      keccak256(0x00, 0x20)\n      add\n      0x00\n      swap1\n      sload\n      swap1\n      0x0100\n      exp\n      swap1\n      div\n      0xffffffffffffffffffffffffffffffffffffffff\n      and\n        /* \"contracts/Tp_Final_Mod02/AuctETH.sol\":4944:4971  bidders[bidderAddresses[i]] */\n      0xffffffffffffffffffffffffffffffffffffffff\n      and\n      0xffffffffffffffffffffffffffffffffffffffff\n      and\n      dup2\n      mstore\n      0x20\n      add\n      swap1\n      dup2\n      mstore\n      0x20\n      add\n      0x00\n      keccak256\n        /* \"contracts/Tp_Final_Mod02/AuctETH.sol\":4944:4979  bidders[bidderAddresses[i]].lastBid */\n      0x01\n      add\n      sload\n        /* \"contracts/Tp_Final_Mod02/AuctETH.sol\":4927:4943  Strings.toString */\n      tag_119\n        /* \"contracts/Tp_Final_Mod02/AuctETH.sol\":4927:4980  Strings.toString(bidders[bidderAddresses[i]].lastBid) */\n      jump\t// in\n    tag_115:\n        /* \"contracts/Tp_Final_Mod02/AuctETH.sol\":4823:4988  abi.encodePacked(result, \"{\\\"bidder\\\":\\\"\", Strings.toHexString(bidderAddresses[i]), \"\\\",\\\"amount\\\":\\\"\", Strings.toString(bidders[bidderAddresses[i]].lastBid), \"\\\"}\") */\n      add(0x20, mload(0x40))\n      tag_120\n      swap4\n      swap3\n      swap2\n      swap1\n      tag_121\n      jump\t// in\n    tag_120:\n      mload(0x40)\n      0x20\n      dup2\n      dup4\n      sub\n      sub\n      dup2\n      mstore\n      swap1\n      0x40\n      mstore\n        /* \"contracts/Tp_Final_Mod02/AuctETH.sol\":4807:4989  result = string(abi.encodePacked(result, \"{\\\"bidder\\\":\\\"\", Strings.toHexString(bidderAddresses[i]), \"\\\",\\\"amount\\\":\\\"\", Strings.toString(bidders[bidderAddresses[i]].lastBid), \"\\\"}\")) */\n      swap2\n      pop\n        /* \"contracts/Tp_Final_Mod02/AuctETH.sol\":5090:5091  1 */\n      0x01\n        /* \"contracts/Tp_Final_Mod02/AuctETH.sol\":5065:5080  bidderAddresses */\n      0x08\n        /* \"contracts/Tp_Final_Mod02/AuctETH.sol\":5065:5087  bidderAddresses.length */\n      dup1\n      sload\n      swap1\n      pop\n        /* \"contracts/Tp_Final_Mod02/AuctETH.sol\":5065:5091  bidderAddresses.length - 1 */\n      tag_122\n      swap2\n      swap1\n      tag_123\n      jump\t// in\n    tag_122:\n        /* \"contracts/Tp_Final_Mod02/AuctETH.sol\":5061:5062  i */\n      dup2\n        /* \"contracts/Tp_Final_Mod02/AuctETH.sol\":5061:5091  i < bidderAddresses.length - 1 */\n      lt\n        /* \"contracts/Tp_Final_Mod02/AuctETH.sol\":5057:5172  if (i < bidderAddresses.length - 1) {... */\n      iszero\n      tag_124\n      jumpi\n        /* \"contracts/Tp_Final_Mod02/AuctETH.sol\":5144:5150  result */\n      dup2\n        /* \"contracts/Tp_Final_Mod02/AuctETH.sol\":5127:5156  abi.encodePacked(result, \",\") */\n      add(0x20, mload(0x40))\n      tag_125\n      swap2\n      swap1\n      tag_126\n      jump\t// in\n    tag_125:\n      mload(0x40)\n      0x20\n      dup2\n      dup4\n      sub\n      sub\n      dup2\n      mstore\n      swap1\n      0x40\n      mstore\n        /* \"contracts/Tp_Final_Mod02/AuctETH.sol\":5111:5157  result = string(abi.encodePacked(result, \",\")) */\n      swap2\n      pop\n        /* \"contracts/Tp_Final_Mod02/AuctETH.sol\":5057:5172  if (i < bidderAddresses.length - 1) {... */\n    tag_124:\n        /* \"contracts/Tp_Final_Mod02/AuctETH.sol\":4733:4736  i++ */\n      dup1\n      dup1\n      0x01\n      add\n      swap2\n      pop\n      pop\n        /* \"contracts/Tp_Final_Mod02/AuctETH.sol\":4685:5182  for (uint256 i = 0; i < bidderAddresses.length; i++) {... */\n      jump(tag_107)\n    tag_108:\n      pop\n        /* \"contracts/Tp_Final_Mod02/AuctETH.sol\":5259:5265  result */\n      dup1\n        /* \"contracts/Tp_Final_Mod02/AuctETH.sol\":5242:5271  abi.encodePacked(result, \"]\") */\n      add(0x20, mload(0x40))\n      tag_127\n      swap2\n      swap1\n      tag_128\n      jump\t// in\n    tag_127:\n      mload(0x40)\n      0x20\n      dup2\n      dup4\n      sub\n      sub\n      dup2\n      mstore\n      swap1\n      0x40\n      mstore\n        /* \"contracts/Tp_Final_Mod02/AuctETH.sol\":5226:5272  result = string(abi.encodePacked(result, \"]\")) */\n      swap1\n      pop\n        /* \"contracts/Tp_Final_Mod02/AuctETH.sol\":5325:5331  result */\n      dup1\n        /* \"contracts/Tp_Final_Mod02/AuctETH.sol\":5318:5331  return result */\n      swap2\n      pop\n      pop\n        /* \"contracts/Tp_Final_Mod02/AuctETH.sol\":4499:5342  function getBids() public view returns (string memory) {... */\n      swap1\n      jump\t// out\n        /* \"contracts/Tp_Final_Mod02/AuctETH.sol\":644:669  uint256 public currentBid */\n    tag_67:\n      sload(0x03)\n      dup2\n      jump\t// out\n        /* \"contracts/Tp_Final_Mod02/AuctETH.sol\":534:555  address public winner */\n    tag_71:\n      0x01\n      0x00\n      swap1\n      sload\n      swap1\n      0x0100\n      exp\n      swap1\n      div\n      0xffffffffffffffffffffffffffffffffffffffff\n      and\n      dup2\n      jump\t// out\n        /* \"contracts/Tp_Final_Mod02/AuctETH.sol\":3068:3937  function makeBid() external payable auctionOpened {... */\n    tag_74:\n        /* \"contracts/Tp_Final_Mod02/AuctETH.sol\":2349:2364  finishTimestamp */\n      sload(0x06)\n        /* \"contracts/Tp_Final_Mod02/AuctETH.sol\":2331:2346  block.timestamp */\n      timestamp\n        /* \"contracts/Tp_Final_Mod02/AuctETH.sol\":2331:2364  block.timestamp < finishTimestamp */\n      lt\n        /* \"contracts/Tp_Final_Mod02/AuctETH.sol\":2323:2390  require(block.timestamp < finishTimestamp, \"The auction has ended\") */\n      tag_130\n      jumpi\n      mload(0x40)\n      0x08c379a000000000000000000000000000000000000000000000000000000000\n      dup2\n      mstore\n      0x04\n      add\n      tag_131\n      swap1\n      tag_132\n      jump\t// in\n    tag_131:\n      mload(0x40)\n      dup1\n      swap2\n      sub\n      swap1\n      revert\n    tag_130:\n        /* \"contracts/Tp_Final_Mod02/AuctETH.sol\":3128:3142  address bidder */\n      0x00\n        /* \"contracts/Tp_Final_Mod02/AuctETH.sol\":3145:3155  msg.sender */\n      caller\n        /* \"contracts/Tp_Final_Mod02/AuctETH.sol\":3128:3155  address bidder = msg.sender */\n      swap1\n      pop\n        /* \"contracts/Tp_Final_Mod02/AuctETH.sol\":3165:3181  uint256 bidValue */\n      0x00\n        /* \"contracts/Tp_Final_Mod02/AuctETH.sol\":3184:3193  msg.value */\n      callvalue\n        /* \"contracts/Tp_Final_Mod02/AuctETH.sol\":3165:3193  uint256 bidValue = msg.value */\n      swap1\n      pop\n        /* \"contracts/Tp_Final_Mod02/AuctETH.sol\":3260:3263  100 */\n      0x64\n        /* \"contracts/Tp_Final_Mod02/AuctETH.sol\":3253:3256  100 */\n      dup1\n        /* \"contracts/Tp_Final_Mod02/AuctETH.sol\":3238:3250  bidIncrement */\n      sload(0x04)\n        /* \"contracts/Tp_Final_Mod02/AuctETH.sol\":3238:3256  bidIncrement + 100 */\n      tag_134\n      swap2\n      swap1\n      tag_135\n      jump\t// in\n    tag_134:\n        /* \"contracts/Tp_Final_Mod02/AuctETH.sol\":3224:3234  currentBid */\n      sload(0x03)\n        /* \"contracts/Tp_Final_Mod02/AuctETH.sol\":3224:3257  currentBid * (bidIncrement + 100) */\n      tag_136\n      swap2\n      swap1\n      tag_137\n      jump\t// in\n    tag_136:\n        /* \"contracts/Tp_Final_Mod02/AuctETH.sol\":3224:3263  currentBid * (bidIncrement + 100) / 100 */\n      tag_138\n      swap2\n      swap1\n      tag_139\n      jump\t// in\n    tag_138:\n        /* \"contracts/Tp_Final_Mod02/AuctETH.sol\":3212:3220  bidValue */\n      dup2\n        /* \"contracts/Tp_Final_Mod02/AuctETH.sol\":3212:3264  bidValue > (currentBid * (bidIncrement + 100) / 100) */\n      gt\n        /* \"contracts/Tp_Final_Mod02/AuctETH.sol\":3204:3346  require(bidValue > (currentBid * (bidIncrement + 100) / 100), \"The bid must outbid the best bid, considering the minimum increase percentage\") */\n      tag_140\n      jumpi\n      mload(0x40)\n      0x08c379a000000000000000000000000000000000000000000000000000000000\n      dup2\n      mstore\n      0x04\n      add\n      tag_141\n      swap1\n      tag_142\n      jump\t// in\n    tag_141:\n      mload(0x40)\n      dup1\n      swap2\n      sub\n      swap1\n      revert\n    tag_140:\n        /* \"contracts/Tp_Final_Mod02/AuctETH.sol\":3459:3462  600 */\n      0x0258\n        /* \"contracts/Tp_Final_Mod02/AuctETH.sol\":3441:3456  finishTimestamp */\n      sload(0x06)\n        /* \"contracts/Tp_Final_Mod02/AuctETH.sol\":3441:3462  finishTimestamp - 600 */\n      tag_143\n      swap2\n      swap1\n      tag_123\n      jump\t// in\n    tag_143:\n        /* \"contracts/Tp_Final_Mod02/AuctETH.sol\":3422:3437  block.timestamp */\n      timestamp\n        /* \"contracts/Tp_Final_Mod02/AuctETH.sol\":3422:3462  block.timestamp >= finishTimestamp - 600 */\n      lt\n        /* \"contracts/Tp_Final_Mod02/AuctETH.sol\":3418:3511  if (block.timestamp >= finishTimestamp - 600) {... */\n      tag_144\n      jumpi\n        /* \"contracts/Tp_Final_Mod02/AuctETH.sol\":3497:3500  600 */\n      0x0258\n        /* \"contracts/Tp_Final_Mod02/AuctETH.sol\":3478:3493  finishTimestamp */\n      0x06\n      0x00\n        /* \"contracts/Tp_Final_Mod02/AuctETH.sol\":3478:3500  finishTimestamp += 600 */\n      dup3\n      dup3\n      sload\n      tag_145\n      swap2\n      swap1\n      tag_135\n      jump\t// in\n    tag_145:\n      swap3\n      pop\n      pop\n      dup2\n      swap1\n      sstore\n      pop\n        /* \"contracts/Tp_Final_Mod02/AuctETH.sol\":3418:3511  if (block.timestamp >= finishTimestamp - 600) {... */\n    tag_144:\n        /* \"contracts/Tp_Final_Mod02/AuctETH.sol\":3597:3598  0 */\n      0x00\n        /* \"contracts/Tp_Final_Mod02/AuctETH.sol\":3564:3599  bidders[bidder].addrs != address(0) */\n      0xffffffffffffffffffffffffffffffffffffffff\n      and\n        /* \"contracts/Tp_Final_Mod02/AuctETH.sol\":3564:3571  bidders */\n      0x07\n        /* \"contracts/Tp_Final_Mod02/AuctETH.sol\":3564:3579  bidders[bidder] */\n      0x00\n        /* \"contracts/Tp_Final_Mod02/AuctETH.sol\":3572:3578  bidder */\n      dup5\n        /* \"contracts/Tp_Final_Mod02/AuctETH.sol\":3564:3579  bidders[bidder] */\n      0xffffffffffffffffffffffffffffffffffffffff\n      and\n      0xffffffffffffffffffffffffffffffffffffffff\n      and\n      dup2\n      mstore\n      0x20\n      add\n      swap1\n      dup2\n      mstore\n      0x20\n      add\n      0x00\n      keccak256\n        /* \"contracts/Tp_Final_Mod02/AuctETH.sol\":3564:3585  bidders[bidder].addrs */\n      0x00\n      add\n      0x00\n      swap1\n      sload\n      swap1\n      0x0100\n      exp\n      swap1\n      div\n      0xffffffffffffffffffffffffffffffffffffffff\n      and\n        /* \"contracts/Tp_Final_Mod02/AuctETH.sol\":3564:3599  bidders[bidder].addrs != address(0) */\n      0xffffffffffffffffffffffffffffffffffffffff\n      and\n      eq\n        /* \"contracts/Tp_Final_Mod02/AuctETH.sol\":3560:3834  if (bidders[bidder].addrs != address(0)) {... */\n      tag_146\n      jumpi\n        /* \"contracts/Tp_Final_Mod02/AuctETH.sol\":3641:3649  bidValue */\n      dup1\n        /* \"contracts/Tp_Final_Mod02/AuctETH.sol\":3615:3622  bidders */\n      0x07\n        /* \"contracts/Tp_Final_Mod02/AuctETH.sol\":3615:3630  bidders[bidder] */\n      0x00\n        /* \"contracts/Tp_Final_Mod02/AuctETH.sol\":3623:3629  bidder */\n      dup5\n        /* \"contracts/Tp_Final_Mod02/AuctETH.sol\":3615:3630  bidders[bidder] */\n      0xffffffffffffffffffffffffffffffffffffffff\n      and\n      0xffffffffffffffffffffffffffffffffffffffff\n      and\n      dup2\n      mstore\n      0x20\n      add\n      swap1\n      dup2\n      mstore\n      0x20\n      add\n      0x00\n      keccak256\n        /* \"contracts/Tp_Final_Mod02/AuctETH.sol\":3615:3638  bidders[bidder].lastBid */\n      0x01\n      add\n        /* \"contracts/Tp_Final_Mod02/AuctETH.sol\":3615:3649  bidders[bidder].lastBid = bidValue */\n      dup2\n      swap1\n      sstore\n      pop\n        /* \"contracts/Tp_Final_Mod02/AuctETH.sol\":3690:3698  bidValue */\n      dup1\n        /* \"contracts/Tp_Final_Mod02/AuctETH.sol\":3663:3670  bidders */\n      0x07\n        /* \"contracts/Tp_Final_Mod02/AuctETH.sol\":3663:3678  bidders[bidder] */\n      0x00\n        /* \"contracts/Tp_Final_Mod02/AuctETH.sol\":3671:3677  bidder */\n      dup5\n        /* \"contracts/Tp_Final_Mod02/AuctETH.sol\":3663:3678  bidders[bidder] */\n      0xffffffffffffffffffffffffffffffffffffffff\n      and\n      0xffffffffffffffffffffffffffffffffffffffff\n      and\n      dup2\n      mstore\n      0x20\n      add\n      swap1\n      dup2\n      mstore\n      0x20\n      add\n      0x00\n      keccak256\n        /* \"contracts/Tp_Final_Mod02/AuctETH.sol\":3663:3686  bidders[bidder].balance */\n      0x02\n      add\n      0x00\n        /* \"contracts/Tp_Final_Mod02/AuctETH.sol\":3663:3698  bidders[bidder].balance += bidValue */\n      dup3\n      dup3\n      sload\n      tag_147\n      swap2\n      swap1\n      tag_135\n      jump\t// in\n    tag_147:\n      swap3\n      pop\n      pop\n      dup2\n      swap1\n      sstore\n      pop\n        /* \"contracts/Tp_Final_Mod02/AuctETH.sol\":3560:3834  if (bidders[bidder].addrs != address(0)) {... */\n      jump(tag_148)\n    tag_146:\n        /* \"contracts/Tp_Final_Mod02/AuctETH.sol\":3729:3744  bidderAddresses */\n      0x08\n        /* \"contracts/Tp_Final_Mod02/AuctETH.sol\":3750:3756  bidder */\n      dup3\n        /* \"contracts/Tp_Final_Mod02/AuctETH.sol\":3729:3757  bidderAddresses.push(bidder) */\n      swap1\n      dup1\n      0x01\n      dup2\n      sload\n      add\n      dup1\n      dup3\n      sstore\n      dup1\n      swap2\n      pop\n      pop\n      0x01\n      swap1\n      sub\n      swap1\n      0x00\n      mstore\n      keccak256(0x00, 0x20)\n      add\n      0x00\n      swap1\n      swap2\n      swap1\n      swap2\n      swap1\n      swap2\n      0x0100\n      exp\n      dup2\n      sload\n      dup2\n      0xffffffffffffffffffffffffffffffffffffffff\n      mul\n      not\n      and\n      swap1\n      dup4\n      0xffffffffffffffffffffffffffffffffffffffff\n      and\n      mul\n      or\n      swap1\n      sstore\n      pop\n        /* \"contracts/Tp_Final_Mod02/AuctETH.sol\":3789:3823  Bidder(bidder, bidValue, bidValue) */\n      mload(0x40)\n      dup1\n      0x60\n      add\n      0x40\n      mstore\n      dup1\n        /* \"contracts/Tp_Final_Mod02/AuctETH.sol\":3796:3802  bidder */\n      dup4\n        /* \"contracts/Tp_Final_Mod02/AuctETH.sol\":3789:3823  Bidder(bidder, bidValue, bidValue) */\n      0xffffffffffffffffffffffffffffffffffffffff\n      and\n      dup2\n      mstore\n      0x20\n      add\n        /* \"contracts/Tp_Final_Mod02/AuctETH.sol\":3804:3812  bidValue */\n      dup3\n        /* \"contracts/Tp_Final_Mod02/AuctETH.sol\":3789:3823  Bidder(bidder, bidValue, bidValue) */\n      dup2\n      mstore\n      0x20\n      add\n        /* \"contracts/Tp_Final_Mod02/AuctETH.sol\":3814:3822  bidValue */\n      dup3\n        /* \"contracts/Tp_Final_Mod02/AuctETH.sol\":3789:3823  Bidder(bidder, bidValue, bidValue) */\n      dup2\n      mstore\n      pop\n        /* \"contracts/Tp_Final_Mod02/AuctETH.sol\":3771:3778  bidders */\n      0x07\n        /* \"contracts/Tp_Final_Mod02/AuctETH.sol\":3771:3786  bidders[bidder] */\n      0x00\n        /* \"contracts/Tp_Final_Mod02/AuctETH.sol\":3779:3785  bidder */\n      dup5\n        /* \"contracts/Tp_Final_Mod02/AuctETH.sol\":3771:3786  bidders[bidder] */\n      0xffffffffffffffffffffffffffffffffffffffff\n      and\n      0xffffffffffffffffffffffffffffffffffffffff\n      and\n      dup2\n      mstore\n      0x20\n      add\n      swap1\n      dup2\n      mstore\n      0x20\n      add\n      0x00\n      keccak256\n        /* \"contracts/Tp_Final_Mod02/AuctETH.sol\":3771:3823  bidders[bidder] = Bidder(bidder, bidValue, bidValue) */\n      0x00\n      dup3\n      add\n      mload\n      dup2\n      0x00\n      add\n      exp(0x0100, 0x00)\n      dup2\n      sload\n      dup2\n      0xffffffffffffffffffffffffffffffffffffffff\n      mul\n      not\n      and\n      swap1\n      dup4\n      0xffffffffffffffffffffffffffffffffffffffff\n      and\n      mul\n      or\n      swap1\n      sstore\n      pop\n      0x20\n      dup3\n      add\n      mload\n      dup2\n      0x01\n      add\n      sstore\n      0x40\n      dup3\n      add\n      mload\n      dup2\n      0x02\n      add\n      sstore\n      swap1\n      pop\n      pop\n        /* \"contracts/Tp_Final_Mod02/AuctETH.sol\":3560:3834  if (bidders[bidder].addrs != address(0)) {... */\n    tag_148:\n        /* \"contracts/Tp_Final_Mod02/AuctETH.sol\":3853:3859  bidder */\n      dup2\n        /* \"contracts/Tp_Final_Mod02/AuctETH.sol\":3844:3850  winner */\n      0x01\n      0x00\n        /* \"contracts/Tp_Final_Mod02/AuctETH.sol\":3844:3859  winner = bidder */\n      0x0100\n      exp\n      dup2\n      sload\n      dup2\n      0xffffffffffffffffffffffffffffffffffffffff\n      mul\n      not\n      and\n      swap1\n      dup4\n      0xffffffffffffffffffffffffffffffffffffffff\n      and\n      mul\n      or\n      swap1\n      sstore\n      pop\n        /* \"contracts/Tp_Final_Mod02/AuctETH.sol\":3882:3890  bidValue */\n      dup1\n        /* \"contracts/Tp_Final_Mod02/AuctETH.sol\":3869:3879  currentBid */\n      0x03\n        /* \"contracts/Tp_Final_Mod02/AuctETH.sol\":3869:3890  currentBid = bidValue */\n      dup2\n      swap1\n      sstore\n      pop\n        /* \"contracts/Tp_Final_Mod02/AuctETH.sol\":3913:3919  bidder */\n      dup2\n        /* \"contracts/Tp_Final_Mod02/AuctETH.sol\":3906:3930  NewBid(bidder, bidValue) */\n      0xffffffffffffffffffffffffffffffffffffffff\n      and\n      0xdd0b6c6a77960e2066c96171b4d7ac9e8b4c184011f38544afa36a5bb63ec59f\n        /* \"contracts/Tp_Final_Mod02/AuctETH.sol\":3921:3929  bidValue */\n      dup3\n        /* \"contracts/Tp_Final_Mod02/AuctETH.sol\":3906:3930  NewBid(bidder, bidValue) */\n      mload(0x40)\n      tag_150\n      swap2\n      swap1\n      tag_23\n      jump\t// in\n    tag_150:\n      mload(0x40)\n      dup1\n      swap2\n      sub\n      swap1\n      log2\n        /* \"contracts/Tp_Final_Mod02/AuctETH.sol\":3118:3937  {... */\n      pop\n      pop\n        /* \"contracts/Tp_Final_Mod02/AuctETH.sol\":3068:3937  function makeBid() external payable auctionOpened {... */\n      jump\t// out\n        /* \"contracts/Tp_Final_Mod02/AuctETH.sol\":1877:1918  mapping(address => Bidder) public bidders */\n    tag_79:\n      mstore(0x20, 0x07)\n      dup1\n      0x00\n      mstore\n      keccak256(0x00, 0x40)\n      0x00\n      swap2\n      pop\n      swap1\n      pop\n      dup1\n      0x00\n      add\n      0x00\n      swap1\n      sload\n      swap1\n      0x0100\n      exp\n      swap1\n      div\n      0xffffffffffffffffffffffffffffffffffffffff\n      and\n      swap1\n      dup1\n      0x01\n      add\n      sload\n      swap1\n      dup1\n      0x02\n      add\n      sload\n      swap1\n      pop\n      dup4\n      jump\t// out\n        /* \"https://github.com/OpenZeppelin/openzeppelin-solidity/contracts/utils/Strings.sol\":2973:3121  function toHexString(address addr) internal pure returns (string memory) {... */\n    tag_114:\n        /* \"https://github.com/OpenZeppelin/openzeppelin-solidity/contracts/utils/Strings.sol\":3031:3044  string memory */\n      0x60\n        /* \"https://github.com/OpenZeppelin/openzeppelin-solidity/contracts/utils/Strings.sol\":3063:3114  toHexString(uint256(uint160(addr)), ADDRESS_LENGTH) */\n      tag_152\n        /* \"https://github.com/OpenZeppelin/openzeppelin-solidity/contracts/utils/Strings.sol\":3091:3095  addr */\n      dup3\n        /* \"https://github.com/OpenZeppelin/openzeppelin-solidity/contracts/utils/Strings.sol\":3075:3097  uint256(uint160(addr)) */\n      0xffffffffffffffffffffffffffffffffffffffff\n      and\n        /* \"https://github.com/OpenZeppelin/openzeppelin-solidity/contracts/utils/Strings.sol\":448:450  20 */\n      0x14\n        /* \"https://github.com/OpenZeppelin/openzeppelin-solidity/contracts/utils/Strings.sol\":3063:3114  toHexString(uint256(uint160(addr)), ADDRESS_LENGTH) */\n      0xff\n      and\n        /* \"https://github.com/OpenZeppelin/openzeppelin-solidity/contracts/utils/Strings.sol\":3063:3074  toHexString */\n      tag_153\n        /* \"https://github.com/OpenZeppelin/openzeppelin-solidity/contracts/utils/Strings.sol\":3063:3114  toHexString(uint256(uint160(addr)), ADDRESS_LENGTH) */\n      jump\t// in\n    tag_152:\n        /* \"https://github.com/OpenZeppelin/openzeppelin-solidity/contracts/utils/Strings.sol\":3056:3114  return toHexString(uint256(uint160(addr)), ADDRESS_LENGTH) */\n      swap1\n      pop\n        /* \"https://github.com/OpenZeppelin/openzeppelin-solidity/contracts/utils/Strings.sol\":2973:3121  function toHexString(address addr) internal pure returns (string memory) {... */\n      swap2\n      swap1\n      pop\n      jump\t// out\n        /* \"https://github.com/OpenZeppelin/openzeppelin-solidity/contracts/utils/Strings.sol\":987:1619  function toString(uint256 value) internal pure returns (string memory) {... */\n    tag_119:\n        /* \"https://github.com/OpenZeppelin/openzeppelin-solidity/contracts/utils/Strings.sol\":1043:1056  string memory */\n      0x60\n        /* \"https://github.com/OpenZeppelin/openzeppelin-solidity/contracts/utils/Strings.sol\":1092:1106  uint256 length */\n      0x00\n        /* \"https://github.com/OpenZeppelin/openzeppelin-solidity/contracts/utils/Strings.sol\":1129:1130  1 */\n      0x01\n        /* \"https://github.com/OpenZeppelin/openzeppelin-solidity/contracts/utils/Strings.sol\":1109:1126  Math.log10(value) */\n      tag_155\n        /* \"https://github.com/OpenZeppelin/openzeppelin-solidity/contracts/utils/Strings.sol\":1120:1125  value */\n      dup5\n        /* \"https://github.com/OpenZeppelin/openzeppelin-solidity/contracts/utils/Strings.sol\":1109:1119  Math.log10 */\n      tag_156\n        /* \"https://github.com/OpenZeppelin/openzeppelin-solidity/contracts/utils/Strings.sol\":1109:1126  Math.log10(value) */\n      jump\t// in\n    tag_155:\n        /* \"https://github.com/OpenZeppelin/openzeppelin-solidity/contracts/utils/Strings.sol\":1109:1130  Math.log10(value) + 1 */\n      add\n        /* \"https://github.com/OpenZeppelin/openzeppelin-solidity/contracts/utils/Strings.sol\":1092:1130  uint256 length = Math.log10(value) + 1 */\n      swap1\n      pop\n        /* \"https://github.com/OpenZeppelin/openzeppelin-solidity/contracts/utils/Strings.sol\":1144:1164  string memory buffer */\n      0x00\n        /* \"https://github.com/OpenZeppelin/openzeppelin-solidity/contracts/utils/Strings.sol\":1178:1184  length */\n      dup2\n        /* \"https://github.com/OpenZeppelin/openzeppelin-solidity/contracts/utils/Strings.sol\":1167:1185  new string(length) */\n      0xffffffffffffffff\n      dup2\n      gt\n      iszero\n      tag_157\n      jumpi\n      tag_158\n      tag_85\n      jump\t// in\n    tag_158:\n    tag_157:\n      mload(0x40)\n      swap1\n      dup1\n      dup3\n      mstore\n      dup1\n      0x1f\n      add\n      not(0x1f)\n      and\n      0x20\n      add\n      dup3\n      add\n      0x40\n      mstore\n      dup1\n      iszero\n      tag_159\n      jumpi\n      dup2\n      0x20\n      add\n      0x01\n      dup3\n      mul\n      dup1\n      calldatasize\n      dup4\n      calldatacopy\n      dup1\n      dup3\n      add\n      swap2\n      pop\n      pop\n      swap1\n      pop\n    tag_159:\n      pop\n        /* \"https://github.com/OpenZeppelin/openzeppelin-solidity/contracts/utils/Strings.sol\":1144:1185  string memory buffer = new string(length) */\n      swap1\n      pop\n        /* \"https://github.com/OpenZeppelin/openzeppelin-solidity/contracts/utils/Strings.sol\":1199:1210  uint256 ptr */\n      0x00\n        /* \"https://github.com/OpenZeppelin/openzeppelin-solidity/contracts/utils/Strings.sol\":1294:1300  length */\n      dup3\n        /* \"https://github.com/OpenZeppelin/openzeppelin-solidity/contracts/utils/Strings.sol\":1290:1292  32 */\n      0x20\n        /* \"https://github.com/OpenZeppelin/openzeppelin-solidity/contracts/utils/Strings.sol\":1286:1301  add(32, length) */\n      add\n        /* \"https://github.com/OpenZeppelin/openzeppelin-solidity/contracts/utils/Strings.sol\":1278:1284  buffer */\n      dup3\n        /* \"https://github.com/OpenZeppelin/openzeppelin-solidity/contracts/utils/Strings.sol\":1274:1302  add(buffer, add(32, length)) */\n      add\n        /* \"https://github.com/OpenZeppelin/openzeppelin-solidity/contracts/utils/Strings.sol\":1267:1302  ptr := add(buffer, add(32, length)) */\n      swap1\n      pop\n        /* \"https://github.com/OpenZeppelin/openzeppelin-solidity/contracts/utils/Strings.sol\":1329:1576  while (true) {... */\n    tag_160:\n        /* \"https://github.com/OpenZeppelin/openzeppelin-solidity/contracts/utils/Strings.sol\":1336:1340  true */\n      0x01\n        /* \"https://github.com/OpenZeppelin/openzeppelin-solidity/contracts/utils/Strings.sol\":1329:1576  while (true) {... */\n      iszero\n      tag_161\n      jumpi\n        /* \"https://github.com/OpenZeppelin/openzeppelin-solidity/contracts/utils/Strings.sol\":1360:1365  ptr-- */\n      dup1\n      dup1\n      0x01\n      swap1\n      sub\n      swap2\n      pop\n      pop\n        /* \"https://github.com/OpenZeppelin/openzeppelin-solidity/contracts/utils/Strings.sol\":1464:1474  HEX_DIGITS */\n      0x3031323334353637383961626364656600000000000000000000000000000000\n        /* \"https://github.com/OpenZeppelin/openzeppelin-solidity/contracts/utils/Strings.sol\":1459:1461  10 */\n      0x0a\n        /* \"https://github.com/OpenZeppelin/openzeppelin-solidity/contracts/utils/Strings.sol\":1452:1457  value */\n      dup7\n        /* \"https://github.com/OpenZeppelin/openzeppelin-solidity/contracts/utils/Strings.sol\":1448:1462  mod(value, 10) */\n      mod\n        /* \"https://github.com/OpenZeppelin/openzeppelin-solidity/contracts/utils/Strings.sol\":1443:1475  byte(mod(value, 10), HEX_DIGITS) */\n      byte\n        /* \"https://github.com/OpenZeppelin/openzeppelin-solidity/contracts/utils/Strings.sol\":1438:1441  ptr */\n      dup2\n        /* \"https://github.com/OpenZeppelin/openzeppelin-solidity/contracts/utils/Strings.sol\":1430:1476  mstore8(ptr, byte(mod(value, 10), HEX_DIGITS)) */\n      mstore8\n        /* \"https://github.com/OpenZeppelin/openzeppelin-solidity/contracts/utils/Strings.sol\":1520:1522  10 */\n      0x0a\n        /* \"https://github.com/OpenZeppelin/openzeppelin-solidity/contracts/utils/Strings.sol\":1511:1522  value /= 10 */\n      dup6\n      dup2\n      tag_162\n      jumpi\n      tag_163\n      tag_164\n      jump\t// in\n    tag_163:\n    tag_162:\n      div\n      swap5\n      pop\n        /* \"https://github.com/OpenZeppelin/openzeppelin-solidity/contracts/utils/Strings.sol\":1553:1554  0 */\n      0x00\n        /* \"https://github.com/OpenZeppelin/openzeppelin-solidity/contracts/utils/Strings.sol\":1544:1549  value */\n      dup6\n        /* \"https://github.com/OpenZeppelin/openzeppelin-solidity/contracts/utils/Strings.sol\":1544:1554  value == 0 */\n      sub\n        /* \"https://github.com/OpenZeppelin/openzeppelin-solidity/contracts/utils/Strings.sol\":1329:1576  while (true) {... */\n      tag_160\n        /* \"https://github.com/OpenZeppelin/openzeppelin-solidity/contracts/utils/Strings.sol\":1540:1561  if (value == 0) break */\n      jumpi\n        /* \"https://github.com/OpenZeppelin/openzeppelin-solidity/contracts/utils/Strings.sol\":1329:1576  while (true) {... */\n    tag_161:\n        /* \"https://github.com/OpenZeppelin/openzeppelin-solidity/contracts/utils/Strings.sol\":1596:1602  buffer */\n      dup2\n        /* \"https://github.com/OpenZeppelin/openzeppelin-solidity/contracts/utils/Strings.sol\":1589:1602  return buffer */\n      swap4\n      pop\n      pop\n      pop\n      pop\n        /* \"https://github.com/OpenZeppelin/openzeppelin-solidity/contracts/utils/Strings.sol\":987:1619  function toString(uint256 value) internal pure returns (string memory) {... */\n      swap2\n      swap1\n      pop\n      jump\t// out\n        /* \"https://github.com/OpenZeppelin/openzeppelin-solidity/contracts/utils/Strings.sol\":2289:2814  function toHexString(uint256 value, uint256 length) internal pure returns (string memory) {... */\n    tag_153:\n        /* \"https://github.com/OpenZeppelin/openzeppelin-solidity/contracts/utils/Strings.sol\":2364:2377  string memory */\n      0x60\n        /* \"https://github.com/OpenZeppelin/openzeppelin-solidity/contracts/utils/Strings.sol\":2389:2407  uint256 localValue */\n      0x00\n        /* \"https://github.com/OpenZeppelin/openzeppelin-solidity/contracts/utils/Strings.sol\":2410:2415  value */\n      dup4\n        /* \"https://github.com/OpenZeppelin/openzeppelin-solidity/contracts/utils/Strings.sol\":2389:2415  uint256 localValue = value */\n      swap1\n      pop\n        /* \"https://github.com/OpenZeppelin/openzeppelin-solidity/contracts/utils/Strings.sol\":2425:2444  bytes memory buffer */\n      0x00\n        /* \"https://github.com/OpenZeppelin/openzeppelin-solidity/contracts/utils/Strings.sol\":2470:2471  2 */\n      0x02\n        /* \"https://github.com/OpenZeppelin/openzeppelin-solidity/contracts/utils/Strings.sol\":2461:2467  length */\n      dup5\n        /* \"https://github.com/OpenZeppelin/openzeppelin-solidity/contracts/utils/Strings.sol\":2457:2458  2 */\n      0x02\n        /* \"https://github.com/OpenZeppelin/openzeppelin-solidity/contracts/utils/Strings.sol\":2457:2467  2 * length */\n      tag_167\n      swap2\n      swap1\n      tag_137\n      jump\t// in\n    tag_167:\n        /* \"https://github.com/OpenZeppelin/openzeppelin-solidity/contracts/utils/Strings.sol\":2457:2471  2 * length + 2 */\n      tag_168\n      swap2\n      swap1\n      tag_135\n      jump\t// in\n    tag_168:\n        /* \"https://github.com/OpenZeppelin/openzeppelin-solidity/contracts/utils/Strings.sol\":2447:2472  new bytes(2 * length + 2) */\n      0xffffffffffffffff\n      dup2\n      gt\n      iszero\n      tag_169\n      jumpi\n      tag_170\n      tag_85\n      jump\t// in\n    tag_170:\n    tag_169:\n      mload(0x40)\n      swap1\n      dup1\n      dup3\n      mstore\n      dup1\n      0x1f\n      add\n      not(0x1f)\n      and\n      0x20\n      add\n      dup3\n      add\n      0x40\n      mstore\n      dup1\n      iszero\n      tag_171\n      jumpi\n      dup2\n      0x20\n      add\n      0x01\n      dup3\n      mul\n      dup1\n      calldatasize\n      dup4\n      calldatacopy\n      dup1\n      dup3\n      add\n      swap2\n      pop\n      pop\n      swap1\n      pop\n    tag_171:\n      pop\n        /* \"https://github.com/OpenZeppelin/openzeppelin-solidity/contracts/utils/Strings.sol\":2425:2472  bytes memory buffer = new bytes(2 * length + 2) */\n      swap1\n      pop\n        /* \"https://github.com/OpenZeppelin/openzeppelin-solidity/contracts/utils/Strings.sol\":2482:2497  buffer[0] = \"0\" */\n      0x3000000000000000000000000000000000000000000000000000000000000000\n        /* \"https://github.com/OpenZeppelin/openzeppelin-solidity/contracts/utils/Strings.sol\":2482:2488  buffer */\n      dup2\n        /* \"https://github.com/OpenZeppelin/openzeppelin-solidity/contracts/utils/Strings.sol\":2489:2490  0 */\n      0x00\n        /* \"https://github.com/OpenZeppelin/openzeppelin-solidity/contracts/utils/Strings.sol\":2482:2491  buffer[0] */\n      dup2\n      mload\n      dup2\n      lt\n      tag_172\n      jumpi\n      tag_173\n      tag_95\n      jump\t// in\n    tag_173:\n    tag_172:\n      0x20\n      add\n      add\n        /* \"https://github.com/OpenZeppelin/openzeppelin-solidity/contracts/utils/Strings.sol\":2482:2497  buffer[0] = \"0\" */\n      swap1\n      not(0xffffffffffffffffffffffffffffffffffffffffffffffffffffffffffffff)\n      and\n      swap1\n      dup2\n      0x00\n      byte\n      swap1\n      mstore8\n      pop\n        /* \"https://github.com/OpenZeppelin/openzeppelin-solidity/contracts/utils/Strings.sol\":2507:2522  buffer[1] = \"x\" */\n      0x7800000000000000000000000000000000000000000000000000000000000000\n        /* \"https://github.com/OpenZeppelin/openzeppelin-solidity/contracts/utils/Strings.sol\":2507:2513  buffer */\n      dup2\n        /* \"https://github.com/OpenZeppelin/openzeppelin-solidity/contracts/utils/Strings.sol\":2514:2515  1 */\n      0x01\n        /* \"https://github.com/OpenZeppelin/openzeppelin-solidity/contracts/utils/Strings.sol\":2507:2516  buffer[1] */\n      dup2\n      mload\n      dup2\n      lt\n      tag_174\n      jumpi\n      tag_175\n      tag_95\n      jump\t// in\n    tag_175:\n    tag_174:\n      0x20\n      add\n      add\n        /* \"https://github.com/OpenZeppelin/openzeppelin-solidity/contracts/utils/Strings.sol\":2507:2522  buffer[1] = \"x\" */\n      swap1\n      not(0xffffffffffffffffffffffffffffffffffffffffffffffffffffffffffffff)\n      and\n      swap1\n      dup2\n      0x00\n      byte\n      swap1\n      mstore8\n      pop\n        /* \"https://github.com/OpenZeppelin/openzeppelin-solidity/contracts/utils/Strings.sol\":2537:2546  uint256 i */\n      0x00\n        /* \"https://github.com/OpenZeppelin/openzeppelin-solidity/contracts/utils/Strings.sol\":2562:2563  1 */\n      0x01\n        /* \"https://github.com/OpenZeppelin/openzeppelin-solidity/contracts/utils/Strings.sol\":2553:2559  length */\n      dup6\n        /* \"https://github.com/OpenZeppelin/openzeppelin-solidity/contracts/utils/Strings.sol\":2549:2550  2 */\n      0x02\n        /* \"https://github.com/OpenZeppelin/openzeppelin-solidity/contracts/utils/Strings.sol\":2549:2559  2 * length */\n      tag_179\n      swap2\n      swap1\n      tag_137\n      jump\t// in\n    tag_179:\n        /* \"https://github.com/OpenZeppelin/openzeppelin-solidity/contracts/utils/Strings.sol\":2549:2563  2 * length + 1 */\n      tag_180\n      swap2\n      swap1\n      tag_135\n      jump\t// in\n    tag_180:\n        /* \"https://github.com/OpenZeppelin/openzeppelin-solidity/contracts/utils/Strings.sol\":2537:2563  uint256 i = 2 * length + 1 */\n      swap1\n      pop\n        /* \"https://github.com/OpenZeppelin/openzeppelin-solidity/contracts/utils/Strings.sol\":2532:2672  for (uint256 i = 2 * length + 1; i > 1; --i) {... */\n    tag_176:\n        /* \"https://github.com/OpenZeppelin/openzeppelin-solidity/contracts/utils/Strings.sol\":2569:2570  1 */\n      0x01\n        /* \"https://github.com/OpenZeppelin/openzeppelin-solidity/contracts/utils/Strings.sol\":2565:2566  i */\n      dup2\n        /* \"https://github.com/OpenZeppelin/openzeppelin-solidity/contracts/utils/Strings.sol\":2565:2570  i > 1 */\n      gt\n        /* \"https://github.com/OpenZeppelin/openzeppelin-solidity/contracts/utils/Strings.sol\":2532:2672  for (uint256 i = 2 * length + 1; i > 1; --i) {... */\n      iszero\n      tag_177\n      jumpi\n        /* \"https://github.com/OpenZeppelin/openzeppelin-solidity/contracts/utils/Strings.sol\":2603:2613  HEX_DIGITS */\n      0x3031323334353637383961626364656600000000000000000000000000000000\n        /* \"https://github.com/OpenZeppelin/openzeppelin-solidity/contracts/utils/Strings.sol\":2627:2630  0xf */\n      0x0f\n        /* \"https://github.com/OpenZeppelin/openzeppelin-solidity/contracts/utils/Strings.sol\":2614:2624  localValue */\n      dup5\n        /* \"https://github.com/OpenZeppelin/openzeppelin-solidity/contracts/utils/Strings.sol\":2614:2630  localValue & 0xf */\n      and\n        /* \"https://github.com/OpenZeppelin/openzeppelin-solidity/contracts/utils/Strings.sol\":2603:2631  HEX_DIGITS[localValue & 0xf] */\n      0x10\n      dup2\n      lt\n      tag_181\n      jumpi\n      tag_182\n      tag_95\n      jump\t// in\n    tag_182:\n    tag_181:\n      byte\n      0xf8\n      shl\n        /* \"https://github.com/OpenZeppelin/openzeppelin-solidity/contracts/utils/Strings.sol\":2591:2597  buffer */\n      dup3\n        /* \"https://github.com/OpenZeppelin/openzeppelin-solidity/contracts/utils/Strings.sol\":2598:2599  i */\n      dup3\n        /* \"https://github.com/OpenZeppelin/openzeppelin-solidity/contracts/utils/Strings.sol\":2591:2600  buffer[i] */\n      dup2\n      mload\n      dup2\n      lt\n      tag_183\n      jumpi\n      tag_184\n      tag_95\n      jump\t// in\n    tag_184:\n    tag_183:\n      0x20\n      add\n      add\n        /* \"https://github.com/OpenZeppelin/openzeppelin-solidity/contracts/utils/Strings.sol\":2591:2631  buffer[i] = HEX_DIGITS[localValue & 0xf] */\n      swap1\n      not(0xffffffffffffffffffffffffffffffffffffffffffffffffffffffffffffff)\n      and\n      swap1\n      dup2\n      0x00\n      byte\n      swap1\n      mstore8\n      pop\n        /* \"https://github.com/OpenZeppelin/openzeppelin-solidity/contracts/utils/Strings.sol\":2660:2661  4 */\n      0x04\n        /* \"https://github.com/OpenZeppelin/openzeppelin-solidity/contracts/utils/Strings.sol\":2645:2661  localValue >>= 4 */\n      dup4\n      swap1\n      shr\n      swap3\n      pop\n        /* \"https://github.com/OpenZeppelin/openzeppelin-solidity/contracts/utils/Strings.sol\":2572:2575  --i */\n      dup1\n      tag_185\n      swap1\n      tag_186\n      jump\t// in\n    tag_185:\n      swap1\n      pop\n        /* \"https://github.com/OpenZeppelin/openzeppelin-solidity/contracts/utils/Strings.sol\":2532:2672  for (uint256 i = 2 * length + 1; i > 1; --i) {... */\n      jump(tag_176)\n    tag_177:\n      pop\n        /* \"https://github.com/OpenZeppelin/openzeppelin-solidity/contracts/utils/Strings.sol\":2699:2700  0 */\n      0x00\n        /* \"https://github.com/OpenZeppelin/openzeppelin-solidity/contracts/utils/Strings.sol\":2685:2695  localValue */\n      dup3\n        /* \"https://github.com/OpenZeppelin/openzeppelin-solidity/contracts/utils/Strings.sol\":2685:2700  localValue != 0 */\n      eq\n        /* \"https://github.com/OpenZeppelin/openzeppelin-solidity/contracts/utils/Strings.sol\":2681:2777  if (localValue != 0) {... */\n      tag_187\n      jumpi\n        /* \"https://github.com/OpenZeppelin/openzeppelin-solidity/contracts/utils/Strings.sol\":2752:2757  value */\n      dup5\n        /* \"https://github.com/OpenZeppelin/openzeppelin-solidity/contracts/utils/Strings.sol\":2759:2765  length */\n      dup5\n        /* \"https://github.com/OpenZeppelin/openzeppelin-solidity/contracts/utils/Strings.sol\":2723:2766  StringsInsufficientHexLength(value, length) */\n      mload(0x40)\n      0xe22e27eb00000000000000000000000000000000000000000000000000000000\n      dup2\n      mstore\n      0x04\n      add\n      tag_188\n      swap3\n      swap2\n      swap1\n      tag_189\n      jump\t// in\n    tag_188:\n      mload(0x40)\n      dup1\n      swap2\n      sub\n      swap1\n      revert\n        /* \"https://github.com/OpenZeppelin/openzeppelin-solidity/contracts/utils/Strings.sol\":2681:2777  if (localValue != 0) {... */\n    tag_187:\n        /* \"https://github.com/OpenZeppelin/openzeppelin-solidity/contracts/utils/Strings.sol\":2800:2806  buffer */\n      dup1\n        /* \"https://github.com/OpenZeppelin/openzeppelin-solidity/contracts/utils/Strings.sol\":2786:2807  return string(buffer) */\n      swap3\n      pop\n      pop\n      pop\n        /* \"https://github.com/OpenZeppelin/openzeppelin-solidity/contracts/utils/Strings.sol\":2289:2814  function toHexString(uint256 value, uint256 length) internal pure returns (string memory) {... */\n      swap3\n      swap2\n      pop\n      pop\n      jump\t// out\n        /* \"https://github.com/OpenZeppelin/openzeppelin-solidity/contracts/utils/math/Math.sol\":26667:27583  function log10(uint256 value) internal pure returns (uint256) {... */\n    tag_156:\n        /* \"https://github.com/OpenZeppelin/openzeppelin-solidity/contracts/utils/math/Math.sol\":26720:26727  uint256 */\n      0x00\n        /* \"https://github.com/OpenZeppelin/openzeppelin-solidity/contracts/utils/math/Math.sol\":26739:26753  uint256 result */\n      0x00\n        /* \"https://github.com/OpenZeppelin/openzeppelin-solidity/contracts/utils/math/Math.sol\":26756:26757  0 */\n      0x00\n        /* \"https://github.com/OpenZeppelin/openzeppelin-solidity/contracts/utils/math/Math.sol\":26739:26757  uint256 result = 0 */\n      swap1\n      pop\n        /* \"https://github.com/OpenZeppelin/openzeppelin-solidity/contracts/utils/math/Math.sol\":26804:26812  10 ** 64 */\n      0x184f03e93ff9f4daa797ed6e38ed64bf6a1f010000000000000000\n        /* \"https://github.com/OpenZeppelin/openzeppelin-solidity/contracts/utils/math/Math.sol\":26795:26800  value */\n      dup4\n        /* \"https://github.com/OpenZeppelin/openzeppelin-solidity/contracts/utils/math/Math.sol\":26795:26812  value >= 10 ** 64 */\n      lt\n        /* \"https://github.com/OpenZeppelin/openzeppelin-solidity/contracts/utils/math/Math.sol\":26791:26894  if (value >= 10 ** 64) {... */\n      tag_191\n      jumpi\n        /* \"https://github.com/OpenZeppelin/openzeppelin-solidity/contracts/utils/math/Math.sol\":26841:26849  10 ** 64 */\n      0x184f03e93ff9f4daa797ed6e38ed64bf6a1f010000000000000000\n        /* \"https://github.com/OpenZeppelin/openzeppelin-solidity/contracts/utils/math/Math.sol\":26832:26849  value /= 10 ** 64 */\n      dup4\n      dup2\n      tag_192\n      jumpi\n      tag_193\n      tag_164\n      jump\t// in\n    tag_193:\n    tag_192:\n      div\n      swap3\n      pop\n        /* \"https://github.com/OpenZeppelin/openzeppelin-solidity/contracts/utils/math/Math.sol\":26877:26879  64 */\n      0x40\n        /* \"https://github.com/OpenZeppelin/openzeppelin-solidity/contracts/utils/math/Math.sol\":26867:26879  result += 64 */\n      dup2\n      add\n      swap1\n      pop\n        /* \"https://github.com/OpenZeppelin/openzeppelin-solidity/contracts/utils/math/Math.sol\":26791:26894  if (value >= 10 ** 64) {... */\n    tag_191:\n        /* \"https://github.com/OpenZeppelin/openzeppelin-solidity/contracts/utils/math/Math.sol\":26920:26928  10 ** 32 */\n      0x04ee2d6d415b85acef8100000000\n        /* \"https://github.com/OpenZeppelin/openzeppelin-solidity/contracts/utils/math/Math.sol\":26911:26916  value */\n      dup4\n        /* \"https://github.com/OpenZeppelin/openzeppelin-solidity/contracts/utils/math/Math.sol\":26911:26928  value >= 10 ** 32 */\n      lt\n        /* \"https://github.com/OpenZeppelin/openzeppelin-solidity/contracts/utils/math/Math.sol\":26907:27010  if (value >= 10 ** 32) {... */\n      tag_194\n      jumpi\n        /* \"https://github.com/OpenZeppelin/openzeppelin-solidity/contracts/utils/math/Math.sol\":26957:26965  10 ** 32 */\n      0x04ee2d6d415b85acef8100000000\n        /* \"https://github.com/OpenZeppelin/openzeppelin-solidity/contracts/utils/math/Math.sol\":26948:26965  value /= 10 ** 32 */\n      dup4\n      dup2\n      tag_195\n      jumpi\n      tag_196\n      tag_164\n      jump\t// in\n    tag_196:\n    tag_195:\n      div\n      swap3\n      pop\n        /* \"https://github.com/OpenZeppelin/openzeppelin-solidity/contracts/utils/math/Math.sol\":26993:26995  32 */\n      0x20\n        /* \"https://github.com/OpenZeppelin/openzeppelin-solidity/contracts/utils/math/Math.sol\":26983:26995  result += 32 */\n      dup2\n      add\n      swap1\n      pop\n        /* \"https://github.com/OpenZeppelin/openzeppelin-solidity/contracts/utils/math/Math.sol\":26907:27010  if (value >= 10 ** 32) {... */\n    tag_194:\n        /* \"https://github.com/OpenZeppelin/openzeppelin-solidity/contracts/utils/math/Math.sol\":27036:27044  10 ** 16 */\n      0x2386f26fc10000\n        /* \"https://github.com/OpenZeppelin/openzeppelin-solidity/contracts/utils/math/Math.sol\":27027:27032  value */\n      dup4\n        /* \"https://github.com/OpenZeppelin/openzeppelin-solidity/contracts/utils/math/Math.sol\":27027:27044  value >= 10 ** 16 */\n      lt\n        /* \"https://github.com/OpenZeppelin/openzeppelin-solidity/contracts/utils/math/Math.sol\":27023:27126  if (value >= 10 ** 16) {... */\n      tag_197\n      jumpi\n        /* \"https://github.com/OpenZeppelin/openzeppelin-solidity/contracts/utils/math/Math.sol\":27073:27081  10 ** 16 */\n      0x2386f26fc10000\n        /* \"https://github.com/OpenZeppelin/openzeppelin-solidity/contracts/utils/math/Math.sol\":27064:27081  value /= 10 ** 16 */\n      dup4\n      dup2\n      tag_198\n      jumpi\n      tag_199\n      tag_164\n      jump\t// in\n    tag_199:\n    tag_198:\n      div\n      swap3\n      pop\n        /* \"https://github.com/OpenZeppelin/openzeppelin-solidity/contracts/utils/math/Math.sol\":27109:27111  16 */\n      0x10\n        /* \"https://github.com/OpenZeppelin/openzeppelin-solidity/contracts/utils/math/Math.sol\":27099:27111  result += 16 */\n      dup2\n      add\n      swap1\n      pop\n        /* \"https://github.com/OpenZeppelin/openzeppelin-solidity/contracts/utils/math/Math.sol\":27023:27126  if (value >= 10 ** 16) {... */\n    tag_197:\n        /* \"https://github.com/OpenZeppelin/openzeppelin-solidity/contracts/utils/math/Math.sol\":27152:27159  10 ** 8 */\n      0x05f5e100\n        /* \"https://github.com/OpenZeppelin/openzeppelin-solidity/contracts/utils/math/Math.sol\":27143:27148  value */\n      dup4\n        /* \"https://github.com/OpenZeppelin/openzeppelin-solidity/contracts/utils/math/Math.sol\":27143:27159  value >= 10 ** 8 */\n      lt\n        /* \"https://github.com/OpenZeppelin/openzeppelin-solidity/contracts/utils/math/Math.sol\":27139:27239  if (value >= 10 ** 8) {... */\n      tag_200\n      jumpi\n        /* \"https://github.com/OpenZeppelin/openzeppelin-solidity/contracts/utils/math/Math.sol\":27188:27195  10 ** 8 */\n      0x05f5e100\n        /* \"https://github.com/OpenZeppelin/openzeppelin-solidity/contracts/utils/math/Math.sol\":27179:27195  value /= 10 ** 8 */\n      dup4\n      dup2\n      tag_201\n      jumpi\n      tag_202\n      tag_164\n      jump\t// in\n    tag_202:\n    tag_201:\n      div\n      swap3\n      pop\n        /* \"https://github.com/OpenZeppelin/openzeppelin-solidity/contracts/utils/math/Math.sol\":27223:27224  8 */\n      0x08\n        /* \"https://github.com/OpenZeppelin/openzeppelin-solidity/contracts/utils/math/Math.sol\":27213:27224  result += 8 */\n      dup2\n      add\n      swap1\n      pop\n        /* \"https://github.com/OpenZeppelin/openzeppelin-solidity/contracts/utils/math/Math.sol\":27139:27239  if (value >= 10 ** 8) {... */\n    tag_200:\n        /* \"https://github.com/OpenZeppelin/openzeppelin-solidity/contracts/utils/math/Math.sol\":27265:27272  10 ** 4 */\n      0x2710\n        /* \"https://github.com/OpenZeppelin/openzeppelin-solidity/contracts/utils/math/Math.sol\":27256:27261  value */\n      dup4\n        /* \"https://github.com/OpenZeppelin/openzeppelin-solidity/contracts/utils/math/Math.sol\":27256:27272  value >= 10 ** 4 */\n      lt\n        /* \"https://github.com/OpenZeppelin/openzeppelin-solidity/contracts/utils/math/Math.sol\":27252:27352  if (value >= 10 ** 4) {... */\n      tag_203\n      jumpi\n        /* \"https://github.com/OpenZeppelin/openzeppelin-solidity/contracts/utils/math/Math.sol\":27301:27308  10 ** 4 */\n      0x2710\n        /* \"https://github.com/OpenZeppelin/openzeppelin-solidity/contracts/utils/math/Math.sol\":27292:27308  value /= 10 ** 4 */\n      dup4\n      dup2\n      tag_204\n      jumpi\n      tag_205\n      tag_164\n      jump\t// in\n    tag_205:\n    tag_204:\n      div\n      swap3\n      pop\n        /* \"https://github.com/OpenZeppelin/openzeppelin-solidity/contracts/utils/math/Math.sol\":27336:27337  4 */\n      0x04\n        /* \"https://github.com/OpenZeppelin/openzeppelin-solidity/contracts/utils/math/Math.sol\":27326:27337  result += 4 */\n      dup2\n      add\n      swap1\n      pop\n        /* \"https://github.com/OpenZeppelin/openzeppelin-solidity/contracts/utils/math/Math.sol\":27252:27352  if (value >= 10 ** 4) {... */\n    tag_203:\n        /* \"https://github.com/OpenZeppelin/openzeppelin-solidity/contracts/utils/math/Math.sol\":27378:27385  10 ** 2 */\n      0x64\n        /* \"https://github.com/OpenZeppelin/openzeppelin-solidity/contracts/utils/math/Math.sol\":27369:27374  value */\n      dup4\n        /* \"https://github.com/OpenZeppelin/openzeppelin-solidity/contracts/utils/math/Math.sol\":27369:27385  value >= 10 ** 2 */\n      lt\n        /* \"https://github.com/OpenZeppelin/openzeppelin-solidity/contracts/utils/math/Math.sol\":27365:27465  if (value >= 10 ** 2) {... */\n      tag_206\n      jumpi\n        /* \"https://github.com/OpenZeppelin/openzeppelin-solidity/contracts/utils/math/Math.sol\":27414:27421  10 ** 2 */\n      0x64\n        /* \"https://github.com/OpenZeppelin/openzeppelin-solidity/contracts/utils/math/Math.sol\":27405:27421  value /= 10 ** 2 */\n      dup4\n      dup2\n      tag_207\n      jumpi\n      tag_208\n      tag_164\n      jump\t// in\n    tag_208:\n    tag_207:\n      div\n      swap3\n      pop\n        /* \"https://github.com/OpenZeppelin/openzeppelin-solidity/contracts/utils/math/Math.sol\":27449:27450  2 */\n      0x02\n        /* \"https://github.com/OpenZeppelin/openzeppelin-solidity/contracts/utils/math/Math.sol\":27439:27450  result += 2 */\n      dup2\n      add\n      swap1\n      pop\n        /* \"https://github.com/OpenZeppelin/openzeppelin-solidity/contracts/utils/math/Math.sol\":27365:27465  if (value >= 10 ** 2) {... */\n    tag_206:\n        /* \"https://github.com/OpenZeppelin/openzeppelin-solidity/contracts/utils/math/Math.sol\":27491:27498  10 ** 1 */\n      0x0a\n        /* \"https://github.com/OpenZeppelin/openzeppelin-solidity/contracts/utils/math/Math.sol\":27482:27487  value */\n      dup4\n        /* \"https://github.com/OpenZeppelin/openzeppelin-solidity/contracts/utils/math/Math.sol\":27482:27498  value >= 10 ** 1 */\n      lt\n        /* \"https://github.com/OpenZeppelin/openzeppelin-solidity/contracts/utils/math/Math.sol\":27478:27544  if (value >= 10 ** 1) {... */\n      tag_209\n      jumpi\n        /* \"https://github.com/OpenZeppelin/openzeppelin-solidity/contracts/utils/math/Math.sol\":27528:27529  1 */\n      0x01\n        /* \"https://github.com/OpenZeppelin/openzeppelin-solidity/contracts/utils/math/Math.sol\":27518:27529  result += 1 */\n      dup2\n      add\n      swap1\n      pop\n        /* \"https://github.com/OpenZeppelin/openzeppelin-solidity/contracts/utils/math/Math.sol\":27478:27544  if (value >= 10 ** 1) {... */\n    tag_209:\n        /* \"https://github.com/OpenZeppelin/openzeppelin-solidity/contracts/utils/math/Math.sol\":27570:27576  result */\n      dup1\n        /* \"https://github.com/OpenZeppelin/openzeppelin-solidity/contracts/utils/math/Math.sol\":27563:27576  return result */\n      swap2\n      pop\n      pop\n        /* \"https://github.com/OpenZeppelin/openzeppelin-solidity/contracts/utils/math/Math.sol\":26667:27583  function log10(uint256 value) internal pure returns (uint256) {... */\n      swap2\n      swap1\n      pop\n      jump\t// out\n    tag_89:\n      mload(0x40)\n      dup1\n      0x40\n      add\n      0x40\n      mstore\n      dup1\n      and(0xffffffffffffffffffffffffffffffffffffffff, 0x00)\n      dup2\n      mstore\n      0x20\n      add\n      0x00\n      dup2\n      mstore\n      pop\n      swap1\n      jump\t// out\n        /* \"#utility.yul\":7:84   */\n    tag_210:\n        /* \"#utility.yul\":44:51   */\n      0x00\n        /* \"#utility.yul\":73:78   */\n      dup2\n        /* \"#utility.yul\":62:78   */\n      swap1\n      pop\n        /* \"#utility.yul\":7:84   */\n      swap2\n      swap1\n      pop\n      jump\t// out\n        /* \"#utility.yul\":90:208   */\n    tag_211:\n        /* \"#utility.yul\":177:201   */\n      tag_256\n        /* \"#utility.yul\":195:200   */\n      dup2\n        /* \"#utility.yul\":177:201   */\n      tag_210\n      jump\t// in\n    tag_256:\n        /* \"#utility.yul\":172:175   */\n      dup3\n        /* \"#utility.yul\":165:202   */\n      mstore\n        /* \"#utility.yul\":90:208   */\n      pop\n      pop\n      jump\t// out\n        /* \"#utility.yul\":214:436   */\n    tag_23:\n        /* \"#utility.yul\":307:311   */\n      0x00\n        /* \"#utility.yul\":345:347   */\n      0x20\n        /* \"#utility.yul\":334:343   */\n      dup3\n        /* \"#utility.yul\":330:348   */\n      add\n        /* \"#utility.yul\":322:348   */\n      swap1\n      pop\n        /* \"#utility.yul\":358:429   */\n      tag_258\n        /* \"#utility.yul\":426:427   */\n      0x00\n        /* \"#utility.yul\":415:424   */\n      dup4\n        /* \"#utility.yul\":411:428   */\n      add\n        /* \"#utility.yul\":402:408   */\n      dup5\n        /* \"#utility.yul\":358:429   */\n      tag_211\n      jump\t// in\n    tag_258:\n        /* \"#utility.yul\":214:436   */\n      swap3\n      swap2\n      pop\n      pop\n      jump\t// out\n        /* \"#utility.yul\":442:575   */\n    tag_212:\n        /* \"#utility.yul\":528:534   */\n      0x00\n        /* \"#utility.yul\":562:567   */\n      dup2\n        /* \"#utility.yul\":556:568   */\n      mload\n        /* \"#utility.yul\":546:568   */\n      swap1\n      pop\n        /* \"#utility.yul\":442:575   */\n      swap2\n      swap1\n      pop\n      jump\t// out\n        /* \"#utility.yul\":581:784   */\n    tag_213:\n        /* \"#utility.yul\":699:710   */\n      0x00\n        /* \"#utility.yul\":733:739   */\n      dup3\n        /* \"#utility.yul\":728:731   */\n      dup3\n        /* \"#utility.yul\":721:740   */\n      mstore\n        /* \"#utility.yul\":773:777   */\n      0x20\n        /* \"#utility.yul\":768:771   */\n      dup3\n        /* \"#utility.yul\":764:778   */\n      add\n        /* \"#utility.yul\":749:778   */\n      swap1\n      pop\n        /* \"#utility.yul\":581:784   */\n      swap3\n      swap2\n      pop\n      pop\n      jump\t// out\n        /* \"#utility.yul\":790:941   */\n    tag_214:\n        /* \"#utility.yul\":876:880   */\n      0x00\n        /* \"#utility.yul\":899:902   */\n      dup2\n        /* \"#utility.yul\":891:902   */\n      swap1\n      pop\n        /* \"#utility.yul\":929:933   */\n      0x20\n        /* \"#utility.yul\":924:927   */\n      dup3\n        /* \"#utility.yul\":920:934   */\n      add\n        /* \"#utility.yul\":912:934   */\n      swap1\n      pop\n        /* \"#utility.yul\":790:941   */\n      swap2\n      swap1\n      pop\n      jump\t// out\n        /* \"#utility.yul\":947:1073   */\n    tag_215:\n        /* \"#utility.yul\":984:991   */\n      0x00\n        /* \"#utility.yul\":1024:1066   */\n      0xffffffffffffffffffffffffffffffffffffffff\n        /* \"#utility.yul\":1017:1022   */\n      dup3\n        /* \"#utility.yul\":1013:1067   */\n      and\n        /* \"#utility.yul\":1002:1067   */\n      swap1\n      pop\n        /* \"#utility.yul\":947:1073   */\n      swap2\n      swap1\n      pop\n      jump\t// out\n        /* \"#utility.yul\":1079:1175   */\n    tag_216:\n        /* \"#utility.yul\":1116:1123   */\n      0x00\n        /* \"#utility.yul\":1145:1169   */\n      tag_264\n        /* \"#utility.yul\":1163:1168   */\n      dup3\n        /* \"#utility.yul\":1145:1169   */\n      tag_215\n      jump\t// in\n    tag_264:\n        /* \"#utility.yul\":1134:1169   */\n      swap1\n      pop\n        /* \"#utility.yul\":1079:1175   */\n      swap2\n      swap1\n      pop\n      jump\t// out\n        /* \"#utility.yul\":1181:1289   */\n    tag_217:\n        /* \"#utility.yul\":1258:1282   */\n      tag_266\n        /* \"#utility.yul\":1276:1281   */\n      dup2\n        /* \"#utility.yul\":1258:1282   */\n      tag_216\n      jump\t// in\n    tag_266:\n        /* \"#utility.yul\":1253:1256   */\n      dup3\n        /* \"#utility.yul\":1246:1283   */\n      mstore\n        /* \"#utility.yul\":1181:1289   */\n      pop\n      pop\n      jump\t// out\n        /* \"#utility.yul\":1295:1403   */\n    tag_218:\n        /* \"#utility.yul\":1372:1396   */\n      tag_268\n        /* \"#utility.yul\":1390:1395   */\n      dup2\n        /* \"#utility.yul\":1372:1396   */\n      tag_210\n      jump\t// in\n    tag_268:\n        /* \"#utility.yul\":1367:1370   */\n      dup3\n        /* \"#utility.yul\":1360:1397   */\n      mstore\n        /* \"#utility.yul\":1295:1403   */\n      pop\n      pop\n      jump\t// out\n        /* \"#utility.yul\":1457:1946   */\n    tag_219:\n        /* \"#utility.yul\":1582:1586   */\n      0x40\n        /* \"#utility.yul\":1577:1580   */\n      dup3\n        /* \"#utility.yul\":1573:1587   */\n      add\n        /* \"#utility.yul\":1671:1675   */\n      0x00\n        /* \"#utility.yul\":1664:1669   */\n      dup3\n        /* \"#utility.yul\":1660:1676   */\n      add\n        /* \"#utility.yul\":1654:1677   */\n      mload\n        /* \"#utility.yul\":1690:1753   */\n      tag_270\n        /* \"#utility.yul\":1747:1751   */\n      0x00\n        /* \"#utility.yul\":1742:1745   */\n      dup6\n        /* \"#utility.yul\":1738:1752   */\n      add\n        /* \"#utility.yul\":1724:1736   */\n      dup3\n        /* \"#utility.yul\":1690:1753   */\n      tag_217\n      jump\t// in\n    tag_270:\n        /* \"#utility.yul\":1597:1763   */\n      pop\n        /* \"#utility.yul\":1847:1851   */\n      0x20\n        /* \"#utility.yul\":1840:1845   */\n      dup3\n        /* \"#utility.yul\":1836:1852   */\n      add\n        /* \"#utility.yul\":1830:1853   */\n      mload\n        /* \"#utility.yul\":1866:1929   */\n      tag_271\n        /* \"#utility.yul\":1923:1927   */\n      0x20\n        /* \"#utility.yul\":1918:1921   */\n      dup6\n        /* \"#utility.yul\":1914:1928   */\n      add\n        /* \"#utility.yul\":1900:1912   */\n      dup3\n        /* \"#utility.yul\":1866:1929   */\n      tag_218\n      jump\t// in\n    tag_271:\n        /* \"#utility.yul\":1773:1939   */\n      pop\n        /* \"#utility.yul\":1551:1946   */\n      pop\n        /* \"#utility.yul\":1457:1946   */\n      pop\n      pop\n      jump\t// out\n        /* \"#utility.yul\":1952:2207   */\n    tag_220:\n        /* \"#utility.yul\":2059:2069   */\n      0x00\n        /* \"#utility.yul\":2080:2164   */\n      tag_273\n        /* \"#utility.yul\":2160:2163   */\n      dup4\n        /* \"#utility.yul\":2152:2158   */\n      dup4\n        /* \"#utility.yul\":2080:2164   */\n      tag_219\n      jump\t// in\n    tag_273:\n        /* \"#utility.yul\":2196:2200   */\n      0x40\n        /* \"#utility.yul\":2191:2194   */\n      dup4\n        /* \"#utility.yul\":2187:2201   */\n      add\n        /* \"#utility.yul\":2173:2201   */\n      swap1\n      pop\n        /* \"#utility.yul\":1952:2207   */\n      swap3\n      swap2\n      pop\n      pop\n      jump\t// out\n        /* \"#utility.yul\":2213:2345   */\n    tag_221:\n        /* \"#utility.yul\":2302:2306   */\n      0x00\n        /* \"#utility.yul\":2334:2338   */\n      0x20\n        /* \"#utility.yul\":2329:2332   */\n      dup3\n        /* \"#utility.yul\":2325:2339   */\n      add\n        /* \"#utility.yul\":2317:2339   */\n      swap1\n      pop\n        /* \"#utility.yul\":2213:2345   */\n      swap2\n      swap1\n      pop\n      jump\t// out\n        /* \"#utility.yul\":2403:3287   */\n    tag_222:\n        /* \"#utility.yul\":2560:2563   */\n      0x00\n        /* \"#utility.yul\":2589:2662   */\n      tag_276\n        /* \"#utility.yul\":2656:2661   */\n      dup3\n        /* \"#utility.yul\":2589:2662   */\n      tag_212\n      jump\t// in\n    tag_276:\n        /* \"#utility.yul\":2678:2783   */\n      tag_277\n        /* \"#utility.yul\":2776:2782   */\n      dup2\n        /* \"#utility.yul\":2771:2774   */\n      dup6\n        /* \"#utility.yul\":2678:2783   */\n      tag_213\n      jump\t// in\n    tag_277:\n        /* \"#utility.yul\":2671:2783   */\n      swap4\n      pop\n        /* \"#utility.yul\":2807:2882   */\n      tag_278\n        /* \"#utility.yul\":2876:2881   */\n      dup4\n        /* \"#utility.yul\":2807:2882   */\n      tag_214\n      jump\t// in\n    tag_278:\n        /* \"#utility.yul\":2905:2912   */\n      dup1\n        /* \"#utility.yul\":2936:2937   */\n      0x00\n        /* \"#utility.yul\":2921:3262   */\n    tag_279:\n        /* \"#utility.yul\":2946:2952   */\n      dup4\n        /* \"#utility.yul\":2943:2944   */\n      dup2\n        /* \"#utility.yul\":2940:2953   */\n      lt\n        /* \"#utility.yul\":2921:3262   */\n      iszero\n      tag_281\n      jumpi\n        /* \"#utility.yul\":3022:3028   */\n      dup2\n        /* \"#utility.yul\":3016:3029   */\n      mload\n        /* \"#utility.yul\":3049:3150   */\n      tag_282\n        /* \"#utility.yul\":3146:3149   */\n      dup9\n        /* \"#utility.yul\":3131:3144   */\n      dup3\n        /* \"#utility.yul\":3049:3150   */\n      tag_220\n      jump\t// in\n    tag_282:\n        /* \"#utility.yul\":3042:3150   */\n      swap8\n      pop\n        /* \"#utility.yul\":3173:3252   */\n      tag_283\n        /* \"#utility.yul\":3245:3251   */\n      dup4\n        /* \"#utility.yul\":3173:3252   */\n      tag_221\n      jump\t// in\n    tag_283:\n        /* \"#utility.yul\":3163:3252   */\n      swap3\n      pop\n        /* \"#utility.yul\":2981:3262   */\n      pop\n        /* \"#utility.yul\":2968:2969   */\n      0x01\n        /* \"#utility.yul\":2965:2966   */\n      dup2\n        /* \"#utility.yul\":2961:2970   */\n      add\n        /* \"#utility.yul\":2956:2970   */\n      swap1\n      pop\n        /* \"#utility.yul\":2921:3262   */\n      jump(tag_279)\n    tag_281:\n        /* \"#utility.yul\":2925:2939   */\n      pop\n        /* \"#utility.yul\":3278:3281   */\n      dup6\n        /* \"#utility.yul\":3271:3281   */\n      swap4\n      pop\n        /* \"#utility.yul\":2565:3287   */\n      pop\n      pop\n      pop\n        /* \"#utility.yul\":2403:3287   */\n      swap3\n      swap2\n      pop\n      pop\n      jump\t// out\n        /* \"#utility.yul\":3293:3742   */\n    tag_28:\n        /* \"#utility.yul\":3474:3478   */\n      0x00\n        /* \"#utility.yul\":3512:3514   */\n      0x20\n        /* \"#utility.yul\":3501:3510   */\n      dup3\n        /* \"#utility.yul\":3497:3515   */\n      add\n        /* \"#utility.yul\":3489:3515   */\n      swap1\n      pop\n        /* \"#utility.yul\":3561:3570   */\n      dup2\n        /* \"#utility.yul\":3555:3559   */\n      dup2\n        /* \"#utility.yul\":3551:3571   */\n      sub\n        /* \"#utility.yul\":3547:3548   */\n      0x00\n        /* \"#utility.yul\":3536:3545   */\n      dup4\n        /* \"#utility.yul\":3532:3549   */\n      add\n        /* \"#utility.yul\":3525:3572   */\n      mstore\n        /* \"#utility.yul\":3589:3735   */\n      tag_285\n        /* \"#utility.yul\":3730:3734   */\n      dup2\n        /* \"#utility.yul\":3721:3727   */\n      dup5\n        /* \"#utility.yul\":3589:3735   */\n      tag_222\n      jump\t// in\n    tag_285:\n        /* \"#utility.yul\":3581:3735   */\n      swap1\n      pop\n        /* \"#utility.yul\":3293:3742   */\n      swap3\n      swap2\n      pop\n      pop\n      jump\t// out\n        /* \"#utility.yul\":3829:3946   */\n    tag_224:\n        /* \"#utility.yul\":3938:3939   */\n      0x00\n        /* \"#utility.yul\":3935:3936   */\n      0x00\n        /* \"#utility.yul\":3928:3940   */\n      revert\n        /* \"#utility.yul\":4075:4197   */\n    tag_226:\n        /* \"#utility.yul\":4148:4172   */\n      tag_290\n        /* \"#utility.yul\":4166:4171   */\n      dup2\n        /* \"#utility.yul\":4148:4172   */\n      tag_210\n      jump\t// in\n    tag_290:\n        /* \"#utility.yul\":4141:4146   */\n      dup2\n        /* \"#utility.yul\":4138:4173   */\n      eq\n        /* \"#utility.yul\":4128:4191   */\n      tag_291\n      jumpi\n        /* \"#utility.yul\":4187:4188   */\n      0x00\n        /* \"#utility.yul\":4184:4185   */\n      0x00\n        /* \"#utility.yul\":4177:4189   */\n      revert\n        /* \"#utility.yul\":4128:4191   */\n    tag_291:\n        /* \"#utility.yul\":4075:4197   */\n      pop\n      jump\t// out\n        /* \"#utility.yul\":4203:4342   */\n    tag_227:\n        /* \"#utility.yul\":4249:4254   */\n      0x00\n        /* \"#utility.yul\":4287:4293   */\n      dup2\n        /* \"#utility.yul\":4274:4294   */\n      calldataload\n        /* \"#utility.yul\":4265:4294   */\n      swap1\n      pop\n        /* \"#utility.yul\":4303:4336   */\n      tag_293\n        /* \"#utility.yul\":4330:4335   */\n      dup2\n        /* \"#utility.yul\":4303:4336   */\n      tag_226\n      jump\t// in\n    tag_293:\n        /* \"#utility.yul\":4203:4342   */\n      swap3\n      swap2\n      pop\n      pop\n      jump\t// out\n        /* \"#utility.yul\":4348:4677   */\n    tag_32:\n        /* \"#utility.yul\":4407:4413   */\n      0x00\n        /* \"#utility.yul\":4456:4458   */\n      0x20\n        /* \"#utility.yul\":4444:4453   */\n      dup3\n        /* \"#utility.yul\":4435:4442   */\n      dup5\n        /* \"#utility.yul\":4431:4454   */\n      sub\n        /* \"#utility.yul\":4427:4459   */\n      slt\n        /* \"#utility.yul\":4424:4543   */\n      iszero\n      tag_295\n      jumpi\n        /* \"#utility.yul\":4462:4541   */\n      tag_296\n      tag_224\n      jump\t// in\n    tag_296:\n        /* \"#utility.yul\":4424:4543   */\n    tag_295:\n        /* \"#utility.yul\":4582:4583   */\n      0x00\n        /* \"#utility.yul\":4607:4660   */\n      tag_297\n        /* \"#utility.yul\":4652:4659   */\n      dup5\n        /* \"#utility.yul\":4643:4649   */\n      dup3\n        /* \"#utility.yul\":4632:4641   */\n      dup6\n        /* \"#utility.yul\":4628:4650   */\n      add\n        /* \"#utility.yul\":4607:4660   */\n      tag_227\n      jump\t// in\n    tag_297:\n        /* \"#utility.yul\":4597:4660   */\n      swap2\n      pop\n        /* \"#utility.yul\":4553:4670   */\n      pop\n        /* \"#utility.yul\":4348:4677   */\n      swap3\n      swap2\n      pop\n      pop\n      jump\t// out\n        /* \"#utility.yul\":4683:4801   */\n    tag_228:\n        /* \"#utility.yul\":4770:4794   */\n      tag_299\n        /* \"#utility.yul\":4788:4793   */\n      dup2\n        /* \"#utility.yul\":4770:4794   */\n      tag_216\n      jump\t// in\n    tag_299:\n        /* \"#utility.yul\":4765:4768   */\n      dup3\n        /* \"#utility.yul\":4758:4795   */\n      mstore\n        /* \"#utility.yul\":4683:4801   */\n      pop\n      pop\n      jump\t// out\n        /* \"#utility.yul\":4807:5029   */\n    tag_35:\n        /* \"#utility.yul\":4900:4904   */\n      0x00\n        /* \"#utility.yul\":4938:4940   */\n      0x20\n        /* \"#utility.yul\":4927:4936   */\n      dup3\n        /* \"#utility.yul\":4923:4941   */\n      add\n        /* \"#utility.yul\":4915:4941   */\n      swap1\n      pop\n        /* \"#utility.yul\":4951:5022   */\n      tag_301\n        /* \"#utility.yul\":5019:5020   */\n      0x00\n        /* \"#utility.yul\":5008:5017   */\n      dup4\n        /* \"#utility.yul\":5004:5021   */\n      add\n        /* \"#utility.yul\":4995:5001   */\n      dup5\n        /* \"#utility.yul\":4951:5022   */\n      tag_228\n      jump\t// in\n    tag_301:\n        /* \"#utility.yul\":4807:5029   */\n      swap3\n      swap2\n      pop\n      pop\n      jump\t// out\n        /* \"#utility.yul\":5035:5134   */\n    tag_229:\n        /* \"#utility.yul\":5087:5093   */\n      0x00\n        /* \"#utility.yul\":5121:5126   */\n      dup2\n        /* \"#utility.yul\":5115:5127   */\n      mload\n        /* \"#utility.yul\":5105:5127   */\n      swap1\n      pop\n        /* \"#utility.yul\":5035:5134   */\n      swap2\n      swap1\n      pop\n      jump\t// out\n        /* \"#utility.yul\":5140:5309   */\n    tag_230:\n        /* \"#utility.yul\":5224:5235   */\n      0x00\n        /* \"#utility.yul\":5258:5264   */\n      dup3\n        /* \"#utility.yul\":5253:5256   */\n      dup3\n        /* \"#utility.yul\":5246:5265   */\n      mstore\n        /* \"#utility.yul\":5298:5302   */\n      0x20\n        /* \"#utility.yul\":5293:5296   */\n      dup3\n        /* \"#utility.yul\":5289:5303   */\n      add\n        /* \"#utility.yul\":5274:5303   */\n      swap1\n      pop\n        /* \"#utility.yul\":5140:5309   */\n      swap3\n      swap2\n      pop\n      pop\n      jump\t// out\n        /* \"#utility.yul\":5315:5454   */\n    tag_231:\n        /* \"#utility.yul\":5404:5410   */\n      dup3\n        /* \"#utility.yul\":5399:5402   */\n      dup2\n        /* \"#utility.yul\":5394:5397   */\n      dup4\n        /* \"#utility.yul\":5388:5411   */\n      mcopy\n        /* \"#utility.yul\":5445:5446   */\n      0x00\n        /* \"#utility.yul\":5436:5442   */\n      dup4\n        /* \"#utility.yul\":5431:5434   */\n      dup4\n        /* \"#utility.yul\":5427:5443   */\n      add\n        /* \"#utility.yul\":5420:5447   */\n      mstore\n        /* \"#utility.yul\":5315:5454   */\n      pop\n      pop\n      pop\n      jump\t// out\n        /* \"#utility.yul\":5460:5562   */\n    tag_232:\n        /* \"#utility.yul\":5501:5507   */\n      0x00\n        /* \"#utility.yul\":5552:5554   */\n      0x1f\n        /* \"#utility.yul\":5548:5555   */\n      not\n        /* \"#utility.yul\":5543:5545   */\n      0x1f\n        /* \"#utility.yul\":5536:5541   */\n      dup4\n        /* \"#utility.yul\":5532:5546   */\n      add\n        /* \"#utility.yul\":5528:5556   */\n      and\n        /* \"#utility.yul\":5518:5556   */\n      swap1\n      pop\n        /* \"#utility.yul\":5460:5562   */\n      swap2\n      swap1\n      pop\n      jump\t// out\n        /* \"#utility.yul\":5568:5945   */\n    tag_233:\n        /* \"#utility.yul\":5656:5659   */\n      0x00\n        /* \"#utility.yul\":5684:5723   */\n      tag_307\n        /* \"#utility.yul\":5717:5722   */\n      dup3\n        /* \"#utility.yul\":5684:5723   */\n      tag_229\n      jump\t// in\n    tag_307:\n        /* \"#utility.yul\":5739:5810   */\n      tag_308\n        /* \"#utility.yul\":5803:5809   */\n      dup2\n        /* \"#utility.yul\":5798:5801   */\n      dup6\n        /* \"#utility.yul\":5739:5810   */\n      tag_230\n      jump\t// in\n    tag_308:\n        /* \"#utility.yul\":5732:5810   */\n      swap4\n      pop\n        /* \"#utility.yul\":5819:5884   */\n      tag_309\n        /* \"#utility.yul\":5877:5883   */\n      dup2\n        /* \"#utility.yul\":5872:5875   */\n      dup6\n        /* \"#utility.yul\":5865:5869   */\n      0x20\n        /* \"#utility.yul\":5858:5863   */\n      dup7\n        /* \"#utility.yul\":5854:5870   */\n      add\n        /* \"#utility.yul\":5819:5884   */\n      tag_231\n      jump\t// in\n    tag_309:\n        /* \"#utility.yul\":5909:5938   */\n      tag_310\n        /* \"#utility.yul\":5931:5937   */\n      dup2\n        /* \"#utility.yul\":5909:5938   */\n      tag_232\n      jump\t// in\n    tag_310:\n        /* \"#utility.yul\":5904:5907   */\n      dup5\n        /* \"#utility.yul\":5900:5939   */\n      add\n        /* \"#utility.yul\":5893:5939   */\n      swap2\n      pop\n        /* \"#utility.yul\":5660:5945   */\n      pop\n        /* \"#utility.yul\":5568:5945   */\n      swap3\n      swap2\n      pop\n      pop\n      jump\t// out\n        /* \"#utility.yul\":5951:6264   */\n    tag_64:\n        /* \"#utility.yul\":6064:6068   */\n      0x00\n        /* \"#utility.yul\":6102:6104   */\n      0x20\n        /* \"#utility.yul\":6091:6100   */\n      dup3\n        /* \"#utility.yul\":6087:6105   */\n      add\n        /* \"#utility.yul\":6079:6105   */\n      swap1\n      pop\n        /* \"#utility.yul\":6151:6160   */\n      dup2\n        /* \"#utility.yul\":6145:6149   */\n      dup2\n        /* \"#utility.yul\":6141:6161   */\n      sub\n        /* \"#utility.yul\":6137:6138   */\n      0x00\n        /* \"#utility.yul\":6126:6135   */\n      dup4\n        /* \"#utility.yul\":6122:6139   */\n      add\n        /* \"#utility.yul\":6115:6162   */\n      mstore\n        /* \"#utility.yul\":6179:6257   */\n      tag_312\n        /* \"#utility.yul\":6252:6256   */\n      dup2\n        /* \"#utility.yul\":6243:6249   */\n      dup5\n        /* \"#utility.yul\":6179:6257   */\n      tag_233\n      jump\t// in\n    tag_312:\n        /* \"#utility.yul\":6171:6257   */\n      swap1\n      pop\n        /* \"#utility.yul\":5951:6264   */\n      swap3\n      swap2\n      pop\n      pop\n      jump\t// out\n        /* \"#utility.yul\":6270:6392   */\n    tag_234:\n        /* \"#utility.yul\":6343:6367   */\n      tag_314\n        /* \"#utility.yul\":6361:6366   */\n      dup2\n        /* \"#utility.yul\":6343:6367   */\n      tag_216\n      jump\t// in\n    tag_314:\n        /* \"#utility.yul\":6336:6341   */\n      dup2\n        /* \"#utility.yul\":6333:6368   */\n      eq\n        /* \"#utility.yul\":6323:6386   */\n      tag_315\n      jumpi\n        /* \"#utility.yul\":6382:6383   */\n      0x00\n        /* \"#utility.yul\":6379:6380   */\n      0x00\n        /* \"#utility.yul\":6372:6384   */\n      revert\n        /* \"#utility.yul\":6323:6386   */\n    tag_315:\n        /* \"#utility.yul\":6270:6392   */\n      pop\n      jump\t// out\n        /* \"#utility.yul\":6398:6537   */\n    tag_235:\n        /* \"#utility.yul\":6444:6449   */\n      0x00\n        /* \"#utility.yul\":6482:6488   */\n      dup2\n        /* \"#utility.yul\":6469:6489   */\n      calldataload\n        /* \"#utility.yul\":6460:6489   */\n      swap1\n      pop\n        /* \"#utility.yul\":6498:6531   */\n      tag_317\n        /* \"#utility.yul\":6525:6530   */\n      dup2\n        /* \"#utility.yul\":6498:6531   */\n      tag_234\n      jump\t// in\n    tag_317:\n        /* \"#utility.yul\":6398:6537   */\n      swap3\n      swap2\n      pop\n      pop\n      jump\t// out\n        /* \"#utility.yul\":6543:6872   */\n    tag_78:\n        /* \"#utility.yul\":6602:6608   */\n      0x00\n        /* \"#utility.yul\":6651:6653   */\n      0x20\n        /* \"#utility.yul\":6639:6648   */\n      dup3\n        /* \"#utility.yul\":6630:6637   */\n      dup5\n        /* \"#utility.yul\":6626:6649   */\n      sub\n        /* \"#utility.yul\":6622:6654   */\n      slt\n        /* \"#utility.yul\":6619:6738   */\n      iszero\n      tag_319\n      jumpi\n        /* \"#utility.yul\":6657:6736   */\n      tag_320\n      tag_224\n      jump\t// in\n    tag_320:\n        /* \"#utility.yul\":6619:6738   */\n    tag_319:\n        /* \"#utility.yul\":6777:6778   */\n      0x00\n        /* \"#utility.yul\":6802:6855   */\n      tag_321\n        /* \"#utility.yul\":6847:6854   */\n      dup5\n        /* \"#utility.yul\":6838:6844   */\n      dup3\n        /* \"#utility.yul\":6827:6836   */\n      dup6\n        /* \"#utility.yul\":6823:6845   */\n      add\n        /* \"#utility.yul\":6802:6855   */\n      tag_235\n      jump\t// in\n    tag_321:\n        /* \"#utility.yul\":6792:6855   */\n      swap2\n      pop\n        /* \"#utility.yul\":6748:6865   */\n      pop\n        /* \"#utility.yul\":6543:6872   */\n      swap3\n      swap2\n      pop\n      pop\n      jump\t// out\n        /* \"#utility.yul\":6878:7320   */\n    tag_81:\n        /* \"#utility.yul\":7027:7031   */\n      0x00\n        /* \"#utility.yul\":7065:7067   */\n      0x60\n        /* \"#utility.yul\":7054:7063   */\n      dup3\n        /* \"#utility.yul\":7050:7068   */\n      add\n        /* \"#utility.yul\":7042:7068   */\n      swap1\n      pop\n        /* \"#utility.yul\":7078:7149   */\n      tag_323\n        /* \"#utility.yul\":7146:7147   */\n      0x00\n        /* \"#utility.yul\":7135:7144   */\n      dup4\n        /* \"#utility.yul\":7131:7148   */\n      add\n        /* \"#utility.yul\":7122:7128   */\n      dup7\n        /* \"#utility.yul\":7078:7149   */\n      tag_228\n      jump\t// in\n    tag_323:\n        /* \"#utility.yul\":7159:7231   */\n      tag_324\n        /* \"#utility.yul\":7227:7229   */\n      0x20\n        /* \"#utility.yul\":7216:7225   */\n      dup4\n        /* \"#utility.yul\":7212:7230   */\n      add\n        /* \"#utility.yul\":7203:7209   */\n      dup6\n        /* \"#utility.yul\":7159:7231   */\n      tag_211\n      jump\t// in\n    tag_324:\n        /* \"#utility.yul\":7241:7313   */\n      tag_325\n        /* \"#utility.yul\":7309:7311   */\n      0x40\n        /* \"#utility.yul\":7298:7307   */\n      dup4\n        /* \"#utility.yul\":7294:7312   */\n      add\n        /* \"#utility.yul\":7285:7291   */\n      dup5\n        /* \"#utility.yul\":7241:7313   */\n      tag_211\n      jump\t// in\n    tag_325:\n        /* \"#utility.yul\":6878:7320   */\n      swap5\n      swap4\n      pop\n      pop\n      pop\n      pop\n      jump\t// out\n        /* \"#utility.yul\":7326:7506   */\n    tag_85:\n        /* \"#utility.yul\":7374:7451   */\n      0x4e487b7100000000000000000000000000000000000000000000000000000000\n        /* \"#utility.yul\":7371:7372   */\n      0x00\n        /* \"#utility.yul\":7364:7452   */\n      mstore\n        /* \"#utility.yul\":7471:7475   */\n      0x41\n        /* \"#utility.yul\":7468:7469   */\n      0x04\n        /* \"#utility.yul\":7461:7476   */\n      mstore\n        /* \"#utility.yul\":7495:7499   */\n      0x24\n        /* \"#utility.yul\":7492:7493   */\n      0x00\n        /* \"#utility.yul\":7485:7500   */\n      revert\n        /* \"#utility.yul\":7512:7692   */\n    tag_95:\n        /* \"#utility.yul\":7560:7637   */\n      0x4e487b7100000000000000000000000000000000000000000000000000000000\n        /* \"#utility.yul\":7557:7558   */\n      0x00\n        /* \"#utility.yul\":7550:7638   */\n      mstore\n        /* \"#utility.yul\":7657:7661   */\n      0x32\n        /* \"#utility.yul\":7654:7655   */\n      0x04\n        /* \"#utility.yul\":7647:7662   */\n      mstore\n        /* \"#utility.yul\":7681:7685   */\n      0x24\n        /* \"#utility.yul\":7678:7679   */\n      0x00\n        /* \"#utility.yul\":7671:7686   */\n      revert\n        /* \"#utility.yul\":7698:7846   */\n    tag_236:\n        /* \"#utility.yul\":7800:7811   */\n      0x00\n        /* \"#utility.yul\":7837:7840   */\n      dup2\n        /* \"#utility.yul\":7822:7840   */\n      swap1\n      pop\n        /* \"#utility.yul\":7698:7846   */\n      swap3\n      swap2\n      pop\n      pop\n      jump\t// out\n        /* \"#utility.yul\":7852:8242   */\n    tag_237:\n        /* \"#utility.yul\":7958:7961   */\n      0x00\n        /* \"#utility.yul\":7986:8025   */\n      tag_330\n        /* \"#utility.yul\":8019:8024   */\n      dup3\n        /* \"#utility.yul\":7986:8025   */\n      tag_229\n      jump\t// in\n    tag_330:\n        /* \"#utility.yul\":8041:8130   */\n      tag_331\n        /* \"#utility.yul\":8123:8129   */\n      dup2\n        /* \"#utility.yul\":8118:8121   */\n      dup6\n        /* \"#utility.yul\":8041:8130   */\n      tag_236\n      jump\t// in\n    tag_331:\n        /* \"#utility.yul\":8034:8130   */\n      swap4\n      pop\n        /* \"#utility.yul\":8139:8204   */\n      tag_332\n        /* \"#utility.yul\":8197:8203   */\n      dup2\n        /* \"#utility.yul\":8192:8195   */\n      dup6\n        /* \"#utility.yul\":8185:8189   */\n      0x20\n        /* \"#utility.yul\":8178:8183   */\n      dup7\n        /* \"#utility.yul\":8174:8190   */\n      add\n        /* \"#utility.yul\":8139:8204   */\n      tag_231\n      jump\t// in\n    tag_332:\n        /* \"#utility.yul\":8229:8235   */\n      dup1\n        /* \"#utility.yul\":8224:8227   */\n      dup5\n        /* \"#utility.yul\":8220:8236   */\n      add\n        /* \"#utility.yul\":8213:8236   */\n      swap2\n      pop\n        /* \"#utility.yul\":7962:8242   */\n      pop\n        /* \"#utility.yul\":7852:8242   */\n      swap3\n      swap2\n      pop\n      pop\n      jump\t// out\n        /* \"#utility.yul\":8248:8462   */\n    tag_238:\n        /* \"#utility.yul\":8388:8454   */\n      0x7b22626964646572223a22000000000000000000000000000000000000000000\n        /* \"#utility.yul\":8384:8385   */\n      0x00\n        /* \"#utility.yul\":8376:8382   */\n      dup3\n        /* \"#utility.yul\":8372:8386   */\n      add\n        /* \"#utility.yul\":8365:8455   */\n      mstore\n        /* \"#utility.yul\":8248:8462   */\n      pop\n      jump\t// out\n        /* \"#utility.yul\":8468:8870   */\n    tag_239:\n        /* \"#utility.yul\":8628:8631   */\n      0x00\n        /* \"#utility.yul\":8649:8734   */\n      tag_335\n        /* \"#utility.yul\":8731:8733   */\n      0x0b\n        /* \"#utility.yul\":8726:8729   */\n      dup4\n        /* \"#utility.yul\":8649:8734   */\n      tag_236\n      jump\t// in\n    tag_335:\n        /* \"#utility.yul\":8642:8734   */\n      swap2\n      pop\n        /* \"#utility.yul\":8743:8836   */\n      tag_336\n        /* \"#utility.yul\":8832:8835   */\n      dup3\n        /* \"#utility.yul\":8743:8836   */\n      tag_238\n      jump\t// in\n    tag_336:\n        /* \"#utility.yul\":8861:8863   */\n      0x0b\n        /* \"#utility.yul\":8856:8859   */\n      dup3\n        /* \"#utility.yul\":8852:8864   */\n      add\n        /* \"#utility.yul\":8845:8864   */\n      swap1\n      pop\n        /* \"#utility.yul\":8468:8870   */\n      swap2\n      swap1\n      pop\n      jump\t// out\n        /* \"#utility.yul\":8876:9090   */\n    tag_240:\n        /* \"#utility.yul\":9016:9082   */\n      0x222c22616d6f756e74223a220000000000000000000000000000000000000000\n        /* \"#utility.yul\":9012:9013   */\n      0x00\n        /* \"#utility.yul\":9004:9010   */\n      dup3\n        /* \"#utility.yul\":9000:9014   */\n      add\n        /* \"#utility.yul\":8993:9083   */\n      mstore\n        /* \"#utility.yul\":8876:9090   */\n      pop\n      jump\t// out\n        /* \"#utility.yul\":9096:9498   */\n    tag_241:\n        /* \"#utility.yul\":9256:9259   */\n      0x00\n        /* \"#utility.yul\":9277:9362   */\n      tag_339\n        /* \"#utility.yul\":9359:9361   */\n      0x0c\n        /* \"#utility.yul\":9354:9357   */\n      dup4\n        /* \"#utility.yul\":9277:9362   */\n      tag_236\n      jump\t// in\n    tag_339:\n        /* \"#utility.yul\":9270:9362   */\n      swap2\n      pop\n        /* \"#utility.yul\":9371:9464   */\n      tag_340\n        /* \"#utility.yul\":9460:9463   */\n      dup3\n        /* \"#utility.yul\":9371:9464   */\n      tag_240\n      jump\t// in\n    tag_340:\n        /* \"#utility.yul\":9489:9491   */\n      0x0c\n        /* \"#utility.yul\":9484:9487   */\n      dup3\n        /* \"#utility.yul\":9480:9492   */\n      add\n        /* \"#utility.yul\":9473:9492   */\n      swap1\n      pop\n        /* \"#utility.yul\":9096:9498   */\n      swap2\n      swap1\n      pop\n      jump\t// out\n        /* \"#utility.yul\":9504:9718   */\n    tag_242:\n        /* \"#utility.yul\":9644:9710   */\n      0x227d000000000000000000000000000000000000000000000000000000000000\n        /* \"#utility.yul\":9640:9641   */\n      0x00\n        /* \"#utility.yul\":9632:9638   */\n      dup3\n        /* \"#utility.yul\":9628:9642   */\n      add\n        /* \"#utility.yul\":9621:9711   */\n      mstore\n        /* \"#utility.yul\":9504:9718   */\n      pop\n      jump\t// out\n        /* \"#utility.yul\":9724:10124   */\n    tag_243:\n        /* \"#utility.yul\":9884:9887   */\n      0x00\n        /* \"#utility.yul\":9905:9989   */\n      tag_343\n        /* \"#utility.yul\":9987:9988   */\n      0x02\n        /* \"#utility.yul\":9982:9985   */\n      dup4\n        /* \"#utility.yul\":9905:9989   */\n      tag_236\n      jump\t// in\n    tag_343:\n        /* \"#utility.yul\":9898:9989   */\n      swap2\n      pop\n        /* \"#utility.yul\":9998:10091   */\n      tag_344\n        /* \"#utility.yul\":10087:10090   */\n      dup3\n        /* \"#utility.yul\":9998:10091   */\n      tag_242\n      jump\t// in\n    tag_344:\n        /* \"#utility.yul\":10116:10117   */\n      0x02\n        /* \"#utility.yul\":10111:10114   */\n      dup3\n        /* \"#utility.yul\":10107:10118   */\n      add\n        /* \"#utility.yul\":10100:10118   */\n      swap1\n      pop\n        /* \"#utility.yul\":9724:10124   */\n      swap2\n      swap1\n      pop\n      jump\t// out\n        /* \"#utility.yul\":10130:11523   */\n    tag_121:\n        /* \"#utility.yul\":10661:10664   */\n      0x00\n        /* \"#utility.yul\":10683:10778   */\n      tag_346\n        /* \"#utility.yul\":10774:10777   */\n      dup3\n        /* \"#utility.yul\":10765:10771   */\n      dup7\n        /* \"#utility.yul\":10683:10778   */\n      tag_237\n      jump\t// in\n    tag_346:\n        /* \"#utility.yul\":10676:10778   */\n      swap2\n      pop\n        /* \"#utility.yul\":10795:10943   */\n      tag_347\n        /* \"#utility.yul\":10939:10942   */\n      dup3\n        /* \"#utility.yul\":10795:10943   */\n      tag_239\n      jump\t// in\n    tag_347:\n        /* \"#utility.yul\":10788:10943   */\n      swap2\n      pop\n        /* \"#utility.yul\":10960:11055   */\n      tag_348\n        /* \"#utility.yul\":11051:11054   */\n      dup3\n        /* \"#utility.yul\":11042:11048   */\n      dup6\n        /* \"#utility.yul\":10960:11055   */\n      tag_237\n      jump\t// in\n    tag_348:\n        /* \"#utility.yul\":10953:11055   */\n      swap2\n      pop\n        /* \"#utility.yul\":11072:11220   */\n      tag_349\n        /* \"#utility.yul\":11216:11219   */\n      dup3\n        /* \"#utility.yul\":11072:11220   */\n      tag_241\n      jump\t// in\n    tag_349:\n        /* \"#utility.yul\":11065:11220   */\n      swap2\n      pop\n        /* \"#utility.yul\":11237:11332   */\n      tag_350\n        /* \"#utility.yul\":11328:11331   */\n      dup3\n        /* \"#utility.yul\":11319:11325   */\n      dup5\n        /* \"#utility.yul\":11237:11332   */\n      tag_237\n      jump\t// in\n    tag_350:\n        /* \"#utility.yul\":11230:11332   */\n      swap2\n      pop\n        /* \"#utility.yul\":11349:11497   */\n      tag_351\n        /* \"#utility.yul\":11493:11496   */\n      dup3\n        /* \"#utility.yul\":11349:11497   */\n      tag_243\n      jump\t// in\n    tag_351:\n        /* \"#utility.yul\":11342:11497   */\n      swap2\n      pop\n        /* \"#utility.yul\":11514:11517   */\n      dup2\n        /* \"#utility.yul\":11507:11517   */\n      swap1\n      pop\n        /* \"#utility.yul\":10130:11523   */\n      swap5\n      swap4\n      pop\n      pop\n      pop\n      pop\n      jump\t// out\n        /* \"#utility.yul\":11529:11709   */\n    tag_244:\n        /* \"#utility.yul\":11577:11654   */\n      0x4e487b7100000000000000000000000000000000000000000000000000000000\n        /* \"#utility.yul\":11574:11575   */\n      0x00\n        /* \"#utility.yul\":11567:11655   */\n      mstore\n        /* \"#utility.yul\":11674:11678   */\n      0x11\n        /* \"#utility.yul\":11671:11672   */\n      0x04\n        /* \"#utility.yul\":11664:11679   */\n      mstore\n        /* \"#utility.yul\":11698:11702   */\n      0x24\n        /* \"#utility.yul\":11695:11696   */\n      0x00\n        /* \"#utility.yul\":11688:11703   */\n      revert\n        /* \"#utility.yul\":11715:11909   */\n    tag_123:\n        /* \"#utility.yul\":11755:11759   */\n      0x00\n        /* \"#utility.yul\":11775:11795   */\n      tag_354\n        /* \"#utility.yul\":11793:11794   */\n      dup3\n        /* \"#utility.yul\":11775:11795   */\n      tag_210\n      jump\t// in\n    tag_354:\n        /* \"#utility.yul\":11770:11795   */\n      swap2\n      pop\n        /* \"#utility.yul\":11809:11829   */\n      tag_355\n        /* \"#utility.yul\":11827:11828   */\n      dup4\n        /* \"#utility.yul\":11809:11829   */\n      tag_210\n      jump\t// in\n    tag_355:\n        /* \"#utility.yul\":11804:11829   */\n      swap3\n      pop\n        /* \"#utility.yul\":11853:11854   */\n      dup3\n        /* \"#utility.yul\":11850:11851   */\n      dup3\n        /* \"#utility.yul\":11846:11855   */\n      sub\n        /* \"#utility.yul\":11838:11855   */\n      swap1\n      pop\n        /* \"#utility.yul\":11877:11878   */\n      dup2\n        /* \"#utility.yul\":11871:11875   */\n      dup2\n        /* \"#utility.yul\":11868:11879   */\n      gt\n        /* \"#utility.yul\":11865:11902   */\n      iszero\n      tag_356\n      jumpi\n        /* \"#utility.yul\":11882:11900   */\n      tag_357\n      tag_244\n      jump\t// in\n    tag_357:\n        /* \"#utility.yul\":11865:11902   */\n    tag_356:\n        /* \"#utility.yul\":11715:11909   */\n      swap3\n      swap2\n      pop\n      pop\n      jump\t// out\n        /* \"#utility.yul\":11915:12066   */\n    tag_245:\n        /* \"#utility.yul\":12055:12058   */\n      0x2c00000000000000000000000000000000000000000000000000000000000000\n        /* \"#utility.yul\":12051:12052   */\n      0x00\n        /* \"#utility.yul\":12043:12049   */\n      dup3\n        /* \"#utility.yul\":12039:12053   */\n      add\n        /* \"#utility.yul\":12032:12059   */\n      mstore\n        /* \"#utility.yul\":11915:12066   */\n      pop\n      jump\t// out\n        /* \"#utility.yul\":12072:12472   */\n    tag_246:\n        /* \"#utility.yul\":12232:12235   */\n      0x00\n        /* \"#utility.yul\":12253:12337   */\n      tag_360\n        /* \"#utility.yul\":12335:12336   */\n      0x01\n        /* \"#utility.yul\":12330:12333   */\n      dup4\n        /* \"#utility.yul\":12253:12337   */\n      tag_236\n      jump\t// in\n    tag_360:\n        /* \"#utility.yul\":12246:12337   */\n      swap2\n      pop\n        /* \"#utility.yul\":12346:12439   */\n      tag_361\n        /* \"#utility.yul\":12435:12438   */\n      dup3\n        /* \"#utility.yul\":12346:12439   */\n      tag_245\n      jump\t// in\n    tag_361:\n        /* \"#utility.yul\":12464:12465   */\n      0x01\n        /* \"#utility.yul\":12459:12462   */\n      dup3\n        /* \"#utility.yul\":12455:12466   */\n      add\n        /* \"#utility.yul\":12448:12466   */\n      swap1\n      pop\n        /* \"#utility.yul\":12072:12472   */\n      swap2\n      swap1\n      pop\n      jump\t// out\n        /* \"#utility.yul\":12478:13019   */\n    tag_126:\n        /* \"#utility.yul\":12711:12714   */\n      0x00\n        /* \"#utility.yul\":12733:12828   */\n      tag_363\n        /* \"#utility.yul\":12824:12827   */\n      dup3\n        /* \"#utility.yul\":12815:12821   */\n      dup5\n        /* \"#utility.yul\":12733:12828   */\n      tag_237\n      jump\t// in\n    tag_363:\n        /* \"#utility.yul\":12726:12828   */\n      swap2\n      pop\n        /* \"#utility.yul\":12845:12993   */\n      tag_364\n        /* \"#utility.yul\":12989:12992   */\n      dup3\n        /* \"#utility.yul\":12845:12993   */\n      tag_246\n      jump\t// in\n    tag_364:\n        /* \"#utility.yul\":12838:12993   */\n      swap2\n      pop\n        /* \"#utility.yul\":13010:13013   */\n      dup2\n        /* \"#utility.yul\":13003:13013   */\n      swap1\n      pop\n        /* \"#utility.yul\":12478:13019   */\n      swap3\n      swap2\n      pop\n      pop\n      jump\t// out\n        /* \"#utility.yul\":13025:13176   */\n    tag_247:\n        /* \"#utility.yul\":13165:13168   */\n      0x5d00000000000000000000000000000000000000000000000000000000000000\n        /* \"#utility.yul\":13161:13162   */\n      0x00\n        /* \"#utility.yul\":13153:13159   */\n      dup3\n        /* \"#utility.yul\":13149:13163   */\n      add\n        /* \"#utility.yul\":13142:13169   */\n      mstore\n        /* \"#utility.yul\":13025:13176   */\n      pop\n      jump\t// out\n        /* \"#utility.yul\":13182:13582   */\n    tag_248:\n        /* \"#utility.yul\":13342:13345   */\n      0x00\n        /* \"#utility.yul\":13363:13447   */\n      tag_367\n        /* \"#utility.yul\":13445:13446   */\n      0x01\n        /* \"#utility.yul\":13440:13443   */\n      dup4\n        /* \"#utility.yul\":13363:13447   */\n      tag_236\n      jump\t// in\n    tag_367:\n        /* \"#utility.yul\":13356:13447   */\n      swap2\n      pop\n        /* \"#utility.yul\":13456:13549   */\n      tag_368\n        /* \"#utility.yul\":13545:13548   */\n      dup3\n        /* \"#utility.yul\":13456:13549   */\n      tag_247\n      jump\t// in\n    tag_368:\n        /* \"#utility.yul\":13574:13575   */\n      0x01\n        /* \"#utility.yul\":13569:13572   */\n      dup3\n        /* \"#utility.yul\":13565:13576   */\n      add\n        /* \"#utility.yul\":13558:13576   */\n      swap1\n      pop\n        /* \"#utility.yul\":13182:13582   */\n      swap2\n      swap1\n      pop\n      jump\t// out\n        /* \"#utility.yul\":13588:14129   */\n    tag_128:\n        /* \"#utility.yul\":13821:13824   */\n      0x00\n        /* \"#utility.yul\":13843:13938   */\n      tag_370\n        /* \"#utility.yul\":13934:13937   */\n      dup3\n        /* \"#utility.yul\":13925:13931   */\n      dup5\n        /* \"#utility.yul\":13843:13938   */\n      tag_237\n      jump\t// in\n    tag_370:\n        /* \"#utility.yul\":13836:13938   */\n      swap2\n      pop\n        /* \"#utility.yul\":13955:14103   */\n      tag_371\n        /* \"#utility.yul\":14099:14102   */\n      dup3\n        /* \"#utility.yul\":13955:14103   */\n      tag_248\n      jump\t// in\n    tag_371:\n        /* \"#utility.yul\":13948:14103   */\n      swap2\n      pop\n        /* \"#utility.yul\":14120:14123   */\n      dup2\n        /* \"#utility.yul\":14113:14123   */\n      swap1\n      pop\n        /* \"#utility.yul\":13588:14129   */\n      swap3\n      swap2\n      pop\n      pop\n      jump\t// out\n        /* \"#utility.yul\":14135:14306   */\n    tag_249:\n        /* \"#utility.yul\":14275:14298   */\n      0x5468652061756374696f6e2068617320656e6465640000000000000000000000\n        /* \"#utility.yul\":14271:14272   */\n      0x00\n        /* \"#utility.yul\":14263:14269   */\n      dup3\n        /* \"#utility.yul\":14259:14273   */\n      add\n        /* \"#utility.yul\":14252:14299   */\n      mstore\n        /* \"#utility.yul\":14135:14306   */\n      pop\n      jump\t// out\n        /* \"#utility.yul\":14312:14678   */\n    tag_250:\n        /* \"#utility.yul\":14454:14457   */\n      0x00\n        /* \"#utility.yul\":14475:14542   */\n      tag_374\n        /* \"#utility.yul\":14539:14541   */\n      0x15\n        /* \"#utility.yul\":14534:14537   */\n      dup4\n        /* \"#utility.yul\":14475:14542   */\n      tag_230\n      jump\t// in\n    tag_374:\n        /* \"#utility.yul\":14468:14542   */\n      swap2\n      pop\n        /* \"#utility.yul\":14551:14644   */\n      tag_375\n        /* \"#utility.yul\":14640:14643   */\n      dup3\n        /* \"#utility.yul\":14551:14644   */\n      tag_249\n      jump\t// in\n    tag_375:\n        /* \"#utility.yul\":14669:14671   */\n      0x20\n        /* \"#utility.yul\":14664:14667   */\n      dup3\n        /* \"#utility.yul\":14660:14672   */\n      add\n        /* \"#utility.yul\":14653:14672   */\n      swap1\n      pop\n        /* \"#utility.yul\":14312:14678   */\n      swap2\n      swap1\n      pop\n      jump\t// out\n        /* \"#utility.yul\":14684:15103   */\n    tag_132:\n        /* \"#utility.yul\":14850:14854   */\n      0x00\n        /* \"#utility.yul\":14888:14890   */\n      0x20\n        /* \"#utility.yul\":14877:14886   */\n      dup3\n        /* \"#utility.yul\":14873:14891   */\n      add\n        /* \"#utility.yul\":14865:14891   */\n      swap1\n      pop\n        /* \"#utility.yul\":14937:14946   */\n      dup2\n        /* \"#utility.yul\":14931:14935   */\n      dup2\n        /* \"#utility.yul\":14927:14947   */\n      sub\n        /* \"#utility.yul\":14923:14924   */\n      0x00\n        /* \"#utility.yul\":14912:14921   */\n      dup4\n        /* \"#utility.yul\":14908:14925   */\n      add\n        /* \"#utility.yul\":14901:14948   */\n      mstore\n        /* \"#utility.yul\":14965:15096   */\n      tag_377\n        /* \"#utility.yul\":15091:15095   */\n      dup2\n        /* \"#utility.yul\":14965:15096   */\n      tag_250\n      jump\t// in\n    tag_377:\n        /* \"#utility.yul\":14957:15096   */\n      swap1\n      pop\n        /* \"#utility.yul\":14684:15103   */\n      swap2\n      swap1\n      pop\n      jump\t// out\n        /* \"#utility.yul\":15109:15300   */\n    tag_135:\n        /* \"#utility.yul\":15149:15152   */\n      0x00\n        /* \"#utility.yul\":15168:15188   */\n      tag_379\n        /* \"#utility.yul\":15186:15187   */\n      dup3\n        /* \"#utility.yul\":15168:15188   */\n      tag_210\n      jump\t// in\n    tag_379:\n        /* \"#utility.yul\":15163:15188   */\n      swap2\n      pop\n        /* \"#utility.yul\":15202:15222   */\n      tag_380\n        /* \"#utility.yul\":15220:15221   */\n      dup4\n        /* \"#utility.yul\":15202:15222   */\n      tag_210\n      jump\t// in\n    tag_380:\n        /* \"#utility.yul\":15197:15222   */\n      swap3\n      pop\n        /* \"#utility.yul\":15245:15246   */\n      dup3\n        /* \"#utility.yul\":15242:15243   */\n      dup3\n        /* \"#utility.yul\":15238:15247   */\n      add\n        /* \"#utility.yul\":15231:15247   */\n      swap1\n      pop\n        /* \"#utility.yul\":15266:15269   */\n      dup1\n        /* \"#utility.yul\":15263:15264   */\n      dup3\n        /* \"#utility.yul\":15260:15270   */\n      gt\n        /* \"#utility.yul\":15257:15293   */\n      iszero\n      tag_381\n      jumpi\n        /* \"#utility.yul\":15273:15291   */\n      tag_382\n      tag_244\n      jump\t// in\n    tag_382:\n        /* \"#utility.yul\":15257:15293   */\n    tag_381:\n        /* \"#utility.yul\":15109:15300   */\n      swap3\n      swap2\n      pop\n      pop\n      jump\t// out\n        /* \"#utility.yul\":15306:15716   */\n    tag_137:\n        /* \"#utility.yul\":15346:15353   */\n      0x00\n        /* \"#utility.yul\":15369:15389   */\n      tag_384\n        /* \"#utility.yul\":15387:15388   */\n      dup3\n        /* \"#utility.yul\":15369:15389   */\n      tag_210\n      jump\t// in\n    tag_384:\n        /* \"#utility.yul\":15364:15389   */\n      swap2\n      pop\n        /* \"#utility.yul\":15403:15423   */\n      tag_385\n        /* \"#utility.yul\":15421:15422   */\n      dup4\n        /* \"#utility.yul\":15403:15423   */\n      tag_210\n      jump\t// in\n    tag_385:\n        /* \"#utility.yul\":15398:15423   */\n      swap3\n      pop\n        /* \"#utility.yul\":15458:15459   */\n      dup3\n        /* \"#utility.yul\":15455:15456   */\n      dup3\n        /* \"#utility.yul\":15451:15460   */\n      mul\n        /* \"#utility.yul\":15480:15510   */\n      tag_386\n        /* \"#utility.yul\":15498:15509   */\n      dup2\n        /* \"#utility.yul\":15480:15510   */\n      tag_210\n      jump\t// in\n    tag_386:\n        /* \"#utility.yul\":15469:15510   */\n      swap2\n      pop\n        /* \"#utility.yul\":15659:15660   */\n      dup3\n        /* \"#utility.yul\":15650:15657   */\n      dup3\n        /* \"#utility.yul\":15646:15661   */\n      div\n        /* \"#utility.yul\":15643:15644   */\n      dup5\n        /* \"#utility.yul\":15640:15662   */\n      eq\n        /* \"#utility.yul\":15620:15621   */\n      dup4\n        /* \"#utility.yul\":15613:15622   */\n      iszero\n        /* \"#utility.yul\":15593:15676   */\n      or\n        /* \"#utility.yul\":15570:15709   */\n      tag_387\n      jumpi\n        /* \"#utility.yul\":15689:15707   */\n      tag_388\n      tag_244\n      jump\t// in\n    tag_388:\n        /* \"#utility.yul\":15570:15709   */\n    tag_387:\n        /* \"#utility.yul\":15354:15716   */\n      pop\n        /* \"#utility.yul\":15306:15716   */\n      swap3\n      swap2\n      pop\n      pop\n      jump\t// out\n        /* \"#utility.yul\":15722:15902   */\n    tag_164:\n        /* \"#utility.yul\":15770:15847   */\n      0x4e487b7100000000000000000000000000000000000000000000000000000000\n        /* \"#utility.yul\":15767:15768   */\n      0x00\n        /* \"#utility.yul\":15760:15848   */\n      mstore\n        /* \"#utility.yul\":15867:15871   */\n      0x12\n        /* \"#utility.yul\":15864:15865   */\n      0x04\n        /* \"#utility.yul\":15857:15872   */\n      mstore\n        /* \"#utility.yul\":15891:15895   */\n      0x24\n        /* \"#utility.yul\":15888:15889   */\n      0x00\n        /* \"#utility.yul\":15881:15896   */\n      revert\n        /* \"#utility.yul\":15908:16093   */\n    tag_139:\n        /* \"#utility.yul\":15948:15949   */\n      0x00\n        /* \"#utility.yul\":15965:15985   */\n      tag_391\n        /* \"#utility.yul\":15983:15984   */\n      dup3\n        /* \"#utility.yul\":15965:15985   */\n      tag_210\n      jump\t// in\n    tag_391:\n        /* \"#utility.yul\":15960:15985   */\n      swap2\n      pop\n        /* \"#utility.yul\":15999:16019   */\n      tag_392\n        /* \"#utility.yul\":16017:16018   */\n      dup4\n        /* \"#utility.yul\":15999:16019   */\n      tag_210\n      jump\t// in\n    tag_392:\n        /* \"#utility.yul\":15994:16019   */\n      swap3\n      pop\n        /* \"#utility.yul\":16038:16039   */\n      dup3\n        /* \"#utility.yul\":16028:16063   */\n      tag_393\n      jumpi\n        /* \"#utility.yul\":16043:16061   */\n      tag_394\n      tag_164\n      jump\t// in\n    tag_394:\n        /* \"#utility.yul\":16028:16063   */\n    tag_393:\n        /* \"#utility.yul\":16085:16086   */\n      dup3\n        /* \"#utility.yul\":16082:16083   */\n      dup3\n        /* \"#utility.yul\":16078:16087   */\n      div\n        /* \"#utility.yul\":16073:16087   */\n      swap1\n      pop\n        /* \"#utility.yul\":15908:16093   */\n      swap3\n      swap2\n      pop\n      pop\n      jump\t// out\n        /* \"#utility.yul\":16099:16400   */\n    tag_251:\n        /* \"#utility.yul\":16239:16273   */\n      0x54686520626964206d757374206f757462696420746865206265737420626964\n        /* \"#utility.yul\":16235:16236   */\n      0x00\n        /* \"#utility.yul\":16227:16233   */\n      dup3\n        /* \"#utility.yul\":16223:16237   */\n      add\n        /* \"#utility.yul\":16216:16274   */\n      mstore\n        /* \"#utility.yul\":16308:16342   */\n      0x2c20636f6e7369646572696e6720746865206d696e696d756d20696e63726561\n        /* \"#utility.yul\":16303:16305   */\n      0x20\n        /* \"#utility.yul\":16295:16301   */\n      dup3\n        /* \"#utility.yul\":16291:16306   */\n      add\n        /* \"#utility.yul\":16284:16343   */\n      mstore\n        /* \"#utility.yul\":16377:16392   */\n      0x73652070657263656e7461676500000000000000000000000000000000000000\n        /* \"#utility.yul\":16372:16374   */\n      0x40\n        /* \"#utility.yul\":16364:16370   */\n      dup3\n        /* \"#utility.yul\":16360:16375   */\n      add\n        /* \"#utility.yul\":16353:16393   */\n      mstore\n        /* \"#utility.yul\":16099:16400   */\n      pop\n      jump\t// out\n        /* \"#utility.yul\":16406:16772   */\n    tag_252:\n        /* \"#utility.yul\":16548:16551   */\n      0x00\n        /* \"#utility.yul\":16569:16636   */\n      tag_397\n        /* \"#utility.yul\":16633:16635   */\n      0x4d\n        /* \"#utility.yul\":16628:16631   */\n      dup4\n        /* \"#utility.yul\":16569:16636   */\n      tag_230\n      jump\t// in\n    tag_397:\n        /* \"#utility.yul\":16562:16636   */\n      swap2\n      pop\n        /* \"#utility.yul\":16645:16738   */\n      tag_398\n        /* \"#utility.yul\":16734:16737   */\n      dup3\n        /* \"#utility.yul\":16645:16738   */\n      tag_251\n      jump\t// in\n    tag_398:\n        /* \"#utility.yul\":16763:16765   */\n      0x60\n        /* \"#utility.yul\":16758:16761   */\n      dup3\n        /* \"#utility.yul\":16754:16766   */\n      add\n        /* \"#utility.yul\":16747:16766   */\n      swap1\n      pop\n        /* \"#utility.yul\":16406:16772   */\n      swap2\n      swap1\n      pop\n      jump\t// out\n        /* \"#utility.yul\":16778:17197   */\n    tag_142:\n        /* \"#utility.yul\":16944:16948   */\n      0x00\n        /* \"#utility.yul\":16982:16984   */\n      0x20\n        /* \"#utility.yul\":16971:16980   */\n      dup3\n        /* \"#utility.yul\":16967:16985   */\n      add\n        /* \"#utility.yul\":16959:16985   */\n      swap1\n      pop\n        /* \"#utility.yul\":17031:17040   */\n      dup2\n        /* \"#utility.yul\":17025:17029   */\n      dup2\n        /* \"#utility.yul\":17021:17041   */\n      sub\n        /* \"#utility.yul\":17017:17018   */\n      0x00\n        /* \"#utility.yul\":17006:17015   */\n      dup4\n        /* \"#utility.yul\":17002:17019   */\n      add\n        /* \"#utility.yul\":16995:17042   */\n      mstore\n        /* \"#utility.yul\":17059:17190   */\n      tag_400\n        /* \"#utility.yul\":17185:17189   */\n      dup2\n        /* \"#utility.yul\":17059:17190   */\n      tag_252\n      jump\t// in\n    tag_400:\n        /* \"#utility.yul\":17051:17190   */\n      swap1\n      pop\n        /* \"#utility.yul\":16778:17197   */\n      swap2\n      swap1\n      pop\n      jump\t// out\n        /* \"#utility.yul\":17203:17374   */\n    tag_186:\n        /* \"#utility.yul\":17242:17245   */\n      0x00\n        /* \"#utility.yul\":17265:17289   */\n      tag_402\n        /* \"#utility.yul\":17283:17288   */\n      dup3\n        /* \"#utility.yul\":17265:17289   */\n      tag_210\n      jump\t// in\n    tag_402:\n        /* \"#utility.yul\":17256:17289   */\n      swap2\n      pop\n        /* \"#utility.yul\":17311:17315   */\n      0x00\n        /* \"#utility.yul\":17304:17309   */\n      dup3\n        /* \"#utility.yul\":17301:17316   */\n      sub\n        /* \"#utility.yul\":17298:17339   */\n      tag_403\n      jumpi\n        /* \"#utility.yul\":17319:17337   */\n      tag_404\n      tag_244\n      jump\t// in\n    tag_404:\n        /* \"#utility.yul\":17298:17339   */\n    tag_403:\n        /* \"#utility.yul\":17366:17367   */\n      0x01\n        /* \"#utility.yul\":17359:17364   */\n      dup3\n        /* \"#utility.yul\":17355:17368   */\n      sub\n        /* \"#utility.yul\":17348:17368   */\n      swap1\n      pop\n        /* \"#utility.yul\":17203:17374   */\n      swap2\n      swap1\n      pop\n      jump\t// out\n        /* \"#utility.yul\":17380:17712   */\n    tag_189:\n        /* \"#utility.yul\":17501:17505   */\n      0x00\n        /* \"#utility.yul\":17539:17541   */\n      0x40\n        /* \"#utility.yul\":17528:17537   */\n      dup3\n        /* \"#utility.yul\":17524:17542   */\n      add\n        /* \"#utility.yul\":17516:17542   */\n      swap1\n      pop\n        /* \"#utility.yul\":17552:17623   */\n      tag_406\n        /* \"#utility.yul\":17620:17621   */\n      0x00\n        /* \"#utility.yul\":17609:17618   */\n      dup4\n        /* \"#utility.yul\":17605:17622   */\n      add\n        /* \"#utility.yul\":17596:17602   */\n      dup6\n        /* \"#utility.yul\":17552:17623   */\n      tag_211\n      jump\t// in\n    tag_406:\n        /* \"#utility.yul\":17633:17705   */\n      tag_407\n        /* \"#utility.yul\":17701:17703   */\n      0x20\n        /* \"#utility.yul\":17690:17699   */\n      dup4\n        /* \"#utility.yul\":17686:17704   */\n      add\n        /* \"#utility.yul\":17677:17683   */\n      dup5\n        /* \"#utility.yul\":17633:17705   */\n      tag_211\n      jump\t// in\n    tag_407:\n        /* \"#utility.yul\":17380:17712   */\n      swap4\n      swap3\n      pop\n      pop\n      pop\n      jump\t// out\n\n    auxdata: 0xa2646970667358221220e112acf290d03ce47361eb38ac247ccfe9d096dd0f1bc22fb2ba10a5f47e4ecb64736f6c634300081c0033\n}\n",
				"bytecode": {
					"linkReferences": {},
					"object": "608060405234801561000f575f5ffd5b50604051611add380380611add83398181016040528101906100319190610121565b5f8311610073576040517f08c379a000000000000000000000000000000000000000000000000000000000815260040161006a906101f1565b60405180910390fd5b335f5f6101000a81548173ffffffffffffffffffffffffffffffffffffffff021916908373ffffffffffffffffffffffffffffffffffffffff16021790555082600281905550826003819055508160048190555080600581905550600554426100dc919061023c565b60068190555050505061026f565b5f5ffd5b5f819050919050565b610100816100ee565b811461010a575f5ffd5b50565b5f8151905061011b816100f7565b92915050565b5f5f5f60608486031215610138576101376100ea565b5b5f6101458682870161010d565b93505060206101568682870161010d565b92505060406101678682870161010d565b9150509250925092565b5f82825260208201905092915050565b7f54686520696e697469616c2076616c7565206d757374206265206772656174655f8201527f72207468616e207a65726f20666f722067617300000000000000000000000000602082015250565b5f6101db603383610171565b91506101e682610181565b604082019050919050565b5f6020820190508181035f830152610208816101cf565b9050919050565b7f4e487b71000000000000000000000000000000000000000000000000000000005f52601160045260245ffd5b5f610246826100ee565b9150610251836100ee565b92508282019050808211156102695761026861020f565b5b92915050565b6118618061027c5f395ff3fe6080604052600436106100dc575f3560e01c80638da5cb5b1161007e578063def1810111610058578063def1810114610296578063dfbf53ae146102c0578063f30e3658146102ea578063fcc8f793146102f4576100dc565b80638da5cb5b14610218578063b3cc167a14610242578063b81c78ec1461026c576100dc565b80632fc36f11116100ba5780632fc36f1114610170578063383e77cb1461019a57806338ed8c3f146101c457806343d7d321146101ee576100dc565b80630fb5a6b4146100e057806314d2687c1461010a5780632fb3c48f14610134575b5f5ffd5b3480156100eb575f5ffd5b506100f4610332565b6040516101019190611000565b60405180910390f35b348015610115575f5ffd5b5061011e610338565b60405161012b919061113c565b60405180910390f35b34801561013f575f5ffd5b5061015a6004803603810190610155919061118a565b6104bc565b60405161016791906111c4565b60405180910390f35b34801561017b575f5ffd5b506101846104f7565b6040516101919190611000565b60405180910390f35b3480156101a5575f5ffd5b506101ae6104fd565b6040516101bb9190611000565b60405180910390f35b3480156101cf575f5ffd5b506101d8610506565b6040516101e59190611000565b60405180910390f35b3480156101f9575f5ffd5b5061020261050f565b60405161020f9190611000565b60405180910390f35b348015610223575f5ffd5b5061022c610515565b60405161023991906111c4565b60405180910390f35b34801561024d575f5ffd5b50610256610539565b6040516102639190611000565b60405180910390f35b348015610277575f5ffd5b5061028061053f565b60405161028d919061124d565b60405180910390f35b3480156102a1575f5ffd5b506102aa6106eb565b6040516102b79190611000565b60405180910390f35b3480156102cb575f5ffd5b506102d46106f1565b6040516102e191906111c4565b60405180910390f35b6102f2610716565b005b3480156102ff575f5ffd5b5061031a60048036038101906103159190611297565b610aef565b604051610329939291906112c2565b60405180910390f35b60055481565b60605f60088054905067ffffffffffffffff81111561035a576103596112f7565b5b60405190808252806020026020018201604052801561039357816020015b610380610fba565b8152602001906001900390816103785790505b5090505f5f90505b6008805490508110156104b4576040518060400160405280600883815481106103c7576103c6611324565b5b905f5260205f20015f9054906101000a900473ffffffffffffffffffffffffffffffffffffffff1673ffffffffffffffffffffffffffffffffffffffff16815260200160075f6008858154811061042157610420611324565b5b905f5260205f20015f9054906101000a900473ffffffffffffffffffffffffffffffffffffffff1673ffffffffffffffffffffffffffffffffffffffff1673ffffffffffffffffffffffffffffffffffffffff1681526020019081526020015f206001015481525082828151811061049c5761049b611324565b5b6020026020010181905250808060010191505061039b565b508091505090565b600881815481106104cb575f80fd5b905f5260205f20015f915054906101000a900473ffffffffffffffffffffffffffffffffffffffff1681565b60025481565b5f600354905090565b5f600454905090565b60065481565b5f5f9054906101000a900473ffffffffffffffffffffffffffffffffffffffff1681565b60045481565b60605f6040518060400160405280600181526020017f5b0000000000000000000000000000000000000000000000000000000000000081525090505f5f90505b6008805490508110156106c157816105d1600883815481106105a4576105a3611324565b5b905f5260205f20015f9054906101000a900473ffffffffffffffffffffffffffffffffffffffff16610b34565b61065560075f600886815481106105eb576105ea611324565b5b905f5260205f20015f9054906101000a900473ffffffffffffffffffffffffffffffffffffffff1673ffffffffffffffffffffffffffffffffffffffff1673ffffffffffffffffffffffffffffffffffffffff1681526020019081526020015f2060010154610b61565b60405160200161066793929190611469565b6040516020818303038152906040529150600160088054905061068a91906114e7565b8110156106b457816040516020016106a29190611564565b60405160208183030381529060405291505b808060010191505061057f565b50806040516020016106d391906115cf565b60405160208183030381529060405290508091505090565b60035481565b60015f9054906101000a900473ffffffffffffffffffffffffffffffffffffffff1681565b600654421061075a576040517f08c379a00000000000000000000000000000000000000000000000000000000081526004016107519061163a565b60405180910390fd5b5f3390505f3490506064806004546107729190611658565b60035461077f919061168b565b61078991906116f9565b81116107ca576040517f08c379a00000000000000000000000000000000000000000000000000000000081526004016107c1906117bf565b60405180910390fd5b6102586006546107da91906114e7565b42106107fb5761025860065f8282546107f39190611658565b925050819055505b5f73ffffffffffffffffffffffffffffffffffffffff1660075f8473ffffffffffffffffffffffffffffffffffffffff1673ffffffffffffffffffffffffffffffffffffffff1681526020019081526020015f205f015f9054906101000a900473ffffffffffffffffffffffffffffffffffffffff1673ffffffffffffffffffffffffffffffffffffffff161461092c578060075f8473ffffffffffffffffffffffffffffffffffffffff1673ffffffffffffffffffffffffffffffffffffffff1681526020019081526020015f20600101819055508060075f8473ffffffffffffffffffffffffffffffffffffffff1673ffffffffffffffffffffffffffffffffffffffff1681526020019081526020015f206002015f8282546109209190611658565b92505081905550610a56565b600882908060018154018082558091505060019003905f5260205f20015f9091909190916101000a81548173ffffffffffffffffffffffffffffffffffffffff021916908373ffffffffffffffffffffffffffffffffffffffff16021790555060405180606001604052808373ffffffffffffffffffffffffffffffffffffffff1681526020018281526020018281525060075f8473ffffffffffffffffffffffffffffffffffffffff1673ffffffffffffffffffffffffffffffffffffffff1681526020019081526020015f205f820151815f015f6101000a81548173ffffffffffffffffffffffffffffffffffffffff021916908373ffffffffffffffffffffffffffffffffffffffff16021790555060208201518160010155604082015181600201559050505b8160015f6101000a81548173ffffffffffffffffffffffffffffffffffffffff021916908373ffffffffffffffffffffffffffffffffffffffff160217905550806003819055508173ffffffffffffffffffffffffffffffffffffffff167fdd0b6c6a77960e2066c96171b4d7ac9e8b4c184011f38544afa36a5bb63ec59f82604051610ae39190611000565b60405180910390a25050565b6007602052805f5260405f205f91509050805f015f9054906101000a900473ffffffffffffffffffffffffffffffffffffffff16908060010154908060020154905083565b6060610b5a8273ffffffffffffffffffffffffffffffffffffffff16601460ff16610c2b565b9050919050565b60605f6001610b6f84610e69565b0190505f8167ffffffffffffffff811115610b8d57610b8c6112f7565b5b6040519080825280601f01601f191660200182016040528015610bbf5781602001600182028036833780820191505090505b5090505f82602001820190505b600115610c20578080600190039150507f3031323334353637383961626364656600000000000000000000000000000000600a86061a8153600a8581610c1557610c146116cc565b5b0494505f8503610bcc575b819350505050919050565b60605f8390505f6002846002610c41919061168b565b610c4b9190611658565b67ffffffffffffffff811115610c6457610c636112f7565b5b6040519080825280601f01601f191660200182016040528015610c965781602001600182028036833780820191505090505b5090507f3000000000000000000000000000000000000000000000000000000000000000815f81518110610ccd57610ccc611324565b5b60200101907effffffffffffffffffffffffffffffffffffffffffffffffffffffffffffff191690815f1a9053507f780000000000000000000000000000000000000000000000000000000000000081600181518110610d3057610d2f611324565b5b60200101907effffffffffffffffffffffffffffffffffffffffffffffffffffffffffffff191690815f1a9053505f6001856002610d6e919061168b565b610d789190611658565b90505b6001811115610e17577f3031323334353637383961626364656600000000000000000000000000000000600f841660108110610dba57610db9611324565b5b1a60f81b828281518110610dd157610dd0611324565b5b60200101907effffffffffffffffffffffffffffffffffffffffffffffffffffffffffffff191690815f1a905350600483901c925080610e10906117dd565b9050610d7b565b505f8214610e5e5784846040517fe22e27eb000000000000000000000000000000000000000000000000000000008152600401610e55929190611804565b60405180910390fd5b809250505092915050565b5f5f5f90507a184f03e93ff9f4daa797ed6e38ed64bf6a1f0100000000000000008310610ec5577a184f03e93ff9f4daa797ed6e38ed64bf6a1f0100000000000000008381610ebb57610eba6116cc565b5b0492506040810190505b6d04ee2d6d415b85acef81000000008310610f02576d04ee2d6d415b85acef81000000008381610ef857610ef76116cc565b5b0492506020810190505b662386f26fc100008310610f3157662386f26fc100008381610f2757610f266116cc565b5b0492506010810190505b6305f5e1008310610f5a576305f5e1008381610f5057610f4f6116cc565b5b0492506008810190505b6127108310610f7f576127108381610f7557610f746116cc565b5b0492506004810190505b60648310610fa25760648381610f9857610f976116cc565b5b0492506002810190505b600a8310610fb1576001810190505b80915050919050565b60405180604001604052805f73ffffffffffffffffffffffffffffffffffffffff1681526020015f81525090565b5f819050919050565b610ffa81610fe8565b82525050565b5f6020820190506110135f830184610ff1565b92915050565b5f81519050919050565b5f82825260208201905092915050565b5f819050602082019050919050565b5f73ffffffffffffffffffffffffffffffffffffffff82169050919050565b5f61106b82611042565b9050919050565b61107b81611061565b82525050565b61108a81610fe8565b82525050565b604082015f8201516110a45f850182611072565b5060208201516110b76020850182611081565b50505050565b5f6110c88383611090565b60408301905092915050565b5f602082019050919050565b5f6110ea82611019565b6110f48185611023565b93506110ff83611033565b805f5b8381101561112f57815161111688826110bd565b9750611121836110d4565b925050600181019050611102565b5085935050505092915050565b5f6020820190508181035f83015261115481846110e0565b905092915050565b5f5ffd5b61116981610fe8565b8114611173575f5ffd5b50565b5f8135905061118481611160565b92915050565b5f6020828403121561119f5761119e61115c565b5b5f6111ac84828501611176565b91505092915050565b6111be81611061565b82525050565b5f6020820190506111d75f8301846111b5565b92915050565b5f81519050919050565b5f82825260208201905092915050565b8281835e5f83830152505050565b5f601f19601f8301169050919050565b5f61121f826111dd565b61122981856111e7565b93506112398185602086016111f7565b61124281611205565b840191505092915050565b5f6020820190508181035f8301526112658184611215565b905092915050565b61127681611061565b8114611280575f5ffd5b50565b5f813590506112918161126d565b92915050565b5f602082840312156112ac576112ab61115c565b5b5f6112b984828501611283565b91505092915050565b5f6060820190506112d55f8301866111b5565b6112e26020830185610ff1565b6112ef6040830184610ff1565b949350505050565b7f4e487b71000000000000000000000000000000000000000000000000000000005f52604160045260245ffd5b7f4e487b71000000000000000000000000000000000000000000000000000000005f52603260045260245ffd5b5f81905092915050565b5f611365826111dd565b61136f8185611351565b935061137f8185602086016111f7565b80840191505092915050565b7f7b22626964646572223a220000000000000000000000000000000000000000005f82015250565b5f6113bf600b83611351565b91506113ca8261138b565b600b82019050919050565b7f222c22616d6f756e74223a2200000000000000000000000000000000000000005f82015250565b5f611409600c83611351565b9150611414826113d5565b600c82019050919050565b7f227d0000000000000000000000000000000000000000000000000000000000005f82015250565b5f611453600283611351565b915061145e8261141f565b600282019050919050565b5f611474828661135b565b915061147f826113b3565b915061148b828561135b565b9150611496826113fd565b91506114a2828461135b565b91506114ad82611447565b9150819050949350505050565b7f4e487b71000000000000000000000000000000000000000000000000000000005f52601160045260245ffd5b5f6114f182610fe8565b91506114fc83610fe8565b9250828203905081811115611514576115136114ba565b5b92915050565b7f2c000000000000000000000000000000000000000000000000000000000000005f82015250565b5f61154e600183611351565b91506115598261151a565b600182019050919050565b5f61156f828461135b565b915061157a82611542565b915081905092915050565b7f5d000000000000000000000000000000000000000000000000000000000000005f82015250565b5f6115b9600183611351565b91506115c482611585565b600182019050919050565b5f6115da828461135b565b91506115e5826115ad565b915081905092915050565b7f5468652061756374696f6e2068617320656e64656400000000000000000000005f82015250565b5f6116246015836111e7565b915061162f826115f0565b602082019050919050565b5f6020820190508181035f83015261165181611618565b9050919050565b5f61166282610fe8565b915061166d83610fe8565b9250828201905080821115611685576116846114ba565b5b92915050565b5f61169582610fe8565b91506116a083610fe8565b92508282026116ae81610fe8565b915082820484148315176116c5576116c46114ba565b5b5092915050565b7f4e487b71000000000000000000000000000000000000000000000000000000005f52601260045260245ffd5b5f61170382610fe8565b915061170e83610fe8565b92508261171e5761171d6116cc565b5b828204905092915050565b7f54686520626964206d757374206f7574626964207468652062657374206269645f8201527f2c20636f6e7369646572696e6720746865206d696e696d756d20696e6372656160208201527f73652070657263656e7461676500000000000000000000000000000000000000604082015250565b5f6117a9604d836111e7565b91506117b482611729565b606082019050919050565b5f6020820190508181035f8301526117d68161179d565b9050919050565b5f6117e782610fe8565b91505f82036117f9576117f86114ba565b5b600182039050919050565b5f6040820190506118175f830185610ff1565b6118246020830184610ff1565b939250505056fea2646970667358221220e112acf290d03ce47361eb38ac247ccfe9d096dd0f1bc22fb2ba10a5f47e4ecb64736f6c634300081c0033",
					"opcodes": "PUSH1 0x80 PUSH1 0x40 MSTORE CALLVALUE DUP1 ISZERO PUSH2 0xF JUMPI PUSH0 PUSH0 REVERT JUMPDEST POP PUSH1 0x40 MLOAD PUSH2 0x1ADD CODESIZE SUB DUP1 PUSH2 0x1ADD DUP4 CODECOPY DUP2 DUP2 ADD PUSH1 0x40 MSTORE DUP2 ADD SWAP1 PUSH2 0x31 SWAP2 SWAP1 PUSH2 0x121 JUMP JUMPDEST PUSH0 DUP4 GT PUSH2 0x73 JUMPI PUSH1 0x40 MLOAD PUSH32 0x8C379A000000000000000000000000000000000000000000000000000000000 DUP2 MSTORE PUSH1 0x4 ADD PUSH2 0x6A SWAP1 PUSH2 0x1F1 JUMP JUMPDEST PUSH1 0x40 MLOAD DUP1 SWAP2 SUB SWAP1 REVERT JUMPDEST CALLER PUSH0 PUSH0 PUSH2 0x100 EXP DUP2 SLOAD DUP2 PUSH20 0xFFFFFFFFFFFFFFFFFFFFFFFFFFFFFFFFFFFFFFFF MUL NOT AND SWAP1 DUP4 PUSH20 0xFFFFFFFFFFFFFFFFFFFFFFFFFFFFFFFFFFFFFFFF AND MUL OR SWAP1 SSTORE POP DUP3 PUSH1 0x2 DUP2 SWAP1 SSTORE POP DUP3 PUSH1 0x3 DUP2 SWAP1 SSTORE POP DUP2 PUSH1 0x4 DUP2 SWAP1 SSTORE POP DUP1 PUSH1 0x5 DUP2 SWAP1 SSTORE POP PUSH1 0x5 SLOAD TIMESTAMP PUSH2 0xDC SWAP2 SWAP1 PUSH2 0x23C JUMP JUMPDEST PUSH1 0x6 DUP2 SWAP1 SSTORE POP POP POP POP PUSH2 0x26F JUMP JUMPDEST PUSH0 PUSH0 REVERT JUMPDEST PUSH0 DUP2 SWAP1 POP SWAP2 SWAP1 POP JUMP JUMPDEST PUSH2 0x100 DUP2 PUSH2 0xEE JUMP JUMPDEST DUP2 EQ PUSH2 0x10A JUMPI PUSH0 PUSH0 REVERT JUMPDEST POP JUMP JUMPDEST PUSH0 DUP2 MLOAD SWAP1 POP PUSH2 0x11B DUP2 PUSH2 0xF7 JUMP JUMPDEST SWAP3 SWAP2 POP POP JUMP JUMPDEST PUSH0 PUSH0 PUSH0 PUSH1 0x60 DUP5 DUP7 SUB SLT ISZERO PUSH2 0x138 JUMPI PUSH2 0x137 PUSH2 0xEA JUMP JUMPDEST JUMPDEST PUSH0 PUSH2 0x145 DUP7 DUP3 DUP8 ADD PUSH2 0x10D JUMP JUMPDEST SWAP4 POP POP PUSH1 0x20 PUSH2 0x156 DUP7 DUP3 DUP8 ADD PUSH2 0x10D JUMP JUMPDEST SWAP3 POP POP PUSH1 0x40 PUSH2 0x167 DUP7 DUP3 DUP8 ADD PUSH2 0x10D JUMP JUMPDEST SWAP2 POP POP SWAP3 POP SWAP3 POP SWAP3 JUMP JUMPDEST PUSH0 DUP3 DUP3 MSTORE PUSH1 0x20 DUP3 ADD SWAP1 POP SWAP3 SWAP2 POP POP JUMP JUMPDEST PUSH32 0x54686520696E697469616C2076616C7565206D75737420626520677265617465 PUSH0 DUP3 ADD MSTORE PUSH32 0x72207468616E207A65726F20666F722067617300000000000000000000000000 PUSH1 0x20 DUP3 ADD MSTORE POP JUMP JUMPDEST PUSH0 PUSH2 0x1DB PUSH1 0x33 DUP4 PUSH2 0x171 JUMP JUMPDEST SWAP2 POP PUSH2 0x1E6 DUP3 PUSH2 0x181 JUMP JUMPDEST PUSH1 0x40 DUP3 ADD SWAP1 POP SWAP2 SWAP1 POP JUMP JUMPDEST PUSH0 PUSH1 0x20 DUP3 ADD SWAP1 POP DUP2 DUP2 SUB PUSH0 DUP4 ADD MSTORE PUSH2 0x208 DUP2 PUSH2 0x1CF JUMP JUMPDEST SWAP1 POP SWAP2 SWAP1 POP JUMP JUMPDEST PUSH32 0x4E487B7100000000000000000000000000000000000000000000000000000000 PUSH0 MSTORE PUSH1 0x11 PUSH1 0x4 MSTORE PUSH1 0x24 PUSH0 REVERT JUMPDEST PUSH0 PUSH2 0x246 DUP3 PUSH2 0xEE JUMP JUMPDEST SWAP2 POP PUSH2 0x251 DUP4 PUSH2 0xEE JUMP JUMPDEST SWAP3 POP DUP3 DUP3 ADD SWAP1 POP DUP1 DUP3 GT ISZERO PUSH2 0x269 JUMPI PUSH2 0x268 PUSH2 0x20F JUMP JUMPDEST JUMPDEST SWAP3 SWAP2 POP POP JUMP JUMPDEST PUSH2 0x1861 DUP1 PUSH2 0x27C PUSH0 CODECOPY PUSH0 RETURN INVALID PUSH1 0x80 PUSH1 0x40 MSTORE PUSH1 0x4 CALLDATASIZE LT PUSH2 0xDC JUMPI PUSH0 CALLDATALOAD PUSH1 0xE0 SHR DUP1 PUSH4 0x8DA5CB5B GT PUSH2 0x7E JUMPI DUP1 PUSH4 0xDEF18101 GT PUSH2 0x58 JUMPI DUP1 PUSH4 0xDEF18101 EQ PUSH2 0x296 JUMPI DUP1 PUSH4 0xDFBF53AE EQ PUSH2 0x2C0 JUMPI DUP1 PUSH4 0xF30E3658 EQ PUSH2 0x2EA JUMPI DUP1 PUSH4 0xFCC8F793 EQ PUSH2 0x2F4 JUMPI PUSH2 0xDC JUMP JUMPDEST DUP1 PUSH4 0x8DA5CB5B EQ PUSH2 0x218 JUMPI DUP1 PUSH4 0xB3CC167A EQ PUSH2 0x242 JUMPI DUP1 PUSH4 0xB81C78EC EQ PUSH2 0x26C JUMPI PUSH2 0xDC JUMP JUMPDEST DUP1 PUSH4 0x2FC36F11 GT PUSH2 0xBA JUMPI DUP1 PUSH4 0x2FC36F11 EQ PUSH2 0x170 JUMPI DUP1 PUSH4 0x383E77CB EQ PUSH2 0x19A JUMPI DUP1 PUSH4 0x38ED8C3F EQ PUSH2 0x1C4 JUMPI DUP1 PUSH4 0x43D7D321 EQ PUSH2 0x1EE JUMPI PUSH2 0xDC JUMP JUMPDEST DUP1 PUSH4 0xFB5A6B4 EQ PUSH2 0xE0 JUMPI DUP1 PUSH4 0x14D2687C EQ PUSH2 0x10A JUMPI DUP1 PUSH4 0x2FB3C48F EQ PUSH2 0x134 JUMPI JUMPDEST PUSH0 PUSH0 REVERT JUMPDEST CALLVALUE DUP1 ISZERO PUSH2 0xEB JUMPI PUSH0 PUSH0 REVERT JUMPDEST POP PUSH2 0xF4 PUSH2 0x332 JUMP JUMPDEST PUSH1 0x40 MLOAD PUSH2 0x101 SWAP2 SWAP1 PUSH2 0x1000 JUMP JUMPDEST PUSH1 0x40 MLOAD DUP1 SWAP2 SUB SWAP1 RETURN JUMPDEST CALLVALUE DUP1 ISZERO PUSH2 0x115 JUMPI PUSH0 PUSH0 REVERT JUMPDEST POP PUSH2 0x11E PUSH2 0x338 JUMP JUMPDEST PUSH1 0x40 MLOAD PUSH2 0x12B SWAP2 SWAP1 PUSH2 0x113C JUMP JUMPDEST PUSH1 0x40 MLOAD DUP1 SWAP2 SUB SWAP1 RETURN JUMPDEST CALLVALUE DUP1 ISZERO PUSH2 0x13F JUMPI PUSH0 PUSH0 REVERT JUMPDEST POP PUSH2 0x15A PUSH1 0x4 DUP1 CALLDATASIZE SUB DUP2 ADD SWAP1 PUSH2 0x155 SWAP2 SWAP1 PUSH2 0x118A JUMP JUMPDEST PUSH2 0x4BC JUMP JUMPDEST PUSH1 0x40 MLOAD PUSH2 0x167 SWAP2 SWAP1 PUSH2 0x11C4 JUMP JUMPDEST PUSH1 0x40 MLOAD DUP1 SWAP2 SUB SWAP1 RETURN JUMPDEST CALLVALUE DUP1 ISZERO PUSH2 0x17B JUMPI PUSH0 PUSH0 REVERT JUMPDEST POP PUSH2 0x184 PUSH2 0x4F7 JUMP JUMPDEST PUSH1 0x40 MLOAD PUSH2 0x191 SWAP2 SWAP1 PUSH2 0x1000 JUMP JUMPDEST PUSH1 0x40 MLOAD DUP1 SWAP2 SUB SWAP1 RETURN JUMPDEST CALLVALUE DUP1 ISZERO PUSH2 0x1A5 JUMPI PUSH0 PUSH0 REVERT JUMPDEST POP PUSH2 0x1AE PUSH2 0x4FD JUMP JUMPDEST PUSH1 0x40 MLOAD PUSH2 0x1BB SWAP2 SWAP1 PUSH2 0x1000 JUMP JUMPDEST PUSH1 0x40 MLOAD DUP1 SWAP2 SUB SWAP1 RETURN JUMPDEST CALLVALUE DUP1 ISZERO PUSH2 0x1CF JUMPI PUSH0 PUSH0 REVERT JUMPDEST POP PUSH2 0x1D8 PUSH2 0x506 JUMP JUMPDEST PUSH1 0x40 MLOAD PUSH2 0x1E5 SWAP2 SWAP1 PUSH2 0x1000 JUMP JUMPDEST PUSH1 0x40 MLOAD DUP1 SWAP2 SUB SWAP1 RETURN JUMPDEST CALLVALUE DUP1 ISZERO PUSH2 0x1F9 JUMPI PUSH0 PUSH0 REVERT JUMPDEST POP PUSH2 0x202 PUSH2 0x50F JUMP JUMPDEST PUSH1 0x40 MLOAD PUSH2 0x20F SWAP2 SWAP1 PUSH2 0x1000 JUMP JUMPDEST PUSH1 0x40 MLOAD DUP1 SWAP2 SUB SWAP1 RETURN JUMPDEST CALLVALUE DUP1 ISZERO PUSH2 0x223 JUMPI PUSH0 PUSH0 REVERT JUMPDEST POP PUSH2 0x22C PUSH2 0x515 JUMP JUMPDEST PUSH1 0x40 MLOAD PUSH2 0x239 SWAP2 SWAP1 PUSH2 0x11C4 JUMP JUMPDEST PUSH1 0x40 MLOAD DUP1 SWAP2 SUB SWAP1 RETURN JUMPDEST CALLVALUE DUP1 ISZERO PUSH2 0x24D JUMPI PUSH0 PUSH0 REVERT JUMPDEST POP PUSH2 0x256 PUSH2 0x539 JUMP JUMPDEST PUSH1 0x40 MLOAD PUSH2 0x263 SWAP2 SWAP1 PUSH2 0x1000 JUMP JUMPDEST PUSH1 0x40 MLOAD DUP1 SWAP2 SUB SWAP1 RETURN JUMPDEST CALLVALUE DUP1 ISZERO PUSH2 0x277 JUMPI PUSH0 PUSH0 REVERT JUMPDEST POP PUSH2 0x280 PUSH2 0x53F JUMP JUMPDEST PUSH1 0x40 MLOAD PUSH2 0x28D SWAP2 SWAP1 PUSH2 0x124D JUMP JUMPDEST PUSH1 0x40 MLOAD DUP1 SWAP2 SUB SWAP1 RETURN JUMPDEST CALLVALUE DUP1 ISZERO PUSH2 0x2A1 JUMPI PUSH0 PUSH0 REVERT JUMPDEST POP PUSH2 0x2AA PUSH2 0x6EB JUMP JUMPDEST PUSH1 0x40 MLOAD PUSH2 0x2B7 SWAP2 SWAP1 PUSH2 0x1000 JUMP JUMPDEST PUSH1 0x40 MLOAD DUP1 SWAP2 SUB SWAP1 RETURN JUMPDEST CALLVALUE DUP1 ISZERO PUSH2 0x2CB JUMPI PUSH0 PUSH0 REVERT JUMPDEST POP PUSH2 0x2D4 PUSH2 0x6F1 JUMP JUMPDEST PUSH1 0x40 MLOAD PUSH2 0x2E1 SWAP2 SWAP1 PUSH2 0x11C4 JUMP JUMPDEST PUSH1 0x40 MLOAD DUP1 SWAP2 SUB SWAP1 RETURN JUMPDEST PUSH2 0x2F2 PUSH2 0x716 JUMP JUMPDEST STOP JUMPDEST CALLVALUE DUP1 ISZERO PUSH2 0x2FF JUMPI PUSH0 PUSH0 REVERT JUMPDEST POP PUSH2 0x31A PUSH1 0x4 DUP1 CALLDATASIZE SUB DUP2 ADD SWAP1 PUSH2 0x315 SWAP2 SWAP1 PUSH2 0x1297 JUMP JUMPDEST PUSH2 0xAEF JUMP JUMPDEST PUSH1 0x40 MLOAD PUSH2 0x329 SWAP4 SWAP3 SWAP2 SWAP1 PUSH2 0x12C2 JUMP JUMPDEST PUSH1 0x40 MLOAD DUP1 SWAP2 SUB SWAP1 RETURN JUMPDEST PUSH1 0x5 SLOAD DUP2 JUMP JUMPDEST PUSH1 0x60 PUSH0 PUSH1 0x8 DUP1 SLOAD SWAP1 POP PUSH8 0xFFFFFFFFFFFFFFFF DUP2 GT ISZERO PUSH2 0x35A JUMPI PUSH2 0x359 PUSH2 0x12F7 JUMP JUMPDEST JUMPDEST PUSH1 0x40 MLOAD SWAP1 DUP1 DUP3 MSTORE DUP1 PUSH1 0x20 MUL PUSH1 0x20 ADD DUP3 ADD PUSH1 0x40 MSTORE DUP1 ISZERO PUSH2 0x393 JUMPI DUP2 PUSH1 0x20 ADD JUMPDEST PUSH2 0x380 PUSH2 0xFBA JUMP JUMPDEST DUP2 MSTORE PUSH1 0x20 ADD SWAP1 PUSH1 0x1 SWAP1 SUB SWAP1 DUP2 PUSH2 0x378 JUMPI SWAP1 POP JUMPDEST POP SWAP1 POP PUSH0 PUSH0 SWAP1 POP JUMPDEST PUSH1 0x8 DUP1 SLOAD SWAP1 POP DUP2 LT ISZERO PUSH2 0x4B4 JUMPI PUSH1 0x40 MLOAD DUP1 PUSH1 0x40 ADD PUSH1 0x40 MSTORE DUP1 PUSH1 0x8 DUP4 DUP2 SLOAD DUP2 LT PUSH2 0x3C7 JUMPI PUSH2 0x3C6 PUSH2 0x1324 JUMP JUMPDEST JUMPDEST SWAP1 PUSH0 MSTORE PUSH1 0x20 PUSH0 KECCAK256 ADD PUSH0 SWAP1 SLOAD SWAP1 PUSH2 0x100 EXP SWAP1 DIV PUSH20 0xFFFFFFFFFFFFFFFFFFFFFFFFFFFFFFFFFFFFFFFF AND PUSH20 0xFFFFFFFFFFFFFFFFFFFFFFFFFFFFFFFFFFFFFFFF AND DUP2 MSTORE PUSH1 0x20 ADD PUSH1 0x7 PUSH0 PUSH1 0x8 DUP6 DUP2 SLOAD DUP2 LT PUSH2 0x421 JUMPI PUSH2 0x420 PUSH2 0x1324 JUMP JUMPDEST JUMPDEST SWAP1 PUSH0 MSTORE PUSH1 0x20 PUSH0 KECCAK256 ADD PUSH0 SWAP1 SLOAD SWAP1 PUSH2 0x100 EXP SWAP1 DIV PUSH20 0xFFFFFFFFFFFFFFFFFFFFFFFFFFFFFFFFFFFFFFFF AND PUSH20 0xFFFFFFFFFFFFFFFFFFFFFFFFFFFFFFFFFFFFFFFF AND PUSH20 0xFFFFFFFFFFFFFFFFFFFFFFFFFFFFFFFFFFFFFFFF AND DUP2 MSTORE PUSH1 0x20 ADD SWAP1 DUP2 MSTORE PUSH1 0x20 ADD PUSH0 KECCAK256 PUSH1 0x1 ADD SLOAD DUP2 MSTORE POP DUP3 DUP3 DUP2 MLOAD DUP2 LT PUSH2 0x49C JUMPI PUSH2 0x49B PUSH2 0x1324 JUMP JUMPDEST JUMPDEST PUSH1 0x20 MUL PUSH1 0x20 ADD ADD DUP2 SWAP1 MSTORE POP DUP1 DUP1 PUSH1 0x1 ADD SWAP2 POP POP PUSH2 0x39B JUMP JUMPDEST POP DUP1 SWAP2 POP POP SWAP1 JUMP JUMPDEST PUSH1 0x8 DUP2 DUP2 SLOAD DUP2 LT PUSH2 0x4CB JUMPI PUSH0 DUP1 REVERT JUMPDEST SWAP1 PUSH0 MSTORE PUSH1 0x20 PUSH0 KECCAK256 ADD PUSH0 SWAP2 POP SLOAD SWAP1 PUSH2 0x100 EXP SWAP1 DIV PUSH20 0xFFFFFFFFFFFFFFFFFFFFFFFFFFFFFFFFFFFFFFFF AND DUP2 JUMP JUMPDEST PUSH1 0x2 SLOAD DUP2 JUMP JUMPDEST PUSH0 PUSH1 0x3 SLOAD SWAP1 POP SWAP1 JUMP JUMPDEST PUSH0 PUSH1 0x4 SLOAD SWAP1 POP SWAP1 JUMP JUMPDEST PUSH1 0x6 SLOAD DUP2 JUMP JUMPDEST PUSH0 PUSH0 SWAP1 SLOAD SWAP1 PUSH2 0x100 EXP SWAP1 DIV PUSH20 0xFFFFFFFFFFFFFFFFFFFFFFFFFFFFFFFFFFFFFFFF AND DUP2 JUMP JUMPDEST PUSH1 0x4 SLOAD DUP2 JUMP JUMPDEST PUSH1 0x60 PUSH0 PUSH1 0x40 MLOAD DUP1 PUSH1 0x40 ADD PUSH1 0x40 MSTORE DUP1 PUSH1 0x1 DUP2 MSTORE PUSH1 0x20 ADD PUSH32 0x5B00000000000000000000000000000000000000000000000000000000000000 DUP2 MSTORE POP SWAP1 POP PUSH0 PUSH0 SWAP1 POP JUMPDEST PUSH1 0x8 DUP1 SLOAD SWAP1 POP DUP2 LT ISZERO PUSH2 0x6C1 JUMPI DUP2 PUSH2 0x5D1 PUSH1 0x8 DUP4 DUP2 SLOAD DUP2 LT PUSH2 0x5A4 JUMPI PUSH2 0x5A3 PUSH2 0x1324 JUMP JUMPDEST JUMPDEST SWAP1 PUSH0 MSTORE PUSH1 0x20 PUSH0 KECCAK256 ADD PUSH0 SWAP1 SLOAD SWAP1 PUSH2 0x100 EXP SWAP1 DIV PUSH20 0xFFFFFFFFFFFFFFFFFFFFFFFFFFFFFFFFFFFFFFFF AND PUSH2 0xB34 JUMP JUMPDEST PUSH2 0x655 PUSH1 0x7 PUSH0 PUSH1 0x8 DUP7 DUP2 SLOAD DUP2 LT PUSH2 0x5EB JUMPI PUSH2 0x5EA PUSH2 0x1324 JUMP JUMPDEST JUMPDEST SWAP1 PUSH0 MSTORE PUSH1 0x20 PUSH0 KECCAK256 ADD PUSH0 SWAP1 SLOAD SWAP1 PUSH2 0x100 EXP SWAP1 DIV PUSH20 0xFFFFFFFFFFFFFFFFFFFFFFFFFFFFFFFFFFFFFFFF AND PUSH20 0xFFFFFFFFFFFFFFFFFFFFFFFFFFFFFFFFFFFFFFFF AND PUSH20 0xFFFFFFFFFFFFFFFFFFFFFFFFFFFFFFFFFFFFFFFF AND DUP2 MSTORE PUSH1 0x20 ADD SWAP1 DUP2 MSTORE PUSH1 0x20 ADD PUSH0 KECCAK256 PUSH1 0x1 ADD SLOAD PUSH2 0xB61 JUMP JUMPDEST PUSH1 0x40 MLOAD PUSH1 0x20 ADD PUSH2 0x667 SWAP4 SWAP3 SWAP2 SWAP1 PUSH2 0x1469 JUMP JUMPDEST PUSH1 0x40 MLOAD PUSH1 0x20 DUP2 DUP4 SUB SUB DUP2 MSTORE SWAP1 PUSH1 0x40 MSTORE SWAP2 POP PUSH1 0x1 PUSH1 0x8 DUP1 SLOAD SWAP1 POP PUSH2 0x68A SWAP2 SWAP1 PUSH2 0x14E7 JUMP JUMPDEST DUP2 LT ISZERO PUSH2 0x6B4 JUMPI DUP2 PUSH1 0x40 MLOAD PUSH1 0x20 ADD PUSH2 0x6A2 SWAP2 SWAP1 PUSH2 0x1564 JUMP JUMPDEST PUSH1 0x40 MLOAD PUSH1 0x20 DUP2 DUP4 SUB SUB DUP2 MSTORE SWAP1 PUSH1 0x40 MSTORE SWAP2 POP JUMPDEST DUP1 DUP1 PUSH1 0x1 ADD SWAP2 POP POP PUSH2 0x57F JUMP JUMPDEST POP DUP1 PUSH1 0x40 MLOAD PUSH1 0x20 ADD PUSH2 0x6D3 SWAP2 SWAP1 PUSH2 0x15CF JUMP JUMPDEST PUSH1 0x40 MLOAD PUSH1 0x20 DUP2 DUP4 SUB SUB DUP2 MSTORE SWAP1 PUSH1 0x40 MSTORE SWAP1 POP DUP1 SWAP2 POP POP SWAP1 JUMP JUMPDEST PUSH1 0x3 SLOAD DUP2 JUMP JUMPDEST PUSH1 0x1 PUSH0 SWAP1 SLOAD SWAP1 PUSH2 0x100 EXP SWAP1 DIV PUSH20 0xFFFFFFFFFFFFFFFFFFFFFFFFFFFFFFFFFFFFFFFF AND DUP2 JUMP JUMPDEST PUSH1 0x6 SLOAD TIMESTAMP LT PUSH2 0x75A JUMPI PUSH1 0x40 MLOAD PUSH32 0x8C379A000000000000000000000000000000000000000000000000000000000 DUP2 MSTORE PUSH1 0x4 ADD PUSH2 0x751 SWAP1 PUSH2 0x163A JUMP JUMPDEST PUSH1 0x40 MLOAD DUP1 SWAP2 SUB SWAP1 REVERT JUMPDEST PUSH0 CALLER SWAP1 POP PUSH0 CALLVALUE SWAP1 POP PUSH1 0x64 DUP1 PUSH1 0x4 SLOAD PUSH2 0x772 SWAP2 SWAP1 PUSH2 0x1658 JUMP JUMPDEST PUSH1 0x3 SLOAD PUSH2 0x77F SWAP2 SWAP1 PUSH2 0x168B JUMP JUMPDEST PUSH2 0x789 SWAP2 SWAP1 PUSH2 0x16F9 JUMP JUMPDEST DUP2 GT PUSH2 0x7CA JUMPI PUSH1 0x40 MLOAD PUSH32 0x8C379A000000000000000000000000000000000000000000000000000000000 DUP2 MSTORE PUSH1 0x4 ADD PUSH2 0x7C1 SWAP1 PUSH2 0x17BF JUMP JUMPDEST PUSH1 0x40 MLOAD DUP1 SWAP2 SUB SWAP1 REVERT JUMPDEST PUSH2 0x258 PUSH1 0x6 SLOAD PUSH2 0x7DA SWAP2 SWAP1 PUSH2 0x14E7 JUMP JUMPDEST TIMESTAMP LT PUSH2 0x7FB JUMPI PUSH2 0x258 PUSH1 0x6 PUSH0 DUP3 DUP3 SLOAD PUSH2 0x7F3 SWAP2 SWAP1 PUSH2 0x1658 JUMP JUMPDEST SWAP3 POP POP DUP2 SWAP1 SSTORE POP JUMPDEST PUSH0 PUSH20 0xFFFFFFFFFFFFFFFFFFFFFFFFFFFFFFFFFFFFFFFF AND PUSH1 0x7 PUSH0 DUP5 PUSH20 0xFFFFFFFFFFFFFFFFFFFFFFFFFFFFFFFFFFFFFFFF AND PUSH20 0xFFFFFFFFFFFFFFFFFFFFFFFFFFFFFFFFFFFFFFFF AND DUP2 MSTORE PUSH1 0x20 ADD SWAP1 DUP2 MSTORE PUSH1 0x20 ADD PUSH0 KECCAK256 PUSH0 ADD PUSH0 SWAP1 SLOAD SWAP1 PUSH2 0x100 EXP SWAP1 DIV PUSH20 0xFFFFFFFFFFFFFFFFFFFFFFFFFFFFFFFFFFFFFFFF AND PUSH20 0xFFFFFFFFFFFFFFFFFFFFFFFFFFFFFFFFFFFFFFFF AND EQ PUSH2 0x92C JUMPI DUP1 PUSH1 0x7 PUSH0 DUP5 PUSH20 0xFFFFFFFFFFFFFFFFFFFFFFFFFFFFFFFFFFFFFFFF AND PUSH20 0xFFFFFFFFFFFFFFFFFFFFFFFFFFFFFFFFFFFFFFFF AND DUP2 MSTORE PUSH1 0x20 ADD SWAP1 DUP2 MSTORE PUSH1 0x20 ADD PUSH0 KECCAK256 PUSH1 0x1 ADD DUP2 SWAP1 SSTORE POP DUP1 PUSH1 0x7 PUSH0 DUP5 PUSH20 0xFFFFFFFFFFFFFFFFFFFFFFFFFFFFFFFFFFFFFFFF AND PUSH20 0xFFFFFFFFFFFFFFFFFFFFFFFFFFFFFFFFFFFFFFFF AND DUP2 MSTORE PUSH1 0x20 ADD SWAP1 DUP2 MSTORE PUSH1 0x20 ADD PUSH0 KECCAK256 PUSH1 0x2 ADD PUSH0 DUP3 DUP3 SLOAD PUSH2 0x920 SWAP2 SWAP1 PUSH2 0x1658 JUMP JUMPDEST SWAP3 POP POP DUP2 SWAP1 SSTORE POP PUSH2 0xA56 JUMP JUMPDEST PUSH1 0x8 DUP3 SWAP1 DUP1 PUSH1 0x1 DUP2 SLOAD ADD DUP1 DUP3 SSTORE DUP1 SWAP2 POP POP PUSH1 0x1 SWAP1 SUB SWAP1 PUSH0 MSTORE PUSH1 0x20 PUSH0 KECCAK256 ADD PUSH0 SWAP1 SWAP2 SWAP1 SWAP2 SWAP1 SWAP2 PUSH2 0x100 EXP DUP2 SLOAD DUP2 PUSH20 0xFFFFFFFFFFFFFFFFFFFFFFFFFFFFFFFFFFFFFFFF MUL NOT AND SWAP1 DUP4 PUSH20 0xFFFFFFFFFFFFFFFFFFFFFFFFFFFFFFFFFFFFFFFF AND MUL OR SWAP1 SSTORE POP PUSH1 0x40 MLOAD DUP1 PUSH1 0x60 ADD PUSH1 0x40 MSTORE DUP1 DUP4 PUSH20 0xFFFFFFFFFFFFFFFFFFFFFFFFFFFFFFFFFFFFFFFF AND DUP2 MSTORE PUSH1 0x20 ADD DUP3 DUP2 MSTORE PUSH1 0x20 ADD DUP3 DUP2 MSTORE POP PUSH1 0x7 PUSH0 DUP5 PUSH20 0xFFFFFFFFFFFFFFFFFFFFFFFFFFFFFFFFFFFFFFFF AND PUSH20 0xFFFFFFFFFFFFFFFFFFFFFFFFFFFFFFFFFFFFFFFF AND DUP2 MSTORE PUSH1 0x20 ADD SWAP1 DUP2 MSTORE PUSH1 0x20 ADD PUSH0 KECCAK256 PUSH0 DUP3 ADD MLOAD DUP2 PUSH0 ADD PUSH0 PUSH2 0x100 EXP DUP2 SLOAD DUP2 PUSH20 0xFFFFFFFFFFFFFFFFFFFFFFFFFFFFFFFFFFFFFFFF MUL NOT AND SWAP1 DUP4 PUSH20 0xFFFFFFFFFFFFFFFFFFFFFFFFFFFFFFFFFFFFFFFF AND MUL OR SWAP1 SSTORE POP PUSH1 0x20 DUP3 ADD MLOAD DUP2 PUSH1 0x1 ADD SSTORE PUSH1 0x40 DUP3 ADD MLOAD DUP2 PUSH1 0x2 ADD SSTORE SWAP1 POP POP JUMPDEST DUP2 PUSH1 0x1 PUSH0 PUSH2 0x100 EXP DUP2 SLOAD DUP2 PUSH20 0xFFFFFFFFFFFFFFFFFFFFFFFFFFFFFFFFFFFFFFFF MUL NOT AND SWAP1 DUP4 PUSH20 0xFFFFFFFFFFFFFFFFFFFFFFFFFFFFFFFFFFFFFFFF AND MUL OR SWAP1 SSTORE POP DUP1 PUSH1 0x3 DUP2 SWAP1 SSTORE POP DUP2 PUSH20 0xFFFFFFFFFFFFFFFFFFFFFFFFFFFFFFFFFFFFFFFF AND PUSH32 0xDD0B6C6A77960E2066C96171B4D7AC9E8B4C184011F38544AFA36A5BB63EC59F DUP3 PUSH1 0x40 MLOAD PUSH2 0xAE3 SWAP2 SWAP1 PUSH2 0x1000 JUMP JUMPDEST PUSH1 0x40 MLOAD DUP1 SWAP2 SUB SWAP1 LOG2 POP POP JUMP JUMPDEST PUSH1 0x7 PUSH1 0x20 MSTORE DUP1 PUSH0 MSTORE PUSH1 0x40 PUSH0 KECCAK256 PUSH0 SWAP2 POP SWAP1 POP DUP1 PUSH0 ADD PUSH0 SWAP1 SLOAD SWAP1 PUSH2 0x100 EXP SWAP1 DIV PUSH20 0xFFFFFFFFFFFFFFFFFFFFFFFFFFFFFFFFFFFFFFFF AND SWAP1 DUP1 PUSH1 0x1 ADD SLOAD SWAP1 DUP1 PUSH1 0x2 ADD SLOAD SWAP1 POP DUP4 JUMP JUMPDEST PUSH1 0x60 PUSH2 0xB5A DUP3 PUSH20 0xFFFFFFFFFFFFFFFFFFFFFFFFFFFFFFFFFFFFFFFF AND PUSH1 0x14 PUSH1 0xFF AND PUSH2 0xC2B JUMP JUMPDEST SWAP1 POP SWAP2 SWAP1 POP JUMP JUMPDEST PUSH1 0x60 PUSH0 PUSH1 0x1 PUSH2 0xB6F DUP5 PUSH2 0xE69 JUMP JUMPDEST ADD SWAP1 POP PUSH0 DUP2 PUSH8 0xFFFFFFFFFFFFFFFF DUP2 GT ISZERO PUSH2 0xB8D JUMPI PUSH2 0xB8C PUSH2 0x12F7 JUMP JUMPDEST JUMPDEST PUSH1 0x40 MLOAD SWAP1 DUP1 DUP3 MSTORE DUP1 PUSH1 0x1F ADD PUSH1 0x1F NOT AND PUSH1 0x20 ADD DUP3 ADD PUSH1 0x40 MSTORE DUP1 ISZERO PUSH2 0xBBF JUMPI DUP2 PUSH1 0x20 ADD PUSH1 0x1 DUP3 MUL DUP1 CALLDATASIZE DUP4 CALLDATACOPY DUP1 DUP3 ADD SWAP2 POP POP SWAP1 POP JUMPDEST POP SWAP1 POP PUSH0 DUP3 PUSH1 0x20 ADD DUP3 ADD SWAP1 POP JUMPDEST PUSH1 0x1 ISZERO PUSH2 0xC20 JUMPI DUP1 DUP1 PUSH1 0x1 SWAP1 SUB SWAP2 POP POP PUSH32 0x3031323334353637383961626364656600000000000000000000000000000000 PUSH1 0xA DUP7 MOD BYTE DUP2 MSTORE8 PUSH1 0xA DUP6 DUP2 PUSH2 0xC15 JUMPI PUSH2 0xC14 PUSH2 0x16CC JUMP JUMPDEST JUMPDEST DIV SWAP5 POP PUSH0 DUP6 SUB PUSH2 0xBCC JUMPI JUMPDEST DUP2 SWAP4 POP POP POP POP SWAP2 SWAP1 POP JUMP JUMPDEST PUSH1 0x60 PUSH0 DUP4 SWAP1 POP PUSH0 PUSH1 0x2 DUP5 PUSH1 0x2 PUSH2 0xC41 SWAP2 SWAP1 PUSH2 0x168B JUMP JUMPDEST PUSH2 0xC4B SWAP2 SWAP1 PUSH2 0x1658 JUMP JUMPDEST PUSH8 0xFFFFFFFFFFFFFFFF DUP2 GT ISZERO PUSH2 0xC64 JUMPI PUSH2 0xC63 PUSH2 0x12F7 JUMP JUMPDEST JUMPDEST PUSH1 0x40 MLOAD SWAP1 DUP1 DUP3 MSTORE DUP1 PUSH1 0x1F ADD PUSH1 0x1F NOT AND PUSH1 0x20 ADD DUP3 ADD PUSH1 0x40 MSTORE DUP1 ISZERO PUSH2 0xC96 JUMPI DUP2 PUSH1 0x20 ADD PUSH1 0x1 DUP3 MUL DUP1 CALLDATASIZE DUP4 CALLDATACOPY DUP1 DUP3 ADD SWAP2 POP POP SWAP1 POP JUMPDEST POP SWAP1 POP PUSH32 0x3000000000000000000000000000000000000000000000000000000000000000 DUP2 PUSH0 DUP2 MLOAD DUP2 LT PUSH2 0xCCD JUMPI PUSH2 0xCCC PUSH2 0x1324 JUMP JUMPDEST JUMPDEST PUSH1 0x20 ADD ADD SWAP1 PUSH31 0xFFFFFFFFFFFFFFFFFFFFFFFFFFFFFFFFFFFFFFFFFFFFFFFFFFFFFFFFFFFFFF NOT AND SWAP1 DUP2 PUSH0 BYTE SWAP1 MSTORE8 POP PUSH32 0x7800000000000000000000000000000000000000000000000000000000000000 DUP2 PUSH1 0x1 DUP2 MLOAD DUP2 LT PUSH2 0xD30 JUMPI PUSH2 0xD2F PUSH2 0x1324 JUMP JUMPDEST JUMPDEST PUSH1 0x20 ADD ADD SWAP1 PUSH31 0xFFFFFFFFFFFFFFFFFFFFFFFFFFFFFFFFFFFFFFFFFFFFFFFFFFFFFFFFFFFFFF NOT AND SWAP1 DUP2 PUSH0 BYTE SWAP1 MSTORE8 POP PUSH0 PUSH1 0x1 DUP6 PUSH1 0x2 PUSH2 0xD6E SWAP2 SWAP1 PUSH2 0x168B JUMP JUMPDEST PUSH2 0xD78 SWAP2 SWAP1 PUSH2 0x1658 JUMP JUMPDEST SWAP1 POP JUMPDEST PUSH1 0x1 DUP2 GT ISZERO PUSH2 0xE17 JUMPI PUSH32 0x3031323334353637383961626364656600000000000000000000000000000000 PUSH1 0xF DUP5 AND PUSH1 0x10 DUP2 LT PUSH2 0xDBA JUMPI PUSH2 0xDB9 PUSH2 0x1324 JUMP JUMPDEST JUMPDEST BYTE PUSH1 0xF8 SHL DUP3 DUP3 DUP2 MLOAD DUP2 LT PUSH2 0xDD1 JUMPI PUSH2 0xDD0 PUSH2 0x1324 JUMP JUMPDEST JUMPDEST PUSH1 0x20 ADD ADD SWAP1 PUSH31 0xFFFFFFFFFFFFFFFFFFFFFFFFFFFFFFFFFFFFFFFFFFFFFFFFFFFFFFFFFFFFFF NOT AND SWAP1 DUP2 PUSH0 BYTE SWAP1 MSTORE8 POP PUSH1 0x4 DUP4 SWAP1 SHR SWAP3 POP DUP1 PUSH2 0xE10 SWAP1 PUSH2 0x17DD JUMP JUMPDEST SWAP1 POP PUSH2 0xD7B JUMP JUMPDEST POP PUSH0 DUP3 EQ PUSH2 0xE5E JUMPI DUP5 DUP5 PUSH1 0x40 MLOAD PUSH32 0xE22E27EB00000000000000000000000000000000000000000000000000000000 DUP2 MSTORE PUSH1 0x4 ADD PUSH2 0xE55 SWAP3 SWAP2 SWAP1 PUSH2 0x1804 JUMP JUMPDEST PUSH1 0x40 MLOAD DUP1 SWAP2 SUB SWAP1 REVERT JUMPDEST DUP1 SWAP3 POP POP POP SWAP3 SWAP2 POP POP JUMP JUMPDEST PUSH0 PUSH0 PUSH0 SWAP1 POP PUSH27 0x184F03E93FF9F4DAA797ED6E38ED64BF6A1F010000000000000000 DUP4 LT PUSH2 0xEC5 JUMPI PUSH27 0x184F03E93FF9F4DAA797ED6E38ED64BF6A1F010000000000000000 DUP4 DUP2 PUSH2 0xEBB JUMPI PUSH2 0xEBA PUSH2 0x16CC JUMP JUMPDEST JUMPDEST DIV SWAP3 POP PUSH1 0x40 DUP2 ADD SWAP1 POP JUMPDEST PUSH14 0x4EE2D6D415B85ACEF8100000000 DUP4 LT PUSH2 0xF02 JUMPI PUSH14 0x4EE2D6D415B85ACEF8100000000 DUP4 DUP2 PUSH2 0xEF8 JUMPI PUSH2 0xEF7 PUSH2 0x16CC JUMP JUMPDEST JUMPDEST DIV SWAP3 POP PUSH1 0x20 DUP2 ADD SWAP1 POP JUMPDEST PUSH7 0x2386F26FC10000 DUP4 LT PUSH2 0xF31 JUMPI PUSH7 0x2386F26FC10000 DUP4 DUP2 PUSH2 0xF27 JUMPI PUSH2 0xF26 PUSH2 0x16CC JUMP JUMPDEST JUMPDEST DIV SWAP3 POP PUSH1 0x10 DUP2 ADD SWAP1 POP JUMPDEST PUSH4 0x5F5E100 DUP4 LT PUSH2 0xF5A JUMPI PUSH4 0x5F5E100 DUP4 DUP2 PUSH2 0xF50 JUMPI PUSH2 0xF4F PUSH2 0x16CC JUMP JUMPDEST JUMPDEST DIV SWAP3 POP PUSH1 0x8 DUP2 ADD SWAP1 POP JUMPDEST PUSH2 0x2710 DUP4 LT PUSH2 0xF7F JUMPI PUSH2 0x2710 DUP4 DUP2 PUSH2 0xF75 JUMPI PUSH2 0xF74 PUSH2 0x16CC JUMP JUMPDEST JUMPDEST DIV SWAP3 POP PUSH1 0x4 DUP2 ADD SWAP1 POP JUMPDEST PUSH1 0x64 DUP4 LT PUSH2 0xFA2 JUMPI PUSH1 0x64 DUP4 DUP2 PUSH2 0xF98 JUMPI PUSH2 0xF97 PUSH2 0x16CC JUMP JUMPDEST JUMPDEST DIV SWAP3 POP PUSH1 0x2 DUP2 ADD SWAP1 POP JUMPDEST PUSH1 0xA DUP4 LT PUSH2 0xFB1 JUMPI PUSH1 0x1 DUP2 ADD SWAP1 POP JUMPDEST DUP1 SWAP2 POP POP SWAP2 SWAP1 POP JUMP JUMPDEST PUSH1 0x40 MLOAD DUP1 PUSH1 0x40 ADD PUSH1 0x40 MSTORE DUP1 PUSH0 PUSH20 0xFFFFFFFFFFFFFFFFFFFFFFFFFFFFFFFFFFFFFFFF AND DUP2 MSTORE PUSH1 0x20 ADD PUSH0 DUP2 MSTORE POP SWAP1 JUMP JUMPDEST PUSH0 DUP2 SWAP1 POP SWAP2 SWAP1 POP JUMP JUMPDEST PUSH2 0xFFA DUP2 PUSH2 0xFE8 JUMP JUMPDEST DUP3 MSTORE POP POP JUMP JUMPDEST PUSH0 PUSH1 0x20 DUP3 ADD SWAP1 POP PUSH2 0x1013 PUSH0 DUP4 ADD DUP5 PUSH2 0xFF1 JUMP JUMPDEST SWAP3 SWAP2 POP POP JUMP JUMPDEST PUSH0 DUP2 MLOAD SWAP1 POP SWAP2 SWAP1 POP JUMP JUMPDEST PUSH0 DUP3 DUP3 MSTORE PUSH1 0x20 DUP3 ADD SWAP1 POP SWAP3 SWAP2 POP POP JUMP JUMPDEST PUSH0 DUP2 SWAP1 POP PUSH1 0x20 DUP3 ADD SWAP1 POP SWAP2 SWAP1 POP JUMP JUMPDEST PUSH0 PUSH20 0xFFFFFFFFFFFFFFFFFFFFFFFFFFFFFFFFFFFFFFFF DUP3 AND SWAP1 POP SWAP2 SWAP1 POP JUMP JUMPDEST PUSH0 PUSH2 0x106B DUP3 PUSH2 0x1042 JUMP JUMPDEST SWAP1 POP SWAP2 SWAP1 POP JUMP JUMPDEST PUSH2 0x107B DUP2 PUSH2 0x1061 JUMP JUMPDEST DUP3 MSTORE POP POP JUMP JUMPDEST PUSH2 0x108A DUP2 PUSH2 0xFE8 JUMP JUMPDEST DUP3 MSTORE POP POP JUMP JUMPDEST PUSH1 0x40 DUP3 ADD PUSH0 DUP3 ADD MLOAD PUSH2 0x10A4 PUSH0 DUP6 ADD DUP3 PUSH2 0x1072 JUMP JUMPDEST POP PUSH1 0x20 DUP3 ADD MLOAD PUSH2 0x10B7 PUSH1 0x20 DUP6 ADD DUP3 PUSH2 0x1081 JUMP JUMPDEST POP POP POP POP JUMP JUMPDEST PUSH0 PUSH2 0x10C8 DUP4 DUP4 PUSH2 0x1090 JUMP JUMPDEST PUSH1 0x40 DUP4 ADD SWAP1 POP SWAP3 SWAP2 POP POP JUMP JUMPDEST PUSH0 PUSH1 0x20 DUP3 ADD SWAP1 POP SWAP2 SWAP1 POP JUMP JUMPDEST PUSH0 PUSH2 0x10EA DUP3 PUSH2 0x1019 JUMP JUMPDEST PUSH2 0x10F4 DUP2 DUP6 PUSH2 0x1023 JUMP JUMPDEST SWAP4 POP PUSH2 0x10FF DUP4 PUSH2 0x1033 JUMP JUMPDEST DUP1 PUSH0 JUMPDEST DUP4 DUP2 LT ISZERO PUSH2 0x112F JUMPI DUP2 MLOAD PUSH2 0x1116 DUP9 DUP3 PUSH2 0x10BD JUMP JUMPDEST SWAP8 POP PUSH2 0x1121 DUP4 PUSH2 0x10D4 JUMP JUMPDEST SWAP3 POP POP PUSH1 0x1 DUP2 ADD SWAP1 POP PUSH2 0x1102 JUMP JUMPDEST POP DUP6 SWAP4 POP POP POP POP SWAP3 SWAP2 POP POP JUMP JUMPDEST PUSH0 PUSH1 0x20 DUP3 ADD SWAP1 POP DUP2 DUP2 SUB PUSH0 DUP4 ADD MSTORE PUSH2 0x1154 DUP2 DUP5 PUSH2 0x10E0 JUMP JUMPDEST SWAP1 POP SWAP3 SWAP2 POP POP JUMP JUMPDEST PUSH0 PUSH0 REVERT JUMPDEST PUSH2 0x1169 DUP2 PUSH2 0xFE8 JUMP JUMPDEST DUP2 EQ PUSH2 0x1173 JUMPI PUSH0 PUSH0 REVERT JUMPDEST POP JUMP JUMPDEST PUSH0 DUP2 CALLDATALOAD SWAP1 POP PUSH2 0x1184 DUP2 PUSH2 0x1160 JUMP JUMPDEST SWAP3 SWAP2 POP POP JUMP JUMPDEST PUSH0 PUSH1 0x20 DUP3 DUP5 SUB SLT ISZERO PUSH2 0x119F JUMPI PUSH2 0x119E PUSH2 0x115C JUMP JUMPDEST JUMPDEST PUSH0 PUSH2 0x11AC DUP5 DUP3 DUP6 ADD PUSH2 0x1176 JUMP JUMPDEST SWAP2 POP POP SWAP3 SWAP2 POP POP JUMP JUMPDEST PUSH2 0x11BE DUP2 PUSH2 0x1061 JUMP JUMPDEST DUP3 MSTORE POP POP JUMP JUMPDEST PUSH0 PUSH1 0x20 DUP3 ADD SWAP1 POP PUSH2 0x11D7 PUSH0 DUP4 ADD DUP5 PUSH2 0x11B5 JUMP JUMPDEST SWAP3 SWAP2 POP POP JUMP JUMPDEST PUSH0 DUP2 MLOAD SWAP1 POP SWAP2 SWAP1 POP JUMP JUMPDEST PUSH0 DUP3 DUP3 MSTORE PUSH1 0x20 DUP3 ADD SWAP1 POP SWAP3 SWAP2 POP POP JUMP JUMPDEST DUP3 DUP2 DUP4 MCOPY PUSH0 DUP4 DUP4 ADD MSTORE POP POP POP JUMP JUMPDEST PUSH0 PUSH1 0x1F NOT PUSH1 0x1F DUP4 ADD AND SWAP1 POP SWAP2 SWAP1 POP JUMP JUMPDEST PUSH0 PUSH2 0x121F DUP3 PUSH2 0x11DD JUMP JUMPDEST PUSH2 0x1229 DUP2 DUP6 PUSH2 0x11E7 JUMP JUMPDEST SWAP4 POP PUSH2 0x1239 DUP2 DUP6 PUSH1 0x20 DUP7 ADD PUSH2 0x11F7 JUMP JUMPDEST PUSH2 0x1242 DUP2 PUSH2 0x1205 JUMP JUMPDEST DUP5 ADD SWAP2 POP POP SWAP3 SWAP2 POP POP JUMP JUMPDEST PUSH0 PUSH1 0x20 DUP3 ADD SWAP1 POP DUP2 DUP2 SUB PUSH0 DUP4 ADD MSTORE PUSH2 0x1265 DUP2 DUP5 PUSH2 0x1215 JUMP JUMPDEST SWAP1 POP SWAP3 SWAP2 POP POP JUMP JUMPDEST PUSH2 0x1276 DUP2 PUSH2 0x1061 JUMP JUMPDEST DUP2 EQ PUSH2 0x1280 JUMPI PUSH0 PUSH0 REVERT JUMPDEST POP JUMP JUMPDEST PUSH0 DUP2 CALLDATALOAD SWAP1 POP PUSH2 0x1291 DUP2 PUSH2 0x126D JUMP JUMPDEST SWAP3 SWAP2 POP POP JUMP JUMPDEST PUSH0 PUSH1 0x20 DUP3 DUP5 SUB SLT ISZERO PUSH2 0x12AC JUMPI PUSH2 0x12AB PUSH2 0x115C JUMP JUMPDEST JUMPDEST PUSH0 PUSH2 0x12B9 DUP5 DUP3 DUP6 ADD PUSH2 0x1283 JUMP JUMPDEST SWAP2 POP POP SWAP3 SWAP2 POP POP JUMP JUMPDEST PUSH0 PUSH1 0x60 DUP3 ADD SWAP1 POP PUSH2 0x12D5 PUSH0 DUP4 ADD DUP7 PUSH2 0x11B5 JUMP JUMPDEST PUSH2 0x12E2 PUSH1 0x20 DUP4 ADD DUP6 PUSH2 0xFF1 JUMP JUMPDEST PUSH2 0x12EF PUSH1 0x40 DUP4 ADD DUP5 PUSH2 0xFF1 JUMP JUMPDEST SWAP5 SWAP4 POP POP POP POP JUMP JUMPDEST PUSH32 0x4E487B7100000000000000000000000000000000000000000000000000000000 PUSH0 MSTORE PUSH1 0x41 PUSH1 0x4 MSTORE PUSH1 0x24 PUSH0 REVERT JUMPDEST PUSH32 0x4E487B7100000000000000000000000000000000000000000000000000000000 PUSH0 MSTORE PUSH1 0x32 PUSH1 0x4 MSTORE PUSH1 0x24 PUSH0 REVERT JUMPDEST PUSH0 DUP2 SWAP1 POP SWAP3 SWAP2 POP POP JUMP JUMPDEST PUSH0 PUSH2 0x1365 DUP3 PUSH2 0x11DD JUMP JUMPDEST PUSH2 0x136F DUP2 DUP6 PUSH2 0x1351 JUMP JUMPDEST SWAP4 POP PUSH2 0x137F DUP2 DUP6 PUSH1 0x20 DUP7 ADD PUSH2 0x11F7 JUMP JUMPDEST DUP1 DUP5 ADD SWAP2 POP POP SWAP3 SWAP2 POP POP JUMP JUMPDEST PUSH32 0x7B22626964646572223A22000000000000000000000000000000000000000000 PUSH0 DUP3 ADD MSTORE POP JUMP JUMPDEST PUSH0 PUSH2 0x13BF PUSH1 0xB DUP4 PUSH2 0x1351 JUMP JUMPDEST SWAP2 POP PUSH2 0x13CA DUP3 PUSH2 0x138B JUMP JUMPDEST PUSH1 0xB DUP3 ADD SWAP1 POP SWAP2 SWAP1 POP JUMP JUMPDEST PUSH32 0x222C22616D6F756E74223A220000000000000000000000000000000000000000 PUSH0 DUP3 ADD MSTORE POP JUMP JUMPDEST PUSH0 PUSH2 0x1409 PUSH1 0xC DUP4 PUSH2 0x1351 JUMP JUMPDEST SWAP2 POP PUSH2 0x1414 DUP3 PUSH2 0x13D5 JUMP JUMPDEST PUSH1 0xC DUP3 ADD SWAP1 POP SWAP2 SWAP1 POP JUMP JUMPDEST PUSH32 0x227D000000000000000000000000000000000000000000000000000000000000 PUSH0 DUP3 ADD MSTORE POP JUMP JUMPDEST PUSH0 PUSH2 0x1453 PUSH1 0x2 DUP4 PUSH2 0x1351 JUMP JUMPDEST SWAP2 POP PUSH2 0x145E DUP3 PUSH2 0x141F JUMP JUMPDEST PUSH1 0x2 DUP3 ADD SWAP1 POP SWAP2 SWAP1 POP JUMP JUMPDEST PUSH0 PUSH2 0x1474 DUP3 DUP7 PUSH2 0x135B JUMP JUMPDEST SWAP2 POP PUSH2 0x147F DUP3 PUSH2 0x13B3 JUMP JUMPDEST SWAP2 POP PUSH2 0x148B DUP3 DUP6 PUSH2 0x135B JUMP JUMPDEST SWAP2 POP PUSH2 0x1496 DUP3 PUSH2 0x13FD JUMP JUMPDEST SWAP2 POP PUSH2 0x14A2 DUP3 DUP5 PUSH2 0x135B JUMP JUMPDEST SWAP2 POP PUSH2 0x14AD DUP3 PUSH2 0x1447 JUMP JUMPDEST SWAP2 POP DUP2 SWAP1 POP SWAP5 SWAP4 POP POP POP POP JUMP JUMPDEST PUSH32 0x4E487B7100000000000000000000000000000000000000000000000000000000 PUSH0 MSTORE PUSH1 0x11 PUSH1 0x4 MSTORE PUSH1 0x24 PUSH0 REVERT JUMPDEST PUSH0 PUSH2 0x14F1 DUP3 PUSH2 0xFE8 JUMP JUMPDEST SWAP2 POP PUSH2 0x14FC DUP4 PUSH2 0xFE8 JUMP JUMPDEST SWAP3 POP DUP3 DUP3 SUB SWAP1 POP DUP2 DUP2 GT ISZERO PUSH2 0x1514 JUMPI PUSH2 0x1513 PUSH2 0x14BA JUMP JUMPDEST JUMPDEST SWAP3 SWAP2 POP POP JUMP JUMPDEST PUSH32 0x2C00000000000000000000000000000000000000000000000000000000000000 PUSH0 DUP3 ADD MSTORE POP JUMP JUMPDEST PUSH0 PUSH2 0x154E PUSH1 0x1 DUP4 PUSH2 0x1351 JUMP JUMPDEST SWAP2 POP PUSH2 0x1559 DUP3 PUSH2 0x151A JUMP JUMPDEST PUSH1 0x1 DUP3 ADD SWAP1 POP SWAP2 SWAP1 POP JUMP JUMPDEST PUSH0 PUSH2 0x156F DUP3 DUP5 PUSH2 0x135B JUMP JUMPDEST SWAP2 POP PUSH2 0x157A DUP3 PUSH2 0x1542 JUMP JUMPDEST SWAP2 POP DUP2 SWAP1 POP SWAP3 SWAP2 POP POP JUMP JUMPDEST PUSH32 0x5D00000000000000000000000000000000000000000000000000000000000000 PUSH0 DUP3 ADD MSTORE POP JUMP JUMPDEST PUSH0 PUSH2 0x15B9 PUSH1 0x1 DUP4 PUSH2 0x1351 JUMP JUMPDEST SWAP2 POP PUSH2 0x15C4 DUP3 PUSH2 0x1585 JUMP JUMPDEST PUSH1 0x1 DUP3 ADD SWAP1 POP SWAP2 SWAP1 POP JUMP JUMPDEST PUSH0 PUSH2 0x15DA DUP3 DUP5 PUSH2 0x135B JUMP JUMPDEST SWAP2 POP PUSH2 0x15E5 DUP3 PUSH2 0x15AD JUMP JUMPDEST SWAP2 POP DUP2 SWAP1 POP SWAP3 SWAP2 POP POP JUMP JUMPDEST PUSH32 0x5468652061756374696F6E2068617320656E6465640000000000000000000000 PUSH0 DUP3 ADD MSTORE POP JUMP JUMPDEST PUSH0 PUSH2 0x1624 PUSH1 0x15 DUP4 PUSH2 0x11E7 JUMP JUMPDEST SWAP2 POP PUSH2 0x162F DUP3 PUSH2 0x15F0 JUMP JUMPDEST PUSH1 0x20 DUP3 ADD SWAP1 POP SWAP2 SWAP1 POP JUMP JUMPDEST PUSH0 PUSH1 0x20 DUP3 ADD SWAP1 POP DUP2 DUP2 SUB PUSH0 DUP4 ADD MSTORE PUSH2 0x1651 DUP2 PUSH2 0x1618 JUMP JUMPDEST SWAP1 POP SWAP2 SWAP1 POP JUMP JUMPDEST PUSH0 PUSH2 0x1662 DUP3 PUSH2 0xFE8 JUMP JUMPDEST SWAP2 POP PUSH2 0x166D DUP4 PUSH2 0xFE8 JUMP JUMPDEST SWAP3 POP DUP3 DUP3 ADD SWAP1 POP DUP1 DUP3 GT ISZERO PUSH2 0x1685 JUMPI PUSH2 0x1684 PUSH2 0x14BA JUMP JUMPDEST JUMPDEST SWAP3 SWAP2 POP POP JUMP JUMPDEST PUSH0 PUSH2 0x1695 DUP3 PUSH2 0xFE8 JUMP JUMPDEST SWAP2 POP PUSH2 0x16A0 DUP4 PUSH2 0xFE8 JUMP JUMPDEST SWAP3 POP DUP3 DUP3 MUL PUSH2 0x16AE DUP2 PUSH2 0xFE8 JUMP JUMPDEST SWAP2 POP DUP3 DUP3 DIV DUP5 EQ DUP4 ISZERO OR PUSH2 0x16C5 JUMPI PUSH2 0x16C4 PUSH2 0x14BA JUMP JUMPDEST JUMPDEST POP SWAP3 SWAP2 POP POP JUMP JUMPDEST PUSH32 0x4E487B7100000000000000000000000000000000000000000000000000000000 PUSH0 MSTORE PUSH1 0x12 PUSH1 0x4 MSTORE PUSH1 0x24 PUSH0 REVERT JUMPDEST PUSH0 PUSH2 0x1703 DUP3 PUSH2 0xFE8 JUMP JUMPDEST SWAP2 POP PUSH2 0x170E DUP4 PUSH2 0xFE8 JUMP JUMPDEST SWAP3 POP DUP3 PUSH2 0x171E JUMPI PUSH2 0x171D PUSH2 0x16CC JUMP JUMPDEST JUMPDEST DUP3 DUP3 DIV SWAP1 POP SWAP3 SWAP2 POP POP JUMP JUMPDEST PUSH32 0x54686520626964206D757374206F757462696420746865206265737420626964 PUSH0 DUP3 ADD MSTORE PUSH32 0x2C20636F6E7369646572696E6720746865206D696E696D756D20696E63726561 PUSH1 0x20 DUP3 ADD MSTORE PUSH32 0x73652070657263656E7461676500000000000000000000000000000000000000 PUSH1 0x40 DUP3 ADD MSTORE POP JUMP JUMPDEST PUSH0 PUSH2 0x17A9 PUSH1 0x4D DUP4 PUSH2 0x11E7 JUMP JUMPDEST SWAP2 POP PUSH2 0x17B4 DUP3 PUSH2 0x1729 JUMP JUMPDEST PUSH1 0x60 DUP3 ADD SWAP1 POP SWAP2 SWAP1 POP JUMP JUMPDEST PUSH0 PUSH1 0x20 DUP3 ADD SWAP1 POP DUP2 DUP2 SUB PUSH0 DUP4 ADD MSTORE PUSH2 0x17D6 DUP2 PUSH2 0x179D JUMP JUMPDEST SWAP1 POP SWAP2 SWAP1 POP JUMP JUMPDEST PUSH0 PUSH2 0x17E7 DUP3 PUSH2 0xFE8 JUMP JUMPDEST SWAP2 POP PUSH0 DUP3 SUB PUSH2 0x17F9 JUMPI PUSH2 0x17F8 PUSH2 0x14BA JUMP JUMPDEST JUMPDEST PUSH1 0x1 DUP3 SUB SWAP1 POP SWAP2 SWAP1 POP JUMP JUMPDEST PUSH0 PUSH1 0x40 DUP3 ADD SWAP1 POP PUSH2 0x1817 PUSH0 DUP4 ADD DUP6 PUSH2 0xFF1 JUMP JUMPDEST PUSH2 0x1824 PUSH1 0x20 DUP4 ADD DUP5 PUSH2 0xFF1 JUMP JUMPDEST SWAP4 SWAP3 POP POP POP JUMP INVALID LOG2 PUSH5 0x6970667358 0x22 SLT KECCAK256 0xE1 SLT 0xAC CALLCODE SWAP1 0xD0 EXTCODECOPY 0xE4 PUSH20 0x61EB38AC247CCFE9D096DD0F1BC22FB2BA10A5F4 PUSH31 0x4ECB64736F6C634300081C0033000000000000000000000000000000000000 "
				},
				"gasEstimates": {
					"creation": {
						"codeDepositCost": "1248200",
						"executionCost": "infinite",
						"totalCost": "infinite"
					},
					"external": {
						"bidIncrement()": "2470",
						"bidderAddresses(uint256)": "5012",
						"bidders(address)": "infinite",
						"currentBid()": "2447",
						"duration()": "2449",
						"finishTimestamp()": "2514",
						"getBids()": "infinite",
						"incrementalPercentage()": "2499",
						"initValue()": "2448",
						"makeBid()": "infinite",
						"owner()": "2530",
						"showBids()": "infinite",
						"showCurrentBid()": "2477",
						"winner()": "2552"
					}
				},
				"methodIdentifiers": {
					"bidIncrement()": "b3cc167a",
					"bidderAddresses(uint256)": "2fb3c48f",
					"bidders(address)": "fcc8f793",
					"currentBid()": "def18101",
					"duration()": "0fb5a6b4",
					"finishTimestamp()": "43d7d321",
					"getBids()": "b81c78ec",
					"incrementalPercentage()": "38ed8c3f",
					"initValue()": "2fc36f11",
					"makeBid()": "f30e3658",
					"owner()": "8da5cb5b",
					"showBids()": "14d2687c",
					"showCurrentBid()": "383e77cb",
					"winner()": "dfbf53ae"
				}
			},
			"storageLayout": {
				"storage": [
					{
						"astId": 5,
						"contract": "contracts/Tp_Final_Mod02/AuctETH.sol:AuctETH",
						"label": "owner",
						"offset": 0,
						"slot": "0",
						"type": "t_address"
					},
					{
						"astId": 7,
						"contract": "contracts/Tp_Final_Mod02/AuctETH.sol:AuctETH",
						"label": "winner",
						"offset": 0,
						"slot": "1",
						"type": "t_address"
					},
					{
						"astId": 9,
						"contract": "contracts/Tp_Final_Mod02/AuctETH.sol:AuctETH",
						"label": "initValue",
						"offset": 0,
						"slot": "2",
						"type": "t_uint256"
					},
					{
						"astId": 11,
						"contract": "contracts/Tp_Final_Mod02/AuctETH.sol:AuctETH",
						"label": "currentBid",
						"offset": 0,
						"slot": "3",
						"type": "t_uint256"
					},
					{
						"astId": 13,
						"contract": "contracts/Tp_Final_Mod02/AuctETH.sol:AuctETH",
						"label": "bidIncrement",
						"offset": 0,
						"slot": "4",
						"type": "t_uint256"
					},
					{
						"astId": 15,
						"contract": "contracts/Tp_Final_Mod02/AuctETH.sol:AuctETH",
						"label": "duration",
						"offset": 0,
						"slot": "5",
						"type": "t_uint256"
					},
					{
						"astId": 17,
						"contract": "contracts/Tp_Final_Mod02/AuctETH.sol:AuctETH",
						"label": "finishTimestamp",
						"offset": 0,
						"slot": "6",
						"type": "t_uint256"
					},
					{
						"astId": 80,
						"contract": "contracts/Tp_Final_Mod02/AuctETH.sol:AuctETH",
						"label": "bidders",
						"offset": 0,
						"slot": "7",
						"type": "t_mapping(t_address,t_struct(Bidder)70_storage)"
					},
					{
						"astId": 83,
						"contract": "contracts/Tp_Final_Mod02/AuctETH.sol:AuctETH",
						"label": "bidderAddresses",
						"offset": 0,
						"slot": "8",
						"type": "t_array(t_address)dyn_storage"
					}
				],
				"types": {
					"t_address": {
						"encoding": "inplace",
						"label": "address",
						"numberOfBytes": "20"
					},
					"t_array(t_address)dyn_storage": {
						"base": "t_address",
						"encoding": "dynamic_array",
						"label": "address[]",
						"numberOfBytes": "32"
					},
					"t_mapping(t_address,t_struct(Bidder)70_storage)": {
						"encoding": "mapping",
						"key": "t_address",
						"label": "mapping(address => struct AuctETH.Bidder)",
						"numberOfBytes": "32",
						"value": "t_struct(Bidder)70_storage"
					},
					"t_struct(Bidder)70_storage": {
						"encoding": "inplace",
						"label": "struct AuctETH.Bidder",
						"members": [
							{
								"astId": 65,
								"contract": "contracts/Tp_Final_Mod02/AuctETH.sol:AuctETH",
								"label": "addrs",
								"offset": 0,
								"slot": "0",
								"type": "t_address"
							},
							{
								"astId": 67,
								"contract": "contracts/Tp_Final_Mod02/AuctETH.sol:AuctETH",
								"label": "lastBid",
								"offset": 0,
								"slot": "1",
								"type": "t_uint256"
							},
							{
								"astId": 69,
								"contract": "contracts/Tp_Final_Mod02/AuctETH.sol:AuctETH",
								"label": "balance",
								"offset": 0,
								"slot": "2",
								"type": "t_uint256"
							}
						],
						"numberOfBytes": "96"
					},
					"t_uint256": {
						"encoding": "inplace",
						"label": "uint256",
						"numberOfBytes": "32"
					}
				}
			},
			"userdoc": {
				"kind": "user",
				"methods": {
					"constructor": {
						"notice": "Constructor to initialize the auction."
					},
					"getBids()": {
						"notice": "Alternative function to show offers and bids on JSON formatReturns a JSON string of all bids."
					},
					"incrementalPercentage()": {
						"notice": "Returns the minimum bid increment percentage."
					},
					"makeBid()": {
						"notice": "Places a new bid."
					},
					"showBids()": {
						"notice": "Returns an array of all bids."
					},
					"showCurrentBid()": {
						"notice": "Returns the current bid value."
					}
				},
				"notice": "This contract allows users to participate in a timed auction",
				"version": 1
			}
		}
	}
}