{
	"contracts/M02_Fundamentos_Solidity/Clase03/TaskManager.sol": {
		"TaskManager2": {
			"abi": [
				{
					"anonymous": false,
					"inputs": [
						{
							"indexed": true,
							"internalType": "uint256",
							"name": "id",
							"type": "uint256"
						},
						{
							"indexed": false,
							"internalType": "string",
							"name": "title",
							"type": "string"
						}
					],
					"name": "taskCreated",
					"type": "event"
				},
				{
					"inputs": [
						{
							"internalType": "string",
							"name": "_title",
							"type": "string"
						}
					],
					"name": "createTask",
					"outputs": [],
					"stateMutability": "nonpayable",
					"type": "function"
				},
				{
					"inputs": [],
					"name": "readFirstPendig",
					"outputs": [
						{
							"components": [
								{
									"internalType": "uint256",
									"name": "id",
									"type": "uint256"
								},
								{
									"internalType": "string",
									"name": "title",
									"type": "string"
								},
								{
									"internalType": "enum TaskManager2.TaskStatus",
									"name": "status",
									"type": "uint8"
								}
							],
							"internalType": "struct TaskManager2.Task",
							"name": "",
							"type": "tuple"
						}
					],
					"stateMutability": "view",
					"type": "function"
				},
				{
					"inputs": [],
					"name": "taskCounter",
					"outputs": [
						{
							"internalType": "uint256",
							"name": "",
							"type": "uint256"
						}
					],
					"stateMutability": "view",
					"type": "function"
				},
				{
					"inputs": [
						{
							"internalType": "uint256",
							"name": "",
							"type": "uint256"
						}
					],
					"name": "tasks",
					"outputs": [
						{
							"internalType": "uint256",
							"name": "id",
							"type": "uint256"
						},
						{
							"internalType": "string",
							"name": "title",
							"type": "string"
						},
						{
							"internalType": "enum TaskManager2.TaskStatus",
							"name": "status",
							"type": "uint8"
						}
					],
					"stateMutability": "view",
					"type": "function"
				},
				{
					"inputs": [
						{
							"internalType": "uint256",
							"name": "_id",
							"type": "uint256"
						},
						{
							"internalType": "enum TaskManager2.TaskStatus",
							"name": "_status",
							"type": "uint8"
						}
					],
					"name": "updateStatus",
					"outputs": [],
					"stateMutability": "nonpayable",
					"type": "function"
				}
			],
			"devdoc": {
				"kind": "dev",
				"methods": {},
				"version": 1
			},
			"evm": {
				"assembly": "    /* \"contracts/M02_Fundamentos_Solidity/Clase03/TaskManager.sol\":64:1506  contract TaskManager2 {... */\n  mstore(0x40, 0x80)\n    /* \"contracts/M02_Fundamentos_Solidity/Clase03/TaskManager.sol\":493:498  false */\n  0x00\n    /* \"contracts/M02_Fundamentos_Solidity/Clase03/TaskManager.sol\":481:498  bool flag = false */\n  0x02\n  exp(0x0100, 0x00)\n  dup2\n  sload\n  dup2\n  0xff\n  mul\n  not\n  and\n  swap1\n  dup4\n  iszero\n  iszero\n  mul\n  or\n  swap1\n  sstore\n  pop\n    /* \"contracts/M02_Fundamentos_Solidity/Clase03/TaskManager.sol\":64:1506  contract TaskManager2 {... */\n  callvalue\n  dup1\n  iszero\n  tag_1\n  jumpi\n  0x00\n  dup1\n  revert\ntag_1:\n  pop\n  dataSize(sub_0)\n  dup1\n  dataOffset(sub_0)\n  0x00\n  codecopy\n  0x00\n  return\nstop\n\nsub_0: assembly {\n        /* \"contracts/M02_Fundamentos_Solidity/Clase03/TaskManager.sol\":64:1506  contract TaskManager2 {... */\n      mstore(0x40, 0x80)\n      callvalue\n      dup1\n      iszero\n      tag_1\n      jumpi\n      0x00\n      dup1\n      revert\n    tag_1:\n      pop\n      jumpi(tag_2, lt(calldatasize, 0x04))\n      shr(0xe0, calldataload(0x00))\n      dup1\n      0x111002aa\n      eq\n      tag_3\n      jumpi\n      dup1\n      0x3a1b3d31\n      eq\n      tag_4\n      jumpi\n      dup1\n      0x58671730\n      eq\n      tag_5\n      jumpi\n      dup1\n      0x8d977672\n      eq\n      tag_6\n      jumpi\n      dup1\n      0xcf1cc10d\n      eq\n      tag_7\n      jumpi\n    tag_2:\n      0x00\n      dup1\n      revert\n        /* \"contracts/M02_Fundamentos_Solidity/Clase03/TaskManager.sol\":696:983  function createTask(string calldata _title) external maxTask {... */\n    tag_3:\n      tag_8\n      0x04\n      dup1\n      calldatasize\n      sub\n      dup2\n      add\n      swap1\n      tag_9\n      swap2\n      swap1\n      tag_10\n      jump\t// in\n    tag_9:\n      tag_11\n      jump\t// in\n    tag_8:\n      stop\n        /* \"contracts/M02_Fundamentos_Solidity/Clase03/TaskManager.sol\":1089:1208  function updateStatus(uint256 _id,TaskStatus _status) external existId(_id){... */\n    tag_4:\n      tag_12\n      0x04\n      dup1\n      calldatasize\n      sub\n      dup2\n      add\n      swap1\n      tag_13\n      swap2\n      swap1\n      tag_14\n      jump\t// in\n    tag_13:\n      tag_15\n      jump\t// in\n    tag_12:\n      stop\n        /* \"contracts/M02_Fundamentos_Solidity/Clase03/TaskManager.sol\":322:348  uint256 public taskCounter */\n    tag_5:\n      tag_16\n      tag_17\n      jump\t// in\n    tag_16:\n      mload(0x40)\n      tag_18\n      swap2\n      swap1\n      tag_19\n      jump\t// in\n    tag_18:\n      mload(0x40)\n      dup1\n      swap2\n      sub\n      swap1\n      return\n        /* \"contracts/M02_Fundamentos_Solidity/Clase03/TaskManager.sol\":297:316  Task[] public tasks */\n    tag_6:\n      tag_20\n      0x04\n      dup1\n      calldatasize\n      sub\n      dup2\n      add\n      swap1\n      tag_21\n      swap2\n      swap1\n      tag_22\n      jump\t// in\n    tag_21:\n      tag_23\n      jump\t// in\n    tag_20:\n      mload(0x40)\n      tag_24\n      swap4\n      swap3\n      swap2\n      swap1\n      tag_25\n      jump\t// in\n    tag_24:\n      mload(0x40)\n      dup1\n      swap2\n      sub\n      swap1\n      return\n        /* \"contracts/M02_Fundamentos_Solidity/Clase03/TaskManager.sol\":1214:1502  function readFirstPendig() external view returns(Task memory) {... */\n    tag_7:\n      tag_26\n      tag_27\n      jump\t// in\n    tag_26:\n      mload(0x40)\n      tag_28\n      swap2\n      swap1\n      tag_29\n      jump\t// in\n    tag_28:\n      mload(0x40)\n      dup1\n      swap2\n      sub\n      swap1\n      return\n        /* \"contracts/M02_Fundamentos_Solidity/Clase03/TaskManager.sol\":696:983  function createTask(string calldata _title) external maxTask {... */\n    tag_11:\n        /* \"contracts/M02_Fundamentos_Solidity/Clase03/TaskManager.sol\":380:382  10 */\n      0x0a\n        /* \"contracts/M02_Fundamentos_Solidity/Clase03/TaskManager.sol\":426:437  taskCounter */\n      sload(0x01)\n        /* \"contracts/M02_Fundamentos_Solidity/Clase03/TaskManager.sol\":426:446  taskCounter<MAX_TASK */\n      lt\n        /* \"contracts/M02_Fundamentos_Solidity/Clase03/TaskManager.sol\":418:457  require(taskCounter<MAX_TASK,\"Me pase\") */\n      tag_31\n      jumpi\n      mload(0x40)\n      0x08c379a000000000000000000000000000000000000000000000000000000000\n      dup2\n      mstore\n      0x04\n      add\n      tag_32\n      swap1\n      tag_33\n      jump\t// in\n    tag_32:\n      mload(0x40)\n      dup1\n      swap2\n      sub\n      swap1\n      revert\n    tag_31:\n        /* \"contracts/M02_Fundamentos_Solidity/Clase03/TaskManager.sol\":767:787  uint256 _taskCounter */\n      0x00\n        /* \"contracts/M02_Fundamentos_Solidity/Clase03/TaskManager.sol\":790:801  taskCounter */\n      sload(0x01)\n        /* \"contracts/M02_Fundamentos_Solidity/Clase03/TaskManager.sol\":767:801  uint256 _taskCounter = taskCounter */\n      swap1\n      pop\n        /* \"contracts/M02_Fundamentos_Solidity/Clase03/TaskManager.sol\":811:816  tasks */\n      0x00\n        /* \"contracts/M02_Fundamentos_Solidity/Clase03/TaskManager.sol\":822:866  Task(_taskCounter,_title,TaskStatus.Pending) */\n      mload(0x40)\n      dup1\n      0x60\n      add\n      0x40\n      mstore\n      dup1\n        /* \"contracts/M02_Fundamentos_Solidity/Clase03/TaskManager.sol\":827:839  _taskCounter */\n      dup4\n        /* \"contracts/M02_Fundamentos_Solidity/Clase03/TaskManager.sol\":822:866  Task(_taskCounter,_title,TaskStatus.Pending) */\n      dup2\n      mstore\n      0x20\n      add\n        /* \"contracts/M02_Fundamentos_Solidity/Clase03/TaskManager.sol\":840:846  _title */\n      dup6\n      dup6\n        /* \"contracts/M02_Fundamentos_Solidity/Clase03/TaskManager.sol\":822:866  Task(_taskCounter,_title,TaskStatus.Pending) */\n      dup1\n      dup1\n      0x1f\n      add\n      0x20\n      dup1\n      swap2\n      div\n      mul\n      0x20\n      add\n      mload(0x40)\n      swap1\n      dup2\n      add\n      0x40\n      mstore\n      dup1\n      swap4\n      swap3\n      swap2\n      swap1\n      dup2\n      dup2\n      mstore\n      0x20\n      add\n      dup4\n      dup4\n      dup1\n      dup3\n      dup5\n      calldatacopy\n      0x00\n      dup2\n      dup5\n      add\n      mstore\n      not(0x1f)\n      0x1f\n      dup3\n      add\n      and\n      swap1\n      pop\n      dup1\n      dup4\n      add\n      swap3\n      pop\n      pop\n      pop\n      pop\n      pop\n      pop\n      pop\n      dup2\n      mstore\n      0x20\n      add\n        /* \"contracts/M02_Fundamentos_Solidity/Clase03/TaskManager.sol\":847:865  TaskStatus.Pending */\n      0x00\n        /* \"contracts/M02_Fundamentos_Solidity/Clase03/TaskManager.sol\":822:866  Task(_taskCounter,_title,TaskStatus.Pending) */\n      0x02\n      dup2\n      gt\n      iszero\n      tag_35\n      jumpi\n      tag_36\n      tag_37\n      jump\t// in\n    tag_36:\n    tag_35:\n      dup2\n      mstore\n      pop\n        /* \"contracts/M02_Fundamentos_Solidity/Clase03/TaskManager.sol\":811:867  tasks.push(Task(_taskCounter,_title,TaskStatus.Pending)) */\n      swap1\n      dup1\n      0x01\n      dup2\n      sload\n      add\n      dup1\n      dup3\n      sstore\n      dup1\n      swap2\n      pop\n      pop\n      0x01\n      swap1\n      sub\n      swap1\n      0x00\n      mstore\n      keccak256(0x00, 0x20)\n      swap1\n      0x03\n      mul\n      add\n      0x00\n      swap1\n      swap2\n      swap1\n      swap2\n      swap1\n      swap2\n      pop\n      0x00\n      dup3\n      add\n      mload\n      dup2\n      0x00\n      add\n      sstore\n      0x20\n      dup3\n      add\n      mload\n      dup2\n      0x01\n      add\n      swap1\n      dup2\n      tag_39\n      swap2\n      swap1\n      tag_40\n      jump\t// in\n    tag_39:\n      pop\n      0x40\n      dup3\n      add\n      mload\n      dup2\n      0x02\n      add\n      exp(0x0100, 0x00)\n      dup2\n      sload\n      dup2\n      0xff\n      mul\n      not\n      and\n      swap1\n      dup4\n      0x02\n      dup2\n      gt\n      iszero\n      tag_41\n      jumpi\n      tag_42\n      tag_37\n      jump\t// in\n    tag_42:\n    tag_41:\n      mul\n      or\n      swap1\n      sstore\n      pop\n      pop\n      pop\n        /* \"contracts/M02_Fundamentos_Solidity/Clase03/TaskManager.sol\":894:906  _taskCounter */\n      dup1\n        /* \"contracts/M02_Fundamentos_Solidity/Clase03/TaskManager.sol\":882:915  taskCreated(_taskCounter, _title) */\n      0xdc8a9d0709c6ad2a14185c02b1ef388b73a1024f451590c5de574f514bb56db0\n        /* \"contracts/M02_Fundamentos_Solidity/Clase03/TaskManager.sol\":908:914  _title */\n      dup5\n      dup5\n        /* \"contracts/M02_Fundamentos_Solidity/Clase03/TaskManager.sol\":882:915  taskCreated(_taskCounter, _title) */\n      mload(0x40)\n      tag_43\n      swap3\n      swap2\n      swap1\n      tag_44\n      jump\t// in\n    tag_43:\n      mload(0x40)\n      dup1\n      swap2\n      sub\n      swap1\n      log2\n        /* \"contracts/M02_Fundamentos_Solidity/Clase03/TaskManager.sol\":925:940  _taskCounter ++ */\n      dup1\n      dup1\n      tag_45\n      swap1\n      tag_46\n      jump\t// in\n    tag_45:\n      swap2\n      pop\n      pop\n        /* \"contracts/M02_Fundamentos_Solidity/Clase03/TaskManager.sol\":964:976  _taskCounter */\n      dup1\n        /* \"contracts/M02_Fundamentos_Solidity/Clase03/TaskManager.sol\":950:961  taskCounter */\n      0x01\n        /* \"contracts/M02_Fundamentos_Solidity/Clase03/TaskManager.sol\":950:976  taskCounter = _taskCounter */\n      dup2\n      swap1\n      sstore\n      pop\n        /* \"contracts/M02_Fundamentos_Solidity/Clase03/TaskManager.sol\":757:983  {... */\n      pop\n        /* \"contracts/M02_Fundamentos_Solidity/Clase03/TaskManager.sol\":696:983  function createTask(string calldata _title) external maxTask {... */\n      pop\n      pop\n      jump\t// out\n        /* \"contracts/M02_Fundamentos_Solidity/Clase03/TaskManager.sol\":1089:1208  function updateStatus(uint256 _id,TaskStatus _status) external existId(_id){... */\n    tag_15:\n        /* \"contracts/M02_Fundamentos_Solidity/Clase03/TaskManager.sol\":1160:1163  _id */\n      dup2\n        /* \"contracts/M02_Fundamentos_Solidity/Clase03/TaskManager.sol\":1041:1052  taskCounter */\n      sload(0x01)\n        /* \"contracts/M02_Fundamentos_Solidity/Clase03/TaskManager.sol\":1037:1040  _id */\n      dup2\n        /* \"contracts/M02_Fundamentos_Solidity/Clase03/TaskManager.sol\":1037:1052  _id<taskCounter */\n      lt\n        /* \"contracts/M02_Fundamentos_Solidity/Clase03/TaskManager.sol\":1029:1065  require(_id<taskCounter,\"not exist\") */\n      tag_48\n      jumpi\n      mload(0x40)\n      0x08c379a000000000000000000000000000000000000000000000000000000000\n      dup2\n      mstore\n      0x04\n      add\n      tag_49\n      swap1\n      tag_50\n      jump\t// in\n    tag_49:\n      mload(0x40)\n      dup1\n      swap2\n      sub\n      swap1\n      revert\n    tag_48:\n        /* \"contracts/M02_Fundamentos_Solidity/Clase03/TaskManager.sol\":1194:1201  _status */\n      dup2\n        /* \"contracts/M02_Fundamentos_Solidity/Clase03/TaskManager.sol\":1174:1179  tasks */\n      0x00\n        /* \"contracts/M02_Fundamentos_Solidity/Clase03/TaskManager.sol\":1180:1183  _id */\n      dup5\n        /* \"contracts/M02_Fundamentos_Solidity/Clase03/TaskManager.sol\":1174:1184  tasks[_id] */\n      dup2\n      sload\n      dup2\n      lt\n      tag_52\n      jumpi\n      tag_53\n      tag_54\n      jump\t// in\n    tag_53:\n    tag_52:\n      swap1\n      0x00\n      mstore\n      keccak256(0x00, 0x20)\n      swap1\n      0x03\n      mul\n      add\n        /* \"contracts/M02_Fundamentos_Solidity/Clase03/TaskManager.sol\":1174:1191  tasks[_id].status */\n      0x02\n      add\n      0x00\n        /* \"contracts/M02_Fundamentos_Solidity/Clase03/TaskManager.sol\":1174:1201  tasks[_id].status = _status */\n      0x0100\n      exp\n      dup2\n      sload\n      dup2\n      0xff\n      mul\n      not\n      and\n      swap1\n      dup4\n      0x02\n      dup2\n      gt\n      iszero\n      tag_56\n      jumpi\n      tag_57\n      tag_37\n      jump\t// in\n    tag_57:\n    tag_56:\n      mul\n      or\n      swap1\n      sstore\n      pop\n        /* \"contracts/M02_Fundamentos_Solidity/Clase03/TaskManager.sol\":1089:1208  function updateStatus(uint256 _id,TaskStatus _status) external existId(_id){... */\n      pop\n      pop\n      pop\n      jump\t// out\n        /* \"contracts/M02_Fundamentos_Solidity/Clase03/TaskManager.sol\":322:348  uint256 public taskCounter */\n    tag_17:\n      sload(0x01)\n      dup2\n      jump\t// out\n        /* \"contracts/M02_Fundamentos_Solidity/Clase03/TaskManager.sol\":297:316  Task[] public tasks */\n    tag_23:\n      0x00\n      dup2\n      dup2\n      sload\n      dup2\n      lt\n      tag_58\n      jumpi\n      0x00\n      dup1\n      revert\n    tag_58:\n      swap1\n      0x00\n      mstore\n      keccak256(0x00, 0x20)\n      swap1\n      0x03\n      mul\n      add\n      0x00\n      swap2\n      pop\n      swap1\n      pop\n      dup1\n      0x00\n      add\n      sload\n      swap1\n      dup1\n      0x01\n      add\n      dup1\n      sload\n      tag_60\n      swap1\n      tag_61\n      jump\t// in\n    tag_60:\n      dup1\n      0x1f\n      add\n      0x20\n      dup1\n      swap2\n      div\n      mul\n      0x20\n      add\n      mload(0x40)\n      swap1\n      dup2\n      add\n      0x40\n      mstore\n      dup1\n      swap3\n      swap2\n      swap1\n      dup2\n      dup2\n      mstore\n      0x20\n      add\n      dup3\n      dup1\n      sload\n      tag_62\n      swap1\n      tag_61\n      jump\t// in\n    tag_62:\n      dup1\n      iszero\n      tag_63\n      jumpi\n      dup1\n      0x1f\n      lt\n      tag_64\n      jumpi\n      0x0100\n      dup1\n      dup4\n      sload\n      div\n      mul\n      dup4\n      mstore\n      swap2\n      0x20\n      add\n      swap2\n      jump(tag_63)\n    tag_64:\n      dup3\n      add\n      swap2\n      swap1\n      0x00\n      mstore\n      keccak256(0x00, 0x20)\n      swap1\n    tag_65:\n      dup2\n      sload\n      dup2\n      mstore\n      swap1\n      0x01\n      add\n      swap1\n      0x20\n      add\n      dup1\n      dup4\n      gt\n      tag_65\n      jumpi\n      dup3\n      swap1\n      sub\n      0x1f\n      and\n      dup3\n      add\n      swap2\n    tag_63:\n      pop\n      pop\n      pop\n      pop\n      pop\n      swap1\n      dup1\n      0x02\n      add\n      0x00\n      swap1\n      sload\n      swap1\n      0x0100\n      exp\n      swap1\n      div\n      0xff\n      and\n      swap1\n      pop\n      dup4\n      jump\t// out\n        /* \"contracts/M02_Fundamentos_Solidity/Clase03/TaskManager.sol\":1214:1502  function readFirstPendig() external view returns(Task memory) {... */\n    tag_27:\n        /* \"contracts/M02_Fundamentos_Solidity/Clase03/TaskManager.sol\":1263:1274  Task memory */\n      tag_66\n      tag_67\n      jump\t// in\n    tag_66:\n        /* \"contracts/M02_Fundamentos_Solidity/Clase03/TaskManager.sol\":1286:1297  uint256 Len */\n      0x00\n        /* \"contracts/M02_Fundamentos_Solidity/Clase03/TaskManager.sol\":1300:1305  tasks */\n      dup1\n        /* \"contracts/M02_Fundamentos_Solidity/Clase03/TaskManager.sol\":1300:1312  tasks.length */\n      dup1\n      sload\n      swap1\n      pop\n        /* \"contracts/M02_Fundamentos_Solidity/Clase03/TaskManager.sol\":1286:1312  uint256 Len = tasks.length */\n      swap1\n      pop\n        /* \"contracts/M02_Fundamentos_Solidity/Clase03/TaskManager.sol\":1326:1335  uint256 i */\n      0x00\n        /* \"contracts/M02_Fundamentos_Solidity/Clase03/TaskManager.sol\":1322:1467  for(uint256 i=0; i < Len; i++) {... */\n    tag_69:\n        /* \"contracts/M02_Fundamentos_Solidity/Clase03/TaskManager.sol\":1343:1346  Len */\n      dup2\n        /* \"contracts/M02_Fundamentos_Solidity/Clase03/TaskManager.sol\":1339:1340  i */\n      dup2\n        /* \"contracts/M02_Fundamentos_Solidity/Clase03/TaskManager.sol\":1339:1346  i < Len */\n      lt\n        /* \"contracts/M02_Fundamentos_Solidity/Clase03/TaskManager.sol\":1322:1467  for(uint256 i=0; i < Len; i++) {... */\n      iszero\n      tag_70\n      jumpi\n        /* \"contracts/M02_Fundamentos_Solidity/Clase03/TaskManager.sol\":1389:1407  TaskStatus.Pending */\n      0x00\n        /* \"contracts/M02_Fundamentos_Solidity/Clase03/TaskManager.sol\":1370:1407  tasks[i].status == TaskStatus.Pending */\n      0x02\n      dup2\n      gt\n      iszero\n      tag_72\n      jumpi\n      tag_73\n      tag_37\n      jump\t// in\n    tag_73:\n    tag_72:\n        /* \"contracts/M02_Fundamentos_Solidity/Clase03/TaskManager.sol\":1370:1375  tasks */\n      0x00\n        /* \"contracts/M02_Fundamentos_Solidity/Clase03/TaskManager.sol\":1376:1377  i */\n      dup3\n        /* \"contracts/M02_Fundamentos_Solidity/Clase03/TaskManager.sol\":1370:1378  tasks[i] */\n      dup2\n      sload\n      dup2\n      lt\n      tag_74\n      jumpi\n      tag_75\n      tag_54\n      jump\t// in\n    tag_75:\n    tag_74:\n      swap1\n      0x00\n      mstore\n      keccak256(0x00, 0x20)\n      swap1\n      0x03\n      mul\n      add\n        /* \"contracts/M02_Fundamentos_Solidity/Clase03/TaskManager.sol\":1370:1385  tasks[i].status */\n      0x02\n      add\n      0x00\n      swap1\n      sload\n      swap1\n      0x0100\n      exp\n      swap1\n      div\n      0xff\n      and\n        /* \"contracts/M02_Fundamentos_Solidity/Clase03/TaskManager.sol\":1370:1407  tasks[i].status == TaskStatus.Pending */\n      0x02\n      dup2\n      gt\n      iszero\n      tag_77\n      jumpi\n      tag_78\n      tag_37\n      jump\t// in\n    tag_78:\n    tag_77:\n      sub\n        /* \"contracts/M02_Fundamentos_Solidity/Clase03/TaskManager.sol\":1367:1457  if(tasks[i].status == TaskStatus.Pending) {... */\n      tag_79\n      jumpi\n        /* \"contracts/M02_Fundamentos_Solidity/Clase03/TaskManager.sol\":1434:1439  tasks */\n      0x00\n        /* \"contracts/M02_Fundamentos_Solidity/Clase03/TaskManager.sol\":1440:1441  i */\n      dup2\n        /* \"contracts/M02_Fundamentos_Solidity/Clase03/TaskManager.sol\":1434:1442  tasks[i] */\n      dup2\n      sload\n      dup2\n      lt\n      tag_80\n      jumpi\n      tag_81\n      tag_54\n      jump\t// in\n    tag_81:\n    tag_80:\n      swap1\n      0x00\n      mstore\n      keccak256(0x00, 0x20)\n      swap1\n      0x03\n      mul\n      add\n        /* \"contracts/M02_Fundamentos_Solidity/Clase03/TaskManager.sol\":1427:1442  return tasks[i] */\n      mload(0x40)\n      dup1\n      0x60\n      add\n      0x40\n      mstore\n      swap1\n      dup2\n      0x00\n      dup3\n      add\n      sload\n      dup2\n      mstore\n      0x20\n      add\n      0x01\n      dup3\n      add\n      dup1\n      sload\n      tag_83\n      swap1\n      tag_61\n      jump\t// in\n    tag_83:\n      dup1\n      0x1f\n      add\n      0x20\n      dup1\n      swap2\n      div\n      mul\n      0x20\n      add\n      mload(0x40)\n      swap1\n      dup2\n      add\n      0x40\n      mstore\n      dup1\n      swap3\n      swap2\n      swap1\n      dup2\n      dup2\n      mstore\n      0x20\n      add\n      dup3\n      dup1\n      sload\n      tag_84\n      swap1\n      tag_61\n      jump\t// in\n    tag_84:\n      dup1\n      iszero\n      tag_85\n      jumpi\n      dup1\n      0x1f\n      lt\n      tag_86\n      jumpi\n      0x0100\n      dup1\n      dup4\n      sload\n      div\n      mul\n      dup4\n      mstore\n      swap2\n      0x20\n      add\n      swap2\n      jump(tag_85)\n    tag_86:\n      dup3\n      add\n      swap2\n      swap1\n      0x00\n      mstore\n      keccak256(0x00, 0x20)\n      swap1\n    tag_87:\n      dup2\n      sload\n      dup2\n      mstore\n      swap1\n      0x01\n      add\n      swap1\n      0x20\n      add\n      dup1\n      dup4\n      gt\n      tag_87\n      jumpi\n      dup3\n      swap1\n      sub\n      0x1f\n      and\n      dup3\n      add\n      swap2\n    tag_85:\n      pop\n      pop\n      pop\n      pop\n      pop\n      dup2\n      mstore\n      0x20\n      add\n      0x02\n      dup3\n      add\n      0x00\n      swap1\n      sload\n      swap1\n      0x0100\n      exp\n      swap1\n      div\n      0xff\n      and\n      0x02\n      dup2\n      gt\n      iszero\n      tag_88\n      jumpi\n      tag_89\n      tag_37\n      jump\t// in\n    tag_89:\n    tag_88:\n      0x02\n      dup2\n      gt\n      iszero\n      tag_90\n      jumpi\n      tag_91\n      tag_37\n      jump\t// in\n    tag_91:\n    tag_90:\n      dup2\n      mstore\n      pop\n      pop\n      swap3\n      pop\n      pop\n      pop\n      jump(tag_68)\n        /* \"contracts/M02_Fundamentos_Solidity/Clase03/TaskManager.sol\":1367:1457  if(tasks[i].status == TaskStatus.Pending) {... */\n    tag_79:\n        /* \"contracts/M02_Fundamentos_Solidity/Clase03/TaskManager.sol\":1348:1351  i++ */\n      dup1\n      dup1\n      0x01\n      add\n      swap2\n      pop\n      pop\n        /* \"contracts/M02_Fundamentos_Solidity/Clase03/TaskManager.sol\":1322:1467  for(uint256 i=0; i < Len; i++) {... */\n      jump(tag_69)\n    tag_70:\n      pop\n        /* \"contracts/M02_Fundamentos_Solidity/Clase03/TaskManager.sol\":1483:1488  tasks */\n      0x00\n        /* \"contracts/M02_Fundamentos_Solidity/Clase03/TaskManager.sol\":1493:1494  1 */\n      0x01\n        /* \"contracts/M02_Fundamentos_Solidity/Clase03/TaskManager.sol\":1489:1492  Len */\n      dup3\n        /* \"contracts/M02_Fundamentos_Solidity/Clase03/TaskManager.sol\":1489:1494  Len-1 */\n      tag_92\n      swap2\n      swap1\n      tag_93\n      jump\t// in\n    tag_92:\n        /* \"contracts/M02_Fundamentos_Solidity/Clase03/TaskManager.sol\":1483:1495  tasks[Len-1] */\n      dup2\n      sload\n      dup2\n      lt\n      tag_94\n      jumpi\n      tag_95\n      tag_54\n      jump\t// in\n    tag_95:\n    tag_94:\n      swap1\n      0x00\n      mstore\n      keccak256(0x00, 0x20)\n      swap1\n      0x03\n      mul\n      add\n        /* \"contracts/M02_Fundamentos_Solidity/Clase03/TaskManager.sol\":1476:1495  return tasks[Len-1] */\n      mload(0x40)\n      dup1\n      0x60\n      add\n      0x40\n      mstore\n      swap1\n      dup2\n      0x00\n      dup3\n      add\n      sload\n      dup2\n      mstore\n      0x20\n      add\n      0x01\n      dup3\n      add\n      dup1\n      sload\n      tag_97\n      swap1\n      tag_61\n      jump\t// in\n    tag_97:\n      dup1\n      0x1f\n      add\n      0x20\n      dup1\n      swap2\n      div\n      mul\n      0x20\n      add\n      mload(0x40)\n      swap1\n      dup2\n      add\n      0x40\n      mstore\n      dup1\n      swap3\n      swap2\n      swap1\n      dup2\n      dup2\n      mstore\n      0x20\n      add\n      dup3\n      dup1\n      sload\n      tag_98\n      swap1\n      tag_61\n      jump\t// in\n    tag_98:\n      dup1\n      iszero\n      tag_99\n      jumpi\n      dup1\n      0x1f\n      lt\n      tag_100\n      jumpi\n      0x0100\n      dup1\n      dup4\n      sload\n      div\n      mul\n      dup4\n      mstore\n      swap2\n      0x20\n      add\n      swap2\n      jump(tag_99)\n    tag_100:\n      dup3\n      add\n      swap2\n      swap1\n      0x00\n      mstore\n      keccak256(0x00, 0x20)\n      swap1\n    tag_101:\n      dup2\n      sload\n      dup2\n      mstore\n      swap1\n      0x01\n      add\n      swap1\n      0x20\n      add\n      dup1\n      dup4\n      gt\n      tag_101\n      jumpi\n      dup3\n      swap1\n      sub\n      0x1f\n      and\n      dup3\n      add\n      swap2\n    tag_99:\n      pop\n      pop\n      pop\n      pop\n      pop\n      dup2\n      mstore\n      0x20\n      add\n      0x02\n      dup3\n      add\n      0x00\n      swap1\n      sload\n      swap1\n      0x0100\n      exp\n      swap1\n      div\n      0xff\n      and\n      0x02\n      dup2\n      gt\n      iszero\n      tag_102\n      jumpi\n      tag_103\n      tag_37\n      jump\t// in\n    tag_103:\n    tag_102:\n      0x02\n      dup2\n      gt\n      iszero\n      tag_104\n      jumpi\n      tag_105\n      tag_37\n      jump\t// in\n    tag_105:\n    tag_104:\n      dup2\n      mstore\n      pop\n      pop\n      swap2\n      pop\n      pop\n        /* \"contracts/M02_Fundamentos_Solidity/Clase03/TaskManager.sol\":1214:1502  function readFirstPendig() external view returns(Task memory) {... */\n    tag_68:\n      swap1\n      jump\t// out\n    tag_67:\n      mload(0x40)\n      dup1\n      0x60\n      add\n      0x40\n      mstore\n      dup1\n      0x00\n      dup2\n      mstore\n      0x20\n      add\n      0x60\n      dup2\n      mstore\n      0x20\n      add\n      0x00\n      0x02\n      dup2\n      gt\n      iszero\n      tag_106\n      jumpi\n      tag_107\n      tag_37\n      jump\t// in\n    tag_107:\n    tag_106:\n      dup2\n      mstore\n      pop\n      swap1\n      jump\t// out\n        /* \"#utility.yul\":88:205   */\n    tag_109:\n        /* \"#utility.yul\":197:198   */\n      0x00\n        /* \"#utility.yul\":194:195   */\n      dup1\n        /* \"#utility.yul\":187:199   */\n      revert\n        /* \"#utility.yul\":211:328   */\n    tag_110:\n        /* \"#utility.yul\":320:321   */\n      0x00\n        /* \"#utility.yul\":317:318   */\n      dup1\n        /* \"#utility.yul\":310:322   */\n      revert\n        /* \"#utility.yul\":334:451   */\n    tag_111:\n        /* \"#utility.yul\":443:444   */\n      0x00\n        /* \"#utility.yul\":440:441   */\n      dup1\n        /* \"#utility.yul\":433:445   */\n      revert\n        /* \"#utility.yul\":457:574   */\n    tag_112:\n        /* \"#utility.yul\":566:567   */\n      0x00\n        /* \"#utility.yul\":563:564   */\n      dup1\n        /* \"#utility.yul\":556:568   */\n      revert\n        /* \"#utility.yul\":580:697   */\n    tag_113:\n        /* \"#utility.yul\":689:690   */\n      0x00\n        /* \"#utility.yul\":686:687   */\n      dup1\n        /* \"#utility.yul\":679:691   */\n      revert\n        /* \"#utility.yul\":717:1270   */\n    tag_114:\n        /* \"#utility.yul\":775:783   */\n      0x00\n        /* \"#utility.yul\":785:791   */\n      dup1\n        /* \"#utility.yul\":835:838   */\n      dup4\n        /* \"#utility.yul\":828:832   */\n      0x1f\n        /* \"#utility.yul\":820:826   */\n      dup5\n        /* \"#utility.yul\":816:833   */\n      add\n        /* \"#utility.yul\":812:839   */\n      slt\n        /* \"#utility.yul\":802:924   */\n      tag_167\n      jumpi\n        /* \"#utility.yul\":843:922   */\n      tag_168\n      tag_111\n      jump\t// in\n    tag_168:\n        /* \"#utility.yul\":802:924   */\n    tag_167:\n        /* \"#utility.yul\":956:962   */\n      dup3\n        /* \"#utility.yul\":943:963   */\n      calldataload\n        /* \"#utility.yul\":933:963   */\n      swap1\n      pop\n        /* \"#utility.yul\":986:1004   */\n      0xffffffffffffffff\n        /* \"#utility.yul\":978:984   */\n      dup2\n        /* \"#utility.yul\":975:1005   */\n      gt\n        /* \"#utility.yul\":972:1089   */\n      iszero\n      tag_169\n      jumpi\n        /* \"#utility.yul\":1008:1087   */\n      tag_170\n      tag_112\n      jump\t// in\n    tag_170:\n        /* \"#utility.yul\":972:1089   */\n    tag_169:\n        /* \"#utility.yul\":1122:1126   */\n      0x20\n        /* \"#utility.yul\":1114:1120   */\n      dup4\n        /* \"#utility.yul\":1110:1127   */\n      add\n        /* \"#utility.yul\":1098:1127   */\n      swap2\n      pop\n        /* \"#utility.yul\":1176:1179   */\n      dup4\n        /* \"#utility.yul\":1168:1172   */\n      0x01\n        /* \"#utility.yul\":1160:1166   */\n      dup3\n        /* \"#utility.yul\":1156:1173   */\n      mul\n        /* \"#utility.yul\":1146:1154   */\n      dup4\n        /* \"#utility.yul\":1142:1174   */\n      add\n        /* \"#utility.yul\":1139:1180   */\n      gt\n        /* \"#utility.yul\":1136:1264   */\n      iszero\n      tag_171\n      jumpi\n        /* \"#utility.yul\":1183:1262   */\n      tag_172\n      tag_113\n      jump\t// in\n    tag_172:\n        /* \"#utility.yul\":1136:1264   */\n    tag_171:\n        /* \"#utility.yul\":717:1270   */\n      swap3\n      pop\n      swap3\n      swap1\n      pop\n      jump\t// out\n        /* \"#utility.yul\":1276:1805   */\n    tag_10:\n        /* \"#utility.yul\":1347:1353   */\n      0x00\n        /* \"#utility.yul\":1355:1361   */\n      dup1\n        /* \"#utility.yul\":1404:1406   */\n      0x20\n        /* \"#utility.yul\":1392:1401   */\n      dup4\n        /* \"#utility.yul\":1383:1390   */\n      dup6\n        /* \"#utility.yul\":1379:1402   */\n      sub\n        /* \"#utility.yul\":1375:1407   */\n      slt\n        /* \"#utility.yul\":1372:1491   */\n      iszero\n      tag_174\n      jumpi\n        /* \"#utility.yul\":1410:1489   */\n      tag_175\n      tag_109\n      jump\t// in\n    tag_175:\n        /* \"#utility.yul\":1372:1491   */\n    tag_174:\n        /* \"#utility.yul\":1558:1559   */\n      0x00\n        /* \"#utility.yul\":1547:1556   */\n      dup4\n        /* \"#utility.yul\":1543:1560   */\n      add\n        /* \"#utility.yul\":1530:1561   */\n      calldataload\n        /* \"#utility.yul\":1588:1606   */\n      0xffffffffffffffff\n        /* \"#utility.yul\":1580:1586   */\n      dup2\n        /* \"#utility.yul\":1577:1607   */\n      gt\n        /* \"#utility.yul\":1574:1691   */\n      iszero\n      tag_176\n      jumpi\n        /* \"#utility.yul\":1610:1689   */\n      tag_177\n      tag_110\n      jump\t// in\n    tag_177:\n        /* \"#utility.yul\":1574:1691   */\n    tag_176:\n        /* \"#utility.yul\":1723:1788   */\n      tag_178\n        /* \"#utility.yul\":1780:1787   */\n      dup6\n        /* \"#utility.yul\":1771:1777   */\n      dup3\n        /* \"#utility.yul\":1760:1769   */\n      dup7\n        /* \"#utility.yul\":1756:1778   */\n      add\n        /* \"#utility.yul\":1723:1788   */\n      tag_114\n      jump\t// in\n    tag_178:\n        /* \"#utility.yul\":1705:1788   */\n      swap3\n      pop\n      swap3\n      pop\n        /* \"#utility.yul\":1501:1798   */\n      pop\n        /* \"#utility.yul\":1276:1805   */\n      swap3\n      pop\n      swap3\n      swap1\n      pop\n      jump\t// out\n        /* \"#utility.yul\":1811:1888   */\n    tag_115:\n        /* \"#utility.yul\":1848:1855   */\n      0x00\n        /* \"#utility.yul\":1877:1882   */\n      dup2\n        /* \"#utility.yul\":1866:1882   */\n      swap1\n      pop\n        /* \"#utility.yul\":1811:1888   */\n      swap2\n      swap1\n      pop\n      jump\t// out\n        /* \"#utility.yul\":1894:2016   */\n    tag_116:\n        /* \"#utility.yul\":1967:1991   */\n      tag_181\n        /* \"#utility.yul\":1985:1990   */\n      dup2\n        /* \"#utility.yul\":1967:1991   */\n      tag_115\n      jump\t// in\n    tag_181:\n        /* \"#utility.yul\":1960:1965   */\n      dup2\n        /* \"#utility.yul\":1957:1992   */\n      eq\n        /* \"#utility.yul\":1947:2010   */\n      tag_182\n      jumpi\n        /* \"#utility.yul\":2006:2007   */\n      0x00\n        /* \"#utility.yul\":2003:2004   */\n      dup1\n        /* \"#utility.yul\":1996:2008   */\n      revert\n        /* \"#utility.yul\":1947:2010   */\n    tag_182:\n        /* \"#utility.yul\":1894:2016   */\n      pop\n      jump\t// out\n        /* \"#utility.yul\":2022:2161   */\n    tag_117:\n        /* \"#utility.yul\":2068:2073   */\n      0x00\n        /* \"#utility.yul\":2106:2112   */\n      dup2\n        /* \"#utility.yul\":2093:2113   */\n      calldataload\n        /* \"#utility.yul\":2084:2113   */\n      swap1\n      pop\n        /* \"#utility.yul\":2122:2155   */\n      tag_184\n        /* \"#utility.yul\":2149:2154   */\n      dup2\n        /* \"#utility.yul\":2122:2155   */\n      tag_116\n      jump\t// in\n    tag_184:\n        /* \"#utility.yul\":2022:2161   */\n      swap3\n      swap2\n      pop\n      pop\n      jump\t// out\n        /* \"#utility.yul\":2167:2278   */\n    tag_118:\n        /* \"#utility.yul\":2252:2253   */\n      0x03\n        /* \"#utility.yul\":2245:2250   */\n      dup2\n        /* \"#utility.yul\":2242:2254   */\n      lt\n        /* \"#utility.yul\":2232:2272   */\n      tag_186\n      jumpi\n        /* \"#utility.yul\":2268:2269   */\n      0x00\n        /* \"#utility.yul\":2265:2266   */\n      dup1\n        /* \"#utility.yul\":2258:2270   */\n      revert\n        /* \"#utility.yul\":2232:2272   */\n    tag_186:\n        /* \"#utility.yul\":2167:2278   */\n      pop\n      jump\t// out\n        /* \"#utility.yul\":2284:2447   */\n    tag_119:\n        /* \"#utility.yul\":2342:2347   */\n      0x00\n        /* \"#utility.yul\":2380:2386   */\n      dup2\n        /* \"#utility.yul\":2367:2387   */\n      calldataload\n        /* \"#utility.yul\":2358:2387   */\n      swap1\n      pop\n        /* \"#utility.yul\":2396:2441   */\n      tag_188\n        /* \"#utility.yul\":2435:2440   */\n      dup2\n        /* \"#utility.yul\":2396:2441   */\n      tag_118\n      jump\t// in\n    tag_188:\n        /* \"#utility.yul\":2284:2447   */\n      swap3\n      swap2\n      pop\n      pop\n      jump\t// out\n        /* \"#utility.yul\":2453:2951   */\n    tag_14:\n        /* \"#utility.yul\":2533:2539   */\n      0x00\n        /* \"#utility.yul\":2541:2547   */\n      dup1\n        /* \"#utility.yul\":2590:2592   */\n      0x40\n        /* \"#utility.yul\":2578:2587   */\n      dup4\n        /* \"#utility.yul\":2569:2576   */\n      dup6\n        /* \"#utility.yul\":2565:2588   */\n      sub\n        /* \"#utility.yul\":2561:2593   */\n      slt\n        /* \"#utility.yul\":2558:2677   */\n      iszero\n      tag_190\n      jumpi\n        /* \"#utility.yul\":2596:2675   */\n      tag_191\n      tag_109\n      jump\t// in\n    tag_191:\n        /* \"#utility.yul\":2558:2677   */\n    tag_190:\n        /* \"#utility.yul\":2716:2717   */\n      0x00\n        /* \"#utility.yul\":2741:2794   */\n      tag_192\n        /* \"#utility.yul\":2786:2793   */\n      dup6\n        /* \"#utility.yul\":2777:2783   */\n      dup3\n        /* \"#utility.yul\":2766:2775   */\n      dup7\n        /* \"#utility.yul\":2762:2784   */\n      add\n        /* \"#utility.yul\":2741:2794   */\n      tag_117\n      jump\t// in\n    tag_192:\n        /* \"#utility.yul\":2731:2794   */\n      swap3\n      pop\n        /* \"#utility.yul\":2687:2804   */\n      pop\n        /* \"#utility.yul\":2843:2845   */\n      0x20\n        /* \"#utility.yul\":2869:2934   */\n      tag_193\n        /* \"#utility.yul\":2926:2933   */\n      dup6\n        /* \"#utility.yul\":2917:2923   */\n      dup3\n        /* \"#utility.yul\":2906:2915   */\n      dup7\n        /* \"#utility.yul\":2902:2924   */\n      add\n        /* \"#utility.yul\":2869:2934   */\n      tag_119\n      jump\t// in\n    tag_193:\n        /* \"#utility.yul\":2859:2934   */\n      swap2\n      pop\n        /* \"#utility.yul\":2814:2944   */\n      pop\n        /* \"#utility.yul\":2453:2951   */\n      swap3\n      pop\n      swap3\n      swap1\n      pop\n      jump\t// out\n        /* \"#utility.yul\":2957:3075   */\n    tag_120:\n        /* \"#utility.yul\":3044:3068   */\n      tag_195\n        /* \"#utility.yul\":3062:3067   */\n      dup2\n        /* \"#utility.yul\":3044:3068   */\n      tag_115\n      jump\t// in\n    tag_195:\n        /* \"#utility.yul\":3039:3042   */\n      dup3\n        /* \"#utility.yul\":3032:3069   */\n      mstore\n        /* \"#utility.yul\":2957:3075   */\n      pop\n      pop\n      jump\t// out\n        /* \"#utility.yul\":3081:3303   */\n    tag_19:\n        /* \"#utility.yul\":3174:3178   */\n      0x00\n        /* \"#utility.yul\":3212:3214   */\n      0x20\n        /* \"#utility.yul\":3201:3210   */\n      dup3\n        /* \"#utility.yul\":3197:3215   */\n      add\n        /* \"#utility.yul\":3189:3215   */\n      swap1\n      pop\n        /* \"#utility.yul\":3225:3296   */\n      tag_197\n        /* \"#utility.yul\":3293:3294   */\n      0x00\n        /* \"#utility.yul\":3282:3291   */\n      dup4\n        /* \"#utility.yul\":3278:3295   */\n      add\n        /* \"#utility.yul\":3269:3275   */\n      dup5\n        /* \"#utility.yul\":3225:3296   */\n      tag_120\n      jump\t// in\n    tag_197:\n        /* \"#utility.yul\":3081:3303   */\n      swap3\n      swap2\n      pop\n      pop\n      jump\t// out\n        /* \"#utility.yul\":3309:3638   */\n    tag_22:\n        /* \"#utility.yul\":3368:3374   */\n      0x00\n        /* \"#utility.yul\":3417:3419   */\n      0x20\n        /* \"#utility.yul\":3405:3414   */\n      dup3\n        /* \"#utility.yul\":3396:3403   */\n      dup5\n        /* \"#utility.yul\":3392:3415   */\n      sub\n        /* \"#utility.yul\":3388:3420   */\n      slt\n        /* \"#utility.yul\":3385:3504   */\n      iszero\n      tag_199\n      jumpi\n        /* \"#utility.yul\":3423:3502   */\n      tag_200\n      tag_109\n      jump\t// in\n    tag_200:\n        /* \"#utility.yul\":3385:3504   */\n    tag_199:\n        /* \"#utility.yul\":3543:3544   */\n      0x00\n        /* \"#utility.yul\":3568:3621   */\n      tag_201\n        /* \"#utility.yul\":3613:3620   */\n      dup5\n        /* \"#utility.yul\":3604:3610   */\n      dup3\n        /* \"#utility.yul\":3593:3602   */\n      dup6\n        /* \"#utility.yul\":3589:3611   */\n      add\n        /* \"#utility.yul\":3568:3621   */\n      tag_117\n      jump\t// in\n    tag_201:\n        /* \"#utility.yul\":3558:3621   */\n      swap2\n      pop\n        /* \"#utility.yul\":3514:3631   */\n      pop\n        /* \"#utility.yul\":3309:3638   */\n      swap3\n      swap2\n      pop\n      pop\n      jump\t// out\n        /* \"#utility.yul\":3644:3743   */\n    tag_121:\n        /* \"#utility.yul\":3696:3702   */\n      0x00\n        /* \"#utility.yul\":3730:3735   */\n      dup2\n        /* \"#utility.yul\":3724:3736   */\n      mload\n        /* \"#utility.yul\":3714:3736   */\n      swap1\n      pop\n        /* \"#utility.yul\":3644:3743   */\n      swap2\n      swap1\n      pop\n      jump\t// out\n        /* \"#utility.yul\":3749:3918   */\n    tag_122:\n        /* \"#utility.yul\":3833:3844   */\n      0x00\n        /* \"#utility.yul\":3867:3873   */\n      dup3\n        /* \"#utility.yul\":3862:3865   */\n      dup3\n        /* \"#utility.yul\":3855:3874   */\n      mstore\n        /* \"#utility.yul\":3907:3911   */\n      0x20\n        /* \"#utility.yul\":3902:3905   */\n      dup3\n        /* \"#utility.yul\":3898:3912   */\n      add\n        /* \"#utility.yul\":3883:3912   */\n      swap1\n      pop\n        /* \"#utility.yul\":3749:3918   */\n      swap3\n      swap2\n      pop\n      pop\n      jump\t// out\n        /* \"#utility.yul\":3924:4063   */\n    tag_123:\n        /* \"#utility.yul\":4013:4019   */\n      dup3\n        /* \"#utility.yul\":4008:4011   */\n      dup2\n        /* \"#utility.yul\":4003:4006   */\n      dup4\n        /* \"#utility.yul\":3997:4020   */\n      mcopy\n        /* \"#utility.yul\":4054:4055   */\n      0x00\n        /* \"#utility.yul\":4045:4051   */\n      dup4\n        /* \"#utility.yul\":4040:4043   */\n      dup4\n        /* \"#utility.yul\":4036:4052   */\n      add\n        /* \"#utility.yul\":4029:4056   */\n      mstore\n        /* \"#utility.yul\":3924:4063   */\n      pop\n      pop\n      pop\n      jump\t// out\n        /* \"#utility.yul\":4069:4171   */\n    tag_124:\n        /* \"#utility.yul\":4110:4116   */\n      0x00\n        /* \"#utility.yul\":4161:4163   */\n      0x1f\n        /* \"#utility.yul\":4157:4164   */\n      not\n        /* \"#utility.yul\":4152:4154   */\n      0x1f\n        /* \"#utility.yul\":4145:4150   */\n      dup4\n        /* \"#utility.yul\":4141:4155   */\n      add\n        /* \"#utility.yul\":4137:4165   */\n      and\n        /* \"#utility.yul\":4127:4165   */\n      swap1\n      pop\n        /* \"#utility.yul\":4069:4171   */\n      swap2\n      swap1\n      pop\n      jump\t// out\n        /* \"#utility.yul\":4177:4554   */\n    tag_125:\n        /* \"#utility.yul\":4265:4268   */\n      0x00\n        /* \"#utility.yul\":4293:4332   */\n      tag_207\n        /* \"#utility.yul\":4326:4331   */\n      dup3\n        /* \"#utility.yul\":4293:4332   */\n      tag_121\n      jump\t// in\n    tag_207:\n        /* \"#utility.yul\":4348:4419   */\n      tag_208\n        /* \"#utility.yul\":4412:4418   */\n      dup2\n        /* \"#utility.yul\":4407:4410   */\n      dup6\n        /* \"#utility.yul\":4348:4419   */\n      tag_122\n      jump\t// in\n    tag_208:\n        /* \"#utility.yul\":4341:4419   */\n      swap4\n      pop\n        /* \"#utility.yul\":4428:4493   */\n      tag_209\n        /* \"#utility.yul\":4486:4492   */\n      dup2\n        /* \"#utility.yul\":4481:4484   */\n      dup6\n        /* \"#utility.yul\":4474:4478   */\n      0x20\n        /* \"#utility.yul\":4467:4472   */\n      dup7\n        /* \"#utility.yul\":4463:4479   */\n      add\n        /* \"#utility.yul\":4428:4493   */\n      tag_123\n      jump\t// in\n    tag_209:\n        /* \"#utility.yul\":4518:4547   */\n      tag_210\n        /* \"#utility.yul\":4540:4546   */\n      dup2\n        /* \"#utility.yul\":4518:4547   */\n      tag_124\n      jump\t// in\n    tag_210:\n        /* \"#utility.yul\":4513:4516   */\n      dup5\n        /* \"#utility.yul\":4509:4548   */\n      add\n        /* \"#utility.yul\":4502:4548   */\n      swap2\n      pop\n        /* \"#utility.yul\":4269:4554   */\n      pop\n        /* \"#utility.yul\":4177:4554   */\n      swap3\n      swap2\n      pop\n      pop\n      jump\t// out\n        /* \"#utility.yul\":4560:4740   */\n    tag_37:\n        /* \"#utility.yul\":4608:4685   */\n      0x4e487b7100000000000000000000000000000000000000000000000000000000\n        /* \"#utility.yul\":4605:4606   */\n      0x00\n        /* \"#utility.yul\":4598:4686   */\n      mstore\n        /* \"#utility.yul\":4705:4709   */\n      0x21\n        /* \"#utility.yul\":4702:4703   */\n      0x04\n        /* \"#utility.yul\":4695:4710   */\n      mstore\n        /* \"#utility.yul\":4729:4733   */\n      0x24\n        /* \"#utility.yul\":4726:4727   */\n      0x00\n        /* \"#utility.yul\":4719:4734   */\n      revert\n        /* \"#utility.yul\":4746:4863   */\n    tag_126:\n        /* \"#utility.yul\":4831:4832   */\n      0x03\n        /* \"#utility.yul\":4824:4829   */\n      dup2\n        /* \"#utility.yul\":4821:4833   */\n      lt\n        /* \"#utility.yul\":4811:4857   */\n      tag_213\n      jumpi\n        /* \"#utility.yul\":4837:4855   */\n      tag_214\n      tag_37\n      jump\t// in\n    tag_214:\n        /* \"#utility.yul\":4811:4857   */\n    tag_213:\n        /* \"#utility.yul\":4746:4863   */\n      pop\n      jump\t// out\n        /* \"#utility.yul\":4869:5004   */\n    tag_127:\n        /* \"#utility.yul\":4918:4925   */\n      0x00\n        /* \"#utility.yul\":4947:4952   */\n      dup2\n        /* \"#utility.yul\":4936:4952   */\n      swap1\n      pop\n        /* \"#utility.yul\":4953:4998   */\n      tag_216\n        /* \"#utility.yul\":4992:4997   */\n      dup3\n        /* \"#utility.yul\":4953:4998   */\n      tag_126\n      jump\t// in\n    tag_216:\n        /* \"#utility.yul\":4869:5004   */\n      swap2\n      swap1\n      pop\n      jump\t// out\n        /* \"#utility.yul\":5010:5145   */\n    tag_128:\n        /* \"#utility.yul\":5070:5079   */\n      0x00\n        /* \"#utility.yul\":5103:5139   */\n      tag_218\n        /* \"#utility.yul\":5133:5138   */\n      dup3\n        /* \"#utility.yul\":5103:5139   */\n      tag_127\n      jump\t// in\n    tag_218:\n        /* \"#utility.yul\":5090:5139   */\n      swap1\n      pop\n        /* \"#utility.yul\":5010:5145   */\n      swap2\n      swap1\n      pop\n      jump\t// out\n        /* \"#utility.yul\":5151:5302   */\n    tag_129:\n        /* \"#utility.yul\":5248:5295   */\n      tag_220\n        /* \"#utility.yul\":5289:5294   */\n      dup2\n        /* \"#utility.yul\":5248:5295   */\n      tag_128\n      jump\t// in\n    tag_220:\n        /* \"#utility.yul\":5243:5246   */\n      dup3\n        /* \"#utility.yul\":5236:5296   */\n      mstore\n        /* \"#utility.yul\":5151:5302   */\n      pop\n      pop\n      jump\t// out\n        /* \"#utility.yul\":5308:5861   */\n    tag_25:\n        /* \"#utility.yul\":5487:5491   */\n      0x00\n        /* \"#utility.yul\":5525:5527   */\n      0x60\n        /* \"#utility.yul\":5514:5523   */\n      dup3\n        /* \"#utility.yul\":5510:5528   */\n      add\n        /* \"#utility.yul\":5502:5528   */\n      swap1\n      pop\n        /* \"#utility.yul\":5538:5609   */\n      tag_222\n        /* \"#utility.yul\":5606:5607   */\n      0x00\n        /* \"#utility.yul\":5595:5604   */\n      dup4\n        /* \"#utility.yul\":5591:5608   */\n      add\n        /* \"#utility.yul\":5582:5588   */\n      dup7\n        /* \"#utility.yul\":5538:5609   */\n      tag_120\n      jump\t// in\n    tag_222:\n        /* \"#utility.yul\":5656:5665   */\n      dup2\n        /* \"#utility.yul\":5650:5654   */\n      dup2\n        /* \"#utility.yul\":5646:5666   */\n      sub\n        /* \"#utility.yul\":5641:5643   */\n      0x20\n        /* \"#utility.yul\":5630:5639   */\n      dup4\n        /* \"#utility.yul\":5626:5644   */\n      add\n        /* \"#utility.yul\":5619:5667   */\n      mstore\n        /* \"#utility.yul\":5684:5762   */\n      tag_223\n        /* \"#utility.yul\":5757:5761   */\n      dup2\n        /* \"#utility.yul\":5748:5754   */\n      dup6\n        /* \"#utility.yul\":5684:5762   */\n      tag_125\n      jump\t// in\n    tag_223:\n        /* \"#utility.yul\":5676:5762   */\n      swap1\n      pop\n        /* \"#utility.yul\":5772:5854   */\n      tag_224\n        /* \"#utility.yul\":5850:5852   */\n      0x40\n        /* \"#utility.yul\":5839:5848   */\n      dup4\n        /* \"#utility.yul\":5835:5853   */\n      add\n        /* \"#utility.yul\":5826:5832   */\n      dup5\n        /* \"#utility.yul\":5772:5854   */\n      tag_129\n      jump\t// in\n    tag_224:\n        /* \"#utility.yul\":5308:5861   */\n      swap5\n      swap4\n      pop\n      pop\n      pop\n      pop\n      jump\t// out\n        /* \"#utility.yul\":5867:5975   */\n    tag_130:\n        /* \"#utility.yul\":5944:5968   */\n      tag_226\n        /* \"#utility.yul\":5962:5967   */\n      dup2\n        /* \"#utility.yul\":5944:5968   */\n      tag_115\n      jump\t// in\n    tag_226:\n        /* \"#utility.yul\":5939:5942   */\n      dup3\n        /* \"#utility.yul\":5932:5969   */\n      mstore\n        /* \"#utility.yul\":5867:5975   */\n      pop\n      pop\n      jump\t// out\n        /* \"#utility.yul\":5981:6140   */\n    tag_131:\n        /* \"#utility.yul\":6055:6066   */\n      0x00\n        /* \"#utility.yul\":6089:6095   */\n      dup3\n        /* \"#utility.yul\":6084:6087   */\n      dup3\n        /* \"#utility.yul\":6077:6096   */\n      mstore\n        /* \"#utility.yul\":6129:6133   */\n      0x20\n        /* \"#utility.yul\":6124:6127   */\n      dup3\n        /* \"#utility.yul\":6120:6134   */\n      add\n        /* \"#utility.yul\":6105:6134   */\n      swap1\n      pop\n        /* \"#utility.yul\":5981:6140   */\n      swap3\n      swap2\n      pop\n      pop\n      jump\t// out\n        /* \"#utility.yul\":6146:6503   */\n    tag_132:\n        /* \"#utility.yul\":6224:6227   */\n      0x00\n        /* \"#utility.yul\":6252:6291   */\n      tag_229\n        /* \"#utility.yul\":6285:6290   */\n      dup3\n        /* \"#utility.yul\":6252:6291   */\n      tag_121\n      jump\t// in\n    tag_229:\n        /* \"#utility.yul\":6307:6368   */\n      tag_230\n        /* \"#utility.yul\":6361:6367   */\n      dup2\n        /* \"#utility.yul\":6356:6359   */\n      dup6\n        /* \"#utility.yul\":6307:6368   */\n      tag_131\n      jump\t// in\n    tag_230:\n        /* \"#utility.yul\":6300:6368   */\n      swap4\n      pop\n        /* \"#utility.yul\":6377:6442   */\n      tag_231\n        /* \"#utility.yul\":6435:6441   */\n      dup2\n        /* \"#utility.yul\":6430:6433   */\n      dup6\n        /* \"#utility.yul\":6423:6427   */\n      0x20\n        /* \"#utility.yul\":6416:6421   */\n      dup7\n        /* \"#utility.yul\":6412:6428   */\n      add\n        /* \"#utility.yul\":6377:6442   */\n      tag_123\n      jump\t// in\n    tag_231:\n        /* \"#utility.yul\":6467:6496   */\n      tag_232\n        /* \"#utility.yul\":6489:6495   */\n      dup2\n        /* \"#utility.yul\":6467:6496   */\n      tag_124\n      jump\t// in\n    tag_232:\n        /* \"#utility.yul\":6462:6465   */\n      dup5\n        /* \"#utility.yul\":6458:6497   */\n      add\n        /* \"#utility.yul\":6451:6497   */\n      swap2\n      pop\n        /* \"#utility.yul\":6228:6503   */\n      pop\n        /* \"#utility.yul\":6146:6503   */\n      swap3\n      swap2\n      pop\n      pop\n      jump\t// out\n        /* \"#utility.yul\":6509:6650   */\n    tag_133:\n        /* \"#utility.yul\":6596:6643   */\n      tag_234\n        /* \"#utility.yul\":6637:6642   */\n      dup2\n        /* \"#utility.yul\":6596:6643   */\n      tag_128\n      jump\t// in\n    tag_234:\n        /* \"#utility.yul\":6591:6594   */\n      dup3\n        /* \"#utility.yul\":6584:6644   */\n      mstore\n        /* \"#utility.yul\":6509:6650   */\n      pop\n      pop\n      jump\t// out\n        /* \"#utility.yul\":6716:7497   */\n    tag_134:\n        /* \"#utility.yul\":6825:6828   */\n      0x00\n        /* \"#utility.yul\":6861:6865   */\n      0x60\n        /* \"#utility.yul\":6856:6859   */\n      dup4\n        /* \"#utility.yul\":6852:6866   */\n      add\n        /* \"#utility.yul\":6946:6950   */\n      0x00\n        /* \"#utility.yul\":6939:6944   */\n      dup4\n        /* \"#utility.yul\":6935:6951   */\n      add\n        /* \"#utility.yul\":6929:6952   */\n      mload\n        /* \"#utility.yul\":6965:7028   */\n      tag_236\n        /* \"#utility.yul\":7022:7026   */\n      0x00\n        /* \"#utility.yul\":7017:7020   */\n      dup7\n        /* \"#utility.yul\":7013:7027   */\n      add\n        /* \"#utility.yul\":6999:7011   */\n      dup3\n        /* \"#utility.yul\":6965:7028   */\n      tag_130\n      jump\t// in\n    tag_236:\n        /* \"#utility.yul\":6876:7038   */\n      pop\n        /* \"#utility.yul\":7121:7125   */\n      0x20\n        /* \"#utility.yul\":7114:7119   */\n      dup4\n        /* \"#utility.yul\":7110:7126   */\n      add\n        /* \"#utility.yul\":7104:7127   */\n      mload\n        /* \"#utility.yul\":7174:7177   */\n      dup5\n        /* \"#utility.yul\":7168:7172   */\n      dup3\n        /* \"#utility.yul\":7164:7178   */\n      sub\n        /* \"#utility.yul\":7157:7161   */\n      0x20\n        /* \"#utility.yul\":7152:7155   */\n      dup7\n        /* \"#utility.yul\":7148:7162   */\n      add\n        /* \"#utility.yul\":7141:7179   */\n      mstore\n        /* \"#utility.yul\":7200:7273   */\n      tag_237\n        /* \"#utility.yul\":7268:7272   */\n      dup3\n        /* \"#utility.yul\":7254:7266   */\n      dup3\n        /* \"#utility.yul\":7200:7273   */\n      tag_132\n      jump\t// in\n    tag_237:\n        /* \"#utility.yul\":7192:7273   */\n      swap2\n      pop\n        /* \"#utility.yul\":7048:7284   */\n      pop\n        /* \"#utility.yul\":7368:7372   */\n      0x40\n        /* \"#utility.yul\":7361:7366   */\n      dup4\n        /* \"#utility.yul\":7357:7373   */\n      add\n        /* \"#utility.yul\":7351:7374   */\n      mload\n        /* \"#utility.yul\":7387:7460   */\n      tag_238\n        /* \"#utility.yul\":7454:7458   */\n      0x40\n        /* \"#utility.yul\":7449:7452   */\n      dup7\n        /* \"#utility.yul\":7445:7459   */\n      add\n        /* \"#utility.yul\":7431:7443   */\n      dup3\n        /* \"#utility.yul\":7387:7460   */\n      tag_133\n      jump\t// in\n    tag_238:\n        /* \"#utility.yul\":7294:7470   */\n      pop\n        /* \"#utility.yul\":7487:7491   */\n      dup1\n        /* \"#utility.yul\":7480:7491   */\n      swap2\n      pop\n        /* \"#utility.yul\":6830:7497   */\n      pop\n        /* \"#utility.yul\":6716:7497   */\n      swap3\n      swap2\n      pop\n      pop\n      jump\t// out\n        /* \"#utility.yul\":7503:7856   */\n    tag_29:\n        /* \"#utility.yul\":7636:7640   */\n      0x00\n        /* \"#utility.yul\":7674:7676   */\n      0x20\n        /* \"#utility.yul\":7663:7672   */\n      dup3\n        /* \"#utility.yul\":7659:7677   */\n      add\n        /* \"#utility.yul\":7651:7677   */\n      swap1\n      pop\n        /* \"#utility.yul\":7723:7732   */\n      dup2\n        /* \"#utility.yul\":7717:7721   */\n      dup2\n        /* \"#utility.yul\":7713:7733   */\n      sub\n        /* \"#utility.yul\":7709:7710   */\n      0x00\n        /* \"#utility.yul\":7698:7707   */\n      dup4\n        /* \"#utility.yul\":7694:7711   */\n      add\n        /* \"#utility.yul\":7687:7734   */\n      mstore\n        /* \"#utility.yul\":7751:7849   */\n      tag_240\n        /* \"#utility.yul\":7844:7848   */\n      dup2\n        /* \"#utility.yul\":7835:7841   */\n      dup5\n        /* \"#utility.yul\":7751:7849   */\n      tag_134\n      jump\t// in\n    tag_240:\n        /* \"#utility.yul\":7743:7849   */\n      swap1\n      pop\n        /* \"#utility.yul\":7503:7856   */\n      swap3\n      swap2\n      pop\n      pop\n      jump\t// out\n        /* \"#utility.yul\":7862:8019   */\n    tag_135:\n        /* \"#utility.yul\":8002:8011   */\n      0x4d65207061736500000000000000000000000000000000000000000000000000\n        /* \"#utility.yul\":7998:7999   */\n      0x00\n        /* \"#utility.yul\":7990:7996   */\n      dup3\n        /* \"#utility.yul\":7986:8000   */\n      add\n        /* \"#utility.yul\":7979:8012   */\n      mstore\n        /* \"#utility.yul\":7862:8019   */\n      pop\n      jump\t// out\n        /* \"#utility.yul\":8025:8390   */\n    tag_136:\n        /* \"#utility.yul\":8167:8170   */\n      0x00\n        /* \"#utility.yul\":8188:8254   */\n      tag_243\n        /* \"#utility.yul\":8252:8253   */\n      0x07\n        /* \"#utility.yul\":8247:8250   */\n      dup4\n        /* \"#utility.yul\":8188:8254   */\n      tag_122\n      jump\t// in\n    tag_243:\n        /* \"#utility.yul\":8181:8254   */\n      swap2\n      pop\n        /* \"#utility.yul\":8263:8356   */\n      tag_244\n        /* \"#utility.yul\":8352:8355   */\n      dup3\n        /* \"#utility.yul\":8263:8356   */\n      tag_135\n      jump\t// in\n    tag_244:\n        /* \"#utility.yul\":8381:8383   */\n      0x20\n        /* \"#utility.yul\":8376:8379   */\n      dup3\n        /* \"#utility.yul\":8372:8384   */\n      add\n        /* \"#utility.yul\":8365:8384   */\n      swap1\n      pop\n        /* \"#utility.yul\":8025:8390   */\n      swap2\n      swap1\n      pop\n      jump\t// out\n        /* \"#utility.yul\":8396:8815   */\n    tag_33:\n        /* \"#utility.yul\":8562:8566   */\n      0x00\n        /* \"#utility.yul\":8600:8602   */\n      0x20\n        /* \"#utility.yul\":8589:8598   */\n      dup3\n        /* \"#utility.yul\":8585:8603   */\n      add\n        /* \"#utility.yul\":8577:8603   */\n      swap1\n      pop\n        /* \"#utility.yul\":8649:8658   */\n      dup2\n        /* \"#utility.yul\":8643:8647   */\n      dup2\n        /* \"#utility.yul\":8639:8659   */\n      sub\n        /* \"#utility.yul\":8635:8636   */\n      0x00\n        /* \"#utility.yul\":8624:8633   */\n      dup4\n        /* \"#utility.yul\":8620:8637   */\n      add\n        /* \"#utility.yul\":8613:8660   */\n      mstore\n        /* \"#utility.yul\":8677:8808   */\n      tag_246\n        /* \"#utility.yul\":8803:8807   */\n      dup2\n        /* \"#utility.yul\":8677:8808   */\n      tag_136\n      jump\t// in\n    tag_246:\n        /* \"#utility.yul\":8669:8808   */\n      swap1\n      pop\n        /* \"#utility.yul\":8396:8815   */\n      swap2\n      swap1\n      pop\n      jump\t// out\n        /* \"#utility.yul\":8821:9001   */\n    tag_137:\n        /* \"#utility.yul\":8869:8946   */\n      0x4e487b7100000000000000000000000000000000000000000000000000000000\n        /* \"#utility.yul\":8866:8867   */\n      0x00\n        /* \"#utility.yul\":8859:8947   */\n      mstore\n        /* \"#utility.yul\":8966:8970   */\n      0x41\n        /* \"#utility.yul\":8963:8964   */\n      0x04\n        /* \"#utility.yul\":8956:8971   */\n      mstore\n        /* \"#utility.yul\":8990:8994   */\n      0x24\n        /* \"#utility.yul\":8987:8988   */\n      0x00\n        /* \"#utility.yul\":8980:8995   */\n      revert\n        /* \"#utility.yul\":9007:9187   */\n    tag_138:\n        /* \"#utility.yul\":9055:9132   */\n      0x4e487b7100000000000000000000000000000000000000000000000000000000\n        /* \"#utility.yul\":9052:9053   */\n      0x00\n        /* \"#utility.yul\":9045:9133   */\n      mstore\n        /* \"#utility.yul\":9152:9156   */\n      0x22\n        /* \"#utility.yul\":9149:9150   */\n      0x04\n        /* \"#utility.yul\":9142:9157   */\n      mstore\n        /* \"#utility.yul\":9176:9180   */\n      0x24\n        /* \"#utility.yul\":9173:9174   */\n      0x00\n        /* \"#utility.yul\":9166:9181   */\n      revert\n        /* \"#utility.yul\":9193:9513   */\n    tag_61:\n        /* \"#utility.yul\":9237:9243   */\n      0x00\n        /* \"#utility.yul\":9274:9275   */\n      0x02\n        /* \"#utility.yul\":9268:9272   */\n      dup3\n        /* \"#utility.yul\":9264:9276   */\n      div\n        /* \"#utility.yul\":9254:9276   */\n      swap1\n      pop\n        /* \"#utility.yul\":9321:9322   */\n      0x01\n        /* \"#utility.yul\":9315:9319   */\n      dup3\n        /* \"#utility.yul\":9311:9323   */\n      and\n        /* \"#utility.yul\":9342:9360   */\n      dup1\n        /* \"#utility.yul\":9332:9413   */\n      tag_250\n      jumpi\n        /* \"#utility.yul\":9398:9402   */\n      0x7f\n        /* \"#utility.yul\":9390:9396   */\n      dup3\n        /* \"#utility.yul\":9386:9403   */\n      and\n        /* \"#utility.yul\":9376:9403   */\n      swap2\n      pop\n        /* \"#utility.yul\":9332:9413   */\n    tag_250:\n        /* \"#utility.yul\":9460:9462   */\n      0x20\n        /* \"#utility.yul\":9452:9458   */\n      dup3\n        /* \"#utility.yul\":9449:9463   */\n      lt\n        /* \"#utility.yul\":9429:9447   */\n      dup2\n        /* \"#utility.yul\":9426:9464   */\n      sub\n        /* \"#utility.yul\":9423:9507   */\n      tag_251\n      jumpi\n        /* \"#utility.yul\":9479:9497   */\n      tag_252\n      tag_138\n      jump\t// in\n    tag_252:\n        /* \"#utility.yul\":9423:9507   */\n    tag_251:\n        /* \"#utility.yul\":9244:9513   */\n      pop\n        /* \"#utility.yul\":9193:9513   */\n      swap2\n      swap1\n      pop\n      jump\t// out\n        /* \"#utility.yul\":9519:9660   */\n    tag_139:\n        /* \"#utility.yul\":9568:9572   */\n      0x00\n        /* \"#utility.yul\":9591:9594   */\n      dup2\n        /* \"#utility.yul\":9583:9594   */\n      swap1\n      pop\n        /* \"#utility.yul\":9614:9617   */\n      dup2\n        /* \"#utility.yul\":9611:9612   */\n      0x00\n        /* \"#utility.yul\":9604:9618   */\n      mstore\n        /* \"#utility.yul\":9648:9652   */\n      0x20\n        /* \"#utility.yul\":9645:9646   */\n      0x00\n        /* \"#utility.yul\":9635:9653   */\n      keccak256\n        /* \"#utility.yul\":9627:9653   */\n      swap1\n      pop\n        /* \"#utility.yul\":9519:9660   */\n      swap2\n      swap1\n      pop\n      jump\t// out\n        /* \"#utility.yul\":9666:9759   */\n    tag_140:\n        /* \"#utility.yul\":9703:9709   */\n      0x00\n        /* \"#utility.yul\":9750:9752   */\n      0x20\n        /* \"#utility.yul\":9745:9747   */\n      0x1f\n        /* \"#utility.yul\":9738:9743   */\n      dup4\n        /* \"#utility.yul\":9734:9748   */\n      add\n        /* \"#utility.yul\":9730:9753   */\n      div\n        /* \"#utility.yul\":9720:9753   */\n      swap1\n      pop\n        /* \"#utility.yul\":9666:9759   */\n      swap2\n      swap1\n      pop\n      jump\t// out\n        /* \"#utility.yul\":9765:9872   */\n    tag_141:\n        /* \"#utility.yul\":9809:9817   */\n      0x00\n        /* \"#utility.yul\":9859:9864   */\n      dup3\n        /* \"#utility.yul\":9853:9857   */\n      dup3\n        /* \"#utility.yul\":9849:9865   */\n      shl\n        /* \"#utility.yul\":9828:9865   */\n      swap1\n      pop\n        /* \"#utility.yul\":9765:9872   */\n      swap3\n      swap2\n      pop\n      pop\n      jump\t// out\n        /* \"#utility.yul\":9878:10271   */\n    tag_142:\n        /* \"#utility.yul\":9947:9953   */\n      0x00\n        /* \"#utility.yul\":9997:9998   */\n      0x08\n        /* \"#utility.yul\":9985:9995   */\n      dup4\n        /* \"#utility.yul\":9981:9999   */\n      mul\n        /* \"#utility.yul\":10020:10117   */\n      tag_257\n        /* \"#utility.yul\":10050:10116   */\n      0xffffffffffffffffffffffffffffffffffffffffffffffffffffffffffffffff\n        /* \"#utility.yul\":10039:10048   */\n      dup3\n        /* \"#utility.yul\":10020:10117   */\n      tag_141\n      jump\t// in\n    tag_257:\n        /* \"#utility.yul\":10138:10177   */\n      tag_258\n        /* \"#utility.yul\":10168:10176   */\n      dup7\n        /* \"#utility.yul\":10157:10166   */\n      dup4\n        /* \"#utility.yul\":10138:10177   */\n      tag_141\n      jump\t// in\n    tag_258:\n        /* \"#utility.yul\":10126:10177   */\n      swap6\n      pop\n        /* \"#utility.yul\":10210:10214   */\n      dup1\n        /* \"#utility.yul\":10206:10215   */\n      not\n        /* \"#utility.yul\":10199:10204   */\n      dup5\n        /* \"#utility.yul\":10195:10216   */\n      and\n        /* \"#utility.yul\":10186:10216   */\n      swap4\n      pop\n        /* \"#utility.yul\":10259:10263   */\n      dup1\n        /* \"#utility.yul\":10249:10257   */\n      dup7\n        /* \"#utility.yul\":10245:10264   */\n      and\n        /* \"#utility.yul\":10238:10243   */\n      dup5\n        /* \"#utility.yul\":10235:10265   */\n      or\n        /* \"#utility.yul\":10225:10265   */\n      swap3\n      pop\n        /* \"#utility.yul\":9954:10271   */\n      pop\n      pop\n        /* \"#utility.yul\":9878:10271   */\n      swap4\n      swap3\n      pop\n      pop\n      pop\n      jump\t// out\n        /* \"#utility.yul\":10277:10337   */\n    tag_143:\n        /* \"#utility.yul\":10305:10308   */\n      0x00\n        /* \"#utility.yul\":10326:10331   */\n      dup2\n        /* \"#utility.yul\":10319:10331   */\n      swap1\n      pop\n        /* \"#utility.yul\":10277:10337   */\n      swap2\n      swap1\n      pop\n      jump\t// out\n        /* \"#utility.yul\":10343:10485   */\n    tag_144:\n        /* \"#utility.yul\":10393:10402   */\n      0x00\n        /* \"#utility.yul\":10426:10479   */\n      tag_261\n        /* \"#utility.yul\":10444:10478   */\n      tag_262\n        /* \"#utility.yul\":10453:10477   */\n      tag_263\n        /* \"#utility.yul\":10471:10476   */\n      dup5\n        /* \"#utility.yul\":10453:10477   */\n      tag_115\n      jump\t// in\n    tag_263:\n        /* \"#utility.yul\":10444:10478   */\n      tag_143\n      jump\t// in\n    tag_262:\n        /* \"#utility.yul\":10426:10479   */\n      tag_115\n      jump\t// in\n    tag_261:\n        /* \"#utility.yul\":10413:10479   */\n      swap1\n      pop\n        /* \"#utility.yul\":10343:10485   */\n      swap2\n      swap1\n      pop\n      jump\t// out\n        /* \"#utility.yul\":10491:10566   */\n    tag_145:\n        /* \"#utility.yul\":10534:10537   */\n      0x00\n        /* \"#utility.yul\":10555:10560   */\n      dup2\n        /* \"#utility.yul\":10548:10560   */\n      swap1\n      pop\n        /* \"#utility.yul\":10491:10566   */\n      swap2\n      swap1\n      pop\n      jump\t// out\n        /* \"#utility.yul\":10572:10841   */\n    tag_146:\n        /* \"#utility.yul\":10682:10721   */\n      tag_266\n        /* \"#utility.yul\":10713:10720   */\n      dup4\n        /* \"#utility.yul\":10682:10721   */\n      tag_144\n      jump\t// in\n    tag_266:\n        /* \"#utility.yul\":10743:10834   */\n      tag_267\n        /* \"#utility.yul\":10792:10833   */\n      tag_268\n        /* \"#utility.yul\":10816:10832   */\n      dup3\n        /* \"#utility.yul\":10792:10833   */\n      tag_145\n      jump\t// in\n    tag_268:\n        /* \"#utility.yul\":10784:10790   */\n      dup5\n        /* \"#utility.yul\":10777:10781   */\n      dup5\n        /* \"#utility.yul\":10771:10782   */\n      sload\n        /* \"#utility.yul\":10743:10834   */\n      tag_142\n      jump\t// in\n    tag_267:\n        /* \"#utility.yul\":10737:10741   */\n      dup3\n        /* \"#utility.yul\":10730:10835   */\n      sstore\n        /* \"#utility.yul\":10648:10841   */\n      pop\n        /* \"#utility.yul\":10572:10841   */\n      pop\n      pop\n      pop\n      jump\t// out\n        /* \"#utility.yul\":10847:10920   */\n    tag_147:\n        /* \"#utility.yul\":10892:10895   */\n      0x00\n        /* \"#utility.yul\":10847:10920   */\n      swap1\n      jump\t// out\n        /* \"#utility.yul\":10926:11115   */\n    tag_148:\n        /* \"#utility.yul\":11003:11035   */\n      tag_271\n      tag_147\n      jump\t// in\n    tag_271:\n        /* \"#utility.yul\":11044:11109   */\n      tag_272\n        /* \"#utility.yul\":11102:11108   */\n      dup2\n        /* \"#utility.yul\":11094:11100   */\n      dup5\n        /* \"#utility.yul\":11088:11092   */\n      dup5\n        /* \"#utility.yul\":11044:11109   */\n      tag_146\n      jump\t// in\n    tag_272:\n        /* \"#utility.yul\":10979:11115   */\n      pop\n        /* \"#utility.yul\":10926:11115   */\n      pop\n      pop\n      jump\t// out\n        /* \"#utility.yul\":11121:11307   */\n    tag_149:\n        /* \"#utility.yul\":11181:11301   */\n    tag_274:\n        /* \"#utility.yul\":11198:11201   */\n      dup2\n        /* \"#utility.yul\":11191:11196   */\n      dup2\n        /* \"#utility.yul\":11188:11202   */\n      lt\n        /* \"#utility.yul\":11181:11301   */\n      iszero\n      tag_276\n      jumpi\n        /* \"#utility.yul\":11252:11291   */\n      tag_277\n        /* \"#utility.yul\":11289:11290   */\n      0x00\n        /* \"#utility.yul\":11282:11287   */\n      dup3\n        /* \"#utility.yul\":11252:11291   */\n      tag_148\n      jump\t// in\n    tag_277:\n        /* \"#utility.yul\":11225:11226   */\n      0x01\n        /* \"#utility.yul\":11218:11223   */\n      dup2\n        /* \"#utility.yul\":11214:11227   */\n      add\n        /* \"#utility.yul\":11205:11227   */\n      swap1\n      pop\n        /* \"#utility.yul\":11181:11301   */\n      jump(tag_274)\n    tag_276:\n        /* \"#utility.yul\":11121:11307   */\n      pop\n      pop\n      jump\t// out\n        /* \"#utility.yul\":11313:11856   */\n    tag_150:\n        /* \"#utility.yul\":11414:11416   */\n      0x1f\n        /* \"#utility.yul\":11409:11412   */\n      dup3\n        /* \"#utility.yul\":11406:11417   */\n      gt\n        /* \"#utility.yul\":11403:11849   */\n      iszero\n      tag_279\n      jumpi\n        /* \"#utility.yul\":11448:11486   */\n      tag_280\n        /* \"#utility.yul\":11480:11485   */\n      dup2\n        /* \"#utility.yul\":11448:11486   */\n      tag_139\n      jump\t// in\n    tag_280:\n        /* \"#utility.yul\":11532:11561   */\n      tag_281\n        /* \"#utility.yul\":11550:11560   */\n      dup5\n        /* \"#utility.yul\":11532:11561   */\n      tag_140\n      jump\t// in\n    tag_281:\n        /* \"#utility.yul\":11522:11530   */\n      dup2\n        /* \"#utility.yul\":11518:11562   */\n      add\n        /* \"#utility.yul\":11715:11717   */\n      0x20\n        /* \"#utility.yul\":11703:11713   */\n      dup6\n        /* \"#utility.yul\":11700:11718   */\n      lt\n        /* \"#utility.yul\":11697:11746   */\n      iszero\n      tag_282\n      jumpi\n        /* \"#utility.yul\":11736:11744   */\n      dup2\n        /* \"#utility.yul\":11721:11744   */\n      swap1\n      pop\n        /* \"#utility.yul\":11697:11746   */\n    tag_282:\n        /* \"#utility.yul\":11759:11839   */\n      tag_283\n        /* \"#utility.yul\":11815:11837   */\n      tag_284\n        /* \"#utility.yul\":11833:11836   */\n      dup6\n        /* \"#utility.yul\":11815:11837   */\n      tag_140\n      jump\t// in\n    tag_284:\n        /* \"#utility.yul\":11805:11813   */\n      dup4\n        /* \"#utility.yul\":11801:11838   */\n      add\n        /* \"#utility.yul\":11788:11799   */\n      dup3\n        /* \"#utility.yul\":11759:11839   */\n      tag_149\n      jump\t// in\n    tag_283:\n        /* \"#utility.yul\":11418:11849   */\n      pop\n      pop\n        /* \"#utility.yul\":11403:11849   */\n    tag_279:\n        /* \"#utility.yul\":11313:11856   */\n      pop\n      pop\n      pop\n      jump\t// out\n        /* \"#utility.yul\":11862:11979   */\n    tag_151:\n        /* \"#utility.yul\":11916:11924   */\n      0x00\n        /* \"#utility.yul\":11966:11971   */\n      dup3\n        /* \"#utility.yul\":11960:11964   */\n      dup3\n        /* \"#utility.yul\":11956:11972   */\n      shr\n        /* \"#utility.yul\":11935:11972   */\n      swap1\n      pop\n        /* \"#utility.yul\":11862:11979   */\n      swap3\n      swap2\n      pop\n      pop\n      jump\t// out\n        /* \"#utility.yul\":11985:12154   */\n    tag_152:\n        /* \"#utility.yul\":12029:12035   */\n      0x00\n        /* \"#utility.yul\":12062:12113   */\n      tag_287\n        /* \"#utility.yul\":12110:12111   */\n      0x00\n        /* \"#utility.yul\":12106:12112   */\n      not\n        /* \"#utility.yul\":12098:12103   */\n      dup5\n        /* \"#utility.yul\":12095:12096   */\n      0x08\n        /* \"#utility.yul\":12091:12104   */\n      mul\n        /* \"#utility.yul\":12062:12113   */\n      tag_151\n      jump\t// in\n    tag_287:\n        /* \"#utility.yul\":12058:12114   */\n      not\n        /* \"#utility.yul\":12143:12147   */\n      dup1\n        /* \"#utility.yul\":12137:12141   */\n      dup4\n        /* \"#utility.yul\":12133:12148   */\n      and\n        /* \"#utility.yul\":12123:12148   */\n      swap2\n      pop\n        /* \"#utility.yul\":12036:12154   */\n      pop\n        /* \"#utility.yul\":11985:12154   */\n      swap3\n      swap2\n      pop\n      pop\n      jump\t// out\n        /* \"#utility.yul\":12159:12454   */\n    tag_153:\n        /* \"#utility.yul\":12235:12239   */\n      0x00\n        /* \"#utility.yul\":12381:12410   */\n      tag_289\n        /* \"#utility.yul\":12406:12409   */\n      dup4\n        /* \"#utility.yul\":12400:12404   */\n      dup4\n        /* \"#utility.yul\":12381:12410   */\n      tag_152\n      jump\t// in\n    tag_289:\n        /* \"#utility.yul\":12373:12410   */\n      swap2\n      pop\n        /* \"#utility.yul\":12443:12446   */\n      dup3\n        /* \"#utility.yul\":12440:12441   */\n      0x02\n        /* \"#utility.yul\":12436:12447   */\n      mul\n        /* \"#utility.yul\":12430:12434   */\n      dup3\n        /* \"#utility.yul\":12427:12448   */\n      or\n        /* \"#utility.yul\":12419:12448   */\n      swap1\n      pop\n        /* \"#utility.yul\":12159:12454   */\n      swap3\n      swap2\n      pop\n      pop\n      jump\t// out\n        /* \"#utility.yul\":12459:13854   */\n    tag_40:\n        /* \"#utility.yul\":12576:12613   */\n      tag_291\n        /* \"#utility.yul\":12609:12612   */\n      dup3\n        /* \"#utility.yul\":12576:12613   */\n      tag_121\n      jump\t// in\n    tag_291:\n        /* \"#utility.yul\":12678:12696   */\n      0xffffffffffffffff\n        /* \"#utility.yul\":12670:12676   */\n      dup2\n        /* \"#utility.yul\":12667:12697   */\n      gt\n        /* \"#utility.yul\":12664:12720   */\n      iszero\n      tag_292\n      jumpi\n        /* \"#utility.yul\":12700:12718   */\n      tag_293\n      tag_137\n      jump\t// in\n    tag_293:\n        /* \"#utility.yul\":12664:12720   */\n    tag_292:\n        /* \"#utility.yul\":12744:12782   */\n      tag_294\n        /* \"#utility.yul\":12776:12780   */\n      dup3\n        /* \"#utility.yul\":12770:12781   */\n      sload\n        /* \"#utility.yul\":12744:12782   */\n      tag_61\n      jump\t// in\n    tag_294:\n        /* \"#utility.yul\":12829:12896   */\n      tag_295\n        /* \"#utility.yul\":12889:12895   */\n      dup3\n        /* \"#utility.yul\":12881:12887   */\n      dup3\n        /* \"#utility.yul\":12875:12879   */\n      dup6\n        /* \"#utility.yul\":12829:12896   */\n      tag_150\n      jump\t// in\n    tag_295:\n        /* \"#utility.yul\":12923:12924   */\n      0x00\n        /* \"#utility.yul\":12947:12951   */\n      0x20\n        /* \"#utility.yul\":12934:12951   */\n      swap1\n      pop\n        /* \"#utility.yul\":12979:12981   */\n      0x1f\n        /* \"#utility.yul\":12971:12977   */\n      dup4\n        /* \"#utility.yul\":12968:12982   */\n      gt\n        /* \"#utility.yul\":12996:12997   */\n      0x01\n        /* \"#utility.yul\":12991:13609   */\n      dup2\n      eq\n      tag_297\n      jumpi\n        /* \"#utility.yul\":13653:13654   */\n      0x00\n        /* \"#utility.yul\":13670:13676   */\n      dup5\n        /* \"#utility.yul\":13667:13744   */\n      iszero\n      tag_298\n      jumpi\n        /* \"#utility.yul\":13719:13728   */\n      dup3\n        /* \"#utility.yul\":13714:13717   */\n      dup8\n        /* \"#utility.yul\":13710:13729   */\n      add\n        /* \"#utility.yul\":13704:13730   */\n      mload\n        /* \"#utility.yul\":13695:13730   */\n      swap1\n      pop\n        /* \"#utility.yul\":13667:13744   */\n    tag_298:\n        /* \"#utility.yul\":13770:13837   */\n      tag_299\n        /* \"#utility.yul\":13830:13836   */\n      dup6\n        /* \"#utility.yul\":13823:13828   */\n      dup3\n        /* \"#utility.yul\":13770:13837   */\n      tag_153\n      jump\t// in\n    tag_299:\n        /* \"#utility.yul\":13764:13768   */\n      dup7\n        /* \"#utility.yul\":13757:13838   */\n      sstore\n        /* \"#utility.yul\":13626:13848   */\n      pop\n        /* \"#utility.yul\":12961:13848   */\n      jump(tag_296)\n        /* \"#utility.yul\":12991:13609   */\n    tag_297:\n        /* \"#utility.yul\":13043:13047   */\n      0x1f\n        /* \"#utility.yul\":13039:13048   */\n      not\n        /* \"#utility.yul\":13031:13037   */\n      dup5\n        /* \"#utility.yul\":13027:13049   */\n      and\n        /* \"#utility.yul\":13077:13114   */\n      tag_300\n        /* \"#utility.yul\":13109:13113   */\n      dup7\n        /* \"#utility.yul\":13077:13114   */\n      tag_139\n      jump\t// in\n    tag_300:\n        /* \"#utility.yul\":13136:13137   */\n      0x00\n        /* \"#utility.yul\":13150:13358   */\n    tag_301:\n        /* \"#utility.yul\":13164:13171   */\n      dup3\n        /* \"#utility.yul\":13161:13162   */\n      dup2\n        /* \"#utility.yul\":13158:13172   */\n      lt\n        /* \"#utility.yul\":13150:13358   */\n      iszero\n      tag_303\n      jumpi\n        /* \"#utility.yul\":13243:13252   */\n      dup5\n        /* \"#utility.yul\":13238:13241   */\n      dup10\n        /* \"#utility.yul\":13234:13253   */\n      add\n        /* \"#utility.yul\":13228:13254   */\n      mload\n        /* \"#utility.yul\":13220:13226   */\n      dup3\n        /* \"#utility.yul\":13213:13255   */\n      sstore\n        /* \"#utility.yul\":13294:13295   */\n      0x01\n        /* \"#utility.yul\":13286:13292   */\n      dup3\n        /* \"#utility.yul\":13282:13296   */\n      add\n        /* \"#utility.yul\":13272:13296   */\n      swap2\n      pop\n        /* \"#utility.yul\":13341:13343   */\n      0x20\n        /* \"#utility.yul\":13330:13339   */\n      dup6\n        /* \"#utility.yul\":13326:13344   */\n      add\n        /* \"#utility.yul\":13313:13344   */\n      swap5\n      pop\n        /* \"#utility.yul\":13187:13191   */\n      0x20\n        /* \"#utility.yul\":13184:13185   */\n      dup2\n        /* \"#utility.yul\":13180:13192   */\n      add\n        /* \"#utility.yul\":13175:13192   */\n      swap1\n      pop\n        /* \"#utility.yul\":13150:13358   */\n      jump(tag_301)\n    tag_303:\n        /* \"#utility.yul\":13386:13392   */\n      dup7\n        /* \"#utility.yul\":13377:13384   */\n      dup4\n        /* \"#utility.yul\":13374:13393   */\n      lt\n        /* \"#utility.yul\":13371:13550   */\n      iszero\n      tag_304\n      jumpi\n        /* \"#utility.yul\":13444:13453   */\n      dup5\n        /* \"#utility.yul\":13439:13442   */\n      dup10\n        /* \"#utility.yul\":13435:13454   */\n      add\n        /* \"#utility.yul\":13429:13455   */\n      mload\n        /* \"#utility.yul\":13487:13535   */\n      tag_305\n        /* \"#utility.yul\":13529:13533   */\n      0x1f\n        /* \"#utility.yul\":13521:13527   */\n      dup10\n        /* \"#utility.yul\":13517:13534   */\n      and\n        /* \"#utility.yul\":13506:13515   */\n      dup3\n        /* \"#utility.yul\":13487:13535   */\n      tag_152\n      jump\t// in\n    tag_305:\n        /* \"#utility.yul\":13479:13485   */\n      dup4\n        /* \"#utility.yul\":13472:13536   */\n      sstore\n        /* \"#utility.yul\":13394:13550   */\n      pop\n        /* \"#utility.yul\":13371:13550   */\n    tag_304:\n        /* \"#utility.yul\":13596:13597   */\n      0x01\n        /* \"#utility.yul\":13592:13593   */\n      0x02\n        /* \"#utility.yul\":13584:13590   */\n      dup9\n        /* \"#utility.yul\":13580:13594   */\n      mul\n        /* \"#utility.yul\":13576:13598   */\n      add\n        /* \"#utility.yul\":13570:13574   */\n      dup9\n        /* \"#utility.yul\":13563:13599   */\n      sstore\n        /* \"#utility.yul\":12998:13609   */\n      pop\n      pop\n      pop\n        /* \"#utility.yul\":12961:13848   */\n    tag_296:\n      pop\n        /* \"#utility.yul\":12551:13854   */\n      pop\n      pop\n      pop\n        /* \"#utility.yul\":12459:13854   */\n      pop\n      pop\n      jump\t// out\n        /* \"#utility.yul\":13860:14008   */\n    tag_154:\n        /* \"#utility.yul\":13958:13964   */\n      dup3\n        /* \"#utility.yul\":13953:13956   */\n      dup2\n        /* \"#utility.yul\":13948:13951   */\n      dup4\n        /* \"#utility.yul\":13935:13965   */\n      calldatacopy\n        /* \"#utility.yul\":13999:14000   */\n      0x00\n        /* \"#utility.yul\":13990:13996   */\n      dup4\n        /* \"#utility.yul\":13985:13988   */\n      dup4\n        /* \"#utility.yul\":13981:13997   */\n      add\n        /* \"#utility.yul\":13974:14001   */\n      mstore\n        /* \"#utility.yul\":13860:14008   */\n      pop\n      pop\n      pop\n      jump\t// out\n        /* \"#utility.yul\":14038:14355   */\n    tag_155:\n        /* \"#utility.yul\":14136:14139   */\n      0x00\n        /* \"#utility.yul\":14157:14228   */\n      tag_308\n        /* \"#utility.yul\":14221:14227   */\n      dup4\n        /* \"#utility.yul\":14216:14219   */\n      dup6\n        /* \"#utility.yul\":14157:14228   */\n      tag_122\n      jump\t// in\n    tag_308:\n        /* \"#utility.yul\":14150:14228   */\n      swap4\n      pop\n        /* \"#utility.yul\":14238:14294   */\n      tag_309\n        /* \"#utility.yul\":14287:14293   */\n      dup4\n        /* \"#utility.yul\":14282:14285   */\n      dup6\n        /* \"#utility.yul\":14275:14280   */\n      dup5\n        /* \"#utility.yul\":14238:14294   */\n      tag_154\n      jump\t// in\n    tag_309:\n        /* \"#utility.yul\":14319:14348   */\n      tag_310\n        /* \"#utility.yul\":14341:14347   */\n      dup4\n        /* \"#utility.yul\":14319:14348   */\n      tag_124\n      jump\t// in\n    tag_310:\n        /* \"#utility.yul\":14314:14317   */\n      dup5\n        /* \"#utility.yul\":14310:14349   */\n      add\n        /* \"#utility.yul\":14303:14349   */\n      swap1\n      pop\n        /* \"#utility.yul\":14038:14355   */\n      swap4\n      swap3\n      pop\n      pop\n      pop\n      jump\t// out\n        /* \"#utility.yul\":14361:14694   */\n    tag_44:\n        /* \"#utility.yul\":14484:14488   */\n      0x00\n        /* \"#utility.yul\":14522:14524   */\n      0x20\n        /* \"#utility.yul\":14511:14520   */\n      dup3\n        /* \"#utility.yul\":14507:14525   */\n      add\n        /* \"#utility.yul\":14499:14525   */\n      swap1\n      pop\n        /* \"#utility.yul\":14571:14580   */\n      dup2\n        /* \"#utility.yul\":14565:14569   */\n      dup2\n        /* \"#utility.yul\":14561:14581   */\n      sub\n        /* \"#utility.yul\":14557:14558   */\n      0x00\n        /* \"#utility.yul\":14546:14555   */\n      dup4\n        /* \"#utility.yul\":14542:14559   */\n      add\n        /* \"#utility.yul\":14535:14582   */\n      mstore\n        /* \"#utility.yul\":14599:14687   */\n      tag_312\n        /* \"#utility.yul\":14682:14686   */\n      dup2\n        /* \"#utility.yul\":14673:14679   */\n      dup5\n        /* \"#utility.yul\":14665:14671   */\n      dup7\n        /* \"#utility.yul\":14599:14687   */\n      tag_155\n      jump\t// in\n    tag_312:\n        /* \"#utility.yul\":14591:14687   */\n      swap1\n      pop\n        /* \"#utility.yul\":14361:14694   */\n      swap4\n      swap3\n      pop\n      pop\n      pop\n      jump\t// out\n        /* \"#utility.yul\":14700:14880   */\n    tag_156:\n        /* \"#utility.yul\":14748:14825   */\n      0x4e487b7100000000000000000000000000000000000000000000000000000000\n        /* \"#utility.yul\":14745:14746   */\n      0x00\n        /* \"#utility.yul\":14738:14826   */\n      mstore\n        /* \"#utility.yul\":14845:14849   */\n      0x11\n        /* \"#utility.yul\":14842:14843   */\n      0x04\n        /* \"#utility.yul\":14835:14850   */\n      mstore\n        /* \"#utility.yul\":14869:14873   */\n      0x24\n        /* \"#utility.yul\":14866:14867   */\n      0x00\n        /* \"#utility.yul\":14859:14874   */\n      revert\n        /* \"#utility.yul\":14886:15119   */\n    tag_46:\n        /* \"#utility.yul\":14925:14928   */\n      0x00\n        /* \"#utility.yul\":14948:14972   */\n      tag_315\n        /* \"#utility.yul\":14966:14971   */\n      dup3\n        /* \"#utility.yul\":14948:14972   */\n      tag_115\n      jump\t// in\n    tag_315:\n        /* \"#utility.yul\":14939:14972   */\n      swap2\n      pop\n        /* \"#utility.yul\":14994:15060   */\n      0xffffffffffffffffffffffffffffffffffffffffffffffffffffffffffffffff\n        /* \"#utility.yul\":14987:14992   */\n      dup3\n        /* \"#utility.yul\":14984:15061   */\n      sub\n        /* \"#utility.yul\":14981:15084   */\n      tag_316\n      jumpi\n        /* \"#utility.yul\":15064:15082   */\n      tag_317\n      tag_156\n      jump\t// in\n    tag_317:\n        /* \"#utility.yul\":14981:15084   */\n    tag_316:\n        /* \"#utility.yul\":15111:15112   */\n      0x01\n        /* \"#utility.yul\":15104:15109   */\n      dup3\n        /* \"#utility.yul\":15100:15113   */\n      add\n        /* \"#utility.yul\":15093:15113   */\n      swap1\n      pop\n        /* \"#utility.yul\":14886:15119   */\n      swap2\n      swap1\n      pop\n      jump\t// out\n        /* \"#utility.yul\":15125:15284   */\n    tag_157:\n        /* \"#utility.yul\":15265:15276   */\n      0x6e6f742065786973740000000000000000000000000000000000000000000000\n        /* \"#utility.yul\":15261:15262   */\n      0x00\n        /* \"#utility.yul\":15253:15259   */\n      dup3\n        /* \"#utility.yul\":15249:15263   */\n      add\n        /* \"#utility.yul\":15242:15277   */\n      mstore\n        /* \"#utility.yul\":15125:15284   */\n      pop\n      jump\t// out\n        /* \"#utility.yul\":15290:15655   */\n    tag_158:\n        /* \"#utility.yul\":15432:15435   */\n      0x00\n        /* \"#utility.yul\":15453:15519   */\n      tag_320\n        /* \"#utility.yul\":15517:15518   */\n      0x09\n        /* \"#utility.yul\":15512:15515   */\n      dup4\n        /* \"#utility.yul\":15453:15519   */\n      tag_122\n      jump\t// in\n    tag_320:\n        /* \"#utility.yul\":15446:15519   */\n      swap2\n      pop\n        /* \"#utility.yul\":15528:15621   */\n      tag_321\n        /* \"#utility.yul\":15617:15620   */\n      dup3\n        /* \"#utility.yul\":15528:15621   */\n      tag_157\n      jump\t// in\n    tag_321:\n        /* \"#utility.yul\":15646:15648   */\n      0x20\n        /* \"#utility.yul\":15641:15644   */\n      dup3\n        /* \"#utility.yul\":15637:15649   */\n      add\n        /* \"#utility.yul\":15630:15649   */\n      swap1\n      pop\n        /* \"#utility.yul\":15290:15655   */\n      swap2\n      swap1\n      pop\n      jump\t// out\n        /* \"#utility.yul\":15661:16080   */\n    tag_50:\n        /* \"#utility.yul\":15827:15831   */\n      0x00\n        /* \"#utility.yul\":15865:15867   */\n      0x20\n        /* \"#utility.yul\":15854:15863   */\n      dup3\n        /* \"#utility.yul\":15850:15868   */\n      add\n        /* \"#utility.yul\":15842:15868   */\n      swap1\n      pop\n        /* \"#utility.yul\":15914:15923   */\n      dup2\n        /* \"#utility.yul\":15908:15912   */\n      dup2\n        /* \"#utility.yul\":15904:15924   */\n      sub\n        /* \"#utility.yul\":15900:15901   */\n      0x00\n        /* \"#utility.yul\":15889:15898   */\n      dup4\n        /* \"#utility.yul\":15885:15902   */\n      add\n        /* \"#utility.yul\":15878:15925   */\n      mstore\n        /* \"#utility.yul\":15942:16073   */\n      tag_323\n        /* \"#utility.yul\":16068:16072   */\n      dup2\n        /* \"#utility.yul\":15942:16073   */\n      tag_158\n      jump\t// in\n    tag_323:\n        /* \"#utility.yul\":15934:16073   */\n      swap1\n      pop\n        /* \"#utility.yul\":15661:16080   */\n      swap2\n      swap1\n      pop\n      jump\t// out\n        /* \"#utility.yul\":16086:16266   */\n    tag_54:\n        /* \"#utility.yul\":16134:16211   */\n      0x4e487b7100000000000000000000000000000000000000000000000000000000\n        /* \"#utility.yul\":16131:16132   */\n      0x00\n        /* \"#utility.yul\":16124:16212   */\n      mstore\n        /* \"#utility.yul\":16231:16235   */\n      0x32\n        /* \"#utility.yul\":16228:16229   */\n      0x04\n        /* \"#utility.yul\":16221:16236   */\n      mstore\n        /* \"#utility.yul\":16255:16259   */\n      0x24\n        /* \"#utility.yul\":16252:16253   */\n      0x00\n        /* \"#utility.yul\":16245:16260   */\n      revert\n        /* \"#utility.yul\":16272:16466   */\n    tag_93:\n        /* \"#utility.yul\":16312:16316   */\n      0x00\n        /* \"#utility.yul\":16332:16352   */\n      tag_326\n        /* \"#utility.yul\":16350:16351   */\n      dup3\n        /* \"#utility.yul\":16332:16352   */\n      tag_115\n      jump\t// in\n    tag_326:\n        /* \"#utility.yul\":16327:16352   */\n      swap2\n      pop\n        /* \"#utility.yul\":16366:16386   */\n      tag_327\n        /* \"#utility.yul\":16384:16385   */\n      dup4\n        /* \"#utility.yul\":16366:16386   */\n      tag_115\n      jump\t// in\n    tag_327:\n        /* \"#utility.yul\":16361:16386   */\n      swap3\n      pop\n        /* \"#utility.yul\":16410:16411   */\n      dup3\n        /* \"#utility.yul\":16407:16408   */\n      dup3\n        /* \"#utility.yul\":16403:16412   */\n      sub\n        /* \"#utility.yul\":16395:16412   */\n      swap1\n      pop\n        /* \"#utility.yul\":16434:16435   */\n      dup2\n        /* \"#utility.yul\":16428:16432   */\n      dup2\n        /* \"#utility.yul\":16425:16436   */\n      gt\n        /* \"#utility.yul\":16422:16459   */\n      iszero\n      tag_328\n      jumpi\n        /* \"#utility.yul\":16439:16457   */\n      tag_329\n      tag_156\n      jump\t// in\n    tag_329:\n        /* \"#utility.yul\":16422:16459   */\n    tag_328:\n        /* \"#utility.yul\":16272:16466   */\n      swap3\n      swap2\n      pop\n      pop\n      jump\t// out\n\n    auxdata: 0xa264697066735822122002b2fb280d7e590c2ade06a3d77ad8e8a2c69fd20a28fb1ab4ef7a6248c6c93e64736f6c634300081a0033\n}\n",
				"bytecode": {
					"linkReferences": {},
					"object": "60806040525f60025f6101000a81548160ff0219169083151502179055503480156027575f80fd5b50610f64806100355f395ff3fe608060405234801561000f575f80fd5b5060043610610055575f3560e01c8063111002aa146100595780633a1b3d311461007557806358671730146100915780638d977672146100af578063cf1cc10d146100e1575b5f80fd5b610073600480360381019061006e9190610714565b6100ff565b005b61008f600480360381019061008a91906107b5565b610284565b005b610099610317565b6040516100a69190610802565b60405180910390f35b6100c960048036038101906100c4919061081b565b61031d565b6040516100d893929190610929565b60405180910390f35b6100e96103e3565b6040516100f69190610a18565b60405180910390f35b600a60015410610144576040517f08c379a000000000000000000000000000000000000000000000000000000000815260040161013b90610a82565b60405180910390fd5b5f60015490505f604051806060016040528083815260200185858080601f0160208091040260200160405190810160405280939291908181526020018383808284375f81840152601f19601f8201169050808301925050505050505081526020015f60028111156101b8576101b76108b6565b5b815250908060018154018082558091505060019003905f5260205f2090600302015f909190919091505f820151815f015560208201518160010190816101fe9190610cc7565b506040820151816002015f6101000a81548160ff02191690836002811115610229576102286108b6565b5b02179055505050807fdc8a9d0709c6ad2a14185c02b1ef388b73a1024f451590c5de574f514bb56db08484604051610262929190610dd0565b60405180910390a2808061027590610e1f565b91505080600181905550505050565b8160015481106102c9576040517f08c379a00000000000000000000000000000000000000000000000000000000081526004016102c090610eb0565b60405180910390fd5b815f84815481106102dd576102dc610ece565b5b905f5260205f2090600302016002015f6101000a81548160ff0219169083600281111561030d5761030c6108b6565b5b0217905550505050565b60015481565b5f818154811061032b575f80fd5b905f5260205f2090600302015f91509050805f01549080600101805461035090610afa565b80601f016020809104026020016040519081016040528092919081815260200182805461037c90610afa565b80156103c75780601f1061039e576101008083540402835291602001916103c7565b820191905f5260205f20905b8154815290600101906020018083116103aa57829003601f168201915b505050505090806002015f9054906101000a900460ff16905083565b6103eb61067a565b5f808054905090505f5b81811015610569575f60028111156104105761040f6108b6565b5b5f828154811061042357610422610ece565b5b905f5260205f2090600302016002015f9054906101000a900460ff166002811115610451576104506108b6565b5b0361055c575f818154811061046957610468610ece565b5b905f5260205f2090600302016040518060600160405290815f820154815260200160018201805461049990610afa565b80601f01602080910402602001604051908101604052809291908181526020018280546104c590610afa565b80156105105780601f106104e757610100808354040283529160200191610510565b820191905f5260205f20905b8154815290600101906020018083116104f357829003601f168201915b50505050508152602001600282015f9054906101000a900460ff16600281111561053d5761053c6108b6565b5b600281111561054f5761054e6108b6565b5b8152505092505050610677565b80806001019150506103f5565b505f6001826105789190610efb565b8154811061058957610588610ece565b5b905f5260205f2090600302016040518060600160405290815f82015481526020016001820180546105b990610afa565b80601f01602080910402602001604051908101604052809291908181526020018280546105e590610afa565b80156106305780601f1061060757610100808354040283529160200191610630565b820191905f5260205f20905b81548152906001019060200180831161061357829003601f168201915b50505050508152602001600282015f9054906101000a900460ff16600281111561065d5761065c6108b6565b5b600281111561066f5761066e6108b6565b5b815250509150505b90565b60405180606001604052805f8152602001606081526020015f60028111156106a5576106a46108b6565b5b81525090565b5f80fd5b5f80fd5b5f80fd5b5f80fd5b5f80fd5b5f8083601f8401126106d4576106d36106b3565b5b8235905067ffffffffffffffff8111156106f1576106f06106b7565b5b60208301915083600182028301111561070d5761070c6106bb565b5b9250929050565b5f806020838503121561072a576107296106ab565b5b5f83013567ffffffffffffffff811115610747576107466106af565b5b610753858286016106bf565b92509250509250929050565b5f819050919050565b6107718161075f565b811461077b575f80fd5b50565b5f8135905061078c81610768565b92915050565b6003811061079e575f80fd5b50565b5f813590506107af81610792565b92915050565b5f80604083850312156107cb576107ca6106ab565b5b5f6107d88582860161077e565b92505060206107e9858286016107a1565b9150509250929050565b6107fc8161075f565b82525050565b5f6020820190506108155f8301846107f3565b92915050565b5f602082840312156108305761082f6106ab565b5b5f61083d8482850161077e565b91505092915050565b5f81519050919050565b5f82825260208201905092915050565b8281835e5f83830152505050565b5f601f19601f8301169050919050565b5f61088882610846565b6108928185610850565b93506108a2818560208601610860565b6108ab8161086e565b840191505092915050565b7f4e487b71000000000000000000000000000000000000000000000000000000005f52602160045260245ffd5b600381106108f4576108f36108b6565b5b50565b5f819050610904826108e3565b919050565b5f610913826108f7565b9050919050565b61092381610909565b82525050565b5f60608201905061093c5f8301866107f3565b818103602083015261094e818561087e565b905061095d604083018461091a565b949350505050565b61096e8161075f565b82525050565b5f82825260208201905092915050565b5f61098e82610846565b6109988185610974565b93506109a8818560208601610860565b6109b18161086e565b840191505092915050565b6109c581610909565b82525050565b5f606083015f8301516109e05f860182610965565b50602083015184820360208601526109f88282610984565b9150506040830151610a0d60408601826109bc565b508091505092915050565b5f6020820190508181035f830152610a3081846109cb565b905092915050565b7f4d652070617365000000000000000000000000000000000000000000000000005f82015250565b5f610a6c600783610850565b9150610a7782610a38565b602082019050919050565b5f6020820190508181035f830152610a9981610a60565b9050919050565b7f4e487b71000000000000000000000000000000000000000000000000000000005f52604160045260245ffd5b7f4e487b71000000000000000000000000000000000000000000000000000000005f52602260045260245ffd5b5f6002820490506001821680610b1157607f821691505b602082108103610b2457610b23610acd565b5b50919050565b5f819050815f5260205f209050919050565b5f6020601f8301049050919050565b5f82821b905092915050565b5f60088302610b867fffffffffffffffffffffffffffffffffffffffffffffffffffffffffffffffff82610b4b565b610b908683610b4b565b95508019841693508086168417925050509392505050565b5f819050919050565b5f610bcb610bc6610bc18461075f565b610ba8565b61075f565b9050919050565b5f819050919050565b610be483610bb1565b610bf8610bf082610bd2565b848454610b57565b825550505050565b5f90565b610c0c610c00565b610c17818484610bdb565b505050565b5b81811015610c3a57610c2f5f82610c04565b600181019050610c1d565b5050565b601f821115610c7f57610c5081610b2a565b610c5984610b3c565b81016020851015610c68578190505b610c7c610c7485610b3c565b830182610c1c565b50505b505050565b5f82821c905092915050565b5f610c9f5f1984600802610c84565b1980831691505092915050565b5f610cb78383610c90565b9150826002028217905092915050565b610cd082610846565b67ffffffffffffffff811115610ce957610ce8610aa0565b5b610cf38254610afa565b610cfe828285610c3e565b5f60209050601f831160018114610d2f575f8415610d1d578287015190505b610d278582610cac565b865550610d8e565b601f198416610d3d86610b2a565b5f5b82811015610d6457848901518255600182019150602085019450602081019050610d3f565b86831015610d815784890151610d7d601f891682610c90565b8355505b6001600288020188555050505b505050505050565b828183375f83830152505050565b5f610daf8385610850565b9350610dbc838584610d96565b610dc58361086e565b840190509392505050565b5f6020820190508181035f830152610de9818486610da4565b90509392505050565b7f4e487b71000000000000000000000000000000000000000000000000000000005f52601160045260245ffd5b5f610e298261075f565b91507fffffffffffffffffffffffffffffffffffffffffffffffffffffffffffffffff8203610e5b57610e5a610df2565b5b600182019050919050565b7f6e6f7420657869737400000000000000000000000000000000000000000000005f82015250565b5f610e9a600983610850565b9150610ea582610e66565b602082019050919050565b5f6020820190508181035f830152610ec781610e8e565b9050919050565b7f4e487b71000000000000000000000000000000000000000000000000000000005f52603260045260245ffd5b5f610f058261075f565b9150610f108361075f565b9250828203905081811115610f2857610f27610df2565b5b9291505056fea264697066735822122002b2fb280d7e590c2ade06a3d77ad8e8a2c69fd20a28fb1ab4ef7a6248c6c93e64736f6c634300081a0033",
					"opcodes": "PUSH1 0x80 PUSH1 0x40 MSTORE PUSH0 PUSH1 0x2 PUSH0 PUSH2 0x100 EXP DUP2 SLOAD DUP2 PUSH1 0xFF MUL NOT AND SWAP1 DUP4 ISZERO ISZERO MUL OR SWAP1 SSTORE POP CALLVALUE DUP1 ISZERO PUSH1 0x27 JUMPI PUSH0 DUP1 REVERT JUMPDEST POP PUSH2 0xF64 DUP1 PUSH2 0x35 PUSH0 CODECOPY PUSH0 RETURN INVALID PUSH1 0x80 PUSH1 0x40 MSTORE CALLVALUE DUP1 ISZERO PUSH2 0xF JUMPI PUSH0 DUP1 REVERT JUMPDEST POP PUSH1 0x4 CALLDATASIZE LT PUSH2 0x55 JUMPI PUSH0 CALLDATALOAD PUSH1 0xE0 SHR DUP1 PUSH4 0x111002AA EQ PUSH2 0x59 JUMPI DUP1 PUSH4 0x3A1B3D31 EQ PUSH2 0x75 JUMPI DUP1 PUSH4 0x58671730 EQ PUSH2 0x91 JUMPI DUP1 PUSH4 0x8D977672 EQ PUSH2 0xAF JUMPI DUP1 PUSH4 0xCF1CC10D EQ PUSH2 0xE1 JUMPI JUMPDEST PUSH0 DUP1 REVERT JUMPDEST PUSH2 0x73 PUSH1 0x4 DUP1 CALLDATASIZE SUB DUP2 ADD SWAP1 PUSH2 0x6E SWAP2 SWAP1 PUSH2 0x714 JUMP JUMPDEST PUSH2 0xFF JUMP JUMPDEST STOP JUMPDEST PUSH2 0x8F PUSH1 0x4 DUP1 CALLDATASIZE SUB DUP2 ADD SWAP1 PUSH2 0x8A SWAP2 SWAP1 PUSH2 0x7B5 JUMP JUMPDEST PUSH2 0x284 JUMP JUMPDEST STOP JUMPDEST PUSH2 0x99 PUSH2 0x317 JUMP JUMPDEST PUSH1 0x40 MLOAD PUSH2 0xA6 SWAP2 SWAP1 PUSH2 0x802 JUMP JUMPDEST PUSH1 0x40 MLOAD DUP1 SWAP2 SUB SWAP1 RETURN JUMPDEST PUSH2 0xC9 PUSH1 0x4 DUP1 CALLDATASIZE SUB DUP2 ADD SWAP1 PUSH2 0xC4 SWAP2 SWAP1 PUSH2 0x81B JUMP JUMPDEST PUSH2 0x31D JUMP JUMPDEST PUSH1 0x40 MLOAD PUSH2 0xD8 SWAP4 SWAP3 SWAP2 SWAP1 PUSH2 0x929 JUMP JUMPDEST PUSH1 0x40 MLOAD DUP1 SWAP2 SUB SWAP1 RETURN JUMPDEST PUSH2 0xE9 PUSH2 0x3E3 JUMP JUMPDEST PUSH1 0x40 MLOAD PUSH2 0xF6 SWAP2 SWAP1 PUSH2 0xA18 JUMP JUMPDEST PUSH1 0x40 MLOAD DUP1 SWAP2 SUB SWAP1 RETURN JUMPDEST PUSH1 0xA PUSH1 0x1 SLOAD LT PUSH2 0x144 JUMPI PUSH1 0x40 MLOAD PUSH32 0x8C379A000000000000000000000000000000000000000000000000000000000 DUP2 MSTORE PUSH1 0x4 ADD PUSH2 0x13B SWAP1 PUSH2 0xA82 JUMP JUMPDEST PUSH1 0x40 MLOAD DUP1 SWAP2 SUB SWAP1 REVERT JUMPDEST PUSH0 PUSH1 0x1 SLOAD SWAP1 POP PUSH0 PUSH1 0x40 MLOAD DUP1 PUSH1 0x60 ADD PUSH1 0x40 MSTORE DUP1 DUP4 DUP2 MSTORE PUSH1 0x20 ADD DUP6 DUP6 DUP1 DUP1 PUSH1 0x1F ADD PUSH1 0x20 DUP1 SWAP2 DIV MUL PUSH1 0x20 ADD PUSH1 0x40 MLOAD SWAP1 DUP2 ADD PUSH1 0x40 MSTORE DUP1 SWAP4 SWAP3 SWAP2 SWAP1 DUP2 DUP2 MSTORE PUSH1 0x20 ADD DUP4 DUP4 DUP1 DUP3 DUP5 CALLDATACOPY PUSH0 DUP2 DUP5 ADD MSTORE PUSH1 0x1F NOT PUSH1 0x1F DUP3 ADD AND SWAP1 POP DUP1 DUP4 ADD SWAP3 POP POP POP POP POP POP POP DUP2 MSTORE PUSH1 0x20 ADD PUSH0 PUSH1 0x2 DUP2 GT ISZERO PUSH2 0x1B8 JUMPI PUSH2 0x1B7 PUSH2 0x8B6 JUMP JUMPDEST JUMPDEST DUP2 MSTORE POP SWAP1 DUP1 PUSH1 0x1 DUP2 SLOAD ADD DUP1 DUP3 SSTORE DUP1 SWAP2 POP POP PUSH1 0x1 SWAP1 SUB SWAP1 PUSH0 MSTORE PUSH1 0x20 PUSH0 KECCAK256 SWAP1 PUSH1 0x3 MUL ADD PUSH0 SWAP1 SWAP2 SWAP1 SWAP2 SWAP1 SWAP2 POP PUSH0 DUP3 ADD MLOAD DUP2 PUSH0 ADD SSTORE PUSH1 0x20 DUP3 ADD MLOAD DUP2 PUSH1 0x1 ADD SWAP1 DUP2 PUSH2 0x1FE SWAP2 SWAP1 PUSH2 0xCC7 JUMP JUMPDEST POP PUSH1 0x40 DUP3 ADD MLOAD DUP2 PUSH1 0x2 ADD PUSH0 PUSH2 0x100 EXP DUP2 SLOAD DUP2 PUSH1 0xFF MUL NOT AND SWAP1 DUP4 PUSH1 0x2 DUP2 GT ISZERO PUSH2 0x229 JUMPI PUSH2 0x228 PUSH2 0x8B6 JUMP JUMPDEST JUMPDEST MUL OR SWAP1 SSTORE POP POP POP DUP1 PUSH32 0xDC8A9D0709C6AD2A14185C02B1EF388B73A1024F451590C5DE574F514BB56DB0 DUP5 DUP5 PUSH1 0x40 MLOAD PUSH2 0x262 SWAP3 SWAP2 SWAP1 PUSH2 0xDD0 JUMP JUMPDEST PUSH1 0x40 MLOAD DUP1 SWAP2 SUB SWAP1 LOG2 DUP1 DUP1 PUSH2 0x275 SWAP1 PUSH2 0xE1F JUMP JUMPDEST SWAP2 POP POP DUP1 PUSH1 0x1 DUP2 SWAP1 SSTORE POP POP POP POP JUMP JUMPDEST DUP2 PUSH1 0x1 SLOAD DUP2 LT PUSH2 0x2C9 JUMPI PUSH1 0x40 MLOAD PUSH32 0x8C379A000000000000000000000000000000000000000000000000000000000 DUP2 MSTORE PUSH1 0x4 ADD PUSH2 0x2C0 SWAP1 PUSH2 0xEB0 JUMP JUMPDEST PUSH1 0x40 MLOAD DUP1 SWAP2 SUB SWAP1 REVERT JUMPDEST DUP2 PUSH0 DUP5 DUP2 SLOAD DUP2 LT PUSH2 0x2DD JUMPI PUSH2 0x2DC PUSH2 0xECE JUMP JUMPDEST JUMPDEST SWAP1 PUSH0 MSTORE PUSH1 0x20 PUSH0 KECCAK256 SWAP1 PUSH1 0x3 MUL ADD PUSH1 0x2 ADD PUSH0 PUSH2 0x100 EXP DUP2 SLOAD DUP2 PUSH1 0xFF MUL NOT AND SWAP1 DUP4 PUSH1 0x2 DUP2 GT ISZERO PUSH2 0x30D JUMPI PUSH2 0x30C PUSH2 0x8B6 JUMP JUMPDEST JUMPDEST MUL OR SWAP1 SSTORE POP POP POP POP JUMP JUMPDEST PUSH1 0x1 SLOAD DUP2 JUMP JUMPDEST PUSH0 DUP2 DUP2 SLOAD DUP2 LT PUSH2 0x32B JUMPI PUSH0 DUP1 REVERT JUMPDEST SWAP1 PUSH0 MSTORE PUSH1 0x20 PUSH0 KECCAK256 SWAP1 PUSH1 0x3 MUL ADD PUSH0 SWAP2 POP SWAP1 POP DUP1 PUSH0 ADD SLOAD SWAP1 DUP1 PUSH1 0x1 ADD DUP1 SLOAD PUSH2 0x350 SWAP1 PUSH2 0xAFA JUMP JUMPDEST DUP1 PUSH1 0x1F ADD PUSH1 0x20 DUP1 SWAP2 DIV MUL PUSH1 0x20 ADD PUSH1 0x40 MLOAD SWAP1 DUP2 ADD PUSH1 0x40 MSTORE DUP1 SWAP3 SWAP2 SWAP1 DUP2 DUP2 MSTORE PUSH1 0x20 ADD DUP3 DUP1 SLOAD PUSH2 0x37C SWAP1 PUSH2 0xAFA JUMP JUMPDEST DUP1 ISZERO PUSH2 0x3C7 JUMPI DUP1 PUSH1 0x1F LT PUSH2 0x39E JUMPI PUSH2 0x100 DUP1 DUP4 SLOAD DIV MUL DUP4 MSTORE SWAP2 PUSH1 0x20 ADD SWAP2 PUSH2 0x3C7 JUMP JUMPDEST DUP3 ADD SWAP2 SWAP1 PUSH0 MSTORE PUSH1 0x20 PUSH0 KECCAK256 SWAP1 JUMPDEST DUP2 SLOAD DUP2 MSTORE SWAP1 PUSH1 0x1 ADD SWAP1 PUSH1 0x20 ADD DUP1 DUP4 GT PUSH2 0x3AA JUMPI DUP3 SWAP1 SUB PUSH1 0x1F AND DUP3 ADD SWAP2 JUMPDEST POP POP POP POP POP SWAP1 DUP1 PUSH1 0x2 ADD PUSH0 SWAP1 SLOAD SWAP1 PUSH2 0x100 EXP SWAP1 DIV PUSH1 0xFF AND SWAP1 POP DUP4 JUMP JUMPDEST PUSH2 0x3EB PUSH2 0x67A JUMP JUMPDEST PUSH0 DUP1 DUP1 SLOAD SWAP1 POP SWAP1 POP PUSH0 JUMPDEST DUP2 DUP2 LT ISZERO PUSH2 0x569 JUMPI PUSH0 PUSH1 0x2 DUP2 GT ISZERO PUSH2 0x410 JUMPI PUSH2 0x40F PUSH2 0x8B6 JUMP JUMPDEST JUMPDEST PUSH0 DUP3 DUP2 SLOAD DUP2 LT PUSH2 0x423 JUMPI PUSH2 0x422 PUSH2 0xECE JUMP JUMPDEST JUMPDEST SWAP1 PUSH0 MSTORE PUSH1 0x20 PUSH0 KECCAK256 SWAP1 PUSH1 0x3 MUL ADD PUSH1 0x2 ADD PUSH0 SWAP1 SLOAD SWAP1 PUSH2 0x100 EXP SWAP1 DIV PUSH1 0xFF AND PUSH1 0x2 DUP2 GT ISZERO PUSH2 0x451 JUMPI PUSH2 0x450 PUSH2 0x8B6 JUMP JUMPDEST JUMPDEST SUB PUSH2 0x55C JUMPI PUSH0 DUP2 DUP2 SLOAD DUP2 LT PUSH2 0x469 JUMPI PUSH2 0x468 PUSH2 0xECE JUMP JUMPDEST JUMPDEST SWAP1 PUSH0 MSTORE PUSH1 0x20 PUSH0 KECCAK256 SWAP1 PUSH1 0x3 MUL ADD PUSH1 0x40 MLOAD DUP1 PUSH1 0x60 ADD PUSH1 0x40 MSTORE SWAP1 DUP2 PUSH0 DUP3 ADD SLOAD DUP2 MSTORE PUSH1 0x20 ADD PUSH1 0x1 DUP3 ADD DUP1 SLOAD PUSH2 0x499 SWAP1 PUSH2 0xAFA JUMP JUMPDEST DUP1 PUSH1 0x1F ADD PUSH1 0x20 DUP1 SWAP2 DIV MUL PUSH1 0x20 ADD PUSH1 0x40 MLOAD SWAP1 DUP2 ADD PUSH1 0x40 MSTORE DUP1 SWAP3 SWAP2 SWAP1 DUP2 DUP2 MSTORE PUSH1 0x20 ADD DUP3 DUP1 SLOAD PUSH2 0x4C5 SWAP1 PUSH2 0xAFA JUMP JUMPDEST DUP1 ISZERO PUSH2 0x510 JUMPI DUP1 PUSH1 0x1F LT PUSH2 0x4E7 JUMPI PUSH2 0x100 DUP1 DUP4 SLOAD DIV MUL DUP4 MSTORE SWAP2 PUSH1 0x20 ADD SWAP2 PUSH2 0x510 JUMP JUMPDEST DUP3 ADD SWAP2 SWAP1 PUSH0 MSTORE PUSH1 0x20 PUSH0 KECCAK256 SWAP1 JUMPDEST DUP2 SLOAD DUP2 MSTORE SWAP1 PUSH1 0x1 ADD SWAP1 PUSH1 0x20 ADD DUP1 DUP4 GT PUSH2 0x4F3 JUMPI DUP3 SWAP1 SUB PUSH1 0x1F AND DUP3 ADD SWAP2 JUMPDEST POP POP POP POP POP DUP2 MSTORE PUSH1 0x20 ADD PUSH1 0x2 DUP3 ADD PUSH0 SWAP1 SLOAD SWAP1 PUSH2 0x100 EXP SWAP1 DIV PUSH1 0xFF AND PUSH1 0x2 DUP2 GT ISZERO PUSH2 0x53D JUMPI PUSH2 0x53C PUSH2 0x8B6 JUMP JUMPDEST JUMPDEST PUSH1 0x2 DUP2 GT ISZERO PUSH2 0x54F JUMPI PUSH2 0x54E PUSH2 0x8B6 JUMP JUMPDEST JUMPDEST DUP2 MSTORE POP POP SWAP3 POP POP POP PUSH2 0x677 JUMP JUMPDEST DUP1 DUP1 PUSH1 0x1 ADD SWAP2 POP POP PUSH2 0x3F5 JUMP JUMPDEST POP PUSH0 PUSH1 0x1 DUP3 PUSH2 0x578 SWAP2 SWAP1 PUSH2 0xEFB JUMP JUMPDEST DUP2 SLOAD DUP2 LT PUSH2 0x589 JUMPI PUSH2 0x588 PUSH2 0xECE JUMP JUMPDEST JUMPDEST SWAP1 PUSH0 MSTORE PUSH1 0x20 PUSH0 KECCAK256 SWAP1 PUSH1 0x3 MUL ADD PUSH1 0x40 MLOAD DUP1 PUSH1 0x60 ADD PUSH1 0x40 MSTORE SWAP1 DUP2 PUSH0 DUP3 ADD SLOAD DUP2 MSTORE PUSH1 0x20 ADD PUSH1 0x1 DUP3 ADD DUP1 SLOAD PUSH2 0x5B9 SWAP1 PUSH2 0xAFA JUMP JUMPDEST DUP1 PUSH1 0x1F ADD PUSH1 0x20 DUP1 SWAP2 DIV MUL PUSH1 0x20 ADD PUSH1 0x40 MLOAD SWAP1 DUP2 ADD PUSH1 0x40 MSTORE DUP1 SWAP3 SWAP2 SWAP1 DUP2 DUP2 MSTORE PUSH1 0x20 ADD DUP3 DUP1 SLOAD PUSH2 0x5E5 SWAP1 PUSH2 0xAFA JUMP JUMPDEST DUP1 ISZERO PUSH2 0x630 JUMPI DUP1 PUSH1 0x1F LT PUSH2 0x607 JUMPI PUSH2 0x100 DUP1 DUP4 SLOAD DIV MUL DUP4 MSTORE SWAP2 PUSH1 0x20 ADD SWAP2 PUSH2 0x630 JUMP JUMPDEST DUP3 ADD SWAP2 SWAP1 PUSH0 MSTORE PUSH1 0x20 PUSH0 KECCAK256 SWAP1 JUMPDEST DUP2 SLOAD DUP2 MSTORE SWAP1 PUSH1 0x1 ADD SWAP1 PUSH1 0x20 ADD DUP1 DUP4 GT PUSH2 0x613 JUMPI DUP3 SWAP1 SUB PUSH1 0x1F AND DUP3 ADD SWAP2 JUMPDEST POP POP POP POP POP DUP2 MSTORE PUSH1 0x20 ADD PUSH1 0x2 DUP3 ADD PUSH0 SWAP1 SLOAD SWAP1 PUSH2 0x100 EXP SWAP1 DIV PUSH1 0xFF AND PUSH1 0x2 DUP2 GT ISZERO PUSH2 0x65D JUMPI PUSH2 0x65C PUSH2 0x8B6 JUMP JUMPDEST JUMPDEST PUSH1 0x2 DUP2 GT ISZERO PUSH2 0x66F JUMPI PUSH2 0x66E PUSH2 0x8B6 JUMP JUMPDEST JUMPDEST DUP2 MSTORE POP POP SWAP2 POP POP JUMPDEST SWAP1 JUMP JUMPDEST PUSH1 0x40 MLOAD DUP1 PUSH1 0x60 ADD PUSH1 0x40 MSTORE DUP1 PUSH0 DUP2 MSTORE PUSH1 0x20 ADD PUSH1 0x60 DUP2 MSTORE PUSH1 0x20 ADD PUSH0 PUSH1 0x2 DUP2 GT ISZERO PUSH2 0x6A5 JUMPI PUSH2 0x6A4 PUSH2 0x8B6 JUMP JUMPDEST JUMPDEST DUP2 MSTORE POP SWAP1 JUMP JUMPDEST PUSH0 DUP1 REVERT JUMPDEST PUSH0 DUP1 REVERT JUMPDEST PUSH0 DUP1 REVERT JUMPDEST PUSH0 DUP1 REVERT JUMPDEST PUSH0 DUP1 REVERT JUMPDEST PUSH0 DUP1 DUP4 PUSH1 0x1F DUP5 ADD SLT PUSH2 0x6D4 JUMPI PUSH2 0x6D3 PUSH2 0x6B3 JUMP JUMPDEST JUMPDEST DUP3 CALLDATALOAD SWAP1 POP PUSH8 0xFFFFFFFFFFFFFFFF DUP2 GT ISZERO PUSH2 0x6F1 JUMPI PUSH2 0x6F0 PUSH2 0x6B7 JUMP JUMPDEST JUMPDEST PUSH1 0x20 DUP4 ADD SWAP2 POP DUP4 PUSH1 0x1 DUP3 MUL DUP4 ADD GT ISZERO PUSH2 0x70D JUMPI PUSH2 0x70C PUSH2 0x6BB JUMP JUMPDEST JUMPDEST SWAP3 POP SWAP3 SWAP1 POP JUMP JUMPDEST PUSH0 DUP1 PUSH1 0x20 DUP4 DUP6 SUB SLT ISZERO PUSH2 0x72A JUMPI PUSH2 0x729 PUSH2 0x6AB JUMP JUMPDEST JUMPDEST PUSH0 DUP4 ADD CALLDATALOAD PUSH8 0xFFFFFFFFFFFFFFFF DUP2 GT ISZERO PUSH2 0x747 JUMPI PUSH2 0x746 PUSH2 0x6AF JUMP JUMPDEST JUMPDEST PUSH2 0x753 DUP6 DUP3 DUP7 ADD PUSH2 0x6BF JUMP JUMPDEST SWAP3 POP SWAP3 POP POP SWAP3 POP SWAP3 SWAP1 POP JUMP JUMPDEST PUSH0 DUP2 SWAP1 POP SWAP2 SWAP1 POP JUMP JUMPDEST PUSH2 0x771 DUP2 PUSH2 0x75F JUMP JUMPDEST DUP2 EQ PUSH2 0x77B JUMPI PUSH0 DUP1 REVERT JUMPDEST POP JUMP JUMPDEST PUSH0 DUP2 CALLDATALOAD SWAP1 POP PUSH2 0x78C DUP2 PUSH2 0x768 JUMP JUMPDEST SWAP3 SWAP2 POP POP JUMP JUMPDEST PUSH1 0x3 DUP2 LT PUSH2 0x79E JUMPI PUSH0 DUP1 REVERT JUMPDEST POP JUMP JUMPDEST PUSH0 DUP2 CALLDATALOAD SWAP1 POP PUSH2 0x7AF DUP2 PUSH2 0x792 JUMP JUMPDEST SWAP3 SWAP2 POP POP JUMP JUMPDEST PUSH0 DUP1 PUSH1 0x40 DUP4 DUP6 SUB SLT ISZERO PUSH2 0x7CB JUMPI PUSH2 0x7CA PUSH2 0x6AB JUMP JUMPDEST JUMPDEST PUSH0 PUSH2 0x7D8 DUP6 DUP3 DUP7 ADD PUSH2 0x77E JUMP JUMPDEST SWAP3 POP POP PUSH1 0x20 PUSH2 0x7E9 DUP6 DUP3 DUP7 ADD PUSH2 0x7A1 JUMP JUMPDEST SWAP2 POP POP SWAP3 POP SWAP3 SWAP1 POP JUMP JUMPDEST PUSH2 0x7FC DUP2 PUSH2 0x75F JUMP JUMPDEST DUP3 MSTORE POP POP JUMP JUMPDEST PUSH0 PUSH1 0x20 DUP3 ADD SWAP1 POP PUSH2 0x815 PUSH0 DUP4 ADD DUP5 PUSH2 0x7F3 JUMP JUMPDEST SWAP3 SWAP2 POP POP JUMP JUMPDEST PUSH0 PUSH1 0x20 DUP3 DUP5 SUB SLT ISZERO PUSH2 0x830 JUMPI PUSH2 0x82F PUSH2 0x6AB JUMP JUMPDEST JUMPDEST PUSH0 PUSH2 0x83D DUP5 DUP3 DUP6 ADD PUSH2 0x77E JUMP JUMPDEST SWAP2 POP POP SWAP3 SWAP2 POP POP JUMP JUMPDEST PUSH0 DUP2 MLOAD SWAP1 POP SWAP2 SWAP1 POP JUMP JUMPDEST PUSH0 DUP3 DUP3 MSTORE PUSH1 0x20 DUP3 ADD SWAP1 POP SWAP3 SWAP2 POP POP JUMP JUMPDEST DUP3 DUP2 DUP4 MCOPY PUSH0 DUP4 DUP4 ADD MSTORE POP POP POP JUMP JUMPDEST PUSH0 PUSH1 0x1F NOT PUSH1 0x1F DUP4 ADD AND SWAP1 POP SWAP2 SWAP1 POP JUMP JUMPDEST PUSH0 PUSH2 0x888 DUP3 PUSH2 0x846 JUMP JUMPDEST PUSH2 0x892 DUP2 DUP6 PUSH2 0x850 JUMP JUMPDEST SWAP4 POP PUSH2 0x8A2 DUP2 DUP6 PUSH1 0x20 DUP7 ADD PUSH2 0x860 JUMP JUMPDEST PUSH2 0x8AB DUP2 PUSH2 0x86E JUMP JUMPDEST DUP5 ADD SWAP2 POP POP SWAP3 SWAP2 POP POP JUMP JUMPDEST PUSH32 0x4E487B7100000000000000000000000000000000000000000000000000000000 PUSH0 MSTORE PUSH1 0x21 PUSH1 0x4 MSTORE PUSH1 0x24 PUSH0 REVERT JUMPDEST PUSH1 0x3 DUP2 LT PUSH2 0x8F4 JUMPI PUSH2 0x8F3 PUSH2 0x8B6 JUMP JUMPDEST JUMPDEST POP JUMP JUMPDEST PUSH0 DUP2 SWAP1 POP PUSH2 0x904 DUP3 PUSH2 0x8E3 JUMP JUMPDEST SWAP2 SWAP1 POP JUMP JUMPDEST PUSH0 PUSH2 0x913 DUP3 PUSH2 0x8F7 JUMP JUMPDEST SWAP1 POP SWAP2 SWAP1 POP JUMP JUMPDEST PUSH2 0x923 DUP2 PUSH2 0x909 JUMP JUMPDEST DUP3 MSTORE POP POP JUMP JUMPDEST PUSH0 PUSH1 0x60 DUP3 ADD SWAP1 POP PUSH2 0x93C PUSH0 DUP4 ADD DUP7 PUSH2 0x7F3 JUMP JUMPDEST DUP2 DUP2 SUB PUSH1 0x20 DUP4 ADD MSTORE PUSH2 0x94E DUP2 DUP6 PUSH2 0x87E JUMP JUMPDEST SWAP1 POP PUSH2 0x95D PUSH1 0x40 DUP4 ADD DUP5 PUSH2 0x91A JUMP JUMPDEST SWAP5 SWAP4 POP POP POP POP JUMP JUMPDEST PUSH2 0x96E DUP2 PUSH2 0x75F JUMP JUMPDEST DUP3 MSTORE POP POP JUMP JUMPDEST PUSH0 DUP3 DUP3 MSTORE PUSH1 0x20 DUP3 ADD SWAP1 POP SWAP3 SWAP2 POP POP JUMP JUMPDEST PUSH0 PUSH2 0x98E DUP3 PUSH2 0x846 JUMP JUMPDEST PUSH2 0x998 DUP2 DUP6 PUSH2 0x974 JUMP JUMPDEST SWAP4 POP PUSH2 0x9A8 DUP2 DUP6 PUSH1 0x20 DUP7 ADD PUSH2 0x860 JUMP JUMPDEST PUSH2 0x9B1 DUP2 PUSH2 0x86E JUMP JUMPDEST DUP5 ADD SWAP2 POP POP SWAP3 SWAP2 POP POP JUMP JUMPDEST PUSH2 0x9C5 DUP2 PUSH2 0x909 JUMP JUMPDEST DUP3 MSTORE POP POP JUMP JUMPDEST PUSH0 PUSH1 0x60 DUP4 ADD PUSH0 DUP4 ADD MLOAD PUSH2 0x9E0 PUSH0 DUP7 ADD DUP3 PUSH2 0x965 JUMP JUMPDEST POP PUSH1 0x20 DUP4 ADD MLOAD DUP5 DUP3 SUB PUSH1 0x20 DUP7 ADD MSTORE PUSH2 0x9F8 DUP3 DUP3 PUSH2 0x984 JUMP JUMPDEST SWAP2 POP POP PUSH1 0x40 DUP4 ADD MLOAD PUSH2 0xA0D PUSH1 0x40 DUP7 ADD DUP3 PUSH2 0x9BC JUMP JUMPDEST POP DUP1 SWAP2 POP POP SWAP3 SWAP2 POP POP JUMP JUMPDEST PUSH0 PUSH1 0x20 DUP3 ADD SWAP1 POP DUP2 DUP2 SUB PUSH0 DUP4 ADD MSTORE PUSH2 0xA30 DUP2 DUP5 PUSH2 0x9CB JUMP JUMPDEST SWAP1 POP SWAP3 SWAP2 POP POP JUMP JUMPDEST PUSH32 0x4D65207061736500000000000000000000000000000000000000000000000000 PUSH0 DUP3 ADD MSTORE POP JUMP JUMPDEST PUSH0 PUSH2 0xA6C PUSH1 0x7 DUP4 PUSH2 0x850 JUMP JUMPDEST SWAP2 POP PUSH2 0xA77 DUP3 PUSH2 0xA38 JUMP JUMPDEST PUSH1 0x20 DUP3 ADD SWAP1 POP SWAP2 SWAP1 POP JUMP JUMPDEST PUSH0 PUSH1 0x20 DUP3 ADD SWAP1 POP DUP2 DUP2 SUB PUSH0 DUP4 ADD MSTORE PUSH2 0xA99 DUP2 PUSH2 0xA60 JUMP JUMPDEST SWAP1 POP SWAP2 SWAP1 POP JUMP JUMPDEST PUSH32 0x4E487B7100000000000000000000000000000000000000000000000000000000 PUSH0 MSTORE PUSH1 0x41 PUSH1 0x4 MSTORE PUSH1 0x24 PUSH0 REVERT JUMPDEST PUSH32 0x4E487B7100000000000000000000000000000000000000000000000000000000 PUSH0 MSTORE PUSH1 0x22 PUSH1 0x4 MSTORE PUSH1 0x24 PUSH0 REVERT JUMPDEST PUSH0 PUSH1 0x2 DUP3 DIV SWAP1 POP PUSH1 0x1 DUP3 AND DUP1 PUSH2 0xB11 JUMPI PUSH1 0x7F DUP3 AND SWAP2 POP JUMPDEST PUSH1 0x20 DUP3 LT DUP2 SUB PUSH2 0xB24 JUMPI PUSH2 0xB23 PUSH2 0xACD JUMP JUMPDEST JUMPDEST POP SWAP2 SWAP1 POP JUMP JUMPDEST PUSH0 DUP2 SWAP1 POP DUP2 PUSH0 MSTORE PUSH1 0x20 PUSH0 KECCAK256 SWAP1 POP SWAP2 SWAP1 POP JUMP JUMPDEST PUSH0 PUSH1 0x20 PUSH1 0x1F DUP4 ADD DIV SWAP1 POP SWAP2 SWAP1 POP JUMP JUMPDEST PUSH0 DUP3 DUP3 SHL SWAP1 POP SWAP3 SWAP2 POP POP JUMP JUMPDEST PUSH0 PUSH1 0x8 DUP4 MUL PUSH2 0xB86 PUSH32 0xFFFFFFFFFFFFFFFFFFFFFFFFFFFFFFFFFFFFFFFFFFFFFFFFFFFFFFFFFFFFFFFF DUP3 PUSH2 0xB4B JUMP JUMPDEST PUSH2 0xB90 DUP7 DUP4 PUSH2 0xB4B JUMP JUMPDEST SWAP6 POP DUP1 NOT DUP5 AND SWAP4 POP DUP1 DUP7 AND DUP5 OR SWAP3 POP POP POP SWAP4 SWAP3 POP POP POP JUMP JUMPDEST PUSH0 DUP2 SWAP1 POP SWAP2 SWAP1 POP JUMP JUMPDEST PUSH0 PUSH2 0xBCB PUSH2 0xBC6 PUSH2 0xBC1 DUP5 PUSH2 0x75F JUMP JUMPDEST PUSH2 0xBA8 JUMP JUMPDEST PUSH2 0x75F JUMP JUMPDEST SWAP1 POP SWAP2 SWAP1 POP JUMP JUMPDEST PUSH0 DUP2 SWAP1 POP SWAP2 SWAP1 POP JUMP JUMPDEST PUSH2 0xBE4 DUP4 PUSH2 0xBB1 JUMP JUMPDEST PUSH2 0xBF8 PUSH2 0xBF0 DUP3 PUSH2 0xBD2 JUMP JUMPDEST DUP5 DUP5 SLOAD PUSH2 0xB57 JUMP JUMPDEST DUP3 SSTORE POP POP POP POP JUMP JUMPDEST PUSH0 SWAP1 JUMP JUMPDEST PUSH2 0xC0C PUSH2 0xC00 JUMP JUMPDEST PUSH2 0xC17 DUP2 DUP5 DUP5 PUSH2 0xBDB JUMP JUMPDEST POP POP POP JUMP JUMPDEST JUMPDEST DUP2 DUP2 LT ISZERO PUSH2 0xC3A JUMPI PUSH2 0xC2F PUSH0 DUP3 PUSH2 0xC04 JUMP JUMPDEST PUSH1 0x1 DUP2 ADD SWAP1 POP PUSH2 0xC1D JUMP JUMPDEST POP POP JUMP JUMPDEST PUSH1 0x1F DUP3 GT ISZERO PUSH2 0xC7F JUMPI PUSH2 0xC50 DUP2 PUSH2 0xB2A JUMP JUMPDEST PUSH2 0xC59 DUP5 PUSH2 0xB3C JUMP JUMPDEST DUP2 ADD PUSH1 0x20 DUP6 LT ISZERO PUSH2 0xC68 JUMPI DUP2 SWAP1 POP JUMPDEST PUSH2 0xC7C PUSH2 0xC74 DUP6 PUSH2 0xB3C JUMP JUMPDEST DUP4 ADD DUP3 PUSH2 0xC1C JUMP JUMPDEST POP POP JUMPDEST POP POP POP JUMP JUMPDEST PUSH0 DUP3 DUP3 SHR SWAP1 POP SWAP3 SWAP2 POP POP JUMP JUMPDEST PUSH0 PUSH2 0xC9F PUSH0 NOT DUP5 PUSH1 0x8 MUL PUSH2 0xC84 JUMP JUMPDEST NOT DUP1 DUP4 AND SWAP2 POP POP SWAP3 SWAP2 POP POP JUMP JUMPDEST PUSH0 PUSH2 0xCB7 DUP4 DUP4 PUSH2 0xC90 JUMP JUMPDEST SWAP2 POP DUP3 PUSH1 0x2 MUL DUP3 OR SWAP1 POP SWAP3 SWAP2 POP POP JUMP JUMPDEST PUSH2 0xCD0 DUP3 PUSH2 0x846 JUMP JUMPDEST PUSH8 0xFFFFFFFFFFFFFFFF DUP2 GT ISZERO PUSH2 0xCE9 JUMPI PUSH2 0xCE8 PUSH2 0xAA0 JUMP JUMPDEST JUMPDEST PUSH2 0xCF3 DUP3 SLOAD PUSH2 0xAFA JUMP JUMPDEST PUSH2 0xCFE DUP3 DUP3 DUP6 PUSH2 0xC3E JUMP JUMPDEST PUSH0 PUSH1 0x20 SWAP1 POP PUSH1 0x1F DUP4 GT PUSH1 0x1 DUP2 EQ PUSH2 0xD2F JUMPI PUSH0 DUP5 ISZERO PUSH2 0xD1D JUMPI DUP3 DUP8 ADD MLOAD SWAP1 POP JUMPDEST PUSH2 0xD27 DUP6 DUP3 PUSH2 0xCAC JUMP JUMPDEST DUP7 SSTORE POP PUSH2 0xD8E JUMP JUMPDEST PUSH1 0x1F NOT DUP5 AND PUSH2 0xD3D DUP7 PUSH2 0xB2A JUMP JUMPDEST PUSH0 JUMPDEST DUP3 DUP2 LT ISZERO PUSH2 0xD64 JUMPI DUP5 DUP10 ADD MLOAD DUP3 SSTORE PUSH1 0x1 DUP3 ADD SWAP2 POP PUSH1 0x20 DUP6 ADD SWAP5 POP PUSH1 0x20 DUP2 ADD SWAP1 POP PUSH2 0xD3F JUMP JUMPDEST DUP7 DUP4 LT ISZERO PUSH2 0xD81 JUMPI DUP5 DUP10 ADD MLOAD PUSH2 0xD7D PUSH1 0x1F DUP10 AND DUP3 PUSH2 0xC90 JUMP JUMPDEST DUP4 SSTORE POP JUMPDEST PUSH1 0x1 PUSH1 0x2 DUP9 MUL ADD DUP9 SSTORE POP POP POP JUMPDEST POP POP POP POP POP POP JUMP JUMPDEST DUP3 DUP2 DUP4 CALLDATACOPY PUSH0 DUP4 DUP4 ADD MSTORE POP POP POP JUMP JUMPDEST PUSH0 PUSH2 0xDAF DUP4 DUP6 PUSH2 0x850 JUMP JUMPDEST SWAP4 POP PUSH2 0xDBC DUP4 DUP6 DUP5 PUSH2 0xD96 JUMP JUMPDEST PUSH2 0xDC5 DUP4 PUSH2 0x86E JUMP JUMPDEST DUP5 ADD SWAP1 POP SWAP4 SWAP3 POP POP POP JUMP JUMPDEST PUSH0 PUSH1 0x20 DUP3 ADD SWAP1 POP DUP2 DUP2 SUB PUSH0 DUP4 ADD MSTORE PUSH2 0xDE9 DUP2 DUP5 DUP7 PUSH2 0xDA4 JUMP JUMPDEST SWAP1 POP SWAP4 SWAP3 POP POP POP JUMP JUMPDEST PUSH32 0x4E487B7100000000000000000000000000000000000000000000000000000000 PUSH0 MSTORE PUSH1 0x11 PUSH1 0x4 MSTORE PUSH1 0x24 PUSH0 REVERT JUMPDEST PUSH0 PUSH2 0xE29 DUP3 PUSH2 0x75F JUMP JUMPDEST SWAP2 POP PUSH32 0xFFFFFFFFFFFFFFFFFFFFFFFFFFFFFFFFFFFFFFFFFFFFFFFFFFFFFFFFFFFFFFFF DUP3 SUB PUSH2 0xE5B JUMPI PUSH2 0xE5A PUSH2 0xDF2 JUMP JUMPDEST JUMPDEST PUSH1 0x1 DUP3 ADD SWAP1 POP SWAP2 SWAP1 POP JUMP JUMPDEST PUSH32 0x6E6F742065786973740000000000000000000000000000000000000000000000 PUSH0 DUP3 ADD MSTORE POP JUMP JUMPDEST PUSH0 PUSH2 0xE9A PUSH1 0x9 DUP4 PUSH2 0x850 JUMP JUMPDEST SWAP2 POP PUSH2 0xEA5 DUP3 PUSH2 0xE66 JUMP JUMPDEST PUSH1 0x20 DUP3 ADD SWAP1 POP SWAP2 SWAP1 POP JUMP JUMPDEST PUSH0 PUSH1 0x20 DUP3 ADD SWAP1 POP DUP2 DUP2 SUB PUSH0 DUP4 ADD MSTORE PUSH2 0xEC7 DUP2 PUSH2 0xE8E JUMP JUMPDEST SWAP1 POP SWAP2 SWAP1 POP JUMP JUMPDEST PUSH32 0x4E487B7100000000000000000000000000000000000000000000000000000000 PUSH0 MSTORE PUSH1 0x32 PUSH1 0x4 MSTORE PUSH1 0x24 PUSH0 REVERT JUMPDEST PUSH0 PUSH2 0xF05 DUP3 PUSH2 0x75F JUMP JUMPDEST SWAP2 POP PUSH2 0xF10 DUP4 PUSH2 0x75F JUMP JUMPDEST SWAP3 POP DUP3 DUP3 SUB SWAP1 POP DUP2 DUP2 GT ISZERO PUSH2 0xF28 JUMPI PUSH2 0xF27 PUSH2 0xDF2 JUMP JUMPDEST JUMPDEST SWAP3 SWAP2 POP POP JUMP INVALID LOG2 PUSH5 0x6970667358 0x22 SLT KECCAK256 MUL 0xB2 0xFB 0x28 0xD PUSH31 0x590C2ADE06A3D77AD8E8A2C69FD20A28FB1AB4EF7A6248C6C93E64736F6C63 NUMBER STOP ADDMOD BYTE STOP CALLER "
				},
				"gasEstimates": {
					"creation": {
						"codeDepositCost": "788000",
						"executionCost": "25088",
						"totalCost": "813088"
					},
					"external": {
						"createTask(string)": "infinite",
						"readFirstPendig()": "infinite",
						"taskCounter()": "2447",
						"tasks(uint256)": "infinite",
						"updateStatus(uint256,uint8)": "29138"
					}
				},
				"methodIdentifiers": {
					"createTask(string)": "111002aa",
					"readFirstPendig()": "cf1cc10d",
					"taskCounter()": "58671730",
					"tasks(uint256)": "8d977672",
					"updateStatus(uint256,uint8)": "3a1b3d31"
				}
			},
			"storageLayout": {
				"storage": [
					{
						"astId": 17,
						"contract": "contracts/M02_Fundamentos_Solidity/Clase03/TaskManager.sol:TaskManager2",
						"label": "tasks",
						"offset": 0,
						"slot": "0",
						"type": "t_array(t_struct(Task)13_storage)dyn_storage"
					},
					{
						"astId": 19,
						"contract": "contracts/M02_Fundamentos_Solidity/Clase03/TaskManager.sol:TaskManager2",
						"label": "taskCounter",
						"offset": 0,
						"slot": "1",
						"type": "t_uint256"
					},
					{
						"astId": 36,
						"contract": "contracts/M02_Fundamentos_Solidity/Clase03/TaskManager.sol:TaskManager2",
						"label": "flag",
						"offset": 0,
						"slot": "2",
						"type": "t_bool"
					}
				],
				"types": {
					"t_array(t_struct(Task)13_storage)dyn_storage": {
						"base": "t_struct(Task)13_storage",
						"encoding": "dynamic_array",
						"label": "struct TaskManager2.Task[]",
						"numberOfBytes": "32"
					},
					"t_bool": {
						"encoding": "inplace",
						"label": "bool",
						"numberOfBytes": "1"
					},
					"t_enum(TaskStatus)5": {
						"encoding": "inplace",
						"label": "enum TaskManager2.TaskStatus",
						"numberOfBytes": "1"
					},
					"t_string_storage": {
						"encoding": "bytes",
						"label": "string",
						"numberOfBytes": "32"
					},
					"t_struct(Task)13_storage": {
						"encoding": "inplace",
						"label": "struct TaskManager2.Task",
						"members": [
							{
								"astId": 7,
								"contract": "contracts/M02_Fundamentos_Solidity/Clase03/TaskManager.sol:TaskManager2",
								"label": "id",
								"offset": 0,
								"slot": "0",
								"type": "t_uint256"
							},
							{
								"astId": 9,
								"contract": "contracts/M02_Fundamentos_Solidity/Clase03/TaskManager.sol:TaskManager2",
								"label": "title",
								"offset": 0,
								"slot": "1",
								"type": "t_string_storage"
							},
							{
								"astId": 12,
								"contract": "contracts/M02_Fundamentos_Solidity/Clase03/TaskManager.sol:TaskManager2",
								"label": "status",
								"offset": 0,
								"slot": "2",
								"type": "t_enum(TaskStatus)5"
							}
						],
						"numberOfBytes": "96"
					},
					"t_uint256": {
						"encoding": "inplace",
						"label": "uint256",
						"numberOfBytes": "32"
					}
				}
			},
			"userdoc": {
				"kind": "user",
				"methods": {},
				"version": 1
			}
		}
	}
}