{
	"contracts/M5_Final_Hackin2024/HackingGradeMe.sol": {
		"Hacker": {
			"abi": [
				{
					"inputs": [
						{
							"internalType": "address",
							"name": "_graderAddress",
							"type": "address"
						}
					],
					"stateMutability": "nonpayable",
					"type": "constructor"
				},
				{
					"inputs": [
						{
							"internalType": "string",
							"name": "name",
							"type": "string"
						}
					],
					"name": "exploit",
					"outputs": [],
					"stateMutability": "payable",
					"type": "function"
				},
				{
					"inputs": [],
					"name": "grader",
					"outputs": [
						{
							"internalType": "contract IGrader",
							"name": "",
							"type": "address"
						}
					],
					"stateMutability": "view",
					"type": "function"
				}
			],
			"devdoc": {
				"kind": "dev",
				"methods": {},
				"version": 1
			},
			"evm": {
				"assembly": "    /* \"contracts/M5_Final_Hackin2024/HackingGradeMe.sol\":329:1093  contract Hacker {... */\n  mstore(0x40, 0x80)\n    /* \"contracts/M5_Final_Hackin2024/HackingGradeMe.sol\":379:464  constructor(address _graderAddress) {... */\n  callvalue\n  dup1\n  iszero\n  tag_1\n  jumpi\n  0x00\n  dup1\n  revert\ntag_1:\n  pop\n  mload(0x40)\n  sub(codesize, bytecodeSize)\n  dup1\n  bytecodeSize\n  dup4\n  codecopy\n  dup2\n  dup2\n  add\n  0x40\n  mstore\n  dup2\n  add\n  swap1\n  tag_2\n  swap2\n  swap1\n  tag_3\n  jump\t// in\ntag_2:\n    /* \"contracts/M5_Final_Hackin2024/HackingGradeMe.sol\":442:456  _graderAddress */\n  dup1\n    /* \"contracts/M5_Final_Hackin2024/HackingGradeMe.sol\":425:431  grader */\n  0x00\n  dup1\n    /* \"contracts/M5_Final_Hackin2024/HackingGradeMe.sol\":425:457  grader = IGrader(_graderAddress) */\n  0x0100\n  exp\n  dup2\n  sload\n  dup2\n  0xffffffffffffffffffffffffffffffffffffffff\n  mul\n  not\n  and\n  swap1\n  dup4\n  0xffffffffffffffffffffffffffffffffffffffff\n  and\n  mul\n  or\n  swap1\n  sstore\n  pop\n    /* \"contracts/M5_Final_Hackin2024/HackingGradeMe.sol\":379:464  constructor(address _graderAddress) {... */\n  pop\n    /* \"contracts/M5_Final_Hackin2024/HackingGradeMe.sol\":329:1093  contract Hacker {... */\n  jump(tag_6)\n    /* \"#utility.yul\":88:205   */\ntag_8:\n    /* \"#utility.yul\":197:198   */\n  0x00\n    /* \"#utility.yul\":194:195   */\n  dup1\n    /* \"#utility.yul\":187:199   */\n  revert\n    /* \"#utility.yul\":334:460   */\ntag_10:\n    /* \"#utility.yul\":371:378   */\n  0x00\n    /* \"#utility.yul\":411:453   */\n  0xffffffffffffffffffffffffffffffffffffffff\n    /* \"#utility.yul\":404:409   */\n  dup3\n    /* \"#utility.yul\":400:454   */\n  and\n    /* \"#utility.yul\":389:454   */\n  swap1\n  pop\n    /* \"#utility.yul\":334:460   */\n  swap2\n  swap1\n  pop\n  jump\t// out\n    /* \"#utility.yul\":466:562   */\ntag_11:\n    /* \"#utility.yul\":503:510   */\n  0x00\n    /* \"#utility.yul\":532:556   */\n  tag_20\n    /* \"#utility.yul\":550:555   */\n  dup3\n    /* \"#utility.yul\":532:556   */\n  tag_10\n  jump\t// in\ntag_20:\n    /* \"#utility.yul\":521:556   */\n  swap1\n  pop\n    /* \"#utility.yul\":466:562   */\n  swap2\n  swap1\n  pop\n  jump\t// out\n    /* \"#utility.yul\":568:690   */\ntag_12:\n    /* \"#utility.yul\":641:665   */\n  tag_22\n    /* \"#utility.yul\":659:664   */\n  dup2\n    /* \"#utility.yul\":641:665   */\n  tag_11\n  jump\t// in\ntag_22:\n    /* \"#utility.yul\":634:639   */\n  dup2\n    /* \"#utility.yul\":631:666   */\n  eq\n    /* \"#utility.yul\":621:684   */\n  tag_23\n  jumpi\n    /* \"#utility.yul\":680:681   */\n  0x00\n    /* \"#utility.yul\":677:678   */\n  dup1\n    /* \"#utility.yul\":670:682   */\n  revert\n    /* \"#utility.yul\":621:684   */\ntag_23:\n    /* \"#utility.yul\":568:690   */\n  pop\n  jump\t// out\n    /* \"#utility.yul\":696:839   */\ntag_13:\n    /* \"#utility.yul\":753:758   */\n  0x00\n    /* \"#utility.yul\":784:790   */\n  dup2\n    /* \"#utility.yul\":778:791   */\n  mload\n    /* \"#utility.yul\":769:791   */\n  swap1\n  pop\n    /* \"#utility.yul\":800:833   */\n  tag_25\n    /* \"#utility.yul\":827:832   */\n  dup2\n    /* \"#utility.yul\":800:833   */\n  tag_12\n  jump\t// in\ntag_25:\n    /* \"#utility.yul\":696:839   */\n  swap3\n  swap2\n  pop\n  pop\n  jump\t// out\n    /* \"#utility.yul\":845:1196   */\ntag_3:\n    /* \"#utility.yul\":915:921   */\n  0x00\n    /* \"#utility.yul\":964:966   */\n  0x20\n    /* \"#utility.yul\":952:961   */\n  dup3\n    /* \"#utility.yul\":943:950   */\n  dup5\n    /* \"#utility.yul\":939:962   */\n  sub\n    /* \"#utility.yul\":935:967   */\n  slt\n    /* \"#utility.yul\":932:1051   */\n  iszero\n  tag_27\n  jumpi\n    /* \"#utility.yul\":970:1049   */\n  tag_28\n  tag_8\n  jump\t// in\ntag_28:\n    /* \"#utility.yul\":932:1051   */\ntag_27:\n    /* \"#utility.yul\":1090:1091   */\n  0x00\n    /* \"#utility.yul\":1115:1179   */\n  tag_29\n    /* \"#utility.yul\":1171:1178   */\n  dup5\n    /* \"#utility.yul\":1162:1168   */\n  dup3\n    /* \"#utility.yul\":1151:1160   */\n  dup6\n    /* \"#utility.yul\":1147:1169   */\n  add\n    /* \"#utility.yul\":1115:1179   */\n  tag_13\n  jump\t// in\ntag_29:\n    /* \"#utility.yul\":1105:1179   */\n  swap2\n  pop\n    /* \"#utility.yul\":1061:1189   */\n  pop\n    /* \"#utility.yul\":845:1196   */\n  swap3\n  swap2\n  pop\n  pop\n  jump\t// out\n    /* \"contracts/M5_Final_Hackin2024/HackingGradeMe.sol\":329:1093  contract Hacker {... */\ntag_6:\n  dataSize(sub_0)\n  dup1\n  dataOffset(sub_0)\n  0x00\n  codecopy\n  0x00\n  return\nstop\n\nsub_0: assembly {\n        /* \"contracts/M5_Final_Hackin2024/HackingGradeMe.sol\":329:1093  contract Hacker {... */\n      mstore(0x40, 0x80)\n      jumpi(tag_1, lt(calldatasize, 0x04))\n      shr(0xe0, calldataload(0x00))\n      dup1\n      0x013dbcc1\n      eq\n      tag_2\n      jumpi\n      dup1\n      0x5bc05526\n      eq\n      tag_3\n      jumpi\n    tag_1:\n      0x00\n      dup1\n      revert\n        /* \"contracts/M5_Final_Hackin2024/HackingGradeMe.sol\":470:1091  function exploit(string calldata name) public payable {... */\n    tag_2:\n      tag_4\n      0x04\n      dup1\n      calldatasize\n      sub\n      dup2\n      add\n      swap1\n      tag_5\n      swap2\n      swap1\n      tag_6\n      jump\t// in\n    tag_5:\n      tag_7\n      jump\t// in\n    tag_4:\n      stop\n        /* \"contracts/M5_Final_Hackin2024/HackingGradeMe.sol\":351:372  IGrader public grader */\n    tag_3:\n      callvalue\n      dup1\n      iszero\n      tag_8\n      jumpi\n      0x00\n      dup1\n      revert\n    tag_8:\n      pop\n      tag_9\n      tag_10\n      jump\t// in\n    tag_9:\n      mload(0x40)\n      tag_11\n      swap2\n      swap1\n      tag_12\n      jump\t// in\n    tag_11:\n      mload(0x40)\n      dup1\n      swap2\n      sub\n      swap1\n      return\n        /* \"contracts/M5_Final_Hackin2024/HackingGradeMe.sol\":470:1091  function exploit(string calldata name) public payable {... */\n    tag_7:\n        /* \"contracts/M5_Final_Hackin2024/HackingGradeMe.sol\":802:814  0.0006 ether */\n      0x0221b262dd8000\n        /* \"contracts/M5_Final_Hackin2024/HackingGradeMe.sol\":790:799  msg.value */\n      callvalue\n        /* \"contracts/M5_Final_Hackin2024/HackingGradeMe.sol\":790:814  msg.value > 0.0006 ether */\n      gt\n        /* \"contracts/M5_Final_Hackin2024/HackingGradeMe.sol\":782:843  require(msg.value > 0.0006 ether, \"Not enough ether for gas\") */\n      tag_14\n      jumpi\n      mload(0x40)\n      0x08c379a000000000000000000000000000000000000000000000000000000000\n      dup2\n      mstore\n      0x04\n      add\n      tag_15\n      swap1\n      tag_16\n      jump\t// in\n    tag_15:\n      mload(0x40)\n      dup1\n      swap2\n      sub\n      swap1\n      revert\n    tag_14:\n        /* \"contracts/M5_Final_Hackin2024/HackingGradeMe.sol\":888:894  grader */\n      0x00\n      dup1\n      sload\n      swap1\n      0x0100\n      exp\n      swap1\n      div\n      0xffffffffffffffffffffffffffffffffffffffff\n      and\n        /* \"contracts/M5_Final_Hackin2024/HackingGradeMe.sol\":888:903  grader.retrieve */\n      0xffffffffffffffffffffffffffffffffffffffff\n      and\n      0x2e64cec1\n        /* \"contracts/M5_Final_Hackin2024/HackingGradeMe.sol\":911:912  4 */\n      0x04\n        /* \"contracts/M5_Final_Hackin2024/HackingGradeMe.sol\":888:915  grader.retrieve{value: 4}() */\n      mload(0x40)\n      dup3\n      0xffffffff\n      and\n      0xe0\n      shl\n      dup2\n      mstore\n      0x04\n      add\n      0x00\n      mload(0x40)\n      dup1\n      dup4\n      sub\n      dup2\n      dup6\n      dup9\n      dup1\n      extcodesize\n      iszero\n      dup1\n      iszero\n      tag_17\n      jumpi\n      0x00\n      dup1\n      revert\n    tag_17:\n      pop\n      gas\n      call\n      iszero\n      dup1\n      iszero\n      tag_19\n      jumpi\n      returndatasize\n      0x00\n      dup1\n      returndatacopy\n      revert(0x00, returndatasize)\n    tag_19:\n      pop\n      pop\n      pop\n      pop\n      pop\n        /* \"contracts/M5_Final_Hackin2024/HackingGradeMe.sol\":925:931  grader */\n      0x00\n      dup1\n      sload\n      swap1\n      0x0100\n      exp\n      swap1\n      div\n      0xffffffffffffffffffffffffffffffffffffffff\n      and\n        /* \"contracts/M5_Final_Hackin2024/HackingGradeMe.sol\":925:941  grader.retrieve2 */\n      0xffffffffffffffffffffffffffffffffffffffff\n      and\n      0x2711432d\n        /* \"contracts/M5_Final_Hackin2024/HackingGradeMe.sol\":949:950  4 */\n      0x04\n        /* \"contracts/M5_Final_Hackin2024/HackingGradeMe.sol\":925:953  grader.retrieve2{value: 4}() */\n      mload(0x40)\n      dup3\n      0xffffffff\n      and\n      0xe0\n      shl\n      dup2\n      mstore\n      0x04\n      add\n      0x00\n      mload(0x40)\n      dup1\n      dup4\n      sub\n      dup2\n      dup6\n      dup9\n      dup1\n      extcodesize\n      iszero\n      dup1\n      iszero\n      tag_20\n      jumpi\n      0x00\n      dup1\n      revert\n    tag_20:\n      pop\n      gas\n      call\n      iszero\n      dup1\n      iszero\n      tag_22\n      jumpi\n      returndatasize\n      0x00\n      dup1\n      returndatacopy\n      revert(0x00, returndatasize)\n    tag_22:\n      pop\n      pop\n      pop\n      pop\n      pop\n        /* \"contracts/M5_Final_Hackin2024/HackingGradeMe.sol\":964:970  grader */\n      0x00\n      dup1\n      sload\n      swap1\n      0x0100\n      exp\n      swap1\n      div\n      0xffffffffffffffffffffffffffffffffffffffff\n      and\n        /* \"contracts/M5_Final_Hackin2024/HackingGradeMe.sol\":964:975  grader.mint */\n      0xffffffffffffffffffffffffffffffffffffffff\n      and\n      0x6a627842\n        /* \"contracts/M5_Final_Hackin2024/HackingGradeMe.sol\":976:986  msg.sender */\n      caller\n        /* \"contracts/M5_Final_Hackin2024/HackingGradeMe.sol\":964:987  grader.mint(msg.sender) */\n      mload(0x40)\n      dup3\n      0xffffffff\n      and\n      0xe0\n      shl\n      dup2\n      mstore\n      0x04\n      add\n      tag_23\n      swap2\n      swap1\n      tag_24\n      jump\t// in\n    tag_23:\n      0x00\n      mload(0x40)\n      dup1\n      dup4\n      sub\n      dup2\n      0x00\n      dup8\n      dup1\n      extcodesize\n      iszero\n      dup1\n      iszero\n      tag_25\n      jumpi\n      0x00\n      dup1\n      revert\n    tag_25:\n      pop\n      gas\n      call\n      iszero\n      dup1\n      iszero\n      tag_27\n      jumpi\n      returndatasize\n      0x00\n      dup1\n      returndatacopy\n      revert(0x00, returndatasize)\n    tag_27:\n      pop\n      pop\n      pop\n      pop\n        /* \"contracts/M5_Final_Hackin2024/HackingGradeMe.sol\":1037:1038  1 */\n      0x01\n        /* \"contracts/M5_Final_Hackin2024/HackingGradeMe.sol\":1005:1011  grader */\n      0x00\n      dup1\n      sload\n      swap1\n      0x0100\n      exp\n      swap1\n      div\n      0xffffffffffffffffffffffffffffffffffffffff\n      and\n        /* \"contracts/M5_Final_Hackin2024/HackingGradeMe.sol\":1005:1021  grader.balanceOf */\n      0xffffffffffffffffffffffffffffffffffffffff\n      and\n      0x70a08231\n        /* \"contracts/M5_Final_Hackin2024/HackingGradeMe.sol\":1022:1032  msg.sender */\n      caller\n        /* \"contracts/M5_Final_Hackin2024/HackingGradeMe.sol\":1005:1033  grader.balanceOf(msg.sender) */\n      mload(0x40)\n      dup3\n      0xffffffff\n      and\n      0xe0\n      shl\n      dup2\n      mstore\n      0x04\n      add\n      tag_28\n      swap2\n      swap1\n      tag_24\n      jump\t// in\n    tag_28:\n      0x20\n      mload(0x40)\n      dup1\n      dup4\n      sub\n      dup2\n      dup7\n      gas\n      staticcall\n      iszero\n      dup1\n      iszero\n      tag_30\n      jumpi\n      returndatasize\n      0x00\n      dup1\n      returndatacopy\n      revert(0x00, returndatasize)\n    tag_30:\n      pop\n      pop\n      pop\n      pop\n      mload(0x40)\n      returndatasize\n      not(0x1f)\n      0x1f\n      dup3\n      add\n      and\n      dup3\n      add\n      dup1\n      0x40\n      mstore\n      pop\n      dup2\n      add\n      swap1\n      tag_31\n      swap2\n      swap1\n      tag_32\n      jump\t// in\n    tag_31:\n        /* \"contracts/M5_Final_Hackin2024/HackingGradeMe.sol\":1005:1038  grader.balanceOf(msg.sender) == 1 */\n      eq\n        /* \"contracts/M5_Final_Hackin2024/HackingGradeMe.sol\":997:1054  require(grader.balanceOf(msg.sender) == 1, \"Mint failed\") */\n      tag_33\n      jumpi\n      mload(0x40)\n      0x08c379a000000000000000000000000000000000000000000000000000000000\n      dup2\n      mstore\n      0x04\n      add\n      tag_34\n      swap1\n      tag_35\n      jump\t// in\n    tag_34:\n      mload(0x40)\n      dup1\n      swap2\n      sub\n      swap1\n      revert\n    tag_33:\n        /* \"contracts/M5_Final_Hackin2024/HackingGradeMe.sol\":1064:1070  grader */\n      0x00\n      dup1\n      sload\n      swap1\n      0x0100\n      exp\n      swap1\n      div\n      0xffffffffffffffffffffffffffffffffffffffff\n      and\n        /* \"contracts/M5_Final_Hackin2024/HackingGradeMe.sol\":1064:1078  grader.gradeMe */\n      0xffffffffffffffffffffffffffffffffffffffff\n      and\n      0x1d86b167\n        /* \"contracts/M5_Final_Hackin2024/HackingGradeMe.sol\":1079:1083  name */\n      dup4\n      dup4\n        /* \"contracts/M5_Final_Hackin2024/HackingGradeMe.sol\":1064:1084  grader.gradeMe(name) */\n      mload(0x40)\n      dup4\n      0xffffffff\n      and\n      0xe0\n      shl\n      dup2\n      mstore\n      0x04\n      add\n      tag_36\n      swap3\n      swap2\n      swap1\n      tag_37\n      jump\t// in\n    tag_36:\n      0x00\n      mload(0x40)\n      dup1\n      dup4\n      sub\n      dup2\n      0x00\n      dup8\n      dup1\n      extcodesize\n      iszero\n      dup1\n      iszero\n      tag_38\n      jumpi\n      0x00\n      dup1\n      revert\n    tag_38:\n      pop\n      gas\n      call\n      iszero\n      dup1\n      iszero\n      tag_40\n      jumpi\n      returndatasize\n      0x00\n      dup1\n      returndatacopy\n      revert(0x00, returndatasize)\n    tag_40:\n      pop\n      pop\n      pop\n      pop\n        /* \"contracts/M5_Final_Hackin2024/HackingGradeMe.sol\":470:1091  function exploit(string calldata name) public payable {... */\n      pop\n      pop\n      jump\t// out\n        /* \"contracts/M5_Final_Hackin2024/HackingGradeMe.sol\":351:372  IGrader public grader */\n    tag_10:\n      0x00\n      dup1\n      sload\n      swap1\n      0x0100\n      exp\n      swap1\n      div\n      0xffffffffffffffffffffffffffffffffffffffff\n      and\n      dup2\n      jump\t// out\n        /* \"#utility.yul\":88:205   */\n    tag_42:\n        /* \"#utility.yul\":197:198   */\n      0x00\n        /* \"#utility.yul\":194:195   */\n      dup1\n        /* \"#utility.yul\":187:199   */\n      revert\n        /* \"#utility.yul\":211:328   */\n    tag_43:\n        /* \"#utility.yul\":320:321   */\n      0x00\n        /* \"#utility.yul\":317:318   */\n      dup1\n        /* \"#utility.yul\":310:322   */\n      revert\n        /* \"#utility.yul\":334:451   */\n    tag_44:\n        /* \"#utility.yul\":443:444   */\n      0x00\n        /* \"#utility.yul\":440:441   */\n      dup1\n        /* \"#utility.yul\":433:445   */\n      revert\n        /* \"#utility.yul\":457:574   */\n    tag_45:\n        /* \"#utility.yul\":566:567   */\n      0x00\n        /* \"#utility.yul\":563:564   */\n      dup1\n        /* \"#utility.yul\":556:568   */\n      revert\n        /* \"#utility.yul\":580:697   */\n    tag_46:\n        /* \"#utility.yul\":689:690   */\n      0x00\n        /* \"#utility.yul\":686:687   */\n      dup1\n        /* \"#utility.yul\":679:691   */\n      revert\n        /* \"#utility.yul\":717:1270   */\n    tag_47:\n        /* \"#utility.yul\":775:783   */\n      0x00\n        /* \"#utility.yul\":785:791   */\n      dup1\n        /* \"#utility.yul\":835:838   */\n      dup4\n        /* \"#utility.yul\":828:832   */\n      0x1f\n        /* \"#utility.yul\":820:826   */\n      dup5\n        /* \"#utility.yul\":816:833   */\n      add\n        /* \"#utility.yul\":812:839   */\n      slt\n        /* \"#utility.yul\":802:924   */\n      tag_75\n      jumpi\n        /* \"#utility.yul\":843:922   */\n      tag_76\n      tag_44\n      jump\t// in\n    tag_76:\n        /* \"#utility.yul\":802:924   */\n    tag_75:\n        /* \"#utility.yul\":956:962   */\n      dup3\n        /* \"#utility.yul\":943:963   */\n      calldataload\n        /* \"#utility.yul\":933:963   */\n      swap1\n      pop\n        /* \"#utility.yul\":986:1004   */\n      0xffffffffffffffff\n        /* \"#utility.yul\":978:984   */\n      dup2\n        /* \"#utility.yul\":975:1005   */\n      gt\n        /* \"#utility.yul\":972:1089   */\n      iszero\n      tag_77\n      jumpi\n        /* \"#utility.yul\":1008:1087   */\n      tag_78\n      tag_45\n      jump\t// in\n    tag_78:\n        /* \"#utility.yul\":972:1089   */\n    tag_77:\n        /* \"#utility.yul\":1122:1126   */\n      0x20\n        /* \"#utility.yul\":1114:1120   */\n      dup4\n        /* \"#utility.yul\":1110:1127   */\n      add\n        /* \"#utility.yul\":1098:1127   */\n      swap2\n      pop\n        /* \"#utility.yul\":1176:1179   */\n      dup4\n        /* \"#utility.yul\":1168:1172   */\n      0x01\n        /* \"#utility.yul\":1160:1166   */\n      dup3\n        /* \"#utility.yul\":1156:1173   */\n      mul\n        /* \"#utility.yul\":1146:1154   */\n      dup4\n        /* \"#utility.yul\":1142:1174   */\n      add\n        /* \"#utility.yul\":1139:1180   */\n      gt\n        /* \"#utility.yul\":1136:1264   */\n      iszero\n      tag_79\n      jumpi\n        /* \"#utility.yul\":1183:1262   */\n      tag_80\n      tag_46\n      jump\t// in\n    tag_80:\n        /* \"#utility.yul\":1136:1264   */\n    tag_79:\n        /* \"#utility.yul\":717:1270   */\n      swap3\n      pop\n      swap3\n      swap1\n      pop\n      jump\t// out\n        /* \"#utility.yul\":1276:1805   */\n    tag_6:\n        /* \"#utility.yul\":1347:1353   */\n      0x00\n        /* \"#utility.yul\":1355:1361   */\n      dup1\n        /* \"#utility.yul\":1404:1406   */\n      0x20\n        /* \"#utility.yul\":1392:1401   */\n      dup4\n        /* \"#utility.yul\":1383:1390   */\n      dup6\n        /* \"#utility.yul\":1379:1402   */\n      sub\n        /* \"#utility.yul\":1375:1407   */\n      slt\n        /* \"#utility.yul\":1372:1491   */\n      iszero\n      tag_82\n      jumpi\n        /* \"#utility.yul\":1410:1489   */\n      tag_83\n      tag_42\n      jump\t// in\n    tag_83:\n        /* \"#utility.yul\":1372:1491   */\n    tag_82:\n        /* \"#utility.yul\":1558:1559   */\n      0x00\n        /* \"#utility.yul\":1547:1556   */\n      dup4\n        /* \"#utility.yul\":1543:1560   */\n      add\n        /* \"#utility.yul\":1530:1561   */\n      calldataload\n        /* \"#utility.yul\":1588:1606   */\n      0xffffffffffffffff\n        /* \"#utility.yul\":1580:1586   */\n      dup2\n        /* \"#utility.yul\":1577:1607   */\n      gt\n        /* \"#utility.yul\":1574:1691   */\n      iszero\n      tag_84\n      jumpi\n        /* \"#utility.yul\":1610:1689   */\n      tag_85\n      tag_43\n      jump\t// in\n    tag_85:\n        /* \"#utility.yul\":1574:1691   */\n    tag_84:\n        /* \"#utility.yul\":1723:1788   */\n      tag_86\n        /* \"#utility.yul\":1780:1787   */\n      dup6\n        /* \"#utility.yul\":1771:1777   */\n      dup3\n        /* \"#utility.yul\":1760:1769   */\n      dup7\n        /* \"#utility.yul\":1756:1778   */\n      add\n        /* \"#utility.yul\":1723:1788   */\n      tag_47\n      jump\t// in\n    tag_86:\n        /* \"#utility.yul\":1705:1788   */\n      swap3\n      pop\n      swap3\n      pop\n        /* \"#utility.yul\":1501:1798   */\n      pop\n        /* \"#utility.yul\":1276:1805   */\n      swap3\n      pop\n      swap3\n      swap1\n      pop\n      jump\t// out\n        /* \"#utility.yul\":1811:1937   */\n    tag_48:\n        /* \"#utility.yul\":1848:1855   */\n      0x00\n        /* \"#utility.yul\":1888:1930   */\n      0xffffffffffffffffffffffffffffffffffffffff\n        /* \"#utility.yul\":1881:1886   */\n      dup3\n        /* \"#utility.yul\":1877:1931   */\n      and\n        /* \"#utility.yul\":1866:1931   */\n      swap1\n      pop\n        /* \"#utility.yul\":1811:1937   */\n      swap2\n      swap1\n      pop\n      jump\t// out\n        /* \"#utility.yul\":1943:2003   */\n    tag_49:\n        /* \"#utility.yul\":1971:1974   */\n      0x00\n        /* \"#utility.yul\":1992:1997   */\n      dup2\n        /* \"#utility.yul\":1985:1997   */\n      swap1\n      pop\n        /* \"#utility.yul\":1943:2003   */\n      swap2\n      swap1\n      pop\n      jump\t// out\n        /* \"#utility.yul\":2009:2151   */\n    tag_50:\n        /* \"#utility.yul\":2059:2068   */\n      0x00\n        /* \"#utility.yul\":2092:2145   */\n      tag_90\n        /* \"#utility.yul\":2110:2144   */\n      tag_91\n        /* \"#utility.yul\":2119:2143   */\n      tag_92\n        /* \"#utility.yul\":2137:2142   */\n      dup5\n        /* \"#utility.yul\":2119:2143   */\n      tag_48\n      jump\t// in\n    tag_92:\n        /* \"#utility.yul\":2110:2144   */\n      tag_49\n      jump\t// in\n    tag_91:\n        /* \"#utility.yul\":2092:2145   */\n      tag_48\n      jump\t// in\n    tag_90:\n        /* \"#utility.yul\":2079:2145   */\n      swap1\n      pop\n        /* \"#utility.yul\":2009:2151   */\n      swap2\n      swap1\n      pop\n      jump\t// out\n        /* \"#utility.yul\":2157:2283   */\n    tag_51:\n        /* \"#utility.yul\":2207:2216   */\n      0x00\n        /* \"#utility.yul\":2240:2277   */\n      tag_94\n        /* \"#utility.yul\":2271:2276   */\n      dup3\n        /* \"#utility.yul\":2240:2277   */\n      tag_50\n      jump\t// in\n    tag_94:\n        /* \"#utility.yul\":2227:2277   */\n      swap1\n      pop\n        /* \"#utility.yul\":2157:2283   */\n      swap2\n      swap1\n      pop\n      jump\t// out\n        /* \"#utility.yul\":2289:2429   */\n    tag_52:\n        /* \"#utility.yul\":2353:2362   */\n      0x00\n        /* \"#utility.yul\":2386:2423   */\n      tag_96\n        /* \"#utility.yul\":2417:2422   */\n      dup3\n        /* \"#utility.yul\":2386:2423   */\n      tag_51\n      jump\t// in\n    tag_96:\n        /* \"#utility.yul\":2373:2423   */\n      swap1\n      pop\n        /* \"#utility.yul\":2289:2429   */\n      swap2\n      swap1\n      pop\n      jump\t// out\n        /* \"#utility.yul\":2435:2594   */\n    tag_53:\n        /* \"#utility.yul\":2536:2587   */\n      tag_98\n        /* \"#utility.yul\":2581:2586   */\n      dup2\n        /* \"#utility.yul\":2536:2587   */\n      tag_52\n      jump\t// in\n    tag_98:\n        /* \"#utility.yul\":2531:2534   */\n      dup3\n        /* \"#utility.yul\":2524:2588   */\n      mstore\n        /* \"#utility.yul\":2435:2594   */\n      pop\n      pop\n      jump\t// out\n        /* \"#utility.yul\":2600:2850   */\n    tag_12:\n        /* \"#utility.yul\":2707:2711   */\n      0x00\n        /* \"#utility.yul\":2745:2747   */\n      0x20\n        /* \"#utility.yul\":2734:2743   */\n      dup3\n        /* \"#utility.yul\":2730:2748   */\n      add\n        /* \"#utility.yul\":2722:2748   */\n      swap1\n      pop\n        /* \"#utility.yul\":2758:2843   */\n      tag_100\n        /* \"#utility.yul\":2840:2841   */\n      0x00\n        /* \"#utility.yul\":2829:2838   */\n      dup4\n        /* \"#utility.yul\":2825:2842   */\n      add\n        /* \"#utility.yul\":2816:2822   */\n      dup5\n        /* \"#utility.yul\":2758:2843   */\n      tag_53\n      jump\t// in\n    tag_100:\n        /* \"#utility.yul\":2600:2850   */\n      swap3\n      swap2\n      pop\n      pop\n      jump\t// out\n        /* \"#utility.yul\":2856:3025   */\n    tag_54:\n        /* \"#utility.yul\":2940:2951   */\n      0x00\n        /* \"#utility.yul\":2974:2980   */\n      dup3\n        /* \"#utility.yul\":2969:2972   */\n      dup3\n        /* \"#utility.yul\":2962:2981   */\n      mstore\n        /* \"#utility.yul\":3014:3018   */\n      0x20\n        /* \"#utility.yul\":3009:3012   */\n      dup3\n        /* \"#utility.yul\":3005:3019   */\n      add\n        /* \"#utility.yul\":2990:3019   */\n      swap1\n      pop\n        /* \"#utility.yul\":2856:3025   */\n      swap3\n      swap2\n      pop\n      pop\n      jump\t// out\n        /* \"#utility.yul\":3031:3205   */\n    tag_55:\n        /* \"#utility.yul\":3171:3197   */\n      0x4e6f7420656e6f75676820657468657220666f72206761730000000000000000\n        /* \"#utility.yul\":3167:3168   */\n      0x00\n        /* \"#utility.yul\":3159:3165   */\n      dup3\n        /* \"#utility.yul\":3155:3169   */\n      add\n        /* \"#utility.yul\":3148:3198   */\n      mstore\n        /* \"#utility.yul\":3031:3205   */\n      pop\n      jump\t// out\n        /* \"#utility.yul\":3211:3577   */\n    tag_56:\n        /* \"#utility.yul\":3353:3356   */\n      0x00\n        /* \"#utility.yul\":3374:3441   */\n      tag_104\n        /* \"#utility.yul\":3438:3440   */\n      0x18\n        /* \"#utility.yul\":3433:3436   */\n      dup4\n        /* \"#utility.yul\":3374:3441   */\n      tag_54\n      jump\t// in\n    tag_104:\n        /* \"#utility.yul\":3367:3441   */\n      swap2\n      pop\n        /* \"#utility.yul\":3450:3543   */\n      tag_105\n        /* \"#utility.yul\":3539:3542   */\n      dup3\n        /* \"#utility.yul\":3450:3543   */\n      tag_55\n      jump\t// in\n    tag_105:\n        /* \"#utility.yul\":3568:3570   */\n      0x20\n        /* \"#utility.yul\":3563:3566   */\n      dup3\n        /* \"#utility.yul\":3559:3571   */\n      add\n        /* \"#utility.yul\":3552:3571   */\n      swap1\n      pop\n        /* \"#utility.yul\":3211:3577   */\n      swap2\n      swap1\n      pop\n      jump\t// out\n        /* \"#utility.yul\":3583:4002   */\n    tag_16:\n        /* \"#utility.yul\":3749:3753   */\n      0x00\n        /* \"#utility.yul\":3787:3789   */\n      0x20\n        /* \"#utility.yul\":3776:3785   */\n      dup3\n        /* \"#utility.yul\":3772:3790   */\n      add\n        /* \"#utility.yul\":3764:3790   */\n      swap1\n      pop\n        /* \"#utility.yul\":3836:3845   */\n      dup2\n        /* \"#utility.yul\":3830:3834   */\n      dup2\n        /* \"#utility.yul\":3826:3846   */\n      sub\n        /* \"#utility.yul\":3822:3823   */\n      0x00\n        /* \"#utility.yul\":3811:3820   */\n      dup4\n        /* \"#utility.yul\":3807:3824   */\n      add\n        /* \"#utility.yul\":3800:3847   */\n      mstore\n        /* \"#utility.yul\":3864:3995   */\n      tag_107\n        /* \"#utility.yul\":3990:3994   */\n      dup2\n        /* \"#utility.yul\":3864:3995   */\n      tag_56\n      jump\t// in\n    tag_107:\n        /* \"#utility.yul\":3856:3995   */\n      swap1\n      pop\n        /* \"#utility.yul\":3583:4002   */\n      swap2\n      swap1\n      pop\n      jump\t// out\n        /* \"#utility.yul\":4008:4104   */\n    tag_57:\n        /* \"#utility.yul\":4045:4052   */\n      0x00\n        /* \"#utility.yul\":4074:4098   */\n      tag_109\n        /* \"#utility.yul\":4092:4097   */\n      dup3\n        /* \"#utility.yul\":4074:4098   */\n      tag_48\n      jump\t// in\n    tag_109:\n        /* \"#utility.yul\":4063:4098   */\n      swap1\n      pop\n        /* \"#utility.yul\":4008:4104   */\n      swap2\n      swap1\n      pop\n      jump\t// out\n        /* \"#utility.yul\":4110:4228   */\n    tag_58:\n        /* \"#utility.yul\":4197:4221   */\n      tag_111\n        /* \"#utility.yul\":4215:4220   */\n      dup2\n        /* \"#utility.yul\":4197:4221   */\n      tag_57\n      jump\t// in\n    tag_111:\n        /* \"#utility.yul\":4192:4195   */\n      dup3\n        /* \"#utility.yul\":4185:4222   */\n      mstore\n        /* \"#utility.yul\":4110:4228   */\n      pop\n      pop\n      jump\t// out\n        /* \"#utility.yul\":4234:4456   */\n    tag_24:\n        /* \"#utility.yul\":4327:4331   */\n      0x00\n        /* \"#utility.yul\":4365:4367   */\n      0x20\n        /* \"#utility.yul\":4354:4363   */\n      dup3\n        /* \"#utility.yul\":4350:4368   */\n      add\n        /* \"#utility.yul\":4342:4368   */\n      swap1\n      pop\n        /* \"#utility.yul\":4378:4449   */\n      tag_113\n        /* \"#utility.yul\":4446:4447   */\n      0x00\n        /* \"#utility.yul\":4435:4444   */\n      dup4\n        /* \"#utility.yul\":4431:4448   */\n      add\n        /* \"#utility.yul\":4422:4428   */\n      dup5\n        /* \"#utility.yul\":4378:4449   */\n      tag_58\n      jump\t// in\n    tag_113:\n        /* \"#utility.yul\":4234:4456   */\n      swap3\n      swap2\n      pop\n      pop\n      jump\t// out\n        /* \"#utility.yul\":4462:4539   */\n    tag_59:\n        /* \"#utility.yul\":4499:4506   */\n      0x00\n        /* \"#utility.yul\":4528:4533   */\n      dup2\n        /* \"#utility.yul\":4517:4533   */\n      swap1\n      pop\n        /* \"#utility.yul\":4462:4539   */\n      swap2\n      swap1\n      pop\n      jump\t// out\n        /* \"#utility.yul\":4545:4667   */\n    tag_60:\n        /* \"#utility.yul\":4618:4642   */\n      tag_116\n        /* \"#utility.yul\":4636:4641   */\n      dup2\n        /* \"#utility.yul\":4618:4642   */\n      tag_59\n      jump\t// in\n    tag_116:\n        /* \"#utility.yul\":4611:4616   */\n      dup2\n        /* \"#utility.yul\":4608:4643   */\n      eq\n        /* \"#utility.yul\":4598:4661   */\n      tag_117\n      jumpi\n        /* \"#utility.yul\":4657:4658   */\n      0x00\n        /* \"#utility.yul\":4654:4655   */\n      dup1\n        /* \"#utility.yul\":4647:4659   */\n      revert\n        /* \"#utility.yul\":4598:4661   */\n    tag_117:\n        /* \"#utility.yul\":4545:4667   */\n      pop\n      jump\t// out\n        /* \"#utility.yul\":4673:4816   */\n    tag_61:\n        /* \"#utility.yul\":4730:4735   */\n      0x00\n        /* \"#utility.yul\":4761:4767   */\n      dup2\n        /* \"#utility.yul\":4755:4768   */\n      mload\n        /* \"#utility.yul\":4746:4768   */\n      swap1\n      pop\n        /* \"#utility.yul\":4777:4810   */\n      tag_119\n        /* \"#utility.yul\":4804:4809   */\n      dup2\n        /* \"#utility.yul\":4777:4810   */\n      tag_60\n      jump\t// in\n    tag_119:\n        /* \"#utility.yul\":4673:4816   */\n      swap3\n      swap2\n      pop\n      pop\n      jump\t// out\n        /* \"#utility.yul\":4822:5173   */\n    tag_32:\n        /* \"#utility.yul\":4892:4898   */\n      0x00\n        /* \"#utility.yul\":4941:4943   */\n      0x20\n        /* \"#utility.yul\":4929:4938   */\n      dup3\n        /* \"#utility.yul\":4920:4927   */\n      dup5\n        /* \"#utility.yul\":4916:4939   */\n      sub\n        /* \"#utility.yul\":4912:4944   */\n      slt\n        /* \"#utility.yul\":4909:5028   */\n      iszero\n      tag_121\n      jumpi\n        /* \"#utility.yul\":4947:5026   */\n      tag_122\n      tag_42\n      jump\t// in\n    tag_122:\n        /* \"#utility.yul\":4909:5028   */\n    tag_121:\n        /* \"#utility.yul\":5067:5068   */\n      0x00\n        /* \"#utility.yul\":5092:5156   */\n      tag_123\n        /* \"#utility.yul\":5148:5155   */\n      dup5\n        /* \"#utility.yul\":5139:5145   */\n      dup3\n        /* \"#utility.yul\":5128:5137   */\n      dup6\n        /* \"#utility.yul\":5124:5146   */\n      add\n        /* \"#utility.yul\":5092:5156   */\n      tag_61\n      jump\t// in\n    tag_123:\n        /* \"#utility.yul\":5082:5156   */\n      swap2\n      pop\n        /* \"#utility.yul\":5038:5166   */\n      pop\n        /* \"#utility.yul\":4822:5173   */\n      swap3\n      swap2\n      pop\n      pop\n      jump\t// out\n        /* \"#utility.yul\":5179:5340   */\n    tag_62:\n        /* \"#utility.yul\":5319:5332   */\n      0x4d696e74206661696c6564000000000000000000000000000000000000000000\n        /* \"#utility.yul\":5315:5316   */\n      0x00\n        /* \"#utility.yul\":5307:5313   */\n      dup3\n        /* \"#utility.yul\":5303:5317   */\n      add\n        /* \"#utility.yul\":5296:5333   */\n      mstore\n        /* \"#utility.yul\":5179:5340   */\n      pop\n      jump\t// out\n        /* \"#utility.yul\":5346:5712   */\n    tag_63:\n        /* \"#utility.yul\":5488:5491   */\n      0x00\n        /* \"#utility.yul\":5509:5576   */\n      tag_126\n        /* \"#utility.yul\":5573:5575   */\n      0x0b\n        /* \"#utility.yul\":5568:5571   */\n      dup4\n        /* \"#utility.yul\":5509:5576   */\n      tag_54\n      jump\t// in\n    tag_126:\n        /* \"#utility.yul\":5502:5576   */\n      swap2\n      pop\n        /* \"#utility.yul\":5585:5678   */\n      tag_127\n        /* \"#utility.yul\":5674:5677   */\n      dup3\n        /* \"#utility.yul\":5585:5678   */\n      tag_62\n      jump\t// in\n    tag_127:\n        /* \"#utility.yul\":5703:5705   */\n      0x20\n        /* \"#utility.yul\":5698:5701   */\n      dup3\n        /* \"#utility.yul\":5694:5706   */\n      add\n        /* \"#utility.yul\":5687:5706   */\n      swap1\n      pop\n        /* \"#utility.yul\":5346:5712   */\n      swap2\n      swap1\n      pop\n      jump\t// out\n        /* \"#utility.yul\":5718:6137   */\n    tag_35:\n        /* \"#utility.yul\":5884:5888   */\n      0x00\n        /* \"#utility.yul\":5922:5924   */\n      0x20\n        /* \"#utility.yul\":5911:5920   */\n      dup3\n        /* \"#utility.yul\":5907:5925   */\n      add\n        /* \"#utility.yul\":5899:5925   */\n      swap1\n      pop\n        /* \"#utility.yul\":5971:5980   */\n      dup2\n        /* \"#utility.yul\":5965:5969   */\n      dup2\n        /* \"#utility.yul\":5961:5981   */\n      sub\n        /* \"#utility.yul\":5957:5958   */\n      0x00\n        /* \"#utility.yul\":5946:5955   */\n      dup4\n        /* \"#utility.yul\":5942:5959   */\n      add\n        /* \"#utility.yul\":5935:5982   */\n      mstore\n        /* \"#utility.yul\":5999:6130   */\n      tag_129\n        /* \"#utility.yul\":6125:6129   */\n      dup2\n        /* \"#utility.yul\":5999:6130   */\n      tag_63\n      jump\t// in\n    tag_129:\n        /* \"#utility.yul\":5991:6130   */\n      swap1\n      pop\n        /* \"#utility.yul\":5718:6137   */\n      swap2\n      swap1\n      pop\n      jump\t// out\n        /* \"#utility.yul\":6143:6291   */\n    tag_64:\n        /* \"#utility.yul\":6241:6247   */\n      dup3\n        /* \"#utility.yul\":6236:6239   */\n      dup2\n        /* \"#utility.yul\":6231:6234   */\n      dup4\n        /* \"#utility.yul\":6218:6248   */\n      calldatacopy\n        /* \"#utility.yul\":6282:6283   */\n      0x00\n        /* \"#utility.yul\":6273:6279   */\n      dup4\n        /* \"#utility.yul\":6268:6271   */\n      dup4\n        /* \"#utility.yul\":6264:6280   */\n      add\n        /* \"#utility.yul\":6257:6284   */\n      mstore\n        /* \"#utility.yul\":6143:6291   */\n      pop\n      pop\n      pop\n      jump\t// out\n        /* \"#utility.yul\":6297:6399   */\n    tag_65:\n        /* \"#utility.yul\":6338:6344   */\n      0x00\n        /* \"#utility.yul\":6389:6391   */\n      0x1f\n        /* \"#utility.yul\":6385:6392   */\n      not\n        /* \"#utility.yul\":6380:6382   */\n      0x1f\n        /* \"#utility.yul\":6373:6378   */\n      dup4\n        /* \"#utility.yul\":6369:6383   */\n      add\n        /* \"#utility.yul\":6365:6393   */\n      and\n        /* \"#utility.yul\":6355:6393   */\n      swap1\n      pop\n        /* \"#utility.yul\":6297:6399   */\n      swap2\n      swap1\n      pop\n      jump\t// out\n        /* \"#utility.yul\":6429:6746   */\n    tag_66:\n        /* \"#utility.yul\":6527:6530   */\n      0x00\n        /* \"#utility.yul\":6548:6619   */\n      tag_133\n        /* \"#utility.yul\":6612:6618   */\n      dup4\n        /* \"#utility.yul\":6607:6610   */\n      dup6\n        /* \"#utility.yul\":6548:6619   */\n      tag_54\n      jump\t// in\n    tag_133:\n        /* \"#utility.yul\":6541:6619   */\n      swap4\n      pop\n        /* \"#utility.yul\":6629:6685   */\n      tag_134\n        /* \"#utility.yul\":6678:6684   */\n      dup4\n        /* \"#utility.yul\":6673:6676   */\n      dup6\n        /* \"#utility.yul\":6666:6671   */\n      dup5\n        /* \"#utility.yul\":6629:6685   */\n      tag_64\n      jump\t// in\n    tag_134:\n        /* \"#utility.yul\":6710:6739   */\n      tag_135\n        /* \"#utility.yul\":6732:6738   */\n      dup4\n        /* \"#utility.yul\":6710:6739   */\n      tag_65\n      jump\t// in\n    tag_135:\n        /* \"#utility.yul\":6705:6708   */\n      dup5\n        /* \"#utility.yul\":6701:6740   */\n      add\n        /* \"#utility.yul\":6694:6740   */\n      swap1\n      pop\n        /* \"#utility.yul\":6429:6746   */\n      swap4\n      swap3\n      pop\n      pop\n      pop\n      jump\t// out\n        /* \"#utility.yul\":6752:7085   */\n    tag_37:\n        /* \"#utility.yul\":6875:6879   */\n      0x00\n        /* \"#utility.yul\":6913:6915   */\n      0x20\n        /* \"#utility.yul\":6902:6911   */\n      dup3\n        /* \"#utility.yul\":6898:6916   */\n      add\n        /* \"#utility.yul\":6890:6916   */\n      swap1\n      pop\n        /* \"#utility.yul\":6962:6971   */\n      dup2\n        /* \"#utility.yul\":6956:6960   */\n      dup2\n        /* \"#utility.yul\":6952:6972   */\n      sub\n        /* \"#utility.yul\":6948:6949   */\n      0x00\n        /* \"#utility.yul\":6937:6946   */\n      dup4\n        /* \"#utility.yul\":6933:6950   */\n      add\n        /* \"#utility.yul\":6926:6973   */\n      mstore\n        /* \"#utility.yul\":6990:7078   */\n      tag_137\n        /* \"#utility.yul\":7073:7077   */\n      dup2\n        /* \"#utility.yul\":7064:7070   */\n      dup5\n        /* \"#utility.yul\":7056:7062   */\n      dup7\n        /* \"#utility.yul\":6990:7078   */\n      tag_66\n      jump\t// in\n    tag_137:\n        /* \"#utility.yul\":6982:7078   */\n      swap1\n      pop\n        /* \"#utility.yul\":6752:7085   */\n      swap4\n      swap3\n      pop\n      pop\n      pop\n      jump\t// out\n\n    auxdata: 0xa26469706673582212206b99a8324feb1c0800883ff2388a35d2c0c3bea49b9455b622bbccaf47d6827764736f6c634300081a0033\n}\n",
				"bytecode": {
					"linkReferences": {},
					"object": "608060405234801561000f575f80fd5b5060405161082d38038061082d833981810160405281019061003191906100d4565b805f806101000a81548173ffffffffffffffffffffffffffffffffffffffff021916908373ffffffffffffffffffffffffffffffffffffffff160217905550506100ff565b5f80fd5b5f73ffffffffffffffffffffffffffffffffffffffff82169050919050565b5f6100a38261007a565b9050919050565b6100b381610099565b81146100bd575f80fd5b50565b5f815190506100ce816100aa565b92915050565b5f602082840312156100e9576100e8610076565b5b5f6100f6848285016100c0565b91505092915050565b6107218061010c5f395ff3fe608060405260043610610028575f3560e01c8063013dbcc11461002c5780635bc0552614610048575b5f80fd5b6100466004803603810190610041919061042a565b610072565b005b348015610053575f80fd5b5061005c61039e565b60405161006991906104ef565b60405180910390f35b660221b262dd800034116100bb576040517f08c379a00000000000000000000000000000000000000000000000000000000081526004016100b290610562565b60405180910390fd5b5f8054906101000a900473ffffffffffffffffffffffffffffffffffffffff1673ffffffffffffffffffffffffffffffffffffffff16632e64cec160046040518263ffffffff1660e01b81526004015f604051808303818588803b158015610121575f80fd5b505af1158015610133573d5f803e3d5ffd5b50505050505f8054906101000a900473ffffffffffffffffffffffffffffffffffffffff1673ffffffffffffffffffffffffffffffffffffffff16632711432d60046040518263ffffffff1660e01b81526004015f604051808303818588803b15801561019e575f80fd5b505af11580156101b0573d5f803e3d5ffd5b50505050505f8054906101000a900473ffffffffffffffffffffffffffffffffffffffff1673ffffffffffffffffffffffffffffffffffffffff16636a627842336040518263ffffffff1660e01b815260040161020d91906105a0565b5f604051808303815f87803b158015610224575f80fd5b505af1158015610236573d5f803e3d5ffd5b5050505060015f8054906101000a900473ffffffffffffffffffffffffffffffffffffffff1673ffffffffffffffffffffffffffffffffffffffff166370a08231336040518263ffffffff1660e01b815260040161029491906105a0565b602060405180830381865afa1580156102af573d5f803e3d5ffd5b505050506040513d601f19601f820116820180604052508101906102d391906105ec565b14610313576040517f08c379a000000000000000000000000000000000000000000000000000000000815260040161030a90610661565b60405180910390fd5b5f8054906101000a900473ffffffffffffffffffffffffffffffffffffffff1673ffffffffffffffffffffffffffffffffffffffff16631d86b16783836040518363ffffffff1660e01b815260040161036d9291906106c9565b5f604051808303815f87803b158015610384575f80fd5b505af1158015610396573d5f803e3d5ffd5b505050505050565b5f8054906101000a900473ffffffffffffffffffffffffffffffffffffffff1681565b5f80fd5b5f80fd5b5f80fd5b5f80fd5b5f80fd5b5f8083601f8401126103ea576103e96103c9565b5b8235905067ffffffffffffffff811115610407576104066103cd565b5b602083019150836001820283011115610423576104226103d1565b5b9250929050565b5f80602083850312156104405761043f6103c1565b5b5f83013567ffffffffffffffff81111561045d5761045c6103c5565b5b610469858286016103d5565b92509250509250929050565b5f73ffffffffffffffffffffffffffffffffffffffff82169050919050565b5f819050919050565b5f6104b76104b26104ad84610475565b610494565b610475565b9050919050565b5f6104c88261049d565b9050919050565b5f6104d9826104be565b9050919050565b6104e9816104cf565b82525050565b5f6020820190506105025f8301846104e0565b92915050565b5f82825260208201905092915050565b7f4e6f7420656e6f75676820657468657220666f722067617300000000000000005f82015250565b5f61054c601883610508565b915061055782610518565b602082019050919050565b5f6020820190508181035f83015261057981610540565b9050919050565b5f61058a82610475565b9050919050565b61059a81610580565b82525050565b5f6020820190506105b35f830184610591565b92915050565b5f819050919050565b6105cb816105b9565b81146105d5575f80fd5b50565b5f815190506105e6816105c2565b92915050565b5f60208284031215610601576106006103c1565b5b5f61060e848285016105d8565b91505092915050565b7f4d696e74206661696c65640000000000000000000000000000000000000000005f82015250565b5f61064b600b83610508565b915061065682610617565b602082019050919050565b5f6020820190508181035f8301526106788161063f565b9050919050565b828183375f83830152505050565b5f601f19601f8301169050919050565b5f6106a88385610508565b93506106b583858461067f565b6106be8361068d565b840190509392505050565b5f6020820190508181035f8301526106e281848661069d565b9050939250505056fea26469706673582212206b99a8324feb1c0800883ff2388a35d2c0c3bea49b9455b622bbccaf47d6827764736f6c634300081a0033",
					"opcodes": "PUSH1 0x80 PUSH1 0x40 MSTORE CALLVALUE DUP1 ISZERO PUSH2 0xF JUMPI PUSH0 DUP1 REVERT JUMPDEST POP PUSH1 0x40 MLOAD PUSH2 0x82D CODESIZE SUB DUP1 PUSH2 0x82D DUP4 CODECOPY DUP2 DUP2 ADD PUSH1 0x40 MSTORE DUP2 ADD SWAP1 PUSH2 0x31 SWAP2 SWAP1 PUSH2 0xD4 JUMP JUMPDEST DUP1 PUSH0 DUP1 PUSH2 0x100 EXP DUP2 SLOAD DUP2 PUSH20 0xFFFFFFFFFFFFFFFFFFFFFFFFFFFFFFFFFFFFFFFF MUL NOT AND SWAP1 DUP4 PUSH20 0xFFFFFFFFFFFFFFFFFFFFFFFFFFFFFFFFFFFFFFFF AND MUL OR SWAP1 SSTORE POP POP PUSH2 0xFF JUMP JUMPDEST PUSH0 DUP1 REVERT JUMPDEST PUSH0 PUSH20 0xFFFFFFFFFFFFFFFFFFFFFFFFFFFFFFFFFFFFFFFF DUP3 AND SWAP1 POP SWAP2 SWAP1 POP JUMP JUMPDEST PUSH0 PUSH2 0xA3 DUP3 PUSH2 0x7A JUMP JUMPDEST SWAP1 POP SWAP2 SWAP1 POP JUMP JUMPDEST PUSH2 0xB3 DUP2 PUSH2 0x99 JUMP JUMPDEST DUP2 EQ PUSH2 0xBD JUMPI PUSH0 DUP1 REVERT JUMPDEST POP JUMP JUMPDEST PUSH0 DUP2 MLOAD SWAP1 POP PUSH2 0xCE DUP2 PUSH2 0xAA JUMP JUMPDEST SWAP3 SWAP2 POP POP JUMP JUMPDEST PUSH0 PUSH1 0x20 DUP3 DUP5 SUB SLT ISZERO PUSH2 0xE9 JUMPI PUSH2 0xE8 PUSH2 0x76 JUMP JUMPDEST JUMPDEST PUSH0 PUSH2 0xF6 DUP5 DUP3 DUP6 ADD PUSH2 0xC0 JUMP JUMPDEST SWAP2 POP POP SWAP3 SWAP2 POP POP JUMP JUMPDEST PUSH2 0x721 DUP1 PUSH2 0x10C PUSH0 CODECOPY PUSH0 RETURN INVALID PUSH1 0x80 PUSH1 0x40 MSTORE PUSH1 0x4 CALLDATASIZE LT PUSH2 0x28 JUMPI PUSH0 CALLDATALOAD PUSH1 0xE0 SHR DUP1 PUSH4 0x13DBCC1 EQ PUSH2 0x2C JUMPI DUP1 PUSH4 0x5BC05526 EQ PUSH2 0x48 JUMPI JUMPDEST PUSH0 DUP1 REVERT JUMPDEST PUSH2 0x46 PUSH1 0x4 DUP1 CALLDATASIZE SUB DUP2 ADD SWAP1 PUSH2 0x41 SWAP2 SWAP1 PUSH2 0x42A JUMP JUMPDEST PUSH2 0x72 JUMP JUMPDEST STOP JUMPDEST CALLVALUE DUP1 ISZERO PUSH2 0x53 JUMPI PUSH0 DUP1 REVERT JUMPDEST POP PUSH2 0x5C PUSH2 0x39E JUMP JUMPDEST PUSH1 0x40 MLOAD PUSH2 0x69 SWAP2 SWAP1 PUSH2 0x4EF JUMP JUMPDEST PUSH1 0x40 MLOAD DUP1 SWAP2 SUB SWAP1 RETURN JUMPDEST PUSH7 0x221B262DD8000 CALLVALUE GT PUSH2 0xBB JUMPI PUSH1 0x40 MLOAD PUSH32 0x8C379A000000000000000000000000000000000000000000000000000000000 DUP2 MSTORE PUSH1 0x4 ADD PUSH2 0xB2 SWAP1 PUSH2 0x562 JUMP JUMPDEST PUSH1 0x40 MLOAD DUP1 SWAP2 SUB SWAP1 REVERT JUMPDEST PUSH0 DUP1 SLOAD SWAP1 PUSH2 0x100 EXP SWAP1 DIV PUSH20 0xFFFFFFFFFFFFFFFFFFFFFFFFFFFFFFFFFFFFFFFF AND PUSH20 0xFFFFFFFFFFFFFFFFFFFFFFFFFFFFFFFFFFFFFFFF AND PUSH4 0x2E64CEC1 PUSH1 0x4 PUSH1 0x40 MLOAD DUP3 PUSH4 0xFFFFFFFF AND PUSH1 0xE0 SHL DUP2 MSTORE PUSH1 0x4 ADD PUSH0 PUSH1 0x40 MLOAD DUP1 DUP4 SUB DUP2 DUP6 DUP9 DUP1 EXTCODESIZE ISZERO DUP1 ISZERO PUSH2 0x121 JUMPI PUSH0 DUP1 REVERT JUMPDEST POP GAS CALL ISZERO DUP1 ISZERO PUSH2 0x133 JUMPI RETURNDATASIZE PUSH0 DUP1 RETURNDATACOPY RETURNDATASIZE PUSH0 REVERT JUMPDEST POP POP POP POP POP PUSH0 DUP1 SLOAD SWAP1 PUSH2 0x100 EXP SWAP1 DIV PUSH20 0xFFFFFFFFFFFFFFFFFFFFFFFFFFFFFFFFFFFFFFFF AND PUSH20 0xFFFFFFFFFFFFFFFFFFFFFFFFFFFFFFFFFFFFFFFF AND PUSH4 0x2711432D PUSH1 0x4 PUSH1 0x40 MLOAD DUP3 PUSH4 0xFFFFFFFF AND PUSH1 0xE0 SHL DUP2 MSTORE PUSH1 0x4 ADD PUSH0 PUSH1 0x40 MLOAD DUP1 DUP4 SUB DUP2 DUP6 DUP9 DUP1 EXTCODESIZE ISZERO DUP1 ISZERO PUSH2 0x19E JUMPI PUSH0 DUP1 REVERT JUMPDEST POP GAS CALL ISZERO DUP1 ISZERO PUSH2 0x1B0 JUMPI RETURNDATASIZE PUSH0 DUP1 RETURNDATACOPY RETURNDATASIZE PUSH0 REVERT JUMPDEST POP POP POP POP POP PUSH0 DUP1 SLOAD SWAP1 PUSH2 0x100 EXP SWAP1 DIV PUSH20 0xFFFFFFFFFFFFFFFFFFFFFFFFFFFFFFFFFFFFFFFF AND PUSH20 0xFFFFFFFFFFFFFFFFFFFFFFFFFFFFFFFFFFFFFFFF AND PUSH4 0x6A627842 CALLER PUSH1 0x40 MLOAD DUP3 PUSH4 0xFFFFFFFF AND PUSH1 0xE0 SHL DUP2 MSTORE PUSH1 0x4 ADD PUSH2 0x20D SWAP2 SWAP1 PUSH2 0x5A0 JUMP JUMPDEST PUSH0 PUSH1 0x40 MLOAD DUP1 DUP4 SUB DUP2 PUSH0 DUP8 DUP1 EXTCODESIZE ISZERO DUP1 ISZERO PUSH2 0x224 JUMPI PUSH0 DUP1 REVERT JUMPDEST POP GAS CALL ISZERO DUP1 ISZERO PUSH2 0x236 JUMPI RETURNDATASIZE PUSH0 DUP1 RETURNDATACOPY RETURNDATASIZE PUSH0 REVERT JUMPDEST POP POP POP POP PUSH1 0x1 PUSH0 DUP1 SLOAD SWAP1 PUSH2 0x100 EXP SWAP1 DIV PUSH20 0xFFFFFFFFFFFFFFFFFFFFFFFFFFFFFFFFFFFFFFFF AND PUSH20 0xFFFFFFFFFFFFFFFFFFFFFFFFFFFFFFFFFFFFFFFF AND PUSH4 0x70A08231 CALLER PUSH1 0x40 MLOAD DUP3 PUSH4 0xFFFFFFFF AND PUSH1 0xE0 SHL DUP2 MSTORE PUSH1 0x4 ADD PUSH2 0x294 SWAP2 SWAP1 PUSH2 0x5A0 JUMP JUMPDEST PUSH1 0x20 PUSH1 0x40 MLOAD DUP1 DUP4 SUB DUP2 DUP7 GAS STATICCALL ISZERO DUP1 ISZERO PUSH2 0x2AF JUMPI RETURNDATASIZE PUSH0 DUP1 RETURNDATACOPY RETURNDATASIZE PUSH0 REVERT JUMPDEST POP POP POP POP PUSH1 0x40 MLOAD RETURNDATASIZE PUSH1 0x1F NOT PUSH1 0x1F DUP3 ADD AND DUP3 ADD DUP1 PUSH1 0x40 MSTORE POP DUP2 ADD SWAP1 PUSH2 0x2D3 SWAP2 SWAP1 PUSH2 0x5EC JUMP JUMPDEST EQ PUSH2 0x313 JUMPI PUSH1 0x40 MLOAD PUSH32 0x8C379A000000000000000000000000000000000000000000000000000000000 DUP2 MSTORE PUSH1 0x4 ADD PUSH2 0x30A SWAP1 PUSH2 0x661 JUMP JUMPDEST PUSH1 0x40 MLOAD DUP1 SWAP2 SUB SWAP1 REVERT JUMPDEST PUSH0 DUP1 SLOAD SWAP1 PUSH2 0x100 EXP SWAP1 DIV PUSH20 0xFFFFFFFFFFFFFFFFFFFFFFFFFFFFFFFFFFFFFFFF AND PUSH20 0xFFFFFFFFFFFFFFFFFFFFFFFFFFFFFFFFFFFFFFFF AND PUSH4 0x1D86B167 DUP4 DUP4 PUSH1 0x40 MLOAD DUP4 PUSH4 0xFFFFFFFF AND PUSH1 0xE0 SHL DUP2 MSTORE PUSH1 0x4 ADD PUSH2 0x36D SWAP3 SWAP2 SWAP1 PUSH2 0x6C9 JUMP JUMPDEST PUSH0 PUSH1 0x40 MLOAD DUP1 DUP4 SUB DUP2 PUSH0 DUP8 DUP1 EXTCODESIZE ISZERO DUP1 ISZERO PUSH2 0x384 JUMPI PUSH0 DUP1 REVERT JUMPDEST POP GAS CALL ISZERO DUP1 ISZERO PUSH2 0x396 JUMPI RETURNDATASIZE PUSH0 DUP1 RETURNDATACOPY RETURNDATASIZE PUSH0 REVERT JUMPDEST POP POP POP POP POP POP JUMP JUMPDEST PUSH0 DUP1 SLOAD SWAP1 PUSH2 0x100 EXP SWAP1 DIV PUSH20 0xFFFFFFFFFFFFFFFFFFFFFFFFFFFFFFFFFFFFFFFF AND DUP2 JUMP JUMPDEST PUSH0 DUP1 REVERT JUMPDEST PUSH0 DUP1 REVERT JUMPDEST PUSH0 DUP1 REVERT JUMPDEST PUSH0 DUP1 REVERT JUMPDEST PUSH0 DUP1 REVERT JUMPDEST PUSH0 DUP1 DUP4 PUSH1 0x1F DUP5 ADD SLT PUSH2 0x3EA JUMPI PUSH2 0x3E9 PUSH2 0x3C9 JUMP JUMPDEST JUMPDEST DUP3 CALLDATALOAD SWAP1 POP PUSH8 0xFFFFFFFFFFFFFFFF DUP2 GT ISZERO PUSH2 0x407 JUMPI PUSH2 0x406 PUSH2 0x3CD JUMP JUMPDEST JUMPDEST PUSH1 0x20 DUP4 ADD SWAP2 POP DUP4 PUSH1 0x1 DUP3 MUL DUP4 ADD GT ISZERO PUSH2 0x423 JUMPI PUSH2 0x422 PUSH2 0x3D1 JUMP JUMPDEST JUMPDEST SWAP3 POP SWAP3 SWAP1 POP JUMP JUMPDEST PUSH0 DUP1 PUSH1 0x20 DUP4 DUP6 SUB SLT ISZERO PUSH2 0x440 JUMPI PUSH2 0x43F PUSH2 0x3C1 JUMP JUMPDEST JUMPDEST PUSH0 DUP4 ADD CALLDATALOAD PUSH8 0xFFFFFFFFFFFFFFFF DUP2 GT ISZERO PUSH2 0x45D JUMPI PUSH2 0x45C PUSH2 0x3C5 JUMP JUMPDEST JUMPDEST PUSH2 0x469 DUP6 DUP3 DUP7 ADD PUSH2 0x3D5 JUMP JUMPDEST SWAP3 POP SWAP3 POP POP SWAP3 POP SWAP3 SWAP1 POP JUMP JUMPDEST PUSH0 PUSH20 0xFFFFFFFFFFFFFFFFFFFFFFFFFFFFFFFFFFFFFFFF DUP3 AND SWAP1 POP SWAP2 SWAP1 POP JUMP JUMPDEST PUSH0 DUP2 SWAP1 POP SWAP2 SWAP1 POP JUMP JUMPDEST PUSH0 PUSH2 0x4B7 PUSH2 0x4B2 PUSH2 0x4AD DUP5 PUSH2 0x475 JUMP JUMPDEST PUSH2 0x494 JUMP JUMPDEST PUSH2 0x475 JUMP JUMPDEST SWAP1 POP SWAP2 SWAP1 POP JUMP JUMPDEST PUSH0 PUSH2 0x4C8 DUP3 PUSH2 0x49D JUMP JUMPDEST SWAP1 POP SWAP2 SWAP1 POP JUMP JUMPDEST PUSH0 PUSH2 0x4D9 DUP3 PUSH2 0x4BE JUMP JUMPDEST SWAP1 POP SWAP2 SWAP1 POP JUMP JUMPDEST PUSH2 0x4E9 DUP2 PUSH2 0x4CF JUMP JUMPDEST DUP3 MSTORE POP POP JUMP JUMPDEST PUSH0 PUSH1 0x20 DUP3 ADD SWAP1 POP PUSH2 0x502 PUSH0 DUP4 ADD DUP5 PUSH2 0x4E0 JUMP JUMPDEST SWAP3 SWAP2 POP POP JUMP JUMPDEST PUSH0 DUP3 DUP3 MSTORE PUSH1 0x20 DUP3 ADD SWAP1 POP SWAP3 SWAP2 POP POP JUMP JUMPDEST PUSH32 0x4E6F7420656E6F75676820657468657220666F72206761730000000000000000 PUSH0 DUP3 ADD MSTORE POP JUMP JUMPDEST PUSH0 PUSH2 0x54C PUSH1 0x18 DUP4 PUSH2 0x508 JUMP JUMPDEST SWAP2 POP PUSH2 0x557 DUP3 PUSH2 0x518 JUMP JUMPDEST PUSH1 0x20 DUP3 ADD SWAP1 POP SWAP2 SWAP1 POP JUMP JUMPDEST PUSH0 PUSH1 0x20 DUP3 ADD SWAP1 POP DUP2 DUP2 SUB PUSH0 DUP4 ADD MSTORE PUSH2 0x579 DUP2 PUSH2 0x540 JUMP JUMPDEST SWAP1 POP SWAP2 SWAP1 POP JUMP JUMPDEST PUSH0 PUSH2 0x58A DUP3 PUSH2 0x475 JUMP JUMPDEST SWAP1 POP SWAP2 SWAP1 POP JUMP JUMPDEST PUSH2 0x59A DUP2 PUSH2 0x580 JUMP JUMPDEST DUP3 MSTORE POP POP JUMP JUMPDEST PUSH0 PUSH1 0x20 DUP3 ADD SWAP1 POP PUSH2 0x5B3 PUSH0 DUP4 ADD DUP5 PUSH2 0x591 JUMP JUMPDEST SWAP3 SWAP2 POP POP JUMP JUMPDEST PUSH0 DUP2 SWAP1 POP SWAP2 SWAP1 POP JUMP JUMPDEST PUSH2 0x5CB DUP2 PUSH2 0x5B9 JUMP JUMPDEST DUP2 EQ PUSH2 0x5D5 JUMPI PUSH0 DUP1 REVERT JUMPDEST POP JUMP JUMPDEST PUSH0 DUP2 MLOAD SWAP1 POP PUSH2 0x5E6 DUP2 PUSH2 0x5C2 JUMP JUMPDEST SWAP3 SWAP2 POP POP JUMP JUMPDEST PUSH0 PUSH1 0x20 DUP3 DUP5 SUB SLT ISZERO PUSH2 0x601 JUMPI PUSH2 0x600 PUSH2 0x3C1 JUMP JUMPDEST JUMPDEST PUSH0 PUSH2 0x60E DUP5 DUP3 DUP6 ADD PUSH2 0x5D8 JUMP JUMPDEST SWAP2 POP POP SWAP3 SWAP2 POP POP JUMP JUMPDEST PUSH32 0x4D696E74206661696C6564000000000000000000000000000000000000000000 PUSH0 DUP3 ADD MSTORE POP JUMP JUMPDEST PUSH0 PUSH2 0x64B PUSH1 0xB DUP4 PUSH2 0x508 JUMP JUMPDEST SWAP2 POP PUSH2 0x656 DUP3 PUSH2 0x617 JUMP JUMPDEST PUSH1 0x20 DUP3 ADD SWAP1 POP SWAP2 SWAP1 POP JUMP JUMPDEST PUSH0 PUSH1 0x20 DUP3 ADD SWAP1 POP DUP2 DUP2 SUB PUSH0 DUP4 ADD MSTORE PUSH2 0x678 DUP2 PUSH2 0x63F JUMP JUMPDEST SWAP1 POP SWAP2 SWAP1 POP JUMP JUMPDEST DUP3 DUP2 DUP4 CALLDATACOPY PUSH0 DUP4 DUP4 ADD MSTORE POP POP POP JUMP JUMPDEST PUSH0 PUSH1 0x1F NOT PUSH1 0x1F DUP4 ADD AND SWAP1 POP SWAP2 SWAP1 POP JUMP JUMPDEST PUSH0 PUSH2 0x6A8 DUP4 DUP6 PUSH2 0x508 JUMP JUMPDEST SWAP4 POP PUSH2 0x6B5 DUP4 DUP6 DUP5 PUSH2 0x67F JUMP JUMPDEST PUSH2 0x6BE DUP4 PUSH2 0x68D JUMP JUMPDEST DUP5 ADD SWAP1 POP SWAP4 SWAP3 POP POP POP JUMP JUMPDEST PUSH0 PUSH1 0x20 DUP3 ADD SWAP1 POP DUP2 DUP2 SUB PUSH0 DUP4 ADD MSTORE PUSH2 0x6E2 DUP2 DUP5 DUP7 PUSH2 0x69D JUMP JUMPDEST SWAP1 POP SWAP4 SWAP3 POP POP POP JUMP INVALID LOG2 PUSH5 0x6970667358 0x22 SLT KECCAK256 PUSH12 0x99A8324FEB1C0800883FF238 DUP11 CALLDATALOAD 0xD2 0xC0 0xC3 0xBE LOG4 SWAP12 SWAP5 SSTORE 0xB6 0x22 0xBB 0xCC 0xAF SELFBALANCE 0xD6 DUP3 PUSH24 0x64736F6C634300081A003300000000000000000000000000 "
				},
				"gasEstimates": {
					"creation": {
						"codeDepositCost": "365000",
						"executionCost": "infinite",
						"totalCost": "infinite"
					},
					"external": {
						"exploit(string)": "infinite",
						"grader()": "infinite"
					}
				},
				"methodIdentifiers": {
					"exploit(string)": "013dbcc1",
					"grader()": "5bc05526"
				}
			},
			"storageLayout": {
				"storage": [
					{
						"astId": 28,
						"contract": "contracts/M5_Final_Hackin2024/HackingGradeMe.sol:Hacker",
						"label": "grader",
						"offset": 0,
						"slot": "0",
						"type": "t_contract(IGrader)25"
					}
				],
				"types": {
					"t_contract(IGrader)25": {
						"encoding": "inplace",
						"label": "contract IGrader",
						"numberOfBytes": "20"
					}
				}
			},
			"userdoc": {
				"kind": "user",
				"methods": {},
				"version": 1
			}
		}
	}
}