{
	"contracts/M02_Fundamentos_Solidity/Clase04/Donaciones.sol": {
		"Donaciones": {
			"abi": [
				{
					"inputs": [],
					"stateMutability": "nonpayable",
					"type": "constructor"
				},
				{
					"anonymous": false,
					"inputs": [
						{
							"indexed": true,
							"internalType": "address",
							"name": "donante",
							"type": "address"
						},
						{
							"indexed": false,
							"internalType": "uint256",
							"name": "donacion",
							"type": "uint256"
						},
						{
							"indexed": false,
							"internalType": "uint256",
							"name": "fecha",
							"type": "uint256"
						}
					],
					"name": "DonacionRealizada",
					"type": "event"
				},
				{
					"inputs": [
						{
							"internalType": "address",
							"name": "",
							"type": "address"
						}
					],
					"name": "balance",
					"outputs": [
						{
							"internalType": "uint256",
							"name": "",
							"type": "uint256"
						}
					],
					"stateMutability": "view",
					"type": "function"
				},
				{
					"inputs": [
						{
							"internalType": "uint256",
							"name": "",
							"type": "uint256"
						}
					],
					"name": "donaciones",
					"outputs": [
						{
							"internalType": "address",
							"name": "donante",
							"type": "address"
						},
						{
							"internalType": "uint256",
							"name": "cantidad",
							"type": "uint256"
						},
						{
							"internalType": "uint256",
							"name": "fecha",
							"type": "uint256"
						}
					],
					"stateMutability": "view",
					"type": "function"
				},
				{
					"inputs": [],
					"name": "donar",
					"outputs": [],
					"stateMutability": "payable",
					"type": "function"
				},
				{
					"inputs": [],
					"name": "obtenerDonaciones",
					"outputs": [
						{
							"components": [
								{
									"internalType": "address",
									"name": "donante",
									"type": "address"
								},
								{
									"internalType": "uint256",
									"name": "cantidad",
									"type": "uint256"
								},
								{
									"internalType": "uint256",
									"name": "fecha",
									"type": "uint256"
								}
							],
							"internalType": "struct Donaciones.Donacion[]",
							"name": "_donaciones",
							"type": "tuple[]"
						}
					],
					"stateMutability": "view",
					"type": "function"
				},
				{
					"inputs": [],
					"name": "owner",
					"outputs": [
						{
							"internalType": "address",
							"name": "",
							"type": "address"
						}
					],
					"stateMutability": "view",
					"type": "function"
				},
				{
					"inputs": [],
					"name": "retirarFondos",
					"outputs": [],
					"stateMutability": "nonpayable",
					"type": "function"
				},
				{
					"inputs": [
						{
							"internalType": "uint256",
							"name": "",
							"type": "uint256"
						}
					],
					"name": "uniqueAddr",
					"outputs": [
						{
							"internalType": "address",
							"name": "",
							"type": "address"
						}
					],
					"stateMutability": "view",
					"type": "function"
				}
			],
			"devdoc": {
				"kind": "dev",
				"methods": {},
				"version": 1
			},
			"evm": {
				"assembly": "    /* \"contracts/M02_Fundamentos_Solidity/Clase04/Donaciones.sol\":207:2615  contract Donaciones {... */\n  mstore(0x40, 0x80)\n    /* \"contracts/M02_Fundamentos_Solidity/Clase04/Donaciones.sol\":740:789  constructor() {... */\n  callvalue\n  dup1\n  iszero\n  tag_1\n  jumpi\n  0x00\n  dup1\n  revert\ntag_1:\n  pop\n    /* \"contracts/M02_Fundamentos_Solidity/Clase04/Donaciones.sol\":772:782  msg.sender */\n  caller\n    /* \"contracts/M02_Fundamentos_Solidity/Clase04/Donaciones.sol\":764:769  owner */\n  0x03\n  0x00\n    /* \"contracts/M02_Fundamentos_Solidity/Clase04/Donaciones.sol\":764:782  owner = msg.sender */\n  0x0100\n  exp\n  dup2\n  sload\n  dup2\n  0xffffffffffffffffffffffffffffffffffffffff\n  mul\n  not\n  and\n  swap1\n  dup4\n  0xffffffffffffffffffffffffffffffffffffffff\n  and\n  mul\n  or\n  swap1\n  sstore\n  pop\n    /* \"contracts/M02_Fundamentos_Solidity/Clase04/Donaciones.sol\":207:2615  contract Donaciones {... */\n  dataSize(sub_0)\n  dup1\n  dataOffset(sub_0)\n  0x00\n  codecopy\n  0x00\n  return\nstop\n\nsub_0: assembly {\n        /* \"contracts/M02_Fundamentos_Solidity/Clase04/Donaciones.sol\":207:2615  contract Donaciones {... */\n      mstore(0x40, 0x80)\n      jumpi(tag_1, lt(calldatasize, 0x04))\n      shr(0xe0, calldataload(0x00))\n      dup1\n      0x8da5cb5b\n      gt\n      tag_9\n      jumpi\n      dup1\n      0x8da5cb5b\n      eq\n      tag_5\n      jumpi\n      dup1\n      0xaf3e2e83\n      eq\n      tag_6\n      jumpi\n      dup1\n      0xc2741fb1\n      eq\n      tag_7\n      jumpi\n      dup1\n      0xe3d670d7\n      eq\n      tag_8\n      jumpi\n      jump(tag_1)\n    tag_9:\n      dup1\n      0x10b52cdd\n      eq\n      tag_2\n      jumpi\n      dup1\n      0x13fc9b12\n      eq\n      tag_3\n      jumpi\n      dup1\n      0x8af01880\n      eq\n      tag_4\n      jumpi\n    tag_1:\n      0x00\n      dup1\n      revert\n        /* \"contracts/M02_Fundamentos_Solidity/Clase04/Donaciones.sol\":555:583  Donacion[] public donaciones */\n    tag_2:\n      callvalue\n      dup1\n      iszero\n      tag_10\n      jumpi\n      0x00\n      dup1\n      revert\n    tag_10:\n      pop\n      tag_11\n      0x04\n      dup1\n      calldatasize\n      sub\n      dup2\n      add\n      swap1\n      tag_12\n      swap2\n      swap1\n      tag_13\n      jump\t// in\n    tag_12:\n      tag_14\n      jump\t// in\n    tag_11:\n      mload(0x40)\n      tag_15\n      swap4\n      swap3\n      swap2\n      swap1\n      tag_16\n      jump\t// in\n    tag_15:\n      mload(0x40)\n      dup1\n      swap2\n      sub\n      swap1\n      return\n        /* \"contracts/M02_Fundamentos_Solidity/Clase04/Donaciones.sol\":1337:1678  function donar() external payable {... */\n    tag_3:\n      tag_17\n      tag_18\n      jump\t// in\n    tag_17:\n      stop\n        /* \"contracts/M02_Fundamentos_Solidity/Clase04/Donaciones.sol\":2482:2612  function retirarFondos() external onlyOwner{... */\n    tag_4:\n      callvalue\n      dup1\n      iszero\n      tag_19\n      jumpi\n      0x00\n      dup1\n      revert\n    tag_19:\n      pop\n      tag_20\n      tag_21\n      jump\t// in\n    tag_20:\n      stop\n        /* \"contracts/M02_Fundamentos_Solidity/Clase04/Donaciones.sol\":713:733  address public owner */\n    tag_5:\n      callvalue\n      dup1\n      iszero\n      tag_22\n      jumpi\n      0x00\n      dup1\n      revert\n    tag_22:\n      pop\n      tag_23\n      tag_24\n      jump\t// in\n    tag_23:\n      mload(0x40)\n      tag_25\n      swap2\n      swap1\n      tag_26\n      jump\t// in\n    tag_25:\n      mload(0x40)\n      dup1\n      swap2\n      sub\n      swap1\n      return\n        /* \"contracts/M02_Fundamentos_Solidity/Clase04/Donaciones.sol\":1804:2106  function obtenerDonaciones() external view returns (Donacion[] memory _donaciones) {... */\n    tag_6:\n      callvalue\n      dup1\n      iszero\n      tag_27\n      jumpi\n      0x00\n      dup1\n      revert\n    tag_27:\n      pop\n      tag_28\n      tag_29\n      jump\t// in\n    tag_28:\n      mload(0x40)\n      tag_30\n      swap2\n      swap1\n      tag_31\n      jump\t// in\n    tag_30:\n      mload(0x40)\n      dup1\n      swap2\n      sub\n      swap1\n      return\n        /* \"contracts/M02_Fundamentos_Solidity/Clase04/Donaciones.sol\":679:706  address[] public uniqueAddr */\n    tag_7:\n      callvalue\n      dup1\n      iszero\n      tag_32\n      jumpi\n      0x00\n      dup1\n      revert\n    tag_32:\n      pop\n      tag_33\n      0x04\n      dup1\n      calldatasize\n      sub\n      dup2\n      add\n      swap1\n      tag_34\n      swap2\n      swap1\n      tag_13\n      jump\t// in\n    tag_34:\n      tag_35\n      jump\t// in\n    tag_33:\n      mload(0x40)\n      tag_36\n      swap2\n      swap1\n      tag_26\n      jump\t// in\n    tag_36:\n      mload(0x40)\n      dup1\n      swap2\n      sub\n      swap1\n      return\n        /* \"contracts/M02_Fundamentos_Solidity/Clase04/Donaciones.sol\":239:281  mapping(address => uint256) public balance */\n    tag_8:\n      callvalue\n      dup1\n      iszero\n      tag_37\n      jumpi\n      0x00\n      dup1\n      revert\n    tag_37:\n      pop\n      tag_38\n      0x04\n      dup1\n      calldatasize\n      sub\n      dup2\n      add\n      swap1\n      tag_39\n      swap2\n      swap1\n      tag_40\n      jump\t// in\n    tag_39:\n      tag_41\n      jump\t// in\n    tag_38:\n      mload(0x40)\n      tag_42\n      swap2\n      swap1\n      tag_43\n      jump\t// in\n    tag_42:\n      mload(0x40)\n      dup1\n      swap2\n      sub\n      swap1\n      return\n        /* \"contracts/M02_Fundamentos_Solidity/Clase04/Donaciones.sol\":555:583  Donacion[] public donaciones */\n    tag_14:\n      0x01\n      dup2\n      dup2\n      sload\n      dup2\n      lt\n      tag_44\n      jumpi\n      0x00\n      dup1\n      revert\n    tag_44:\n      swap1\n      0x00\n      mstore\n      keccak256(0x00, 0x20)\n      swap1\n      0x03\n      mul\n      add\n      0x00\n      swap2\n      pop\n      swap1\n      pop\n      dup1\n      0x00\n      add\n      0x00\n      swap1\n      sload\n      swap1\n      0x0100\n      exp\n      swap1\n      div\n      0xffffffffffffffffffffffffffffffffffffffff\n      and\n      swap1\n      dup1\n      0x01\n      add\n      sload\n      swap1\n      dup1\n      0x02\n      add\n      sload\n      swap1\n      pop\n      dup4\n      jump\t// out\n        /* \"contracts/M02_Fundamentos_Solidity/Clase04/Donaciones.sol\":1337:1678  function donar() external payable {... */\n    tag_18:\n        /* \"contracts/M02_Fundamentos_Solidity/Clase04/Donaciones.sol\":1381:1396  address _sender */\n      0x00\n        /* \"contracts/M02_Fundamentos_Solidity/Clase04/Donaciones.sol\":1399:1409  msg.sender */\n      caller\n        /* \"contracts/M02_Fundamentos_Solidity/Clase04/Donaciones.sol\":1381:1409  address _sender = msg.sender */\n      swap1\n      pop\n        /* \"contracts/M02_Fundamentos_Solidity/Clase04/Donaciones.sol\":1419:1429  donaciones */\n      0x01\n        /* \"contracts/M02_Fundamentos_Solidity/Clase04/Donaciones.sol\":1435:1479  Donacion(_sender,msg.value, block.timestamp) */\n      mload(0x40)\n      dup1\n      0x60\n      add\n      0x40\n      mstore\n      dup1\n        /* \"contracts/M02_Fundamentos_Solidity/Clase04/Donaciones.sol\":1444:1451  _sender */\n      dup4\n        /* \"contracts/M02_Fundamentos_Solidity/Clase04/Donaciones.sol\":1435:1479  Donacion(_sender,msg.value, block.timestamp) */\n      0xffffffffffffffffffffffffffffffffffffffff\n      and\n      dup2\n      mstore\n      0x20\n      add\n        /* \"contracts/M02_Fundamentos_Solidity/Clase04/Donaciones.sol\":1452:1461  msg.value */\n      callvalue\n        /* \"contracts/M02_Fundamentos_Solidity/Clase04/Donaciones.sol\":1435:1479  Donacion(_sender,msg.value, block.timestamp) */\n      dup2\n      mstore\n      0x20\n      add\n        /* \"contracts/M02_Fundamentos_Solidity/Clase04/Donaciones.sol\":1463:1478  block.timestamp */\n      timestamp\n        /* \"contracts/M02_Fundamentos_Solidity/Clase04/Donaciones.sol\":1435:1479  Donacion(_sender,msg.value, block.timestamp) */\n      dup2\n      mstore\n      pop\n        /* \"contracts/M02_Fundamentos_Solidity/Clase04/Donaciones.sol\":1419:1480  donaciones.push(Donacion(_sender,msg.value, block.timestamp)) */\n      swap1\n      dup1\n      0x01\n      dup2\n      sload\n      add\n      dup1\n      dup3\n      sstore\n      dup1\n      swap2\n      pop\n      pop\n      0x01\n      swap1\n      sub\n      swap1\n      0x00\n      mstore\n      keccak256(0x00, 0x20)\n      swap1\n      0x03\n      mul\n      add\n      0x00\n      swap1\n      swap2\n      swap1\n      swap2\n      swap1\n      swap2\n      pop\n      0x00\n      dup3\n      add\n      mload\n      dup2\n      0x00\n      add\n      exp(0x0100, 0x00)\n      dup2\n      sload\n      dup2\n      0xffffffffffffffffffffffffffffffffffffffff\n      mul\n      not\n      and\n      swap1\n      dup4\n      0xffffffffffffffffffffffffffffffffffffffff\n      and\n      mul\n      or\n      swap1\n      sstore\n      pop\n      0x20\n      dup3\n      add\n      mload\n      dup2\n      0x01\n      add\n      sstore\n      0x40\n      dup3\n      add\n      mload\n      dup2\n      0x02\n      add\n      sstore\n      pop\n      pop\n        /* \"contracts/M02_Fundamentos_Solidity/Clase04/Donaciones.sol\":1511:1512  0 */\n      0x00\n        /* \"contracts/M02_Fundamentos_Solidity/Clase04/Donaciones.sol\":1493:1500  balance */\n      dup1\n        /* \"contracts/M02_Fundamentos_Solidity/Clase04/Donaciones.sol\":1493:1509  balance[_sender] */\n      0x00\n        /* \"contracts/M02_Fundamentos_Solidity/Clase04/Donaciones.sol\":1501:1508  _sender */\n      dup4\n        /* \"contracts/M02_Fundamentos_Solidity/Clase04/Donaciones.sol\":1493:1509  balance[_sender] */\n      0xffffffffffffffffffffffffffffffffffffffff\n      and\n      0xffffffffffffffffffffffffffffffffffffffff\n      and\n      dup2\n      mstore\n      0x20\n      add\n      swap1\n      dup2\n      mstore\n      0x20\n      add\n      0x00\n      keccak256\n      sload\n        /* \"contracts/M02_Fundamentos_Solidity/Clase04/Donaciones.sol\":1493:1512  balance[_sender]==0 */\n      sub\n        /* \"contracts/M02_Fundamentos_Solidity/Clase04/Donaciones.sol\":1490:1563  if(balance[_sender]==0) {... */\n      tag_48\n      jumpi\n        /* \"contracts/M02_Fundamentos_Solidity/Clase04/Donaciones.sol\":1528:1538  uniqueAddr */\n      0x02\n        /* \"contracts/M02_Fundamentos_Solidity/Clase04/Donaciones.sol\":1544:1551  _sender */\n      dup2\n        /* \"contracts/M02_Fundamentos_Solidity/Clase04/Donaciones.sol\":1528:1552  uniqueAddr.push(_sender) */\n      swap1\n      dup1\n      0x01\n      dup2\n      sload\n      add\n      dup1\n      dup3\n      sstore\n      dup1\n      swap2\n      pop\n      pop\n      0x01\n      swap1\n      sub\n      swap1\n      0x00\n      mstore\n      keccak256(0x00, 0x20)\n      add\n      0x00\n      swap1\n      swap2\n      swap1\n      swap2\n      swap1\n      swap2\n      0x0100\n      exp\n      dup2\n      sload\n      dup2\n      0xffffffffffffffffffffffffffffffffffffffff\n      mul\n      not\n      and\n      swap1\n      dup4\n      0xffffffffffffffffffffffffffffffffffffffff\n      and\n      mul\n      or\n      swap1\n      sstore\n      pop\n        /* \"contracts/M02_Fundamentos_Solidity/Clase04/Donaciones.sol\":1490:1563  if(balance[_sender]==0) {... */\n    tag_48:\n        /* \"contracts/M02_Fundamentos_Solidity/Clase04/Donaciones.sol\":1593:1602  msg.value */\n      callvalue\n        /* \"contracts/M02_Fundamentos_Solidity/Clase04/Donaciones.sol\":1572:1579  balance */\n      0x00\n        /* \"contracts/M02_Fundamentos_Solidity/Clase04/Donaciones.sol\":1572:1588  balance[_sender] */\n      dup1\n        /* \"contracts/M02_Fundamentos_Solidity/Clase04/Donaciones.sol\":1580:1587  _sender */\n      dup4\n        /* \"contracts/M02_Fundamentos_Solidity/Clase04/Donaciones.sol\":1572:1588  balance[_sender] */\n      0xffffffffffffffffffffffffffffffffffffffff\n      and\n      0xffffffffffffffffffffffffffffffffffffffff\n      and\n      dup2\n      mstore\n      0x20\n      add\n      swap1\n      dup2\n      mstore\n      0x20\n      add\n      0x00\n      keccak256\n      0x00\n        /* \"contracts/M02_Fundamentos_Solidity/Clase04/Donaciones.sol\":1572:1602  balance[_sender] +=  msg.value */\n      dup3\n      dup3\n      sload\n      tag_50\n      swap2\n      swap1\n      tag_51\n      jump\t// in\n    tag_50:\n      swap3\n      pop\n      pop\n      dup2\n      swap1\n      sstore\n      pop\n        /* \"contracts/M02_Fundamentos_Solidity/Clase04/Donaciones.sol\":1635:1642  _sender */\n      dup1\n        /* \"contracts/M02_Fundamentos_Solidity/Clase04/Donaciones.sol\":1617:1671  DonacionRealizada(_sender, msg.value, block.timestamp) */\n      0xffffffffffffffffffffffffffffffffffffffff\n      and\n      0x8d2cddeb711d73ef9b73e26eb1c641e973467cf3f6b9bb7df8a0751686c24c60\n        /* \"contracts/M02_Fundamentos_Solidity/Clase04/Donaciones.sol\":1644:1653  msg.value */\n      callvalue\n        /* \"contracts/M02_Fundamentos_Solidity/Clase04/Donaciones.sol\":1655:1670  block.timestamp */\n      timestamp\n        /* \"contracts/M02_Fundamentos_Solidity/Clase04/Donaciones.sol\":1617:1671  DonacionRealizada(_sender, msg.value, block.timestamp) */\n      mload(0x40)\n      tag_52\n      swap3\n      swap2\n      swap1\n      tag_53\n      jump\t// in\n    tag_52:\n      mload(0x40)\n      dup1\n      swap2\n      sub\n      swap1\n      log2\n        /* \"contracts/M02_Fundamentos_Solidity/Clase04/Donaciones.sol\":1371:1678  {... */\n      pop\n        /* \"contracts/M02_Fundamentos_Solidity/Clase04/Donaciones.sol\":1337:1678  function donar() external payable {... */\n      jump\t// out\n        /* \"contracts/M02_Fundamentos_Solidity/Clase04/Donaciones.sol\":2482:2612  function retirarFondos() external onlyOwner{... */\n    tag_21:\n        /* \"contracts/M02_Fundamentos_Solidity/Clase04/Donaciones.sol\":2425:2430  owner */\n      0x03\n      0x00\n      swap1\n      sload\n      swap1\n      0x0100\n      exp\n      swap1\n      div\n      0xffffffffffffffffffffffffffffffffffffffff\n      and\n        /* \"contracts/M02_Fundamentos_Solidity/Clase04/Donaciones.sol\":2412:2430  msg.sender ==owner */\n      0xffffffffffffffffffffffffffffffffffffffff\n      and\n        /* \"contracts/M02_Fundamentos_Solidity/Clase04/Donaciones.sol\":2412:2422  msg.sender */\n      caller\n        /* \"contracts/M02_Fundamentos_Solidity/Clase04/Donaciones.sol\":2412:2430  msg.sender ==owner */\n      0xffffffffffffffffffffffffffffffffffffffff\n      and\n      eq\n        /* \"contracts/M02_Fundamentos_Solidity/Clase04/Donaciones.sol\":2404:2458  require(msg.sender ==owner, \"usted no tiene permisos\") */\n      tag_55\n      jumpi\n      mload(0x40)\n      0x08c379a000000000000000000000000000000000000000000000000000000000\n      dup2\n      mstore\n      0x04\n      add\n      tag_56\n      swap1\n      tag_57\n      jump\t// in\n    tag_56:\n      mload(0x40)\n      dup1\n      swap2\n      sub\n      swap1\n      revert\n    tag_55:\n        /* \"contracts/M02_Fundamentos_Solidity/Clase04/Donaciones.sol\":2543:2553  msg.sender */\n      caller\n        /* \"contracts/M02_Fundamentos_Solidity/Clase04/Donaciones.sol\":2535:2563  payable(msg.sender).transfer */\n      0xffffffffffffffffffffffffffffffffffffffff\n      and\n        /* \"contracts/M02_Fundamentos_Solidity/Clase04/Donaciones.sol\":2535:2586  payable(msg.sender).transfer(address(this).balance) */\n      0x08fc\n        /* \"contracts/M02_Fundamentos_Solidity/Clase04/Donaciones.sol\":2564:2585  address(this).balance */\n      selfbalance\n        /* \"contracts/M02_Fundamentos_Solidity/Clase04/Donaciones.sol\":2535:2586  payable(msg.sender).transfer(address(this).balance) */\n      swap1\n      dup2\n      iszero\n      mul\n      swap1\n      mload(0x40)\n      0x00\n      mload(0x40)\n      dup1\n      dup4\n      sub\n      dup2\n      dup6\n      dup9\n      dup9\n      call\n      swap4\n      pop\n      pop\n      pop\n      pop\n      iszero\n      dup1\n      iszero\n      tag_60\n      jumpi\n      returndatasize\n      0x00\n      dup1\n      returndatacopy\n      revert(0x00, returndatasize)\n    tag_60:\n      pop\n        /* \"contracts/M02_Fundamentos_Solidity/Clase04/Donaciones.sol\":2482:2612  function retirarFondos() external onlyOwner{... */\n      jump\t// out\n        /* \"contracts/M02_Fundamentos_Solidity/Clase04/Donaciones.sol\":713:733  address public owner */\n    tag_24:\n      0x03\n      0x00\n      swap1\n      sload\n      swap1\n      0x0100\n      exp\n      swap1\n      div\n      0xffffffffffffffffffffffffffffffffffffffff\n      and\n      dup2\n      jump\t// out\n        /* \"contracts/M02_Fundamentos_Solidity/Clase04/Donaciones.sol\":1804:2106  function obtenerDonaciones() external view returns (Donacion[] memory _donaciones) {... */\n    tag_29:\n        /* \"contracts/M02_Fundamentos_Solidity/Clase04/Donaciones.sol\":1856:1885  Donacion[] memory _donaciones */\n      0x60\n        /* \"contracts/M02_Fundamentos_Solidity/Clase04/Donaciones.sol\":1897:1908  uint256 len */\n      0x00\n        /* \"contracts/M02_Fundamentos_Solidity/Clase04/Donaciones.sol\":1911:1921  uniqueAddr */\n      0x02\n        /* \"contracts/M02_Fundamentos_Solidity/Clase04/Donaciones.sol\":1911:1928  uniqueAddr.length */\n      dup1\n      sload\n      swap1\n      pop\n        /* \"contracts/M02_Fundamentos_Solidity/Clase04/Donaciones.sol\":1897:1928  uint256 len = uniqueAddr.length */\n      swap1\n      pop\n        /* \"contracts/M02_Fundamentos_Solidity/Clase04/Donaciones.sol\":1942:1951  uint256 i */\n      0x00\n        /* \"contracts/M02_Fundamentos_Solidity/Clase04/Donaciones.sol\":1938:2072  for(uint256 i=0; i< len; i++) {... */\n    tag_62:\n        /* \"contracts/M02_Fundamentos_Solidity/Clase04/Donaciones.sol\":1958:1961  len */\n      dup2\n        /* \"contracts/M02_Fundamentos_Solidity/Clase04/Donaciones.sol\":1955:1956  i */\n      dup2\n        /* \"contracts/M02_Fundamentos_Solidity/Clase04/Donaciones.sol\":1955:1961  i< len */\n      lt\n        /* \"contracts/M02_Fundamentos_Solidity/Clase04/Donaciones.sol\":1938:2072  for(uint256 i=0; i< len; i++) {... */\n      iszero\n      tag_63\n      jumpi\n        /* \"contracts/M02_Fundamentos_Solidity/Clase04/Donaciones.sol\":1999:2061  Donacion(uniqueAddr[i],balance[uniqueAddr[i]],block.timestamp) */\n      mload(0x40)\n      dup1\n      0x60\n      add\n      0x40\n      mstore\n      dup1\n        /* \"contracts/M02_Fundamentos_Solidity/Clase04/Donaciones.sol\":2008:2018  uniqueAddr */\n      0x02\n        /* \"contracts/M02_Fundamentos_Solidity/Clase04/Donaciones.sol\":2019:2020  i */\n      dup4\n        /* \"contracts/M02_Fundamentos_Solidity/Clase04/Donaciones.sol\":2008:2021  uniqueAddr[i] */\n      dup2\n      sload\n      dup2\n      lt\n      tag_65\n      jumpi\n      tag_66\n      tag_67\n      jump\t// in\n    tag_66:\n    tag_65:\n      swap1\n      0x00\n      mstore\n      keccak256(0x00, 0x20)\n      add\n      0x00\n      swap1\n      sload\n      swap1\n      0x0100\n      exp\n      swap1\n      div\n      0xffffffffffffffffffffffffffffffffffffffff\n      and\n        /* \"contracts/M02_Fundamentos_Solidity/Clase04/Donaciones.sol\":1999:2061  Donacion(uniqueAddr[i],balance[uniqueAddr[i]],block.timestamp) */\n      0xffffffffffffffffffffffffffffffffffffffff\n      and\n      dup2\n      mstore\n      0x20\n      add\n        /* \"contracts/M02_Fundamentos_Solidity/Clase04/Donaciones.sol\":2022:2029  balance */\n      0x00\n        /* \"contracts/M02_Fundamentos_Solidity/Clase04/Donaciones.sol\":2022:2044  balance[uniqueAddr[i]] */\n      dup1\n        /* \"contracts/M02_Fundamentos_Solidity/Clase04/Donaciones.sol\":2030:2040  uniqueAddr */\n      0x02\n        /* \"contracts/M02_Fundamentos_Solidity/Clase04/Donaciones.sol\":2041:2042  i */\n      dup6\n        /* \"contracts/M02_Fundamentos_Solidity/Clase04/Donaciones.sol\":2030:2043  uniqueAddr[i] */\n      dup2\n      sload\n      dup2\n      lt\n      tag_69\n      jumpi\n      tag_70\n      tag_67\n      jump\t// in\n    tag_70:\n    tag_69:\n      swap1\n      0x00\n      mstore\n      keccak256(0x00, 0x20)\n      add\n      0x00\n      swap1\n      sload\n      swap1\n      0x0100\n      exp\n      swap1\n      div\n      0xffffffffffffffffffffffffffffffffffffffff\n      and\n        /* \"contracts/M02_Fundamentos_Solidity/Clase04/Donaciones.sol\":2022:2044  balance[uniqueAddr[i]] */\n      0xffffffffffffffffffffffffffffffffffffffff\n      and\n      0xffffffffffffffffffffffffffffffffffffffff\n      and\n      dup2\n      mstore\n      0x20\n      add\n      swap1\n      dup2\n      mstore\n      0x20\n      add\n      0x00\n      keccak256\n      sload\n        /* \"contracts/M02_Fundamentos_Solidity/Clase04/Donaciones.sol\":1999:2061  Donacion(uniqueAddr[i],balance[uniqueAddr[i]],block.timestamp) */\n      dup2\n      mstore\n      0x20\n      add\n        /* \"contracts/M02_Fundamentos_Solidity/Clase04/Donaciones.sol\":2045:2060  block.timestamp */\n      timestamp\n        /* \"contracts/M02_Fundamentos_Solidity/Clase04/Donaciones.sol\":1999:2061  Donacion(uniqueAddr[i],balance[uniqueAddr[i]],block.timestamp) */\n      dup2\n      mstore\n      pop\n        /* \"contracts/M02_Fundamentos_Solidity/Clase04/Donaciones.sol\":1982:1993  _donaciones */\n      dup4\n        /* \"contracts/M02_Fundamentos_Solidity/Clase04/Donaciones.sol\":1994:1995  i */\n      dup3\n        /* \"contracts/M02_Fundamentos_Solidity/Clase04/Donaciones.sol\":1982:1996  _donaciones[i] */\n      dup2\n      mload\n      dup2\n      lt\n      tag_72\n      jumpi\n      tag_73\n      tag_67\n      jump\t// in\n    tag_73:\n    tag_72:\n      0x20\n      mul\n      0x20\n      add\n      add\n        /* \"contracts/M02_Fundamentos_Solidity/Clase04/Donaciones.sol\":1982:2061  _donaciones[i] = Donacion(uniqueAddr[i],balance[uniqueAddr[i]],block.timestamp) */\n      dup2\n      swap1\n      mstore\n      pop\n        /* \"contracts/M02_Fundamentos_Solidity/Clase04/Donaciones.sol\":1963:1966  i++ */\n      dup1\n      dup1\n      0x01\n      add\n      swap2\n      pop\n      pop\n        /* \"contracts/M02_Fundamentos_Solidity/Clase04/Donaciones.sol\":1938:2072  for(uint256 i=0; i< len; i++) {... */\n      jump(tag_62)\n    tag_63:\n      pop\n        /* \"contracts/M02_Fundamentos_Solidity/Clase04/Donaciones.sol\":2081:2099  return _donaciones */\n      pop\n        /* \"contracts/M02_Fundamentos_Solidity/Clase04/Donaciones.sol\":1804:2106  function obtenerDonaciones() external view returns (Donacion[] memory _donaciones) {... */\n      swap1\n      jump\t// out\n        /* \"contracts/M02_Fundamentos_Solidity/Clase04/Donaciones.sol\":679:706  address[] public uniqueAddr */\n    tag_35:\n      0x02\n      dup2\n      dup2\n      sload\n      dup2\n      lt\n      tag_74\n      jumpi\n      0x00\n      dup1\n      revert\n    tag_74:\n      swap1\n      0x00\n      mstore\n      keccak256(0x00, 0x20)\n      add\n      0x00\n      swap2\n      pop\n      sload\n      swap1\n      0x0100\n      exp\n      swap1\n      div\n      0xffffffffffffffffffffffffffffffffffffffff\n      and\n      dup2\n      jump\t// out\n        /* \"contracts/M02_Fundamentos_Solidity/Clase04/Donaciones.sol\":239:281  mapping(address => uint256) public balance */\n    tag_41:\n      mstore(0x20, 0x00)\n      dup1\n      0x00\n      mstore\n      keccak256(0x00, 0x40)\n      0x00\n      swap2\n      pop\n      swap1\n      pop\n      sload\n      dup2\n      jump\t// out\n        /* \"#utility.yul\":88:205   */\n    tag_77:\n        /* \"#utility.yul\":197:198   */\n      0x00\n        /* \"#utility.yul\":194:195   */\n      dup1\n        /* \"#utility.yul\":187:199   */\n      revert\n        /* \"#utility.yul\":334:411   */\n    tag_79:\n        /* \"#utility.yul\":371:378   */\n      0x00\n        /* \"#utility.yul\":400:405   */\n      dup2\n        /* \"#utility.yul\":389:405   */\n      swap1\n      pop\n        /* \"#utility.yul\":334:411   */\n      swap2\n      swap1\n      pop\n      jump\t// out\n        /* \"#utility.yul\":417:539   */\n    tag_80:\n        /* \"#utility.yul\":490:514   */\n      tag_107\n        /* \"#utility.yul\":508:513   */\n      dup2\n        /* \"#utility.yul\":490:514   */\n      tag_79\n      jump\t// in\n    tag_107:\n        /* \"#utility.yul\":483:488   */\n      dup2\n        /* \"#utility.yul\":480:515   */\n      eq\n        /* \"#utility.yul\":470:533   */\n      tag_108\n      jumpi\n        /* \"#utility.yul\":529:530   */\n      0x00\n        /* \"#utility.yul\":526:527   */\n      dup1\n        /* \"#utility.yul\":519:531   */\n      revert\n        /* \"#utility.yul\":470:533   */\n    tag_108:\n        /* \"#utility.yul\":417:539   */\n      pop\n      jump\t// out\n        /* \"#utility.yul\":545:684   */\n    tag_81:\n        /* \"#utility.yul\":591:596   */\n      0x00\n        /* \"#utility.yul\":629:635   */\n      dup2\n        /* \"#utility.yul\":616:636   */\n      calldataload\n        /* \"#utility.yul\":607:636   */\n      swap1\n      pop\n        /* \"#utility.yul\":645:678   */\n      tag_110\n        /* \"#utility.yul\":672:677   */\n      dup2\n        /* \"#utility.yul\":645:678   */\n      tag_80\n      jump\t// in\n    tag_110:\n        /* \"#utility.yul\":545:684   */\n      swap3\n      swap2\n      pop\n      pop\n      jump\t// out\n        /* \"#utility.yul\":690:1019   */\n    tag_13:\n        /* \"#utility.yul\":749:755   */\n      0x00\n        /* \"#utility.yul\":798:800   */\n      0x20\n        /* \"#utility.yul\":786:795   */\n      dup3\n        /* \"#utility.yul\":777:784   */\n      dup5\n        /* \"#utility.yul\":773:796   */\n      sub\n        /* \"#utility.yul\":769:801   */\n      slt\n        /* \"#utility.yul\":766:885   */\n      iszero\n      tag_112\n      jumpi\n        /* \"#utility.yul\":804:883   */\n      tag_113\n      tag_77\n      jump\t// in\n    tag_113:\n        /* \"#utility.yul\":766:885   */\n    tag_112:\n        /* \"#utility.yul\":924:925   */\n      0x00\n        /* \"#utility.yul\":949:1002   */\n      tag_114\n        /* \"#utility.yul\":994:1001   */\n      dup5\n        /* \"#utility.yul\":985:991   */\n      dup3\n        /* \"#utility.yul\":974:983   */\n      dup6\n        /* \"#utility.yul\":970:992   */\n      add\n        /* \"#utility.yul\":949:1002   */\n      tag_81\n      jump\t// in\n    tag_114:\n        /* \"#utility.yul\":939:1002   */\n      swap2\n      pop\n        /* \"#utility.yul\":895:1012   */\n      pop\n        /* \"#utility.yul\":690:1019   */\n      swap3\n      swap2\n      pop\n      pop\n      jump\t// out\n        /* \"#utility.yul\":1025:1151   */\n    tag_82:\n        /* \"#utility.yul\":1062:1069   */\n      0x00\n        /* \"#utility.yul\":1102:1144   */\n      0xffffffffffffffffffffffffffffffffffffffff\n        /* \"#utility.yul\":1095:1100   */\n      dup3\n        /* \"#utility.yul\":1091:1145   */\n      and\n        /* \"#utility.yul\":1080:1145   */\n      swap1\n      pop\n        /* \"#utility.yul\":1025:1151   */\n      swap2\n      swap1\n      pop\n      jump\t// out\n        /* \"#utility.yul\":1157:1253   */\n    tag_83:\n        /* \"#utility.yul\":1194:1201   */\n      0x00\n        /* \"#utility.yul\":1223:1247   */\n      tag_117\n        /* \"#utility.yul\":1241:1246   */\n      dup3\n        /* \"#utility.yul\":1223:1247   */\n      tag_82\n      jump\t// in\n    tag_117:\n        /* \"#utility.yul\":1212:1247   */\n      swap1\n      pop\n        /* \"#utility.yul\":1157:1253   */\n      swap2\n      swap1\n      pop\n      jump\t// out\n        /* \"#utility.yul\":1259:1377   */\n    tag_84:\n        /* \"#utility.yul\":1346:1370   */\n      tag_119\n        /* \"#utility.yul\":1364:1369   */\n      dup2\n        /* \"#utility.yul\":1346:1370   */\n      tag_83\n      jump\t// in\n    tag_119:\n        /* \"#utility.yul\":1341:1344   */\n      dup3\n        /* \"#utility.yul\":1334:1371   */\n      mstore\n        /* \"#utility.yul\":1259:1377   */\n      pop\n      pop\n      jump\t// out\n        /* \"#utility.yul\":1383:1501   */\n    tag_85:\n        /* \"#utility.yul\":1470:1494   */\n      tag_121\n        /* \"#utility.yul\":1488:1493   */\n      dup2\n        /* \"#utility.yul\":1470:1494   */\n      tag_79\n      jump\t// in\n    tag_121:\n        /* \"#utility.yul\":1465:1468   */\n      dup3\n        /* \"#utility.yul\":1458:1495   */\n      mstore\n        /* \"#utility.yul\":1383:1501   */\n      pop\n      pop\n      jump\t// out\n        /* \"#utility.yul\":1507:1949   */\n    tag_16:\n        /* \"#utility.yul\":1656:1660   */\n      0x00\n        /* \"#utility.yul\":1694:1696   */\n      0x60\n        /* \"#utility.yul\":1683:1692   */\n      dup3\n        /* \"#utility.yul\":1679:1697   */\n      add\n        /* \"#utility.yul\":1671:1697   */\n      swap1\n      pop\n        /* \"#utility.yul\":1707:1778   */\n      tag_123\n        /* \"#utility.yul\":1775:1776   */\n      0x00\n        /* \"#utility.yul\":1764:1773   */\n      dup4\n        /* \"#utility.yul\":1760:1777   */\n      add\n        /* \"#utility.yul\":1751:1757   */\n      dup7\n        /* \"#utility.yul\":1707:1778   */\n      tag_84\n      jump\t// in\n    tag_123:\n        /* \"#utility.yul\":1788:1860   */\n      tag_124\n        /* \"#utility.yul\":1856:1858   */\n      0x20\n        /* \"#utility.yul\":1845:1854   */\n      dup4\n        /* \"#utility.yul\":1841:1859   */\n      add\n        /* \"#utility.yul\":1832:1838   */\n      dup6\n        /* \"#utility.yul\":1788:1860   */\n      tag_85\n      jump\t// in\n    tag_124:\n        /* \"#utility.yul\":1870:1942   */\n      tag_125\n        /* \"#utility.yul\":1938:1940   */\n      0x40\n        /* \"#utility.yul\":1927:1936   */\n      dup4\n        /* \"#utility.yul\":1923:1941   */\n      add\n        /* \"#utility.yul\":1914:1920   */\n      dup5\n        /* \"#utility.yul\":1870:1942   */\n      tag_85\n      jump\t// in\n    tag_125:\n        /* \"#utility.yul\":1507:1949   */\n      swap5\n      swap4\n      pop\n      pop\n      pop\n      pop\n      jump\t// out\n        /* \"#utility.yul\":1955:2177   */\n    tag_26:\n        /* \"#utility.yul\":2048:2052   */\n      0x00\n        /* \"#utility.yul\":2086:2088   */\n      0x20\n        /* \"#utility.yul\":2075:2084   */\n      dup3\n        /* \"#utility.yul\":2071:2089   */\n      add\n        /* \"#utility.yul\":2063:2089   */\n      swap1\n      pop\n        /* \"#utility.yul\":2099:2170   */\n      tag_127\n        /* \"#utility.yul\":2167:2168   */\n      0x00\n        /* \"#utility.yul\":2156:2165   */\n      dup4\n        /* \"#utility.yul\":2152:2169   */\n      add\n        /* \"#utility.yul\":2143:2149   */\n      dup5\n        /* \"#utility.yul\":2099:2170   */\n      tag_84\n      jump\t// in\n    tag_127:\n        /* \"#utility.yul\":1955:2177   */\n      swap3\n      swap2\n      pop\n      pop\n      jump\t// out\n        /* \"#utility.yul\":2183:2321   */\n    tag_86:\n        /* \"#utility.yul\":2274:2280   */\n      0x00\n        /* \"#utility.yul\":2308:2313   */\n      dup2\n        /* \"#utility.yul\":2302:2314   */\n      mload\n        /* \"#utility.yul\":2292:2314   */\n      swap1\n      pop\n        /* \"#utility.yul\":2183:2321   */\n      swap2\n      swap1\n      pop\n      jump\t// out\n        /* \"#utility.yul\":2327:2535   */\n    tag_87:\n        /* \"#utility.yul\":2450:2461   */\n      0x00\n        /* \"#utility.yul\":2484:2490   */\n      dup3\n        /* \"#utility.yul\":2479:2482   */\n      dup3\n        /* \"#utility.yul\":2472:2491   */\n      mstore\n        /* \"#utility.yul\":2524:2528   */\n      0x20\n        /* \"#utility.yul\":2519:2522   */\n      dup3\n        /* \"#utility.yul\":2515:2529   */\n      add\n        /* \"#utility.yul\":2500:2529   */\n      swap1\n      pop\n        /* \"#utility.yul\":2327:2535   */\n      swap3\n      swap2\n      pop\n      pop\n      jump\t// out\n        /* \"#utility.yul\":2541:2697   */\n    tag_88:\n        /* \"#utility.yul\":2632:2636   */\n      0x00\n        /* \"#utility.yul\":2655:2658   */\n      dup2\n        /* \"#utility.yul\":2647:2658   */\n      swap1\n      pop\n        /* \"#utility.yul\":2685:2689   */\n      0x20\n        /* \"#utility.yul\":2680:2683   */\n      dup3\n        /* \"#utility.yul\":2676:2690   */\n      add\n        /* \"#utility.yul\":2668:2690   */\n      swap1\n      pop\n        /* \"#utility.yul\":2541:2697   */\n      swap2\n      swap1\n      pop\n      jump\t// out\n        /* \"#utility.yul\":2703:2811   */\n    tag_89:\n        /* \"#utility.yul\":2780:2804   */\n      tag_132\n        /* \"#utility.yul\":2798:2803   */\n      dup2\n        /* \"#utility.yul\":2780:2804   */\n      tag_83\n      jump\t// in\n    tag_132:\n        /* \"#utility.yul\":2775:2778   */\n      dup3\n        /* \"#utility.yul\":2768:2805   */\n      mstore\n        /* \"#utility.yul\":2703:2811   */\n      pop\n      pop\n      jump\t// out\n        /* \"#utility.yul\":2817:2925   */\n    tag_90:\n        /* \"#utility.yul\":2894:2918   */\n      tag_134\n        /* \"#utility.yul\":2912:2917   */\n      dup2\n        /* \"#utility.yul\":2894:2918   */\n      tag_79\n      jump\t// in\n    tag_134:\n        /* \"#utility.yul\":2889:2892   */\n      dup3\n        /* \"#utility.yul\":2882:2919   */\n      mstore\n        /* \"#utility.yul\":2817:2925   */\n      pop\n      pop\n      jump\t// out\n        /* \"#utility.yul\":2995:3672   */\n    tag_91:\n        /* \"#utility.yul\":3130:3134   */\n      0x60\n        /* \"#utility.yul\":3125:3128   */\n      dup3\n        /* \"#utility.yul\":3121:3135   */\n      add\n        /* \"#utility.yul\":3220:3224   */\n      0x00\n        /* \"#utility.yul\":3213:3218   */\n      dup3\n        /* \"#utility.yul\":3209:3225   */\n      add\n        /* \"#utility.yul\":3203:3226   */\n      mload\n        /* \"#utility.yul\":3239:3302   */\n      tag_136\n        /* \"#utility.yul\":3296:3300   */\n      0x00\n        /* \"#utility.yul\":3291:3294   */\n      dup6\n        /* \"#utility.yul\":3287:3301   */\n      add\n        /* \"#utility.yul\":3273:3285   */\n      dup3\n        /* \"#utility.yul\":3239:3302   */\n      tag_89\n      jump\t// in\n    tag_136:\n        /* \"#utility.yul\":3145:3312   */\n      pop\n        /* \"#utility.yul\":3398:3402   */\n      0x20\n        /* \"#utility.yul\":3391:3396   */\n      dup3\n        /* \"#utility.yul\":3387:3403   */\n      add\n        /* \"#utility.yul\":3381:3404   */\n      mload\n        /* \"#utility.yul\":3417:3480   */\n      tag_137\n        /* \"#utility.yul\":3474:3478   */\n      0x20\n        /* \"#utility.yul\":3469:3472   */\n      dup6\n        /* \"#utility.yul\":3465:3479   */\n      add\n        /* \"#utility.yul\":3451:3463   */\n      dup3\n        /* \"#utility.yul\":3417:3480   */\n      tag_90\n      jump\t// in\n    tag_137:\n        /* \"#utility.yul\":3322:3490   */\n      pop\n        /* \"#utility.yul\":3573:3577   */\n      0x40\n        /* \"#utility.yul\":3566:3571   */\n      dup3\n        /* \"#utility.yul\":3562:3578   */\n      add\n        /* \"#utility.yul\":3556:3579   */\n      mload\n        /* \"#utility.yul\":3592:3655   */\n      tag_138\n        /* \"#utility.yul\":3649:3653   */\n      0x40\n        /* \"#utility.yul\":3644:3647   */\n      dup6\n        /* \"#utility.yul\":3640:3654   */\n      add\n        /* \"#utility.yul\":3626:3638   */\n      dup3\n        /* \"#utility.yul\":3592:3655   */\n      tag_90\n      jump\t// in\n    tag_138:\n        /* \"#utility.yul\":3500:3665   */\n      pop\n        /* \"#utility.yul\":3099:3672   */\n      pop\n        /* \"#utility.yul\":2995:3672   */\n      pop\n      pop\n      jump\t// out\n        /* \"#utility.yul\":3678:3953   */\n    tag_92:\n        /* \"#utility.yul\":3795:3805   */\n      0x00\n        /* \"#utility.yul\":3816:3910   */\n      tag_140\n        /* \"#utility.yul\":3906:3909   */\n      dup4\n        /* \"#utility.yul\":3898:3904   */\n      dup4\n        /* \"#utility.yul\":3816:3910   */\n      tag_91\n      jump\t// in\n    tag_140:\n        /* \"#utility.yul\":3942:3946   */\n      0x60\n        /* \"#utility.yul\":3937:3940   */\n      dup4\n        /* \"#utility.yul\":3933:3947   */\n      add\n        /* \"#utility.yul\":3919:3947   */\n      swap1\n      pop\n        /* \"#utility.yul\":3678:3953   */\n      swap3\n      swap2\n      pop\n      pop\n      jump\t// out\n        /* \"#utility.yul\":3959:4096   */\n    tag_93:\n        /* \"#utility.yul\":4053:4057   */\n      0x00\n        /* \"#utility.yul\":4085:4089   */\n      0x20\n        /* \"#utility.yul\":4080:4083   */\n      dup3\n        /* \"#utility.yul\":4076:4090   */\n      add\n        /* \"#utility.yul\":4068:4090   */\n      swap1\n      pop\n        /* \"#utility.yul\":3959:4096   */\n      swap2\n      swap1\n      pop\n      jump\t// out\n        /* \"#utility.yul\":4170:5094   */\n    tag_94:\n        /* \"#utility.yul\":4337:4340   */\n      0x00\n        /* \"#utility.yul\":4366:4444   */\n      tag_143\n        /* \"#utility.yul\":4438:4443   */\n      dup3\n        /* \"#utility.yul\":4366:4444   */\n      tag_86\n      jump\t// in\n    tag_143:\n        /* \"#utility.yul\":4460:4570   */\n      tag_144\n        /* \"#utility.yul\":4563:4569   */\n      dup2\n        /* \"#utility.yul\":4558:4561   */\n      dup6\n        /* \"#utility.yul\":4460:4570   */\n      tag_87\n      jump\t// in\n    tag_144:\n        /* \"#utility.yul\":4453:4570   */\n      swap4\n      pop\n        /* \"#utility.yul\":4594:4674   */\n      tag_145\n        /* \"#utility.yul\":4668:4673   */\n      dup4\n        /* \"#utility.yul\":4594:4674   */\n      tag_88\n      jump\t// in\n    tag_145:\n        /* \"#utility.yul\":4697:4704   */\n      dup1\n        /* \"#utility.yul\":4728:4729   */\n      0x00\n        /* \"#utility.yul\":4713:5069   */\n    tag_146:\n        /* \"#utility.yul\":4738:4744   */\n      dup4\n        /* \"#utility.yul\":4735:4736   */\n      dup2\n        /* \"#utility.yul\":4732:4745   */\n      lt\n        /* \"#utility.yul\":4713:5069   */\n      iszero\n      tag_148\n      jumpi\n        /* \"#utility.yul\":4814:4820   */\n      dup2\n        /* \"#utility.yul\":4808:4821   */\n      mload\n        /* \"#utility.yul\":4841:4952   */\n      tag_149\n        /* \"#utility.yul\":4948:4951   */\n      dup9\n        /* \"#utility.yul\":4933:4946   */\n      dup3\n        /* \"#utility.yul\":4841:4952   */\n      tag_92\n      jump\t// in\n    tag_149:\n        /* \"#utility.yul\":4834:4952   */\n      swap8\n      pop\n        /* \"#utility.yul\":4975:5059   */\n      tag_150\n        /* \"#utility.yul\":5052:5058   */\n      dup4\n        /* \"#utility.yul\":4975:5059   */\n      tag_93\n      jump\t// in\n    tag_150:\n        /* \"#utility.yul\":4965:5059   */\n      swap3\n      pop\n        /* \"#utility.yul\":4773:5069   */\n      pop\n        /* \"#utility.yul\":4760:4761   */\n      0x01\n        /* \"#utility.yul\":4757:4758   */\n      dup2\n        /* \"#utility.yul\":4753:4762   */\n      add\n        /* \"#utility.yul\":4748:4762   */\n      swap1\n      pop\n        /* \"#utility.yul\":4713:5069   */\n      jump(tag_146)\n    tag_148:\n        /* \"#utility.yul\":4717:4731   */\n      pop\n        /* \"#utility.yul\":5085:5088   */\n      dup6\n        /* \"#utility.yul\":5078:5088   */\n      swap4\n      pop\n        /* \"#utility.yul\":4342:5094   */\n      pop\n      pop\n      pop\n        /* \"#utility.yul\":4170:5094   */\n      swap3\n      swap2\n      pop\n      pop\n      jump\t// out\n        /* \"#utility.yul\":5100:5569   */\n    tag_31:\n        /* \"#utility.yul\":5291:5295   */\n      0x00\n        /* \"#utility.yul\":5329:5331   */\n      0x20\n        /* \"#utility.yul\":5318:5327   */\n      dup3\n        /* \"#utility.yul\":5314:5332   */\n      add\n        /* \"#utility.yul\":5306:5332   */\n      swap1\n      pop\n        /* \"#utility.yul\":5378:5387   */\n      dup2\n        /* \"#utility.yul\":5372:5376   */\n      dup2\n        /* \"#utility.yul\":5368:5388   */\n      sub\n        /* \"#utility.yul\":5364:5365   */\n      0x00\n        /* \"#utility.yul\":5353:5362   */\n      dup4\n        /* \"#utility.yul\":5349:5366   */\n      add\n        /* \"#utility.yul\":5342:5389   */\n      mstore\n        /* \"#utility.yul\":5406:5562   */\n      tag_152\n        /* \"#utility.yul\":5557:5561   */\n      dup2\n        /* \"#utility.yul\":5548:5554   */\n      dup5\n        /* \"#utility.yul\":5406:5562   */\n      tag_94\n      jump\t// in\n    tag_152:\n        /* \"#utility.yul\":5398:5562   */\n      swap1\n      pop\n        /* \"#utility.yul\":5100:5569   */\n      swap3\n      swap2\n      pop\n      pop\n      jump\t// out\n        /* \"#utility.yul\":5575:5697   */\n    tag_95:\n        /* \"#utility.yul\":5648:5672   */\n      tag_154\n        /* \"#utility.yul\":5666:5671   */\n      dup2\n        /* \"#utility.yul\":5648:5672   */\n      tag_83\n      jump\t// in\n    tag_154:\n        /* \"#utility.yul\":5641:5646   */\n      dup2\n        /* \"#utility.yul\":5638:5673   */\n      eq\n        /* \"#utility.yul\":5628:5691   */\n      tag_155\n      jumpi\n        /* \"#utility.yul\":5687:5688   */\n      0x00\n        /* \"#utility.yul\":5684:5685   */\n      dup1\n        /* \"#utility.yul\":5677:5689   */\n      revert\n        /* \"#utility.yul\":5628:5691   */\n    tag_155:\n        /* \"#utility.yul\":5575:5697   */\n      pop\n      jump\t// out\n        /* \"#utility.yul\":5703:5842   */\n    tag_96:\n        /* \"#utility.yul\":5749:5754   */\n      0x00\n        /* \"#utility.yul\":5787:5793   */\n      dup2\n        /* \"#utility.yul\":5774:5794   */\n      calldataload\n        /* \"#utility.yul\":5765:5794   */\n      swap1\n      pop\n        /* \"#utility.yul\":5803:5836   */\n      tag_157\n        /* \"#utility.yul\":5830:5835   */\n      dup2\n        /* \"#utility.yul\":5803:5836   */\n      tag_95\n      jump\t// in\n    tag_157:\n        /* \"#utility.yul\":5703:5842   */\n      swap3\n      swap2\n      pop\n      pop\n      jump\t// out\n        /* \"#utility.yul\":5848:6177   */\n    tag_40:\n        /* \"#utility.yul\":5907:5913   */\n      0x00\n        /* \"#utility.yul\":5956:5958   */\n      0x20\n        /* \"#utility.yul\":5944:5953   */\n      dup3\n        /* \"#utility.yul\":5935:5942   */\n      dup5\n        /* \"#utility.yul\":5931:5954   */\n      sub\n        /* \"#utility.yul\":5927:5959   */\n      slt\n        /* \"#utility.yul\":5924:6043   */\n      iszero\n      tag_159\n      jumpi\n        /* \"#utility.yul\":5962:6041   */\n      tag_160\n      tag_77\n      jump\t// in\n    tag_160:\n        /* \"#utility.yul\":5924:6043   */\n    tag_159:\n        /* \"#utility.yul\":6082:6083   */\n      0x00\n        /* \"#utility.yul\":6107:6160   */\n      tag_161\n        /* \"#utility.yul\":6152:6159   */\n      dup5\n        /* \"#utility.yul\":6143:6149   */\n      dup3\n        /* \"#utility.yul\":6132:6141   */\n      dup6\n        /* \"#utility.yul\":6128:6150   */\n      add\n        /* \"#utility.yul\":6107:6160   */\n      tag_96\n      jump\t// in\n    tag_161:\n        /* \"#utility.yul\":6097:6160   */\n      swap2\n      pop\n        /* \"#utility.yul\":6053:6170   */\n      pop\n        /* \"#utility.yul\":5848:6177   */\n      swap3\n      swap2\n      pop\n      pop\n      jump\t// out\n        /* \"#utility.yul\":6183:6405   */\n    tag_43:\n        /* \"#utility.yul\":6276:6280   */\n      0x00\n        /* \"#utility.yul\":6314:6316   */\n      0x20\n        /* \"#utility.yul\":6303:6312   */\n      dup3\n        /* \"#utility.yul\":6299:6317   */\n      add\n        /* \"#utility.yul\":6291:6317   */\n      swap1\n      pop\n        /* \"#utility.yul\":6327:6398   */\n      tag_163\n        /* \"#utility.yul\":6395:6396   */\n      0x00\n        /* \"#utility.yul\":6384:6393   */\n      dup4\n        /* \"#utility.yul\":6380:6397   */\n      add\n        /* \"#utility.yul\":6371:6377   */\n      dup5\n        /* \"#utility.yul\":6327:6398   */\n      tag_85\n      jump\t// in\n    tag_163:\n        /* \"#utility.yul\":6183:6405   */\n      swap3\n      swap2\n      pop\n      pop\n      jump\t// out\n        /* \"#utility.yul\":6411:6591   */\n    tag_97:\n        /* \"#utility.yul\":6459:6536   */\n      0x4e487b7100000000000000000000000000000000000000000000000000000000\n        /* \"#utility.yul\":6456:6457   */\n      0x00\n        /* \"#utility.yul\":6449:6537   */\n      mstore\n        /* \"#utility.yul\":6556:6560   */\n      0x11\n        /* \"#utility.yul\":6553:6554   */\n      0x04\n        /* \"#utility.yul\":6546:6561   */\n      mstore\n        /* \"#utility.yul\":6580:6584   */\n      0x24\n        /* \"#utility.yul\":6577:6578   */\n      0x00\n        /* \"#utility.yul\":6570:6585   */\n      revert\n        /* \"#utility.yul\":6597:6788   */\n    tag_51:\n        /* \"#utility.yul\":6637:6640   */\n      0x00\n        /* \"#utility.yul\":6656:6676   */\n      tag_166\n        /* \"#utility.yul\":6674:6675   */\n      dup3\n        /* \"#utility.yul\":6656:6676   */\n      tag_79\n      jump\t// in\n    tag_166:\n        /* \"#utility.yul\":6651:6676   */\n      swap2\n      pop\n        /* \"#utility.yul\":6690:6710   */\n      tag_167\n        /* \"#utility.yul\":6708:6709   */\n      dup4\n        /* \"#utility.yul\":6690:6710   */\n      tag_79\n      jump\t// in\n    tag_167:\n        /* \"#utility.yul\":6685:6710   */\n      swap3\n      pop\n        /* \"#utility.yul\":6733:6734   */\n      dup3\n        /* \"#utility.yul\":6730:6731   */\n      dup3\n        /* \"#utility.yul\":6726:6735   */\n      add\n        /* \"#utility.yul\":6719:6735   */\n      swap1\n      pop\n        /* \"#utility.yul\":6754:6757   */\n      dup1\n        /* \"#utility.yul\":6751:6752   */\n      dup3\n        /* \"#utility.yul\":6748:6758   */\n      gt\n        /* \"#utility.yul\":6745:6781   */\n      iszero\n      tag_168\n      jumpi\n        /* \"#utility.yul\":6761:6779   */\n      tag_169\n      tag_97\n      jump\t// in\n    tag_169:\n        /* \"#utility.yul\":6745:6781   */\n    tag_168:\n        /* \"#utility.yul\":6597:6788   */\n      swap3\n      swap2\n      pop\n      pop\n      jump\t// out\n        /* \"#utility.yul\":6794:7126   */\n    tag_53:\n        /* \"#utility.yul\":6915:6919   */\n      0x00\n        /* \"#utility.yul\":6953:6955   */\n      0x40\n        /* \"#utility.yul\":6942:6951   */\n      dup3\n        /* \"#utility.yul\":6938:6956   */\n      add\n        /* \"#utility.yul\":6930:6956   */\n      swap1\n      pop\n        /* \"#utility.yul\":6966:7037   */\n      tag_171\n        /* \"#utility.yul\":7034:7035   */\n      0x00\n        /* \"#utility.yul\":7023:7032   */\n      dup4\n        /* \"#utility.yul\":7019:7036   */\n      add\n        /* \"#utility.yul\":7010:7016   */\n      dup6\n        /* \"#utility.yul\":6966:7037   */\n      tag_85\n      jump\t// in\n    tag_171:\n        /* \"#utility.yul\":7047:7119   */\n      tag_172\n        /* \"#utility.yul\":7115:7117   */\n      0x20\n        /* \"#utility.yul\":7104:7113   */\n      dup4\n        /* \"#utility.yul\":7100:7118   */\n      add\n        /* \"#utility.yul\":7091:7097   */\n      dup5\n        /* \"#utility.yul\":7047:7119   */\n      tag_85\n      jump\t// in\n    tag_172:\n        /* \"#utility.yul\":6794:7126   */\n      swap4\n      swap3\n      pop\n      pop\n      pop\n      jump\t// out\n        /* \"#utility.yul\":7132:7301   */\n    tag_98:\n        /* \"#utility.yul\":7216:7227   */\n      0x00\n        /* \"#utility.yul\":7250:7256   */\n      dup3\n        /* \"#utility.yul\":7245:7248   */\n      dup3\n        /* \"#utility.yul\":7238:7257   */\n      mstore\n        /* \"#utility.yul\":7290:7294   */\n      0x20\n        /* \"#utility.yul\":7285:7288   */\n      dup3\n        /* \"#utility.yul\":7281:7295   */\n      add\n        /* \"#utility.yul\":7266:7295   */\n      swap1\n      pop\n        /* \"#utility.yul\":7132:7301   */\n      swap3\n      swap2\n      pop\n      pop\n      jump\t// out\n        /* \"#utility.yul\":7307:7480   */\n    tag_99:\n        /* \"#utility.yul\":7447:7472   */\n      0x7573746564206e6f207469656e65207065726d69736f73000000000000000000\n        /* \"#utility.yul\":7443:7444   */\n      0x00\n        /* \"#utility.yul\":7435:7441   */\n      dup3\n        /* \"#utility.yul\":7431:7445   */\n      add\n        /* \"#utility.yul\":7424:7473   */\n      mstore\n        /* \"#utility.yul\":7307:7480   */\n      pop\n      jump\t// out\n        /* \"#utility.yul\":7486:7852   */\n    tag_100:\n        /* \"#utility.yul\":7628:7631   */\n      0x00\n        /* \"#utility.yul\":7649:7716   */\n      tag_176\n        /* \"#utility.yul\":7713:7715   */\n      0x17\n        /* \"#utility.yul\":7708:7711   */\n      dup4\n        /* \"#utility.yul\":7649:7716   */\n      tag_98\n      jump\t// in\n    tag_176:\n        /* \"#utility.yul\":7642:7716   */\n      swap2\n      pop\n        /* \"#utility.yul\":7725:7818   */\n      tag_177\n        /* \"#utility.yul\":7814:7817   */\n      dup3\n        /* \"#utility.yul\":7725:7818   */\n      tag_99\n      jump\t// in\n    tag_177:\n        /* \"#utility.yul\":7843:7845   */\n      0x20\n        /* \"#utility.yul\":7838:7841   */\n      dup3\n        /* \"#utility.yul\":7834:7846   */\n      add\n        /* \"#utility.yul\":7827:7846   */\n      swap1\n      pop\n        /* \"#utility.yul\":7486:7852   */\n      swap2\n      swap1\n      pop\n      jump\t// out\n        /* \"#utility.yul\":7858:8277   */\n    tag_57:\n        /* \"#utility.yul\":8024:8028   */\n      0x00\n        /* \"#utility.yul\":8062:8064   */\n      0x20\n        /* \"#utility.yul\":8051:8060   */\n      dup3\n        /* \"#utility.yul\":8047:8065   */\n      add\n        /* \"#utility.yul\":8039:8065   */\n      swap1\n      pop\n        /* \"#utility.yul\":8111:8120   */\n      dup2\n        /* \"#utility.yul\":8105:8109   */\n      dup2\n        /* \"#utility.yul\":8101:8121   */\n      sub\n        /* \"#utility.yul\":8097:8098   */\n      0x00\n        /* \"#utility.yul\":8086:8095   */\n      dup4\n        /* \"#utility.yul\":8082:8099   */\n      add\n        /* \"#utility.yul\":8075:8122   */\n      mstore\n        /* \"#utility.yul\":8139:8270   */\n      tag_179\n        /* \"#utility.yul\":8265:8269   */\n      dup2\n        /* \"#utility.yul\":8139:8270   */\n      tag_100\n      jump\t// in\n    tag_179:\n        /* \"#utility.yul\":8131:8270   */\n      swap1\n      pop\n        /* \"#utility.yul\":7858:8277   */\n      swap2\n      swap1\n      pop\n      jump\t// out\n        /* \"#utility.yul\":8283:8463   */\n    tag_67:\n        /* \"#utility.yul\":8331:8408   */\n      0x4e487b7100000000000000000000000000000000000000000000000000000000\n        /* \"#utility.yul\":8328:8329   */\n      0x00\n        /* \"#utility.yul\":8321:8409   */\n      mstore\n        /* \"#utility.yul\":8428:8432   */\n      0x32\n        /* \"#utility.yul\":8425:8426   */\n      0x04\n        /* \"#utility.yul\":8418:8433   */\n      mstore\n        /* \"#utility.yul\":8452:8456   */\n      0x24\n        /* \"#utility.yul\":8449:8450   */\n      0x00\n        /* \"#utility.yul\":8442:8457   */\n      revert\n\n    auxdata: 0xa264697066735822122078b0c52c2e886e1fa6605be063440e8439988515f7091e34effd69fc439a748664736f6c634300081a0033\n}\n",
				"bytecode": {
					"linkReferences": {},
					"object": "6080604052348015600e575f80fd5b503360035f6101000a81548173ffffffffffffffffffffffffffffffffffffffff021916908373ffffffffffffffffffffffffffffffffffffffff160217905550610a568061005c5f395ff3fe60806040526004361061006f575f3560e01c80638da5cb5b1161004d5780638da5cb5b146100d1578063af3e2e83146100fb578063c2741fb114610125578063e3d670d7146101615761006f565b806310b52cdd1461007357806313fc9b12146100b15780638af01880146100bb575b5f80fd5b34801561007e575f80fd5b5061009960048036038101906100949190610699565b61019d565b6040516100a893929190610712565b60405180910390f35b6100b96101f1565b005b3480156100c6575f80fd5b506100cf6103f1565b005b3480156100dc575f80fd5b506100e56104c6565b6040516100f29190610747565b60405180910390f35b348015610106575f80fd5b5061010f6104eb565b60405161011c9190610866565b60405180910390f35b348015610130575f80fd5b5061014b60048036038101906101469190610699565b610613565b6040516101589190610747565b60405180910390f35b34801561016c575f80fd5b50610187600480360381019061018291906108b0565b61064e565b60405161019491906108db565b60405180910390f35b600181815481106101ac575f80fd5b905f5260205f2090600302015f91509050805f015f9054906101000a900473ffffffffffffffffffffffffffffffffffffffff16908060010154908060020154905083565b5f339050600160405180606001604052808373ffffffffffffffffffffffffffffffffffffffff16815260200134815260200142815250908060018154018082558091505060019003905f5260205f2090600302015f909190919091505f820151815f015f6101000a81548173ffffffffffffffffffffffffffffffffffffffff021916908373ffffffffffffffffffffffffffffffffffffffff160217905550602082015181600101556040820151816002015550505f805f8373ffffffffffffffffffffffffffffffffffffffff1673ffffffffffffffffffffffffffffffffffffffff1681526020019081526020015f20540361034c57600281908060018154018082558091505060019003905f5260205f20015f9091909190916101000a81548173ffffffffffffffffffffffffffffffffffffffff021916908373ffffffffffffffffffffffffffffffffffffffff1602179055505b345f808373ffffffffffffffffffffffffffffffffffffffff1673ffffffffffffffffffffffffffffffffffffffff1681526020019081526020015f205f8282546103979190610921565b925050819055508073ffffffffffffffffffffffffffffffffffffffff167f8d2cddeb711d73ef9b73e26eb1c641e973467cf3f6b9bb7df8a0751686c24c6034426040516103e6929190610954565b60405180910390a250565b60035f9054906101000a900473ffffffffffffffffffffffffffffffffffffffff1673ffffffffffffffffffffffffffffffffffffffff163373ffffffffffffffffffffffffffffffffffffffff1614610480576040517f08c379a0000000000000000000000000000000000000000000000000000000008152600401610477906109d5565b60405180910390fd5b3373ffffffffffffffffffffffffffffffffffffffff166108fc4790811502906040515f60405180830381858888f193505050501580156104c3573d5f803e3d5ffd5b50565b60035f9054906101000a900473ffffffffffffffffffffffffffffffffffffffff1681565b60605f60028054905090505f5b8181101561060e5760405180606001604052806002838154811061051f5761051e6109f3565b5b905f5260205f20015f9054906101000a900473ffffffffffffffffffffffffffffffffffffffff1673ffffffffffffffffffffffffffffffffffffffff1681526020015f8060028581548110610578576105776109f3565b5b905f5260205f20015f9054906101000a900473ffffffffffffffffffffffffffffffffffffffff1673ffffffffffffffffffffffffffffffffffffffff1673ffffffffffffffffffffffffffffffffffffffff1681526020019081526020015f20548152602001428152508382815181106105f6576105f56109f3565b5b602002602001018190525080806001019150506104f8565b505090565b60028181548110610622575f80fd5b905f5260205f20015f915054906101000a900473ffffffffffffffffffffffffffffffffffffffff1681565b5f602052805f5260405f205f915090505481565b5f80fd5b5f819050919050565b61067881610666565b8114610682575f80fd5b50565b5f813590506106938161066f565b92915050565b5f602082840312156106ae576106ad610662565b5b5f6106bb84828501610685565b91505092915050565b5f73ffffffffffffffffffffffffffffffffffffffff82169050919050565b5f6106ed826106c4565b9050919050565b6106fd816106e3565b82525050565b61070c81610666565b82525050565b5f6060820190506107255f8301866106f4565b6107326020830185610703565b61073f6040830184610703565b949350505050565b5f60208201905061075a5f8301846106f4565b92915050565b5f81519050919050565b5f82825260208201905092915050565b5f819050602082019050919050565b610792816106e3565b82525050565b6107a181610666565b82525050565b606082015f8201516107bb5f850182610789565b5060208201516107ce6020850182610798565b5060408201516107e16040850182610798565b50505050565b5f6107f283836107a7565b60608301905092915050565b5f602082019050919050565b5f61081482610760565b61081e818561076a565b93506108298361077a565b805f5b8381101561085957815161084088826107e7565b975061084b836107fe565b92505060018101905061082c565b5085935050505092915050565b5f6020820190508181035f83015261087e818461080a565b905092915050565b61088f816106e3565b8114610899575f80fd5b50565b5f813590506108aa81610886565b92915050565b5f602082840312156108c5576108c4610662565b5b5f6108d28482850161089c565b91505092915050565b5f6020820190506108ee5f830184610703565b92915050565b7f4e487b71000000000000000000000000000000000000000000000000000000005f52601160045260245ffd5b5f61092b82610666565b915061093683610666565b925082820190508082111561094e5761094d6108f4565b5b92915050565b5f6040820190506109675f830185610703565b6109746020830184610703565b9392505050565b5f82825260208201905092915050565b7f7573746564206e6f207469656e65207065726d69736f730000000000000000005f82015250565b5f6109bf60178361097b565b91506109ca8261098b565b602082019050919050565b5f6020820190508181035f8301526109ec816109b3565b9050919050565b7f4e487b71000000000000000000000000000000000000000000000000000000005f52603260045260245ffdfea264697066735822122078b0c52c2e886e1fa6605be063440e8439988515f7091e34effd69fc439a748664736f6c634300081a0033",
					"opcodes": "PUSH1 0x80 PUSH1 0x40 MSTORE CALLVALUE DUP1 ISZERO PUSH1 0xE JUMPI PUSH0 DUP1 REVERT JUMPDEST POP CALLER PUSH1 0x3 PUSH0 PUSH2 0x100 EXP DUP2 SLOAD DUP2 PUSH20 0xFFFFFFFFFFFFFFFFFFFFFFFFFFFFFFFFFFFFFFFF MUL NOT AND SWAP1 DUP4 PUSH20 0xFFFFFFFFFFFFFFFFFFFFFFFFFFFFFFFFFFFFFFFF AND MUL OR SWAP1 SSTORE POP PUSH2 0xA56 DUP1 PUSH2 0x5C PUSH0 CODECOPY PUSH0 RETURN INVALID PUSH1 0x80 PUSH1 0x40 MSTORE PUSH1 0x4 CALLDATASIZE LT PUSH2 0x6F JUMPI PUSH0 CALLDATALOAD PUSH1 0xE0 SHR DUP1 PUSH4 0x8DA5CB5B GT PUSH2 0x4D JUMPI DUP1 PUSH4 0x8DA5CB5B EQ PUSH2 0xD1 JUMPI DUP1 PUSH4 0xAF3E2E83 EQ PUSH2 0xFB JUMPI DUP1 PUSH4 0xC2741FB1 EQ PUSH2 0x125 JUMPI DUP1 PUSH4 0xE3D670D7 EQ PUSH2 0x161 JUMPI PUSH2 0x6F JUMP JUMPDEST DUP1 PUSH4 0x10B52CDD EQ PUSH2 0x73 JUMPI DUP1 PUSH4 0x13FC9B12 EQ PUSH2 0xB1 JUMPI DUP1 PUSH4 0x8AF01880 EQ PUSH2 0xBB JUMPI JUMPDEST PUSH0 DUP1 REVERT JUMPDEST CALLVALUE DUP1 ISZERO PUSH2 0x7E JUMPI PUSH0 DUP1 REVERT JUMPDEST POP PUSH2 0x99 PUSH1 0x4 DUP1 CALLDATASIZE SUB DUP2 ADD SWAP1 PUSH2 0x94 SWAP2 SWAP1 PUSH2 0x699 JUMP JUMPDEST PUSH2 0x19D JUMP JUMPDEST PUSH1 0x40 MLOAD PUSH2 0xA8 SWAP4 SWAP3 SWAP2 SWAP1 PUSH2 0x712 JUMP JUMPDEST PUSH1 0x40 MLOAD DUP1 SWAP2 SUB SWAP1 RETURN JUMPDEST PUSH2 0xB9 PUSH2 0x1F1 JUMP JUMPDEST STOP JUMPDEST CALLVALUE DUP1 ISZERO PUSH2 0xC6 JUMPI PUSH0 DUP1 REVERT JUMPDEST POP PUSH2 0xCF PUSH2 0x3F1 JUMP JUMPDEST STOP JUMPDEST CALLVALUE DUP1 ISZERO PUSH2 0xDC JUMPI PUSH0 DUP1 REVERT JUMPDEST POP PUSH2 0xE5 PUSH2 0x4C6 JUMP JUMPDEST PUSH1 0x40 MLOAD PUSH2 0xF2 SWAP2 SWAP1 PUSH2 0x747 JUMP JUMPDEST PUSH1 0x40 MLOAD DUP1 SWAP2 SUB SWAP1 RETURN JUMPDEST CALLVALUE DUP1 ISZERO PUSH2 0x106 JUMPI PUSH0 DUP1 REVERT JUMPDEST POP PUSH2 0x10F PUSH2 0x4EB JUMP JUMPDEST PUSH1 0x40 MLOAD PUSH2 0x11C SWAP2 SWAP1 PUSH2 0x866 JUMP JUMPDEST PUSH1 0x40 MLOAD DUP1 SWAP2 SUB SWAP1 RETURN JUMPDEST CALLVALUE DUP1 ISZERO PUSH2 0x130 JUMPI PUSH0 DUP1 REVERT JUMPDEST POP PUSH2 0x14B PUSH1 0x4 DUP1 CALLDATASIZE SUB DUP2 ADD SWAP1 PUSH2 0x146 SWAP2 SWAP1 PUSH2 0x699 JUMP JUMPDEST PUSH2 0x613 JUMP JUMPDEST PUSH1 0x40 MLOAD PUSH2 0x158 SWAP2 SWAP1 PUSH2 0x747 JUMP JUMPDEST PUSH1 0x40 MLOAD DUP1 SWAP2 SUB SWAP1 RETURN JUMPDEST CALLVALUE DUP1 ISZERO PUSH2 0x16C JUMPI PUSH0 DUP1 REVERT JUMPDEST POP PUSH2 0x187 PUSH1 0x4 DUP1 CALLDATASIZE SUB DUP2 ADD SWAP1 PUSH2 0x182 SWAP2 SWAP1 PUSH2 0x8B0 JUMP JUMPDEST PUSH2 0x64E JUMP JUMPDEST PUSH1 0x40 MLOAD PUSH2 0x194 SWAP2 SWAP1 PUSH2 0x8DB JUMP JUMPDEST PUSH1 0x40 MLOAD DUP1 SWAP2 SUB SWAP1 RETURN JUMPDEST PUSH1 0x1 DUP2 DUP2 SLOAD DUP2 LT PUSH2 0x1AC JUMPI PUSH0 DUP1 REVERT JUMPDEST SWAP1 PUSH0 MSTORE PUSH1 0x20 PUSH0 KECCAK256 SWAP1 PUSH1 0x3 MUL ADD PUSH0 SWAP2 POP SWAP1 POP DUP1 PUSH0 ADD PUSH0 SWAP1 SLOAD SWAP1 PUSH2 0x100 EXP SWAP1 DIV PUSH20 0xFFFFFFFFFFFFFFFFFFFFFFFFFFFFFFFFFFFFFFFF AND SWAP1 DUP1 PUSH1 0x1 ADD SLOAD SWAP1 DUP1 PUSH1 0x2 ADD SLOAD SWAP1 POP DUP4 JUMP JUMPDEST PUSH0 CALLER SWAP1 POP PUSH1 0x1 PUSH1 0x40 MLOAD DUP1 PUSH1 0x60 ADD PUSH1 0x40 MSTORE DUP1 DUP4 PUSH20 0xFFFFFFFFFFFFFFFFFFFFFFFFFFFFFFFFFFFFFFFF AND DUP2 MSTORE PUSH1 0x20 ADD CALLVALUE DUP2 MSTORE PUSH1 0x20 ADD TIMESTAMP DUP2 MSTORE POP SWAP1 DUP1 PUSH1 0x1 DUP2 SLOAD ADD DUP1 DUP3 SSTORE DUP1 SWAP2 POP POP PUSH1 0x1 SWAP1 SUB SWAP1 PUSH0 MSTORE PUSH1 0x20 PUSH0 KECCAK256 SWAP1 PUSH1 0x3 MUL ADD PUSH0 SWAP1 SWAP2 SWAP1 SWAP2 SWAP1 SWAP2 POP PUSH0 DUP3 ADD MLOAD DUP2 PUSH0 ADD PUSH0 PUSH2 0x100 EXP DUP2 SLOAD DUP2 PUSH20 0xFFFFFFFFFFFFFFFFFFFFFFFFFFFFFFFFFFFFFFFF MUL NOT AND SWAP1 DUP4 PUSH20 0xFFFFFFFFFFFFFFFFFFFFFFFFFFFFFFFFFFFFFFFF AND MUL OR SWAP1 SSTORE POP PUSH1 0x20 DUP3 ADD MLOAD DUP2 PUSH1 0x1 ADD SSTORE PUSH1 0x40 DUP3 ADD MLOAD DUP2 PUSH1 0x2 ADD SSTORE POP POP PUSH0 DUP1 PUSH0 DUP4 PUSH20 0xFFFFFFFFFFFFFFFFFFFFFFFFFFFFFFFFFFFFFFFF AND PUSH20 0xFFFFFFFFFFFFFFFFFFFFFFFFFFFFFFFFFFFFFFFF AND DUP2 MSTORE PUSH1 0x20 ADD SWAP1 DUP2 MSTORE PUSH1 0x20 ADD PUSH0 KECCAK256 SLOAD SUB PUSH2 0x34C JUMPI PUSH1 0x2 DUP2 SWAP1 DUP1 PUSH1 0x1 DUP2 SLOAD ADD DUP1 DUP3 SSTORE DUP1 SWAP2 POP POP PUSH1 0x1 SWAP1 SUB SWAP1 PUSH0 MSTORE PUSH1 0x20 PUSH0 KECCAK256 ADD PUSH0 SWAP1 SWAP2 SWAP1 SWAP2 SWAP1 SWAP2 PUSH2 0x100 EXP DUP2 SLOAD DUP2 PUSH20 0xFFFFFFFFFFFFFFFFFFFFFFFFFFFFFFFFFFFFFFFF MUL NOT AND SWAP1 DUP4 PUSH20 0xFFFFFFFFFFFFFFFFFFFFFFFFFFFFFFFFFFFFFFFF AND MUL OR SWAP1 SSTORE POP JUMPDEST CALLVALUE PUSH0 DUP1 DUP4 PUSH20 0xFFFFFFFFFFFFFFFFFFFFFFFFFFFFFFFFFFFFFFFF AND PUSH20 0xFFFFFFFFFFFFFFFFFFFFFFFFFFFFFFFFFFFFFFFF AND DUP2 MSTORE PUSH1 0x20 ADD SWAP1 DUP2 MSTORE PUSH1 0x20 ADD PUSH0 KECCAK256 PUSH0 DUP3 DUP3 SLOAD PUSH2 0x397 SWAP2 SWAP1 PUSH2 0x921 JUMP JUMPDEST SWAP3 POP POP DUP2 SWAP1 SSTORE POP DUP1 PUSH20 0xFFFFFFFFFFFFFFFFFFFFFFFFFFFFFFFFFFFFFFFF AND PUSH32 0x8D2CDDEB711D73EF9B73E26EB1C641E973467CF3F6B9BB7DF8A0751686C24C60 CALLVALUE TIMESTAMP PUSH1 0x40 MLOAD PUSH2 0x3E6 SWAP3 SWAP2 SWAP1 PUSH2 0x954 JUMP JUMPDEST PUSH1 0x40 MLOAD DUP1 SWAP2 SUB SWAP1 LOG2 POP JUMP JUMPDEST PUSH1 0x3 PUSH0 SWAP1 SLOAD SWAP1 PUSH2 0x100 EXP SWAP1 DIV PUSH20 0xFFFFFFFFFFFFFFFFFFFFFFFFFFFFFFFFFFFFFFFF AND PUSH20 0xFFFFFFFFFFFFFFFFFFFFFFFFFFFFFFFFFFFFFFFF AND CALLER PUSH20 0xFFFFFFFFFFFFFFFFFFFFFFFFFFFFFFFFFFFFFFFF AND EQ PUSH2 0x480 JUMPI PUSH1 0x40 MLOAD PUSH32 0x8C379A000000000000000000000000000000000000000000000000000000000 DUP2 MSTORE PUSH1 0x4 ADD PUSH2 0x477 SWAP1 PUSH2 0x9D5 JUMP JUMPDEST PUSH1 0x40 MLOAD DUP1 SWAP2 SUB SWAP1 REVERT JUMPDEST CALLER PUSH20 0xFFFFFFFFFFFFFFFFFFFFFFFFFFFFFFFFFFFFFFFF AND PUSH2 0x8FC SELFBALANCE SWAP1 DUP2 ISZERO MUL SWAP1 PUSH1 0x40 MLOAD PUSH0 PUSH1 0x40 MLOAD DUP1 DUP4 SUB DUP2 DUP6 DUP9 DUP9 CALL SWAP4 POP POP POP POP ISZERO DUP1 ISZERO PUSH2 0x4C3 JUMPI RETURNDATASIZE PUSH0 DUP1 RETURNDATACOPY RETURNDATASIZE PUSH0 REVERT JUMPDEST POP JUMP JUMPDEST PUSH1 0x3 PUSH0 SWAP1 SLOAD SWAP1 PUSH2 0x100 EXP SWAP1 DIV PUSH20 0xFFFFFFFFFFFFFFFFFFFFFFFFFFFFFFFFFFFFFFFF AND DUP2 JUMP JUMPDEST PUSH1 0x60 PUSH0 PUSH1 0x2 DUP1 SLOAD SWAP1 POP SWAP1 POP PUSH0 JUMPDEST DUP2 DUP2 LT ISZERO PUSH2 0x60E JUMPI PUSH1 0x40 MLOAD DUP1 PUSH1 0x60 ADD PUSH1 0x40 MSTORE DUP1 PUSH1 0x2 DUP4 DUP2 SLOAD DUP2 LT PUSH2 0x51F JUMPI PUSH2 0x51E PUSH2 0x9F3 JUMP JUMPDEST JUMPDEST SWAP1 PUSH0 MSTORE PUSH1 0x20 PUSH0 KECCAK256 ADD PUSH0 SWAP1 SLOAD SWAP1 PUSH2 0x100 EXP SWAP1 DIV PUSH20 0xFFFFFFFFFFFFFFFFFFFFFFFFFFFFFFFFFFFFFFFF AND PUSH20 0xFFFFFFFFFFFFFFFFFFFFFFFFFFFFFFFFFFFFFFFF AND DUP2 MSTORE PUSH1 0x20 ADD PUSH0 DUP1 PUSH1 0x2 DUP6 DUP2 SLOAD DUP2 LT PUSH2 0x578 JUMPI PUSH2 0x577 PUSH2 0x9F3 JUMP JUMPDEST JUMPDEST SWAP1 PUSH0 MSTORE PUSH1 0x20 PUSH0 KECCAK256 ADD PUSH0 SWAP1 SLOAD SWAP1 PUSH2 0x100 EXP SWAP1 DIV PUSH20 0xFFFFFFFFFFFFFFFFFFFFFFFFFFFFFFFFFFFFFFFF AND PUSH20 0xFFFFFFFFFFFFFFFFFFFFFFFFFFFFFFFFFFFFFFFF AND PUSH20 0xFFFFFFFFFFFFFFFFFFFFFFFFFFFFFFFFFFFFFFFF AND DUP2 MSTORE PUSH1 0x20 ADD SWAP1 DUP2 MSTORE PUSH1 0x20 ADD PUSH0 KECCAK256 SLOAD DUP2 MSTORE PUSH1 0x20 ADD TIMESTAMP DUP2 MSTORE POP DUP4 DUP3 DUP2 MLOAD DUP2 LT PUSH2 0x5F6 JUMPI PUSH2 0x5F5 PUSH2 0x9F3 JUMP JUMPDEST JUMPDEST PUSH1 0x20 MUL PUSH1 0x20 ADD ADD DUP2 SWAP1 MSTORE POP DUP1 DUP1 PUSH1 0x1 ADD SWAP2 POP POP PUSH2 0x4F8 JUMP JUMPDEST POP POP SWAP1 JUMP JUMPDEST PUSH1 0x2 DUP2 DUP2 SLOAD DUP2 LT PUSH2 0x622 JUMPI PUSH0 DUP1 REVERT JUMPDEST SWAP1 PUSH0 MSTORE PUSH1 0x20 PUSH0 KECCAK256 ADD PUSH0 SWAP2 POP SLOAD SWAP1 PUSH2 0x100 EXP SWAP1 DIV PUSH20 0xFFFFFFFFFFFFFFFFFFFFFFFFFFFFFFFFFFFFFFFF AND DUP2 JUMP JUMPDEST PUSH0 PUSH1 0x20 MSTORE DUP1 PUSH0 MSTORE PUSH1 0x40 PUSH0 KECCAK256 PUSH0 SWAP2 POP SWAP1 POP SLOAD DUP2 JUMP JUMPDEST PUSH0 DUP1 REVERT JUMPDEST PUSH0 DUP2 SWAP1 POP SWAP2 SWAP1 POP JUMP JUMPDEST PUSH2 0x678 DUP2 PUSH2 0x666 JUMP JUMPDEST DUP2 EQ PUSH2 0x682 JUMPI PUSH0 DUP1 REVERT JUMPDEST POP JUMP JUMPDEST PUSH0 DUP2 CALLDATALOAD SWAP1 POP PUSH2 0x693 DUP2 PUSH2 0x66F JUMP JUMPDEST SWAP3 SWAP2 POP POP JUMP JUMPDEST PUSH0 PUSH1 0x20 DUP3 DUP5 SUB SLT ISZERO PUSH2 0x6AE JUMPI PUSH2 0x6AD PUSH2 0x662 JUMP JUMPDEST JUMPDEST PUSH0 PUSH2 0x6BB DUP5 DUP3 DUP6 ADD PUSH2 0x685 JUMP JUMPDEST SWAP2 POP POP SWAP3 SWAP2 POP POP JUMP JUMPDEST PUSH0 PUSH20 0xFFFFFFFFFFFFFFFFFFFFFFFFFFFFFFFFFFFFFFFF DUP3 AND SWAP1 POP SWAP2 SWAP1 POP JUMP JUMPDEST PUSH0 PUSH2 0x6ED DUP3 PUSH2 0x6C4 JUMP JUMPDEST SWAP1 POP SWAP2 SWAP1 POP JUMP JUMPDEST PUSH2 0x6FD DUP2 PUSH2 0x6E3 JUMP JUMPDEST DUP3 MSTORE POP POP JUMP JUMPDEST PUSH2 0x70C DUP2 PUSH2 0x666 JUMP JUMPDEST DUP3 MSTORE POP POP JUMP JUMPDEST PUSH0 PUSH1 0x60 DUP3 ADD SWAP1 POP PUSH2 0x725 PUSH0 DUP4 ADD DUP7 PUSH2 0x6F4 JUMP JUMPDEST PUSH2 0x732 PUSH1 0x20 DUP4 ADD DUP6 PUSH2 0x703 JUMP JUMPDEST PUSH2 0x73F PUSH1 0x40 DUP4 ADD DUP5 PUSH2 0x703 JUMP JUMPDEST SWAP5 SWAP4 POP POP POP POP JUMP JUMPDEST PUSH0 PUSH1 0x20 DUP3 ADD SWAP1 POP PUSH2 0x75A PUSH0 DUP4 ADD DUP5 PUSH2 0x6F4 JUMP JUMPDEST SWAP3 SWAP2 POP POP JUMP JUMPDEST PUSH0 DUP2 MLOAD SWAP1 POP SWAP2 SWAP1 POP JUMP JUMPDEST PUSH0 DUP3 DUP3 MSTORE PUSH1 0x20 DUP3 ADD SWAP1 POP SWAP3 SWAP2 POP POP JUMP JUMPDEST PUSH0 DUP2 SWAP1 POP PUSH1 0x20 DUP3 ADD SWAP1 POP SWAP2 SWAP1 POP JUMP JUMPDEST PUSH2 0x792 DUP2 PUSH2 0x6E3 JUMP JUMPDEST DUP3 MSTORE POP POP JUMP JUMPDEST PUSH2 0x7A1 DUP2 PUSH2 0x666 JUMP JUMPDEST DUP3 MSTORE POP POP JUMP JUMPDEST PUSH1 0x60 DUP3 ADD PUSH0 DUP3 ADD MLOAD PUSH2 0x7BB PUSH0 DUP6 ADD DUP3 PUSH2 0x789 JUMP JUMPDEST POP PUSH1 0x20 DUP3 ADD MLOAD PUSH2 0x7CE PUSH1 0x20 DUP6 ADD DUP3 PUSH2 0x798 JUMP JUMPDEST POP PUSH1 0x40 DUP3 ADD MLOAD PUSH2 0x7E1 PUSH1 0x40 DUP6 ADD DUP3 PUSH2 0x798 JUMP JUMPDEST POP POP POP POP JUMP JUMPDEST PUSH0 PUSH2 0x7F2 DUP4 DUP4 PUSH2 0x7A7 JUMP JUMPDEST PUSH1 0x60 DUP4 ADD SWAP1 POP SWAP3 SWAP2 POP POP JUMP JUMPDEST PUSH0 PUSH1 0x20 DUP3 ADD SWAP1 POP SWAP2 SWAP1 POP JUMP JUMPDEST PUSH0 PUSH2 0x814 DUP3 PUSH2 0x760 JUMP JUMPDEST PUSH2 0x81E DUP2 DUP6 PUSH2 0x76A JUMP JUMPDEST SWAP4 POP PUSH2 0x829 DUP4 PUSH2 0x77A JUMP JUMPDEST DUP1 PUSH0 JUMPDEST DUP4 DUP2 LT ISZERO PUSH2 0x859 JUMPI DUP2 MLOAD PUSH2 0x840 DUP9 DUP3 PUSH2 0x7E7 JUMP JUMPDEST SWAP8 POP PUSH2 0x84B DUP4 PUSH2 0x7FE JUMP JUMPDEST SWAP3 POP POP PUSH1 0x1 DUP2 ADD SWAP1 POP PUSH2 0x82C JUMP JUMPDEST POP DUP6 SWAP4 POP POP POP POP SWAP3 SWAP2 POP POP JUMP JUMPDEST PUSH0 PUSH1 0x20 DUP3 ADD SWAP1 POP DUP2 DUP2 SUB PUSH0 DUP4 ADD MSTORE PUSH2 0x87E DUP2 DUP5 PUSH2 0x80A JUMP JUMPDEST SWAP1 POP SWAP3 SWAP2 POP POP JUMP JUMPDEST PUSH2 0x88F DUP2 PUSH2 0x6E3 JUMP JUMPDEST DUP2 EQ PUSH2 0x899 JUMPI PUSH0 DUP1 REVERT JUMPDEST POP JUMP JUMPDEST PUSH0 DUP2 CALLDATALOAD SWAP1 POP PUSH2 0x8AA DUP2 PUSH2 0x886 JUMP JUMPDEST SWAP3 SWAP2 POP POP JUMP JUMPDEST PUSH0 PUSH1 0x20 DUP3 DUP5 SUB SLT ISZERO PUSH2 0x8C5 JUMPI PUSH2 0x8C4 PUSH2 0x662 JUMP JUMPDEST JUMPDEST PUSH0 PUSH2 0x8D2 DUP5 DUP3 DUP6 ADD PUSH2 0x89C JUMP JUMPDEST SWAP2 POP POP SWAP3 SWAP2 POP POP JUMP JUMPDEST PUSH0 PUSH1 0x20 DUP3 ADD SWAP1 POP PUSH2 0x8EE PUSH0 DUP4 ADD DUP5 PUSH2 0x703 JUMP JUMPDEST SWAP3 SWAP2 POP POP JUMP JUMPDEST PUSH32 0x4E487B7100000000000000000000000000000000000000000000000000000000 PUSH0 MSTORE PUSH1 0x11 PUSH1 0x4 MSTORE PUSH1 0x24 PUSH0 REVERT JUMPDEST PUSH0 PUSH2 0x92B DUP3 PUSH2 0x666 JUMP JUMPDEST SWAP2 POP PUSH2 0x936 DUP4 PUSH2 0x666 JUMP JUMPDEST SWAP3 POP DUP3 DUP3 ADD SWAP1 POP DUP1 DUP3 GT ISZERO PUSH2 0x94E JUMPI PUSH2 0x94D PUSH2 0x8F4 JUMP JUMPDEST JUMPDEST SWAP3 SWAP2 POP POP JUMP JUMPDEST PUSH0 PUSH1 0x40 DUP3 ADD SWAP1 POP PUSH2 0x967 PUSH0 DUP4 ADD DUP6 PUSH2 0x703 JUMP JUMPDEST PUSH2 0x974 PUSH1 0x20 DUP4 ADD DUP5 PUSH2 0x703 JUMP JUMPDEST SWAP4 SWAP3 POP POP POP JUMP JUMPDEST PUSH0 DUP3 DUP3 MSTORE PUSH1 0x20 DUP3 ADD SWAP1 POP SWAP3 SWAP2 POP POP JUMP JUMPDEST PUSH32 0x7573746564206E6F207469656E65207065726D69736F73000000000000000000 PUSH0 DUP3 ADD MSTORE POP JUMP JUMPDEST PUSH0 PUSH2 0x9BF PUSH1 0x17 DUP4 PUSH2 0x97B JUMP JUMPDEST SWAP2 POP PUSH2 0x9CA DUP3 PUSH2 0x98B JUMP JUMPDEST PUSH1 0x20 DUP3 ADD SWAP1 POP SWAP2 SWAP1 POP JUMP JUMPDEST PUSH0 PUSH1 0x20 DUP3 ADD SWAP1 POP DUP2 DUP2 SUB PUSH0 DUP4 ADD MSTORE PUSH2 0x9EC DUP2 PUSH2 0x9B3 JUMP JUMPDEST SWAP1 POP SWAP2 SWAP1 POP JUMP JUMPDEST PUSH32 0x4E487B7100000000000000000000000000000000000000000000000000000000 PUSH0 MSTORE PUSH1 0x32 PUSH1 0x4 MSTORE PUSH1 0x24 PUSH0 REVERT INVALID LOG2 PUSH5 0x6970667358 0x22 SLT KECCAK256 PUSH25 0xB0C52C2E886E1FA6605BE063440E8439988515F7091E34EFFD PUSH10 0xFC439A748664736F6C63 NUMBER STOP ADDMOD BYTE STOP CALLER "
				},
				"gasEstimates": {
					"creation": {
						"codeDepositCost": "529200",
						"executionCost": "24825",
						"totalCost": "554025"
					},
					"external": {
						"balance(address)": "2867",
						"donaciones(uint256)": "infinite",
						"donar()": "infinite",
						"obtenerDonaciones()": "infinite",
						"owner()": "2508",
						"retirarFondos()": "infinite",
						"uniqueAddr(uint256)": "4988"
					}
				},
				"methodIdentifiers": {
					"balance(address)": "e3d670d7",
					"donaciones(uint256)": "10b52cdd",
					"donar()": "13fc9b12",
					"obtenerDonaciones()": "af3e2e83",
					"owner()": "8da5cb5b",
					"retirarFondos()": "8af01880",
					"uniqueAddr(uint256)": "c2741fb1"
				}
			},
			"storageLayout": {
				"storage": [
					{
						"astId": 5,
						"contract": "contracts/M02_Fundamentos_Solidity/Clase04/Donaciones.sol:Donaciones",
						"label": "balance",
						"offset": 0,
						"slot": "0",
						"type": "t_mapping(t_address,t_uint256)"
					},
					{
						"astId": 16,
						"contract": "contracts/M02_Fundamentos_Solidity/Clase04/Donaciones.sol:Donaciones",
						"label": "donaciones",
						"offset": 0,
						"slot": "1",
						"type": "t_array(t_struct(Donacion)12_storage)dyn_storage"
					},
					{
						"astId": 19,
						"contract": "contracts/M02_Fundamentos_Solidity/Clase04/Donaciones.sol:Donaciones",
						"label": "uniqueAddr",
						"offset": 0,
						"slot": "2",
						"type": "t_array(t_address)dyn_storage"
					},
					{
						"astId": 21,
						"contract": "contracts/M02_Fundamentos_Solidity/Clase04/Donaciones.sol:Donaciones",
						"label": "owner",
						"offset": 0,
						"slot": "3",
						"type": "t_address"
					}
				],
				"types": {
					"t_address": {
						"encoding": "inplace",
						"label": "address",
						"numberOfBytes": "20"
					},
					"t_array(t_address)dyn_storage": {
						"base": "t_address",
						"encoding": "dynamic_array",
						"label": "address[]",
						"numberOfBytes": "32"
					},
					"t_array(t_struct(Donacion)12_storage)dyn_storage": {
						"base": "t_struct(Donacion)12_storage",
						"encoding": "dynamic_array",
						"label": "struct Donaciones.Donacion[]",
						"numberOfBytes": "32"
					},
					"t_mapping(t_address,t_uint256)": {
						"encoding": "mapping",
						"key": "t_address",
						"label": "mapping(address => uint256)",
						"numberOfBytes": "32",
						"value": "t_uint256"
					},
					"t_struct(Donacion)12_storage": {
						"encoding": "inplace",
						"label": "struct Donaciones.Donacion",
						"members": [
							{
								"astId": 7,
								"contract": "contracts/M02_Fundamentos_Solidity/Clase04/Donaciones.sol:Donaciones",
								"label": "donante",
								"offset": 0,
								"slot": "0",
								"type": "t_address"
							},
							{
								"astId": 9,
								"contract": "contracts/M02_Fundamentos_Solidity/Clase04/Donaciones.sol:Donaciones",
								"label": "cantidad",
								"offset": 0,
								"slot": "1",
								"type": "t_uint256"
							},
							{
								"astId": 11,
								"contract": "contracts/M02_Fundamentos_Solidity/Clase04/Donaciones.sol:Donaciones",
								"label": "fecha",
								"offset": 0,
								"slot": "2",
								"type": "t_uint256"
							}
						],
						"numberOfBytes": "96"
					},
					"t_uint256": {
						"encoding": "inplace",
						"label": "uint256",
						"numberOfBytes": "32"
					}
				}
			},
			"userdoc": {
				"kind": "user",
				"methods": {},
				"version": 1
			}
		}
	}
}