{
	"contracts/Tp_Final_Mod03/SimpleDEX.sol": {
		"SimpleDEX": {
			"abi": [
				{
					"inputs": [
						{
							"internalType": "address",
							"name": "_tokenA",
							"type": "address"
						},
						{
							"internalType": "address",
							"name": "_tokenB",
							"type": "address"
						}
					],
					"stateMutability": "nonpayable",
					"type": "constructor"
				},
				{
					"inputs": [
						{
							"internalType": "address",
							"name": "owner",
							"type": "address"
						}
					],
					"name": "OwnableInvalidOwner",
					"type": "error"
				},
				{
					"inputs": [
						{
							"internalType": "address",
							"name": "account",
							"type": "address"
						}
					],
					"name": "OwnableUnauthorizedAccount",
					"type": "error"
				},
				{
					"anonymous": false,
					"inputs": [
						{
							"indexed": true,
							"internalType": "address",
							"name": "provider",
							"type": "address"
						},
						{
							"indexed": false,
							"internalType": "uint256",
							"name": "amountA",
							"type": "uint256"
						},
						{
							"indexed": false,
							"internalType": "uint256",
							"name": "amountB",
							"type": "uint256"
						}
					],
					"name": "LiquidityAdded",
					"type": "event"
				},
				{
					"anonymous": false,
					"inputs": [
						{
							"indexed": true,
							"internalType": "address",
							"name": "provider",
							"type": "address"
						},
						{
							"indexed": false,
							"internalType": "uint256",
							"name": "amountA",
							"type": "uint256"
						},
						{
							"indexed": false,
							"internalType": "uint256",
							"name": "amountB",
							"type": "uint256"
						}
					],
					"name": "LiquidityRemoved",
					"type": "event"
				},
				{
					"anonymous": false,
					"inputs": [
						{
							"indexed": true,
							"internalType": "address",
							"name": "previousOwner",
							"type": "address"
						},
						{
							"indexed": true,
							"internalType": "address",
							"name": "newOwner",
							"type": "address"
						}
					],
					"name": "OwnershipTransferred",
					"type": "event"
				},
				{
					"anonymous": false,
					"inputs": [
						{
							"indexed": true,
							"internalType": "address",
							"name": "user",
							"type": "address"
						},
						{
							"indexed": false,
							"internalType": "address",
							"name": "tokenIn",
							"type": "address"
						},
						{
							"indexed": false,
							"internalType": "address",
							"name": "tokenOut",
							"type": "address"
						},
						{
							"indexed": false,
							"internalType": "uint256",
							"name": "amountIn",
							"type": "uint256"
						},
						{
							"indexed": false,
							"internalType": "uint256",
							"name": "amountOut",
							"type": "uint256"
						}
					],
					"name": "TokenSwapped",
					"type": "event"
				},
				{
					"inputs": [
						{
							"internalType": "uint256",
							"name": "amountA",
							"type": "uint256"
						},
						{
							"internalType": "uint256",
							"name": "amountB",
							"type": "uint256"
						}
					],
					"name": "addLiquidity",
					"outputs": [],
					"stateMutability": "nonpayable",
					"type": "function"
				},
				{
					"inputs": [
						{
							"internalType": "address",
							"name": "_token",
							"type": "address"
						}
					],
					"name": "getPrice",
					"outputs": [
						{
							"internalType": "uint256",
							"name": "",
							"type": "uint256"
						}
					],
					"stateMutability": "view",
					"type": "function"
				},
				{
					"inputs": [],
					"name": "getReserves",
					"outputs": [
						{
							"internalType": "uint256",
							"name": "reserveA",
							"type": "uint256"
						},
						{
							"internalType": "uint256",
							"name": "reserveB",
							"type": "uint256"
						}
					],
					"stateMutability": "view",
					"type": "function"
				},
				{
					"inputs": [],
					"name": "owner",
					"outputs": [
						{
							"internalType": "address",
							"name": "",
							"type": "address"
						}
					],
					"stateMutability": "view",
					"type": "function"
				},
				{
					"inputs": [
						{
							"internalType": "uint256",
							"name": "amountA",
							"type": "uint256"
						},
						{
							"internalType": "uint256",
							"name": "amountB",
							"type": "uint256"
						}
					],
					"name": "removeLiquidity",
					"outputs": [],
					"stateMutability": "nonpayable",
					"type": "function"
				},
				{
					"inputs": [],
					"name": "renounceOwnership",
					"outputs": [],
					"stateMutability": "nonpayable",
					"type": "function"
				},
				{
					"inputs": [
						{
							"internalType": "uint256",
							"name": "amountAIn",
							"type": "uint256"
						}
					],
					"name": "swapAforB",
					"outputs": [
						{
							"internalType": "uint256",
							"name": "amountBOut",
							"type": "uint256"
						}
					],
					"stateMutability": "nonpayable",
					"type": "function"
				},
				{
					"inputs": [
						{
							"internalType": "uint256",
							"name": "amountBIn",
							"type": "uint256"
						}
					],
					"name": "swapBforA",
					"outputs": [
						{
							"internalType": "uint256",
							"name": "amountAOut",
							"type": "uint256"
						}
					],
					"stateMutability": "nonpayable",
					"type": "function"
				},
				{
					"inputs": [],
					"name": "tokenA",
					"outputs": [
						{
							"internalType": "contract IERC20",
							"name": "",
							"type": "address"
						}
					],
					"stateMutability": "view",
					"type": "function"
				},
				{
					"inputs": [],
					"name": "tokenB",
					"outputs": [
						{
							"internalType": "contract IERC20",
							"name": "",
							"type": "address"
						}
					],
					"stateMutability": "view",
					"type": "function"
				},
				{
					"inputs": [
						{
							"internalType": "address",
							"name": "newOwner",
							"type": "address"
						}
					],
					"name": "transferOwnership",
					"outputs": [],
					"stateMutability": "nonpayable",
					"type": "function"
				}
			],
			"devdoc": {
				"author": "Ivan Carneiro",
				"details": "A simple decentralized exchange implementation that enables swapping between two ERC20 tokens using the constant product formula (x+dx)(y-dy)=xy for price calculation.",
				"errors": {
					"OwnableInvalidOwner(address)": [
						{
							"details": "The owner is not a valid owner account. (eg. `address(0)`)"
						}
					],
					"OwnableUnauthorizedAccount(address)": [
						{
							"details": "The caller account is not authorized to perform an operation."
						}
					]
				},
				"events": {
					"LiquidityAdded(address,uint256,uint256)": {
						"details": "Emitted when liquidity is added to the pool by the owner",
						"params": {
							"amountA": "Amount of TokenA added",
							"amountB": "Amount of TokenB added",
							"provider": "Address of the liquidity provider (owner)"
						}
					},
					"LiquidityRemoved(address,uint256,uint256)": {
						"details": "Emitted when liquidity is removed from the pool by the owner",
						"params": {
							"amountA": "Amount of TokenA removed",
							"amountB": "Amount of TokenB removed",
							"provider": "Address of the liquidity provider (owner)"
						}
					},
					"TokenSwapped(address,address,address,uint256,uint256)": {
						"details": "Emitted when a token swap occurs",
						"params": {
							"amountIn": "Amount of tokens being sold",
							"amountOut": "Amount of tokens being bought",
							"tokenIn": "Address of the token being sold",
							"tokenOut": "Address of the token being bought",
							"user": "Address of the user performing the swap"
						}
					}
				},
				"kind": "dev",
				"methods": {
					"addLiquidity(uint256,uint256)": {
						"details": "Allows only the owner to add liquidity to the pool",
						"params": {
							"amountA": "Amount of TokenA to add",
							"amountB": "Amount of TokenB to add"
						}
					},
					"constructor": {
						"details": "Constructor initializes the DEX with addresses of both tokens",
						"params": {
							"_tokenA": "Address of the first token",
							"_tokenB": "Address of the second token"
						}
					},
					"getPrice(address)": {
						"details": "Returns the current price of the specified token in terms of the other token",
						"params": {
							"_token": "Address of the token to get the price for"
						},
						"returns": {
							"_0": "Price of the token with 18 decimal places"
						}
					},
					"getReserves()": {
						"details": "Returns the current reserves of both tokens in the pool",
						"returns": {
							"reserveA": "Current balance of TokenA",
							"reserveB": "Current balance of TokenB"
						}
					},
					"owner()": {
						"details": "Returns the address of the current owner."
					},
					"removeLiquidity(uint256,uint256)": {
						"details": "Allows only the owner to remove liquidity from the pool",
						"params": {
							"amountA": "Amount of TokenA to remove",
							"amountB": "Amount of TokenB to remove"
						}
					},
					"renounceOwnership()": {
						"details": "Leaves the contract without owner. It will not be possible to call `onlyOwner` functions. Can only be called by the current owner. NOTE: Renouncing ownership will leave the contract without an owner, thereby disabling any functionality that is only available to the owner."
					},
					"swapAforB(uint256)": {
						"details": "Swaps TokenA for TokenB using the constant product formula",
						"params": {
							"amountAIn": "Amount of TokenA to swap"
						},
						"returns": {
							"amountBOut": "Amount of TokenB received"
						}
					},
					"swapBforA(uint256)": {
						"details": "Swaps TokenB for TokenA using the constant product formula",
						"params": {
							"amountBIn": "Amount of TokenB to swap"
						},
						"returns": {
							"amountAOut": "Amount of TokenA received"
						}
					},
					"transferOwnership(address)": {
						"details": "Transfers ownership of the contract to a new account (`newOwner`). Can only be called by the current owner."
					}
				},
				"title": "SimpleDEX",
				"version": 1
			},
			"evm": {
				"assembly": "    /* \"contracts/Tp_Final_Mod03/SimpleDEX.sol\":584:8144  contract SimpleDEX is Ownable, ReentrancyGuard {... */\n  mstore(0x40, 0x80)\n    /* \"contracts/Tp_Final_Mod03/SimpleDEX.sol\":2246:2483  constructor(address _tokenA, address _tokenB) Ownable(msg.sender) {... */\n  callvalue\n  dup1\n  iszero\n  tag_1\n  jumpi\n  0x00\n  dup1\n  revert\ntag_1:\n  pop\n  mload(0x40)\n  sub(codesize, bytecodeSize)\n  dup1\n  bytecodeSize\n  dup4\n  codecopy\n  dup2\n  dup2\n  add\n  0x40\n  mstore\n  dup2\n  add\n  swap1\n  tag_2\n  swap2\n  swap1\n  tag_3\n  jump\t// in\ntag_2:\n    /* \"contracts/Tp_Final_Mod03/SimpleDEX.sol\":2300:2310  msg.sender */\n  caller\n    /* \"@openzeppelin/contracts/access/Ownable.sol\":1297:1298  0 */\n  0x00\n    /* \"@openzeppelin/contracts/access/Ownable.sol\":1273:1299  initialOwner == address(0) */\n  0xffffffffffffffffffffffffffffffffffffffff\n  and\n    /* \"@openzeppelin/contracts/access/Ownable.sol\":1273:1285  initialOwner */\n  dup2\n    /* \"@openzeppelin/contracts/access/Ownable.sol\":1273:1299  initialOwner == address(0) */\n  0xffffffffffffffffffffffffffffffffffffffff\n  and\n  sub\n    /* \"@openzeppelin/contracts/access/Ownable.sol\":1269:1364  if (initialOwner == address(0)) {... */\n  tag_8\n  jumpi\n    /* \"@openzeppelin/contracts/access/Ownable.sol\":1350:1351  0 */\n  0x00\n    /* \"@openzeppelin/contracts/access/Ownable.sol\":1322:1353  OwnableInvalidOwner(address(0)) */\n  mload(0x40)\n  0x1e4fbdf700000000000000000000000000000000000000000000000000000000\n  dup2\n  mstore\n  0x04\n  add\n  tag_9\n  swap2\n  swap1\n  tag_10\n  jump\t// in\ntag_9:\n  mload(0x40)\n  dup1\n  swap2\n  sub\n  swap1\n  revert\n    /* \"@openzeppelin/contracts/access/Ownable.sol\":1269:1364  if (initialOwner == address(0)) {... */\ntag_8:\n    /* \"@openzeppelin/contracts/access/Ownable.sol\":1373:1405  _transferOwnership(initialOwner) */\n  tag_11\n    /* \"@openzeppelin/contracts/access/Ownable.sol\":1392:1404  initialOwner */\n  dup2\n    /* \"@openzeppelin/contracts/access/Ownable.sol\":1373:1391  _transferOwnership */\n  shl(0x20, tag_12)\n    /* \"@openzeppelin/contracts/access/Ownable.sol\":1373:1405  _transferOwnership(initialOwner) */\n  0x20\n  shr\n  jump\t// in\ntag_11:\n    /* \"@openzeppelin/contracts/access/Ownable.sol\":1225:1412  constructor(address initialOwner) {... */\n  pop\n    /* \"@openzeppelin/contracts/security/ReentrancyGuard.sol\":1716:1717  1 */\n  0x01\n    /* \"@openzeppelin/contracts/security/ReentrancyGuard.sol\":1821:1828  _status */\n  dup1\n    /* \"@openzeppelin/contracts/security/ReentrancyGuard.sol\":1821:1843  _status = _NOT_ENTERED */\n  dup2\n  swap1\n  sstore\n  pop\n    /* \"contracts/Tp_Final_Mod03/SimpleDEX.sol\":2350:2351  0 */\n  0x00\n    /* \"contracts/Tp_Final_Mod03/SimpleDEX.sol\":2331:2352  _tokenA != address(0) */\n  0xffffffffffffffffffffffffffffffffffffffff\n  and\n    /* \"contracts/Tp_Final_Mod03/SimpleDEX.sol\":2331:2338  _tokenA */\n  dup3\n    /* \"contracts/Tp_Final_Mod03/SimpleDEX.sol\":2331:2352  _tokenA != address(0) */\n  0xffffffffffffffffffffffffffffffffffffffff\n  and\n  eq\n  iszero\n    /* \"contracts/Tp_Final_Mod03/SimpleDEX.sol\":2331:2377  _tokenA != address(0) && _tokenB != address(0) */\n  dup1\n  iszero\n  tag_15\n  jumpi\n  pop\n    /* \"contracts/Tp_Final_Mod03/SimpleDEX.sol\":2375:2376  0 */\n  0x00\n    /* \"contracts/Tp_Final_Mod03/SimpleDEX.sol\":2356:2377  _tokenB != address(0) */\n  0xffffffffffffffffffffffffffffffffffffffff\n  and\n    /* \"contracts/Tp_Final_Mod03/SimpleDEX.sol\":2356:2363  _tokenB */\n  dup2\n    /* \"contracts/Tp_Final_Mod03/SimpleDEX.sol\":2356:2377  _tokenB != address(0) */\n  0xffffffffffffffffffffffffffffffffffffffff\n  and\n  eq\n  iszero\n    /* \"contracts/Tp_Final_Mod03/SimpleDEX.sol\":2331:2377  _tokenA != address(0) && _tokenB != address(0) */\ntag_15:\n    /* \"contracts/Tp_Final_Mod03/SimpleDEX.sol\":2323:2405  require(_tokenA != address(0) && _tokenB != address(0), \"Invalid token addresses\") */\n  tag_16\n  jumpi\n  mload(0x40)\n  0x08c379a000000000000000000000000000000000000000000000000000000000\n  dup2\n  mstore\n  0x04\n  add\n  tag_17\n  swap1\n  tag_18\n  jump\t// in\ntag_17:\n  mload(0x40)\n  dup1\n  swap2\n  sub\n  swap1\n  revert\ntag_16:\n    /* \"contracts/Tp_Final_Mod03/SimpleDEX.sol\":2432:2439  _tokenA */\n  dup2\n    /* \"contracts/Tp_Final_Mod03/SimpleDEX.sol\":2416:2422  tokenA */\n  0x02\n  0x00\n    /* \"contracts/Tp_Final_Mod03/SimpleDEX.sol\":2416:2440  tokenA = IERC20(_tokenA) */\n  0x0100\n  exp\n  dup2\n  sload\n  dup2\n  0xffffffffffffffffffffffffffffffffffffffff\n  mul\n  not\n  and\n  swap1\n  dup4\n  0xffffffffffffffffffffffffffffffffffffffff\n  and\n  mul\n  or\n  swap1\n  sstore\n  pop\n    /* \"contracts/Tp_Final_Mod03/SimpleDEX.sol\":2467:2474  _tokenB */\n  dup1\n    /* \"contracts/Tp_Final_Mod03/SimpleDEX.sol\":2451:2457  tokenB */\n  0x03\n  0x00\n    /* \"contracts/Tp_Final_Mod03/SimpleDEX.sol\":2451:2475  tokenB = IERC20(_tokenB) */\n  0x0100\n  exp\n  dup2\n  sload\n  dup2\n  0xffffffffffffffffffffffffffffffffffffffff\n  mul\n  not\n  and\n  swap1\n  dup4\n  0xffffffffffffffffffffffffffffffffffffffff\n  and\n  mul\n  or\n  swap1\n  sstore\n  pop\n    /* \"contracts/Tp_Final_Mod03/SimpleDEX.sol\":2246:2483  constructor(address _tokenA, address _tokenB) Ownable(msg.sender) {... */\n  pop\n  pop\n    /* \"contracts/Tp_Final_Mod03/SimpleDEX.sol\":584:8144  contract SimpleDEX is Ownable, ReentrancyGuard {... */\n  jump(tag_19)\n    /* \"@openzeppelin/contracts/access/Ownable.sol\":2912:3099  function _transferOwnership(address newOwner) internal virtual {... */\ntag_12:\n    /* \"@openzeppelin/contracts/access/Ownable.sol\":2985:3001  address oldOwner */\n  0x00\n    /* \"@openzeppelin/contracts/access/Ownable.sol\":3004:3010  _owner */\n  dup1\n  0x00\n  swap1\n  sload\n  swap1\n  0x0100\n  exp\n  swap1\n  div\n  0xffffffffffffffffffffffffffffffffffffffff\n  and\n    /* \"@openzeppelin/contracts/access/Ownable.sol\":2985:3010  address oldOwner = _owner */\n  swap1\n  pop\n    /* \"@openzeppelin/contracts/access/Ownable.sol\":3029:3037  newOwner */\n  dup2\n    /* \"@openzeppelin/contracts/access/Ownable.sol\":3020:3026  _owner */\n  0x00\n  dup1\n    /* \"@openzeppelin/contracts/access/Ownable.sol\":3020:3037  _owner = newOwner */\n  0x0100\n  exp\n  dup2\n  sload\n  dup2\n  0xffffffffffffffffffffffffffffffffffffffff\n  mul\n  not\n  and\n  swap1\n  dup4\n  0xffffffffffffffffffffffffffffffffffffffff\n  and\n  mul\n  or\n  swap1\n  sstore\n  pop\n    /* \"@openzeppelin/contracts/access/Ownable.sol\":3083:3091  newOwner */\n  dup2\n    /* \"@openzeppelin/contracts/access/Ownable.sol\":3052:3092  OwnershipTransferred(oldOwner, newOwner) */\n  0xffffffffffffffffffffffffffffffffffffffff\n  and\n    /* \"@openzeppelin/contracts/access/Ownable.sol\":3073:3081  oldOwner */\n  dup2\n    /* \"@openzeppelin/contracts/access/Ownable.sol\":3052:3092  OwnershipTransferred(oldOwner, newOwner) */\n  0xffffffffffffffffffffffffffffffffffffffff\n  and\n  0x8be0079c531659141344cd1fd0a4f28419497f9722a3daafe3b4186f6b6457e0\n  mload(0x40)\n  mload(0x40)\n  dup1\n  swap2\n  sub\n  swap1\n  log3\n    /* \"@openzeppelin/contracts/access/Ownable.sol\":2975:3099  {... */\n  pop\n    /* \"@openzeppelin/contracts/access/Ownable.sol\":2912:3099  function _transferOwnership(address newOwner) internal virtual {... */\n  pop\n  jump\t// out\n    /* \"#utility.yul\":88:205   */\ntag_22:\n    /* \"#utility.yul\":197:198   */\n  0x00\n    /* \"#utility.yul\":194:195   */\n  dup1\n    /* \"#utility.yul\":187:199   */\n  revert\n    /* \"#utility.yul\":334:460   */\ntag_24:\n    /* \"#utility.yul\":371:378   */\n  0x00\n    /* \"#utility.yul\":411:453   */\n  0xffffffffffffffffffffffffffffffffffffffff\n    /* \"#utility.yul\":404:409   */\n  dup3\n    /* \"#utility.yul\":400:454   */\n  and\n    /* \"#utility.yul\":389:454   */\n  swap1\n  pop\n    /* \"#utility.yul\":334:460   */\n  swap2\n  swap1\n  pop\n  jump\t// out\n    /* \"#utility.yul\":466:562   */\ntag_25:\n    /* \"#utility.yul\":503:510   */\n  0x00\n    /* \"#utility.yul\":532:556   */\n  tag_38\n    /* \"#utility.yul\":550:555   */\n  dup3\n    /* \"#utility.yul\":532:556   */\n  tag_24\n  jump\t// in\ntag_38:\n    /* \"#utility.yul\":521:556   */\n  swap1\n  pop\n    /* \"#utility.yul\":466:562   */\n  swap2\n  swap1\n  pop\n  jump\t// out\n    /* \"#utility.yul\":568:690   */\ntag_26:\n    /* \"#utility.yul\":641:665   */\n  tag_40\n    /* \"#utility.yul\":659:664   */\n  dup2\n    /* \"#utility.yul\":641:665   */\n  tag_25\n  jump\t// in\ntag_40:\n    /* \"#utility.yul\":634:639   */\n  dup2\n    /* \"#utility.yul\":631:666   */\n  eq\n    /* \"#utility.yul\":621:684   */\n  tag_41\n  jumpi\n    /* \"#utility.yul\":680:681   */\n  0x00\n    /* \"#utility.yul\":677:678   */\n  dup1\n    /* \"#utility.yul\":670:682   */\n  revert\n    /* \"#utility.yul\":621:684   */\ntag_41:\n    /* \"#utility.yul\":568:690   */\n  pop\n  jump\t// out\n    /* \"#utility.yul\":696:839   */\ntag_27:\n    /* \"#utility.yul\":753:758   */\n  0x00\n    /* \"#utility.yul\":784:790   */\n  dup2\n    /* \"#utility.yul\":778:791   */\n  mload\n    /* \"#utility.yul\":769:791   */\n  swap1\n  pop\n    /* \"#utility.yul\":800:833   */\n  tag_43\n    /* \"#utility.yul\":827:832   */\n  dup2\n    /* \"#utility.yul\":800:833   */\n  tag_26\n  jump\t// in\ntag_43:\n    /* \"#utility.yul\":696:839   */\n  swap3\n  swap2\n  pop\n  pop\n  jump\t// out\n    /* \"#utility.yul\":845:1352   */\ntag_3:\n    /* \"#utility.yul\":924:930   */\n  0x00\n    /* \"#utility.yul\":932:938   */\n  dup1\n    /* \"#utility.yul\":981:983   */\n  0x40\n    /* \"#utility.yul\":969:978   */\n  dup4\n    /* \"#utility.yul\":960:967   */\n  dup6\n    /* \"#utility.yul\":956:979   */\n  sub\n    /* \"#utility.yul\":952:984   */\n  slt\n    /* \"#utility.yul\":949:1068   */\n  iszero\n  tag_45\n  jumpi\n    /* \"#utility.yul\":987:1066   */\n  tag_46\n  tag_22\n  jump\t// in\ntag_46:\n    /* \"#utility.yul\":949:1068   */\ntag_45:\n    /* \"#utility.yul\":1107:1108   */\n  0x00\n    /* \"#utility.yul\":1132:1196   */\n  tag_47\n    /* \"#utility.yul\":1188:1195   */\n  dup6\n    /* \"#utility.yul\":1179:1185   */\n  dup3\n    /* \"#utility.yul\":1168:1177   */\n  dup7\n    /* \"#utility.yul\":1164:1186   */\n  add\n    /* \"#utility.yul\":1132:1196   */\n  tag_27\n  jump\t// in\ntag_47:\n    /* \"#utility.yul\":1122:1196   */\n  swap3\n  pop\n    /* \"#utility.yul\":1078:1206   */\n  pop\n    /* \"#utility.yul\":1245:1247   */\n  0x20\n    /* \"#utility.yul\":1271:1335   */\n  tag_48\n    /* \"#utility.yul\":1327:1334   */\n  dup6\n    /* \"#utility.yul\":1318:1324   */\n  dup3\n    /* \"#utility.yul\":1307:1316   */\n  dup7\n    /* \"#utility.yul\":1303:1325   */\n  add\n    /* \"#utility.yul\":1271:1335   */\n  tag_27\n  jump\t// in\ntag_48:\n    /* \"#utility.yul\":1261:1335   */\n  swap2\n  pop\n    /* \"#utility.yul\":1216:1345   */\n  pop\n    /* \"#utility.yul\":845:1352   */\n  swap3\n  pop\n  swap3\n  swap1\n  pop\n  jump\t// out\n    /* \"#utility.yul\":1358:1476   */\ntag_28:\n    /* \"#utility.yul\":1445:1469   */\n  tag_50\n    /* \"#utility.yul\":1463:1468   */\n  dup2\n    /* \"#utility.yul\":1445:1469   */\n  tag_25\n  jump\t// in\ntag_50:\n    /* \"#utility.yul\":1440:1443   */\n  dup3\n    /* \"#utility.yul\":1433:1470   */\n  mstore\n    /* \"#utility.yul\":1358:1476   */\n  pop\n  pop\n  jump\t// out\n    /* \"#utility.yul\":1482:1704   */\ntag_10:\n    /* \"#utility.yul\":1575:1579   */\n  0x00\n    /* \"#utility.yul\":1613:1615   */\n  0x20\n    /* \"#utility.yul\":1602:1611   */\n  dup3\n    /* \"#utility.yul\":1598:1616   */\n  add\n    /* \"#utility.yul\":1590:1616   */\n  swap1\n  pop\n    /* \"#utility.yul\":1626:1697   */\n  tag_52\n    /* \"#utility.yul\":1694:1695   */\n  0x00\n    /* \"#utility.yul\":1683:1692   */\n  dup4\n    /* \"#utility.yul\":1679:1696   */\n  add\n    /* \"#utility.yul\":1670:1676   */\n  dup5\n    /* \"#utility.yul\":1626:1697   */\n  tag_28\n  jump\t// in\ntag_52:\n    /* \"#utility.yul\":1482:1704   */\n  swap3\n  swap2\n  pop\n  pop\n  jump\t// out\n    /* \"#utility.yul\":1710:1879   */\ntag_29:\n    /* \"#utility.yul\":1794:1805   */\n  0x00\n    /* \"#utility.yul\":1828:1834   */\n  dup3\n    /* \"#utility.yul\":1823:1826   */\n  dup3\n    /* \"#utility.yul\":1816:1835   */\n  mstore\n    /* \"#utility.yul\":1868:1872   */\n  0x20\n    /* \"#utility.yul\":1863:1866   */\n  dup3\n    /* \"#utility.yul\":1859:1873   */\n  add\n    /* \"#utility.yul\":1844:1873   */\n  swap1\n  pop\n    /* \"#utility.yul\":1710:1879   */\n  swap3\n  swap2\n  pop\n  pop\n  jump\t// out\n    /* \"#utility.yul\":1885:2058   */\ntag_30:\n    /* \"#utility.yul\":2025:2050   */\n  0x496e76616c696420746f6b656e20616464726573736573000000000000000000\n    /* \"#utility.yul\":2021:2022   */\n  0x00\n    /* \"#utility.yul\":2013:2019   */\n  dup3\n    /* \"#utility.yul\":2009:2023   */\n  add\n    /* \"#utility.yul\":2002:2051   */\n  mstore\n    /* \"#utility.yul\":1885:2058   */\n  pop\n  jump\t// out\n    /* \"#utility.yul\":2064:2430   */\ntag_31:\n    /* \"#utility.yul\":2206:2209   */\n  0x00\n    /* \"#utility.yul\":2227:2294   */\n  tag_56\n    /* \"#utility.yul\":2291:2293   */\n  0x17\n    /* \"#utility.yul\":2286:2289   */\n  dup4\n    /* \"#utility.yul\":2227:2294   */\n  tag_29\n  jump\t// in\ntag_56:\n    /* \"#utility.yul\":2220:2294   */\n  swap2\n  pop\n    /* \"#utility.yul\":2303:2396   */\n  tag_57\n    /* \"#utility.yul\":2392:2395   */\n  dup3\n    /* \"#utility.yul\":2303:2396   */\n  tag_30\n  jump\t// in\ntag_57:\n    /* \"#utility.yul\":2421:2423   */\n  0x20\n    /* \"#utility.yul\":2416:2419   */\n  dup3\n    /* \"#utility.yul\":2412:2424   */\n  add\n    /* \"#utility.yul\":2405:2424   */\n  swap1\n  pop\n    /* \"#utility.yul\":2064:2430   */\n  swap2\n  swap1\n  pop\n  jump\t// out\n    /* \"#utility.yul\":2436:2855   */\ntag_18:\n    /* \"#utility.yul\":2602:2606   */\n  0x00\n    /* \"#utility.yul\":2640:2642   */\n  0x20\n    /* \"#utility.yul\":2629:2638   */\n  dup3\n    /* \"#utility.yul\":2625:2643   */\n  add\n    /* \"#utility.yul\":2617:2643   */\n  swap1\n  pop\n    /* \"#utility.yul\":2689:2698   */\n  dup2\n    /* \"#utility.yul\":2683:2687   */\n  dup2\n    /* \"#utility.yul\":2679:2699   */\n  sub\n    /* \"#utility.yul\":2675:2676   */\n  0x00\n    /* \"#utility.yul\":2664:2673   */\n  dup4\n    /* \"#utility.yul\":2660:2677   */\n  add\n    /* \"#utility.yul\":2653:2700   */\n  mstore\n    /* \"#utility.yul\":2717:2848   */\n  tag_59\n    /* \"#utility.yul\":2843:2847   */\n  dup2\n    /* \"#utility.yul\":2717:2848   */\n  tag_31\n  jump\t// in\ntag_59:\n    /* \"#utility.yul\":2709:2848   */\n  swap1\n  pop\n    /* \"#utility.yul\":2436:2855   */\n  swap2\n  swap1\n  pop\n  jump\t// out\n    /* \"contracts/Tp_Final_Mod03/SimpleDEX.sol\":584:8144  contract SimpleDEX is Ownable, ReentrancyGuard {... */\ntag_19:\n  dataSize(sub_0)\n  dup1\n  dataOffset(sub_0)\n  0x00\n  codecopy\n  0x00\n  return\nstop\n\nsub_0: assembly {\n        /* \"contracts/Tp_Final_Mod03/SimpleDEX.sol\":584:8144  contract SimpleDEX is Ownable, ReentrancyGuard {... */\n      mstore(0x40, 0x80)\n      callvalue\n      dup1\n      iszero\n      tag_1\n      jumpi\n      0x00\n      dup1\n      revert\n    tag_1:\n      pop\n      jumpi(tag_2, lt(calldatasize, 0x04))\n      shr(0xe0, calldataload(0x00))\n      dup1\n      0x8014a7aa\n      gt\n      tag_14\n      jumpi\n      dup1\n      0x8014a7aa\n      eq\n      tag_8\n      jumpi\n      dup1\n      0x8da5cb5b\n      eq\n      tag_9\n      jumpi\n      dup1\n      0x9cd441da\n      eq\n      tag_10\n      jumpi\n      dup1\n      0x9d7de6b3\n      eq\n      tag_11\n      jumpi\n      dup1\n      0xe4f1f70a\n      eq\n      tag_12\n      jumpi\n      dup1\n      0xf2fde38b\n      eq\n      tag_13\n      jumpi\n      jump(tag_2)\n    tag_14:\n      dup1\n      0x0902f1ac\n      eq\n      tag_3\n      jumpi\n      dup1\n      0x0fc63d10\n      eq\n      tag_4\n      jumpi\n      dup1\n      0x41976e09\n      eq\n      tag_5\n      jumpi\n      dup1\n      0x5f64b55b\n      eq\n      tag_6\n      jumpi\n      dup1\n      0x715018a6\n      eq\n      tag_7\n      jumpi\n    tag_2:\n      0x00\n      dup1\n      revert\n        /* \"contracts/Tp_Final_Mod03/SimpleDEX.sol\":2680:2874  function getReserves() public view returns (uint256 reserveA, uint256 reserveB) {... */\n    tag_3:\n      tag_15\n      tag_16\n      jump\t// in\n    tag_15:\n      mload(0x40)\n      tag_17\n      swap3\n      swap2\n      swap1\n      tag_18\n      jump\t// in\n    tag_17:\n      mload(0x40)\n      dup1\n      swap2\n      sub\n      swap1\n      return\n        /* \"contracts/Tp_Final_Mod03/SimpleDEX.sol\":691:711  IERC20 public tokenA */\n    tag_4:\n      tag_19\n      tag_20\n      jump\t// in\n    tag_19:\n      mload(0x40)\n      tag_21\n      swap2\n      swap1\n      tag_22\n      jump\t// in\n    tag_21:\n      mload(0x40)\n      dup1\n      swap2\n      sub\n      swap1\n      return\n        /* \"contracts/Tp_Final_Mod03/SimpleDEX.sol\":7514:8141  function getPrice(address _token) external view returns (uint256) {... */\n    tag_5:\n      tag_23\n      0x04\n      dup1\n      calldatasize\n      sub\n      dup2\n      add\n      swap1\n      tag_24\n      swap2\n      swap1\n      tag_25\n      jump\t// in\n    tag_24:\n      tag_26\n      jump\t// in\n    tag_23:\n      mload(0x40)\n      tag_27\n      swap2\n      swap1\n      tag_28\n      jump\t// in\n    tag_27:\n      mload(0x40)\n      dup1\n      swap2\n      sub\n      swap1\n      return\n        /* \"contracts/Tp_Final_Mod03/SimpleDEX.sol\":778:798  IERC20 public tokenB */\n    tag_6:\n      tag_29\n      tag_30\n      jump\t// in\n    tag_29:\n      mload(0x40)\n      tag_31\n      swap2\n      swap1\n      tag_22\n      jump\t// in\n    tag_31:\n      mload(0x40)\n      dup1\n      swap2\n      sub\n      swap1\n      return\n        /* \"@openzeppelin/contracts/access/Ownable.sol\":2293:2394  function renounceOwnership() public virtual onlyOwner {... */\n    tag_7:\n      tag_32\n      tag_33\n      jump\t// in\n    tag_32:\n      stop\n        /* \"contracts/Tp_Final_Mod03/SimpleDEX.sol\":6244:7182  function swapBforA(uint256 amountBIn) external nonReentrant returns (uint256 amountAOut) {... */\n    tag_8:\n      tag_34\n      0x04\n      dup1\n      calldatasize\n      sub\n      dup2\n      add\n      swap1\n      tag_35\n      swap2\n      swap1\n      tag_36\n      jump\t// in\n    tag_35:\n      tag_37\n      jump\t// in\n    tag_34:\n      mload(0x40)\n      tag_38\n      swap2\n      swap1\n      tag_28\n      jump\t// in\n    tag_38:\n      mload(0x40)\n      dup1\n      swap2\n      sub\n      swap1\n      return\n        /* \"@openzeppelin/contracts/access/Ownable.sol\":1638:1723  function owner() public view virtual returns (address) {... */\n    tag_9:\n      tag_39\n      tag_40\n      jump\t// in\n    tag_39:\n      mload(0x40)\n      tag_41\n      swap2\n      swap1\n      tag_42\n      jump\t// in\n    tag_41:\n      mload(0x40)\n      dup1\n      swap2\n      sub\n      swap1\n      return\n        /* \"contracts/Tp_Final_Mod03/SimpleDEX.sol\":3181:3689  function addLiquidity(uint256 amountA, uint256 amountB) external onlyOwner nonReentrant {... */\n    tag_10:\n      tag_43\n      0x04\n      dup1\n      calldatasize\n      sub\n      dup2\n      add\n      swap1\n      tag_44\n      swap2\n      swap1\n      tag_45\n      jump\t// in\n    tag_44:\n      tag_46\n      jump\t// in\n    tag_43:\n      stop\n        /* \"contracts/Tp_Final_Mod03/SimpleDEX.sol\":3938:4695  function removeLiquidity(uint256 amountA, uint256 amountB) external onlyOwner nonReentrant {... */\n    tag_11:\n      tag_47\n      0x04\n      dup1\n      calldatasize\n      sub\n      dup2\n      add\n      swap1\n      tag_48\n      swap2\n      swap1\n      tag_45\n      jump\t// in\n    tag_48:\n      tag_49\n      jump\t// in\n    tag_47:\n      stop\n        /* \"contracts/Tp_Final_Mod03/SimpleDEX.sol\":4965:5974  function swapAforB(uint256 amountAIn) external nonReentrant returns (uint256 amountBOut) {... */\n    tag_12:\n      tag_50\n      0x04\n      dup1\n      calldatasize\n      sub\n      dup2\n      add\n      swap1\n      tag_51\n      swap2\n      swap1\n      tag_36\n      jump\t// in\n    tag_51:\n      tag_52\n      jump\t// in\n    tag_50:\n      mload(0x40)\n      tag_53\n      swap2\n      swap1\n      tag_28\n      jump\t// in\n    tag_53:\n      mload(0x40)\n      dup1\n      swap2\n      sub\n      swap1\n      return\n        /* \"@openzeppelin/contracts/access/Ownable.sol\":2543:2758  function transferOwnership(address newOwner) public virtual onlyOwner {... */\n    tag_13:\n      tag_54\n      0x04\n      dup1\n      calldatasize\n      sub\n      dup2\n      add\n      swap1\n      tag_55\n      swap2\n      swap1\n      tag_25\n      jump\t// in\n    tag_55:\n      tag_56\n      jump\t// in\n    tag_54:\n      stop\n        /* \"contracts/Tp_Final_Mod03/SimpleDEX.sol\":2680:2874  function getReserves() public view returns (uint256 reserveA, uint256 reserveB) {... */\n    tag_16:\n        /* \"contracts/Tp_Final_Mod03/SimpleDEX.sol\":2724:2740  uint256 reserveA */\n      0x00\n        /* \"contracts/Tp_Final_Mod03/SimpleDEX.sol\":2742:2758  uint256 reserveB */\n      dup1\n        /* \"contracts/Tp_Final_Mod03/SimpleDEX.sol\":2782:2788  tokenA */\n      0x02\n      0x00\n      swap1\n      sload\n      swap1\n      0x0100\n      exp\n      swap1\n      div\n      0xffffffffffffffffffffffffffffffffffffffff\n      and\n        /* \"contracts/Tp_Final_Mod03/SimpleDEX.sol\":2782:2798  tokenA.balanceOf */\n      0xffffffffffffffffffffffffffffffffffffffff\n      and\n      0x70a08231\n        /* \"contracts/Tp_Final_Mod03/SimpleDEX.sol\":2807:2811  this */\n      address\n        /* \"contracts/Tp_Final_Mod03/SimpleDEX.sol\":2782:2813  tokenA.balanceOf(address(this)) */\n      mload(0x40)\n      dup3\n      0xffffffff\n      and\n      0xe0\n      shl\n      dup2\n      mstore\n      0x04\n      add\n      tag_58\n      swap2\n      swap1\n      tag_42\n      jump\t// in\n    tag_58:\n      0x20\n      mload(0x40)\n      dup1\n      dup4\n      sub\n      dup2\n      dup7\n      gas\n      staticcall\n      iszero\n      dup1\n      iszero\n      tag_60\n      jumpi\n      returndatasize\n      0x00\n      dup1\n      returndatacopy\n      revert(0x00, returndatasize)\n    tag_60:\n      pop\n      pop\n      pop\n      pop\n      mload(0x40)\n      returndatasize\n      not(0x1f)\n      0x1f\n      dup3\n      add\n      and\n      dup3\n      add\n      dup1\n      0x40\n      mstore\n      pop\n      dup2\n      add\n      swap1\n      tag_61\n      swap2\n      swap1\n      tag_62\n      jump\t// in\n    tag_61:\n        /* \"contracts/Tp_Final_Mod03/SimpleDEX.sol\":2771:2813  reserveA = tokenA.balanceOf(address(this)) */\n      swap2\n      pop\n        /* \"contracts/Tp_Final_Mod03/SimpleDEX.sol\":2835:2841  tokenB */\n      0x03\n      0x00\n      swap1\n      sload\n      swap1\n      0x0100\n      exp\n      swap1\n      div\n      0xffffffffffffffffffffffffffffffffffffffff\n      and\n        /* \"contracts/Tp_Final_Mod03/SimpleDEX.sol\":2835:2851  tokenB.balanceOf */\n      0xffffffffffffffffffffffffffffffffffffffff\n      and\n      0x70a08231\n        /* \"contracts/Tp_Final_Mod03/SimpleDEX.sol\":2860:2864  this */\n      address\n        /* \"contracts/Tp_Final_Mod03/SimpleDEX.sol\":2835:2866  tokenB.balanceOf(address(this)) */\n      mload(0x40)\n      dup3\n      0xffffffff\n      and\n      0xe0\n      shl\n      dup2\n      mstore\n      0x04\n      add\n      tag_63\n      swap2\n      swap1\n      tag_42\n      jump\t// in\n    tag_63:\n      0x20\n      mload(0x40)\n      dup1\n      dup4\n      sub\n      dup2\n      dup7\n      gas\n      staticcall\n      iszero\n      dup1\n      iszero\n      tag_65\n      jumpi\n      returndatasize\n      0x00\n      dup1\n      returndatacopy\n      revert(0x00, returndatasize)\n    tag_65:\n      pop\n      pop\n      pop\n      pop\n      mload(0x40)\n      returndatasize\n      not(0x1f)\n      0x1f\n      dup3\n      add\n      and\n      dup3\n      add\n      dup1\n      0x40\n      mstore\n      pop\n      dup2\n      add\n      swap1\n      tag_66\n      swap2\n      swap1\n      tag_62\n      jump\t// in\n    tag_66:\n        /* \"contracts/Tp_Final_Mod03/SimpleDEX.sol\":2824:2866  reserveB = tokenB.balanceOf(address(this)) */\n      swap1\n      pop\n        /* \"contracts/Tp_Final_Mod03/SimpleDEX.sol\":2680:2874  function getReserves() public view returns (uint256 reserveA, uint256 reserveB) {... */\n      swap1\n      swap2\n      jump\t// out\n        /* \"contracts/Tp_Final_Mod03/SimpleDEX.sol\":691:711  IERC20 public tokenA */\n    tag_20:\n      0x02\n      0x00\n      swap1\n      sload\n      swap1\n      0x0100\n      exp\n      swap1\n      div\n      0xffffffffffffffffffffffffffffffffffffffff\n      and\n      dup2\n      jump\t// out\n        /* \"contracts/Tp_Final_Mod03/SimpleDEX.sol\":7514:8141  function getPrice(address _token) external view returns (uint256) {... */\n    tag_26:\n        /* \"contracts/Tp_Final_Mod03/SimpleDEX.sol\":7571:7578  uint256 */\n      0x00\n        /* \"contracts/Tp_Final_Mod03/SimpleDEX.sol\":7617:7623  tokenA */\n      0x02\n      0x00\n      swap1\n      sload\n      swap1\n      0x0100\n      exp\n      swap1\n      div\n      0xffffffffffffffffffffffffffffffffffffffff\n      and\n        /* \"contracts/Tp_Final_Mod03/SimpleDEX.sol\":7599:7624  _token == address(tokenA) */\n      0xffffffffffffffffffffffffffffffffffffffff\n      and\n        /* \"contracts/Tp_Final_Mod03/SimpleDEX.sol\":7599:7605  _token */\n      dup3\n        /* \"contracts/Tp_Final_Mod03/SimpleDEX.sol\":7599:7624  _token == address(tokenA) */\n      0xffffffffffffffffffffffffffffffffffffffff\n      and\n      eq\n        /* \"contracts/Tp_Final_Mod03/SimpleDEX.sol\":7599:7653  _token == address(tokenA) || _token == address(tokenB) */\n      dup1\n      tag_68\n      jumpi\n      pop\n        /* \"contracts/Tp_Final_Mod03/SimpleDEX.sol\":7646:7652  tokenB */\n      0x03\n      0x00\n      swap1\n      sload\n      swap1\n      0x0100\n      exp\n      swap1\n      div\n      0xffffffffffffffffffffffffffffffffffffffff\n      and\n        /* \"contracts/Tp_Final_Mod03/SimpleDEX.sol\":7628:7653  _token == address(tokenB) */\n      0xffffffffffffffffffffffffffffffffffffffff\n      and\n        /* \"contracts/Tp_Final_Mod03/SimpleDEX.sol\":7628:7634  _token */\n      dup3\n        /* \"contracts/Tp_Final_Mod03/SimpleDEX.sol\":7628:7653  _token == address(tokenB) */\n      0xffffffffffffffffffffffffffffffffffffffff\n      and\n      eq\n        /* \"contracts/Tp_Final_Mod03/SimpleDEX.sol\":7599:7653  _token == address(tokenA) || _token == address(tokenB) */\n    tag_68:\n        /* \"contracts/Tp_Final_Mod03/SimpleDEX.sol\":7591:7679  require(_token == address(tokenA) || _token == address(tokenB), \"Invalid token address\") */\n      tag_69\n      jumpi\n      mload(0x40)\n      0x08c379a000000000000000000000000000000000000000000000000000000000\n      dup2\n      mstore\n      0x04\n      add\n      tag_70\n      swap1\n      tag_71\n      jump\t// in\n    tag_70:\n      mload(0x40)\n      dup1\n      swap2\n      sub\n      swap1\n      revert\n    tag_69:\n        /* \"contracts/Tp_Final_Mod03/SimpleDEX.sol\":7701:7717  uint256 reserveA */\n      0x00\n        /* \"contracts/Tp_Final_Mod03/SimpleDEX.sol\":7719:7735  uint256 reserveB */\n      dup1\n        /* \"contracts/Tp_Final_Mod03/SimpleDEX.sol\":7739:7752  getReserves() */\n      tag_72\n        /* \"contracts/Tp_Final_Mod03/SimpleDEX.sol\":7739:7750  getReserves */\n      tag_16\n        /* \"contracts/Tp_Final_Mod03/SimpleDEX.sol\":7739:7752  getReserves() */\n      jump\t// in\n    tag_72:\n        /* \"contracts/Tp_Final_Mod03/SimpleDEX.sol\":7700:7752  (uint256 reserveA, uint256 reserveB) = getReserves() */\n      swap2\n      pop\n      swap2\n      pop\n        /* \"contracts/Tp_Final_Mod03/SimpleDEX.sol\":7782:7783  0 */\n      0x00\n        /* \"contracts/Tp_Final_Mod03/SimpleDEX.sol\":7771:7779  reserveA */\n      dup3\n        /* \"contracts/Tp_Final_Mod03/SimpleDEX.sol\":7771:7783  reserveA > 0 */\n      gt\n        /* \"contracts/Tp_Final_Mod03/SimpleDEX.sol\":7771:7799  reserveA > 0 && reserveB > 0 */\n      dup1\n      iszero\n      tag_73\n      jumpi\n      pop\n        /* \"contracts/Tp_Final_Mod03/SimpleDEX.sol\":7798:7799  0 */\n      0x00\n        /* \"contracts/Tp_Final_Mod03/SimpleDEX.sol\":7787:7795  reserveB */\n      dup2\n        /* \"contracts/Tp_Final_Mod03/SimpleDEX.sol\":7787:7799  reserveB > 0 */\n      gt\n        /* \"contracts/Tp_Final_Mod03/SimpleDEX.sol\":7771:7799  reserveA > 0 && reserveB > 0 */\n    tag_73:\n        /* \"contracts/Tp_Final_Mod03/SimpleDEX.sol\":7763:7818  require(reserveA > 0 && reserveB > 0, \"Empty reserves\") */\n      tag_74\n      jumpi\n      mload(0x40)\n      0x08c379a000000000000000000000000000000000000000000000000000000000\n      dup2\n      mstore\n      0x04\n      add\n      tag_75\n      swap1\n      tag_76\n      jump\t// in\n    tag_75:\n      mload(0x40)\n      dup1\n      swap2\n      sub\n      swap1\n      revert\n    tag_74:\n        /* \"contracts/Tp_Final_Mod03/SimpleDEX.sol\":7919:7925  tokenA */\n      0x02\n      0x00\n      swap1\n      sload\n      swap1\n      0x0100\n      exp\n      swap1\n      div\n      0xffffffffffffffffffffffffffffffffffffffff\n      and\n        /* \"contracts/Tp_Final_Mod03/SimpleDEX.sol\":7901:7926  _token == address(tokenA) */\n      0xffffffffffffffffffffffffffffffffffffffff\n      and\n        /* \"contracts/Tp_Final_Mod03/SimpleDEX.sol\":7901:7907  _token */\n      dup5\n        /* \"contracts/Tp_Final_Mod03/SimpleDEX.sol\":7901:7926  _token == address(tokenA) */\n      0xffffffffffffffffffffffffffffffffffffffff\n      and\n      sub\n        /* \"contracts/Tp_Final_Mod03/SimpleDEX.sol\":7897:8134  if (_token == address(tokenA)) {... */\n      tag_77\n      jumpi\n        /* \"contracts/Tp_Final_Mod03/SimpleDEX.sol\":7970:7978  reserveA */\n      dup2\n        /* \"contracts/Tp_Final_Mod03/SimpleDEX.sol\":7962:7966  1e18 */\n      0x0de0b6b3a7640000\n        /* \"contracts/Tp_Final_Mod03/SimpleDEX.sol\":7951:7959  reserveB */\n      dup3\n        /* \"contracts/Tp_Final_Mod03/SimpleDEX.sol\":7951:7966  reserveB * 1e18 */\n      tag_78\n      swap2\n      swap1\n      tag_79\n      jump\t// in\n    tag_78:\n        /* \"contracts/Tp_Final_Mod03/SimpleDEX.sol\":7950:7978  (reserveB * 1e18) / reserveA */\n      tag_80\n      swap2\n      swap1\n      tag_81\n      jump\t// in\n    tag_80:\n        /* \"contracts/Tp_Final_Mod03/SimpleDEX.sol\":7943:7978  return (reserveB * 1e18) / reserveA */\n      swap3\n      pop\n      pop\n      pop\n      jump(tag_67)\n        /* \"contracts/Tp_Final_Mod03/SimpleDEX.sol\":7897:8134  if (_token == address(tokenA)) {... */\n    tag_77:\n        /* \"contracts/Tp_Final_Mod03/SimpleDEX.sol\":8076:8084  reserveB */\n      dup1\n        /* \"contracts/Tp_Final_Mod03/SimpleDEX.sol\":8068:8072  1e18 */\n      0x0de0b6b3a7640000\n        /* \"contracts/Tp_Final_Mod03/SimpleDEX.sol\":8057:8065  reserveA */\n      dup4\n        /* \"contracts/Tp_Final_Mod03/SimpleDEX.sol\":8057:8072  reserveA * 1e18 */\n      tag_83\n      swap2\n      swap1\n      tag_79\n      jump\t// in\n    tag_83:\n        /* \"contracts/Tp_Final_Mod03/SimpleDEX.sol\":8056:8084  (reserveA * 1e18) / reserveB */\n      tag_84\n      swap2\n      swap1\n      tag_81\n      jump\t// in\n    tag_84:\n        /* \"contracts/Tp_Final_Mod03/SimpleDEX.sol\":8049:8084  return (reserveA * 1e18) / reserveB */\n      swap3\n      pop\n      pop\n      pop\n        /* \"contracts/Tp_Final_Mod03/SimpleDEX.sol\":7514:8141  function getPrice(address _token) external view returns (uint256) {... */\n    tag_67:\n      swap2\n      swap1\n      pop\n      jump\t// out\n        /* \"contracts/Tp_Final_Mod03/SimpleDEX.sol\":778:798  IERC20 public tokenB */\n    tag_30:\n      0x03\n      0x00\n      swap1\n      sload\n      swap1\n      0x0100\n      exp\n      swap1\n      div\n      0xffffffffffffffffffffffffffffffffffffffff\n      and\n      dup2\n      jump\t// out\n        /* \"@openzeppelin/contracts/access/Ownable.sol\":2293:2394  function renounceOwnership() public virtual onlyOwner {... */\n    tag_33:\n        /* \"@openzeppelin/contracts/access/Ownable.sol\":1531:1544  _checkOwner() */\n      tag_86\n        /* \"@openzeppelin/contracts/access/Ownable.sol\":1531:1542  _checkOwner */\n      tag_87\n        /* \"@openzeppelin/contracts/access/Ownable.sol\":1531:1544  _checkOwner() */\n      jump\t// in\n    tag_86:\n        /* \"@openzeppelin/contracts/access/Ownable.sol\":2357:2387  _transferOwnership(address(0)) */\n      tag_89\n        /* \"@openzeppelin/contracts/access/Ownable.sol\":2384:2385  0 */\n      0x00\n        /* \"@openzeppelin/contracts/access/Ownable.sol\":2357:2375  _transferOwnership */\n      tag_90\n        /* \"@openzeppelin/contracts/access/Ownable.sol\":2357:2387  _transferOwnership(address(0)) */\n      jump\t// in\n    tag_89:\n        /* \"@openzeppelin/contracts/access/Ownable.sol\":2293:2394  function renounceOwnership() public virtual onlyOwner {... */\n      jump\t// out\n        /* \"contracts/Tp_Final_Mod03/SimpleDEX.sol\":6244:7182  function swapBforA(uint256 amountBIn) external nonReentrant returns (uint256 amountAOut) {... */\n    tag_37:\n        /* \"contracts/Tp_Final_Mod03/SimpleDEX.sol\":6313:6331  uint256 amountAOut */\n      0x00\n        /* \"@openzeppelin/contracts/security/ReentrancyGuard.sol\":2261:2282  _nonReentrantBefore() */\n      tag_92\n        /* \"@openzeppelin/contracts/security/ReentrancyGuard.sol\":2261:2280  _nonReentrantBefore */\n      tag_93\n        /* \"@openzeppelin/contracts/security/ReentrancyGuard.sol\":2261:2282  _nonReentrantBefore() */\n      jump\t// in\n    tag_92:\n        /* \"contracts/Tp_Final_Mod03/SimpleDEX.sol\":6364:6365  0 */\n      0x00\n        /* \"contracts/Tp_Final_Mod03/SimpleDEX.sol\":6352:6361  amountBIn */\n      dup3\n        /* \"contracts/Tp_Final_Mod03/SimpleDEX.sol\":6352:6365  amountBIn > 0 */\n      gt\n        /* \"contracts/Tp_Final_Mod03/SimpleDEX.sol\":6344:6399  require(amountBIn > 0, \"Amount must be greater than 0\") */\n      tag_95\n      jumpi\n      mload(0x40)\n      0x08c379a000000000000000000000000000000000000000000000000000000000\n      dup2\n      mstore\n      0x04\n      add\n      tag_96\n      swap1\n      tag_97\n      jump\t// in\n    tag_96:\n      mload(0x40)\n      dup1\n      swap2\n      sub\n      swap1\n      revert\n    tag_95:\n        /* \"contracts/Tp_Final_Mod03/SimpleDEX.sol\":6421:6437  uint256 reserveA */\n      0x00\n        /* \"contracts/Tp_Final_Mod03/SimpleDEX.sol\":6439:6455  uint256 reserveB */\n      dup1\n        /* \"contracts/Tp_Final_Mod03/SimpleDEX.sol\":6459:6472  getReserves() */\n      tag_98\n        /* \"contracts/Tp_Final_Mod03/SimpleDEX.sol\":6459:6470  getReserves */\n      tag_16\n        /* \"contracts/Tp_Final_Mod03/SimpleDEX.sol\":6459:6472  getReserves() */\n      jump\t// in\n    tag_98:\n        /* \"contracts/Tp_Final_Mod03/SimpleDEX.sol\":6420:6472  (uint256 reserveA, uint256 reserveB) = getReserves() */\n      swap2\n      pop\n      swap2\n      pop\n        /* \"contracts/Tp_Final_Mod03/SimpleDEX.sol\":6502:6503  0 */\n      0x00\n        /* \"contracts/Tp_Final_Mod03/SimpleDEX.sol\":6491:6499  reserveA */\n      dup3\n        /* \"contracts/Tp_Final_Mod03/SimpleDEX.sol\":6491:6503  reserveA > 0 */\n      gt\n        /* \"contracts/Tp_Final_Mod03/SimpleDEX.sol\":6491:6519  reserveA > 0 && reserveB > 0 */\n      dup1\n      iszero\n      tag_99\n      jumpi\n      pop\n        /* \"contracts/Tp_Final_Mod03/SimpleDEX.sol\":6518:6519  0 */\n      0x00\n        /* \"contracts/Tp_Final_Mod03/SimpleDEX.sol\":6507:6515  reserveB */\n      dup2\n        /* \"contracts/Tp_Final_Mod03/SimpleDEX.sol\":6507:6519  reserveB > 0 */\n      gt\n        /* \"contracts/Tp_Final_Mod03/SimpleDEX.sol\":6491:6519  reserveA > 0 && reserveB > 0 */\n    tag_99:\n        /* \"contracts/Tp_Final_Mod03/SimpleDEX.sol\":6483:6546  require(reserveA > 0 && reserveB > 0, \"Insufficient liquidity\") */\n      tag_100\n      jumpi\n      mload(0x40)\n      0x08c379a000000000000000000000000000000000000000000000000000000000\n      dup2\n      mstore\n      0x04\n      add\n      tag_101\n      swap1\n      tag_102\n      jump\t// in\n    tag_101:\n      mload(0x40)\n      dup1\n      swap2\n      sub\n      swap1\n      revert\n    tag_100:\n        /* \"contracts/Tp_Final_Mod03/SimpleDEX.sol\":6684:6693  amountBIn */\n      dup4\n        /* \"contracts/Tp_Final_Mod03/SimpleDEX.sol\":6673:6681  reserveB */\n      dup2\n        /* \"contracts/Tp_Final_Mod03/SimpleDEX.sol\":6673:6693  reserveB + amountBIn */\n      tag_103\n      swap2\n      swap1\n      tag_104\n      jump\t// in\n    tag_103:\n        /* \"contracts/Tp_Final_Mod03/SimpleDEX.sol\":6659:6668  amountBIn */\n      dup5\n        /* \"contracts/Tp_Final_Mod03/SimpleDEX.sol\":6648:6656  reserveA */\n      dup4\n        /* \"contracts/Tp_Final_Mod03/SimpleDEX.sol\":6648:6668  reserveA * amountBIn */\n      tag_105\n      swap2\n      swap1\n      tag_79\n      jump\t// in\n    tag_105:\n        /* \"contracts/Tp_Final_Mod03/SimpleDEX.sol\":6647:6694  (reserveA * amountBIn) / (reserveB + amountBIn) */\n      tag_106\n      swap2\n      swap1\n      tag_81\n      jump\t// in\n    tag_106:\n        /* \"contracts/Tp_Final_Mod03/SimpleDEX.sol\":6634:6694  amountAOut = (reserveA * amountBIn) / (reserveB + amountBIn) */\n      swap3\n      pop\n        /* \"contracts/Tp_Final_Mod03/SimpleDEX.sol\":6736:6737  0 */\n      0x00\n        /* \"contracts/Tp_Final_Mod03/SimpleDEX.sol\":6723:6733  amountAOut */\n      dup4\n        /* \"contracts/Tp_Final_Mod03/SimpleDEX.sol\":6723:6737  amountAOut > 0 */\n      gt\n        /* \"contracts/Tp_Final_Mod03/SimpleDEX.sol\":6715:6768  require(amountAOut > 0, \"Insufficient output amount\") */\n      tag_107\n      jumpi\n      mload(0x40)\n      0x08c379a000000000000000000000000000000000000000000000000000000000\n      dup2\n      mstore\n      0x04\n      add\n      tag_108\n      swap1\n      tag_109\n      jump\t// in\n    tag_108:\n      mload(0x40)\n      dup1\n      swap2\n      sub\n      swap1\n      revert\n    tag_107:\n        /* \"contracts/Tp_Final_Mod03/SimpleDEX.sol\":6800:6808  reserveA */\n      dup2\n        /* \"contracts/Tp_Final_Mod03/SimpleDEX.sol\":6787:6797  amountAOut */\n      dup4\n        /* \"contracts/Tp_Final_Mod03/SimpleDEX.sol\":6787:6808  amountAOut < reserveA */\n      lt\n        /* \"contracts/Tp_Final_Mod03/SimpleDEX.sol\":6779:6835  require(amountAOut < reserveA, \"Insufficient liquidity\") */\n      tag_110\n      jumpi\n      mload(0x40)\n      0x08c379a000000000000000000000000000000000000000000000000000000000\n      dup2\n      mstore\n      0x04\n      add\n      tag_111\n      swap1\n      tag_102\n      jump\t// in\n    tag_111:\n      mload(0x40)\n      dup1\n      swap2\n      sub\n      swap1\n      revert\n    tag_110:\n        /* \"contracts/Tp_Final_Mod03/SimpleDEX.sol\":6864:6870  tokenB */\n      0x03\n      0x00\n      swap1\n      sload\n      swap1\n      0x0100\n      exp\n      swap1\n      div\n      0xffffffffffffffffffffffffffffffffffffffff\n      and\n        /* \"contracts/Tp_Final_Mod03/SimpleDEX.sol\":6864:6883  tokenB.transferFrom */\n      0xffffffffffffffffffffffffffffffffffffffff\n      and\n      0x23b872dd\n        /* \"contracts/Tp_Final_Mod03/SimpleDEX.sol\":6884:6894  msg.sender */\n      caller\n        /* \"contracts/Tp_Final_Mod03/SimpleDEX.sol\":6904:6908  this */\n      address\n        /* \"contracts/Tp_Final_Mod03/SimpleDEX.sol\":6911:6920  amountBIn */\n      dup8\n        /* \"contracts/Tp_Final_Mod03/SimpleDEX.sol\":6864:6921  tokenB.transferFrom(msg.sender, address(this), amountBIn) */\n      mload(0x40)\n      dup5\n      0xffffffff\n      and\n      0xe0\n      shl\n      dup2\n      mstore\n      0x04\n      add\n      tag_112\n      swap4\n      swap3\n      swap2\n      swap1\n      tag_113\n      jump\t// in\n    tag_112:\n      0x20\n      mload(0x40)\n      dup1\n      dup4\n      sub\n      dup2\n      0x00\n      dup8\n      gas\n      call\n      iszero\n      dup1\n      iszero\n      tag_115\n      jumpi\n      returndatasize\n      0x00\n      dup1\n      returndatacopy\n      revert(0x00, returndatasize)\n    tag_115:\n      pop\n      pop\n      pop\n      pop\n      mload(0x40)\n      returndatasize\n      not(0x1f)\n      0x1f\n      dup3\n      add\n      and\n      dup3\n      add\n      dup1\n      0x40\n      mstore\n      pop\n      dup2\n      add\n      swap1\n      tag_116\n      swap2\n      swap1\n      tag_117\n      jump\t// in\n    tag_116:\n        /* \"contracts/Tp_Final_Mod03/SimpleDEX.sol\":6856:6951  require(tokenB.transferFrom(msg.sender, address(this), amountBIn), \"Transfer of tokenB failed\") */\n      tag_118\n      jumpi\n      mload(0x40)\n      0x08c379a000000000000000000000000000000000000000000000000000000000\n      dup2\n      mstore\n      0x04\n      add\n      tag_119\n      swap1\n      tag_120\n      jump\t// in\n    tag_119:\n      mload(0x40)\n      dup1\n      swap2\n      sub\n      swap1\n      revert\n    tag_118:\n        /* \"contracts/Tp_Final_Mod03/SimpleDEX.sol\":6970:6976  tokenA */\n      0x02\n      0x00\n      swap1\n      sload\n      swap1\n      0x0100\n      exp\n      swap1\n      div\n      0xffffffffffffffffffffffffffffffffffffffff\n      and\n        /* \"contracts/Tp_Final_Mod03/SimpleDEX.sol\":6970:6985  tokenA.transfer */\n      0xffffffffffffffffffffffffffffffffffffffff\n      and\n      0xa9059cbb\n        /* \"contracts/Tp_Final_Mod03/SimpleDEX.sol\":6986:6996  msg.sender */\n      caller\n        /* \"contracts/Tp_Final_Mod03/SimpleDEX.sol\":6998:7008  amountAOut */\n      dup6\n        /* \"contracts/Tp_Final_Mod03/SimpleDEX.sol\":6970:7009  tokenA.transfer(msg.sender, amountAOut) */\n      mload(0x40)\n      dup4\n      0xffffffff\n      and\n      0xe0\n      shl\n      dup2\n      mstore\n      0x04\n      add\n      tag_121\n      swap3\n      swap2\n      swap1\n      tag_122\n      jump\t// in\n    tag_121:\n      0x20\n      mload(0x40)\n      dup1\n      dup4\n      sub\n      dup2\n      0x00\n      dup8\n      gas\n      call\n      iszero\n      dup1\n      iszero\n      tag_124\n      jumpi\n      returndatasize\n      0x00\n      dup1\n      returndatacopy\n      revert(0x00, returndatasize)\n    tag_124:\n      pop\n      pop\n      pop\n      pop\n      mload(0x40)\n      returndatasize\n      not(0x1f)\n      0x1f\n      dup3\n      add\n      and\n      dup3\n      add\n      dup1\n      0x40\n      mstore\n      pop\n      dup2\n      add\n      swap1\n      tag_125\n      swap2\n      swap1\n      tag_117\n      jump\t// in\n    tag_125:\n        /* \"contracts/Tp_Final_Mod03/SimpleDEX.sol\":6962:7039  require(tokenA.transfer(msg.sender, amountAOut), \"Transfer of tokenA failed\") */\n      tag_126\n      jumpi\n      mload(0x40)\n      0x08c379a000000000000000000000000000000000000000000000000000000000\n      dup2\n      mstore\n      0x04\n      add\n      tag_127\n      swap1\n      tag_128\n      jump\t// in\n    tag_127:\n      mload(0x40)\n      dup1\n      swap2\n      sub\n      swap1\n      revert\n    tag_126:\n        /* \"contracts/Tp_Final_Mod03/SimpleDEX.sol\":7078:7088  msg.sender */\n      caller\n        /* \"contracts/Tp_Final_Mod03/SimpleDEX.sol\":7065:7146  TokenSwapped(msg.sender, address(tokenB), address(tokenA), amountBIn, amountAOut) */\n      0xffffffffffffffffffffffffffffffffffffffff\n      and\n      0xd36cc53ba71bc76a3db3364981f5296dd4ca5eba0e8c89874f2170515bd20d24\n        /* \"contracts/Tp_Final_Mod03/SimpleDEX.sol\":7098:7104  tokenB */\n      0x03\n      0x00\n      swap1\n      sload\n      swap1\n      0x0100\n      exp\n      swap1\n      div\n      0xffffffffffffffffffffffffffffffffffffffff\n      and\n        /* \"contracts/Tp_Final_Mod03/SimpleDEX.sol\":7115:7121  tokenA */\n      0x02\n      0x00\n      swap1\n      sload\n      swap1\n      0x0100\n      exp\n      swap1\n      div\n      0xffffffffffffffffffffffffffffffffffffffff\n      and\n        /* \"contracts/Tp_Final_Mod03/SimpleDEX.sol\":7124:7133  amountBIn */\n      dup8\n        /* \"contracts/Tp_Final_Mod03/SimpleDEX.sol\":7135:7145  amountAOut */\n      dup8\n        /* \"contracts/Tp_Final_Mod03/SimpleDEX.sol\":7065:7146  TokenSwapped(msg.sender, address(tokenB), address(tokenA), amountBIn, amountAOut) */\n      mload(0x40)\n      tag_129\n      swap5\n      swap4\n      swap3\n      swap2\n      swap1\n      tag_130\n      jump\t// in\n    tag_129:\n      mload(0x40)\n      dup1\n      swap2\n      sub\n      swap1\n      log2\n        /* \"contracts/Tp_Final_Mod03/SimpleDEX.sol\":7157:7174  return amountAOut */\n      pop\n      pop\n        /* \"@openzeppelin/contracts/security/ReentrancyGuard.sol\":2303:2323  _nonReentrantAfter() */\n      tag_131\n        /* \"@openzeppelin/contracts/security/ReentrancyGuard.sol\":2303:2321  _nonReentrantAfter */\n      tag_132\n        /* \"@openzeppelin/contracts/security/ReentrancyGuard.sol\":2303:2323  _nonReentrantAfter() */\n      jump\t// in\n    tag_131:\n        /* \"contracts/Tp_Final_Mod03/SimpleDEX.sol\":6244:7182  function swapBforA(uint256 amountBIn) external nonReentrant returns (uint256 amountAOut) {... */\n      swap2\n      swap1\n      pop\n      jump\t// out\n        /* \"@openzeppelin/contracts/access/Ownable.sol\":1638:1723  function owner() public view virtual returns (address) {... */\n    tag_40:\n        /* \"@openzeppelin/contracts/access/Ownable.sol\":1684:1691  address */\n      0x00\n        /* \"@openzeppelin/contracts/access/Ownable.sol\":1710:1716  _owner */\n      dup1\n      0x00\n      swap1\n      sload\n      swap1\n      0x0100\n      exp\n      swap1\n      div\n      0xffffffffffffffffffffffffffffffffffffffff\n      and\n        /* \"@openzeppelin/contracts/access/Ownable.sol\":1703:1716  return _owner */\n      swap1\n      pop\n        /* \"@openzeppelin/contracts/access/Ownable.sol\":1638:1723  function owner() public view virtual returns (address) {... */\n      swap1\n      jump\t// out\n        /* \"contracts/Tp_Final_Mod03/SimpleDEX.sol\":3181:3689  function addLiquidity(uint256 amountA, uint256 amountB) external onlyOwner nonReentrant {... */\n    tag_46:\n        /* \"@openzeppelin/contracts/access/Ownable.sol\":1531:1544  _checkOwner() */\n      tag_135\n        /* \"@openzeppelin/contracts/access/Ownable.sol\":1531:1542  _checkOwner */\n      tag_87\n        /* \"@openzeppelin/contracts/access/Ownable.sol\":1531:1544  _checkOwner() */\n      jump\t// in\n    tag_135:\n        /* \"@openzeppelin/contracts/security/ReentrancyGuard.sol\":2261:2282  _nonReentrantBefore() */\n      tag_137\n        /* \"@openzeppelin/contracts/security/ReentrancyGuard.sol\":2261:2280  _nonReentrantBefore */\n      tag_93\n        /* \"@openzeppelin/contracts/security/ReentrancyGuard.sol\":2261:2282  _nonReentrantBefore() */\n      jump\t// in\n    tag_137:\n        /* \"contracts/Tp_Final_Mod03/SimpleDEX.sol\":3298:3299  0 */\n      0x00\n        /* \"contracts/Tp_Final_Mod03/SimpleDEX.sol\":3288:3295  amountA */\n      dup3\n        /* \"contracts/Tp_Final_Mod03/SimpleDEX.sol\":3288:3299  amountA > 0 */\n      gt\n        /* \"contracts/Tp_Final_Mod03/SimpleDEX.sol\":3288:3314  amountA > 0 && amountB > 0 */\n      dup1\n      iszero\n      tag_139\n      jumpi\n      pop\n        /* \"contracts/Tp_Final_Mod03/SimpleDEX.sol\":3313:3314  0 */\n      0x00\n        /* \"contracts/Tp_Final_Mod03/SimpleDEX.sol\":3303:3310  amountB */\n      dup2\n        /* \"contracts/Tp_Final_Mod03/SimpleDEX.sol\":3303:3314  amountB > 0 */\n      gt\n        /* \"contracts/Tp_Final_Mod03/SimpleDEX.sol\":3288:3314  amountA > 0 && amountB > 0 */\n    tag_139:\n        /* \"contracts/Tp_Final_Mod03/SimpleDEX.sol\":3280:3349  require(amountA > 0 && amountB > 0, \"Amounts must be greater than 0\") */\n      tag_140\n      jumpi\n      mload(0x40)\n      0x08c379a000000000000000000000000000000000000000000000000000000000\n      dup2\n      mstore\n      0x04\n      add\n      tag_141\n      swap1\n      tag_142\n      jump\t// in\n    tag_141:\n      mload(0x40)\n      dup1\n      swap2\n      sub\n      swap1\n      revert\n    tag_140:\n        /* \"contracts/Tp_Final_Mod03/SimpleDEX.sol\":3422:3428  tokenA */\n      0x02\n      0x00\n      swap1\n      sload\n      swap1\n      0x0100\n      exp\n      swap1\n      div\n      0xffffffffffffffffffffffffffffffffffffffff\n      and\n        /* \"contracts/Tp_Final_Mod03/SimpleDEX.sol\":3422:3441  tokenA.transferFrom */\n      0xffffffffffffffffffffffffffffffffffffffff\n      and\n      0x23b872dd\n        /* \"contracts/Tp_Final_Mod03/SimpleDEX.sol\":3442:3452  msg.sender */\n      caller\n        /* \"contracts/Tp_Final_Mod03/SimpleDEX.sol\":3462:3466  this */\n      address\n        /* \"contracts/Tp_Final_Mod03/SimpleDEX.sol\":3469:3476  amountA */\n      dup6\n        /* \"contracts/Tp_Final_Mod03/SimpleDEX.sol\":3422:3477  tokenA.transferFrom(msg.sender, address(this), amountA) */\n      mload(0x40)\n      dup5\n      0xffffffff\n      and\n      0xe0\n      shl\n      dup2\n      mstore\n      0x04\n      add\n      tag_143\n      swap4\n      swap3\n      swap2\n      swap1\n      tag_113\n      jump\t// in\n    tag_143:\n      0x20\n      mload(0x40)\n      dup1\n      dup4\n      sub\n      dup2\n      0x00\n      dup8\n      gas\n      call\n      iszero\n      dup1\n      iszero\n      tag_145\n      jumpi\n      returndatasize\n      0x00\n      dup1\n      returndatacopy\n      revert(0x00, returndatasize)\n    tag_145:\n      pop\n      pop\n      pop\n      pop\n      mload(0x40)\n      returndatasize\n      not(0x1f)\n      0x1f\n      dup3\n      add\n      and\n      dup3\n      add\n      dup1\n      0x40\n      mstore\n      pop\n      dup2\n      add\n      swap1\n      tag_146\n      swap2\n      swap1\n      tag_117\n      jump\t// in\n    tag_146:\n        /* \"contracts/Tp_Final_Mod03/SimpleDEX.sol\":3414:3507  require(tokenA.transferFrom(msg.sender, address(this), amountA), \"Transfer of tokenA failed\") */\n      tag_147\n      jumpi\n      mload(0x40)\n      0x08c379a000000000000000000000000000000000000000000000000000000000\n      dup2\n      mstore\n      0x04\n      add\n      tag_148\n      swap1\n      tag_128\n      jump\t// in\n    tag_148:\n      mload(0x40)\n      dup1\n      swap2\n      sub\n      swap1\n      revert\n    tag_147:\n        /* \"contracts/Tp_Final_Mod03/SimpleDEX.sol\":3526:3532  tokenB */\n      0x03\n      0x00\n      swap1\n      sload\n      swap1\n      0x0100\n      exp\n      swap1\n      div\n      0xffffffffffffffffffffffffffffffffffffffff\n      and\n        /* \"contracts/Tp_Final_Mod03/SimpleDEX.sol\":3526:3545  tokenB.transferFrom */\n      0xffffffffffffffffffffffffffffffffffffffff\n      and\n      0x23b872dd\n        /* \"contracts/Tp_Final_Mod03/SimpleDEX.sol\":3546:3556  msg.sender */\n      caller\n        /* \"contracts/Tp_Final_Mod03/SimpleDEX.sol\":3566:3570  this */\n      address\n        /* \"contracts/Tp_Final_Mod03/SimpleDEX.sol\":3573:3580  amountB */\n      dup5\n        /* \"contracts/Tp_Final_Mod03/SimpleDEX.sol\":3526:3581  tokenB.transferFrom(msg.sender, address(this), amountB) */\n      mload(0x40)\n      dup5\n      0xffffffff\n      and\n      0xe0\n      shl\n      dup2\n      mstore\n      0x04\n      add\n      tag_149\n      swap4\n      swap3\n      swap2\n      swap1\n      tag_113\n      jump\t// in\n    tag_149:\n      0x20\n      mload(0x40)\n      dup1\n      dup4\n      sub\n      dup2\n      0x00\n      dup8\n      gas\n      call\n      iszero\n      dup1\n      iszero\n      tag_151\n      jumpi\n      returndatasize\n      0x00\n      dup1\n      returndatacopy\n      revert(0x00, returndatasize)\n    tag_151:\n      pop\n      pop\n      pop\n      pop\n      mload(0x40)\n      returndatasize\n      not(0x1f)\n      0x1f\n      dup3\n      add\n      and\n      dup3\n      add\n      dup1\n      0x40\n      mstore\n      pop\n      dup2\n      add\n      swap1\n      tag_152\n      swap2\n      swap1\n      tag_117\n      jump\t// in\n    tag_152:\n        /* \"contracts/Tp_Final_Mod03/SimpleDEX.sol\":3518:3611  require(tokenB.transferFrom(msg.sender, address(this), amountB), \"Transfer of tokenB failed\") */\n      tag_153\n      jumpi\n      mload(0x40)\n      0x08c379a000000000000000000000000000000000000000000000000000000000\n      dup2\n      mstore\n      0x04\n      add\n      tag_154\n      swap1\n      tag_120\n      jump\t// in\n    tag_154:\n      mload(0x40)\n      dup1\n      swap2\n      sub\n      swap1\n      revert\n    tag_153:\n        /* \"contracts/Tp_Final_Mod03/SimpleDEX.sol\":3652:3662  msg.sender */\n      caller\n        /* \"contracts/Tp_Final_Mod03/SimpleDEX.sol\":3637:3681  LiquidityAdded(msg.sender, amountA, amountB) */\n      0xffffffffffffffffffffffffffffffffffffffff\n      and\n      0xac1d76749e5447b7b16f5ab61447e1bd502f3bb4807af3b28e620d1700a6ee45\n        /* \"contracts/Tp_Final_Mod03/SimpleDEX.sol\":3664:3671  amountA */\n      dup4\n        /* \"contracts/Tp_Final_Mod03/SimpleDEX.sol\":3673:3680  amountB */\n      dup4\n        /* \"contracts/Tp_Final_Mod03/SimpleDEX.sol\":3637:3681  LiquidityAdded(msg.sender, amountA, amountB) */\n      mload(0x40)\n      tag_155\n      swap3\n      swap2\n      swap1\n      tag_18\n      jump\t// in\n    tag_155:\n      mload(0x40)\n      dup1\n      swap2\n      sub\n      swap1\n      log2\n        /* \"@openzeppelin/contracts/security/ReentrancyGuard.sol\":2303:2323  _nonReentrantAfter() */\n      tag_156\n        /* \"@openzeppelin/contracts/security/ReentrancyGuard.sol\":2303:2321  _nonReentrantAfter */\n      tag_132\n        /* \"@openzeppelin/contracts/security/ReentrancyGuard.sol\":2303:2323  _nonReentrantAfter() */\n      jump\t// in\n    tag_156:\n        /* \"contracts/Tp_Final_Mod03/SimpleDEX.sol\":3181:3689  function addLiquidity(uint256 amountA, uint256 amountB) external onlyOwner nonReentrant {... */\n      pop\n      pop\n      jump\t// out\n        /* \"contracts/Tp_Final_Mod03/SimpleDEX.sol\":3938:4695  function removeLiquidity(uint256 amountA, uint256 amountB) external onlyOwner nonReentrant {... */\n    tag_49:\n        /* \"@openzeppelin/contracts/access/Ownable.sol\":1531:1544  _checkOwner() */\n      tag_158\n        /* \"@openzeppelin/contracts/access/Ownable.sol\":1531:1542  _checkOwner */\n      tag_87\n        /* \"@openzeppelin/contracts/access/Ownable.sol\":1531:1544  _checkOwner() */\n      jump\t// in\n    tag_158:\n        /* \"@openzeppelin/contracts/security/ReentrancyGuard.sol\":2261:2282  _nonReentrantBefore() */\n      tag_160\n        /* \"@openzeppelin/contracts/security/ReentrancyGuard.sol\":2261:2280  _nonReentrantBefore */\n      tag_93\n        /* \"@openzeppelin/contracts/security/ReentrancyGuard.sol\":2261:2282  _nonReentrantBefore() */\n      jump\t// in\n    tag_160:\n        /* \"contracts/Tp_Final_Mod03/SimpleDEX.sol\":4058:4059  0 */\n      0x00\n        /* \"contracts/Tp_Final_Mod03/SimpleDEX.sol\":4048:4055  amountA */\n      dup3\n        /* \"contracts/Tp_Final_Mod03/SimpleDEX.sol\":4048:4059  amountA > 0 */\n      gt\n        /* \"contracts/Tp_Final_Mod03/SimpleDEX.sol\":4048:4074  amountA > 0 && amountB > 0 */\n      dup1\n      iszero\n      tag_162\n      jumpi\n      pop\n        /* \"contracts/Tp_Final_Mod03/SimpleDEX.sol\":4073:4074  0 */\n      0x00\n        /* \"contracts/Tp_Final_Mod03/SimpleDEX.sol\":4063:4070  amountB */\n      dup2\n        /* \"contracts/Tp_Final_Mod03/SimpleDEX.sol\":4063:4074  amountB > 0 */\n      gt\n        /* \"contracts/Tp_Final_Mod03/SimpleDEX.sol\":4048:4074  amountA > 0 && amountB > 0 */\n    tag_162:\n        /* \"contracts/Tp_Final_Mod03/SimpleDEX.sol\":4040:4109  require(amountA > 0 && amountB > 0, \"Amounts must be greater than 0\") */\n      tag_163\n      jumpi\n      mload(0x40)\n      0x08c379a000000000000000000000000000000000000000000000000000000000\n      dup2\n      mstore\n      0x04\n      add\n      tag_164\n      swap1\n      tag_142\n      jump\t// in\n    tag_164:\n      mload(0x40)\n      dup1\n      swap2\n      sub\n      swap1\n      revert\n    tag_163:\n        /* \"contracts/Tp_Final_Mod03/SimpleDEX.sol\":4131:4147  uint256 reserveA */\n      0x00\n        /* \"contracts/Tp_Final_Mod03/SimpleDEX.sol\":4149:4165  uint256 reserveB */\n      dup1\n        /* \"contracts/Tp_Final_Mod03/SimpleDEX.sol\":4169:4182  getReserves() */\n      tag_165\n        /* \"contracts/Tp_Final_Mod03/SimpleDEX.sol\":4169:4180  getReserves */\n      tag_16\n        /* \"contracts/Tp_Final_Mod03/SimpleDEX.sol\":4169:4182  getReserves() */\n      jump\t// in\n    tag_165:\n        /* \"contracts/Tp_Final_Mod03/SimpleDEX.sol\":4130:4182  (uint256 reserveA, uint256 reserveB) = getReserves() */\n      swap2\n      pop\n      swap2\n      pop\n        /* \"contracts/Tp_Final_Mod03/SimpleDEX.sol\":4212:4220  reserveA */\n      dup2\n        /* \"contracts/Tp_Final_Mod03/SimpleDEX.sol\":4201:4208  amountA */\n      dup5\n        /* \"contracts/Tp_Final_Mod03/SimpleDEX.sol\":4201:4220  amountA <= reserveA */\n      gt\n      iszero\n        /* \"contracts/Tp_Final_Mod03/SimpleDEX.sol\":4201:4243  amountA <= reserveA && amountB <= reserveB */\n      dup1\n      iszero\n      tag_166\n      jumpi\n      pop\n        /* \"contracts/Tp_Final_Mod03/SimpleDEX.sol\":4235:4243  reserveB */\n      dup1\n        /* \"contracts/Tp_Final_Mod03/SimpleDEX.sol\":4224:4231  amountB */\n      dup4\n        /* \"contracts/Tp_Final_Mod03/SimpleDEX.sol\":4224:4243  amountB <= reserveB */\n      gt\n      iszero\n        /* \"contracts/Tp_Final_Mod03/SimpleDEX.sol\":4201:4243  amountA <= reserveA && amountB <= reserveB */\n    tag_166:\n        /* \"contracts/Tp_Final_Mod03/SimpleDEX.sol\":4193:4270  require(amountA <= reserveA && amountB <= reserveB, \"Insufficient liquidity\") */\n      tag_167\n      jumpi\n      mload(0x40)\n      0x08c379a000000000000000000000000000000000000000000000000000000000\n      dup2\n      mstore\n      0x04\n      add\n      tag_168\n      swap1\n      tag_102\n      jump\t// in\n    tag_168:\n      mload(0x40)\n      dup1\n      swap2\n      sub\n      swap1\n      revert\n    tag_167:\n        /* \"contracts/Tp_Final_Mod03/SimpleDEX.sol\":4358:4365  amountA */\n      dup4\n        /* \"contracts/Tp_Final_Mod03/SimpleDEX.sol\":4344:4354  poolTokenA */\n      0x04\n      0x00\n        /* \"contracts/Tp_Final_Mod03/SimpleDEX.sol\":4344:4365  poolTokenA -= amountA */\n      dup3\n      dup3\n      sload\n      tag_169\n      swap2\n      swap1\n      tag_170\n      jump\t// in\n    tag_169:\n      swap3\n      pop\n      pop\n      dup2\n      swap1\n      sstore\n      pop\n        /* \"contracts/Tp_Final_Mod03/SimpleDEX.sol\":4390:4397  amountB */\n      dup3\n        /* \"contracts/Tp_Final_Mod03/SimpleDEX.sol\":4376:4386  poolTokenB */\n      0x05\n      0x00\n        /* \"contracts/Tp_Final_Mod03/SimpleDEX.sol\":4376:4397  poolTokenB -= amountB */\n      dup3\n      dup3\n      sload\n      tag_171\n      swap2\n      swap1\n      tag_170\n      jump\t// in\n    tag_171:\n      swap3\n      pop\n      pop\n      dup2\n      swap1\n      sstore\n      pop\n        /* \"contracts/Tp_Final_Mod03/SimpleDEX.sol\":4464:4470  tokenA */\n      0x02\n      0x00\n      swap1\n      sload\n      swap1\n      0x0100\n      exp\n      swap1\n      div\n      0xffffffffffffffffffffffffffffffffffffffff\n      and\n        /* \"contracts/Tp_Final_Mod03/SimpleDEX.sol\":4464:4479  tokenA.transfer */\n      0xffffffffffffffffffffffffffffffffffffffff\n      and\n      0xa9059cbb\n        /* \"contracts/Tp_Final_Mod03/SimpleDEX.sol\":4480:4490  msg.sender */\n      caller\n        /* \"contracts/Tp_Final_Mod03/SimpleDEX.sol\":4492:4499  amountA */\n      dup7\n        /* \"contracts/Tp_Final_Mod03/SimpleDEX.sol\":4464:4500  tokenA.transfer(msg.sender, amountA) */\n      mload(0x40)\n      dup4\n      0xffffffff\n      and\n      0xe0\n      shl\n      dup2\n      mstore\n      0x04\n      add\n      tag_172\n      swap3\n      swap2\n      swap1\n      tag_122\n      jump\t// in\n    tag_172:\n      0x20\n      mload(0x40)\n      dup1\n      dup4\n      sub\n      dup2\n      0x00\n      dup8\n      gas\n      call\n      iszero\n      dup1\n      iszero\n      tag_174\n      jumpi\n      returndatasize\n      0x00\n      dup1\n      returndatacopy\n      revert(0x00, returndatasize)\n    tag_174:\n      pop\n      pop\n      pop\n      pop\n      mload(0x40)\n      returndatasize\n      not(0x1f)\n      0x1f\n      dup3\n      add\n      and\n      dup3\n      add\n      dup1\n      0x40\n      mstore\n      pop\n      dup2\n      add\n      swap1\n      tag_175\n      swap2\n      swap1\n      tag_117\n      jump\t// in\n    tag_175:\n        /* \"contracts/Tp_Final_Mod03/SimpleDEX.sol\":4456:4530  require(tokenA.transfer(msg.sender, amountA), \"Transfer of tokenA failed\") */\n      tag_176\n      jumpi\n      mload(0x40)\n      0x08c379a000000000000000000000000000000000000000000000000000000000\n      dup2\n      mstore\n      0x04\n      add\n      tag_177\n      swap1\n      tag_128\n      jump\t// in\n    tag_177:\n      mload(0x40)\n      dup1\n      swap2\n      sub\n      swap1\n      revert\n    tag_176:\n        /* \"contracts/Tp_Final_Mod03/SimpleDEX.sol\":4549:4555  tokenB */\n      0x03\n      0x00\n      swap1\n      sload\n      swap1\n      0x0100\n      exp\n      swap1\n      div\n      0xffffffffffffffffffffffffffffffffffffffff\n      and\n        /* \"contracts/Tp_Final_Mod03/SimpleDEX.sol\":4549:4564  tokenB.transfer */\n      0xffffffffffffffffffffffffffffffffffffffff\n      and\n      0xa9059cbb\n        /* \"contracts/Tp_Final_Mod03/SimpleDEX.sol\":4565:4575  msg.sender */\n      caller\n        /* \"contracts/Tp_Final_Mod03/SimpleDEX.sol\":4577:4584  amountB */\n      dup6\n        /* \"contracts/Tp_Final_Mod03/SimpleDEX.sol\":4549:4585  tokenB.transfer(msg.sender, amountB) */\n      mload(0x40)\n      dup4\n      0xffffffff\n      and\n      0xe0\n      shl\n      dup2\n      mstore\n      0x04\n      add\n      tag_178\n      swap3\n      swap2\n      swap1\n      tag_122\n      jump\t// in\n    tag_178:\n      0x20\n      mload(0x40)\n      dup1\n      dup4\n      sub\n      dup2\n      0x00\n      dup8\n      gas\n      call\n      iszero\n      dup1\n      iszero\n      tag_180\n      jumpi\n      returndatasize\n      0x00\n      dup1\n      returndatacopy\n      revert(0x00, returndatasize)\n    tag_180:\n      pop\n      pop\n      pop\n      pop\n      mload(0x40)\n      returndatasize\n      not(0x1f)\n      0x1f\n      dup3\n      add\n      and\n      dup3\n      add\n      dup1\n      0x40\n      mstore\n      pop\n      dup2\n      add\n      swap1\n      tag_181\n      swap2\n      swap1\n      tag_117\n      jump\t// in\n    tag_181:\n        /* \"contracts/Tp_Final_Mod03/SimpleDEX.sol\":4541:4615  require(tokenB.transfer(msg.sender, amountB), \"Transfer of tokenB failed\") */\n      tag_182\n      jumpi\n      mload(0x40)\n      0x08c379a000000000000000000000000000000000000000000000000000000000\n      dup2\n      mstore\n      0x04\n      add\n      tag_183\n      swap1\n      tag_120\n      jump\t// in\n    tag_183:\n      mload(0x40)\n      dup1\n      swap2\n      sub\n      swap1\n      revert\n    tag_182:\n        /* \"contracts/Tp_Final_Mod03/SimpleDEX.sol\":4658:4668  msg.sender */\n      caller\n        /* \"contracts/Tp_Final_Mod03/SimpleDEX.sol\":4641:4687  LiquidityRemoved(msg.sender, amountA, amountB) */\n      0xffffffffffffffffffffffffffffffffffffffff\n      and\n      0x96cd817c6329656790ef8fba7675405193677d39619571282f5e21f3a98cd059\n        /* \"contracts/Tp_Final_Mod03/SimpleDEX.sol\":4670:4677  amountA */\n      dup6\n        /* \"contracts/Tp_Final_Mod03/SimpleDEX.sol\":4679:4686  amountB */\n      dup6\n        /* \"contracts/Tp_Final_Mod03/SimpleDEX.sol\":4641:4687  LiquidityRemoved(msg.sender, amountA, amountB) */\n      mload(0x40)\n      tag_184\n      swap3\n      swap2\n      swap1\n      tag_18\n      jump\t// in\n    tag_184:\n      mload(0x40)\n      dup1\n      swap2\n      sub\n      swap1\n      log2\n        /* \"contracts/Tp_Final_Mod03/SimpleDEX.sol\":4029:4695  {... */\n      pop\n      pop\n        /* \"@openzeppelin/contracts/security/ReentrancyGuard.sol\":2303:2323  _nonReentrantAfter() */\n      tag_185\n        /* \"@openzeppelin/contracts/security/ReentrancyGuard.sol\":2303:2321  _nonReentrantAfter */\n      tag_132\n        /* \"@openzeppelin/contracts/security/ReentrancyGuard.sol\":2303:2323  _nonReentrantAfter() */\n      jump\t// in\n    tag_185:\n        /* \"contracts/Tp_Final_Mod03/SimpleDEX.sol\":3938:4695  function removeLiquidity(uint256 amountA, uint256 amountB) external onlyOwner nonReentrant {... */\n      pop\n      pop\n      jump\t// out\n        /* \"contracts/Tp_Final_Mod03/SimpleDEX.sol\":4965:5974  function swapAforB(uint256 amountAIn) external nonReentrant returns (uint256 amountBOut) {... */\n    tag_52:\n        /* \"contracts/Tp_Final_Mod03/SimpleDEX.sol\":5034:5052  uint256 amountBOut */\n      0x00\n        /* \"@openzeppelin/contracts/security/ReentrancyGuard.sol\":2261:2282  _nonReentrantBefore() */\n      tag_187\n        /* \"@openzeppelin/contracts/security/ReentrancyGuard.sol\":2261:2280  _nonReentrantBefore */\n      tag_93\n        /* \"@openzeppelin/contracts/security/ReentrancyGuard.sol\":2261:2282  _nonReentrantBefore() */\n      jump\t// in\n    tag_187:\n        /* \"contracts/Tp_Final_Mod03/SimpleDEX.sol\":5085:5086  0 */\n      0x00\n        /* \"contracts/Tp_Final_Mod03/SimpleDEX.sol\":5073:5082  amountAIn */\n      dup3\n        /* \"contracts/Tp_Final_Mod03/SimpleDEX.sol\":5073:5086  amountAIn > 0 */\n      gt\n        /* \"contracts/Tp_Final_Mod03/SimpleDEX.sol\":5065:5120  require(amountAIn > 0, \"Amount must be greater than 0\") */\n      tag_189\n      jumpi\n      mload(0x40)\n      0x08c379a000000000000000000000000000000000000000000000000000000000\n      dup2\n      mstore\n      0x04\n      add\n      tag_190\n      swap1\n      tag_97\n      jump\t// in\n    tag_190:\n      mload(0x40)\n      dup1\n      swap2\n      sub\n      swap1\n      revert\n    tag_189:\n        /* \"contracts/Tp_Final_Mod03/SimpleDEX.sol\":5142:5158  uint256 reserveA */\n      0x00\n        /* \"contracts/Tp_Final_Mod03/SimpleDEX.sol\":5160:5176  uint256 reserveB */\n      dup1\n        /* \"contracts/Tp_Final_Mod03/SimpleDEX.sol\":5180:5193  getReserves() */\n      tag_191\n        /* \"contracts/Tp_Final_Mod03/SimpleDEX.sol\":5180:5191  getReserves */\n      tag_16\n        /* \"contracts/Tp_Final_Mod03/SimpleDEX.sol\":5180:5193  getReserves() */\n      jump\t// in\n    tag_191:\n        /* \"contracts/Tp_Final_Mod03/SimpleDEX.sol\":5141:5193  (uint256 reserveA, uint256 reserveB) = getReserves() */\n      swap2\n      pop\n      swap2\n      pop\n        /* \"contracts/Tp_Final_Mod03/SimpleDEX.sol\":5223:5224  0 */\n      0x00\n        /* \"contracts/Tp_Final_Mod03/SimpleDEX.sol\":5212:5220  reserveA */\n      dup3\n        /* \"contracts/Tp_Final_Mod03/SimpleDEX.sol\":5212:5224  reserveA > 0 */\n      gt\n        /* \"contracts/Tp_Final_Mod03/SimpleDEX.sol\":5212:5240  reserveA > 0 && reserveB > 0 */\n      dup1\n      iszero\n      tag_192\n      jumpi\n      pop\n        /* \"contracts/Tp_Final_Mod03/SimpleDEX.sol\":5239:5240  0 */\n      0x00\n        /* \"contracts/Tp_Final_Mod03/SimpleDEX.sol\":5228:5236  reserveB */\n      dup2\n        /* \"contracts/Tp_Final_Mod03/SimpleDEX.sol\":5228:5240  reserveB > 0 */\n      gt\n        /* \"contracts/Tp_Final_Mod03/SimpleDEX.sol\":5212:5240  reserveA > 0 && reserveB > 0 */\n    tag_192:\n        /* \"contracts/Tp_Final_Mod03/SimpleDEX.sol\":5204:5267  require(reserveA > 0 && reserveB > 0, \"Insufficient liquidity\") */\n      tag_193\n      jumpi\n      mload(0x40)\n      0x08c379a000000000000000000000000000000000000000000000000000000000\n      dup2\n      mstore\n      0x04\n      add\n      tag_194\n      swap1\n      tag_102\n      jump\t// in\n    tag_194:\n      mload(0x40)\n      dup1\n      swap2\n      sub\n      swap1\n      revert\n    tag_193:\n        /* \"contracts/Tp_Final_Mod03/SimpleDEX.sol\":5476:5485  amountAIn */\n      dup4\n        /* \"contracts/Tp_Final_Mod03/SimpleDEX.sol\":5465:5473  reserveA */\n      dup3\n        /* \"contracts/Tp_Final_Mod03/SimpleDEX.sol\":5465:5485  reserveA + amountAIn */\n      tag_195\n      swap2\n      swap1\n      tag_104\n      jump\t// in\n    tag_195:\n        /* \"contracts/Tp_Final_Mod03/SimpleDEX.sol\":5451:5460  amountAIn */\n      dup5\n        /* \"contracts/Tp_Final_Mod03/SimpleDEX.sol\":5440:5448  reserveB */\n      dup3\n        /* \"contracts/Tp_Final_Mod03/SimpleDEX.sol\":5440:5460  reserveB * amountAIn */\n      tag_196\n      swap2\n      swap1\n      tag_79\n      jump\t// in\n    tag_196:\n        /* \"contracts/Tp_Final_Mod03/SimpleDEX.sol\":5439:5486  (reserveB * amountAIn) / (reserveA + amountAIn) */\n      tag_197\n      swap2\n      swap1\n      tag_81\n      jump\t// in\n    tag_197:\n        /* \"contracts/Tp_Final_Mod03/SimpleDEX.sol\":5426:5486  amountBOut = (reserveB * amountAIn) / (reserveA + amountAIn) */\n      swap3\n      pop\n        /* \"contracts/Tp_Final_Mod03/SimpleDEX.sol\":5528:5529  0 */\n      0x00\n        /* \"contracts/Tp_Final_Mod03/SimpleDEX.sol\":5515:5525  amountBOut */\n      dup4\n        /* \"contracts/Tp_Final_Mod03/SimpleDEX.sol\":5515:5529  amountBOut > 0 */\n      gt\n        /* \"contracts/Tp_Final_Mod03/SimpleDEX.sol\":5507:5560  require(amountBOut > 0, \"Insufficient output amount\") */\n      tag_198\n      jumpi\n      mload(0x40)\n      0x08c379a000000000000000000000000000000000000000000000000000000000\n      dup2\n      mstore\n      0x04\n      add\n      tag_199\n      swap1\n      tag_109\n      jump\t// in\n    tag_199:\n      mload(0x40)\n      dup1\n      swap2\n      sub\n      swap1\n      revert\n    tag_198:\n        /* \"contracts/Tp_Final_Mod03/SimpleDEX.sol\":5592:5600  reserveB */\n      dup1\n        /* \"contracts/Tp_Final_Mod03/SimpleDEX.sol\":5579:5589  amountBOut */\n      dup4\n        /* \"contracts/Tp_Final_Mod03/SimpleDEX.sol\":5579:5600  amountBOut < reserveB */\n      lt\n        /* \"contracts/Tp_Final_Mod03/SimpleDEX.sol\":5571:5627  require(amountBOut < reserveB, \"Insufficient liquidity\") */\n      tag_200\n      jumpi\n      mload(0x40)\n      0x08c379a000000000000000000000000000000000000000000000000000000000\n      dup2\n      mstore\n      0x04\n      add\n      tag_201\n      swap1\n      tag_102\n      jump\t// in\n    tag_201:\n      mload(0x40)\n      dup1\n      swap2\n      sub\n      swap1\n      revert\n    tag_200:\n        /* \"contracts/Tp_Final_Mod03/SimpleDEX.sol\":5656:5662  tokenA */\n      0x02\n      0x00\n      swap1\n      sload\n      swap1\n      0x0100\n      exp\n      swap1\n      div\n      0xffffffffffffffffffffffffffffffffffffffff\n      and\n        /* \"contracts/Tp_Final_Mod03/SimpleDEX.sol\":5656:5675  tokenA.transferFrom */\n      0xffffffffffffffffffffffffffffffffffffffff\n      and\n      0x23b872dd\n        /* \"contracts/Tp_Final_Mod03/SimpleDEX.sol\":5676:5686  msg.sender */\n      caller\n        /* \"contracts/Tp_Final_Mod03/SimpleDEX.sol\":5696:5700  this */\n      address\n        /* \"contracts/Tp_Final_Mod03/SimpleDEX.sol\":5703:5712  amountAIn */\n      dup8\n        /* \"contracts/Tp_Final_Mod03/SimpleDEX.sol\":5656:5713  tokenA.transferFrom(msg.sender, address(this), amountAIn) */\n      mload(0x40)\n      dup5\n      0xffffffff\n      and\n      0xe0\n      shl\n      dup2\n      mstore\n      0x04\n      add\n      tag_202\n      swap4\n      swap3\n      swap2\n      swap1\n      tag_113\n      jump\t// in\n    tag_202:\n      0x20\n      mload(0x40)\n      dup1\n      dup4\n      sub\n      dup2\n      0x00\n      dup8\n      gas\n      call\n      iszero\n      dup1\n      iszero\n      tag_204\n      jumpi\n      returndatasize\n      0x00\n      dup1\n      returndatacopy\n      revert(0x00, returndatasize)\n    tag_204:\n      pop\n      pop\n      pop\n      pop\n      mload(0x40)\n      returndatasize\n      not(0x1f)\n      0x1f\n      dup3\n      add\n      and\n      dup3\n      add\n      dup1\n      0x40\n      mstore\n      pop\n      dup2\n      add\n      swap1\n      tag_205\n      swap2\n      swap1\n      tag_117\n      jump\t// in\n    tag_205:\n        /* \"contracts/Tp_Final_Mod03/SimpleDEX.sol\":5648:5743  require(tokenA.transferFrom(msg.sender, address(this), amountAIn), \"Transfer of tokenA failed\") */\n      tag_206\n      jumpi\n      mload(0x40)\n      0x08c379a000000000000000000000000000000000000000000000000000000000\n      dup2\n      mstore\n      0x04\n      add\n      tag_207\n      swap1\n      tag_128\n      jump\t// in\n    tag_207:\n      mload(0x40)\n      dup1\n      swap2\n      sub\n      swap1\n      revert\n    tag_206:\n        /* \"contracts/Tp_Final_Mod03/SimpleDEX.sol\":5762:5768  tokenB */\n      0x03\n      0x00\n      swap1\n      sload\n      swap1\n      0x0100\n      exp\n      swap1\n      div\n      0xffffffffffffffffffffffffffffffffffffffff\n      and\n        /* \"contracts/Tp_Final_Mod03/SimpleDEX.sol\":5762:5777  tokenB.transfer */\n      0xffffffffffffffffffffffffffffffffffffffff\n      and\n      0xa9059cbb\n        /* \"contracts/Tp_Final_Mod03/SimpleDEX.sol\":5778:5788  msg.sender */\n      caller\n        /* \"contracts/Tp_Final_Mod03/SimpleDEX.sol\":5790:5800  amountBOut */\n      dup6\n        /* \"contracts/Tp_Final_Mod03/SimpleDEX.sol\":5762:5801  tokenB.transfer(msg.sender, amountBOut) */\n      mload(0x40)\n      dup4\n      0xffffffff\n      and\n      0xe0\n      shl\n      dup2\n      mstore\n      0x04\n      add\n      tag_208\n      swap3\n      swap2\n      swap1\n      tag_122\n      jump\t// in\n    tag_208:\n      0x20\n      mload(0x40)\n      dup1\n      dup4\n      sub\n      dup2\n      0x00\n      dup8\n      gas\n      call\n      iszero\n      dup1\n      iszero\n      tag_210\n      jumpi\n      returndatasize\n      0x00\n      dup1\n      returndatacopy\n      revert(0x00, returndatasize)\n    tag_210:\n      pop\n      pop\n      pop\n      pop\n      mload(0x40)\n      returndatasize\n      not(0x1f)\n      0x1f\n      dup3\n      add\n      and\n      dup3\n      add\n      dup1\n      0x40\n      mstore\n      pop\n      dup2\n      add\n      swap1\n      tag_211\n      swap2\n      swap1\n      tag_117\n      jump\t// in\n    tag_211:\n        /* \"contracts/Tp_Final_Mod03/SimpleDEX.sol\":5754:5831  require(tokenB.transfer(msg.sender, amountBOut), \"Transfer of tokenB failed\") */\n      tag_212\n      jumpi\n      mload(0x40)\n      0x08c379a000000000000000000000000000000000000000000000000000000000\n      dup2\n      mstore\n      0x04\n      add\n      tag_213\n      swap1\n      tag_120\n      jump\t// in\n    tag_213:\n      mload(0x40)\n      dup1\n      swap2\n      sub\n      swap1\n      revert\n    tag_212:\n        /* \"contracts/Tp_Final_Mod03/SimpleDEX.sol\":5870:5880  msg.sender */\n      caller\n        /* \"contracts/Tp_Final_Mod03/SimpleDEX.sol\":5857:5938  TokenSwapped(msg.sender, address(tokenA), address(tokenB), amountAIn, amountBOut) */\n      0xffffffffffffffffffffffffffffffffffffffff\n      and\n      0xd36cc53ba71bc76a3db3364981f5296dd4ca5eba0e8c89874f2170515bd20d24\n        /* \"contracts/Tp_Final_Mod03/SimpleDEX.sol\":5890:5896  tokenA */\n      0x02\n      0x00\n      swap1\n      sload\n      swap1\n      0x0100\n      exp\n      swap1\n      div\n      0xffffffffffffffffffffffffffffffffffffffff\n      and\n        /* \"contracts/Tp_Final_Mod03/SimpleDEX.sol\":5907:5913  tokenB */\n      0x03\n      0x00\n      swap1\n      sload\n      swap1\n      0x0100\n      exp\n      swap1\n      div\n      0xffffffffffffffffffffffffffffffffffffffff\n      and\n        /* \"contracts/Tp_Final_Mod03/SimpleDEX.sol\":5916:5925  amountAIn */\n      dup8\n        /* \"contracts/Tp_Final_Mod03/SimpleDEX.sol\":5927:5937  amountBOut */\n      dup8\n        /* \"contracts/Tp_Final_Mod03/SimpleDEX.sol\":5857:5938  TokenSwapped(msg.sender, address(tokenA), address(tokenB), amountAIn, amountBOut) */\n      mload(0x40)\n      tag_214\n      swap5\n      swap4\n      swap3\n      swap2\n      swap1\n      tag_130\n      jump\t// in\n    tag_214:\n      mload(0x40)\n      dup1\n      swap2\n      sub\n      swap1\n      log2\n        /* \"contracts/Tp_Final_Mod03/SimpleDEX.sol\":5949:5966  return amountBOut */\n      pop\n      pop\n        /* \"@openzeppelin/contracts/security/ReentrancyGuard.sol\":2303:2323  _nonReentrantAfter() */\n      tag_215\n        /* \"@openzeppelin/contracts/security/ReentrancyGuard.sol\":2303:2321  _nonReentrantAfter */\n      tag_132\n        /* \"@openzeppelin/contracts/security/ReentrancyGuard.sol\":2303:2323  _nonReentrantAfter() */\n      jump\t// in\n    tag_215:\n        /* \"contracts/Tp_Final_Mod03/SimpleDEX.sol\":4965:5974  function swapAforB(uint256 amountAIn) external nonReentrant returns (uint256 amountBOut) {... */\n      swap2\n      swap1\n      pop\n      jump\t// out\n        /* \"@openzeppelin/contracts/access/Ownable.sol\":2543:2758  function transferOwnership(address newOwner) public virtual onlyOwner {... */\n    tag_56:\n        /* \"@openzeppelin/contracts/access/Ownable.sol\":1531:1544  _checkOwner() */\n      tag_217\n        /* \"@openzeppelin/contracts/access/Ownable.sol\":1531:1542  _checkOwner */\n      tag_87\n        /* \"@openzeppelin/contracts/access/Ownable.sol\":1531:1544  _checkOwner() */\n      jump\t// in\n    tag_217:\n        /* \"@openzeppelin/contracts/access/Ownable.sol\":2647:2648  0 */\n      0x00\n        /* \"@openzeppelin/contracts/access/Ownable.sol\":2627:2649  newOwner == address(0) */\n      0xffffffffffffffffffffffffffffffffffffffff\n      and\n        /* \"@openzeppelin/contracts/access/Ownable.sol\":2627:2635  newOwner */\n      dup2\n        /* \"@openzeppelin/contracts/access/Ownable.sol\":2627:2649  newOwner == address(0) */\n      0xffffffffffffffffffffffffffffffffffffffff\n      and\n      sub\n        /* \"@openzeppelin/contracts/access/Ownable.sol\":2623:2714  if (newOwner == address(0)) {... */\n      tag_219\n      jumpi\n        /* \"@openzeppelin/contracts/access/Ownable.sol\":2700:2701  0 */\n      0x00\n        /* \"@openzeppelin/contracts/access/Ownable.sol\":2672:2703  OwnableInvalidOwner(address(0)) */\n      mload(0x40)\n      0x1e4fbdf700000000000000000000000000000000000000000000000000000000\n      dup2\n      mstore\n      0x04\n      add\n      tag_220\n      swap2\n      swap1\n      tag_42\n      jump\t// in\n    tag_220:\n      mload(0x40)\n      dup1\n      swap2\n      sub\n      swap1\n      revert\n        /* \"@openzeppelin/contracts/access/Ownable.sol\":2623:2714  if (newOwner == address(0)) {... */\n    tag_219:\n        /* \"@openzeppelin/contracts/access/Ownable.sol\":2723:2751  _transferOwnership(newOwner) */\n      tag_221\n        /* \"@openzeppelin/contracts/access/Ownable.sol\":2742:2750  newOwner */\n      dup2\n        /* \"@openzeppelin/contracts/access/Ownable.sol\":2723:2741  _transferOwnership */\n      tag_90\n        /* \"@openzeppelin/contracts/access/Ownable.sol\":2723:2751  _transferOwnership(newOwner) */\n      jump\t// in\n    tag_221:\n        /* \"@openzeppelin/contracts/access/Ownable.sol\":2543:2758  function transferOwnership(address newOwner) public virtual onlyOwner {... */\n      pop\n      jump\t// out\n        /* \"@openzeppelin/contracts/access/Ownable.sol\":1796:1958  function _checkOwner() internal view virtual {... */\n    tag_87:\n        /* \"@openzeppelin/contracts/access/Ownable.sol\":1866:1878  _msgSender() */\n      tag_223\n        /* \"@openzeppelin/contracts/access/Ownable.sol\":1866:1876  _msgSender */\n      tag_224\n        /* \"@openzeppelin/contracts/access/Ownable.sol\":1866:1878  _msgSender() */\n      jump\t// in\n    tag_223:\n        /* \"@openzeppelin/contracts/access/Ownable.sol\":1855:1878  owner() != _msgSender() */\n      0xffffffffffffffffffffffffffffffffffffffff\n      and\n        /* \"@openzeppelin/contracts/access/Ownable.sol\":1855:1862  owner() */\n      tag_225\n        /* \"@openzeppelin/contracts/access/Ownable.sol\":1855:1860  owner */\n      tag_40\n        /* \"@openzeppelin/contracts/access/Ownable.sol\":1855:1862  owner() */\n      jump\t// in\n    tag_225:\n        /* \"@openzeppelin/contracts/access/Ownable.sol\":1855:1878  owner() != _msgSender() */\n      0xffffffffffffffffffffffffffffffffffffffff\n      and\n      eq\n        /* \"@openzeppelin/contracts/access/Ownable.sol\":1851:1952  if (owner() != _msgSender()) {... */\n      tag_226\n      jumpi\n        /* \"@openzeppelin/contracts/access/Ownable.sol\":1928:1940  _msgSender() */\n      tag_227\n        /* \"@openzeppelin/contracts/access/Ownable.sol\":1928:1938  _msgSender */\n      tag_224\n        /* \"@openzeppelin/contracts/access/Ownable.sol\":1928:1940  _msgSender() */\n      jump\t// in\n    tag_227:\n        /* \"@openzeppelin/contracts/access/Ownable.sol\":1901:1941  OwnableUnauthorizedAccount(_msgSender()) */\n      mload(0x40)\n      0x118cdaa700000000000000000000000000000000000000000000000000000000\n      dup2\n      mstore\n      0x04\n      add\n      tag_228\n      swap2\n      swap1\n      tag_42\n      jump\t// in\n    tag_228:\n      mload(0x40)\n      dup1\n      swap2\n      sub\n      swap1\n      revert\n        /* \"@openzeppelin/contracts/access/Ownable.sol\":1851:1952  if (owner() != _msgSender()) {... */\n    tag_226:\n        /* \"@openzeppelin/contracts/access/Ownable.sol\":1796:1958  function _checkOwner() internal view virtual {... */\n      jump\t// out\n        /* \"@openzeppelin/contracts/access/Ownable.sol\":2912:3099  function _transferOwnership(address newOwner) internal virtual {... */\n    tag_90:\n        /* \"@openzeppelin/contracts/access/Ownable.sol\":2985:3001  address oldOwner */\n      0x00\n        /* \"@openzeppelin/contracts/access/Ownable.sol\":3004:3010  _owner */\n      dup1\n      0x00\n      swap1\n      sload\n      swap1\n      0x0100\n      exp\n      swap1\n      div\n      0xffffffffffffffffffffffffffffffffffffffff\n      and\n        /* \"@openzeppelin/contracts/access/Ownable.sol\":2985:3010  address oldOwner = _owner */\n      swap1\n      pop\n        /* \"@openzeppelin/contracts/access/Ownable.sol\":3029:3037  newOwner */\n      dup2\n        /* \"@openzeppelin/contracts/access/Ownable.sol\":3020:3026  _owner */\n      0x00\n      dup1\n        /* \"@openzeppelin/contracts/access/Ownable.sol\":3020:3037  _owner = newOwner */\n      0x0100\n      exp\n      dup2\n      sload\n      dup2\n      0xffffffffffffffffffffffffffffffffffffffff\n      mul\n      not\n      and\n      swap1\n      dup4\n      0xffffffffffffffffffffffffffffffffffffffff\n      and\n      mul\n      or\n      swap1\n      sstore\n      pop\n        /* \"@openzeppelin/contracts/access/Ownable.sol\":3083:3091  newOwner */\n      dup2\n        /* \"@openzeppelin/contracts/access/Ownable.sol\":3052:3092  OwnershipTransferred(oldOwner, newOwner) */\n      0xffffffffffffffffffffffffffffffffffffffff\n      and\n        /* \"@openzeppelin/contracts/access/Ownable.sol\":3073:3081  oldOwner */\n      dup2\n        /* \"@openzeppelin/contracts/access/Ownable.sol\":3052:3092  OwnershipTransferred(oldOwner, newOwner) */\n      0xffffffffffffffffffffffffffffffffffffffff\n      and\n      0x8be0079c531659141344cd1fd0a4f28419497f9722a3daafe3b4186f6b6457e0\n      mload(0x40)\n      mload(0x40)\n      dup1\n      swap2\n      sub\n      swap1\n      log3\n        /* \"@openzeppelin/contracts/access/Ownable.sol\":2975:3099  {... */\n      pop\n        /* \"@openzeppelin/contracts/access/Ownable.sol\":2912:3099  function _transferOwnership(address newOwner) internal virtual {... */\n      pop\n      jump\t// out\n        /* \"@openzeppelin/contracts/security/ReentrancyGuard.sol\":2336:2623  function _nonReentrantBefore() private {... */\n    tag_93:\n        /* \"@openzeppelin/contracts/security/ReentrancyGuard.sol\":1759:1760  2 */\n      0x02\n        /* \"@openzeppelin/contracts/security/ReentrancyGuard.sol\":2468:2475  _status */\n      sload(0x01)\n        /* \"@openzeppelin/contracts/security/ReentrancyGuard.sol\":2468:2487  _status != _ENTERED */\n      sub\n        /* \"@openzeppelin/contracts/security/ReentrancyGuard.sol\":2460:2523  require(_status != _ENTERED, \"ReentrancyGuard: reentrant call\") */\n      tag_231\n      jumpi\n      mload(0x40)\n      0x08c379a000000000000000000000000000000000000000000000000000000000\n      dup2\n      mstore\n      0x04\n      add\n      tag_232\n      swap1\n      tag_233\n      jump\t// in\n    tag_232:\n      mload(0x40)\n      dup1\n      swap2\n      sub\n      swap1\n      revert\n    tag_231:\n        /* \"@openzeppelin/contracts/security/ReentrancyGuard.sol\":1759:1760  2 */\n      0x02\n        /* \"@openzeppelin/contracts/security/ReentrancyGuard.sol\":2598:2605  _status */\n      0x01\n        /* \"@openzeppelin/contracts/security/ReentrancyGuard.sol\":2598:2616  _status = _ENTERED */\n      dup2\n      swap1\n      sstore\n      pop\n        /* \"@openzeppelin/contracts/security/ReentrancyGuard.sol\":2336:2623  function _nonReentrantBefore() private {... */\n      jump\t// out\n        /* \"@openzeppelin/contracts/security/ReentrancyGuard.sol\":2629:2838  function _nonReentrantAfter() private {... */\n    tag_132:\n        /* \"@openzeppelin/contracts/security/ReentrancyGuard.sol\":1716:1717  1 */\n      0x01\n        /* \"@openzeppelin/contracts/security/ReentrancyGuard.sol\":2809:2816  _status */\n      dup1\n        /* \"@openzeppelin/contracts/security/ReentrancyGuard.sol\":2809:2831  _status = _NOT_ENTERED */\n      dup2\n      swap1\n      sstore\n      pop\n        /* \"@openzeppelin/contracts/security/ReentrancyGuard.sol\":2629:2838  function _nonReentrantAfter() private {... */\n      jump\t// out\n        /* \"@openzeppelin/contracts/utils/Context.sol\":656:752  function _msgSender() internal view virtual returns (address) {... */\n    tag_224:\n        /* \"@openzeppelin/contracts/utils/Context.sol\":709:716  address */\n      0x00\n        /* \"@openzeppelin/contracts/utils/Context.sol\":735:745  msg.sender */\n      caller\n        /* \"@openzeppelin/contracts/utils/Context.sol\":728:745  return msg.sender */\n      swap1\n      pop\n        /* \"@openzeppelin/contracts/utils/Context.sol\":656:752  function _msgSender() internal view virtual returns (address) {... */\n      swap1\n      jump\t// out\n        /* \"#utility.yul\":7:84   */\n    tag_236:\n        /* \"#utility.yul\":44:51   */\n      0x00\n        /* \"#utility.yul\":73:78   */\n      dup2\n        /* \"#utility.yul\":62:78   */\n      swap1\n      pop\n        /* \"#utility.yul\":7:84   */\n      swap2\n      swap1\n      pop\n      jump\t// out\n        /* \"#utility.yul\":90:208   */\n    tag_237:\n        /* \"#utility.yul\":177:201   */\n      tag_281\n        /* \"#utility.yul\":195:200   */\n      dup2\n        /* \"#utility.yul\":177:201   */\n      tag_236\n      jump\t// in\n    tag_281:\n        /* \"#utility.yul\":172:175   */\n      dup3\n        /* \"#utility.yul\":165:202   */\n      mstore\n        /* \"#utility.yul\":90:208   */\n      pop\n      pop\n      jump\t// out\n        /* \"#utility.yul\":214:546   */\n    tag_18:\n        /* \"#utility.yul\":335:339   */\n      0x00\n        /* \"#utility.yul\":373:375   */\n      0x40\n        /* \"#utility.yul\":362:371   */\n      dup3\n        /* \"#utility.yul\":358:376   */\n      add\n        /* \"#utility.yul\":350:376   */\n      swap1\n      pop\n        /* \"#utility.yul\":386:457   */\n      tag_283\n        /* \"#utility.yul\":454:455   */\n      0x00\n        /* \"#utility.yul\":443:452   */\n      dup4\n        /* \"#utility.yul\":439:456   */\n      add\n        /* \"#utility.yul\":430:436   */\n      dup6\n        /* \"#utility.yul\":386:457   */\n      tag_237\n      jump\t// in\n    tag_283:\n        /* \"#utility.yul\":467:539   */\n      tag_284\n        /* \"#utility.yul\":535:537   */\n      0x20\n        /* \"#utility.yul\":524:533   */\n      dup4\n        /* \"#utility.yul\":520:538   */\n      add\n        /* \"#utility.yul\":511:517   */\n      dup5\n        /* \"#utility.yul\":467:539   */\n      tag_237\n      jump\t// in\n    tag_284:\n        /* \"#utility.yul\":214:546   */\n      swap4\n      swap3\n      pop\n      pop\n      pop\n      jump\t// out\n        /* \"#utility.yul\":552:678   */\n    tag_238:\n        /* \"#utility.yul\":589:596   */\n      0x00\n        /* \"#utility.yul\":629:671   */\n      0xffffffffffffffffffffffffffffffffffffffff\n        /* \"#utility.yul\":622:627   */\n      dup3\n        /* \"#utility.yul\":618:672   */\n      and\n        /* \"#utility.yul\":607:672   */\n      swap1\n      pop\n        /* \"#utility.yul\":552:678   */\n      swap2\n      swap1\n      pop\n      jump\t// out\n        /* \"#utility.yul\":684:744   */\n    tag_239:\n        /* \"#utility.yul\":712:715   */\n      0x00\n        /* \"#utility.yul\":733:738   */\n      dup2\n        /* \"#utility.yul\":726:738   */\n      swap1\n      pop\n        /* \"#utility.yul\":684:744   */\n      swap2\n      swap1\n      pop\n      jump\t// out\n        /* \"#utility.yul\":750:892   */\n    tag_240:\n        /* \"#utility.yul\":800:809   */\n      0x00\n        /* \"#utility.yul\":833:886   */\n      tag_288\n        /* \"#utility.yul\":851:885   */\n      tag_289\n        /* \"#utility.yul\":860:884   */\n      tag_290\n        /* \"#utility.yul\":878:883   */\n      dup5\n        /* \"#utility.yul\":860:884   */\n      tag_238\n      jump\t// in\n    tag_290:\n        /* \"#utility.yul\":851:885   */\n      tag_239\n      jump\t// in\n    tag_289:\n        /* \"#utility.yul\":833:886   */\n      tag_238\n      jump\t// in\n    tag_288:\n        /* \"#utility.yul\":820:886   */\n      swap1\n      pop\n        /* \"#utility.yul\":750:892   */\n      swap2\n      swap1\n      pop\n      jump\t// out\n        /* \"#utility.yul\":898:1024   */\n    tag_241:\n        /* \"#utility.yul\":948:957   */\n      0x00\n        /* \"#utility.yul\":981:1018   */\n      tag_292\n        /* \"#utility.yul\":1012:1017   */\n      dup3\n        /* \"#utility.yul\":981:1018   */\n      tag_240\n      jump\t// in\n    tag_292:\n        /* \"#utility.yul\":968:1018   */\n      swap1\n      pop\n        /* \"#utility.yul\":898:1024   */\n      swap2\n      swap1\n      pop\n      jump\t// out\n        /* \"#utility.yul\":1030:1170   */\n    tag_242:\n        /* \"#utility.yul\":1094:1103   */\n      0x00\n        /* \"#utility.yul\":1127:1164   */\n      tag_294\n        /* \"#utility.yul\":1158:1163   */\n      dup3\n        /* \"#utility.yul\":1127:1164   */\n      tag_241\n      jump\t// in\n    tag_294:\n        /* \"#utility.yul\":1114:1164   */\n      swap1\n      pop\n        /* \"#utility.yul\":1030:1170   */\n      swap2\n      swap1\n      pop\n      jump\t// out\n        /* \"#utility.yul\":1176:1335   */\n    tag_243:\n        /* \"#utility.yul\":1277:1328   */\n      tag_296\n        /* \"#utility.yul\":1322:1327   */\n      dup2\n        /* \"#utility.yul\":1277:1328   */\n      tag_242\n      jump\t// in\n    tag_296:\n        /* \"#utility.yul\":1272:1275   */\n      dup3\n        /* \"#utility.yul\":1265:1329   */\n      mstore\n        /* \"#utility.yul\":1176:1335   */\n      pop\n      pop\n      jump\t// out\n        /* \"#utility.yul\":1341:1591   */\n    tag_22:\n        /* \"#utility.yul\":1448:1452   */\n      0x00\n        /* \"#utility.yul\":1486:1488   */\n      0x20\n        /* \"#utility.yul\":1475:1484   */\n      dup3\n        /* \"#utility.yul\":1471:1489   */\n      add\n        /* \"#utility.yul\":1463:1489   */\n      swap1\n      pop\n        /* \"#utility.yul\":1499:1584   */\n      tag_298\n        /* \"#utility.yul\":1581:1582   */\n      0x00\n        /* \"#utility.yul\":1570:1579   */\n      dup4\n        /* \"#utility.yul\":1566:1583   */\n      add\n        /* \"#utility.yul\":1557:1563   */\n      dup5\n        /* \"#utility.yul\":1499:1584   */\n      tag_243\n      jump\t// in\n    tag_298:\n        /* \"#utility.yul\":1341:1591   */\n      swap3\n      swap2\n      pop\n      pop\n      jump\t// out\n        /* \"#utility.yul\":1678:1795   */\n    tag_245:\n        /* \"#utility.yul\":1787:1788   */\n      0x00\n        /* \"#utility.yul\":1784:1785   */\n      dup1\n        /* \"#utility.yul\":1777:1789   */\n      revert\n        /* \"#utility.yul\":1924:2020   */\n    tag_247:\n        /* \"#utility.yul\":1961:1968   */\n      0x00\n        /* \"#utility.yul\":1990:2014   */\n      tag_303\n        /* \"#utility.yul\":2008:2013   */\n      dup3\n        /* \"#utility.yul\":1990:2014   */\n      tag_238\n      jump\t// in\n    tag_303:\n        /* \"#utility.yul\":1979:2014   */\n      swap1\n      pop\n        /* \"#utility.yul\":1924:2020   */\n      swap2\n      swap1\n      pop\n      jump\t// out\n        /* \"#utility.yul\":2026:2148   */\n    tag_248:\n        /* \"#utility.yul\":2099:2123   */\n      tag_305\n        /* \"#utility.yul\":2117:2122   */\n      dup2\n        /* \"#utility.yul\":2099:2123   */\n      tag_247\n      jump\t// in\n    tag_305:\n        /* \"#utility.yul\":2092:2097   */\n      dup2\n        /* \"#utility.yul\":2089:2124   */\n      eq\n        /* \"#utility.yul\":2079:2142   */\n      tag_306\n      jumpi\n        /* \"#utility.yul\":2138:2139   */\n      0x00\n        /* \"#utility.yul\":2135:2136   */\n      dup1\n        /* \"#utility.yul\":2128:2140   */\n      revert\n        /* \"#utility.yul\":2079:2142   */\n    tag_306:\n        /* \"#utility.yul\":2026:2148   */\n      pop\n      jump\t// out\n        /* \"#utility.yul\":2154:2293   */\n    tag_249:\n        /* \"#utility.yul\":2200:2205   */\n      0x00\n        /* \"#utility.yul\":2238:2244   */\n      dup2\n        /* \"#utility.yul\":2225:2245   */\n      calldataload\n        /* \"#utility.yul\":2216:2245   */\n      swap1\n      pop\n        /* \"#utility.yul\":2254:2287   */\n      tag_308\n        /* \"#utility.yul\":2281:2286   */\n      dup2\n        /* \"#utility.yul\":2254:2287   */\n      tag_248\n      jump\t// in\n    tag_308:\n        /* \"#utility.yul\":2154:2293   */\n      swap3\n      swap2\n      pop\n      pop\n      jump\t// out\n        /* \"#utility.yul\":2299:2628   */\n    tag_25:\n        /* \"#utility.yul\":2358:2364   */\n      0x00\n        /* \"#utility.yul\":2407:2409   */\n      0x20\n        /* \"#utility.yul\":2395:2404   */\n      dup3\n        /* \"#utility.yul\":2386:2393   */\n      dup5\n        /* \"#utility.yul\":2382:2405   */\n      sub\n        /* \"#utility.yul\":2378:2410   */\n      slt\n        /* \"#utility.yul\":2375:2494   */\n      iszero\n      tag_310\n      jumpi\n        /* \"#utility.yul\":2413:2492   */\n      tag_311\n      tag_245\n      jump\t// in\n    tag_311:\n        /* \"#utility.yul\":2375:2494   */\n    tag_310:\n        /* \"#utility.yul\":2533:2534   */\n      0x00\n        /* \"#utility.yul\":2558:2611   */\n      tag_312\n        /* \"#utility.yul\":2603:2610   */\n      dup5\n        /* \"#utility.yul\":2594:2600   */\n      dup3\n        /* \"#utility.yul\":2583:2592   */\n      dup6\n        /* \"#utility.yul\":2579:2601   */\n      add\n        /* \"#utility.yul\":2558:2611   */\n      tag_249\n      jump\t// in\n    tag_312:\n        /* \"#utility.yul\":2548:2611   */\n      swap2\n      pop\n        /* \"#utility.yul\":2504:2621   */\n      pop\n        /* \"#utility.yul\":2299:2628   */\n      swap3\n      swap2\n      pop\n      pop\n      jump\t// out\n        /* \"#utility.yul\":2634:2856   */\n    tag_28:\n        /* \"#utility.yul\":2727:2731   */\n      0x00\n        /* \"#utility.yul\":2765:2767   */\n      0x20\n        /* \"#utility.yul\":2754:2763   */\n      dup3\n        /* \"#utility.yul\":2750:2768   */\n      add\n        /* \"#utility.yul\":2742:2768   */\n      swap1\n      pop\n        /* \"#utility.yul\":2778:2849   */\n      tag_314\n        /* \"#utility.yul\":2846:2847   */\n      0x00\n        /* \"#utility.yul\":2835:2844   */\n      dup4\n        /* \"#utility.yul\":2831:2848   */\n      add\n        /* \"#utility.yul\":2822:2828   */\n      dup5\n        /* \"#utility.yul\":2778:2849   */\n      tag_237\n      jump\t// in\n    tag_314:\n        /* \"#utility.yul\":2634:2856   */\n      swap3\n      swap2\n      pop\n      pop\n      jump\t// out\n        /* \"#utility.yul\":2862:2984   */\n    tag_250:\n        /* \"#utility.yul\":2935:2959   */\n      tag_316\n        /* \"#utility.yul\":2953:2958   */\n      dup2\n        /* \"#utility.yul\":2935:2959   */\n      tag_236\n      jump\t// in\n    tag_316:\n        /* \"#utility.yul\":2928:2933   */\n      dup2\n        /* \"#utility.yul\":2925:2960   */\n      eq\n        /* \"#utility.yul\":2915:2978   */\n      tag_317\n      jumpi\n        /* \"#utility.yul\":2974:2975   */\n      0x00\n        /* \"#utility.yul\":2971:2972   */\n      dup1\n        /* \"#utility.yul\":2964:2976   */\n      revert\n        /* \"#utility.yul\":2915:2978   */\n    tag_317:\n        /* \"#utility.yul\":2862:2984   */\n      pop\n      jump\t// out\n        /* \"#utility.yul\":2990:3129   */\n    tag_251:\n        /* \"#utility.yul\":3036:3041   */\n      0x00\n        /* \"#utility.yul\":3074:3080   */\n      dup2\n        /* \"#utility.yul\":3061:3081   */\n      calldataload\n        /* \"#utility.yul\":3052:3081   */\n      swap1\n      pop\n        /* \"#utility.yul\":3090:3123   */\n      tag_319\n        /* \"#utility.yul\":3117:3122   */\n      dup2\n        /* \"#utility.yul\":3090:3123   */\n      tag_250\n      jump\t// in\n    tag_319:\n        /* \"#utility.yul\":2990:3129   */\n      swap3\n      swap2\n      pop\n      pop\n      jump\t// out\n        /* \"#utility.yul\":3135:3464   */\n    tag_36:\n        /* \"#utility.yul\":3194:3200   */\n      0x00\n        /* \"#utility.yul\":3243:3245   */\n      0x20\n        /* \"#utility.yul\":3231:3240   */\n      dup3\n        /* \"#utility.yul\":3222:3229   */\n      dup5\n        /* \"#utility.yul\":3218:3241   */\n      sub\n        /* \"#utility.yul\":3214:3246   */\n      slt\n        /* \"#utility.yul\":3211:3330   */\n      iszero\n      tag_321\n      jumpi\n        /* \"#utility.yul\":3249:3328   */\n      tag_322\n      tag_245\n      jump\t// in\n    tag_322:\n        /* \"#utility.yul\":3211:3330   */\n    tag_321:\n        /* \"#utility.yul\":3369:3370   */\n      0x00\n        /* \"#utility.yul\":3394:3447   */\n      tag_323\n        /* \"#utility.yul\":3439:3446   */\n      dup5\n        /* \"#utility.yul\":3430:3436   */\n      dup3\n        /* \"#utility.yul\":3419:3428   */\n      dup6\n        /* \"#utility.yul\":3415:3437   */\n      add\n        /* \"#utility.yul\":3394:3447   */\n      tag_251\n      jump\t// in\n    tag_323:\n        /* \"#utility.yul\":3384:3447   */\n      swap2\n      pop\n        /* \"#utility.yul\":3340:3457   */\n      pop\n        /* \"#utility.yul\":3135:3464   */\n      swap3\n      swap2\n      pop\n      pop\n      jump\t// out\n        /* \"#utility.yul\":3470:3588   */\n    tag_252:\n        /* \"#utility.yul\":3557:3581   */\n      tag_325\n        /* \"#utility.yul\":3575:3580   */\n      dup2\n        /* \"#utility.yul\":3557:3581   */\n      tag_247\n      jump\t// in\n    tag_325:\n        /* \"#utility.yul\":3552:3555   */\n      dup3\n        /* \"#utility.yul\":3545:3582   */\n      mstore\n        /* \"#utility.yul\":3470:3588   */\n      pop\n      pop\n      jump\t// out\n        /* \"#utility.yul\":3594:3816   */\n    tag_42:\n        /* \"#utility.yul\":3687:3691   */\n      0x00\n        /* \"#utility.yul\":3725:3727   */\n      0x20\n        /* \"#utility.yul\":3714:3723   */\n      dup3\n        /* \"#utility.yul\":3710:3728   */\n      add\n        /* \"#utility.yul\":3702:3728   */\n      swap1\n      pop\n        /* \"#utility.yul\":3738:3809   */\n      tag_327\n        /* \"#utility.yul\":3806:3807   */\n      0x00\n        /* \"#utility.yul\":3795:3804   */\n      dup4\n        /* \"#utility.yul\":3791:3808   */\n      add\n        /* \"#utility.yul\":3782:3788   */\n      dup5\n        /* \"#utility.yul\":3738:3809   */\n      tag_252\n      jump\t// in\n    tag_327:\n        /* \"#utility.yul\":3594:3816   */\n      swap3\n      swap2\n      pop\n      pop\n      jump\t// out\n        /* \"#utility.yul\":3822:4296   */\n    tag_45:\n        /* \"#utility.yul\":3890:3896   */\n      0x00\n        /* \"#utility.yul\":3898:3904   */\n      dup1\n        /* \"#utility.yul\":3947:3949   */\n      0x40\n        /* \"#utility.yul\":3935:3944   */\n      dup4\n        /* \"#utility.yul\":3926:3933   */\n      dup6\n        /* \"#utility.yul\":3922:3945   */\n      sub\n        /* \"#utility.yul\":3918:3950   */\n      slt\n        /* \"#utility.yul\":3915:4034   */\n      iszero\n      tag_329\n      jumpi\n        /* \"#utility.yul\":3953:4032   */\n      tag_330\n      tag_245\n      jump\t// in\n    tag_330:\n        /* \"#utility.yul\":3915:4034   */\n    tag_329:\n        /* \"#utility.yul\":4073:4074   */\n      0x00\n        /* \"#utility.yul\":4098:4151   */\n      tag_331\n        /* \"#utility.yul\":4143:4150   */\n      dup6\n        /* \"#utility.yul\":4134:4140   */\n      dup3\n        /* \"#utility.yul\":4123:4132   */\n      dup7\n        /* \"#utility.yul\":4119:4141   */\n      add\n        /* \"#utility.yul\":4098:4151   */\n      tag_251\n      jump\t// in\n    tag_331:\n        /* \"#utility.yul\":4088:4151   */\n      swap3\n      pop\n        /* \"#utility.yul\":4044:4161   */\n      pop\n        /* \"#utility.yul\":4200:4202   */\n      0x20\n        /* \"#utility.yul\":4226:4279   */\n      tag_332\n        /* \"#utility.yul\":4271:4278   */\n      dup6\n        /* \"#utility.yul\":4262:4268   */\n      dup3\n        /* \"#utility.yul\":4251:4260   */\n      dup7\n        /* \"#utility.yul\":4247:4269   */\n      add\n        /* \"#utility.yul\":4226:4279   */\n      tag_251\n      jump\t// in\n    tag_332:\n        /* \"#utility.yul\":4216:4279   */\n      swap2\n      pop\n        /* \"#utility.yul\":4171:4289   */\n      pop\n        /* \"#utility.yul\":3822:4296   */\n      swap3\n      pop\n      swap3\n      swap1\n      pop\n      jump\t// out\n        /* \"#utility.yul\":4302:4445   */\n    tag_253:\n        /* \"#utility.yul\":4359:4364   */\n      0x00\n        /* \"#utility.yul\":4390:4396   */\n      dup2\n        /* \"#utility.yul\":4384:4397   */\n      mload\n        /* \"#utility.yul\":4375:4397   */\n      swap1\n      pop\n        /* \"#utility.yul\":4406:4439   */\n      tag_334\n        /* \"#utility.yul\":4433:4438   */\n      dup2\n        /* \"#utility.yul\":4406:4439   */\n      tag_250\n      jump\t// in\n    tag_334:\n        /* \"#utility.yul\":4302:4445   */\n      swap3\n      swap2\n      pop\n      pop\n      jump\t// out\n        /* \"#utility.yul\":4451:4802   */\n    tag_62:\n        /* \"#utility.yul\":4521:4527   */\n      0x00\n        /* \"#utility.yul\":4570:4572   */\n      0x20\n        /* \"#utility.yul\":4558:4567   */\n      dup3\n        /* \"#utility.yul\":4549:4556   */\n      dup5\n        /* \"#utility.yul\":4545:4568   */\n      sub\n        /* \"#utility.yul\":4541:4573   */\n      slt\n        /* \"#utility.yul\":4538:4657   */\n      iszero\n      tag_336\n      jumpi\n        /* \"#utility.yul\":4576:4655   */\n      tag_337\n      tag_245\n      jump\t// in\n    tag_337:\n        /* \"#utility.yul\":4538:4657   */\n    tag_336:\n        /* \"#utility.yul\":4696:4697   */\n      0x00\n        /* \"#utility.yul\":4721:4785   */\n      tag_338\n        /* \"#utility.yul\":4777:4784   */\n      dup5\n        /* \"#utility.yul\":4768:4774   */\n      dup3\n        /* \"#utility.yul\":4757:4766   */\n      dup6\n        /* \"#utility.yul\":4753:4775   */\n      add\n        /* \"#utility.yul\":4721:4785   */\n      tag_253\n      jump\t// in\n    tag_338:\n        /* \"#utility.yul\":4711:4785   */\n      swap2\n      pop\n        /* \"#utility.yul\":4667:4795   */\n      pop\n        /* \"#utility.yul\":4451:4802   */\n      swap3\n      swap2\n      pop\n      pop\n      jump\t// out\n        /* \"#utility.yul\":4808:4977   */\n    tag_254:\n        /* \"#utility.yul\":4892:4903   */\n      0x00\n        /* \"#utility.yul\":4926:4932   */\n      dup3\n        /* \"#utility.yul\":4921:4924   */\n      dup3\n        /* \"#utility.yul\":4914:4933   */\n      mstore\n        /* \"#utility.yul\":4966:4970   */\n      0x20\n        /* \"#utility.yul\":4961:4964   */\n      dup3\n        /* \"#utility.yul\":4957:4971   */\n      add\n        /* \"#utility.yul\":4942:4971   */\n      swap1\n      pop\n        /* \"#utility.yul\":4808:4977   */\n      swap3\n      swap2\n      pop\n      pop\n      jump\t// out\n        /* \"#utility.yul\":4983:5154   */\n    tag_255:\n        /* \"#utility.yul\":5123:5146   */\n      0x496e76616c696420746f6b656e20616464726573730000000000000000000000\n        /* \"#utility.yul\":5119:5120   */\n      0x00\n        /* \"#utility.yul\":5111:5117   */\n      dup3\n        /* \"#utility.yul\":5107:5121   */\n      add\n        /* \"#utility.yul\":5100:5147   */\n      mstore\n        /* \"#utility.yul\":4983:5154   */\n      pop\n      jump\t// out\n        /* \"#utility.yul\":5160:5526   */\n    tag_256:\n        /* \"#utility.yul\":5302:5305   */\n      0x00\n        /* \"#utility.yul\":5323:5390   */\n      tag_342\n        /* \"#utility.yul\":5387:5389   */\n      0x15\n        /* \"#utility.yul\":5382:5385   */\n      dup4\n        /* \"#utility.yul\":5323:5390   */\n      tag_254\n      jump\t// in\n    tag_342:\n        /* \"#utility.yul\":5316:5390   */\n      swap2\n      pop\n        /* \"#utility.yul\":5399:5492   */\n      tag_343\n        /* \"#utility.yul\":5488:5491   */\n      dup3\n        /* \"#utility.yul\":5399:5492   */\n      tag_255\n      jump\t// in\n    tag_343:\n        /* \"#utility.yul\":5517:5519   */\n      0x20\n        /* \"#utility.yul\":5512:5515   */\n      dup3\n        /* \"#utility.yul\":5508:5520   */\n      add\n        /* \"#utility.yul\":5501:5520   */\n      swap1\n      pop\n        /* \"#utility.yul\":5160:5526   */\n      swap2\n      swap1\n      pop\n      jump\t// out\n        /* \"#utility.yul\":5532:5951   */\n    tag_71:\n        /* \"#utility.yul\":5698:5702   */\n      0x00\n        /* \"#utility.yul\":5736:5738   */\n      0x20\n        /* \"#utility.yul\":5725:5734   */\n      dup3\n        /* \"#utility.yul\":5721:5739   */\n      add\n        /* \"#utility.yul\":5713:5739   */\n      swap1\n      pop\n        /* \"#utility.yul\":5785:5794   */\n      dup2\n        /* \"#utility.yul\":5779:5783   */\n      dup2\n        /* \"#utility.yul\":5775:5795   */\n      sub\n        /* \"#utility.yul\":5771:5772   */\n      0x00\n        /* \"#utility.yul\":5760:5769   */\n      dup4\n        /* \"#utility.yul\":5756:5773   */\n      add\n        /* \"#utility.yul\":5749:5796   */\n      mstore\n        /* \"#utility.yul\":5813:5944   */\n      tag_345\n        /* \"#utility.yul\":5939:5943   */\n      dup2\n        /* \"#utility.yul\":5813:5944   */\n      tag_256\n      jump\t// in\n    tag_345:\n        /* \"#utility.yul\":5805:5944   */\n      swap1\n      pop\n        /* \"#utility.yul\":5532:5951   */\n      swap2\n      swap1\n      pop\n      jump\t// out\n        /* \"#utility.yul\":5957:6121   */\n    tag_257:\n        /* \"#utility.yul\":6097:6113   */\n      0x456d707479207265736572766573000000000000000000000000000000000000\n        /* \"#utility.yul\":6093:6094   */\n      0x00\n        /* \"#utility.yul\":6085:6091   */\n      dup3\n        /* \"#utility.yul\":6081:6095   */\n      add\n        /* \"#utility.yul\":6074:6114   */\n      mstore\n        /* \"#utility.yul\":5957:6121   */\n      pop\n      jump\t// out\n        /* \"#utility.yul\":6127:6493   */\n    tag_258:\n        /* \"#utility.yul\":6269:6272   */\n      0x00\n        /* \"#utility.yul\":6290:6357   */\n      tag_348\n        /* \"#utility.yul\":6354:6356   */\n      0x0e\n        /* \"#utility.yul\":6349:6352   */\n      dup4\n        /* \"#utility.yul\":6290:6357   */\n      tag_254\n      jump\t// in\n    tag_348:\n        /* \"#utility.yul\":6283:6357   */\n      swap2\n      pop\n        /* \"#utility.yul\":6366:6459   */\n      tag_349\n        /* \"#utility.yul\":6455:6458   */\n      dup3\n        /* \"#utility.yul\":6366:6459   */\n      tag_257\n      jump\t// in\n    tag_349:\n        /* \"#utility.yul\":6484:6486   */\n      0x20\n        /* \"#utility.yul\":6479:6482   */\n      dup3\n        /* \"#utility.yul\":6475:6487   */\n      add\n        /* \"#utility.yul\":6468:6487   */\n      swap1\n      pop\n        /* \"#utility.yul\":6127:6493   */\n      swap2\n      swap1\n      pop\n      jump\t// out\n        /* \"#utility.yul\":6499:6918   */\n    tag_76:\n        /* \"#utility.yul\":6665:6669   */\n      0x00\n        /* \"#utility.yul\":6703:6705   */\n      0x20\n        /* \"#utility.yul\":6692:6701   */\n      dup3\n        /* \"#utility.yul\":6688:6706   */\n      add\n        /* \"#utility.yul\":6680:6706   */\n      swap1\n      pop\n        /* \"#utility.yul\":6752:6761   */\n      dup2\n        /* \"#utility.yul\":6746:6750   */\n      dup2\n        /* \"#utility.yul\":6742:6762   */\n      sub\n        /* \"#utility.yul\":6738:6739   */\n      0x00\n        /* \"#utility.yul\":6727:6736   */\n      dup4\n        /* \"#utility.yul\":6723:6740   */\n      add\n        /* \"#utility.yul\":6716:6763   */\n      mstore\n        /* \"#utility.yul\":6780:6911   */\n      tag_351\n        /* \"#utility.yul\":6906:6910   */\n      dup2\n        /* \"#utility.yul\":6780:6911   */\n      tag_258\n      jump\t// in\n    tag_351:\n        /* \"#utility.yul\":6772:6911   */\n      swap1\n      pop\n        /* \"#utility.yul\":6499:6918   */\n      swap2\n      swap1\n      pop\n      jump\t// out\n        /* \"#utility.yul\":6924:7104   */\n    tag_259:\n        /* \"#utility.yul\":6972:7049   */\n      0x4e487b7100000000000000000000000000000000000000000000000000000000\n        /* \"#utility.yul\":6969:6970   */\n      0x00\n        /* \"#utility.yul\":6962:7050   */\n      mstore\n        /* \"#utility.yul\":7069:7073   */\n      0x11\n        /* \"#utility.yul\":7066:7067   */\n      0x04\n        /* \"#utility.yul\":7059:7074   */\n      mstore\n        /* \"#utility.yul\":7093:7097   */\n      0x24\n        /* \"#utility.yul\":7090:7091   */\n      0x00\n        /* \"#utility.yul\":7083:7098   */\n      revert\n        /* \"#utility.yul\":7110:7520   */\n    tag_79:\n        /* \"#utility.yul\":7150:7157   */\n      0x00\n        /* \"#utility.yul\":7173:7193   */\n      tag_354\n        /* \"#utility.yul\":7191:7192   */\n      dup3\n        /* \"#utility.yul\":7173:7193   */\n      tag_236\n      jump\t// in\n    tag_354:\n        /* \"#utility.yul\":7168:7193   */\n      swap2\n      pop\n        /* \"#utility.yul\":7207:7227   */\n      tag_355\n        /* \"#utility.yul\":7225:7226   */\n      dup4\n        /* \"#utility.yul\":7207:7227   */\n      tag_236\n      jump\t// in\n    tag_355:\n        /* \"#utility.yul\":7202:7227   */\n      swap3\n      pop\n        /* \"#utility.yul\":7262:7263   */\n      dup3\n        /* \"#utility.yul\":7259:7260   */\n      dup3\n        /* \"#utility.yul\":7255:7264   */\n      mul\n        /* \"#utility.yul\":7284:7314   */\n      tag_356\n        /* \"#utility.yul\":7302:7313   */\n      dup2\n        /* \"#utility.yul\":7284:7314   */\n      tag_236\n      jump\t// in\n    tag_356:\n        /* \"#utility.yul\":7273:7314   */\n      swap2\n      pop\n        /* \"#utility.yul\":7463:7464   */\n      dup3\n        /* \"#utility.yul\":7454:7461   */\n      dup3\n        /* \"#utility.yul\":7450:7465   */\n      div\n        /* \"#utility.yul\":7447:7448   */\n      dup5\n        /* \"#utility.yul\":7444:7466   */\n      eq\n        /* \"#utility.yul\":7424:7425   */\n      dup4\n        /* \"#utility.yul\":7417:7426   */\n      iszero\n        /* \"#utility.yul\":7397:7480   */\n      or\n        /* \"#utility.yul\":7374:7513   */\n      tag_357\n      jumpi\n        /* \"#utility.yul\":7493:7511   */\n      tag_358\n      tag_259\n      jump\t// in\n    tag_358:\n        /* \"#utility.yul\":7374:7513   */\n    tag_357:\n        /* \"#utility.yul\":7158:7520   */\n      pop\n        /* \"#utility.yul\":7110:7520   */\n      swap3\n      swap2\n      pop\n      pop\n      jump\t// out\n        /* \"#utility.yul\":7526:7706   */\n    tag_260:\n        /* \"#utility.yul\":7574:7651   */\n      0x4e487b7100000000000000000000000000000000000000000000000000000000\n        /* \"#utility.yul\":7571:7572   */\n      0x00\n        /* \"#utility.yul\":7564:7652   */\n      mstore\n        /* \"#utility.yul\":7671:7675   */\n      0x12\n        /* \"#utility.yul\":7668:7669   */\n      0x04\n        /* \"#utility.yul\":7661:7676   */\n      mstore\n        /* \"#utility.yul\":7695:7699   */\n      0x24\n        /* \"#utility.yul\":7692:7693   */\n      0x00\n        /* \"#utility.yul\":7685:7700   */\n      revert\n        /* \"#utility.yul\":7712:7897   */\n    tag_81:\n        /* \"#utility.yul\":7752:7753   */\n      0x00\n        /* \"#utility.yul\":7769:7789   */\n      tag_361\n        /* \"#utility.yul\":7787:7788   */\n      dup3\n        /* \"#utility.yul\":7769:7789   */\n      tag_236\n      jump\t// in\n    tag_361:\n        /* \"#utility.yul\":7764:7789   */\n      swap2\n      pop\n        /* \"#utility.yul\":7803:7823   */\n      tag_362\n        /* \"#utility.yul\":7821:7822   */\n      dup4\n        /* \"#utility.yul\":7803:7823   */\n      tag_236\n      jump\t// in\n    tag_362:\n        /* \"#utility.yul\":7798:7823   */\n      swap3\n      pop\n        /* \"#utility.yul\":7842:7843   */\n      dup3\n        /* \"#utility.yul\":7832:7867   */\n      tag_363\n      jumpi\n        /* \"#utility.yul\":7847:7865   */\n      tag_364\n      tag_260\n      jump\t// in\n    tag_364:\n        /* \"#utility.yul\":7832:7867   */\n    tag_363:\n        /* \"#utility.yul\":7889:7890   */\n      dup3\n        /* \"#utility.yul\":7886:7887   */\n      dup3\n        /* \"#utility.yul\":7882:7891   */\n      div\n        /* \"#utility.yul\":7877:7891   */\n      swap1\n      pop\n        /* \"#utility.yul\":7712:7897   */\n      swap3\n      swap2\n      pop\n      pop\n      jump\t// out\n        /* \"#utility.yul\":7903:8082   */\n    tag_261:\n        /* \"#utility.yul\":8043:8074   */\n      0x416d6f756e74206d7573742062652067726561746572207468616e2030000000\n        /* \"#utility.yul\":8039:8040   */\n      0x00\n        /* \"#utility.yul\":8031:8037   */\n      dup3\n        /* \"#utility.yul\":8027:8041   */\n      add\n        /* \"#utility.yul\":8020:8075   */\n      mstore\n        /* \"#utility.yul\":7903:8082   */\n      pop\n      jump\t// out\n        /* \"#utility.yul\":8088:8454   */\n    tag_262:\n        /* \"#utility.yul\":8230:8233   */\n      0x00\n        /* \"#utility.yul\":8251:8318   */\n      tag_367\n        /* \"#utility.yul\":8315:8317   */\n      0x1d\n        /* \"#utility.yul\":8310:8313   */\n      dup4\n        /* \"#utility.yul\":8251:8318   */\n      tag_254\n      jump\t// in\n    tag_367:\n        /* \"#utility.yul\":8244:8318   */\n      swap2\n      pop\n        /* \"#utility.yul\":8327:8420   */\n      tag_368\n        /* \"#utility.yul\":8416:8419   */\n      dup3\n        /* \"#utility.yul\":8327:8420   */\n      tag_261\n      jump\t// in\n    tag_368:\n        /* \"#utility.yul\":8445:8447   */\n      0x20\n        /* \"#utility.yul\":8440:8443   */\n      dup3\n        /* \"#utility.yul\":8436:8448   */\n      add\n        /* \"#utility.yul\":8429:8448   */\n      swap1\n      pop\n        /* \"#utility.yul\":8088:8454   */\n      swap2\n      swap1\n      pop\n      jump\t// out\n        /* \"#utility.yul\":8460:8879   */\n    tag_97:\n        /* \"#utility.yul\":8626:8630   */\n      0x00\n        /* \"#utility.yul\":8664:8666   */\n      0x20\n        /* \"#utility.yul\":8653:8662   */\n      dup3\n        /* \"#utility.yul\":8649:8667   */\n      add\n        /* \"#utility.yul\":8641:8667   */\n      swap1\n      pop\n        /* \"#utility.yul\":8713:8722   */\n      dup2\n        /* \"#utility.yul\":8707:8711   */\n      dup2\n        /* \"#utility.yul\":8703:8723   */\n      sub\n        /* \"#utility.yul\":8699:8700   */\n      0x00\n        /* \"#utility.yul\":8688:8697   */\n      dup4\n        /* \"#utility.yul\":8684:8701   */\n      add\n        /* \"#utility.yul\":8677:8724   */\n      mstore\n        /* \"#utility.yul\":8741:8872   */\n      tag_370\n        /* \"#utility.yul\":8867:8871   */\n      dup2\n        /* \"#utility.yul\":8741:8872   */\n      tag_262\n      jump\t// in\n    tag_370:\n        /* \"#utility.yul\":8733:8872   */\n      swap1\n      pop\n        /* \"#utility.yul\":8460:8879   */\n      swap2\n      swap1\n      pop\n      jump\t// out\n        /* \"#utility.yul\":8885:9057   */\n    tag_263:\n        /* \"#utility.yul\":9025:9049   */\n      0x496e73756666696369656e74206c697175696469747900000000000000000000\n        /* \"#utility.yul\":9021:9022   */\n      0x00\n        /* \"#utility.yul\":9013:9019   */\n      dup3\n        /* \"#utility.yul\":9009:9023   */\n      add\n        /* \"#utility.yul\":9002:9050   */\n      mstore\n        /* \"#utility.yul\":8885:9057   */\n      pop\n      jump\t// out\n        /* \"#utility.yul\":9063:9429   */\n    tag_264:\n        /* \"#utility.yul\":9205:9208   */\n      0x00\n        /* \"#utility.yul\":9226:9293   */\n      tag_373\n        /* \"#utility.yul\":9290:9292   */\n      0x16\n        /* \"#utility.yul\":9285:9288   */\n      dup4\n        /* \"#utility.yul\":9226:9293   */\n      tag_254\n      jump\t// in\n    tag_373:\n        /* \"#utility.yul\":9219:9293   */\n      swap2\n      pop\n        /* \"#utility.yul\":9302:9395   */\n      tag_374\n        /* \"#utility.yul\":9391:9394   */\n      dup3\n        /* \"#utility.yul\":9302:9395   */\n      tag_263\n      jump\t// in\n    tag_374:\n        /* \"#utility.yul\":9420:9422   */\n      0x20\n        /* \"#utility.yul\":9415:9418   */\n      dup3\n        /* \"#utility.yul\":9411:9423   */\n      add\n        /* \"#utility.yul\":9404:9423   */\n      swap1\n      pop\n        /* \"#utility.yul\":9063:9429   */\n      swap2\n      swap1\n      pop\n      jump\t// out\n        /* \"#utility.yul\":9435:9854   */\n    tag_102:\n        /* \"#utility.yul\":9601:9605   */\n      0x00\n        /* \"#utility.yul\":9639:9641   */\n      0x20\n        /* \"#utility.yul\":9628:9637   */\n      dup3\n        /* \"#utility.yul\":9624:9642   */\n      add\n        /* \"#utility.yul\":9616:9642   */\n      swap1\n      pop\n        /* \"#utility.yul\":9688:9697   */\n      dup2\n        /* \"#utility.yul\":9682:9686   */\n      dup2\n        /* \"#utility.yul\":9678:9698   */\n      sub\n        /* \"#utility.yul\":9674:9675   */\n      0x00\n        /* \"#utility.yul\":9663:9672   */\n      dup4\n        /* \"#utility.yul\":9659:9676   */\n      add\n        /* \"#utility.yul\":9652:9699   */\n      mstore\n        /* \"#utility.yul\":9716:9847   */\n      tag_376\n        /* \"#utility.yul\":9842:9846   */\n      dup2\n        /* \"#utility.yul\":9716:9847   */\n      tag_264\n      jump\t// in\n    tag_376:\n        /* \"#utility.yul\":9708:9847   */\n      swap1\n      pop\n        /* \"#utility.yul\":9435:9854   */\n      swap2\n      swap1\n      pop\n      jump\t// out\n        /* \"#utility.yul\":9860:10051   */\n    tag_104:\n        /* \"#utility.yul\":9900:9903   */\n      0x00\n        /* \"#utility.yul\":9919:9939   */\n      tag_378\n        /* \"#utility.yul\":9937:9938   */\n      dup3\n        /* \"#utility.yul\":9919:9939   */\n      tag_236\n      jump\t// in\n    tag_378:\n        /* \"#utility.yul\":9914:9939   */\n      swap2\n      pop\n        /* \"#utility.yul\":9953:9973   */\n      tag_379\n        /* \"#utility.yul\":9971:9972   */\n      dup4\n        /* \"#utility.yul\":9953:9973   */\n      tag_236\n      jump\t// in\n    tag_379:\n        /* \"#utility.yul\":9948:9973   */\n      swap3\n      pop\n        /* \"#utility.yul\":9996:9997   */\n      dup3\n        /* \"#utility.yul\":9993:9994   */\n      dup3\n        /* \"#utility.yul\":9989:9998   */\n      add\n        /* \"#utility.yul\":9982:9998   */\n      swap1\n      pop\n        /* \"#utility.yul\":10017:10020   */\n      dup1\n        /* \"#utility.yul\":10014:10015   */\n      dup3\n        /* \"#utility.yul\":10011:10021   */\n      gt\n        /* \"#utility.yul\":10008:10044   */\n      iszero\n      tag_380\n      jumpi\n        /* \"#utility.yul\":10024:10042   */\n      tag_381\n      tag_259\n      jump\t// in\n    tag_381:\n        /* \"#utility.yul\":10008:10044   */\n    tag_380:\n        /* \"#utility.yul\":9860:10051   */\n      swap3\n      swap2\n      pop\n      pop\n      jump\t// out\n        /* \"#utility.yul\":10057:10233   */\n    tag_265:\n        /* \"#utility.yul\":10197:10225   */\n      0x496e73756666696369656e74206f757470757420616d6f756e74000000000000\n        /* \"#utility.yul\":10193:10194   */\n      0x00\n        /* \"#utility.yul\":10185:10191   */\n      dup3\n        /* \"#utility.yul\":10181:10195   */\n      add\n        /* \"#utility.yul\":10174:10226   */\n      mstore\n        /* \"#utility.yul\":10057:10233   */\n      pop\n      jump\t// out\n        /* \"#utility.yul\":10239:10605   */\n    tag_266:\n        /* \"#utility.yul\":10381:10384   */\n      0x00\n        /* \"#utility.yul\":10402:10469   */\n      tag_384\n        /* \"#utility.yul\":10466:10468   */\n      0x1a\n        /* \"#utility.yul\":10461:10464   */\n      dup4\n        /* \"#utility.yul\":10402:10469   */\n      tag_254\n      jump\t// in\n    tag_384:\n        /* \"#utility.yul\":10395:10469   */\n      swap2\n      pop\n        /* \"#utility.yul\":10478:10571   */\n      tag_385\n        /* \"#utility.yul\":10567:10570   */\n      dup3\n        /* \"#utility.yul\":10478:10571   */\n      tag_265\n      jump\t// in\n    tag_385:\n        /* \"#utility.yul\":10596:10598   */\n      0x20\n        /* \"#utility.yul\":10591:10594   */\n      dup3\n        /* \"#utility.yul\":10587:10599   */\n      add\n        /* \"#utility.yul\":10580:10599   */\n      swap1\n      pop\n        /* \"#utility.yul\":10239:10605   */\n      swap2\n      swap1\n      pop\n      jump\t// out\n        /* \"#utility.yul\":10611:11030   */\n    tag_109:\n        /* \"#utility.yul\":10777:10781   */\n      0x00\n        /* \"#utility.yul\":10815:10817   */\n      0x20\n        /* \"#utility.yul\":10804:10813   */\n      dup3\n        /* \"#utility.yul\":10800:10818   */\n      add\n        /* \"#utility.yul\":10792:10818   */\n      swap1\n      pop\n        /* \"#utility.yul\":10864:10873   */\n      dup2\n        /* \"#utility.yul\":10858:10862   */\n      dup2\n        /* \"#utility.yul\":10854:10874   */\n      sub\n        /* \"#utility.yul\":10850:10851   */\n      0x00\n        /* \"#utility.yul\":10839:10848   */\n      dup4\n        /* \"#utility.yul\":10835:10852   */\n      add\n        /* \"#utility.yul\":10828:10875   */\n      mstore\n        /* \"#utility.yul\":10892:11023   */\n      tag_387\n        /* \"#utility.yul\":11018:11022   */\n      dup2\n        /* \"#utility.yul\":10892:11023   */\n      tag_266\n      jump\t// in\n    tag_387:\n        /* \"#utility.yul\":10884:11023   */\n      swap1\n      pop\n        /* \"#utility.yul\":10611:11030   */\n      swap2\n      swap1\n      pop\n      jump\t// out\n        /* \"#utility.yul\":11036:11478   */\n    tag_113:\n        /* \"#utility.yul\":11185:11189   */\n      0x00\n        /* \"#utility.yul\":11223:11225   */\n      0x60\n        /* \"#utility.yul\":11212:11221   */\n      dup3\n        /* \"#utility.yul\":11208:11226   */\n      add\n        /* \"#utility.yul\":11200:11226   */\n      swap1\n      pop\n        /* \"#utility.yul\":11236:11307   */\n      tag_389\n        /* \"#utility.yul\":11304:11305   */\n      0x00\n        /* \"#utility.yul\":11293:11302   */\n      dup4\n        /* \"#utility.yul\":11289:11306   */\n      add\n        /* \"#utility.yul\":11280:11286   */\n      dup7\n        /* \"#utility.yul\":11236:11307   */\n      tag_252\n      jump\t// in\n    tag_389:\n        /* \"#utility.yul\":11317:11389   */\n      tag_390\n        /* \"#utility.yul\":11385:11387   */\n      0x20\n        /* \"#utility.yul\":11374:11383   */\n      dup4\n        /* \"#utility.yul\":11370:11388   */\n      add\n        /* \"#utility.yul\":11361:11367   */\n      dup6\n        /* \"#utility.yul\":11317:11389   */\n      tag_252\n      jump\t// in\n    tag_390:\n        /* \"#utility.yul\":11399:11471   */\n      tag_391\n        /* \"#utility.yul\":11467:11469   */\n      0x40\n        /* \"#utility.yul\":11456:11465   */\n      dup4\n        /* \"#utility.yul\":11452:11470   */\n      add\n        /* \"#utility.yul\":11443:11449   */\n      dup5\n        /* \"#utility.yul\":11399:11471   */\n      tag_237\n      jump\t// in\n    tag_391:\n        /* \"#utility.yul\":11036:11478   */\n      swap5\n      swap4\n      pop\n      pop\n      pop\n      pop\n      jump\t// out\n        /* \"#utility.yul\":11484:11574   */\n    tag_267:\n        /* \"#utility.yul\":11518:11525   */\n      0x00\n        /* \"#utility.yul\":11561:11566   */\n      dup2\n        /* \"#utility.yul\":11554:11567   */\n      iszero\n        /* \"#utility.yul\":11547:11568   */\n      iszero\n        /* \"#utility.yul\":11536:11568   */\n      swap1\n      pop\n        /* \"#utility.yul\":11484:11574   */\n      swap2\n      swap1\n      pop\n      jump\t// out\n        /* \"#utility.yul\":11580:11696   */\n    tag_268:\n        /* \"#utility.yul\":11650:11671   */\n      tag_394\n        /* \"#utility.yul\":11665:11670   */\n      dup2\n        /* \"#utility.yul\":11650:11671   */\n      tag_267\n      jump\t// in\n    tag_394:\n        /* \"#utility.yul\":11643:11648   */\n      dup2\n        /* \"#utility.yul\":11640:11672   */\n      eq\n        /* \"#utility.yul\":11630:11690   */\n      tag_395\n      jumpi\n        /* \"#utility.yul\":11686:11687   */\n      0x00\n        /* \"#utility.yul\":11683:11684   */\n      dup1\n        /* \"#utility.yul\":11676:11688   */\n      revert\n        /* \"#utility.yul\":11630:11690   */\n    tag_395:\n        /* \"#utility.yul\":11580:11696   */\n      pop\n      jump\t// out\n        /* \"#utility.yul\":11702:11839   */\n    tag_269:\n        /* \"#utility.yul\":11756:11761   */\n      0x00\n        /* \"#utility.yul\":11787:11793   */\n      dup2\n        /* \"#utility.yul\":11781:11794   */\n      mload\n        /* \"#utility.yul\":11772:11794   */\n      swap1\n      pop\n        /* \"#utility.yul\":11803:11833   */\n      tag_397\n        /* \"#utility.yul\":11827:11832   */\n      dup2\n        /* \"#utility.yul\":11803:11833   */\n      tag_268\n      jump\t// in\n    tag_397:\n        /* \"#utility.yul\":11702:11839   */\n      swap3\n      swap2\n      pop\n      pop\n      jump\t// out\n        /* \"#utility.yul\":11845:12190   */\n    tag_117:\n        /* \"#utility.yul\":11912:11918   */\n      0x00\n        /* \"#utility.yul\":11961:11963   */\n      0x20\n        /* \"#utility.yul\":11949:11958   */\n      dup3\n        /* \"#utility.yul\":11940:11947   */\n      dup5\n        /* \"#utility.yul\":11936:11959   */\n      sub\n        /* \"#utility.yul\":11932:11964   */\n      slt\n        /* \"#utility.yul\":11929:12048   */\n      iszero\n      tag_399\n      jumpi\n        /* \"#utility.yul\":11967:12046   */\n      tag_400\n      tag_245\n      jump\t// in\n    tag_400:\n        /* \"#utility.yul\":11929:12048   */\n    tag_399:\n        /* \"#utility.yul\":12087:12088   */\n      0x00\n        /* \"#utility.yul\":12112:12173   */\n      tag_401\n        /* \"#utility.yul\":12165:12172   */\n      dup5\n        /* \"#utility.yul\":12156:12162   */\n      dup3\n        /* \"#utility.yul\":12145:12154   */\n      dup6\n        /* \"#utility.yul\":12141:12163   */\n      add\n        /* \"#utility.yul\":12112:12173   */\n      tag_269\n      jump\t// in\n    tag_401:\n        /* \"#utility.yul\":12102:12173   */\n      swap2\n      pop\n        /* \"#utility.yul\":12058:12183   */\n      pop\n        /* \"#utility.yul\":11845:12190   */\n      swap3\n      swap2\n      pop\n      pop\n      jump\t// out\n        /* \"#utility.yul\":12196:12371   */\n    tag_270:\n        /* \"#utility.yul\":12336:12363   */\n      0x5472616e73666572206f6620746f6b656e42206661696c656400000000000000\n        /* \"#utility.yul\":12332:12333   */\n      0x00\n        /* \"#utility.yul\":12324:12330   */\n      dup3\n        /* \"#utility.yul\":12320:12334   */\n      add\n        /* \"#utility.yul\":12313:12364   */\n      mstore\n        /* \"#utility.yul\":12196:12371   */\n      pop\n      jump\t// out\n        /* \"#utility.yul\":12377:12743   */\n    tag_271:\n        /* \"#utility.yul\":12519:12522   */\n      0x00\n        /* \"#utility.yul\":12540:12607   */\n      tag_404\n        /* \"#utility.yul\":12604:12606   */\n      0x19\n        /* \"#utility.yul\":12599:12602   */\n      dup4\n        /* \"#utility.yul\":12540:12607   */\n      tag_254\n      jump\t// in\n    tag_404:\n        /* \"#utility.yul\":12533:12607   */\n      swap2\n      pop\n        /* \"#utility.yul\":12616:12709   */\n      tag_405\n        /* \"#utility.yul\":12705:12708   */\n      dup3\n        /* \"#utility.yul\":12616:12709   */\n      tag_270\n      jump\t// in\n    tag_405:\n        /* \"#utility.yul\":12734:12736   */\n      0x20\n        /* \"#utility.yul\":12729:12732   */\n      dup3\n        /* \"#utility.yul\":12725:12737   */\n      add\n        /* \"#utility.yul\":12718:12737   */\n      swap1\n      pop\n        /* \"#utility.yul\":12377:12743   */\n      swap2\n      swap1\n      pop\n      jump\t// out\n        /* \"#utility.yul\":12749:13168   */\n    tag_120:\n        /* \"#utility.yul\":12915:12919   */\n      0x00\n        /* \"#utility.yul\":12953:12955   */\n      0x20\n        /* \"#utility.yul\":12942:12951   */\n      dup3\n        /* \"#utility.yul\":12938:12956   */\n      add\n        /* \"#utility.yul\":12930:12956   */\n      swap1\n      pop\n        /* \"#utility.yul\":13002:13011   */\n      dup2\n        /* \"#utility.yul\":12996:13000   */\n      dup2\n        /* \"#utility.yul\":12992:13012   */\n      sub\n        /* \"#utility.yul\":12988:12989   */\n      0x00\n        /* \"#utility.yul\":12977:12986   */\n      dup4\n        /* \"#utility.yul\":12973:12990   */\n      add\n        /* \"#utility.yul\":12966:13013   */\n      mstore\n        /* \"#utility.yul\":13030:13161   */\n      tag_407\n        /* \"#utility.yul\":13156:13160   */\n      dup2\n        /* \"#utility.yul\":13030:13161   */\n      tag_271\n      jump\t// in\n    tag_407:\n        /* \"#utility.yul\":13022:13161   */\n      swap1\n      pop\n        /* \"#utility.yul\":12749:13168   */\n      swap2\n      swap1\n      pop\n      jump\t// out\n        /* \"#utility.yul\":13174:13506   */\n    tag_122:\n        /* \"#utility.yul\":13295:13299   */\n      0x00\n        /* \"#utility.yul\":13333:13335   */\n      0x40\n        /* \"#utility.yul\":13322:13331   */\n      dup3\n        /* \"#utility.yul\":13318:13336   */\n      add\n        /* \"#utility.yul\":13310:13336   */\n      swap1\n      pop\n        /* \"#utility.yul\":13346:13417   */\n      tag_409\n        /* \"#utility.yul\":13414:13415   */\n      0x00\n        /* \"#utility.yul\":13403:13412   */\n      dup4\n        /* \"#utility.yul\":13399:13416   */\n      add\n        /* \"#utility.yul\":13390:13396   */\n      dup6\n        /* \"#utility.yul\":13346:13417   */\n      tag_252\n      jump\t// in\n    tag_409:\n        /* \"#utility.yul\":13427:13499   */\n      tag_410\n        /* \"#utility.yul\":13495:13497   */\n      0x20\n        /* \"#utility.yul\":13484:13493   */\n      dup4\n        /* \"#utility.yul\":13480:13498   */\n      add\n        /* \"#utility.yul\":13471:13477   */\n      dup5\n        /* \"#utility.yul\":13427:13499   */\n      tag_237\n      jump\t// in\n    tag_410:\n        /* \"#utility.yul\":13174:13506   */\n      swap4\n      swap3\n      pop\n      pop\n      pop\n      jump\t// out\n        /* \"#utility.yul\":13512:13687   */\n    tag_272:\n        /* \"#utility.yul\":13652:13679   */\n      0x5472616e73666572206f6620746f6b656e41206661696c656400000000000000\n        /* \"#utility.yul\":13648:13649   */\n      0x00\n        /* \"#utility.yul\":13640:13646   */\n      dup3\n        /* \"#utility.yul\":13636:13650   */\n      add\n        /* \"#utility.yul\":13629:13680   */\n      mstore\n        /* \"#utility.yul\":13512:13687   */\n      pop\n      jump\t// out\n        /* \"#utility.yul\":13693:14059   */\n    tag_273:\n        /* \"#utility.yul\":13835:13838   */\n      0x00\n        /* \"#utility.yul\":13856:13923   */\n      tag_413\n        /* \"#utility.yul\":13920:13922   */\n      0x19\n        /* \"#utility.yul\":13915:13918   */\n      dup4\n        /* \"#utility.yul\":13856:13923   */\n      tag_254\n      jump\t// in\n    tag_413:\n        /* \"#utility.yul\":13849:13923   */\n      swap2\n      pop\n        /* \"#utility.yul\":13932:14025   */\n      tag_414\n        /* \"#utility.yul\":14021:14024   */\n      dup3\n        /* \"#utility.yul\":13932:14025   */\n      tag_272\n      jump\t// in\n    tag_414:\n        /* \"#utility.yul\":14050:14052   */\n      0x20\n        /* \"#utility.yul\":14045:14048   */\n      dup3\n        /* \"#utility.yul\":14041:14053   */\n      add\n        /* \"#utility.yul\":14034:14053   */\n      swap1\n      pop\n        /* \"#utility.yul\":13693:14059   */\n      swap2\n      swap1\n      pop\n      jump\t// out\n        /* \"#utility.yul\":14065:14484   */\n    tag_128:\n        /* \"#utility.yul\":14231:14235   */\n      0x00\n        /* \"#utility.yul\":14269:14271   */\n      0x20\n        /* \"#utility.yul\":14258:14267   */\n      dup3\n        /* \"#utility.yul\":14254:14272   */\n      add\n        /* \"#utility.yul\":14246:14272   */\n      swap1\n      pop\n        /* \"#utility.yul\":14318:14327   */\n      dup2\n        /* \"#utility.yul\":14312:14316   */\n      dup2\n        /* \"#utility.yul\":14308:14328   */\n      sub\n        /* \"#utility.yul\":14304:14305   */\n      0x00\n        /* \"#utility.yul\":14293:14302   */\n      dup4\n        /* \"#utility.yul\":14289:14306   */\n      add\n        /* \"#utility.yul\":14282:14329   */\n      mstore\n        /* \"#utility.yul\":14346:14477   */\n      tag_416\n        /* \"#utility.yul\":14472:14476   */\n      dup2\n        /* \"#utility.yul\":14346:14477   */\n      tag_273\n      jump\t// in\n    tag_416:\n        /* \"#utility.yul\":14338:14477   */\n      swap1\n      pop\n        /* \"#utility.yul\":14065:14484   */\n      swap2\n      swap1\n      pop\n      jump\t// out\n        /* \"#utility.yul\":14490:15043   */\n    tag_130:\n        /* \"#utility.yul\":14667:14671   */\n      0x00\n        /* \"#utility.yul\":14705:14708   */\n      0x80\n        /* \"#utility.yul\":14694:14703   */\n      dup3\n        /* \"#utility.yul\":14690:14709   */\n      add\n        /* \"#utility.yul\":14682:14709   */\n      swap1\n      pop\n        /* \"#utility.yul\":14719:14790   */\n      tag_418\n        /* \"#utility.yul\":14787:14788   */\n      0x00\n        /* \"#utility.yul\":14776:14785   */\n      dup4\n        /* \"#utility.yul\":14772:14789   */\n      add\n        /* \"#utility.yul\":14763:14769   */\n      dup8\n        /* \"#utility.yul\":14719:14790   */\n      tag_252\n      jump\t// in\n    tag_418:\n        /* \"#utility.yul\":14800:14872   */\n      tag_419\n        /* \"#utility.yul\":14868:14870   */\n      0x20\n        /* \"#utility.yul\":14857:14866   */\n      dup4\n        /* \"#utility.yul\":14853:14871   */\n      add\n        /* \"#utility.yul\":14844:14850   */\n      dup7\n        /* \"#utility.yul\":14800:14872   */\n      tag_252\n      jump\t// in\n    tag_419:\n        /* \"#utility.yul\":14882:14954   */\n      tag_420\n        /* \"#utility.yul\":14950:14952   */\n      0x40\n        /* \"#utility.yul\":14939:14948   */\n      dup4\n        /* \"#utility.yul\":14935:14953   */\n      add\n        /* \"#utility.yul\":14926:14932   */\n      dup6\n        /* \"#utility.yul\":14882:14954   */\n      tag_237\n      jump\t// in\n    tag_420:\n        /* \"#utility.yul\":14964:15036   */\n      tag_421\n        /* \"#utility.yul\":15032:15034   */\n      0x60\n        /* \"#utility.yul\":15021:15030   */\n      dup4\n        /* \"#utility.yul\":15017:15035   */\n      add\n        /* \"#utility.yul\":15008:15014   */\n      dup5\n        /* \"#utility.yul\":14964:15036   */\n      tag_237\n      jump\t// in\n    tag_421:\n        /* \"#utility.yul\":14490:15043   */\n      swap6\n      swap5\n      pop\n      pop\n      pop\n      pop\n      pop\n      jump\t// out\n        /* \"#utility.yul\":15049:15229   */\n    tag_274:\n        /* \"#utility.yul\":15189:15221   */\n      0x416d6f756e7473206d7573742062652067726561746572207468616e20300000\n        /* \"#utility.yul\":15185:15186   */\n      0x00\n        /* \"#utility.yul\":15177:15183   */\n      dup3\n        /* \"#utility.yul\":15173:15187   */\n      add\n        /* \"#utility.yul\":15166:15222   */\n      mstore\n        /* \"#utility.yul\":15049:15229   */\n      pop\n      jump\t// out\n        /* \"#utility.yul\":15235:15601   */\n    tag_275:\n        /* \"#utility.yul\":15377:15380   */\n      0x00\n        /* \"#utility.yul\":15398:15465   */\n      tag_424\n        /* \"#utility.yul\":15462:15464   */\n      0x1e\n        /* \"#utility.yul\":15457:15460   */\n      dup4\n        /* \"#utility.yul\":15398:15465   */\n      tag_254\n      jump\t// in\n    tag_424:\n        /* \"#utility.yul\":15391:15465   */\n      swap2\n      pop\n        /* \"#utility.yul\":15474:15567   */\n      tag_425\n        /* \"#utility.yul\":15563:15566   */\n      dup3\n        /* \"#utility.yul\":15474:15567   */\n      tag_274\n      jump\t// in\n    tag_425:\n        /* \"#utility.yul\":15592:15594   */\n      0x20\n        /* \"#utility.yul\":15587:15590   */\n      dup3\n        /* \"#utility.yul\":15583:15595   */\n      add\n        /* \"#utility.yul\":15576:15595   */\n      swap1\n      pop\n        /* \"#utility.yul\":15235:15601   */\n      swap2\n      swap1\n      pop\n      jump\t// out\n        /* \"#utility.yul\":15607:16026   */\n    tag_142:\n        /* \"#utility.yul\":15773:15777   */\n      0x00\n        /* \"#utility.yul\":15811:15813   */\n      0x20\n        /* \"#utility.yul\":15800:15809   */\n      dup3\n        /* \"#utility.yul\":15796:15814   */\n      add\n        /* \"#utility.yul\":15788:15814   */\n      swap1\n      pop\n        /* \"#utility.yul\":15860:15869   */\n      dup2\n        /* \"#utility.yul\":15854:15858   */\n      dup2\n        /* \"#utility.yul\":15850:15870   */\n      sub\n        /* \"#utility.yul\":15846:15847   */\n      0x00\n        /* \"#utility.yul\":15835:15844   */\n      dup4\n        /* \"#utility.yul\":15831:15848   */\n      add\n        /* \"#utility.yul\":15824:15871   */\n      mstore\n        /* \"#utility.yul\":15888:16019   */\n      tag_427\n        /* \"#utility.yul\":16014:16018   */\n      dup2\n        /* \"#utility.yul\":15888:16019   */\n      tag_275\n      jump\t// in\n    tag_427:\n        /* \"#utility.yul\":15880:16019   */\n      swap1\n      pop\n        /* \"#utility.yul\":15607:16026   */\n      swap2\n      swap1\n      pop\n      jump\t// out\n        /* \"#utility.yul\":16032:16226   */\n    tag_170:\n        /* \"#utility.yul\":16072:16076   */\n      0x00\n        /* \"#utility.yul\":16092:16112   */\n      tag_429\n        /* \"#utility.yul\":16110:16111   */\n      dup3\n        /* \"#utility.yul\":16092:16112   */\n      tag_236\n      jump\t// in\n    tag_429:\n        /* \"#utility.yul\":16087:16112   */\n      swap2\n      pop\n        /* \"#utility.yul\":16126:16146   */\n      tag_430\n        /* \"#utility.yul\":16144:16145   */\n      dup4\n        /* \"#utility.yul\":16126:16146   */\n      tag_236\n      jump\t// in\n    tag_430:\n        /* \"#utility.yul\":16121:16146   */\n      swap3\n      pop\n        /* \"#utility.yul\":16170:16171   */\n      dup3\n        /* \"#utility.yul\":16167:16168   */\n      dup3\n        /* \"#utility.yul\":16163:16172   */\n      sub\n        /* \"#utility.yul\":16155:16172   */\n      swap1\n      pop\n        /* \"#utility.yul\":16194:16195   */\n      dup2\n        /* \"#utility.yul\":16188:16192   */\n      dup2\n        /* \"#utility.yul\":16185:16196   */\n      gt\n        /* \"#utility.yul\":16182:16219   */\n      iszero\n      tag_431\n      jumpi\n        /* \"#utility.yul\":16199:16217   */\n      tag_432\n      tag_259\n      jump\t// in\n    tag_432:\n        /* \"#utility.yul\":16182:16219   */\n    tag_431:\n        /* \"#utility.yul\":16032:16226   */\n      swap3\n      swap2\n      pop\n      pop\n      jump\t// out\n        /* \"#utility.yul\":16232:16413   */\n    tag_276:\n        /* \"#utility.yul\":16372:16405   */\n      0x5265656e7472616e637947756172643a207265656e7472616e742063616c6c00\n        /* \"#utility.yul\":16368:16369   */\n      0x00\n        /* \"#utility.yul\":16360:16366   */\n      dup3\n        /* \"#utility.yul\":16356:16370   */\n      add\n        /* \"#utility.yul\":16349:16406   */\n      mstore\n        /* \"#utility.yul\":16232:16413   */\n      pop\n      jump\t// out\n        /* \"#utility.yul\":16419:16785   */\n    tag_277:\n        /* \"#utility.yul\":16561:16564   */\n      0x00\n        /* \"#utility.yul\":16582:16649   */\n      tag_435\n        /* \"#utility.yul\":16646:16648   */\n      0x1f\n        /* \"#utility.yul\":16641:16644   */\n      dup4\n        /* \"#utility.yul\":16582:16649   */\n      tag_254\n      jump\t// in\n    tag_435:\n        /* \"#utility.yul\":16575:16649   */\n      swap2\n      pop\n        /* \"#utility.yul\":16658:16751   */\n      tag_436\n        /* \"#utility.yul\":16747:16750   */\n      dup3\n        /* \"#utility.yul\":16658:16751   */\n      tag_276\n      jump\t// in\n    tag_436:\n        /* \"#utility.yul\":16776:16778   */\n      0x20\n        /* \"#utility.yul\":16771:16774   */\n      dup3\n        /* \"#utility.yul\":16767:16779   */\n      add\n        /* \"#utility.yul\":16760:16779   */\n      swap1\n      pop\n        /* \"#utility.yul\":16419:16785   */\n      swap2\n      swap1\n      pop\n      jump\t// out\n        /* \"#utility.yul\":16791:17210   */\n    tag_233:\n        /* \"#utility.yul\":16957:16961   */\n      0x00\n        /* \"#utility.yul\":16995:16997   */\n      0x20\n        /* \"#utility.yul\":16984:16993   */\n      dup3\n        /* \"#utility.yul\":16980:16998   */\n      add\n        /* \"#utility.yul\":16972:16998   */\n      swap1\n      pop\n        /* \"#utility.yul\":17044:17053   */\n      dup2\n        /* \"#utility.yul\":17038:17042   */\n      dup2\n        /* \"#utility.yul\":17034:17054   */\n      sub\n        /* \"#utility.yul\":17030:17031   */\n      0x00\n        /* \"#utility.yul\":17019:17028   */\n      dup4\n        /* \"#utility.yul\":17015:17032   */\n      add\n        /* \"#utility.yul\":17008:17055   */\n      mstore\n        /* \"#utility.yul\":17072:17203   */\n      tag_438\n        /* \"#utility.yul\":17198:17202   */\n      dup2\n        /* \"#utility.yul\":17072:17203   */\n      tag_277\n      jump\t// in\n    tag_438:\n        /* \"#utility.yul\":17064:17203   */\n      swap1\n      pop\n        /* \"#utility.yul\":16791:17210   */\n      swap2\n      swap1\n      pop\n      jump\t// out\n\n    auxdata: 0xa264697066735822122043ecbd54c518ef71d7ee6661907b19d8df9f21fa6d33d8db8d30765afadd91b964736f6c634300081a0033\n}\n",
				"bytecode": {
					"linkReferences": {},
					"object": "608060405234801561000f575f80fd5b5060405161210938038061210983398181016040528101906100319190610306565b335f73ffffffffffffffffffffffffffffffffffffffff168173ffffffffffffffffffffffffffffffffffffffff16036100a2575f6040517f1e4fbdf70000000000000000000000000000000000000000000000000000000081526004016100999190610353565b60405180910390fd5b6100b1816101e760201b60201c565b50600180819055505f73ffffffffffffffffffffffffffffffffffffffff168273ffffffffffffffffffffffffffffffffffffffff161415801561012157505f73ffffffffffffffffffffffffffffffffffffffff168173ffffffffffffffffffffffffffffffffffffffff1614155b610160576040517f08c379a0000000000000000000000000000000000000000000000000000000008152600401610157906103c6565b60405180910390fd5b8160025f6101000a81548173ffffffffffffffffffffffffffffffffffffffff021916908373ffffffffffffffffffffffffffffffffffffffff1602179055508060035f6101000a81548173ffffffffffffffffffffffffffffffffffffffff021916908373ffffffffffffffffffffffffffffffffffffffff16021790555050506103e4565b5f805f9054906101000a900473ffffffffffffffffffffffffffffffffffffffff169050815f806101000a81548173ffffffffffffffffffffffffffffffffffffffff021916908373ffffffffffffffffffffffffffffffffffffffff1602179055508173ffffffffffffffffffffffffffffffffffffffff168173ffffffffffffffffffffffffffffffffffffffff167f8be0079c531659141344cd1fd0a4f28419497f9722a3daafe3b4186f6b6457e060405160405180910390a35050565b5f80fd5b5f73ffffffffffffffffffffffffffffffffffffffff82169050919050565b5f6102d5826102ac565b9050919050565b6102e5816102cb565b81146102ef575f80fd5b50565b5f81519050610300816102dc565b92915050565b5f806040838503121561031c5761031b6102a8565b5b5f610329858286016102f2565b925050602061033a858286016102f2565b9150509250929050565b61034d816102cb565b82525050565b5f6020820190506103665f830184610344565b92915050565b5f82825260208201905092915050565b7f496e76616c696420746f6b656e206164647265737365730000000000000000005f82015250565b5f6103b060178361036c565b91506103bb8261037c565b602082019050919050565b5f6020820190508181035f8301526103dd816103a4565b9050919050565b611d18806103f15f395ff3fe608060405234801561000f575f80fd5b50600436106100a7575f3560e01c80638014a7aa1161006f5780638014a7aa146101405780638da5cb5b146101705780639cd441da1461018e5780639d7de6b3146101aa578063e4f1f70a146101c6578063f2fde38b146101f6576100a7565b80630902f1ac146100ab5780630fc63d10146100ca57806341976e09146100e85780635f64b55b14610118578063715018a614610136575b5f80fd5b6100b3610212565b6040516100c19291906114c3565b60405180910390f35b6100d261034e565b6040516100df9190611564565b60405180910390f35b61010260048036038101906100fd91906115bc565b610373565b60405161010f91906115e7565b60405180910390f35b61012061055a565b60405161012d9190611564565b60405180910390f35b61013e61057f565b005b61015a6004803603810190610155919061162a565b610592565b60405161016791906115e7565b60405180910390f35b61017861093d565b6040516101859190611664565b60405180910390f35b6101a860048036038101906101a3919061167d565b610964565b005b6101c460048036038101906101bf919061167d565b610bd7565b005b6101e060048036038101906101db919061162a565b610ed5565b6040516101ed91906115e7565b60405180910390f35b610210600480360381019061020b91906115bc565b611280565b005b5f8060025f9054906101000a900473ffffffffffffffffffffffffffffffffffffffff1673ffffffffffffffffffffffffffffffffffffffff166370a08231306040518263ffffffff1660e01b815260040161026e9190611664565b602060405180830381865afa158015610289573d5f803e3d5ffd5b505050506040513d601f19601f820116820180604052508101906102ad91906116cf565b915060035f9054906101000a900473ffffffffffffffffffffffffffffffffffffffff1673ffffffffffffffffffffffffffffffffffffffff166370a08231306040518263ffffffff1660e01b81526004016103099190611664565b602060405180830381865afa158015610324573d5f803e3d5ffd5b505050506040513d601f19601f8201168201806040525081019061034891906116cf565b90509091565b60025f9054906101000a900473ffffffffffffffffffffffffffffffffffffffff1681565b5f60025f9054906101000a900473ffffffffffffffffffffffffffffffffffffffff1673ffffffffffffffffffffffffffffffffffffffff168273ffffffffffffffffffffffffffffffffffffffff16148061041b575060035f9054906101000a900473ffffffffffffffffffffffffffffffffffffffff1673ffffffffffffffffffffffffffffffffffffffff168273ffffffffffffffffffffffffffffffffffffffff16145b61045a576040517f08c379a000000000000000000000000000000000000000000000000000000000815260040161045190611754565b60405180910390fd5b5f80610464610212565b915091505f8211801561047657505f81115b6104b5576040517f08c379a00000000000000000000000000000000000000000000000000000000081526004016104ac906117bc565b60405180910390fd5b60025f9054906101000a900473ffffffffffffffffffffffffffffffffffffffff1673ffffffffffffffffffffffffffffffffffffffff168473ffffffffffffffffffffffffffffffffffffffff16036105315781670de0b6b3a76400008261051e9190611807565b6105289190611875565b92505050610555565b80670de0b6b3a7640000836105469190611807565b6105509190611875565b925050505b919050565b60035f9054906101000a900473ffffffffffffffffffffffffffffffffffffffff1681565b610587611304565b6105905f61138b565b565b5f61059b61144c565b5f82116105dd576040517f08c379a00000000000000000000000000000000000000000000000000000000081526004016105d4906118ef565b60405180910390fd5b5f806105e7610212565b915091505f821180156105f957505f81115b610638576040517f08c379a000000000000000000000000000000000000000000000000000000000815260040161062f90611957565b60405180910390fd5b83816106449190611975565b84836106509190611807565b61065a9190611875565b92505f831161069e576040517f08c379a0000000000000000000000000000000000000000000000000000000008152600401610695906119f2565b60405180910390fd5b8183106106e0576040517f08c379a00000000000000000000000000000000000000000000000000000000081526004016106d790611957565b60405180910390fd5b60035f9054906101000a900473ffffffffffffffffffffffffffffffffffffffff1673ffffffffffffffffffffffffffffffffffffffff166323b872dd3330876040518463ffffffff1660e01b815260040161073e93929190611a10565b6020604051808303815f875af115801561075a573d5f803e3d5ffd5b505050506040513d601f19601f8201168201806040525081019061077e9190611a7a565b6107bd576040517f08c379a00000000000000000000000000000000000000000000000000000000081526004016107b490611aef565b60405180910390fd5b60025f9054906101000a900473ffffffffffffffffffffffffffffffffffffffff1673ffffffffffffffffffffffffffffffffffffffff1663a9059cbb33856040518363ffffffff1660e01b8152600401610819929190611b0d565b6020604051808303815f875af1158015610835573d5f803e3d5ffd5b505050506040513d601f19601f820116820180604052508101906108599190611a7a565b610898576040517f08c379a000000000000000000000000000000000000000000000000000000000815260040161088f90611b7e565b60405180910390fd5b3373ffffffffffffffffffffffffffffffffffffffff167fd36cc53ba71bc76a3db3364981f5296dd4ca5eba0e8c89874f2170515bd20d2460035f9054906101000a900473ffffffffffffffffffffffffffffffffffffffff1660025f9054906101000a900473ffffffffffffffffffffffffffffffffffffffff1687876040516109269493929190611b9c565b60405180910390a2505061093861149b565b919050565b5f805f9054906101000a900473ffffffffffffffffffffffffffffffffffffffff16905090565b61096c611304565b61097461144c565b5f8211801561098257505f81115b6109c1576040517f08c379a00000000000000000000000000000000000000000000000000000000081526004016109b890611c29565b60405180910390fd5b60025f9054906101000a900473ffffffffffffffffffffffffffffffffffffffff1673ffffffffffffffffffffffffffffffffffffffff166323b872dd3330856040518463ffffffff1660e01b8152600401610a1f93929190611a10565b6020604051808303815f875af1158015610a3b573d5f803e3d5ffd5b505050506040513d601f19601f82011682018060405250810190610a5f9190611a7a565b610a9e576040517f08c379a0000000000000000000000000000000000000000000000000000000008152600401610a9590611b7e565b60405180910390fd5b60035f9054906101000a900473ffffffffffffffffffffffffffffffffffffffff1673ffffffffffffffffffffffffffffffffffffffff166323b872dd3330846040518463ffffffff1660e01b8152600401610afc93929190611a10565b6020604051808303815f875af1158015610b18573d5f803e3d5ffd5b505050506040513d601f19601f82011682018060405250810190610b3c9190611a7a565b610b7b576040517f08c379a0000000000000000000000000000000000000000000000000000000008152600401610b7290611aef565b60405180910390fd5b3373ffffffffffffffffffffffffffffffffffffffff167fac1d76749e5447b7b16f5ab61447e1bd502f3bb4807af3b28e620d1700a6ee458383604051610bc39291906114c3565b60405180910390a2610bd361149b565b5050565b610bdf611304565b610be761144c565b5f82118015610bf557505f81115b610c34576040517f08c379a0000000000000000000000000000000000000000000000000000000008152600401610c2b90611c29565b60405180910390fd5b5f80610c3e610212565b91509150818411158015610c525750808311155b610c91576040517f08c379a0000000000000000000000000000000000000000000000000000000008152600401610c8890611957565b60405180910390fd5b8360045f828254610ca29190611c47565b925050819055508260055f828254610cba9190611c47565b9250508190555060025f9054906101000a900473ffffffffffffffffffffffffffffffffffffffff1673ffffffffffffffffffffffffffffffffffffffff1663a9059cbb33866040518363ffffffff1660e01b8152600401610d1d929190611b0d565b6020604051808303815f875af1158015610d39573d5f803e3d5ffd5b505050506040513d601f19601f82011682018060405250810190610d5d9190611a7a565b610d9c576040517f08c379a0000000000000000000000000000000000000000000000000000000008152600401610d9390611b7e565b60405180910390fd5b60035f9054906101000a900473ffffffffffffffffffffffffffffffffffffffff1673ffffffffffffffffffffffffffffffffffffffff1663a9059cbb33856040518363ffffffff1660e01b8152600401610df8929190611b0d565b6020604051808303815f875af1158015610e14573d5f803e3d5ffd5b505050506040513d601f19601f82011682018060405250810190610e389190611a7a565b610e77576040517f08c379a0000000000000000000000000000000000000000000000000000000008152600401610e6e90611aef565b60405180910390fd5b3373ffffffffffffffffffffffffffffffffffffffff167f96cd817c6329656790ef8fba7675405193677d39619571282f5e21f3a98cd0598585604051610ebf9291906114c3565b60405180910390a25050610ed161149b565b5050565b5f610ede61144c565b5f8211610f20576040517f08c379a0000000000000000000000000000000000000000000000000000000008152600401610f17906118ef565b60405180910390fd5b5f80610f2a610212565b915091505f82118015610f3c57505f81115b610f7b576040517f08c379a0000000000000000000000000000000000000000000000000000000008152600401610f7290611957565b60405180910390fd5b8382610f879190611975565b8482610f939190611807565b610f9d9190611875565b92505f8311610fe1576040517f08c379a0000000000000000000000000000000000000000000000000000000008152600401610fd8906119f2565b60405180910390fd5b808310611023576040517f08c379a000000000000000000000000000000000000000000000000000000000815260040161101a90611957565b60405180910390fd5b60025f9054906101000a900473ffffffffffffffffffffffffffffffffffffffff1673ffffffffffffffffffffffffffffffffffffffff166323b872dd3330876040518463ffffffff1660e01b815260040161108193929190611a10565b6020604051808303815f875af115801561109d573d5f803e3d5ffd5b505050506040513d601f19601f820116820180604052508101906110c19190611a7a565b611100576040517f08c379a00000000000000000000000000000000000000000000000000000000081526004016110f790611b7e565b60405180910390fd5b60035f9054906101000a900473ffffffffffffffffffffffffffffffffffffffff1673ffffffffffffffffffffffffffffffffffffffff1663a9059cbb33856040518363ffffffff1660e01b815260040161115c929190611b0d565b6020604051808303815f875af1158015611178573d5f803e3d5ffd5b505050506040513d601f19601f8201168201806040525081019061119c9190611a7a565b6111db576040517f08c379a00000000000000000000000000000000000000000000000000000000081526004016111d290611aef565b60405180910390fd5b3373ffffffffffffffffffffffffffffffffffffffff167fd36cc53ba71bc76a3db3364981f5296dd4ca5eba0e8c89874f2170515bd20d2460025f9054906101000a900473ffffffffffffffffffffffffffffffffffffffff1660035f9054906101000a900473ffffffffffffffffffffffffffffffffffffffff1687876040516112699493929190611b9c565b60405180910390a2505061127b61149b565b919050565b611288611304565b5f73ffffffffffffffffffffffffffffffffffffffff168173ffffffffffffffffffffffffffffffffffffffff16036112f8575f6040517f1e4fbdf70000000000000000000000000000000000000000000000000000000081526004016112ef9190611664565b60405180910390fd5b6113018161138b565b50565b61130c6114a4565b73ffffffffffffffffffffffffffffffffffffffff1661132a61093d565b73ffffffffffffffffffffffffffffffffffffffff16146113895761134d6114a4565b6040517f118cdaa70000000000000000000000000000000000000000000000000000000081526004016113809190611664565b60405180910390fd5b565b5f805f9054906101000a900473ffffffffffffffffffffffffffffffffffffffff169050815f806101000a81548173ffffffffffffffffffffffffffffffffffffffff021916908373ffffffffffffffffffffffffffffffffffffffff1602179055508173ffffffffffffffffffffffffffffffffffffffff168173ffffffffffffffffffffffffffffffffffffffff167f8be0079c531659141344cd1fd0a4f28419497f9722a3daafe3b4186f6b6457e060405160405180910390a35050565b600260015403611491576040517f08c379a000000000000000000000000000000000000000000000000000000000815260040161148890611cc4565b60405180910390fd5b6002600181905550565b60018081905550565b5f33905090565b5f819050919050565b6114bd816114ab565b82525050565b5f6040820190506114d65f8301856114b4565b6114e360208301846114b4565b9392505050565b5f73ffffffffffffffffffffffffffffffffffffffff82169050919050565b5f819050919050565b5f61152c611527611522846114ea565b611509565b6114ea565b9050919050565b5f61153d82611512565b9050919050565b5f61154e82611533565b9050919050565b61155e81611544565b82525050565b5f6020820190506115775f830184611555565b92915050565b5f80fd5b5f61158b826114ea565b9050919050565b61159b81611581565b81146115a5575f80fd5b50565b5f813590506115b681611592565b92915050565b5f602082840312156115d1576115d061157d565b5b5f6115de848285016115a8565b91505092915050565b5f6020820190506115fa5f8301846114b4565b92915050565b611609816114ab565b8114611613575f80fd5b50565b5f8135905061162481611600565b92915050565b5f6020828403121561163f5761163e61157d565b5b5f61164c84828501611616565b91505092915050565b61165e81611581565b82525050565b5f6020820190506116775f830184611655565b92915050565b5f80604083850312156116935761169261157d565b5b5f6116a085828601611616565b92505060206116b185828601611616565b9150509250929050565b5f815190506116c981611600565b92915050565b5f602082840312156116e4576116e361157d565b5b5f6116f1848285016116bb565b91505092915050565b5f82825260208201905092915050565b7f496e76616c696420746f6b656e206164647265737300000000000000000000005f82015250565b5f61173e6015836116fa565b91506117498261170a565b602082019050919050565b5f6020820190508181035f83015261176b81611732565b9050919050565b7f456d7074792072657365727665730000000000000000000000000000000000005f82015250565b5f6117a6600e836116fa565b91506117b182611772565b602082019050919050565b5f6020820190508181035f8301526117d38161179a565b9050919050565b7f4e487b71000000000000000000000000000000000000000000000000000000005f52601160045260245ffd5b5f611811826114ab565b915061181c836114ab565b925082820261182a816114ab565b91508282048414831517611841576118406117da565b5b5092915050565b7f4e487b71000000000000000000000000000000000000000000000000000000005f52601260045260245ffd5b5f61187f826114ab565b915061188a836114ab565b92508261189a57611899611848565b5b828204905092915050565b7f416d6f756e74206d7573742062652067726561746572207468616e20300000005f82015250565b5f6118d9601d836116fa565b91506118e4826118a5565b602082019050919050565b5f6020820190508181035f830152611906816118cd565b9050919050565b7f496e73756666696369656e74206c6971756964697479000000000000000000005f82015250565b5f6119416016836116fa565b915061194c8261190d565b602082019050919050565b5f6020820190508181035f83015261196e81611935565b9050919050565b5f61197f826114ab565b915061198a836114ab565b92508282019050808211156119a2576119a16117da565b5b92915050565b7f496e73756666696369656e74206f757470757420616d6f756e740000000000005f82015250565b5f6119dc601a836116fa565b91506119e7826119a8565b602082019050919050565b5f6020820190508181035f830152611a09816119d0565b9050919050565b5f606082019050611a235f830186611655565b611a306020830185611655565b611a3d60408301846114b4565b949350505050565b5f8115159050919050565b611a5981611a45565b8114611a63575f80fd5b50565b5f81519050611a7481611a50565b92915050565b5f60208284031215611a8f57611a8e61157d565b5b5f611a9c84828501611a66565b91505092915050565b7f5472616e73666572206f6620746f6b656e42206661696c6564000000000000005f82015250565b5f611ad96019836116fa565b9150611ae482611aa5565b602082019050919050565b5f6020820190508181035f830152611b0681611acd565b9050919050565b5f604082019050611b205f830185611655565b611b2d60208301846114b4565b9392505050565b7f5472616e73666572206f6620746f6b656e41206661696c6564000000000000005f82015250565b5f611b686019836116fa565b9150611b7382611b34565b602082019050919050565b5f6020820190508181035f830152611b9581611b5c565b9050919050565b5f608082019050611baf5f830187611655565b611bbc6020830186611655565b611bc960408301856114b4565b611bd660608301846114b4565b95945050505050565b7f416d6f756e7473206d7573742062652067726561746572207468616e203000005f82015250565b5f611c13601e836116fa565b9150611c1e82611bdf565b602082019050919050565b5f6020820190508181035f830152611c4081611c07565b9050919050565b5f611c51826114ab565b9150611c5c836114ab565b9250828203905081811115611c7457611c736117da565b5b92915050565b7f5265656e7472616e637947756172643a207265656e7472616e742063616c6c005f82015250565b5f611cae601f836116fa565b9150611cb982611c7a565b602082019050919050565b5f6020820190508181035f830152611cdb81611ca2565b905091905056fea264697066735822122043ecbd54c518ef71d7ee6661907b19d8df9f21fa6d33d8db8d30765afadd91b964736f6c634300081a0033",
					"opcodes": "PUSH1 0x80 PUSH1 0x40 MSTORE CALLVALUE DUP1 ISZERO PUSH2 0xF JUMPI PUSH0 DUP1 REVERT JUMPDEST POP PUSH1 0x40 MLOAD PUSH2 0x2109 CODESIZE SUB DUP1 PUSH2 0x2109 DUP4 CODECOPY DUP2 DUP2 ADD PUSH1 0x40 MSTORE DUP2 ADD SWAP1 PUSH2 0x31 SWAP2 SWAP1 PUSH2 0x306 JUMP JUMPDEST CALLER PUSH0 PUSH20 0xFFFFFFFFFFFFFFFFFFFFFFFFFFFFFFFFFFFFFFFF AND DUP2 PUSH20 0xFFFFFFFFFFFFFFFFFFFFFFFFFFFFFFFFFFFFFFFF AND SUB PUSH2 0xA2 JUMPI PUSH0 PUSH1 0x40 MLOAD PUSH32 0x1E4FBDF700000000000000000000000000000000000000000000000000000000 DUP2 MSTORE PUSH1 0x4 ADD PUSH2 0x99 SWAP2 SWAP1 PUSH2 0x353 JUMP JUMPDEST PUSH1 0x40 MLOAD DUP1 SWAP2 SUB SWAP1 REVERT JUMPDEST PUSH2 0xB1 DUP2 PUSH2 0x1E7 PUSH1 0x20 SHL PUSH1 0x20 SHR JUMP JUMPDEST POP PUSH1 0x1 DUP1 DUP2 SWAP1 SSTORE POP PUSH0 PUSH20 0xFFFFFFFFFFFFFFFFFFFFFFFFFFFFFFFFFFFFFFFF AND DUP3 PUSH20 0xFFFFFFFFFFFFFFFFFFFFFFFFFFFFFFFFFFFFFFFF AND EQ ISZERO DUP1 ISZERO PUSH2 0x121 JUMPI POP PUSH0 PUSH20 0xFFFFFFFFFFFFFFFFFFFFFFFFFFFFFFFFFFFFFFFF AND DUP2 PUSH20 0xFFFFFFFFFFFFFFFFFFFFFFFFFFFFFFFFFFFFFFFF AND EQ ISZERO JUMPDEST PUSH2 0x160 JUMPI PUSH1 0x40 MLOAD PUSH32 0x8C379A000000000000000000000000000000000000000000000000000000000 DUP2 MSTORE PUSH1 0x4 ADD PUSH2 0x157 SWAP1 PUSH2 0x3C6 JUMP JUMPDEST PUSH1 0x40 MLOAD DUP1 SWAP2 SUB SWAP1 REVERT JUMPDEST DUP2 PUSH1 0x2 PUSH0 PUSH2 0x100 EXP DUP2 SLOAD DUP2 PUSH20 0xFFFFFFFFFFFFFFFFFFFFFFFFFFFFFFFFFFFFFFFF MUL NOT AND SWAP1 DUP4 PUSH20 0xFFFFFFFFFFFFFFFFFFFFFFFFFFFFFFFFFFFFFFFF AND MUL OR SWAP1 SSTORE POP DUP1 PUSH1 0x3 PUSH0 PUSH2 0x100 EXP DUP2 SLOAD DUP2 PUSH20 0xFFFFFFFFFFFFFFFFFFFFFFFFFFFFFFFFFFFFFFFF MUL NOT AND SWAP1 DUP4 PUSH20 0xFFFFFFFFFFFFFFFFFFFFFFFFFFFFFFFFFFFFFFFF AND MUL OR SWAP1 SSTORE POP POP POP PUSH2 0x3E4 JUMP JUMPDEST PUSH0 DUP1 PUSH0 SWAP1 SLOAD SWAP1 PUSH2 0x100 EXP SWAP1 DIV PUSH20 0xFFFFFFFFFFFFFFFFFFFFFFFFFFFFFFFFFFFFFFFF AND SWAP1 POP DUP2 PUSH0 DUP1 PUSH2 0x100 EXP DUP2 SLOAD DUP2 PUSH20 0xFFFFFFFFFFFFFFFFFFFFFFFFFFFFFFFFFFFFFFFF MUL NOT AND SWAP1 DUP4 PUSH20 0xFFFFFFFFFFFFFFFFFFFFFFFFFFFFFFFFFFFFFFFF AND MUL OR SWAP1 SSTORE POP DUP2 PUSH20 0xFFFFFFFFFFFFFFFFFFFFFFFFFFFFFFFFFFFFFFFF AND DUP2 PUSH20 0xFFFFFFFFFFFFFFFFFFFFFFFFFFFFFFFFFFFFFFFF AND PUSH32 0x8BE0079C531659141344CD1FD0A4F28419497F9722A3DAAFE3B4186F6B6457E0 PUSH1 0x40 MLOAD PUSH1 0x40 MLOAD DUP1 SWAP2 SUB SWAP1 LOG3 POP POP JUMP JUMPDEST PUSH0 DUP1 REVERT JUMPDEST PUSH0 PUSH20 0xFFFFFFFFFFFFFFFFFFFFFFFFFFFFFFFFFFFFFFFF DUP3 AND SWAP1 POP SWAP2 SWAP1 POP JUMP JUMPDEST PUSH0 PUSH2 0x2D5 DUP3 PUSH2 0x2AC JUMP JUMPDEST SWAP1 POP SWAP2 SWAP1 POP JUMP JUMPDEST PUSH2 0x2E5 DUP2 PUSH2 0x2CB JUMP JUMPDEST DUP2 EQ PUSH2 0x2EF JUMPI PUSH0 DUP1 REVERT JUMPDEST POP JUMP JUMPDEST PUSH0 DUP2 MLOAD SWAP1 POP PUSH2 0x300 DUP2 PUSH2 0x2DC JUMP JUMPDEST SWAP3 SWAP2 POP POP JUMP JUMPDEST PUSH0 DUP1 PUSH1 0x40 DUP4 DUP6 SUB SLT ISZERO PUSH2 0x31C JUMPI PUSH2 0x31B PUSH2 0x2A8 JUMP JUMPDEST JUMPDEST PUSH0 PUSH2 0x329 DUP6 DUP3 DUP7 ADD PUSH2 0x2F2 JUMP JUMPDEST SWAP3 POP POP PUSH1 0x20 PUSH2 0x33A DUP6 DUP3 DUP7 ADD PUSH2 0x2F2 JUMP JUMPDEST SWAP2 POP POP SWAP3 POP SWAP3 SWAP1 POP JUMP JUMPDEST PUSH2 0x34D DUP2 PUSH2 0x2CB JUMP JUMPDEST DUP3 MSTORE POP POP JUMP JUMPDEST PUSH0 PUSH1 0x20 DUP3 ADD SWAP1 POP PUSH2 0x366 PUSH0 DUP4 ADD DUP5 PUSH2 0x344 JUMP JUMPDEST SWAP3 SWAP2 POP POP JUMP JUMPDEST PUSH0 DUP3 DUP3 MSTORE PUSH1 0x20 DUP3 ADD SWAP1 POP SWAP3 SWAP2 POP POP JUMP JUMPDEST PUSH32 0x496E76616C696420746F6B656E20616464726573736573000000000000000000 PUSH0 DUP3 ADD MSTORE POP JUMP JUMPDEST PUSH0 PUSH2 0x3B0 PUSH1 0x17 DUP4 PUSH2 0x36C JUMP JUMPDEST SWAP2 POP PUSH2 0x3BB DUP3 PUSH2 0x37C JUMP JUMPDEST PUSH1 0x20 DUP3 ADD SWAP1 POP SWAP2 SWAP1 POP JUMP JUMPDEST PUSH0 PUSH1 0x20 DUP3 ADD SWAP1 POP DUP2 DUP2 SUB PUSH0 DUP4 ADD MSTORE PUSH2 0x3DD DUP2 PUSH2 0x3A4 JUMP JUMPDEST SWAP1 POP SWAP2 SWAP1 POP JUMP JUMPDEST PUSH2 0x1D18 DUP1 PUSH2 0x3F1 PUSH0 CODECOPY PUSH0 RETURN INVALID PUSH1 0x80 PUSH1 0x40 MSTORE CALLVALUE DUP1 ISZERO PUSH2 0xF JUMPI PUSH0 DUP1 REVERT JUMPDEST POP PUSH1 0x4 CALLDATASIZE LT PUSH2 0xA7 JUMPI PUSH0 CALLDATALOAD PUSH1 0xE0 SHR DUP1 PUSH4 0x8014A7AA GT PUSH2 0x6F JUMPI DUP1 PUSH4 0x8014A7AA EQ PUSH2 0x140 JUMPI DUP1 PUSH4 0x8DA5CB5B EQ PUSH2 0x170 JUMPI DUP1 PUSH4 0x9CD441DA EQ PUSH2 0x18E JUMPI DUP1 PUSH4 0x9D7DE6B3 EQ PUSH2 0x1AA JUMPI DUP1 PUSH4 0xE4F1F70A EQ PUSH2 0x1C6 JUMPI DUP1 PUSH4 0xF2FDE38B EQ PUSH2 0x1F6 JUMPI PUSH2 0xA7 JUMP JUMPDEST DUP1 PUSH4 0x902F1AC EQ PUSH2 0xAB JUMPI DUP1 PUSH4 0xFC63D10 EQ PUSH2 0xCA JUMPI DUP1 PUSH4 0x41976E09 EQ PUSH2 0xE8 JUMPI DUP1 PUSH4 0x5F64B55B EQ PUSH2 0x118 JUMPI DUP1 PUSH4 0x715018A6 EQ PUSH2 0x136 JUMPI JUMPDEST PUSH0 DUP1 REVERT JUMPDEST PUSH2 0xB3 PUSH2 0x212 JUMP JUMPDEST PUSH1 0x40 MLOAD PUSH2 0xC1 SWAP3 SWAP2 SWAP1 PUSH2 0x14C3 JUMP JUMPDEST PUSH1 0x40 MLOAD DUP1 SWAP2 SUB SWAP1 RETURN JUMPDEST PUSH2 0xD2 PUSH2 0x34E JUMP JUMPDEST PUSH1 0x40 MLOAD PUSH2 0xDF SWAP2 SWAP1 PUSH2 0x1564 JUMP JUMPDEST PUSH1 0x40 MLOAD DUP1 SWAP2 SUB SWAP1 RETURN JUMPDEST PUSH2 0x102 PUSH1 0x4 DUP1 CALLDATASIZE SUB DUP2 ADD SWAP1 PUSH2 0xFD SWAP2 SWAP1 PUSH2 0x15BC JUMP JUMPDEST PUSH2 0x373 JUMP JUMPDEST PUSH1 0x40 MLOAD PUSH2 0x10F SWAP2 SWAP1 PUSH2 0x15E7 JUMP JUMPDEST PUSH1 0x40 MLOAD DUP1 SWAP2 SUB SWAP1 RETURN JUMPDEST PUSH2 0x120 PUSH2 0x55A JUMP JUMPDEST PUSH1 0x40 MLOAD PUSH2 0x12D SWAP2 SWAP1 PUSH2 0x1564 JUMP JUMPDEST PUSH1 0x40 MLOAD DUP1 SWAP2 SUB SWAP1 RETURN JUMPDEST PUSH2 0x13E PUSH2 0x57F JUMP JUMPDEST STOP JUMPDEST PUSH2 0x15A PUSH1 0x4 DUP1 CALLDATASIZE SUB DUP2 ADD SWAP1 PUSH2 0x155 SWAP2 SWAP1 PUSH2 0x162A JUMP JUMPDEST PUSH2 0x592 JUMP JUMPDEST PUSH1 0x40 MLOAD PUSH2 0x167 SWAP2 SWAP1 PUSH2 0x15E7 JUMP JUMPDEST PUSH1 0x40 MLOAD DUP1 SWAP2 SUB SWAP1 RETURN JUMPDEST PUSH2 0x178 PUSH2 0x93D JUMP JUMPDEST PUSH1 0x40 MLOAD PUSH2 0x185 SWAP2 SWAP1 PUSH2 0x1664 JUMP JUMPDEST PUSH1 0x40 MLOAD DUP1 SWAP2 SUB SWAP1 RETURN JUMPDEST PUSH2 0x1A8 PUSH1 0x4 DUP1 CALLDATASIZE SUB DUP2 ADD SWAP1 PUSH2 0x1A3 SWAP2 SWAP1 PUSH2 0x167D JUMP JUMPDEST PUSH2 0x964 JUMP JUMPDEST STOP JUMPDEST PUSH2 0x1C4 PUSH1 0x4 DUP1 CALLDATASIZE SUB DUP2 ADD SWAP1 PUSH2 0x1BF SWAP2 SWAP1 PUSH2 0x167D JUMP JUMPDEST PUSH2 0xBD7 JUMP JUMPDEST STOP JUMPDEST PUSH2 0x1E0 PUSH1 0x4 DUP1 CALLDATASIZE SUB DUP2 ADD SWAP1 PUSH2 0x1DB SWAP2 SWAP1 PUSH2 0x162A JUMP JUMPDEST PUSH2 0xED5 JUMP JUMPDEST PUSH1 0x40 MLOAD PUSH2 0x1ED SWAP2 SWAP1 PUSH2 0x15E7 JUMP JUMPDEST PUSH1 0x40 MLOAD DUP1 SWAP2 SUB SWAP1 RETURN JUMPDEST PUSH2 0x210 PUSH1 0x4 DUP1 CALLDATASIZE SUB DUP2 ADD SWAP1 PUSH2 0x20B SWAP2 SWAP1 PUSH2 0x15BC JUMP JUMPDEST PUSH2 0x1280 JUMP JUMPDEST STOP JUMPDEST PUSH0 DUP1 PUSH1 0x2 PUSH0 SWAP1 SLOAD SWAP1 PUSH2 0x100 EXP SWAP1 DIV PUSH20 0xFFFFFFFFFFFFFFFFFFFFFFFFFFFFFFFFFFFFFFFF AND PUSH20 0xFFFFFFFFFFFFFFFFFFFFFFFFFFFFFFFFFFFFFFFF AND PUSH4 0x70A08231 ADDRESS PUSH1 0x40 MLOAD DUP3 PUSH4 0xFFFFFFFF AND PUSH1 0xE0 SHL DUP2 MSTORE PUSH1 0x4 ADD PUSH2 0x26E SWAP2 SWAP1 PUSH2 0x1664 JUMP JUMPDEST PUSH1 0x20 PUSH1 0x40 MLOAD DUP1 DUP4 SUB DUP2 DUP7 GAS STATICCALL ISZERO DUP1 ISZERO PUSH2 0x289 JUMPI RETURNDATASIZE PUSH0 DUP1 RETURNDATACOPY RETURNDATASIZE PUSH0 REVERT JUMPDEST POP POP POP POP PUSH1 0x40 MLOAD RETURNDATASIZE PUSH1 0x1F NOT PUSH1 0x1F DUP3 ADD AND DUP3 ADD DUP1 PUSH1 0x40 MSTORE POP DUP2 ADD SWAP1 PUSH2 0x2AD SWAP2 SWAP1 PUSH2 0x16CF JUMP JUMPDEST SWAP2 POP PUSH1 0x3 PUSH0 SWAP1 SLOAD SWAP1 PUSH2 0x100 EXP SWAP1 DIV PUSH20 0xFFFFFFFFFFFFFFFFFFFFFFFFFFFFFFFFFFFFFFFF AND PUSH20 0xFFFFFFFFFFFFFFFFFFFFFFFFFFFFFFFFFFFFFFFF AND PUSH4 0x70A08231 ADDRESS PUSH1 0x40 MLOAD DUP3 PUSH4 0xFFFFFFFF AND PUSH1 0xE0 SHL DUP2 MSTORE PUSH1 0x4 ADD PUSH2 0x309 SWAP2 SWAP1 PUSH2 0x1664 JUMP JUMPDEST PUSH1 0x20 PUSH1 0x40 MLOAD DUP1 DUP4 SUB DUP2 DUP7 GAS STATICCALL ISZERO DUP1 ISZERO PUSH2 0x324 JUMPI RETURNDATASIZE PUSH0 DUP1 RETURNDATACOPY RETURNDATASIZE PUSH0 REVERT JUMPDEST POP POP POP POP PUSH1 0x40 MLOAD RETURNDATASIZE PUSH1 0x1F NOT PUSH1 0x1F DUP3 ADD AND DUP3 ADD DUP1 PUSH1 0x40 MSTORE POP DUP2 ADD SWAP1 PUSH2 0x348 SWAP2 SWAP1 PUSH2 0x16CF JUMP JUMPDEST SWAP1 POP SWAP1 SWAP2 JUMP JUMPDEST PUSH1 0x2 PUSH0 SWAP1 SLOAD SWAP1 PUSH2 0x100 EXP SWAP1 DIV PUSH20 0xFFFFFFFFFFFFFFFFFFFFFFFFFFFFFFFFFFFFFFFF AND DUP2 JUMP JUMPDEST PUSH0 PUSH1 0x2 PUSH0 SWAP1 SLOAD SWAP1 PUSH2 0x100 EXP SWAP1 DIV PUSH20 0xFFFFFFFFFFFFFFFFFFFFFFFFFFFFFFFFFFFFFFFF AND PUSH20 0xFFFFFFFFFFFFFFFFFFFFFFFFFFFFFFFFFFFFFFFF AND DUP3 PUSH20 0xFFFFFFFFFFFFFFFFFFFFFFFFFFFFFFFFFFFFFFFF AND EQ DUP1 PUSH2 0x41B JUMPI POP PUSH1 0x3 PUSH0 SWAP1 SLOAD SWAP1 PUSH2 0x100 EXP SWAP1 DIV PUSH20 0xFFFFFFFFFFFFFFFFFFFFFFFFFFFFFFFFFFFFFFFF AND PUSH20 0xFFFFFFFFFFFFFFFFFFFFFFFFFFFFFFFFFFFFFFFF AND DUP3 PUSH20 0xFFFFFFFFFFFFFFFFFFFFFFFFFFFFFFFFFFFFFFFF AND EQ JUMPDEST PUSH2 0x45A JUMPI PUSH1 0x40 MLOAD PUSH32 0x8C379A000000000000000000000000000000000000000000000000000000000 DUP2 MSTORE PUSH1 0x4 ADD PUSH2 0x451 SWAP1 PUSH2 0x1754 JUMP JUMPDEST PUSH1 0x40 MLOAD DUP1 SWAP2 SUB SWAP1 REVERT JUMPDEST PUSH0 DUP1 PUSH2 0x464 PUSH2 0x212 JUMP JUMPDEST SWAP2 POP SWAP2 POP PUSH0 DUP3 GT DUP1 ISZERO PUSH2 0x476 JUMPI POP PUSH0 DUP2 GT JUMPDEST PUSH2 0x4B5 JUMPI PUSH1 0x40 MLOAD PUSH32 0x8C379A000000000000000000000000000000000000000000000000000000000 DUP2 MSTORE PUSH1 0x4 ADD PUSH2 0x4AC SWAP1 PUSH2 0x17BC JUMP JUMPDEST PUSH1 0x40 MLOAD DUP1 SWAP2 SUB SWAP1 REVERT JUMPDEST PUSH1 0x2 PUSH0 SWAP1 SLOAD SWAP1 PUSH2 0x100 EXP SWAP1 DIV PUSH20 0xFFFFFFFFFFFFFFFFFFFFFFFFFFFFFFFFFFFFFFFF AND PUSH20 0xFFFFFFFFFFFFFFFFFFFFFFFFFFFFFFFFFFFFFFFF AND DUP5 PUSH20 0xFFFFFFFFFFFFFFFFFFFFFFFFFFFFFFFFFFFFFFFF AND SUB PUSH2 0x531 JUMPI DUP2 PUSH8 0xDE0B6B3A7640000 DUP3 PUSH2 0x51E SWAP2 SWAP1 PUSH2 0x1807 JUMP JUMPDEST PUSH2 0x528 SWAP2 SWAP1 PUSH2 0x1875 JUMP JUMPDEST SWAP3 POP POP POP PUSH2 0x555 JUMP JUMPDEST DUP1 PUSH8 0xDE0B6B3A7640000 DUP4 PUSH2 0x546 SWAP2 SWAP1 PUSH2 0x1807 JUMP JUMPDEST PUSH2 0x550 SWAP2 SWAP1 PUSH2 0x1875 JUMP JUMPDEST SWAP3 POP POP POP JUMPDEST SWAP2 SWAP1 POP JUMP JUMPDEST PUSH1 0x3 PUSH0 SWAP1 SLOAD SWAP1 PUSH2 0x100 EXP SWAP1 DIV PUSH20 0xFFFFFFFFFFFFFFFFFFFFFFFFFFFFFFFFFFFFFFFF AND DUP2 JUMP JUMPDEST PUSH2 0x587 PUSH2 0x1304 JUMP JUMPDEST PUSH2 0x590 PUSH0 PUSH2 0x138B JUMP JUMPDEST JUMP JUMPDEST PUSH0 PUSH2 0x59B PUSH2 0x144C JUMP JUMPDEST PUSH0 DUP3 GT PUSH2 0x5DD JUMPI PUSH1 0x40 MLOAD PUSH32 0x8C379A000000000000000000000000000000000000000000000000000000000 DUP2 MSTORE PUSH1 0x4 ADD PUSH2 0x5D4 SWAP1 PUSH2 0x18EF JUMP JUMPDEST PUSH1 0x40 MLOAD DUP1 SWAP2 SUB SWAP1 REVERT JUMPDEST PUSH0 DUP1 PUSH2 0x5E7 PUSH2 0x212 JUMP JUMPDEST SWAP2 POP SWAP2 POP PUSH0 DUP3 GT DUP1 ISZERO PUSH2 0x5F9 JUMPI POP PUSH0 DUP2 GT JUMPDEST PUSH2 0x638 JUMPI PUSH1 0x40 MLOAD PUSH32 0x8C379A000000000000000000000000000000000000000000000000000000000 DUP2 MSTORE PUSH1 0x4 ADD PUSH2 0x62F SWAP1 PUSH2 0x1957 JUMP JUMPDEST PUSH1 0x40 MLOAD DUP1 SWAP2 SUB SWAP1 REVERT JUMPDEST DUP4 DUP2 PUSH2 0x644 SWAP2 SWAP1 PUSH2 0x1975 JUMP JUMPDEST DUP5 DUP4 PUSH2 0x650 SWAP2 SWAP1 PUSH2 0x1807 JUMP JUMPDEST PUSH2 0x65A SWAP2 SWAP1 PUSH2 0x1875 JUMP JUMPDEST SWAP3 POP PUSH0 DUP4 GT PUSH2 0x69E JUMPI PUSH1 0x40 MLOAD PUSH32 0x8C379A000000000000000000000000000000000000000000000000000000000 DUP2 MSTORE PUSH1 0x4 ADD PUSH2 0x695 SWAP1 PUSH2 0x19F2 JUMP JUMPDEST PUSH1 0x40 MLOAD DUP1 SWAP2 SUB SWAP1 REVERT JUMPDEST DUP2 DUP4 LT PUSH2 0x6E0 JUMPI PUSH1 0x40 MLOAD PUSH32 0x8C379A000000000000000000000000000000000000000000000000000000000 DUP2 MSTORE PUSH1 0x4 ADD PUSH2 0x6D7 SWAP1 PUSH2 0x1957 JUMP JUMPDEST PUSH1 0x40 MLOAD DUP1 SWAP2 SUB SWAP1 REVERT JUMPDEST PUSH1 0x3 PUSH0 SWAP1 SLOAD SWAP1 PUSH2 0x100 EXP SWAP1 DIV PUSH20 0xFFFFFFFFFFFFFFFFFFFFFFFFFFFFFFFFFFFFFFFF AND PUSH20 0xFFFFFFFFFFFFFFFFFFFFFFFFFFFFFFFFFFFFFFFF AND PUSH4 0x23B872DD CALLER ADDRESS DUP8 PUSH1 0x40 MLOAD DUP5 PUSH4 0xFFFFFFFF AND PUSH1 0xE0 SHL DUP2 MSTORE PUSH1 0x4 ADD PUSH2 0x73E SWAP4 SWAP3 SWAP2 SWAP1 PUSH2 0x1A10 JUMP JUMPDEST PUSH1 0x20 PUSH1 0x40 MLOAD DUP1 DUP4 SUB DUP2 PUSH0 DUP8 GAS CALL ISZERO DUP1 ISZERO PUSH2 0x75A JUMPI RETURNDATASIZE PUSH0 DUP1 RETURNDATACOPY RETURNDATASIZE PUSH0 REVERT JUMPDEST POP POP POP POP PUSH1 0x40 MLOAD RETURNDATASIZE PUSH1 0x1F NOT PUSH1 0x1F DUP3 ADD AND DUP3 ADD DUP1 PUSH1 0x40 MSTORE POP DUP2 ADD SWAP1 PUSH2 0x77E SWAP2 SWAP1 PUSH2 0x1A7A JUMP JUMPDEST PUSH2 0x7BD JUMPI PUSH1 0x40 MLOAD PUSH32 0x8C379A000000000000000000000000000000000000000000000000000000000 DUP2 MSTORE PUSH1 0x4 ADD PUSH2 0x7B4 SWAP1 PUSH2 0x1AEF JUMP JUMPDEST PUSH1 0x40 MLOAD DUP1 SWAP2 SUB SWAP1 REVERT JUMPDEST PUSH1 0x2 PUSH0 SWAP1 SLOAD SWAP1 PUSH2 0x100 EXP SWAP1 DIV PUSH20 0xFFFFFFFFFFFFFFFFFFFFFFFFFFFFFFFFFFFFFFFF AND PUSH20 0xFFFFFFFFFFFFFFFFFFFFFFFFFFFFFFFFFFFFFFFF AND PUSH4 0xA9059CBB CALLER DUP6 PUSH1 0x40 MLOAD DUP4 PUSH4 0xFFFFFFFF AND PUSH1 0xE0 SHL DUP2 MSTORE PUSH1 0x4 ADD PUSH2 0x819 SWAP3 SWAP2 SWAP1 PUSH2 0x1B0D JUMP JUMPDEST PUSH1 0x20 PUSH1 0x40 MLOAD DUP1 DUP4 SUB DUP2 PUSH0 DUP8 GAS CALL ISZERO DUP1 ISZERO PUSH2 0x835 JUMPI RETURNDATASIZE PUSH0 DUP1 RETURNDATACOPY RETURNDATASIZE PUSH0 REVERT JUMPDEST POP POP POP POP PUSH1 0x40 MLOAD RETURNDATASIZE PUSH1 0x1F NOT PUSH1 0x1F DUP3 ADD AND DUP3 ADD DUP1 PUSH1 0x40 MSTORE POP DUP2 ADD SWAP1 PUSH2 0x859 SWAP2 SWAP1 PUSH2 0x1A7A JUMP JUMPDEST PUSH2 0x898 JUMPI PUSH1 0x40 MLOAD PUSH32 0x8C379A000000000000000000000000000000000000000000000000000000000 DUP2 MSTORE PUSH1 0x4 ADD PUSH2 0x88F SWAP1 PUSH2 0x1B7E JUMP JUMPDEST PUSH1 0x40 MLOAD DUP1 SWAP2 SUB SWAP1 REVERT JUMPDEST CALLER PUSH20 0xFFFFFFFFFFFFFFFFFFFFFFFFFFFFFFFFFFFFFFFF AND PUSH32 0xD36CC53BA71BC76A3DB3364981F5296DD4CA5EBA0E8C89874F2170515BD20D24 PUSH1 0x3 PUSH0 SWAP1 SLOAD SWAP1 PUSH2 0x100 EXP SWAP1 DIV PUSH20 0xFFFFFFFFFFFFFFFFFFFFFFFFFFFFFFFFFFFFFFFF AND PUSH1 0x2 PUSH0 SWAP1 SLOAD SWAP1 PUSH2 0x100 EXP SWAP1 DIV PUSH20 0xFFFFFFFFFFFFFFFFFFFFFFFFFFFFFFFFFFFFFFFF AND DUP8 DUP8 PUSH1 0x40 MLOAD PUSH2 0x926 SWAP5 SWAP4 SWAP3 SWAP2 SWAP1 PUSH2 0x1B9C JUMP JUMPDEST PUSH1 0x40 MLOAD DUP1 SWAP2 SUB SWAP1 LOG2 POP POP PUSH2 0x938 PUSH2 0x149B JUMP JUMPDEST SWAP2 SWAP1 POP JUMP JUMPDEST PUSH0 DUP1 PUSH0 SWAP1 SLOAD SWAP1 PUSH2 0x100 EXP SWAP1 DIV PUSH20 0xFFFFFFFFFFFFFFFFFFFFFFFFFFFFFFFFFFFFFFFF AND SWAP1 POP SWAP1 JUMP JUMPDEST PUSH2 0x96C PUSH2 0x1304 JUMP JUMPDEST PUSH2 0x974 PUSH2 0x144C JUMP JUMPDEST PUSH0 DUP3 GT DUP1 ISZERO PUSH2 0x982 JUMPI POP PUSH0 DUP2 GT JUMPDEST PUSH2 0x9C1 JUMPI PUSH1 0x40 MLOAD PUSH32 0x8C379A000000000000000000000000000000000000000000000000000000000 DUP2 MSTORE PUSH1 0x4 ADD PUSH2 0x9B8 SWAP1 PUSH2 0x1C29 JUMP JUMPDEST PUSH1 0x40 MLOAD DUP1 SWAP2 SUB SWAP1 REVERT JUMPDEST PUSH1 0x2 PUSH0 SWAP1 SLOAD SWAP1 PUSH2 0x100 EXP SWAP1 DIV PUSH20 0xFFFFFFFFFFFFFFFFFFFFFFFFFFFFFFFFFFFFFFFF AND PUSH20 0xFFFFFFFFFFFFFFFFFFFFFFFFFFFFFFFFFFFFFFFF AND PUSH4 0x23B872DD CALLER ADDRESS DUP6 PUSH1 0x40 MLOAD DUP5 PUSH4 0xFFFFFFFF AND PUSH1 0xE0 SHL DUP2 MSTORE PUSH1 0x4 ADD PUSH2 0xA1F SWAP4 SWAP3 SWAP2 SWAP1 PUSH2 0x1A10 JUMP JUMPDEST PUSH1 0x20 PUSH1 0x40 MLOAD DUP1 DUP4 SUB DUP2 PUSH0 DUP8 GAS CALL ISZERO DUP1 ISZERO PUSH2 0xA3B JUMPI RETURNDATASIZE PUSH0 DUP1 RETURNDATACOPY RETURNDATASIZE PUSH0 REVERT JUMPDEST POP POP POP POP PUSH1 0x40 MLOAD RETURNDATASIZE PUSH1 0x1F NOT PUSH1 0x1F DUP3 ADD AND DUP3 ADD DUP1 PUSH1 0x40 MSTORE POP DUP2 ADD SWAP1 PUSH2 0xA5F SWAP2 SWAP1 PUSH2 0x1A7A JUMP JUMPDEST PUSH2 0xA9E JUMPI PUSH1 0x40 MLOAD PUSH32 0x8C379A000000000000000000000000000000000000000000000000000000000 DUP2 MSTORE PUSH1 0x4 ADD PUSH2 0xA95 SWAP1 PUSH2 0x1B7E JUMP JUMPDEST PUSH1 0x40 MLOAD DUP1 SWAP2 SUB SWAP1 REVERT JUMPDEST PUSH1 0x3 PUSH0 SWAP1 SLOAD SWAP1 PUSH2 0x100 EXP SWAP1 DIV PUSH20 0xFFFFFFFFFFFFFFFFFFFFFFFFFFFFFFFFFFFFFFFF AND PUSH20 0xFFFFFFFFFFFFFFFFFFFFFFFFFFFFFFFFFFFFFFFF AND PUSH4 0x23B872DD CALLER ADDRESS DUP5 PUSH1 0x40 MLOAD DUP5 PUSH4 0xFFFFFFFF AND PUSH1 0xE0 SHL DUP2 MSTORE PUSH1 0x4 ADD PUSH2 0xAFC SWAP4 SWAP3 SWAP2 SWAP1 PUSH2 0x1A10 JUMP JUMPDEST PUSH1 0x20 PUSH1 0x40 MLOAD DUP1 DUP4 SUB DUP2 PUSH0 DUP8 GAS CALL ISZERO DUP1 ISZERO PUSH2 0xB18 JUMPI RETURNDATASIZE PUSH0 DUP1 RETURNDATACOPY RETURNDATASIZE PUSH0 REVERT JUMPDEST POP POP POP POP PUSH1 0x40 MLOAD RETURNDATASIZE PUSH1 0x1F NOT PUSH1 0x1F DUP3 ADD AND DUP3 ADD DUP1 PUSH1 0x40 MSTORE POP DUP2 ADD SWAP1 PUSH2 0xB3C SWAP2 SWAP1 PUSH2 0x1A7A JUMP JUMPDEST PUSH2 0xB7B JUMPI PUSH1 0x40 MLOAD PUSH32 0x8C379A000000000000000000000000000000000000000000000000000000000 DUP2 MSTORE PUSH1 0x4 ADD PUSH2 0xB72 SWAP1 PUSH2 0x1AEF JUMP JUMPDEST PUSH1 0x40 MLOAD DUP1 SWAP2 SUB SWAP1 REVERT JUMPDEST CALLER PUSH20 0xFFFFFFFFFFFFFFFFFFFFFFFFFFFFFFFFFFFFFFFF AND PUSH32 0xAC1D76749E5447B7B16F5AB61447E1BD502F3BB4807AF3B28E620D1700A6EE45 DUP4 DUP4 PUSH1 0x40 MLOAD PUSH2 0xBC3 SWAP3 SWAP2 SWAP1 PUSH2 0x14C3 JUMP JUMPDEST PUSH1 0x40 MLOAD DUP1 SWAP2 SUB SWAP1 LOG2 PUSH2 0xBD3 PUSH2 0x149B JUMP JUMPDEST POP POP JUMP JUMPDEST PUSH2 0xBDF PUSH2 0x1304 JUMP JUMPDEST PUSH2 0xBE7 PUSH2 0x144C JUMP JUMPDEST PUSH0 DUP3 GT DUP1 ISZERO PUSH2 0xBF5 JUMPI POP PUSH0 DUP2 GT JUMPDEST PUSH2 0xC34 JUMPI PUSH1 0x40 MLOAD PUSH32 0x8C379A000000000000000000000000000000000000000000000000000000000 DUP2 MSTORE PUSH1 0x4 ADD PUSH2 0xC2B SWAP1 PUSH2 0x1C29 JUMP JUMPDEST PUSH1 0x40 MLOAD DUP1 SWAP2 SUB SWAP1 REVERT JUMPDEST PUSH0 DUP1 PUSH2 0xC3E PUSH2 0x212 JUMP JUMPDEST SWAP2 POP SWAP2 POP DUP2 DUP5 GT ISZERO DUP1 ISZERO PUSH2 0xC52 JUMPI POP DUP1 DUP4 GT ISZERO JUMPDEST PUSH2 0xC91 JUMPI PUSH1 0x40 MLOAD PUSH32 0x8C379A000000000000000000000000000000000000000000000000000000000 DUP2 MSTORE PUSH1 0x4 ADD PUSH2 0xC88 SWAP1 PUSH2 0x1957 JUMP JUMPDEST PUSH1 0x40 MLOAD DUP1 SWAP2 SUB SWAP1 REVERT JUMPDEST DUP4 PUSH1 0x4 PUSH0 DUP3 DUP3 SLOAD PUSH2 0xCA2 SWAP2 SWAP1 PUSH2 0x1C47 JUMP JUMPDEST SWAP3 POP POP DUP2 SWAP1 SSTORE POP DUP3 PUSH1 0x5 PUSH0 DUP3 DUP3 SLOAD PUSH2 0xCBA SWAP2 SWAP1 PUSH2 0x1C47 JUMP JUMPDEST SWAP3 POP POP DUP2 SWAP1 SSTORE POP PUSH1 0x2 PUSH0 SWAP1 SLOAD SWAP1 PUSH2 0x100 EXP SWAP1 DIV PUSH20 0xFFFFFFFFFFFFFFFFFFFFFFFFFFFFFFFFFFFFFFFF AND PUSH20 0xFFFFFFFFFFFFFFFFFFFFFFFFFFFFFFFFFFFFFFFF AND PUSH4 0xA9059CBB CALLER DUP7 PUSH1 0x40 MLOAD DUP4 PUSH4 0xFFFFFFFF AND PUSH1 0xE0 SHL DUP2 MSTORE PUSH1 0x4 ADD PUSH2 0xD1D SWAP3 SWAP2 SWAP1 PUSH2 0x1B0D JUMP JUMPDEST PUSH1 0x20 PUSH1 0x40 MLOAD DUP1 DUP4 SUB DUP2 PUSH0 DUP8 GAS CALL ISZERO DUP1 ISZERO PUSH2 0xD39 JUMPI RETURNDATASIZE PUSH0 DUP1 RETURNDATACOPY RETURNDATASIZE PUSH0 REVERT JUMPDEST POP POP POP POP PUSH1 0x40 MLOAD RETURNDATASIZE PUSH1 0x1F NOT PUSH1 0x1F DUP3 ADD AND DUP3 ADD DUP1 PUSH1 0x40 MSTORE POP DUP2 ADD SWAP1 PUSH2 0xD5D SWAP2 SWAP1 PUSH2 0x1A7A JUMP JUMPDEST PUSH2 0xD9C JUMPI PUSH1 0x40 MLOAD PUSH32 0x8C379A000000000000000000000000000000000000000000000000000000000 DUP2 MSTORE PUSH1 0x4 ADD PUSH2 0xD93 SWAP1 PUSH2 0x1B7E JUMP JUMPDEST PUSH1 0x40 MLOAD DUP1 SWAP2 SUB SWAP1 REVERT JUMPDEST PUSH1 0x3 PUSH0 SWAP1 SLOAD SWAP1 PUSH2 0x100 EXP SWAP1 DIV PUSH20 0xFFFFFFFFFFFFFFFFFFFFFFFFFFFFFFFFFFFFFFFF AND PUSH20 0xFFFFFFFFFFFFFFFFFFFFFFFFFFFFFFFFFFFFFFFF AND PUSH4 0xA9059CBB CALLER DUP6 PUSH1 0x40 MLOAD DUP4 PUSH4 0xFFFFFFFF AND PUSH1 0xE0 SHL DUP2 MSTORE PUSH1 0x4 ADD PUSH2 0xDF8 SWAP3 SWAP2 SWAP1 PUSH2 0x1B0D JUMP JUMPDEST PUSH1 0x20 PUSH1 0x40 MLOAD DUP1 DUP4 SUB DUP2 PUSH0 DUP8 GAS CALL ISZERO DUP1 ISZERO PUSH2 0xE14 JUMPI RETURNDATASIZE PUSH0 DUP1 RETURNDATACOPY RETURNDATASIZE PUSH0 REVERT JUMPDEST POP POP POP POP PUSH1 0x40 MLOAD RETURNDATASIZE PUSH1 0x1F NOT PUSH1 0x1F DUP3 ADD AND DUP3 ADD DUP1 PUSH1 0x40 MSTORE POP DUP2 ADD SWAP1 PUSH2 0xE38 SWAP2 SWAP1 PUSH2 0x1A7A JUMP JUMPDEST PUSH2 0xE77 JUMPI PUSH1 0x40 MLOAD PUSH32 0x8C379A000000000000000000000000000000000000000000000000000000000 DUP2 MSTORE PUSH1 0x4 ADD PUSH2 0xE6E SWAP1 PUSH2 0x1AEF JUMP JUMPDEST PUSH1 0x40 MLOAD DUP1 SWAP2 SUB SWAP1 REVERT JUMPDEST CALLER PUSH20 0xFFFFFFFFFFFFFFFFFFFFFFFFFFFFFFFFFFFFFFFF AND PUSH32 0x96CD817C6329656790EF8FBA7675405193677D39619571282F5E21F3A98CD059 DUP6 DUP6 PUSH1 0x40 MLOAD PUSH2 0xEBF SWAP3 SWAP2 SWAP1 PUSH2 0x14C3 JUMP JUMPDEST PUSH1 0x40 MLOAD DUP1 SWAP2 SUB SWAP1 LOG2 POP POP PUSH2 0xED1 PUSH2 0x149B JUMP JUMPDEST POP POP JUMP JUMPDEST PUSH0 PUSH2 0xEDE PUSH2 0x144C JUMP JUMPDEST PUSH0 DUP3 GT PUSH2 0xF20 JUMPI PUSH1 0x40 MLOAD PUSH32 0x8C379A000000000000000000000000000000000000000000000000000000000 DUP2 MSTORE PUSH1 0x4 ADD PUSH2 0xF17 SWAP1 PUSH2 0x18EF JUMP JUMPDEST PUSH1 0x40 MLOAD DUP1 SWAP2 SUB SWAP1 REVERT JUMPDEST PUSH0 DUP1 PUSH2 0xF2A PUSH2 0x212 JUMP JUMPDEST SWAP2 POP SWAP2 POP PUSH0 DUP3 GT DUP1 ISZERO PUSH2 0xF3C JUMPI POP PUSH0 DUP2 GT JUMPDEST PUSH2 0xF7B JUMPI PUSH1 0x40 MLOAD PUSH32 0x8C379A000000000000000000000000000000000000000000000000000000000 DUP2 MSTORE PUSH1 0x4 ADD PUSH2 0xF72 SWAP1 PUSH2 0x1957 JUMP JUMPDEST PUSH1 0x40 MLOAD DUP1 SWAP2 SUB SWAP1 REVERT JUMPDEST DUP4 DUP3 PUSH2 0xF87 SWAP2 SWAP1 PUSH2 0x1975 JUMP JUMPDEST DUP5 DUP3 PUSH2 0xF93 SWAP2 SWAP1 PUSH2 0x1807 JUMP JUMPDEST PUSH2 0xF9D SWAP2 SWAP1 PUSH2 0x1875 JUMP JUMPDEST SWAP3 POP PUSH0 DUP4 GT PUSH2 0xFE1 JUMPI PUSH1 0x40 MLOAD PUSH32 0x8C379A000000000000000000000000000000000000000000000000000000000 DUP2 MSTORE PUSH1 0x4 ADD PUSH2 0xFD8 SWAP1 PUSH2 0x19F2 JUMP JUMPDEST PUSH1 0x40 MLOAD DUP1 SWAP2 SUB SWAP1 REVERT JUMPDEST DUP1 DUP4 LT PUSH2 0x1023 JUMPI PUSH1 0x40 MLOAD PUSH32 0x8C379A000000000000000000000000000000000000000000000000000000000 DUP2 MSTORE PUSH1 0x4 ADD PUSH2 0x101A SWAP1 PUSH2 0x1957 JUMP JUMPDEST PUSH1 0x40 MLOAD DUP1 SWAP2 SUB SWAP1 REVERT JUMPDEST PUSH1 0x2 PUSH0 SWAP1 SLOAD SWAP1 PUSH2 0x100 EXP SWAP1 DIV PUSH20 0xFFFFFFFFFFFFFFFFFFFFFFFFFFFFFFFFFFFFFFFF AND PUSH20 0xFFFFFFFFFFFFFFFFFFFFFFFFFFFFFFFFFFFFFFFF AND PUSH4 0x23B872DD CALLER ADDRESS DUP8 PUSH1 0x40 MLOAD DUP5 PUSH4 0xFFFFFFFF AND PUSH1 0xE0 SHL DUP2 MSTORE PUSH1 0x4 ADD PUSH2 0x1081 SWAP4 SWAP3 SWAP2 SWAP1 PUSH2 0x1A10 JUMP JUMPDEST PUSH1 0x20 PUSH1 0x40 MLOAD DUP1 DUP4 SUB DUP2 PUSH0 DUP8 GAS CALL ISZERO DUP1 ISZERO PUSH2 0x109D JUMPI RETURNDATASIZE PUSH0 DUP1 RETURNDATACOPY RETURNDATASIZE PUSH0 REVERT JUMPDEST POP POP POP POP PUSH1 0x40 MLOAD RETURNDATASIZE PUSH1 0x1F NOT PUSH1 0x1F DUP3 ADD AND DUP3 ADD DUP1 PUSH1 0x40 MSTORE POP DUP2 ADD SWAP1 PUSH2 0x10C1 SWAP2 SWAP1 PUSH2 0x1A7A JUMP JUMPDEST PUSH2 0x1100 JUMPI PUSH1 0x40 MLOAD PUSH32 0x8C379A000000000000000000000000000000000000000000000000000000000 DUP2 MSTORE PUSH1 0x4 ADD PUSH2 0x10F7 SWAP1 PUSH2 0x1B7E JUMP JUMPDEST PUSH1 0x40 MLOAD DUP1 SWAP2 SUB SWAP1 REVERT JUMPDEST PUSH1 0x3 PUSH0 SWAP1 SLOAD SWAP1 PUSH2 0x100 EXP SWAP1 DIV PUSH20 0xFFFFFFFFFFFFFFFFFFFFFFFFFFFFFFFFFFFFFFFF AND PUSH20 0xFFFFFFFFFFFFFFFFFFFFFFFFFFFFFFFFFFFFFFFF AND PUSH4 0xA9059CBB CALLER DUP6 PUSH1 0x40 MLOAD DUP4 PUSH4 0xFFFFFFFF AND PUSH1 0xE0 SHL DUP2 MSTORE PUSH1 0x4 ADD PUSH2 0x115C SWAP3 SWAP2 SWAP1 PUSH2 0x1B0D JUMP JUMPDEST PUSH1 0x20 PUSH1 0x40 MLOAD DUP1 DUP4 SUB DUP2 PUSH0 DUP8 GAS CALL ISZERO DUP1 ISZERO PUSH2 0x1178 JUMPI RETURNDATASIZE PUSH0 DUP1 RETURNDATACOPY RETURNDATASIZE PUSH0 REVERT JUMPDEST POP POP POP POP PUSH1 0x40 MLOAD RETURNDATASIZE PUSH1 0x1F NOT PUSH1 0x1F DUP3 ADD AND DUP3 ADD DUP1 PUSH1 0x40 MSTORE POP DUP2 ADD SWAP1 PUSH2 0x119C SWAP2 SWAP1 PUSH2 0x1A7A JUMP JUMPDEST PUSH2 0x11DB JUMPI PUSH1 0x40 MLOAD PUSH32 0x8C379A000000000000000000000000000000000000000000000000000000000 DUP2 MSTORE PUSH1 0x4 ADD PUSH2 0x11D2 SWAP1 PUSH2 0x1AEF JUMP JUMPDEST PUSH1 0x40 MLOAD DUP1 SWAP2 SUB SWAP1 REVERT JUMPDEST CALLER PUSH20 0xFFFFFFFFFFFFFFFFFFFFFFFFFFFFFFFFFFFFFFFF AND PUSH32 0xD36CC53BA71BC76A3DB3364981F5296DD4CA5EBA0E8C89874F2170515BD20D24 PUSH1 0x2 PUSH0 SWAP1 SLOAD SWAP1 PUSH2 0x100 EXP SWAP1 DIV PUSH20 0xFFFFFFFFFFFFFFFFFFFFFFFFFFFFFFFFFFFFFFFF AND PUSH1 0x3 PUSH0 SWAP1 SLOAD SWAP1 PUSH2 0x100 EXP SWAP1 DIV PUSH20 0xFFFFFFFFFFFFFFFFFFFFFFFFFFFFFFFFFFFFFFFF AND DUP8 DUP8 PUSH1 0x40 MLOAD PUSH2 0x1269 SWAP5 SWAP4 SWAP3 SWAP2 SWAP1 PUSH2 0x1B9C JUMP JUMPDEST PUSH1 0x40 MLOAD DUP1 SWAP2 SUB SWAP1 LOG2 POP POP PUSH2 0x127B PUSH2 0x149B JUMP JUMPDEST SWAP2 SWAP1 POP JUMP JUMPDEST PUSH2 0x1288 PUSH2 0x1304 JUMP JUMPDEST PUSH0 PUSH20 0xFFFFFFFFFFFFFFFFFFFFFFFFFFFFFFFFFFFFFFFF AND DUP2 PUSH20 0xFFFFFFFFFFFFFFFFFFFFFFFFFFFFFFFFFFFFFFFF AND SUB PUSH2 0x12F8 JUMPI PUSH0 PUSH1 0x40 MLOAD PUSH32 0x1E4FBDF700000000000000000000000000000000000000000000000000000000 DUP2 MSTORE PUSH1 0x4 ADD PUSH2 0x12EF SWAP2 SWAP1 PUSH2 0x1664 JUMP JUMPDEST PUSH1 0x40 MLOAD DUP1 SWAP2 SUB SWAP1 REVERT JUMPDEST PUSH2 0x1301 DUP2 PUSH2 0x138B JUMP JUMPDEST POP JUMP JUMPDEST PUSH2 0x130C PUSH2 0x14A4 JUMP JUMPDEST PUSH20 0xFFFFFFFFFFFFFFFFFFFFFFFFFFFFFFFFFFFFFFFF AND PUSH2 0x132A PUSH2 0x93D JUMP JUMPDEST PUSH20 0xFFFFFFFFFFFFFFFFFFFFFFFFFFFFFFFFFFFFFFFF AND EQ PUSH2 0x1389 JUMPI PUSH2 0x134D PUSH2 0x14A4 JUMP JUMPDEST PUSH1 0x40 MLOAD PUSH32 0x118CDAA700000000000000000000000000000000000000000000000000000000 DUP2 MSTORE PUSH1 0x4 ADD PUSH2 0x1380 SWAP2 SWAP1 PUSH2 0x1664 JUMP JUMPDEST PUSH1 0x40 MLOAD DUP1 SWAP2 SUB SWAP1 REVERT JUMPDEST JUMP JUMPDEST PUSH0 DUP1 PUSH0 SWAP1 SLOAD SWAP1 PUSH2 0x100 EXP SWAP1 DIV PUSH20 0xFFFFFFFFFFFFFFFFFFFFFFFFFFFFFFFFFFFFFFFF AND SWAP1 POP DUP2 PUSH0 DUP1 PUSH2 0x100 EXP DUP2 SLOAD DUP2 PUSH20 0xFFFFFFFFFFFFFFFFFFFFFFFFFFFFFFFFFFFFFFFF MUL NOT AND SWAP1 DUP4 PUSH20 0xFFFFFFFFFFFFFFFFFFFFFFFFFFFFFFFFFFFFFFFF AND MUL OR SWAP1 SSTORE POP DUP2 PUSH20 0xFFFFFFFFFFFFFFFFFFFFFFFFFFFFFFFFFFFFFFFF AND DUP2 PUSH20 0xFFFFFFFFFFFFFFFFFFFFFFFFFFFFFFFFFFFFFFFF AND PUSH32 0x8BE0079C531659141344CD1FD0A4F28419497F9722A3DAAFE3B4186F6B6457E0 PUSH1 0x40 MLOAD PUSH1 0x40 MLOAD DUP1 SWAP2 SUB SWAP1 LOG3 POP POP JUMP JUMPDEST PUSH1 0x2 PUSH1 0x1 SLOAD SUB PUSH2 0x1491 JUMPI PUSH1 0x40 MLOAD PUSH32 0x8C379A000000000000000000000000000000000000000000000000000000000 DUP2 MSTORE PUSH1 0x4 ADD PUSH2 0x1488 SWAP1 PUSH2 0x1CC4 JUMP JUMPDEST PUSH1 0x40 MLOAD DUP1 SWAP2 SUB SWAP1 REVERT JUMPDEST PUSH1 0x2 PUSH1 0x1 DUP2 SWAP1 SSTORE POP JUMP JUMPDEST PUSH1 0x1 DUP1 DUP2 SWAP1 SSTORE POP JUMP JUMPDEST PUSH0 CALLER SWAP1 POP SWAP1 JUMP JUMPDEST PUSH0 DUP2 SWAP1 POP SWAP2 SWAP1 POP JUMP JUMPDEST PUSH2 0x14BD DUP2 PUSH2 0x14AB JUMP JUMPDEST DUP3 MSTORE POP POP JUMP JUMPDEST PUSH0 PUSH1 0x40 DUP3 ADD SWAP1 POP PUSH2 0x14D6 PUSH0 DUP4 ADD DUP6 PUSH2 0x14B4 JUMP JUMPDEST PUSH2 0x14E3 PUSH1 0x20 DUP4 ADD DUP5 PUSH2 0x14B4 JUMP JUMPDEST SWAP4 SWAP3 POP POP POP JUMP JUMPDEST PUSH0 PUSH20 0xFFFFFFFFFFFFFFFFFFFFFFFFFFFFFFFFFFFFFFFF DUP3 AND SWAP1 POP SWAP2 SWAP1 POP JUMP JUMPDEST PUSH0 DUP2 SWAP1 POP SWAP2 SWAP1 POP JUMP JUMPDEST PUSH0 PUSH2 0x152C PUSH2 0x1527 PUSH2 0x1522 DUP5 PUSH2 0x14EA JUMP JUMPDEST PUSH2 0x1509 JUMP JUMPDEST PUSH2 0x14EA JUMP JUMPDEST SWAP1 POP SWAP2 SWAP1 POP JUMP JUMPDEST PUSH0 PUSH2 0x153D DUP3 PUSH2 0x1512 JUMP JUMPDEST SWAP1 POP SWAP2 SWAP1 POP JUMP JUMPDEST PUSH0 PUSH2 0x154E DUP3 PUSH2 0x1533 JUMP JUMPDEST SWAP1 POP SWAP2 SWAP1 POP JUMP JUMPDEST PUSH2 0x155E DUP2 PUSH2 0x1544 JUMP JUMPDEST DUP3 MSTORE POP POP JUMP JUMPDEST PUSH0 PUSH1 0x20 DUP3 ADD SWAP1 POP PUSH2 0x1577 PUSH0 DUP4 ADD DUP5 PUSH2 0x1555 JUMP JUMPDEST SWAP3 SWAP2 POP POP JUMP JUMPDEST PUSH0 DUP1 REVERT JUMPDEST PUSH0 PUSH2 0x158B DUP3 PUSH2 0x14EA JUMP JUMPDEST SWAP1 POP SWAP2 SWAP1 POP JUMP JUMPDEST PUSH2 0x159B DUP2 PUSH2 0x1581 JUMP JUMPDEST DUP2 EQ PUSH2 0x15A5 JUMPI PUSH0 DUP1 REVERT JUMPDEST POP JUMP JUMPDEST PUSH0 DUP2 CALLDATALOAD SWAP1 POP PUSH2 0x15B6 DUP2 PUSH2 0x1592 JUMP JUMPDEST SWAP3 SWAP2 POP POP JUMP JUMPDEST PUSH0 PUSH1 0x20 DUP3 DUP5 SUB SLT ISZERO PUSH2 0x15D1 JUMPI PUSH2 0x15D0 PUSH2 0x157D JUMP JUMPDEST JUMPDEST PUSH0 PUSH2 0x15DE DUP5 DUP3 DUP6 ADD PUSH2 0x15A8 JUMP JUMPDEST SWAP2 POP POP SWAP3 SWAP2 POP POP JUMP JUMPDEST PUSH0 PUSH1 0x20 DUP3 ADD SWAP1 POP PUSH2 0x15FA PUSH0 DUP4 ADD DUP5 PUSH2 0x14B4 JUMP JUMPDEST SWAP3 SWAP2 POP POP JUMP JUMPDEST PUSH2 0x1609 DUP2 PUSH2 0x14AB JUMP JUMPDEST DUP2 EQ PUSH2 0x1613 JUMPI PUSH0 DUP1 REVERT JUMPDEST POP JUMP JUMPDEST PUSH0 DUP2 CALLDATALOAD SWAP1 POP PUSH2 0x1624 DUP2 PUSH2 0x1600 JUMP JUMPDEST SWAP3 SWAP2 POP POP JUMP JUMPDEST PUSH0 PUSH1 0x20 DUP3 DUP5 SUB SLT ISZERO PUSH2 0x163F JUMPI PUSH2 0x163E PUSH2 0x157D JUMP JUMPDEST JUMPDEST PUSH0 PUSH2 0x164C DUP5 DUP3 DUP6 ADD PUSH2 0x1616 JUMP JUMPDEST SWAP2 POP POP SWAP3 SWAP2 POP POP JUMP JUMPDEST PUSH2 0x165E DUP2 PUSH2 0x1581 JUMP JUMPDEST DUP3 MSTORE POP POP JUMP JUMPDEST PUSH0 PUSH1 0x20 DUP3 ADD SWAP1 POP PUSH2 0x1677 PUSH0 DUP4 ADD DUP5 PUSH2 0x1655 JUMP JUMPDEST SWAP3 SWAP2 POP POP JUMP JUMPDEST PUSH0 DUP1 PUSH1 0x40 DUP4 DUP6 SUB SLT ISZERO PUSH2 0x1693 JUMPI PUSH2 0x1692 PUSH2 0x157D JUMP JUMPDEST JUMPDEST PUSH0 PUSH2 0x16A0 DUP6 DUP3 DUP7 ADD PUSH2 0x1616 JUMP JUMPDEST SWAP3 POP POP PUSH1 0x20 PUSH2 0x16B1 DUP6 DUP3 DUP7 ADD PUSH2 0x1616 JUMP JUMPDEST SWAP2 POP POP SWAP3 POP SWAP3 SWAP1 POP JUMP JUMPDEST PUSH0 DUP2 MLOAD SWAP1 POP PUSH2 0x16C9 DUP2 PUSH2 0x1600 JUMP JUMPDEST SWAP3 SWAP2 POP POP JUMP JUMPDEST PUSH0 PUSH1 0x20 DUP3 DUP5 SUB SLT ISZERO PUSH2 0x16E4 JUMPI PUSH2 0x16E3 PUSH2 0x157D JUMP JUMPDEST JUMPDEST PUSH0 PUSH2 0x16F1 DUP5 DUP3 DUP6 ADD PUSH2 0x16BB JUMP JUMPDEST SWAP2 POP POP SWAP3 SWAP2 POP POP JUMP JUMPDEST PUSH0 DUP3 DUP3 MSTORE PUSH1 0x20 DUP3 ADD SWAP1 POP SWAP3 SWAP2 POP POP JUMP JUMPDEST PUSH32 0x496E76616C696420746F6B656E20616464726573730000000000000000000000 PUSH0 DUP3 ADD MSTORE POP JUMP JUMPDEST PUSH0 PUSH2 0x173E PUSH1 0x15 DUP4 PUSH2 0x16FA JUMP JUMPDEST SWAP2 POP PUSH2 0x1749 DUP3 PUSH2 0x170A JUMP JUMPDEST PUSH1 0x20 DUP3 ADD SWAP1 POP SWAP2 SWAP1 POP JUMP JUMPDEST PUSH0 PUSH1 0x20 DUP3 ADD SWAP1 POP DUP2 DUP2 SUB PUSH0 DUP4 ADD MSTORE PUSH2 0x176B DUP2 PUSH2 0x1732 JUMP JUMPDEST SWAP1 POP SWAP2 SWAP1 POP JUMP JUMPDEST PUSH32 0x456D707479207265736572766573000000000000000000000000000000000000 PUSH0 DUP3 ADD MSTORE POP JUMP JUMPDEST PUSH0 PUSH2 0x17A6 PUSH1 0xE DUP4 PUSH2 0x16FA JUMP JUMPDEST SWAP2 POP PUSH2 0x17B1 DUP3 PUSH2 0x1772 JUMP JUMPDEST PUSH1 0x20 DUP3 ADD SWAP1 POP SWAP2 SWAP1 POP JUMP JUMPDEST PUSH0 PUSH1 0x20 DUP3 ADD SWAP1 POP DUP2 DUP2 SUB PUSH0 DUP4 ADD MSTORE PUSH2 0x17D3 DUP2 PUSH2 0x179A JUMP JUMPDEST SWAP1 POP SWAP2 SWAP1 POP JUMP JUMPDEST PUSH32 0x4E487B7100000000000000000000000000000000000000000000000000000000 PUSH0 MSTORE PUSH1 0x11 PUSH1 0x4 MSTORE PUSH1 0x24 PUSH0 REVERT JUMPDEST PUSH0 PUSH2 0x1811 DUP3 PUSH2 0x14AB JUMP JUMPDEST SWAP2 POP PUSH2 0x181C DUP4 PUSH2 0x14AB JUMP JUMPDEST SWAP3 POP DUP3 DUP3 MUL PUSH2 0x182A DUP2 PUSH2 0x14AB JUMP JUMPDEST SWAP2 POP DUP3 DUP3 DIV DUP5 EQ DUP4 ISZERO OR PUSH2 0x1841 JUMPI PUSH2 0x1840 PUSH2 0x17DA JUMP JUMPDEST JUMPDEST POP SWAP3 SWAP2 POP POP JUMP JUMPDEST PUSH32 0x4E487B7100000000000000000000000000000000000000000000000000000000 PUSH0 MSTORE PUSH1 0x12 PUSH1 0x4 MSTORE PUSH1 0x24 PUSH0 REVERT JUMPDEST PUSH0 PUSH2 0x187F DUP3 PUSH2 0x14AB JUMP JUMPDEST SWAP2 POP PUSH2 0x188A DUP4 PUSH2 0x14AB JUMP JUMPDEST SWAP3 POP DUP3 PUSH2 0x189A JUMPI PUSH2 0x1899 PUSH2 0x1848 JUMP JUMPDEST JUMPDEST DUP3 DUP3 DIV SWAP1 POP SWAP3 SWAP2 POP POP JUMP JUMPDEST PUSH32 0x416D6F756E74206D7573742062652067726561746572207468616E2030000000 PUSH0 DUP3 ADD MSTORE POP JUMP JUMPDEST PUSH0 PUSH2 0x18D9 PUSH1 0x1D DUP4 PUSH2 0x16FA JUMP JUMPDEST SWAP2 POP PUSH2 0x18E4 DUP3 PUSH2 0x18A5 JUMP JUMPDEST PUSH1 0x20 DUP3 ADD SWAP1 POP SWAP2 SWAP1 POP JUMP JUMPDEST PUSH0 PUSH1 0x20 DUP3 ADD SWAP1 POP DUP2 DUP2 SUB PUSH0 DUP4 ADD MSTORE PUSH2 0x1906 DUP2 PUSH2 0x18CD JUMP JUMPDEST SWAP1 POP SWAP2 SWAP1 POP JUMP JUMPDEST PUSH32 0x496E73756666696369656E74206C697175696469747900000000000000000000 PUSH0 DUP3 ADD MSTORE POP JUMP JUMPDEST PUSH0 PUSH2 0x1941 PUSH1 0x16 DUP4 PUSH2 0x16FA JUMP JUMPDEST SWAP2 POP PUSH2 0x194C DUP3 PUSH2 0x190D JUMP JUMPDEST PUSH1 0x20 DUP3 ADD SWAP1 POP SWAP2 SWAP1 POP JUMP JUMPDEST PUSH0 PUSH1 0x20 DUP3 ADD SWAP1 POP DUP2 DUP2 SUB PUSH0 DUP4 ADD MSTORE PUSH2 0x196E DUP2 PUSH2 0x1935 JUMP JUMPDEST SWAP1 POP SWAP2 SWAP1 POP JUMP JUMPDEST PUSH0 PUSH2 0x197F DUP3 PUSH2 0x14AB JUMP JUMPDEST SWAP2 POP PUSH2 0x198A DUP4 PUSH2 0x14AB JUMP JUMPDEST SWAP3 POP DUP3 DUP3 ADD SWAP1 POP DUP1 DUP3 GT ISZERO PUSH2 0x19A2 JUMPI PUSH2 0x19A1 PUSH2 0x17DA JUMP JUMPDEST JUMPDEST SWAP3 SWAP2 POP POP JUMP JUMPDEST PUSH32 0x496E73756666696369656E74206F757470757420616D6F756E74000000000000 PUSH0 DUP3 ADD MSTORE POP JUMP JUMPDEST PUSH0 PUSH2 0x19DC PUSH1 0x1A DUP4 PUSH2 0x16FA JUMP JUMPDEST SWAP2 POP PUSH2 0x19E7 DUP3 PUSH2 0x19A8 JUMP JUMPDEST PUSH1 0x20 DUP3 ADD SWAP1 POP SWAP2 SWAP1 POP JUMP JUMPDEST PUSH0 PUSH1 0x20 DUP3 ADD SWAP1 POP DUP2 DUP2 SUB PUSH0 DUP4 ADD MSTORE PUSH2 0x1A09 DUP2 PUSH2 0x19D0 JUMP JUMPDEST SWAP1 POP SWAP2 SWAP1 POP JUMP JUMPDEST PUSH0 PUSH1 0x60 DUP3 ADD SWAP1 POP PUSH2 0x1A23 PUSH0 DUP4 ADD DUP7 PUSH2 0x1655 JUMP JUMPDEST PUSH2 0x1A30 PUSH1 0x20 DUP4 ADD DUP6 PUSH2 0x1655 JUMP JUMPDEST PUSH2 0x1A3D PUSH1 0x40 DUP4 ADD DUP5 PUSH2 0x14B4 JUMP JUMPDEST SWAP5 SWAP4 POP POP POP POP JUMP JUMPDEST PUSH0 DUP2 ISZERO ISZERO SWAP1 POP SWAP2 SWAP1 POP JUMP JUMPDEST PUSH2 0x1A59 DUP2 PUSH2 0x1A45 JUMP JUMPDEST DUP2 EQ PUSH2 0x1A63 JUMPI PUSH0 DUP1 REVERT JUMPDEST POP JUMP JUMPDEST PUSH0 DUP2 MLOAD SWAP1 POP PUSH2 0x1A74 DUP2 PUSH2 0x1A50 JUMP JUMPDEST SWAP3 SWAP2 POP POP JUMP JUMPDEST PUSH0 PUSH1 0x20 DUP3 DUP5 SUB SLT ISZERO PUSH2 0x1A8F JUMPI PUSH2 0x1A8E PUSH2 0x157D JUMP JUMPDEST JUMPDEST PUSH0 PUSH2 0x1A9C DUP5 DUP3 DUP6 ADD PUSH2 0x1A66 JUMP JUMPDEST SWAP2 POP POP SWAP3 SWAP2 POP POP JUMP JUMPDEST PUSH32 0x5472616E73666572206F6620746F6B656E42206661696C656400000000000000 PUSH0 DUP3 ADD MSTORE POP JUMP JUMPDEST PUSH0 PUSH2 0x1AD9 PUSH1 0x19 DUP4 PUSH2 0x16FA JUMP JUMPDEST SWAP2 POP PUSH2 0x1AE4 DUP3 PUSH2 0x1AA5 JUMP JUMPDEST PUSH1 0x20 DUP3 ADD SWAP1 POP SWAP2 SWAP1 POP JUMP JUMPDEST PUSH0 PUSH1 0x20 DUP3 ADD SWAP1 POP DUP2 DUP2 SUB PUSH0 DUP4 ADD MSTORE PUSH2 0x1B06 DUP2 PUSH2 0x1ACD JUMP JUMPDEST SWAP1 POP SWAP2 SWAP1 POP JUMP JUMPDEST PUSH0 PUSH1 0x40 DUP3 ADD SWAP1 POP PUSH2 0x1B20 PUSH0 DUP4 ADD DUP6 PUSH2 0x1655 JUMP JUMPDEST PUSH2 0x1B2D PUSH1 0x20 DUP4 ADD DUP5 PUSH2 0x14B4 JUMP JUMPDEST SWAP4 SWAP3 POP POP POP JUMP JUMPDEST PUSH32 0x5472616E73666572206F6620746F6B656E41206661696C656400000000000000 PUSH0 DUP3 ADD MSTORE POP JUMP JUMPDEST PUSH0 PUSH2 0x1B68 PUSH1 0x19 DUP4 PUSH2 0x16FA JUMP JUMPDEST SWAP2 POP PUSH2 0x1B73 DUP3 PUSH2 0x1B34 JUMP JUMPDEST PUSH1 0x20 DUP3 ADD SWAP1 POP SWAP2 SWAP1 POP JUMP JUMPDEST PUSH0 PUSH1 0x20 DUP3 ADD SWAP1 POP DUP2 DUP2 SUB PUSH0 DUP4 ADD MSTORE PUSH2 0x1B95 DUP2 PUSH2 0x1B5C JUMP JUMPDEST SWAP1 POP SWAP2 SWAP1 POP JUMP JUMPDEST PUSH0 PUSH1 0x80 DUP3 ADD SWAP1 POP PUSH2 0x1BAF PUSH0 DUP4 ADD DUP8 PUSH2 0x1655 JUMP JUMPDEST PUSH2 0x1BBC PUSH1 0x20 DUP4 ADD DUP7 PUSH2 0x1655 JUMP JUMPDEST PUSH2 0x1BC9 PUSH1 0x40 DUP4 ADD DUP6 PUSH2 0x14B4 JUMP JUMPDEST PUSH2 0x1BD6 PUSH1 0x60 DUP4 ADD DUP5 PUSH2 0x14B4 JUMP JUMPDEST SWAP6 SWAP5 POP POP POP POP POP JUMP JUMPDEST PUSH32 0x416D6F756E7473206D7573742062652067726561746572207468616E20300000 PUSH0 DUP3 ADD MSTORE POP JUMP JUMPDEST PUSH0 PUSH2 0x1C13 PUSH1 0x1E DUP4 PUSH2 0x16FA JUMP JUMPDEST SWAP2 POP PUSH2 0x1C1E DUP3 PUSH2 0x1BDF JUMP JUMPDEST PUSH1 0x20 DUP3 ADD SWAP1 POP SWAP2 SWAP1 POP JUMP JUMPDEST PUSH0 PUSH1 0x20 DUP3 ADD SWAP1 POP DUP2 DUP2 SUB PUSH0 DUP4 ADD MSTORE PUSH2 0x1C40 DUP2 PUSH2 0x1C07 JUMP JUMPDEST SWAP1 POP SWAP2 SWAP1 POP JUMP JUMPDEST PUSH0 PUSH2 0x1C51 DUP3 PUSH2 0x14AB JUMP JUMPDEST SWAP2 POP PUSH2 0x1C5C DUP4 PUSH2 0x14AB JUMP JUMPDEST SWAP3 POP DUP3 DUP3 SUB SWAP1 POP DUP2 DUP2 GT ISZERO PUSH2 0x1C74 JUMPI PUSH2 0x1C73 PUSH2 0x17DA JUMP JUMPDEST JUMPDEST SWAP3 SWAP2 POP POP JUMP JUMPDEST PUSH32 0x5265656E7472616E637947756172643A207265656E7472616E742063616C6C00 PUSH0 DUP3 ADD MSTORE POP JUMP JUMPDEST PUSH0 PUSH2 0x1CAE PUSH1 0x1F DUP4 PUSH2 0x16FA JUMP JUMPDEST SWAP2 POP PUSH2 0x1CB9 DUP3 PUSH2 0x1C7A JUMP JUMPDEST PUSH1 0x20 DUP3 ADD SWAP1 POP SWAP2 SWAP1 POP JUMP JUMPDEST PUSH0 PUSH1 0x20 DUP3 ADD SWAP1 POP DUP2 DUP2 SUB PUSH0 DUP4 ADD MSTORE PUSH2 0x1CDB DUP2 PUSH2 0x1CA2 JUMP JUMPDEST SWAP1 POP SWAP2 SWAP1 POP JUMP INVALID LOG2 PUSH5 0x6970667358 0x22 SLT KECCAK256 NUMBER 0xEC 0xBD SLOAD 0xC5 XOR 0xEF PUSH18 0xD7EE6661907B19D8DF9F21FA6D33D8DB8D30 PUSH23 0x5AFADD91B964736F6C634300081A003300000000000000 "
				},
				"gasEstimates": {
					"creation": {
						"codeDepositCost": "1489600",
						"executionCost": "infinite",
						"totalCost": "infinite"
					},
					"external": {
						"addLiquidity(uint256,uint256)": "infinite",
						"getPrice(address)": "infinite",
						"getReserves()": "infinite",
						"owner()": "2537",
						"removeLiquidity(uint256,uint256)": "infinite",
						"renounceOwnership()": "infinite",
						"swapAforB(uint256)": "infinite",
						"swapBforA(uint256)": "infinite",
						"tokenA()": "infinite",
						"tokenB()": "infinite",
						"transferOwnership(address)": "infinite"
					}
				},
				"methodIdentifiers": {
					"addLiquidity(uint256,uint256)": "9cd441da",
					"getPrice(address)": "41976e09",
					"getReserves()": "0902f1ac",
					"owner()": "8da5cb5b",
					"removeLiquidity(uint256,uint256)": "9d7de6b3",
					"renounceOwnership()": "715018a6",
					"swapAforB(uint256)": "e4f1f70a",
					"swapBforA(uint256)": "8014a7aa",
					"tokenA()": "0fc63d10",
					"tokenB()": "5f64b55b",
					"transferOwnership(address)": "f2fde38b"
				}
			},
			"storageLayout": {
				"storage": [
					{
						"astId": 8,
						"contract": "contracts/Tp_Final_Mod03/SimpleDEX.sol:SimpleDEX",
						"label": "_owner",
						"offset": 0,
						"slot": "0",
						"type": "t_address"
					},
					{
						"astId": 158,
						"contract": "contracts/Tp_Final_Mod03/SimpleDEX.sol:SimpleDEX",
						"label": "_status",
						"offset": 0,
						"slot": "1",
						"type": "t_uint256"
					},
					{
						"astId": 334,
						"contract": "contracts/Tp_Final_Mod03/SimpleDEX.sol:SimpleDEX",
						"label": "tokenA",
						"offset": 0,
						"slot": "2",
						"type": "t_contract(IERC20)290"
					},
					{
						"astId": 338,
						"contract": "contracts/Tp_Final_Mod03/SimpleDEX.sol:SimpleDEX",
						"label": "tokenB",
						"offset": 0,
						"slot": "3",
						"type": "t_contract(IERC20)290"
					},
					{
						"astId": 340,
						"contract": "contracts/Tp_Final_Mod03/SimpleDEX.sol:SimpleDEX",
						"label": "poolTokenA",
						"offset": 0,
						"slot": "4",
						"type": "t_uint256"
					},
					{
						"astId": 342,
						"contract": "contracts/Tp_Final_Mod03/SimpleDEX.sol:SimpleDEX",
						"label": "poolTokenB",
						"offset": 0,
						"slot": "5",
						"type": "t_uint256"
					}
				],
				"types": {
					"t_address": {
						"encoding": "inplace",
						"label": "address",
						"numberOfBytes": "20"
					},
					"t_contract(IERC20)290": {
						"encoding": "inplace",
						"label": "contract IERC20",
						"numberOfBytes": "20"
					},
					"t_uint256": {
						"encoding": "inplace",
						"label": "uint256",
						"numberOfBytes": "32"
					}
				}
			},
			"userdoc": {
				"kind": "user",
				"methods": {
					"addLiquidity(uint256,uint256)": {
						"notice": "Only the owner can call this functionTokens must be approved before calling this function"
					},
					"getPrice(address)": {
						"notice": "Price is expressed as how many of the other token you get for 1 of this token"
					},
					"removeLiquidity(uint256,uint256)": {
						"notice": "Only the owner can call this function"
					},
					"swapAforB(uint256)": {
						"notice": "Tokens must be approved before calling this function"
					},
					"swapBforA(uint256)": {
						"notice": "Tokens must be approved before calling this function"
					},
					"tokenA()": {
						"notice": "The first token in the trading pair"
					},
					"tokenB()": {
						"notice": "The second token in the trading pair"
					}
				},
				"notice": "The contract implements security measures including reentrancy protection and access control.",
				"version": 1
			}
		}
	}
}