{
	"data": {
		"bytecode": {
			"linkReferences": {},
			"object": "60806040526002600355348015610014575f80fd5b5060405161101b38038061101b83398181016040528101906100369190610126565b5f8311610078576040517f08c379a000000000000000000000000000000000000000000000000000000000815260040161006f906101f6565b60405180910390fd5b335f806101000a81548173ffffffffffffffffffffffffffffffffffffffff021916908373ffffffffffffffffffffffffffffffffffffffff16021790555082600181905550826002819055508160038190555080600481905550600454426100e19190610241565b600581905550505050610274565b5f80fd5b5f819050919050565b610105816100f3565b811461010f575f80fd5b50565b5f81519050610120816100fc565b92915050565b5f805f6060848603121561013d5761013c6100ef565b5b5f61014a86828701610112565b935050602061015b86828701610112565b925050604061016c86828701610112565b9150509250925092565b5f82825260208201905092915050565b7f54686520696e697469616c2076616c7565206d757374206265206772656174655f8201527f72207468616e207a65726f20666f722074686520676173000000000000000000602082015250565b5f6101e0603783610176565b91506101eb82610186565b604082019050919050565b5f6020820190508181035f83015261020d816101d4565b9050919050565b7f4e487b71000000000000000000000000000000000000000000000000000000005f52601160045260245ffd5b5f61024b826100f3565b9150610256836100f3565b925082820190508082111561026e5761026d610214565b5b92915050565b610d9a806102815f395ff3fe60806040526004361061007a575f3560e01c8063b7e032641161004d578063b7e0326414610118578063c2741fb11461012e578063cff29dfd1461016a578063f30e3658146101a75761007a565b8063362e25651461007e578063383e77cb14610088578063413bf38f146100b257806357ff41e4146100ee575b5f80fd5b6100866101b1565b005b348015610093575f80fd5b5061009c610285565b6040516100a99190610756565b60405180910390f35b3480156100bd575f80fd5b506100d860048036038101906100d391906107cd565b61028e565b6040516100e59190610756565b60405180910390f35b3480156100f9575f80fd5b506101026102a3565b60405161010f91906108eb565b60405180910390f35b348015610123575f80fd5b5061012c6103c6565b005b348015610139575f80fd5b50610154600480360381019061014f9190610935565b61040d565b604051610161919061096f565b60405180910390f35b348015610175575f80fd5b50610190600480360381019061018b9190610935565b610448565b60405161019e929190610988565b60405180910390f35b6101af610496565b005b5f8054906101000a900473ffffffffffffffffffffffffffffffffffffffff1673ffffffffffffffffffffffffffffffffffffffff163373ffffffffffffffffffffffffffffffffffffffff161461023e576040517f08c379a000000000000000000000000000000000000000000000000000000000815260040161023590610a2f565b60405180910390fd5b600554421015610283576040517f08c379a000000000000000000000000000000000000000000000000000000000815260040161027a90610a97565b60405180910390fd5b565b5f600254905090565b6006602052805f5260405f205f915090505481565b60605f60088054905090505f5b818110156103c1576040518060400160405280600883815481106102d7576102d6610ab5565b5b905f5260205f20015f9054906101000a900473ffffffffffffffffffffffffffffffffffffffff1673ffffffffffffffffffffffffffffffffffffffff16815260200160065f6008858154811061033157610330610ab5565b5b905f5260205f20015f9054906101000a900473ffffffffffffffffffffffffffffffffffffffff1673ffffffffffffffffffffffffffffffffffffffff1673ffffffffffffffffffffffffffffffffffffffff1681526020019081526020015f20548152508382815181106103a9576103a8610ab5565b5b602002602001018190525080806001019150506102b0565b505090565b60055442101561040b576040517f08c379a000000000000000000000000000000000000000000000000000000000815260040161040290610b2c565b60405180910390fd5b565b6008818154811061041c575f80fd5b905f5260205f20015f915054906101000a900473ffffffffffffffffffffffffffffffffffffffff1681565b60078181548110610457575f80fd5b905f5260205f2090600202015f91509050805f015f9054906101000a900473ffffffffffffffffffffffffffffffffffffffff16908060010154905082565b60055442106104da576040517f08c379a00000000000000000000000000000000000000000000000000000000081526004016104d190610b94565b60405180910390fd5b5f3390505f3490506064806003546104f29190610bdf565b6104fc9190610c3f565b6002546105099190610c6f565b811161054a576040517f08c379a000000000000000000000000000000000000000000000000000000000815260040161054190610d46565b60405180910390fd5b5f60065f8473ffffffffffffffffffffffffffffffffffffffff1673ffffffffffffffffffffffffffffffffffffffff1681526020019081526020015f2054036105ef57600882908060018154018082558091505060019003905f5260205f20015f9091909190916101000a81548173ffffffffffffffffffffffffffffffffffffffff021916908373ffffffffffffffffffffffffffffffffffffffff1602179055505b8060065f8473ffffffffffffffffffffffffffffffffffffffff1673ffffffffffffffffffffffffffffffffffffffff1681526020019081526020015f205f82825461063b9190610bdf565b9250508190555080600281905550600760405180604001604052808473ffffffffffffffffffffffffffffffffffffffff16815260200183815250908060018154018082558091505060019003905f5260205f2090600202015f909190919091505f820151815f015f6101000a81548173ffffffffffffffffffffffffffffffffffffffff021916908373ffffffffffffffffffffffffffffffffffffffff1602179055506020820151816001015550508173ffffffffffffffffffffffffffffffffffffffff167fdd0b6c6a77960e2066c96171b4d7ac9e8b4c184011f38544afa36a5bb63ec59f826040516107329190610756565b60405180910390a25050565b5f819050919050565b6107508161073e565b82525050565b5f6020820190506107695f830184610747565b92915050565b5f80fd5b5f73ffffffffffffffffffffffffffffffffffffffff82169050919050565b5f61079c82610773565b9050919050565b6107ac81610792565b81146107b6575f80fd5b50565b5f813590506107c7816107a3565b92915050565b5f602082840312156107e2576107e161076f565b5b5f6107ef848285016107b9565b91505092915050565b5f81519050919050565b5f82825260208201905092915050565b5f819050602082019050919050565b61082a81610792565b82525050565b6108398161073e565b82525050565b604082015f8201516108535f850182610821565b5060208201516108666020850182610830565b50505050565b5f610877838361083f565b60408301905092915050565b5f602082019050919050565b5f610899826107f8565b6108a38185610802565b93506108ae83610812565b805f5b838110156108de5781516108c5888261086c565b97506108d083610883565b9250506001810190506108b1565b5085935050505092915050565b5f6020820190508181035f830152610903818461088f565b905092915050565b6109148161073e565b811461091e575f80fd5b50565b5f8135905061092f8161090b565b92915050565b5f6020828403121561094a5761094961076f565b5b5f61095784828501610921565b91505092915050565b61096981610792565b82525050565b5f6020820190506109825f830184610960565b92915050565b5f60408201905061099b5f830185610960565b6109a86020830184610747565b9392505050565b5f82825260208201905092915050565b7f4f6e6c79207468652061756374696f6e206f776e65722063616e2065786563755f8201527f746520746869732066756e6374696f6e00000000000000000000000000000000602082015250565b5f610a196030836109af565b9150610a24826109bf565b604082019050919050565b5f6020820190508181035f830152610a4681610a0d565b9050919050565b7f5468652061756374696f6e20686173206e6f7420656e646564000000000000005f82015250565b5f610a816019836109af565b9150610a8c82610a4d565b602082019050919050565b5f6020820190508181035f830152610aae81610a75565b9050919050565b7f4e487b71000000000000000000000000000000000000000000000000000000005f52603260045260245ffd5b7f5468652061756374696f6e20686173206e6f742079657420656e6465640000005f82015250565b5f610b16601d836109af565b9150610b2182610ae2565b602082019050919050565b5f6020820190508181035f830152610b4381610b0a565b9050919050565b7f5468652061756374696f6e2068617320656e64656400000000000000000000005f82015250565b5f610b7e6015836109af565b9150610b8982610b4a565b602082019050919050565b5f6020820190508181035f830152610bab81610b72565b9050919050565b7f4e487b71000000000000000000000000000000000000000000000000000000005f52601160045260245ffd5b5f610be98261073e565b9150610bf48361073e565b9250828201905080821115610c0c57610c0b610bb2565b5b92915050565b7f4e487b71000000000000000000000000000000000000000000000000000000005f52601260045260245ffd5b5f610c498261073e565b9150610c548361073e565b925082610c6457610c63610c12565b5b828204905092915050565b5f610c798261073e565b9150610c848361073e565b9250828202610c928161073e565b91508282048414831517610ca957610ca8610bb2565b5b5092915050565b7f54686520626964206d75737420657863656564207468652062657374206f66665f8201527f65722c2074616b696e6720696e746f206163636f756e7420746865206d696e6960208201527f6d756d20696e6372656d656e74616c2076616c75650000000000000000000000604082015250565b5f610d306055836109af565b9150610d3b82610cb0565b606082019050919050565b5f6020820190508181035f830152610d5d81610d24565b905091905056fea26469706673582212203c07d66fe965ac17a4cb994638ae3ed52a637b4732d56d3d2639c38bf5620f3c64736f6c634300081a0033",
			"opcodes": "PUSH1 0x80 PUSH1 0x40 MSTORE PUSH1 0x2 PUSH1 0x3 SSTORE CALLVALUE DUP1 ISZERO PUSH2 0x14 JUMPI PUSH0 DUP1 REVERT JUMPDEST POP PUSH1 0x40 MLOAD PUSH2 0x101B CODESIZE SUB DUP1 PUSH2 0x101B DUP4 CODECOPY DUP2 DUP2 ADD PUSH1 0x40 MSTORE DUP2 ADD SWAP1 PUSH2 0x36 SWAP2 SWAP1 PUSH2 0x126 JUMP JUMPDEST PUSH0 DUP4 GT PUSH2 0x78 JUMPI PUSH1 0x40 MLOAD PUSH32 0x8C379A000000000000000000000000000000000000000000000000000000000 DUP2 MSTORE PUSH1 0x4 ADD PUSH2 0x6F SWAP1 PUSH2 0x1F6 JUMP JUMPDEST PUSH1 0x40 MLOAD DUP1 SWAP2 SUB SWAP1 REVERT JUMPDEST CALLER PUSH0 DUP1 PUSH2 0x100 EXP DUP2 SLOAD DUP2 PUSH20 0xFFFFFFFFFFFFFFFFFFFFFFFFFFFFFFFFFFFFFFFF MUL NOT AND SWAP1 DUP4 PUSH20 0xFFFFFFFFFFFFFFFFFFFFFFFFFFFFFFFFFFFFFFFF AND MUL OR SWAP1 SSTORE POP DUP3 PUSH1 0x1 DUP2 SWAP1 SSTORE POP DUP3 PUSH1 0x2 DUP2 SWAP1 SSTORE POP DUP2 PUSH1 0x3 DUP2 SWAP1 SSTORE POP DUP1 PUSH1 0x4 DUP2 SWAP1 SSTORE POP PUSH1 0x4 SLOAD TIMESTAMP PUSH2 0xE1 SWAP2 SWAP1 PUSH2 0x241 JUMP JUMPDEST PUSH1 0x5 DUP2 SWAP1 SSTORE POP POP POP POP PUSH2 0x274 JUMP JUMPDEST PUSH0 DUP1 REVERT JUMPDEST PUSH0 DUP2 SWAP1 POP SWAP2 SWAP1 POP JUMP JUMPDEST PUSH2 0x105 DUP2 PUSH2 0xF3 JUMP JUMPDEST DUP2 EQ PUSH2 0x10F JUMPI PUSH0 DUP1 REVERT JUMPDEST POP JUMP JUMPDEST PUSH0 DUP2 MLOAD SWAP1 POP PUSH2 0x120 DUP2 PUSH2 0xFC JUMP JUMPDEST SWAP3 SWAP2 POP POP JUMP JUMPDEST PUSH0 DUP1 PUSH0 PUSH1 0x60 DUP5 DUP7 SUB SLT ISZERO PUSH2 0x13D JUMPI PUSH2 0x13C PUSH2 0xEF JUMP JUMPDEST JUMPDEST PUSH0 PUSH2 0x14A DUP7 DUP3 DUP8 ADD PUSH2 0x112 JUMP JUMPDEST SWAP4 POP POP PUSH1 0x20 PUSH2 0x15B DUP7 DUP3 DUP8 ADD PUSH2 0x112 JUMP JUMPDEST SWAP3 POP POP PUSH1 0x40 PUSH2 0x16C DUP7 DUP3 DUP8 ADD PUSH2 0x112 JUMP JUMPDEST SWAP2 POP POP SWAP3 POP SWAP3 POP SWAP3 JUMP JUMPDEST PUSH0 DUP3 DUP3 MSTORE PUSH1 0x20 DUP3 ADD SWAP1 POP SWAP3 SWAP2 POP POP JUMP JUMPDEST PUSH32 0x54686520696E697469616C2076616C7565206D75737420626520677265617465 PUSH0 DUP3 ADD MSTORE PUSH32 0x72207468616E207A65726F20666F722074686520676173000000000000000000 PUSH1 0x20 DUP3 ADD MSTORE POP JUMP JUMPDEST PUSH0 PUSH2 0x1E0 PUSH1 0x37 DUP4 PUSH2 0x176 JUMP JUMPDEST SWAP2 POP PUSH2 0x1EB DUP3 PUSH2 0x186 JUMP JUMPDEST PUSH1 0x40 DUP3 ADD SWAP1 POP SWAP2 SWAP1 POP JUMP JUMPDEST PUSH0 PUSH1 0x20 DUP3 ADD SWAP1 POP DUP2 DUP2 SUB PUSH0 DUP4 ADD MSTORE PUSH2 0x20D DUP2 PUSH2 0x1D4 JUMP JUMPDEST SWAP1 POP SWAP2 SWAP1 POP JUMP JUMPDEST PUSH32 0x4E487B7100000000000000000000000000000000000000000000000000000000 PUSH0 MSTORE PUSH1 0x11 PUSH1 0x4 MSTORE PUSH1 0x24 PUSH0 REVERT JUMPDEST PUSH0 PUSH2 0x24B DUP3 PUSH2 0xF3 JUMP JUMPDEST SWAP2 POP PUSH2 0x256 DUP4 PUSH2 0xF3 JUMP JUMPDEST SWAP3 POP DUP3 DUP3 ADD SWAP1 POP DUP1 DUP3 GT ISZERO PUSH2 0x26E JUMPI PUSH2 0x26D PUSH2 0x214 JUMP JUMPDEST JUMPDEST SWAP3 SWAP2 POP POP JUMP JUMPDEST PUSH2 0xD9A DUP1 PUSH2 0x281 PUSH0 CODECOPY PUSH0 RETURN INVALID PUSH1 0x80 PUSH1 0x40 MSTORE PUSH1 0x4 CALLDATASIZE LT PUSH2 0x7A JUMPI PUSH0 CALLDATALOAD PUSH1 0xE0 SHR DUP1 PUSH4 0xB7E03264 GT PUSH2 0x4D JUMPI DUP1 PUSH4 0xB7E03264 EQ PUSH2 0x118 JUMPI DUP1 PUSH4 0xC2741FB1 EQ PUSH2 0x12E JUMPI DUP1 PUSH4 0xCFF29DFD EQ PUSH2 0x16A JUMPI DUP1 PUSH4 0xF30E3658 EQ PUSH2 0x1A7 JUMPI PUSH2 0x7A JUMP JUMPDEST DUP1 PUSH4 0x362E2565 EQ PUSH2 0x7E JUMPI DUP1 PUSH4 0x383E77CB EQ PUSH2 0x88 JUMPI DUP1 PUSH4 0x413BF38F EQ PUSH2 0xB2 JUMPI DUP1 PUSH4 0x57FF41E4 EQ PUSH2 0xEE JUMPI JUMPDEST PUSH0 DUP1 REVERT JUMPDEST PUSH2 0x86 PUSH2 0x1B1 JUMP JUMPDEST STOP JUMPDEST CALLVALUE DUP1 ISZERO PUSH2 0x93 JUMPI PUSH0 DUP1 REVERT JUMPDEST POP PUSH2 0x9C PUSH2 0x285 JUMP JUMPDEST PUSH1 0x40 MLOAD PUSH2 0xA9 SWAP2 SWAP1 PUSH2 0x756 JUMP JUMPDEST PUSH1 0x40 MLOAD DUP1 SWAP2 SUB SWAP1 RETURN JUMPDEST CALLVALUE DUP1 ISZERO PUSH2 0xBD JUMPI PUSH0 DUP1 REVERT JUMPDEST POP PUSH2 0xD8 PUSH1 0x4 DUP1 CALLDATASIZE SUB DUP2 ADD SWAP1 PUSH2 0xD3 SWAP2 SWAP1 PUSH2 0x7CD JUMP JUMPDEST PUSH2 0x28E JUMP JUMPDEST PUSH1 0x40 MLOAD PUSH2 0xE5 SWAP2 SWAP1 PUSH2 0x756 JUMP JUMPDEST PUSH1 0x40 MLOAD DUP1 SWAP2 SUB SWAP1 RETURN JUMPDEST CALLVALUE DUP1 ISZERO PUSH2 0xF9 JUMPI PUSH0 DUP1 REVERT JUMPDEST POP PUSH2 0x102 PUSH2 0x2A3 JUMP JUMPDEST PUSH1 0x40 MLOAD PUSH2 0x10F SWAP2 SWAP1 PUSH2 0x8EB JUMP JUMPDEST PUSH1 0x40 MLOAD DUP1 SWAP2 SUB SWAP1 RETURN JUMPDEST CALLVALUE DUP1 ISZERO PUSH2 0x123 JUMPI PUSH0 DUP1 REVERT JUMPDEST POP PUSH2 0x12C PUSH2 0x3C6 JUMP JUMPDEST STOP JUMPDEST CALLVALUE DUP1 ISZERO PUSH2 0x139 JUMPI PUSH0 DUP1 REVERT JUMPDEST POP PUSH2 0x154 PUSH1 0x4 DUP1 CALLDATASIZE SUB DUP2 ADD SWAP1 PUSH2 0x14F SWAP2 SWAP1 PUSH2 0x935 JUMP JUMPDEST PUSH2 0x40D JUMP JUMPDEST PUSH1 0x40 MLOAD PUSH2 0x161 SWAP2 SWAP1 PUSH2 0x96F JUMP JUMPDEST PUSH1 0x40 MLOAD DUP1 SWAP2 SUB SWAP1 RETURN JUMPDEST CALLVALUE DUP1 ISZERO PUSH2 0x175 JUMPI PUSH0 DUP1 REVERT JUMPDEST POP PUSH2 0x190 PUSH1 0x4 DUP1 CALLDATASIZE SUB DUP2 ADD SWAP1 PUSH2 0x18B SWAP2 SWAP1 PUSH2 0x935 JUMP JUMPDEST PUSH2 0x448 JUMP JUMPDEST PUSH1 0x40 MLOAD PUSH2 0x19E SWAP3 SWAP2 SWAP1 PUSH2 0x988 JUMP JUMPDEST PUSH1 0x40 MLOAD DUP1 SWAP2 SUB SWAP1 RETURN JUMPDEST PUSH2 0x1AF PUSH2 0x496 JUMP JUMPDEST STOP JUMPDEST PUSH0 DUP1 SLOAD SWAP1 PUSH2 0x100 EXP SWAP1 DIV PUSH20 0xFFFFFFFFFFFFFFFFFFFFFFFFFFFFFFFFFFFFFFFF AND PUSH20 0xFFFFFFFFFFFFFFFFFFFFFFFFFFFFFFFFFFFFFFFF AND CALLER PUSH20 0xFFFFFFFFFFFFFFFFFFFFFFFFFFFFFFFFFFFFFFFF AND EQ PUSH2 0x23E JUMPI PUSH1 0x40 MLOAD PUSH32 0x8C379A000000000000000000000000000000000000000000000000000000000 DUP2 MSTORE PUSH1 0x4 ADD PUSH2 0x235 SWAP1 PUSH2 0xA2F JUMP JUMPDEST PUSH1 0x40 MLOAD DUP1 SWAP2 SUB SWAP1 REVERT JUMPDEST PUSH1 0x5 SLOAD TIMESTAMP LT ISZERO PUSH2 0x283 JUMPI PUSH1 0x40 MLOAD PUSH32 0x8C379A000000000000000000000000000000000000000000000000000000000 DUP2 MSTORE PUSH1 0x4 ADD PUSH2 0x27A SWAP1 PUSH2 0xA97 JUMP JUMPDEST PUSH1 0x40 MLOAD DUP1 SWAP2 SUB SWAP1 REVERT JUMPDEST JUMP JUMPDEST PUSH0 PUSH1 0x2 SLOAD SWAP1 POP SWAP1 JUMP JUMPDEST PUSH1 0x6 PUSH1 0x20 MSTORE DUP1 PUSH0 MSTORE PUSH1 0x40 PUSH0 KECCAK256 PUSH0 SWAP2 POP SWAP1 POP SLOAD DUP2 JUMP JUMPDEST PUSH1 0x60 PUSH0 PUSH1 0x8 DUP1 SLOAD SWAP1 POP SWAP1 POP PUSH0 JUMPDEST DUP2 DUP2 LT ISZERO PUSH2 0x3C1 JUMPI PUSH1 0x40 MLOAD DUP1 PUSH1 0x40 ADD PUSH1 0x40 MSTORE DUP1 PUSH1 0x8 DUP4 DUP2 SLOAD DUP2 LT PUSH2 0x2D7 JUMPI PUSH2 0x2D6 PUSH2 0xAB5 JUMP JUMPDEST JUMPDEST SWAP1 PUSH0 MSTORE PUSH1 0x20 PUSH0 KECCAK256 ADD PUSH0 SWAP1 SLOAD SWAP1 PUSH2 0x100 EXP SWAP1 DIV PUSH20 0xFFFFFFFFFFFFFFFFFFFFFFFFFFFFFFFFFFFFFFFF AND PUSH20 0xFFFFFFFFFFFFFFFFFFFFFFFFFFFFFFFFFFFFFFFF AND DUP2 MSTORE PUSH1 0x20 ADD PUSH1 0x6 PUSH0 PUSH1 0x8 DUP6 DUP2 SLOAD DUP2 LT PUSH2 0x331 JUMPI PUSH2 0x330 PUSH2 0xAB5 JUMP JUMPDEST JUMPDEST SWAP1 PUSH0 MSTORE PUSH1 0x20 PUSH0 KECCAK256 ADD PUSH0 SWAP1 SLOAD SWAP1 PUSH2 0x100 EXP SWAP1 DIV PUSH20 0xFFFFFFFFFFFFFFFFFFFFFFFFFFFFFFFFFFFFFFFF AND PUSH20 0xFFFFFFFFFFFFFFFFFFFFFFFFFFFFFFFFFFFFFFFF AND PUSH20 0xFFFFFFFFFFFFFFFFFFFFFFFFFFFFFFFFFFFFFFFF AND DUP2 MSTORE PUSH1 0x20 ADD SWAP1 DUP2 MSTORE PUSH1 0x20 ADD PUSH0 KECCAK256 SLOAD DUP2 MSTORE POP DUP4 DUP3 DUP2 MLOAD DUP2 LT PUSH2 0x3A9 JUMPI PUSH2 0x3A8 PUSH2 0xAB5 JUMP JUMPDEST JUMPDEST PUSH1 0x20 MUL PUSH1 0x20 ADD ADD DUP2 SWAP1 MSTORE POP DUP1 DUP1 PUSH1 0x1 ADD SWAP2 POP POP PUSH2 0x2B0 JUMP JUMPDEST POP POP SWAP1 JUMP JUMPDEST PUSH1 0x5 SLOAD TIMESTAMP LT ISZERO PUSH2 0x40B JUMPI PUSH1 0x40 MLOAD PUSH32 0x8C379A000000000000000000000000000000000000000000000000000000000 DUP2 MSTORE PUSH1 0x4 ADD PUSH2 0x402 SWAP1 PUSH2 0xB2C JUMP JUMPDEST PUSH1 0x40 MLOAD DUP1 SWAP2 SUB SWAP1 REVERT JUMPDEST JUMP JUMPDEST PUSH1 0x8 DUP2 DUP2 SLOAD DUP2 LT PUSH2 0x41C JUMPI PUSH0 DUP1 REVERT JUMPDEST SWAP1 PUSH0 MSTORE PUSH1 0x20 PUSH0 KECCAK256 ADD PUSH0 SWAP2 POP SLOAD SWAP1 PUSH2 0x100 EXP SWAP1 DIV PUSH20 0xFFFFFFFFFFFFFFFFFFFFFFFFFFFFFFFFFFFFFFFF AND DUP2 JUMP JUMPDEST PUSH1 0x7 DUP2 DUP2 SLOAD DUP2 LT PUSH2 0x457 JUMPI PUSH0 DUP1 REVERT JUMPDEST SWAP1 PUSH0 MSTORE PUSH1 0x20 PUSH0 KECCAK256 SWAP1 PUSH1 0x2 MUL ADD PUSH0 SWAP2 POP SWAP1 POP DUP1 PUSH0 ADD PUSH0 SWAP1 SLOAD SWAP1 PUSH2 0x100 EXP SWAP1 DIV PUSH20 0xFFFFFFFFFFFFFFFFFFFFFFFFFFFFFFFFFFFFFFFF AND SWAP1 DUP1 PUSH1 0x1 ADD SLOAD SWAP1 POP DUP3 JUMP JUMPDEST PUSH1 0x5 SLOAD TIMESTAMP LT PUSH2 0x4DA JUMPI PUSH1 0x40 MLOAD PUSH32 0x8C379A000000000000000000000000000000000000000000000000000000000 DUP2 MSTORE PUSH1 0x4 ADD PUSH2 0x4D1 SWAP1 PUSH2 0xB94 JUMP JUMPDEST PUSH1 0x40 MLOAD DUP1 SWAP2 SUB SWAP1 REVERT JUMPDEST PUSH0 CALLER SWAP1 POP PUSH0 CALLVALUE SWAP1 POP PUSH1 0x64 DUP1 PUSH1 0x3 SLOAD PUSH2 0x4F2 SWAP2 SWAP1 PUSH2 0xBDF JUMP JUMPDEST PUSH2 0x4FC SWAP2 SWAP1 PUSH2 0xC3F JUMP JUMPDEST PUSH1 0x2 SLOAD PUSH2 0x509 SWAP2 SWAP1 PUSH2 0xC6F JUMP JUMPDEST DUP2 GT PUSH2 0x54A JUMPI PUSH1 0x40 MLOAD PUSH32 0x8C379A000000000000000000000000000000000000000000000000000000000 DUP2 MSTORE PUSH1 0x4 ADD PUSH2 0x541 SWAP1 PUSH2 0xD46 JUMP JUMPDEST PUSH1 0x40 MLOAD DUP1 SWAP2 SUB SWAP1 REVERT JUMPDEST PUSH0 PUSH1 0x6 PUSH0 DUP5 PUSH20 0xFFFFFFFFFFFFFFFFFFFFFFFFFFFFFFFFFFFFFFFF AND PUSH20 0xFFFFFFFFFFFFFFFFFFFFFFFFFFFFFFFFFFFFFFFF AND DUP2 MSTORE PUSH1 0x20 ADD SWAP1 DUP2 MSTORE PUSH1 0x20 ADD PUSH0 KECCAK256 SLOAD SUB PUSH2 0x5EF JUMPI PUSH1 0x8 DUP3 SWAP1 DUP1 PUSH1 0x1 DUP2 SLOAD ADD DUP1 DUP3 SSTORE DUP1 SWAP2 POP POP PUSH1 0x1 SWAP1 SUB SWAP1 PUSH0 MSTORE PUSH1 0x20 PUSH0 KECCAK256 ADD PUSH0 SWAP1 SWAP2 SWAP1 SWAP2 SWAP1 SWAP2 PUSH2 0x100 EXP DUP2 SLOAD DUP2 PUSH20 0xFFFFFFFFFFFFFFFFFFFFFFFFFFFFFFFFFFFFFFFF MUL NOT AND SWAP1 DUP4 PUSH20 0xFFFFFFFFFFFFFFFFFFFFFFFFFFFFFFFFFFFFFFFF AND MUL OR SWAP1 SSTORE POP JUMPDEST DUP1 PUSH1 0x6 PUSH0 DUP5 PUSH20 0xFFFFFFFFFFFFFFFFFFFFFFFFFFFFFFFFFFFFFFFF AND PUSH20 0xFFFFFFFFFFFFFFFFFFFFFFFFFFFFFFFFFFFFFFFF AND DUP2 MSTORE PUSH1 0x20 ADD SWAP1 DUP2 MSTORE PUSH1 0x20 ADD PUSH0 KECCAK256 PUSH0 DUP3 DUP3 SLOAD PUSH2 0x63B SWAP2 SWAP1 PUSH2 0xBDF JUMP JUMPDEST SWAP3 POP POP DUP2 SWAP1 SSTORE POP DUP1 PUSH1 0x2 DUP2 SWAP1 SSTORE POP PUSH1 0x7 PUSH1 0x40 MLOAD DUP1 PUSH1 0x40 ADD PUSH1 0x40 MSTORE DUP1 DUP5 PUSH20 0xFFFFFFFFFFFFFFFFFFFFFFFFFFFFFFFFFFFFFFFF AND DUP2 MSTORE PUSH1 0x20 ADD DUP4 DUP2 MSTORE POP SWAP1 DUP1 PUSH1 0x1 DUP2 SLOAD ADD DUP1 DUP3 SSTORE DUP1 SWAP2 POP POP PUSH1 0x1 SWAP1 SUB SWAP1 PUSH0 MSTORE PUSH1 0x20 PUSH0 KECCAK256 SWAP1 PUSH1 0x2 MUL ADD PUSH0 SWAP1 SWAP2 SWAP1 SWAP2 SWAP1 SWAP2 POP PUSH0 DUP3 ADD MLOAD DUP2 PUSH0 ADD PUSH0 PUSH2 0x100 EXP DUP2 SLOAD DUP2 PUSH20 0xFFFFFFFFFFFFFFFFFFFFFFFFFFFFFFFFFFFFFFFF MUL NOT AND SWAP1 DUP4 PUSH20 0xFFFFFFFFFFFFFFFFFFFFFFFFFFFFFFFFFFFFFFFF AND MUL OR SWAP1 SSTORE POP PUSH1 0x20 DUP3 ADD MLOAD DUP2 PUSH1 0x1 ADD SSTORE POP POP DUP2 PUSH20 0xFFFFFFFFFFFFFFFFFFFFFFFFFFFFFFFFFFFFFFFF AND PUSH32 0xDD0B6C6A77960E2066C96171B4D7AC9E8B4C184011F38544AFA36A5BB63EC59F DUP3 PUSH1 0x40 MLOAD PUSH2 0x732 SWAP2 SWAP1 PUSH2 0x756 JUMP JUMPDEST PUSH1 0x40 MLOAD DUP1 SWAP2 SUB SWAP1 LOG2 POP POP JUMP JUMPDEST PUSH0 DUP2 SWAP1 POP SWAP2 SWAP1 POP JUMP JUMPDEST PUSH2 0x750 DUP2 PUSH2 0x73E JUMP JUMPDEST DUP3 MSTORE POP POP JUMP JUMPDEST PUSH0 PUSH1 0x20 DUP3 ADD SWAP1 POP PUSH2 0x769 PUSH0 DUP4 ADD DUP5 PUSH2 0x747 JUMP JUMPDEST SWAP3 SWAP2 POP POP JUMP JUMPDEST PUSH0 DUP1 REVERT JUMPDEST PUSH0 PUSH20 0xFFFFFFFFFFFFFFFFFFFFFFFFFFFFFFFFFFFFFFFF DUP3 AND SWAP1 POP SWAP2 SWAP1 POP JUMP JUMPDEST PUSH0 PUSH2 0x79C DUP3 PUSH2 0x773 JUMP JUMPDEST SWAP1 POP SWAP2 SWAP1 POP JUMP JUMPDEST PUSH2 0x7AC DUP2 PUSH2 0x792 JUMP JUMPDEST DUP2 EQ PUSH2 0x7B6 JUMPI PUSH0 DUP1 REVERT JUMPDEST POP JUMP JUMPDEST PUSH0 DUP2 CALLDATALOAD SWAP1 POP PUSH2 0x7C7 DUP2 PUSH2 0x7A3 JUMP JUMPDEST SWAP3 SWAP2 POP POP JUMP JUMPDEST PUSH0 PUSH1 0x20 DUP3 DUP5 SUB SLT ISZERO PUSH2 0x7E2 JUMPI PUSH2 0x7E1 PUSH2 0x76F JUMP JUMPDEST JUMPDEST PUSH0 PUSH2 0x7EF DUP5 DUP3 DUP6 ADD PUSH2 0x7B9 JUMP JUMPDEST SWAP2 POP POP SWAP3 SWAP2 POP POP JUMP JUMPDEST PUSH0 DUP2 MLOAD SWAP1 POP SWAP2 SWAP1 POP JUMP JUMPDEST PUSH0 DUP3 DUP3 MSTORE PUSH1 0x20 DUP3 ADD SWAP1 POP SWAP3 SWAP2 POP POP JUMP JUMPDEST PUSH0 DUP2 SWAP1 POP PUSH1 0x20 DUP3 ADD SWAP1 POP SWAP2 SWAP1 POP JUMP JUMPDEST PUSH2 0x82A DUP2 PUSH2 0x792 JUMP JUMPDEST DUP3 MSTORE POP POP JUMP JUMPDEST PUSH2 0x839 DUP2 PUSH2 0x73E JUMP JUMPDEST DUP3 MSTORE POP POP JUMP JUMPDEST PUSH1 0x40 DUP3 ADD PUSH0 DUP3 ADD MLOAD PUSH2 0x853 PUSH0 DUP6 ADD DUP3 PUSH2 0x821 JUMP JUMPDEST POP PUSH1 0x20 DUP3 ADD MLOAD PUSH2 0x866 PUSH1 0x20 DUP6 ADD DUP3 PUSH2 0x830 JUMP JUMPDEST POP POP POP POP JUMP JUMPDEST PUSH0 PUSH2 0x877 DUP4 DUP4 PUSH2 0x83F JUMP JUMPDEST PUSH1 0x40 DUP4 ADD SWAP1 POP SWAP3 SWAP2 POP POP JUMP JUMPDEST PUSH0 PUSH1 0x20 DUP3 ADD SWAP1 POP SWAP2 SWAP1 POP JUMP JUMPDEST PUSH0 PUSH2 0x899 DUP3 PUSH2 0x7F8 JUMP JUMPDEST PUSH2 0x8A3 DUP2 DUP6 PUSH2 0x802 JUMP JUMPDEST SWAP4 POP PUSH2 0x8AE DUP4 PUSH2 0x812 JUMP JUMPDEST DUP1 PUSH0 JUMPDEST DUP4 DUP2 LT ISZERO PUSH2 0x8DE JUMPI DUP2 MLOAD PUSH2 0x8C5 DUP9 DUP3 PUSH2 0x86C JUMP JUMPDEST SWAP8 POP PUSH2 0x8D0 DUP4 PUSH2 0x883 JUMP JUMPDEST SWAP3 POP POP PUSH1 0x1 DUP2 ADD SWAP1 POP PUSH2 0x8B1 JUMP JUMPDEST POP DUP6 SWAP4 POP POP POP POP SWAP3 SWAP2 POP POP JUMP JUMPDEST PUSH0 PUSH1 0x20 DUP3 ADD SWAP1 POP DUP2 DUP2 SUB PUSH0 DUP4 ADD MSTORE PUSH2 0x903 DUP2 DUP5 PUSH2 0x88F JUMP JUMPDEST SWAP1 POP SWAP3 SWAP2 POP POP JUMP JUMPDEST PUSH2 0x914 DUP2 PUSH2 0x73E JUMP JUMPDEST DUP2 EQ PUSH2 0x91E JUMPI PUSH0 DUP1 REVERT JUMPDEST POP JUMP JUMPDEST PUSH0 DUP2 CALLDATALOAD SWAP1 POP PUSH2 0x92F DUP2 PUSH2 0x90B JUMP JUMPDEST SWAP3 SWAP2 POP POP JUMP JUMPDEST PUSH0 PUSH1 0x20 DUP3 DUP5 SUB SLT ISZERO PUSH2 0x94A JUMPI PUSH2 0x949 PUSH2 0x76F JUMP JUMPDEST JUMPDEST PUSH0 PUSH2 0x957 DUP5 DUP3 DUP6 ADD PUSH2 0x921 JUMP JUMPDEST SWAP2 POP POP SWAP3 SWAP2 POP POP JUMP JUMPDEST PUSH2 0x969 DUP2 PUSH2 0x792 JUMP JUMPDEST DUP3 MSTORE POP POP JUMP JUMPDEST PUSH0 PUSH1 0x20 DUP3 ADD SWAP1 POP PUSH2 0x982 PUSH0 DUP4 ADD DUP5 PUSH2 0x960 JUMP JUMPDEST SWAP3 SWAP2 POP POP JUMP JUMPDEST PUSH0 PUSH1 0x40 DUP3 ADD SWAP1 POP PUSH2 0x99B PUSH0 DUP4 ADD DUP6 PUSH2 0x960 JUMP JUMPDEST PUSH2 0x9A8 PUSH1 0x20 DUP4 ADD DUP5 PUSH2 0x747 JUMP JUMPDEST SWAP4 SWAP3 POP POP POP JUMP JUMPDEST PUSH0 DUP3 DUP3 MSTORE PUSH1 0x20 DUP3 ADD SWAP1 POP SWAP3 SWAP2 POP POP JUMP JUMPDEST PUSH32 0x4F6E6C79207468652061756374696F6E206F776E65722063616E206578656375 PUSH0 DUP3 ADD MSTORE PUSH32 0x746520746869732066756E6374696F6E00000000000000000000000000000000 PUSH1 0x20 DUP3 ADD MSTORE POP JUMP JUMPDEST PUSH0 PUSH2 0xA19 PUSH1 0x30 DUP4 PUSH2 0x9AF JUMP JUMPDEST SWAP2 POP PUSH2 0xA24 DUP3 PUSH2 0x9BF JUMP JUMPDEST PUSH1 0x40 DUP3 ADD SWAP1 POP SWAP2 SWAP1 POP JUMP JUMPDEST PUSH0 PUSH1 0x20 DUP3 ADD SWAP1 POP DUP2 DUP2 SUB PUSH0 DUP4 ADD MSTORE PUSH2 0xA46 DUP2 PUSH2 0xA0D JUMP JUMPDEST SWAP1 POP SWAP2 SWAP1 POP JUMP JUMPDEST PUSH32 0x5468652061756374696F6E20686173206E6F7420656E64656400000000000000 PUSH0 DUP3 ADD MSTORE POP JUMP JUMPDEST PUSH0 PUSH2 0xA81 PUSH1 0x19 DUP4 PUSH2 0x9AF JUMP JUMPDEST SWAP2 POP PUSH2 0xA8C DUP3 PUSH2 0xA4D JUMP JUMPDEST PUSH1 0x20 DUP3 ADD SWAP1 POP SWAP2 SWAP1 POP JUMP JUMPDEST PUSH0 PUSH1 0x20 DUP3 ADD SWAP1 POP DUP2 DUP2 SUB PUSH0 DUP4 ADD MSTORE PUSH2 0xAAE DUP2 PUSH2 0xA75 JUMP JUMPDEST SWAP1 POP SWAP2 SWAP1 POP JUMP JUMPDEST PUSH32 0x4E487B7100000000000000000000000000000000000000000000000000000000 PUSH0 MSTORE PUSH1 0x32 PUSH1 0x4 MSTORE PUSH1 0x24 PUSH0 REVERT JUMPDEST PUSH32 0x5468652061756374696F6E20686173206E6F742079657420656E646564000000 PUSH0 DUP3 ADD MSTORE POP JUMP JUMPDEST PUSH0 PUSH2 0xB16 PUSH1 0x1D DUP4 PUSH2 0x9AF JUMP JUMPDEST SWAP2 POP PUSH2 0xB21 DUP3 PUSH2 0xAE2 JUMP JUMPDEST PUSH1 0x20 DUP3 ADD SWAP1 POP SWAP2 SWAP1 POP JUMP JUMPDEST PUSH0 PUSH1 0x20 DUP3 ADD SWAP1 POP DUP2 DUP2 SUB PUSH0 DUP4 ADD MSTORE PUSH2 0xB43 DUP2 PUSH2 0xB0A JUMP JUMPDEST SWAP1 POP SWAP2 SWAP1 POP JUMP JUMPDEST PUSH32 0x5468652061756374696F6E2068617320656E6465640000000000000000000000 PUSH0 DUP3 ADD MSTORE POP JUMP JUMPDEST PUSH0 PUSH2 0xB7E PUSH1 0x15 DUP4 PUSH2 0x9AF JUMP JUMPDEST SWAP2 POP PUSH2 0xB89 DUP3 PUSH2 0xB4A JUMP JUMPDEST PUSH1 0x20 DUP3 ADD SWAP1 POP SWAP2 SWAP1 POP JUMP JUMPDEST PUSH0 PUSH1 0x20 DUP3 ADD SWAP1 POP DUP2 DUP2 SUB PUSH0 DUP4 ADD MSTORE PUSH2 0xBAB DUP2 PUSH2 0xB72 JUMP JUMPDEST SWAP1 POP SWAP2 SWAP1 POP JUMP JUMPDEST PUSH32 0x4E487B7100000000000000000000000000000000000000000000000000000000 PUSH0 MSTORE PUSH1 0x11 PUSH1 0x4 MSTORE PUSH1 0x24 PUSH0 REVERT JUMPDEST PUSH0 PUSH2 0xBE9 DUP3 PUSH2 0x73E JUMP JUMPDEST SWAP2 POP PUSH2 0xBF4 DUP4 PUSH2 0x73E JUMP JUMPDEST SWAP3 POP DUP3 DUP3 ADD SWAP1 POP DUP1 DUP3 GT ISZERO PUSH2 0xC0C JUMPI PUSH2 0xC0B PUSH2 0xBB2 JUMP JUMPDEST JUMPDEST SWAP3 SWAP2 POP POP JUMP JUMPDEST PUSH32 0x4E487B7100000000000000000000000000000000000000000000000000000000 PUSH0 MSTORE PUSH1 0x12 PUSH1 0x4 MSTORE PUSH1 0x24 PUSH0 REVERT JUMPDEST PUSH0 PUSH2 0xC49 DUP3 PUSH2 0x73E JUMP JUMPDEST SWAP2 POP PUSH2 0xC54 DUP4 PUSH2 0x73E JUMP JUMPDEST SWAP3 POP DUP3 PUSH2 0xC64 JUMPI PUSH2 0xC63 PUSH2 0xC12 JUMP JUMPDEST JUMPDEST DUP3 DUP3 DIV SWAP1 POP SWAP3 SWAP2 POP POP JUMP JUMPDEST PUSH0 PUSH2 0xC79 DUP3 PUSH2 0x73E JUMP JUMPDEST SWAP2 POP PUSH2 0xC84 DUP4 PUSH2 0x73E JUMP JUMPDEST SWAP3 POP DUP3 DUP3 MUL PUSH2 0xC92 DUP2 PUSH2 0x73E JUMP JUMPDEST SWAP2 POP DUP3 DUP3 DIV DUP5 EQ DUP4 ISZERO OR PUSH2 0xCA9 JUMPI PUSH2 0xCA8 PUSH2 0xBB2 JUMP JUMPDEST JUMPDEST POP SWAP3 SWAP2 POP POP JUMP JUMPDEST PUSH32 0x54686520626964206D75737420657863656564207468652062657374206F6666 PUSH0 DUP3 ADD MSTORE PUSH32 0x65722C2074616B696E6720696E746F206163636F756E7420746865206D696E69 PUSH1 0x20 DUP3 ADD MSTORE PUSH32 0x6D756D20696E6372656D656E74616C2076616C75650000000000000000000000 PUSH1 0x40 DUP3 ADD MSTORE POP JUMP JUMPDEST PUSH0 PUSH2 0xD30 PUSH1 0x55 DUP4 PUSH2 0x9AF JUMP JUMPDEST SWAP2 POP PUSH2 0xD3B DUP3 PUSH2 0xCB0 JUMP JUMPDEST PUSH1 0x60 DUP3 ADD SWAP1 POP SWAP2 SWAP1 POP JUMP JUMPDEST PUSH0 PUSH1 0x20 DUP3 ADD SWAP1 POP DUP2 DUP2 SUB PUSH0 DUP4 ADD MSTORE PUSH2 0xD5D DUP2 PUSH2 0xD24 JUMP JUMPDEST SWAP1 POP SWAP2 SWAP1 POP JUMP INVALID LOG2 PUSH5 0x6970667358 0x22 SLT KECCAK256 EXTCODECOPY SMOD 0xD6 PUSH16 0xE965AC17A4CB994638AE3ED52A637B47 ORIGIN 0xD5 PUSH14 0x3D2639C38BF5620F3C64736F6C63 NUMBER STOP ADDMOD BYTE STOP CALLER "
		},
		"gasEstimates": {
			"creation": {
				"codeDepositCost": "696400",
				"executionCost": "infinite",
				"totalCost": "infinite"
			},
			"external": {
				"bidders(uint256)": "infinite",
				"makeBid()": "infinite",
				"offers(address)": "2847",
				"returnDeposits()": "4695",
				"showBidders()": "infinite",
				"showCurrentBid()": "2455",
				"showWinner()": "2552",
				"uniqueAddr(uint256)": "4966"
			}
		},
		"methodIdentifiers": {
			"bidders(uint256)": "cff29dfd",
			"makeBid()": "f30e3658",
			"offers(address)": "413bf38f",
			"returnDeposits()": "362e2565",
			"showBidders()": "57ff41e4",
			"showCurrentBid()": "383e77cb",
			"showWinner()": "b7e03264",
			"uniqueAddr(uint256)": "c2741fb1"
		}
	},
	"abi": [
		{
			"inputs": [
				{
					"internalType": "uint256",
					"name": "_initValue",
					"type": "uint256"
				},
				{
					"internalType": "uint256",
					"name": "_bidIncrement",
					"type": "uint256"
				},
				{
					"internalType": "uint256",
					"name": "_duration",
					"type": "uint256"
				}
			],
			"stateMutability": "nonpayable",
			"type": "constructor"
		},
		{
			"anonymous": false,
			"inputs": [
				{
					"indexed": true,
					"internalType": "address",
					"name": "_bidder",
					"type": "address"
				},
				{
					"indexed": false,
					"internalType": "uint256",
					"name": "_bidValue",
					"type": "uint256"
				}
			],
			"name": "NewBid",
			"type": "event"
		},
		{
			"inputs": [
				{
					"internalType": "uint256",
					"name": "",
					"type": "uint256"
				}
			],
			"name": "bidders",
			"outputs": [
				{
					"internalType": "address",
					"name": "addrs",
					"type": "address"
				},
				{
					"internalType": "uint256",
					"name": "lastBid",
					"type": "uint256"
				}
			],
			"stateMutability": "view",
			"type": "function"
		},
		{
			"inputs": [],
			"name": "makeBid",
			"outputs": [],
			"stateMutability": "payable",
			"type": "function"
		},
		{
			"inputs": [
				{
					"internalType": "address",
					"name": "",
					"type": "address"
				}
			],
			"name": "offers",
			"outputs": [
				{
					"internalType": "uint256",
					"name": "",
					"type": "uint256"
				}
			],
			"stateMutability": "view",
			"type": "function"
		},
		{
			"inputs": [],
			"name": "returnDeposits",
			"outputs": [],
			"stateMutability": "payable",
			"type": "function"
		},
		{
			"inputs": [],
			"name": "showBidders",
			"outputs": [
				{
					"components": [
						{
							"internalType": "address",
							"name": "addrs",
							"type": "address"
						},
						{
							"internalType": "uint256",
							"name": "lastBid",
							"type": "uint256"
						}
					],
					"internalType": "struct AuctETH.Bidder[]",
					"name": "_bidders",
					"type": "tuple[]"
				}
			],
			"stateMutability": "view",
			"type": "function"
		},
		{
			"inputs": [],
			"name": "showCurrentBid",
			"outputs": [
				{
					"internalType": "uint256",
					"name": "_currentBid",
					"type": "uint256"
				}
			],
			"stateMutability": "view",
			"type": "function"
		},
		{
			"inputs": [],
			"name": "showWinner",
			"outputs": [],
			"stateMutability": "nonpayable",
			"type": "function"
		},
		{
			"inputs": [
				{
					"internalType": "uint256",
					"name": "",
					"type": "uint256"
				}
			],
			"name": "uniqueAddr",
			"outputs": [
				{
					"internalType": "address",
					"name": "",
					"type": "address"
				}
			],
			"stateMutability": "view",
			"type": "function"
		}
	]
}